{"contracts/CryptoMartRegistry.sol":{"CryptoMartRegistry":{"abi":[{"inputs":[],"stateMutability":"nonpayable","type":"constructor"},{"anonymous":false,"inputs":[{"indexed":false,"internalType":"uint8","name":"contractType","type":"uint8"},{"indexed":false,"internalType":"address","name":"oldAddress","type":"address"},{"indexed":false,"internalType":"address","name":"newAddress","type":"address"}],"name":"ContractUpgraded","type":"event"},{"anonymous":false,"inputs":[{"indexed":true,"internalType":"address","name":"previousOwner","type":"address"},{"indexed":true,"internalType":"address","name":"newOwner","type":"address"}],"name":"OwnershipTransferred","type":"event"},{"anonymous":false,"inputs":[{"indexed":true,"internalType":"address","name":"storage_","type":"address"},{"indexed":true,"internalType":"address","name":"core","type":"address"},{"indexed":true,"internalType":"address","name":"transactions","type":"address"},{"indexed":false,"internalType":"uint256","name":"timestamp","type":"uint256"}],"name":"SystemConfigured","type":"event"},{"inputs":[{"internalType":"address","name":"_storage","type":"address"},{"internalType":"address","name":"_core","type":"address"},{"internalType":"address","name":"_transactions","type":"address"}],"name":"configureSystem","outputs":[],"stateMutability":"nonpayable","type":"function"},{"inputs":[],"name":"coreContract","outputs":[{"internalType":"address","name":"","type":"address"}],"stateMutability":"view","type":"function"},{"inputs":[],"name":"deploymentTimestamp","outputs":[{"internalType":"uint256","name":"","type":"uint256"}],"stateMutability":"view","type":"function"},{"inputs":[],"name":"getContractAddresses","outputs":[{"internalType":"address","name":"storage_","type":"address"},{"internalType":"address","name":"core","type":"address"},{"internalType":"address","name":"transactions","type":"address"}],"stateMutability":"view","type":"function"},{"inputs":[],"name":"isConfigured","outputs":[{"internalType":"bool","name":"","type":"bool"}],"stateMutability":"view","type":"function"},{"inputs":[],"name":"owner","outputs":[{"internalType":"address","name":"","type":"address"}],"stateMutability":"view","type":"function"},{"inputs":[],"name":"renounceOwnership","outputs":[],"stateMutability":"nonpayable","type":"function"},{"inputs":[],"name":"storageContract","outputs":[{"internalType":"address","name":"","type":"address"}],"stateMutability":"view","type":"function"},{"inputs":[],"name":"transactionsContract","outputs":[{"internalType":"address","name":"","type":"address"}],"stateMutability":"view","type":"function"},{"inputs":[{"internalType":"address","name":"newOwner","type":"address"}],"name":"transferOwnership","outputs":[],"stateMutability":"nonpayable","type":"function"},{"inputs":[{"internalType":"uint8","name":"contractType","type":"uint8"},{"internalType":"address","name":"newAddress","type":"address"}],"name":"updateContract","outputs":[],"stateMutability":"nonpayable","type":"function"}],"evm":{"bytecode":{"linkReferences":{},"object":"60808060405234610067575f8054336001600160a01b0319821681178355916001600160a01b03909116907f8be0079c531659141344cd1fd0a4f28419497f9722a3daafe3b4186f6b6457e09080a36003805460ff60a01b1916905561070a908161006c8239f35b5f80fdfe604060808152600480361015610013575f80fd5b5f3560e01c806310779dda1461042f57806311ce026714610407578063715018a6146103c35780638da5cb5b1461039c578063953874d214610350578063bfc12c0514610333578063d3a057c81461030d578063e17f94c0146102e5578063e80db5db146102bd578063f0b2c40e146101445763f2fde38b14610094575f80fd5b34610140576020366003190112610140576100ad6105f6565b906100b6610666565b6001600160a01b039182169283156100ee5750505f548260018060a01b03198216175f55165f805160206106de8339815191525f80a3005b906020608492519162461bcd60e51b8352820152602660248201527f4f776e61626c653a206e6577206f776e657220697320746865207a65726f206160448201526564647265737360d01b6064820152fd5b5f80fd5b503461014057816003193601126101405780359060ff82168092036101405761016b61060c565b610173610666565b60035461018560ff8260a01c16610622565b6001600160a01b0391821692831561028857846101dc575050600180546001600160a01b0319811684179091555f805160206106be833981519152946060949392909181165b8251948552166020840152820152a1005b60018503610217575050600280546001600160a01b0319811684179091555f805160206106be833981519152946060949392909181166101cb565b6002850361024d57506001600160a01b0319811683176003555f805160206106be833981519152946060949392909181166101cb565b606490602087519162461bcd60e51b83528201526015602482015274496e76616c696420636f6e7472616374207479706560581b6044820152fd5b606490602087519162461bcd60e51b8352820152600f60248201526e496e76616c6964206164647265737360881b6044820152fd5b8234610140575f3660031901126101405760025490516001600160a01b039091168152602090f35b8234610140575f3660031901126101405760035490516001600160a01b039091168152602090f35b8234610140575f3660031901126101405760209060ff60035460a01c1690519015158152f35b509034610140575f36600319011261014057602091549051908152f35b8234610140575f366003190112610140576060906003549061037760ff8360a01c16610622565b60015460025482516001600160a01b0392831681529082166020820152921690820152f35b8234610140575f366003190112610140575f5490516001600160a01b039091168152602090f35b34610140575f366003190112610140576103db610666565b5f80546001600160a01b0319811682556001600160a01b03165f805160206106de8339815191528280a3005b8234610140575f3660031901126101405760015490516001600160a01b039091168152602090f35b5090346101405760603660031901126101405761044a6105f6565b9061045361060c565b906044359360018060a01b0380861680960361014057610471610666565b6003549460ff8660a01c166105b757811693841561057a57169384156105405785156104fe57600180546001600160a01b0319908116861790915560028054909116861790556001600160a81b0319168517600160a01b17600355429081905590519081527f5290d34137701b8ef281da7d6bc57513f66e019328559211169d3ce6808c12ab90602090a4005b506020606492519162461bcd60e51b8352820152601c60248201527b496e76616c6964207472616e73616374696f6e73206164647265737360201b6044820152fd5b506020606492519162461bcd60e51b83528201526014602482015273496e76616c696420636f7265206164647265737360601b6044820152fd5b835162461bcd60e51b81526020818501526017602482015276496e76616c69642073746f72616765206164647265737360481b6044820152606490fd5b835162461bcd60e51b8152602081850152601960248201527814de5cdd195b48185b1c9958591e4818dbdb999a59dd5c9959603a1b6044820152606490fd5b600435906001600160a01b038216820361014057565b602435906001600160a01b038216820361014057565b1561062957565b60405162461bcd60e51b815260206004820152601560248201527414de5cdd195b481b9bdd0818dbdb999a59dd5c9959605a1b6044820152606490fd5b5f546001600160a01b0316330361067957565b606460405162461bcd60e51b815260206004820152602060248201527f4f776e61626c653a2063616c6c6572206973206e6f7420746865206f776e65726044820152fdfe23567ab4c98f6e22d2bd3a6e75caa90db4ab9e9b71d3cd77e661b01004a99b0e8be0079c531659141344cd1fd0a4f28419497f9722a3daafe3b4186f6b6457e0a164736f6c6343000818000a","opcodes":"PUSH1 0x80 DUP1 PUSH1 0x40 MSTORE CALLVALUE PUSH2 0x67 JUMPI PUSH0 DUP1 SLOAD CALLER PUSH1 0x1 PUSH1 0x1 PUSH1 0xA0 SHL SUB NOT DUP3 AND DUP2 OR DUP4 SSTORE SWAP2 PUSH1 0x1 PUSH1 0x1 PUSH1 0xA0 SHL SUB SWAP1 SWAP2 AND SWAP1 PUSH32 0x8BE0079C531659141344CD1FD0A4F28419497F9722A3DAAFE3B4186F6B6457E0 SWAP1 DUP1 LOG3 PUSH1 0x3 DUP1 SLOAD PUSH1 0xFF PUSH1 0xA0 SHL NOT AND SWAP1 SSTORE PUSH2 0x70A SWAP1 DUP2 PUSH2 0x6C DUP3 CODECOPY RETURN JUMPDEST PUSH0 DUP1 REVERT INVALID PUSH1 0x40 PUSH1 0x80 DUP2 MSTORE PUSH1 0x4 DUP1 CALLDATASIZE LT ISZERO PUSH2 0x13 JUMPI PUSH0 DUP1 REVERT JUMPDEST PUSH0 CALLDATALOAD PUSH1 0xE0 SHR DUP1 PUSH4 0x10779DDA EQ PUSH2 0x42F JUMPI DUP1 PUSH4 0x11CE0267 EQ PUSH2 0x407 JUMPI DUP1 PUSH4 0x715018A6 EQ PUSH2 0x3C3 JUMPI DUP1 PUSH4 0x8DA5CB5B EQ PUSH2 0x39C JUMPI DUP1 PUSH4 0x953874D2 EQ PUSH2 0x350 JUMPI DUP1 PUSH4 0xBFC12C05 EQ PUSH2 0x333 JUMPI DUP1 PUSH4 0xD3A057C8 EQ PUSH2 0x30D JUMPI DUP1 PUSH4 0xE17F94C0 EQ PUSH2 0x2E5 JUMPI DUP1 PUSH4 0xE80DB5DB EQ PUSH2 0x2BD JUMPI DUP1 PUSH4 0xF0B2C40E EQ PUSH2 0x144 JUMPI PUSH4 0xF2FDE38B EQ PUSH2 0x94 JUMPI PUSH0 DUP1 REVERT JUMPDEST CALLVALUE PUSH2 0x140 JUMPI PUSH1 0x20 CALLDATASIZE PUSH1 0x3 NOT ADD SLT PUSH2 0x140 JUMPI PUSH2 0xAD PUSH2 0x5F6 JUMP JUMPDEST SWAP1 PUSH2 0xB6 PUSH2 0x666 JUMP JUMPDEST PUSH1 0x1 PUSH1 0x1 PUSH1 0xA0 SHL SUB SWAP2 DUP3 AND SWAP3 DUP4 ISZERO PUSH2 0xEE JUMPI POP POP PUSH0 SLOAD DUP3 PUSH1 0x1 DUP1 PUSH1 0xA0 SHL SUB NOT DUP3 AND OR PUSH0 SSTORE AND PUSH0 DUP1 MLOAD PUSH1 0x20 PUSH2 0x6DE DUP4 CODECOPY DUP2 MLOAD SWAP2 MSTORE PUSH0 DUP1 LOG3 STOP JUMPDEST SWAP1 PUSH1 0x20 PUSH1 0x84 SWAP3 MLOAD SWAP2 PUSH3 0x461BCD PUSH1 0xE5 SHL DUP4 MSTORE DUP3 ADD MSTORE PUSH1 0x26 PUSH1 0x24 DUP3 ADD MSTORE PUSH32 0x4F776E61626C653A206E6577206F776E657220697320746865207A65726F2061 PUSH1 0x44 DUP3 ADD MSTORE PUSH6 0x646472657373 PUSH1 0xD0 SHL PUSH1 0x64 DUP3 ADD MSTORE REVERT JUMPDEST PUSH0 DUP1 REVERT JUMPDEST POP CALLVALUE PUSH2 0x140 JUMPI DUP2 PUSH1 0x3 NOT CALLDATASIZE ADD SLT PUSH2 0x140 JUMPI DUP1 CALLDATALOAD SWAP1 PUSH1 0xFF DUP3 AND DUP1 SWAP3 SUB PUSH2 0x140 JUMPI PUSH2 0x16B PUSH2 0x60C JUMP JUMPDEST PUSH2 0x173 PUSH2 0x666 JUMP JUMPDEST PUSH1 0x3 SLOAD PUSH2 0x185 PUSH1 0xFF DUP3 PUSH1 0xA0 SHR AND PUSH2 0x622 JUMP JUMPDEST PUSH1 0x1 PUSH1 0x1 PUSH1 0xA0 SHL SUB SWAP2 DUP3 AND SWAP3 DUP4 ISZERO PUSH2 0x288 JUMPI DUP5 PUSH2 0x1DC JUMPI POP POP PUSH1 0x1 DUP1 SLOAD PUSH1 0x1 PUSH1 0x1 PUSH1 0xA0 SHL SUB NOT DUP2 AND DUP5 OR SWAP1 SWAP2 SSTORE PUSH0 DUP1 MLOAD PUSH1 0x20 PUSH2 0x6BE DUP4 CODECOPY DUP2 MLOAD SWAP2 MSTORE SWAP5 PUSH1 0x60 SWAP5 SWAP4 SWAP3 SWAP1 SWAP2 DUP2 AND JUMPDEST DUP3 MLOAD SWAP5 DUP6 MSTORE AND PUSH1 0x20 DUP5 ADD MSTORE DUP3 ADD MSTORE LOG1 STOP JUMPDEST PUSH1 0x1 DUP6 SUB PUSH2 0x217 JUMPI POP POP PUSH1 0x2 DUP1 SLOAD PUSH1 0x1 PUSH1 0x1 PUSH1 0xA0 SHL SUB NOT DUP2 AND DUP5 OR SWAP1 SWAP2 SSTORE PUSH0 DUP1 MLOAD PUSH1 0x20 PUSH2 0x6BE DUP4 CODECOPY DUP2 MLOAD SWAP2 MSTORE SWAP5 PUSH1 0x60 SWAP5 SWAP4 SWAP3 SWAP1 SWAP2 DUP2 AND PUSH2 0x1CB JUMP JUMPDEST PUSH1 0x2 DUP6 SUB PUSH2 0x24D JUMPI POP PUSH1 0x1 PUSH1 0x1 PUSH1 0xA0 SHL SUB NOT DUP2 AND DUP4 OR PUSH1 0x3 SSTORE PUSH0 DUP1 MLOAD PUSH1 0x20 PUSH2 0x6BE DUP4 CODECOPY DUP2 MLOAD SWAP2 MSTORE SWAP5 PUSH1 0x60 SWAP5 SWAP4 SWAP3 SWAP1 SWAP2 DUP2 AND PUSH2 0x1CB JUMP JUMPDEST PUSH1 0x64 SWAP1 PUSH1 0x20 DUP8 MLOAD SWAP2 PUSH3 0x461BCD PUSH1 0xE5 SHL DUP4 MSTORE DUP3 ADD MSTORE PUSH1 0x15 PUSH1 0x24 DUP3 ADD MSTORE PUSH21 0x496E76616C696420636F6E74726163742074797065 PUSH1 0x58 SHL PUSH1 0x44 DUP3 ADD MSTORE REVERT JUMPDEST PUSH1 0x64 SWAP1 PUSH1 0x20 DUP8 MLOAD SWAP2 PUSH3 0x461BCD PUSH1 0xE5 SHL DUP4 MSTORE DUP3 ADD MSTORE PUSH1 0xF PUSH1 0x24 DUP3 ADD MSTORE PUSH15 0x496E76616C69642061646472657373 PUSH1 0x88 SHL PUSH1 0x44 DUP3 ADD MSTORE REVERT JUMPDEST DUP3 CALLVALUE PUSH2 0x140 JUMPI PUSH0 CALLDATASIZE PUSH1 0x3 NOT ADD SLT PUSH2 0x140 JUMPI PUSH1 0x2 SLOAD SWAP1 MLOAD PUSH1 0x1 PUSH1 0x1 PUSH1 0xA0 SHL SUB SWAP1 SWAP2 AND DUP2 MSTORE PUSH1 0x20 SWAP1 RETURN JUMPDEST DUP3 CALLVALUE PUSH2 0x140 JUMPI PUSH0 CALLDATASIZE PUSH1 0x3 NOT ADD SLT PUSH2 0x140 JUMPI PUSH1 0x3 SLOAD SWAP1 MLOAD PUSH1 0x1 PUSH1 0x1 PUSH1 0xA0 SHL SUB SWAP1 SWAP2 AND DUP2 MSTORE PUSH1 0x20 SWAP1 RETURN JUMPDEST DUP3 CALLVALUE PUSH2 0x140 JUMPI PUSH0 CALLDATASIZE PUSH1 0x3 NOT ADD SLT PUSH2 0x140 JUMPI PUSH1 0x20 SWAP1 PUSH1 0xFF PUSH1 0x3 SLOAD PUSH1 0xA0 SHR AND SWAP1 MLOAD SWAP1 ISZERO ISZERO DUP2 MSTORE RETURN JUMPDEST POP SWAP1 CALLVALUE PUSH2 0x140 JUMPI PUSH0 CALLDATASIZE PUSH1 0x3 NOT ADD SLT PUSH2 0x140 JUMPI PUSH1 0x20 SWAP2 SLOAD SWAP1 MLOAD SWAP1 DUP2 MSTORE RETURN JUMPDEST DUP3 CALLVALUE PUSH2 0x140 JUMPI PUSH0 CALLDATASIZE PUSH1 0x3 NOT ADD SLT PUSH2 0x140 JUMPI PUSH1 0x60 SWAP1 PUSH1 0x3 SLOAD SWAP1 PUSH2 0x377 PUSH1 0xFF DUP4 PUSH1 0xA0 SHR AND PUSH2 0x622 JUMP JUMPDEST PUSH1 0x1 SLOAD PUSH1 0x2 SLOAD DUP3 MLOAD PUSH1 0x1 PUSH1 0x1 PUSH1 0xA0 SHL SUB SWAP3 DUP4 AND DUP2 MSTORE SWAP1 DUP3 AND PUSH1 0x20 DUP3 ADD MSTORE SWAP3 AND SWAP1 DUP3 ADD MSTORE RETURN JUMPDEST DUP3 CALLVALUE PUSH2 0x140 JUMPI PUSH0 CALLDATASIZE PUSH1 0x3 NOT ADD SLT PUSH2 0x140 JUMPI PUSH0 SLOAD SWAP1 MLOAD PUSH1 0x1 PUSH1 0x1 PUSH1 0xA0 SHL SUB SWAP1 SWAP2 AND DUP2 MSTORE PUSH1 0x20 SWAP1 RETURN JUMPDEST CALLVALUE PUSH2 0x140 JUMPI PUSH0 CALLDATASIZE PUSH1 0x3 NOT ADD SLT PUSH2 0x140 JUMPI PUSH2 0x3DB PUSH2 0x666 JUMP JUMPDEST PUSH0 DUP1 SLOAD PUSH1 0x1 PUSH1 0x1 PUSH1 0xA0 SHL SUB NOT DUP2 AND DUP3 SSTORE PUSH1 0x1 PUSH1 0x1 PUSH1 0xA0 SHL SUB AND PUSH0 DUP1 MLOAD PUSH1 0x20 PUSH2 0x6DE DUP4 CODECOPY DUP2 MLOAD SWAP2 MSTORE DUP3 DUP1 LOG3 STOP JUMPDEST DUP3 CALLVALUE PUSH2 0x140 JUMPI PUSH0 CALLDATASIZE PUSH1 0x3 NOT ADD SLT PUSH2 0x140 JUMPI PUSH1 0x1 SLOAD SWAP1 MLOAD PUSH1 0x1 PUSH1 0x1 PUSH1 0xA0 SHL SUB SWAP1 SWAP2 AND DUP2 MSTORE PUSH1 0x20 SWAP1 RETURN JUMPDEST POP SWAP1 CALLVALUE PUSH2 0x140 JUMPI PUSH1 0x60 CALLDATASIZE PUSH1 0x3 NOT ADD SLT PUSH2 0x140 JUMPI PUSH2 0x44A PUSH2 0x5F6 JUMP JUMPDEST SWAP1 PUSH2 0x453 PUSH2 0x60C JUMP JUMPDEST SWAP1 PUSH1 0x44 CALLDATALOAD SWAP4 PUSH1 0x1 DUP1 PUSH1 0xA0 SHL SUB DUP1 DUP7 AND DUP1 SWAP7 SUB PUSH2 0x140 JUMPI PUSH2 0x471 PUSH2 0x666 JUMP JUMPDEST PUSH1 0x3 SLOAD SWAP5 PUSH1 0xFF DUP7 PUSH1 0xA0 SHR AND PUSH2 0x5B7 JUMPI DUP2 AND SWAP4 DUP5 ISZERO PUSH2 0x57A JUMPI AND SWAP4 DUP5 ISZERO PUSH2 0x540 JUMPI DUP6 ISZERO PUSH2 0x4FE JUMPI PUSH1 0x1 DUP1 SLOAD PUSH1 0x1 PUSH1 0x1 PUSH1 0xA0 SHL SUB NOT SWAP1 DUP2 AND DUP7 OR SWAP1 SWAP2 SSTORE PUSH1 0x2 DUP1 SLOAD SWAP1 SWAP2 AND DUP7 OR SWAP1 SSTORE PUSH1 0x1 PUSH1 0x1 PUSH1 0xA8 SHL SUB NOT AND DUP6 OR PUSH1 0x1 PUSH1 0xA0 SHL OR PUSH1 0x3 SSTORE TIMESTAMP SWAP1 DUP2 SWAP1 SSTORE SWAP1 MLOAD SWAP1 DUP2 MSTORE PUSH32 0x5290D34137701B8EF281DA7D6BC57513F66E019328559211169D3CE6808C12AB SWAP1 PUSH1 0x20 SWAP1 LOG4 STOP JUMPDEST POP PUSH1 0x20 PUSH1 0x64 SWAP3 MLOAD SWAP2 PUSH3 0x461BCD PUSH1 0xE5 SHL DUP4 MSTORE DUP3 ADD MSTORE PUSH1 0x1C PUSH1 0x24 DUP3 ADD MSTORE PUSH28 0x496E76616C6964207472616E73616374696F6E732061646472657373 PUSH1 0x20 SHL PUSH1 0x44 DUP3 ADD MSTORE REVERT JUMPDEST POP PUSH1 0x20 PUSH1 0x64 SWAP3 MLOAD SWAP2 PUSH3 0x461BCD PUSH1 0xE5 SHL DUP4 MSTORE DUP3 ADD MSTORE PUSH1 0x14 PUSH1 0x24 DUP3 ADD MSTORE PUSH20 0x496E76616C696420636F72652061646472657373 PUSH1 0x60 SHL PUSH1 0x44 DUP3 ADD MSTORE REVERT JUMPDEST DUP4 MLOAD PUSH3 0x461BCD PUSH1 0xE5 SHL DUP2 MSTORE PUSH1 0x20 DUP2 DUP6 ADD MSTORE PUSH1 0x17 PUSH1 0x24 DUP3 ADD MSTORE PUSH23 0x496E76616C69642073746F726167652061646472657373 PUSH1 0x48 SHL PUSH1 0x44 DUP3 ADD MSTORE PUSH1 0x64 SWAP1 REVERT JUMPDEST DUP4 MLOAD PUSH3 0x461BCD PUSH1 0xE5 SHL DUP2 MSTORE PUSH1 0x20 DUP2 DUP6 ADD MSTORE PUSH1 0x19 PUSH1 0x24 DUP3 ADD MSTORE PUSH25 0x14DE5CDD195B48185B1C9958591E4818DBDB999A59DD5C9959 PUSH1 0x3A SHL PUSH1 0x44 DUP3 ADD MSTORE PUSH1 0x64 SWAP1 REVERT JUMPDEST PUSH1 0x4 CALLDATALOAD SWAP1 PUSH1 0x1 PUSH1 0x1 PUSH1 0xA0 SHL SUB DUP3 AND DUP3 SUB PUSH2 0x140 JUMPI JUMP JUMPDEST PUSH1 0x24 CALLDATALOAD SWAP1 PUSH1 0x1 PUSH1 0x1 PUSH1 0xA0 SHL SUB DUP3 AND DUP3 SUB PUSH2 0x140 JUMPI JUMP JUMPDEST ISZERO PUSH2 0x629 JUMPI JUMP JUMPDEST PUSH1 0x40 MLOAD PUSH3 0x461BCD PUSH1 0xE5 SHL DUP2 MSTORE PUSH1 0x20 PUSH1 0x4 DUP3 ADD MSTORE PUSH1 0x15 PUSH1 0x24 DUP3 ADD MSTORE PUSH21 0x14DE5CDD195B481B9BDD0818DBDB999A59DD5C9959 PUSH1 0x5A SHL PUSH1 0x44 DUP3 ADD MSTORE PUSH1 0x64 SWAP1 REVERT JUMPDEST PUSH0 SLOAD PUSH1 0x1 PUSH1 0x1 PUSH1 0xA0 SHL SUB AND CALLER SUB PUSH2 0x679 JUMPI JUMP JUMPDEST PUSH1 0x64 PUSH1 0x40 MLOAD PUSH3 0x461BCD PUSH1 0xE5 SHL DUP2 MSTORE PUSH1 0x20 PUSH1 0x4 DUP3 ADD MSTORE PUSH1 0x20 PUSH1 0x24 DUP3 ADD MSTORE PUSH32 0x4F776E61626C653A2063616C6C6572206973206E6F7420746865206F776E6572 PUSH1 0x44 DUP3 ADD MSTORE REVERT INVALID 0x23 JUMP PUSH27 0xB4C98F6E22D2BD3A6E75CAA90DB4AB9E9B71D3CD77E661B01004A9 SWAP12 0xE DUP12 0xE0 SMOD SWAP13 MSTORE8 AND MSIZE EQ SGT PREVRANDAO 0xCD 0x1F 0xD0 LOG4 CALLCODE DUP5 NOT BLOBHASH PUSH32 0x9722A3DAAFE3B4186F6B6457E0A164736F6C6343000818000A00000000000000 "},"methodIdentifiers":{"configureSystem(address,address,address)":"10779dda","coreContract()":"e80db5db","deploymentTimestamp()":"bfc12c05","getContractAddresses()":"953874d2","isConfigured()":"d3a057c8","owner()":"8da5cb5b","renounceOwnership()":"715018a6","storageContract()":"11ce0267","transactionsContract()":"e17f94c0","transferOwnership(address)":"f2fde38b","updateContract(uint8,address)":"f0b2c40e"}}}}}