{"contracts/CryptoMartStorage.sol":{"CryptoMartStorage":{"abi":[{"inputs":[{"internalType":"uint256","name":"_servicePct","type":"uint256"}],"stateMutability":"nonpayable","type":"constructor"},{"anonymous":false,"inputs":[{"indexed":true,"internalType":"address","name":"previousOwner","type":"address"},{"indexed":true,"internalType":"address","name":"newOwner","type":"address"}],"name":"OwnershipTransferred","type":"event"},{"inputs":[{"internalType":"address","name":"_contract","type":"address"}],"name":"addAuthorizedContract","outputs":[],"stateMutability":"nonpayable","type":"function"},{"inputs":[{"internalType":"address","name":"buyer","type":"address"},{"internalType":"address","name":"seller","type":"address"},{"components":[{"internalType":"uint256","name":"productId","type":"uint256"},{"internalType":"address","name":"buyer","type":"address"},{"internalType":"address","name":"seller","type":"address"},{"internalType":"uint256","name":"totalAmount","type":"uint256"},{"internalType":"uint256","name":"timestamp","type":"uint256"},{"internalType":"bool","name":"isDelivered","type":"bool"}],"internalType":"struct CryptoMartStorage.PurchaseStruct","name":"purchase","type":"tuple"}],"name":"addPurchaseHistory","outputs":[],"stateMutability":"nonpayable","type":"function"},{"inputs":[{"internalType":"uint256","name":"productId","type":"uint256"},{"components":[{"internalType":"uint256","name":"reviewId","type":"uint256"},{"internalType":"address","name":"reviewer","type":"address"},{"internalType":"uint256","name":"rating","type":"uint256"},{"internalType":"string","name":"comment","type":"string"},{"internalType":"bool","name":"deleted","type":"bool"},{"internalType":"uint256","name":"timestamp","type":"uint256"}],"internalType":"struct CryptoMartStorage.ReviewStruct","name":"review","type":"tuple"}],"name":"addReview","outputs":[],"stateMutability":"nonpayable","type":"function"},{"inputs":[{"internalType":"address","name":"seller","type":"address"},{"internalType":"uint256","name":"productId","type":"uint256"}],"name":"addSellerProduct","outputs":[],"stateMutability":"nonpayable","type":"function"},{"inputs":[{"internalType":"address","name":"","type":"address"}],"name":"authorizedContracts","outputs":[{"internalType":"bool","name":"","type":"bool"}],"stateMutability":"view","type":"function"},{"inputs":[{"internalType":"address","name":"","type":"address"},{"internalType":"uint256","name":"","type":"uint256"}],"name":"buyerPurchaseHistory","outputs":[{"internalType":"uint256","name":"productId","type":"uint256"},{"internalType":"address","name":"buyer","type":"address"},{"internalType":"address","name":"seller","type":"address"},{"internalType":"uint256","name":"totalAmount","type":"uint256"},{"internalType":"uint256","name":"timestamp","type":"uint256"},{"internalType":"bool","name":"isDelivered","type":"bool"}],"stateMutability":"view","type":"function"},{"inputs":[{"internalType":"uint256","name":"","type":"uint256"}],"name":"categories","outputs":[{"internalType":"uint256","name":"id","type":"uint256"},{"internalType":"string","name":"name","type":"string"},{"internalType":"bool","name":"isActive","type":"bool"}],"stateMutability":"view","type":"function"},{"inputs":[],"name":"categoryCounter","outputs":[{"internalType":"uint256","name":"","type":"uint256"}],"stateMutability":"view","type":"function"},{"inputs":[{"internalType":"address","name":"seller","type":"address"},{"internalType":"uint256","name":"amount","type":"uint256"}],"name":"deductSellerBalance","outputs":[],"stateMutability":"nonpayable","type":"function"},{"inputs":[],"name":"getAllRegisteredSellers","outputs":[{"internalType":"address[]","name":"","type":"address[]"}],"stateMutability":"view","type":"function"},{"inputs":[{"internalType":"address","name":"buyer","type":"address"}],"name":"getBuyerPurchases","outputs":[{"components":[{"internalType":"uint256","name":"productId","type":"uint256"},{"internalType":"address","name":"buyer","type":"address"},{"internalType":"address","name":"seller","type":"address"},{"internalType":"uint256","name":"totalAmount","type":"uint256"},{"internalType":"uint256","name":"timestamp","type":"uint256"},{"internalType":"bool","name":"isDelivered","type":"bool"}],"internalType":"struct CryptoMartStorage.PurchaseStruct[]","name":"","type":"tuple[]"}],"stateMutability":"view","type":"function"},{"inputs":[{"internalType":"uint256","name":"id","type":"uint256"}],"name":"getCategory","outputs":[{"components":[{"internalType":"uint256","name":"id","type":"uint256"},{"internalType":"string","name":"name","type":"string"},{"internalType":"bool","name":"isActive","type":"bool"}],"internalType":"struct CryptoMartStorage.CategoryStruct","name":"","type":"tuple"}],"stateMutability":"view","type":"function"},{"inputs":[],"name":"getPendingVerificationUsers","outputs":[{"internalType":"address[]","name":"","type":"address[]"}],"stateMutability":"view","type":"function"},{"inputs":[{"internalType":"uint256","name":"id","type":"uint256"}],"name":"getProduct","outputs":[{"components":[{"internalType":"uint256","name":"id","type":"uint256"},{"internalType":"address","name":"seller","type":"address"},{"internalType":"string","name":"name","type":"string"},{"internalType":"string","name":"description","type":"string"},{"internalType":"string","name":"image","type":"string"},{"internalType":"uint256","name":"categoryId","type":"uint256"},{"internalType":"uint256","name":"cost","type":"uint256"},{"internalType":"uint256","name":"stock","type":"uint256"},{"internalType":"uint256","name":"timestamp","type":"uint256"},{"internalType":"bool","name":"deleted","type":"bool"}],"internalType":"struct CryptoMartStorage.ProductStruct","name":"","type":"tuple"}],"stateMutability":"view","type":"function"},{"inputs":[{"internalType":"uint256","name":"productId","type":"uint256"}],"name":"getProductReviews","outputs":[{"components":[{"internalType":"uint256","name":"reviewId","type":"uint256"},{"internalType":"address","name":"reviewer","type":"address"},{"internalType":"uint256","name":"rating","type":"uint256"},{"internalType":"string","name":"comment","type":"string"},{"internalType":"bool","name":"deleted","type":"bool"},{"internalType":"uint256","name":"timestamp","type":"uint256"}],"internalType":"struct CryptoMartStorage.ReviewStruct[]","name":"","type":"tuple[]"}],"stateMutability":"view","type":"function"},{"inputs":[{"internalType":"address","name":"seller","type":"address"}],"name":"getSeller","outputs":[{"components":[{"internalType":"string","name":"businessName","type":"string"},{"internalType":"string","name":"description","type":"string"},{"internalType":"string","name":"email","type":"string"},{"internalType":"string","name":"phone","type":"string"},{"internalType":"string","name":"logo","type":"string"},{"internalType":"bool","name":"isRegistered","type":"bool"},{"internalType":"uint256","name":"registeredAt","type":"uint256"}],"internalType":"struct CryptoMartStorage.SellerProfile","name":"","type":"tuple"},{"internalType":"enum CryptoMartStorage.SellerStatus","name":"","type":"uint8"}],"stateMutability":"view","type":"function"},{"inputs":[{"internalType":"address","name":"seller","type":"address"}],"name":"getSellerProducts","outputs":[{"internalType":"uint256[]","name":"","type":"uint256[]"}],"stateMutability":"view","type":"function"},{"inputs":[{"internalType":"address","name":"seller","type":"address"}],"name":"getSellerPurchases","outputs":[{"components":[{"internalType":"uint256","name":"productId","type":"uint256"},{"internalType":"address","name":"buyer","type":"address"},{"internalType":"address","name":"seller","type":"address"},{"internalType":"uint256","name":"totalAmount","type":"uint256"},{"internalType":"uint256","name":"timestamp","type":"uint256"},{"internalType":"bool","name":"isDelivered","type":"bool"}],"internalType":"struct CryptoMartStorage.PurchaseStruct[]","name":"","type":"tuple[]"}],"stateMutability":"view","type":"function"},{"inputs":[{"internalType":"address","name":"user","type":"address"}],"name":"getUser","outputs":[{"components":[{"internalType":"string","name":"name","type":"string"},{"internalType":"string","name":"email","type":"string"},{"internalType":"string","name":"avatar","type":"string"},{"internalType":"bool","name":"isRegistered","type":"bool"}],"internalType":"struct CryptoMartStorage.UserProfile","name":"","type":"tuple"}],"stateMutability":"view","type":"function"},{"inputs":[],"name":"incrementCategories","outputs":[{"internalType":"uint256","name":"","type":"uint256"}],"stateMutability":"nonpayable","type":"function"},{"inputs":[],"name":"incrementProducts","outputs":[{"internalType":"uint256","name":"","type":"uint256"}],"stateMutability":"nonpayable","type":"function"},{"inputs":[],"name":"incrementReviews","outputs":[{"internalType":"uint256","name":"","type":"uint256"}],"stateMutability":"nonpayable","type":"function"},{"inputs":[],"name":"incrementSales","outputs":[{"internalType":"uint256","name":"","type":"uint256"}],"stateMutability":"nonpayable","type":"function"},{"inputs":[],"name":"owner","outputs":[{"internalType":"address","name":"","type":"address"}],"stateMutability":"view","type":"function"},{"inputs":[{"internalType":"uint256","name":"","type":"uint256"}],"name":"pendingVerificationUsers","outputs":[{"internalType":"address","name":"","type":"address"}],"stateMutability":"view","type":"function"},{"inputs":[{"internalType":"uint256","name":"","type":"uint256"}],"name":"productCategories","outputs":[{"internalType":"uint256","name":"","type":"uint256"}],"stateMutability":"view","type":"function"},{"inputs":[{"internalType":"uint256","name":"","type":"uint256"}],"name":"productExists","outputs":[{"internalType":"bool","name":"","type":"bool"}],"stateMutability":"view","type":"function"},{"inputs":[{"internalType":"uint256","name":"","type":"uint256"},{"internalType":"uint256","name":"","type":"uint256"}],"name":"productReviews","outputs":[{"internalType":"uint256","name":"reviewId","type":"uint256"},{"internalType":"address","name":"reviewer","type":"address"},{"internalType":"uint256","name":"rating","type":"uint256"},{"internalType":"string","name":"comment","type":"string"},{"internalType":"bool","name":"deleted","type":"bool"},{"internalType":"uint256","name":"timestamp","type":"uint256"}],"stateMutability":"view","type":"function"},{"inputs":[{"internalType":"uint256","name":"","type":"uint256"}],"name":"products","outputs":[{"internalType":"uint256","name":"id","type":"uint256"},{"internalType":"address","name":"seller","type":"address"},{"internalType":"string","name":"name","type":"string"},{"internalType":"string","name":"description","type":"string"},{"internalType":"string","name":"image","type":"string"},{"internalType":"uint256","name":"categoryId","type":"uint256"},{"internalType":"uint256","name":"cost","type":"uint256"},{"internalType":"uint256","name":"stock","type":"uint256"},{"internalType":"uint256","name":"timestamp","type":"uint256"},{"internalType":"bool","name":"deleted","type":"bool"}],"stateMutability":"view","type":"function"},{"inputs":[{"internalType":"address","name":"","type":"address"}],"name":"registeredSellers","outputs":[{"internalType":"bool","name":"","type":"bool"}],"stateMutability":"view","type":"function"},{"inputs":[{"internalType":"uint256","name":"","type":"uint256"}],"name":"registeredSellersList","outputs":[{"internalType":"address","name":"","type":"address"}],"stateMutability":"view","type":"function"},{"inputs":[{"internalType":"address","name":"","type":"address"}],"name":"registeredUsers","outputs":[{"internalType":"bool","name":"","type":"bool"}],"stateMutability":"view","type":"function"},{"inputs":[{"internalType":"address","name":"_contract","type":"address"}],"name":"removeAuthorizedContract","outputs":[],"stateMutability":"nonpayable","type":"function"},{"inputs":[],"name":"renounceOwnership","outputs":[],"stateMutability":"nonpayable","type":"function"},{"inputs":[{"internalType":"address","name":"","type":"address"}],"name":"sellerBalances","outputs":[{"internalType":"uint256","name":"","type":"uint256"}],"stateMutability":"view","type":"function"},{"inputs":[{"internalType":"address","name":"","type":"address"},{"internalType":"uint256","name":"","type":"uint256"}],"name":"sellerProducts","outputs":[{"internalType":"uint256","name":"","type":"uint256"}],"stateMutability":"view","type":"function"},{"inputs":[{"internalType":"address","name":"","type":"address"}],"name":"sellerProfiles","outputs":[{"internalType":"string","name":"businessName","type":"string"},{"internalType":"string","name":"description","type":"string"},{"internalType":"string","name":"email","type":"string"},{"internalType":"string","name":"phone","type":"string"},{"internalType":"string","name":"logo","type":"string"},{"internalType":"bool","name":"isRegistered","type":"bool"},{"internalType":"uint256","name":"registeredAt","type":"uint256"}],"stateMutability":"view","type":"function"},{"inputs":[{"internalType":"address","name":"","type":"address"},{"internalType":"uint256","name":"","type":"uint256"}],"name":"sellerPurchaseHistory","outputs":[{"internalType":"uint256","name":"productId","type":"uint256"},{"internalType":"address","name":"buyer","type":"address"},{"internalType":"address","name":"seller","type":"address"},{"internalType":"uint256","name":"totalAmount","type":"uint256"},{"internalType":"uint256","name":"timestamp","type":"uint256"},{"internalType":"bool","name":"isDelivered","type":"bool"}],"stateMutability":"view","type":"function"},{"inputs":[{"internalType":"address","name":"","type":"address"}],"name":"sellerStatus","outputs":[{"internalType":"enum CryptoMartStorage.SellerStatus","name":"","type":"uint8"}],"stateMutability":"view","type":"function"},{"inputs":[],"name":"servicePct","outputs":[{"internalType":"uint256","name":"","type":"uint256"}],"stateMutability":"view","type":"function"},{"inputs":[{"internalType":"uint256","name":"id","type":"uint256"},{"components":[{"internalType":"uint256","name":"id","type":"uint256"},{"internalType":"string","name":"name","type":"string"},{"internalType":"bool","name":"isActive","type":"bool"}],"internalType":"struct CryptoMartStorage.CategoryStruct","name":"category","type":"tuple"}],"name":"setCategory","outputs":[],"stateMutability":"nonpayable","type":"function"},{"inputs":[{"internalType":"uint256","name":"id","type":"uint256"},{"components":[{"internalType":"uint256","name":"id","type":"uint256"},{"internalType":"address","name":"seller","type":"address"},{"internalType":"string","name":"name","type":"string"},{"internalType":"string","name":"description","type":"string"},{"internalType":"string","name":"image","type":"string"},{"internalType":"uint256","name":"categoryId","type":"uint256"},{"internalType":"uint256","name":"cost","type":"uint256"},{"internalType":"uint256","name":"stock","type":"uint256"},{"internalType":"uint256","name":"timestamp","type":"uint256"},{"internalType":"bool","name":"deleted","type":"bool"}],"internalType":"struct CryptoMartStorage.ProductStruct","name":"product","type":"tuple"}],"name":"setProduct","outputs":[],"stateMutability":"nonpayable","type":"function"},{"inputs":[{"internalType":"uint256","name":"productId","type":"uint256"},{"internalType":"uint256","name":"categoryId","type":"uint256"}],"name":"setProductCategory","outputs":[],"stateMutability":"nonpayable","type":"function"},{"inputs":[{"internalType":"address","name":"seller","type":"address"},{"components":[{"internalType":"string","name":"businessName","type":"string"},{"internalType":"string","name":"description","type":"string"},{"internalType":"string","name":"email","type":"string"},{"internalType":"string","name":"phone","type":"string"},{"internalType":"string","name":"logo","type":"string"},{"internalType":"bool","name":"isRegistered","type":"bool"},{"internalType":"uint256","name":"registeredAt","type":"uint256"}],"internalType":"struct CryptoMartStorage.SellerProfile","name":"profile","type":"tuple"}],"name":"setSeller","outputs":[],"stateMutability":"nonpayable","type":"function"},{"inputs":[{"internalType":"address","name":"seller","type":"address"},{"internalType":"enum CryptoMartStorage.SellerStatus","name":"status","type":"uint8"}],"name":"setSellerStatus","outputs":[],"stateMutability":"nonpayable","type":"function"},{"inputs":[{"internalType":"uint256","name":"_servicePct","type":"uint256"}],"name":"setServicePct","outputs":[],"stateMutability":"nonpayable","type":"function"},{"inputs":[{"internalType":"address","name":"user","type":"address"},{"components":[{"internalType":"string","name":"name","type":"string"},{"internalType":"string","name":"email","type":"string"},{"internalType":"string","name":"avatar","type":"string"},{"internalType":"bool","name":"isRegistered","type":"bool"}],"internalType":"struct CryptoMartStorage.UserProfile","name":"profile","type":"tuple"}],"name":"setUser","outputs":[],"stateMutability":"nonpayable","type":"function"},{"inputs":[],"name":"totalProducts","outputs":[{"internalType":"uint256","name":"","type":"uint256"}],"stateMutability":"view","type":"function"},{"inputs":[],"name":"totalReviews","outputs":[{"internalType":"uint256","name":"","type":"uint256"}],"stateMutability":"view","type":"function"},{"inputs":[],"name":"totalSales","outputs":[{"internalType":"uint256","name":"","type":"uint256"}],"stateMutability":"view","type":"function"},{"inputs":[{"internalType":"address","name":"newOwner","type":"address"}],"name":"transferOwnership","outputs":[],"stateMutability":"nonpayable","type":"function"},{"inputs":[{"internalType":"address","name":"seller","type":"address"},{"internalType":"uint256","name":"amount","type":"uint256"}],"name":"updateSellerBalance","outputs":[],"stateMutability":"nonpayable","type":"function"},{"inputs":[{"internalType":"address","name":"","type":"address"}],"name":"userProfiles","outputs":[{"internalType":"string","name":"name","type":"string"},{"internalType":"string","name":"email","type":"string"},{"internalType":"string","name":"avatar","type":"string"},{"internalType":"bool","name":"isRegistered","type":"bool"}],"stateMutability":"view","type":"function"},{"inputs":[{"internalType":"uint256","name":"","type":"uint256"}],"name":"usersList","outputs":[{"internalType":"address","name":"","type":"address"}],"stateMutability":"view","type":"function"},{"inputs":[],"name":"withdrawServiceFees","outputs":[],"stateMutability":"nonpayable","type":"function"},{"stateMutability":"payable","type":"receive"}],"evm":{"bytecode":{"linkReferences":{},"object":"6080346100af57601f6200385f38819003918201601f19168301916001600160401b038311848410176100b3578084926020946040528339810103126100af57515f8054336001600160a01b0319821681178355604051939290916001600160a01b0316907f8be0079c531659141344cd1fd0a4f28419497f9722a3daafe3b4186f6b6457e09080a3600555335f52601760205260405f20600160ff198254161790556137979081620000c88239f35b5f80fd5b634e487b7160e01b5f52604160045260245ffdfe608080604052600436101561001c575b50361561001a575f80fd5b005b5f3560e01c90816303624fc0146132215750806305a2c9cf146131df57806306ad0cb914612cba57806307c115ed14612c465780630c04acc614612bea5780630e50cee514612bad5780631294b01d14612b1457806326d36bbc14612ab857806328a22b87146128db5780632aafa8071461288f578063332d56d7146127f157806345de84db146127af57806346a4237b1461264d5780634f1c441e14612606578063502aa3b5146125bf5780635074a29e14611e4e578063540f1c3c14611e2457806359dd665f146119385780635ad6a580146118cb5780635f638d621461186f578063607eb4e4146118375780636605ff661461181a5780636f68ef3a1461178e5780636f77926b14611699578063715018a6146116555780637acc0b20146115795780638061bc931461130057806385a3439314611237578063865d2197146111db5780638da5cb5b146111b45780639196dfcb146110d257806398eaa4a71461108e5780639b9d326d146110715780639fa44dbf1461102a578063a323d29e14610ea0578063aa27905914610cf2578063af55ed6414610cc3578063b9db15b414610b21578063c1302b3414610aca578063c258f53114610a01578063c262f298146109af578063c64b8a8f14610972578063c6cdbe5e14610915578063c80bba8a1461083e578063d5b9221b14610801578063d72e481d14610725578063e01ef6e614610708578063e2367890146106eb578063e585cb2c1461063b578063e6a93e161461058d578063e6b165ed1461054c578063eaae756214610465578063f2943dce146103d1578063f2fde38b146103265763f3052d2614610285575f61000f565b3461032257602080600319360112610322575f604080516102a581613284565b82815260608482015201526004355f52600f815260405f20604051906102ca82613284565b8054825261031560ff60026102e1600185016133e3565b9386860194855201541691604084019215158352604051948594818652519085015251606060408501526080840190613485565b9051151560608301520390f35b5f80fd5b346103225760203660031901126103225761033f613313565b6103476136d3565b6001600160a01b0390811690811561037d575f548260018060a01b03198216175f55165f8051602061374b8339815191525f80a3005b60405162461bcd60e51b815260206004820152602660248201527f4f776e61626c653a206e6577206f776e657220697320746865207a65726f206160448201526564647265737360d01b6064820152608490fd5b34610322576103df366135c1565b905f52601260205260405f20908154811015610322576103fe916135a8565b50805460018060a01b03600183015416916002810154610454610423600384016133e3565b600560ff6004860154169401549260405196879687526020870152604086015260c0606086015260c0850190613485565b911515608084015260a08301520390f35b34610322576101003660031901126103225761047f613313565b6001600160a01b03602435818116908190036103225760c036604319011261032257604051916104ae8361329f565b60443583526064358181168103610322576020840152608435818116810361032257604084015260a435606084015260c435608084015260e4359384151585036103225761001a9460a0850152335f52601760205260ff60405f2054168015610540575b61051b906135d7565b165f5260106020526105308260405f2061364a565b5f52601160205260405f2061364a565b505f5482163314610512565b3461032257602036600319011261032257610565613313565b61056d6136d3565b6001600160a01b03165f908152601760205260409020805460ff19169055005b3461032257602080600319360112610322576001600160a01b036105af613313565b165f526007815260405f20604051908183825491828152019081925f52845f20905f5b868282106106275786866105e8828803836132f0565b60405192839281840190828552518091526040840192915f5b82811061061057505050500390f35b835185528695509381019392810192600101610601565b8354855290930192600192830192016105d2565b3461032257604036600319011261032257610654613313565b6001600160a01b039081165f90815260116020526040902080546024359081101561032257610682916135a8565b5080546001820154600283015460038401546004850154600590950154604080519586526001600160a01b03948816851660208701529290961692909216908301526060820152608081019190915260ff91909116151560a08201528060c081010390f35b0390f35b34610322575f366003190112610322576020600354604051908152f35b34610322575f366003190112610322576020600554604051908152f35b34610322575f3660031901126103225761073d6136d3565b4780156107c6575f8080809360018060a01b038254165af13d156107c1573d6107658161333d565b9061077360405192836132f0565b81525f60203d92013e5b1561078457005b60405162461bcd60e51b8152602060048201526015602482015274119959481dda5d1a191c985dd85b0819985a5b1959605a1b6044820152606490fd5b61077d565b60405162461bcd60e51b81526020600482015260136024820152724e6f206665657320746f20776974686472617760681b6044820152606490fd5b34610322576020366003190112610322576001600160a01b03610822613313565b165f526017602052602060ff60405f2054166040519015158152f35b3461032257604036600319011261032257610857613313565b60243590335f52601760205260ff60405f2054168015610902575b61087b906135d7565b6001600160a01b03165f818152600e602052604090205482116108c6575f52600e60205260405f2080549182039182116108b25755005b634e487b7160e01b5f52601160045260245ffd5b60405162461bcd60e51b8152602060048201526014602482015273496e73756666696369656e742062616c616e636560601b6044820152606490fd5b505f546001600160a01b03163314610872565b34610322576020366003190112610322576004355f52600f60205260405f20805460ff6002610946600185016133e3565b930154166109666040519384938452606060208501526060840190613485565b90151560408301520390f35b34610322576020366003190112610322576001600160a01b03610993613313565b165f52600c602052602060ff60405f2054166040519015158152f35b34610322576109bd366135c1565b90335f52601760205260ff60405f20541680156109ee575b6109de906135d7565b5f52601360205260405f20555f80f35b505f546001600160a01b031633146109d5565b3461032257602080600319360112610322576001600160a01b039081610a25613313565b165f526011815260405f20805490610a3c82613633565b92610a4a60405194856132f0565b8284525f9182528082208185015b848410610a6d57604051806106e78882613528565b600683600192604051610a7f8161329f565b855481528a8587015416838201528a6002870154166040820152600386015460608201526004860154608082015260ff600587015416151560a0820152815201920193019290610a58565b3461032257604036600319011261032257610ae3613313565b6001600160a01b03165f9081526007602052604090208054602435919082101561032257602091610b1391613253565b90546040519160031b1c8152f35b34610322576020366003190112610322575f610120604051610b4281613268565b82815282602082015260606040820152606080820152606060808201528260a08201528260c08201528260e08201528261010082015201526004355f52600660205260405f2060ff600960405192610b9984613268565b8054845260018101546001600160a01b03166020850152610bbc600282016133e3565b6040850152610bcd600382016133e3565b6060850152610bde600482016133e3565b6080850152600581015460a0850152600681015460c0850152600781015460e0850152600881015461010085015201541615156101208201526040518091602082528051602083015260018060a01b0360208201511660408301526040810151610120610c8d610c5c61014093846060880152610160870190613485565b610c78606086015191601f1992838983030160808a0152613485565b906080860151908783030160a0880152613485565b9260a081015160c086015260c081015160e086015260e08101516101008601526101008101518286015201511515908301520390f35b34610322576020366003190112610322576004355f526008602052602060ff60405f2054166040519015158152f35b3461032257604036600319011261032257610d0b613313565b60249060243591600483101561032257335f52601760205260ff60405f2054168015610e8d575b610d3b906135d7565b60018060a01b039081831692835f52600d60205260405f2060ff1981541660ff871617905560019460018114610e4f575b6002915014610d7757005b83925f945b610d8257005b60168054908187101561001a57849183610d9b8961323b565b949054600395861b1c1614610db7575050508380950194610d7c565b9392509450945f1992838101908111610e3c5790610de885610ddb610e069461323b565b9054908a1b1c169161323b565b90919060018060a01b038084549260031b9316831b921b1916179055565b8354908115610e2957500192610e1b8461323b565b81939154921b1b1916905555005b634e487b7160e01b5f9081526031600452fd5b82634e487b7160e01b5f5260116004525ffd5b601654600160401b811015610e7957600292610de8826001610e74940160165561323b565b610d6c565b634e487b7160e01b5f52604160045260245ffd5b505f546001600160a01b03163314610d32565b346103225760208060031936011261032257610eba613313565b9060405191610ec8836132ba565b6060928381528383820152836040820152838082015283608082015260a081015f905260c0015f9052600160a01b60019003165f52600b815260405f20600d825260405f205460ff1660405192610f1e846132ba565b610f27836133e3565b8452610f35600184016133e3565b84820190815294610f48600285016133e3565b6040860190815290610f5c600386016133e3565b868201908152610f6e600487016133e3565b9060808801918252600587015460ff169660a089019715158852600601549360c08901948552604051998a9960408b525160408b0160e090526101208b01610fb591613485565b905190603f1995868c830301908c0152610fce91613485565b905190848a82030160808b0152610fe491613485565b905190838982030160a08a0152610ffa91613485565b9051918782030160c088015261100f91613485565b9351151560e08601525161010085015283016106e7916134c3565b3461032257604036600319011261032257611043613313565b6001600160a01b039081165f90815260106020526040902080546024359081101561032257610682916135a8565b34610322575f366003190112610322576020600154604051908152f35b34610322576020366003190112610322576110a7613313565b6110af6136d3565b6001600160a01b03165f908152601760205260409020805460ff19166001179055005b34610322576020366003190112610322576001600160a01b036110f3613313565b165f52600b60205261116b60405f2061110b816133e3565b90611118600182016133e3565b6111a3611127600284016133e3565b611195611136600386016133e3565b611187611145600488016133e3565b93611179600660ff60058b015416990154976040519b8c9b60e08d5260e08d0190613485565b908b820360208d0152613485565b9089820360408b0152613485565b908782036060890152613485565b908582036080870152613485565b91151560a084015260c08301520390f35b34610322575f366003190112610322575f546040516001600160a01b039091168152602090f35b34610322575f36600319011261032257335f52601760205260ff60405f2054168015611224575b61120b906135d7565b6020611218600254613625565b80600255604051908152f35b505f546001600160a01b03163314611202565b3461032257602080600319360112610322576001600160a01b03908161125b613313565b165f526010815260405f2080549061127282613633565b9261128060405194856132f0565b8284525f9182528082208185015b8484106112a357604051806106e78882613528565b6006836001926040516112b58161329f565b855481528a8587015416838201528a6002870154166040820152600386015460608201526004860154608082015260ff600587015416151560a082015281520192019301929061128e565b346103225760031960403682011261032257602435906001600160401b03908183116103225760c0908336030112610322576040519161133f8361329f565b8060040135835261135260248201613329565b916020928385019081526040850191604484013583526064840135818111610322576113849060043691870101613358565b91606087019283526113986084860161339e565b936080880194855260a460a089019601358652335f526017875260ff60405f2054168015611566575b6113ca906135d7565b6004355f526012875260405f20918254600160401b811015610e79576113f79060019485820181556135a8565b999099611553575189555182890180546001600160a01b0319166001600160a01b0392909216919091179055516002880155915180519095600388019391928311610e795761144684546133ab565b601f811161150d575b5080601f841160011461149f57509180809261148e9695946005995f94611494575b50501b915f199060031b1c19161790555b51151560048501613614565b51910155005b015192508a80611471565b9193949596601f198416865f52835f20935f905b8282106114f657505091600598979593918561148e989694106114de575b505050811b019055611482565b01515f1960f88460031b161c191690558880806114d1565b8088869782949787015181550196019401906114b3565b845f52815f20601f850160051c810191838610611549575b601f0160051c019083905b82811061153e57505061144f565b5f8155018390611530565b9091508190611525565b634e487b7160e01b5f525f60045260245ffd5b505f546001600160a01b031633146113c1565b34610322576020366003190112610322576004355f52600660205260405f20604081549160018060a01b036001820154166115b6600283016133e3565b916115c3600382016133e3565b926115d0600483016133e3565b9361163360058401549561162560068601549361161760078801549660ff600960088b01549a015416998c519d8e9d8e6101409384938252602082015201528c0190613485565b908a820360608c0152613485565b9088820360808a0152613485565b9460a087015260c086015260e085015261010084015215156101208301520390f35b34610322575f3660031901126103225761166d6136d3565b5f80546001600160a01b0319811682556001600160a01b03165f8051602061374b8339815191528280a3005b3461032257602080600319360112610322576080906116b6613313565b90604051916116c4836132d5565b5f606084818096528185820152816040820152015260018060a01b03165f526009815261178160405f20604051936116fb856132d5565b611704826133e3565b8552611712600183016133e3565b9084860191825261177161175b60ff600361172f600288016133e3565b9660408b01978852015416968389019715158852604051998a99828b5251918a015260a0890190613485565b925192601f1993848983030160408a0152613485565b9251918684030190860152613485565b9051151560808301520390f35b34610322575f36600319011261032257604051601680548083525f918252602080840193927fd833147d7dc355ba459fc788f669e58cfaf9dc25ddcd0702e87d69c7b512428992915b8282106117fa576106e7856117ee818903826132f0565b604051918291826134e4565b83546001600160a01b0316865294850194600193840193909101906117d7565b34610322575f366003190112610322576020600254604051908152f35b34610322576020366003190112610322576001600160a01b03611858613313565b165f52600e602052602060405f2054604051908152f35b34610322575f36600319011261032257335f52601760205260ff60405f20541680156118b8575b61189f906135d7565b60206118ac600354613625565b80600355604051908152f35b505f546001600160a01b03163314611896565b34610322575f36600319011261032257604051601480548083525f918252602080840193925f8051602061376b83398151915292915b828210611918576106e7856117ee818903826132f0565b83546001600160a01b031686529485019460019384019390910190611901565b346103225760031960403682011261032257611952613313565b90602435906001600160401b038211610322576080908236030112610322576040519161197e836132d5565b60048201356001600160401b038111610322576119a19060043691850101613358565b835260248201356001600160401b038111610322576119c69060043691850101613358565b602084019081529160448101356001600160401b03811161032257611a02916119f760649260043691840101613358565b60408701520161339e565b6060840152335f52601760205260ff60405f2054168015611e11575b611a27906135d7565b6001600160a01b03165f8181526009602052604090208351805192939192906001600160401b038211610e79578190611a6085546133ab565b601f8111611dc1575b50602090601f8311600114611d5d575f92611d52575b50508160011b915f199060031b1c19161782555b5180519093906001600160401b038111610e7957611ab460018401546133ab565b601f8111611d0a575b506020601f8211600114611c9f5781929394955f92611c94575b50508160011b915f199060031b1c19161760018301555b6040810151805160028401916001600160401b038211610e7957611b1283546133ab565b601f8111611c4f575b50602090601f8311600114611be2579282606093611b5d9796936003965f92611bd7575b50508160011b915f1990871b1c19161790555b015115159101613614565b805f52600a60205260405f20805460ff811615611b7657005b60ff19166001179055601554600160401b811015610e79576001810180601555811015611bc35760155f525f8051602061372b8339815191520180546001600160a01b0319169091179055005b634e487b7160e01b5f52603260045260245ffd5b015190508980611b3f565b90601f19831691845f5260205f20925f5b818110611c37575093611b5d979693600396936001938360609810611c20575b505050811b019055611b52565b01515f1983891b60f8161c19169055898080611c13565b92936020600181928786015181550195019301611bf3565b835f5260205f20601f840160051c81019160208510611c8a575b601f0160051c01905b818110611c7f5750611b1b565b5f8155600101611c72565b9091508190611c69565b015190508580611ad7565b600184015f5260205f20905f5b601f1984168110611cf2575060019394959683601f19811610611cda575b505050811b016001830155611aee565b01515f1960f88460031b161c19169055858080611cca565b9091602060018192858b015181550193019101611cac565b600184015f5260205f20601f830160051c81019160208410611d48575b601f0160051c01905b818110611d3d5750611abd565b5f8155600101611d30565b9091508190611d27565b015190508680611a7f565b5f868152602081209350601f198516905b818110611da95750908460019594939210611d91575b505050811b018255611a93565b01515f1960f88460031b161c19169055868080611d84565b92936020600181928786015181550195019301611d6e565b909150845f5260205f20601f840160051c81019160208510611e07575b90601f859493920160051c01905b818110611df95750611a69565b5f8155849350600101611dec565b9091508190611dde565b505f546001600160a01b03163314611a1e565b34610322576020366003190112610322576004355f526013602052602060405f2054604051908152f35b346103225760031960403682011261032257611e68613313565b90602435906001600160401b0382116103225760e09082360301126103225760405191611e94836132ba565b60048201356001600160401b03811161032257611eb79060043691850101613358565b835260248201356001600160401b03811161032257611edc9060043691850101613358565b602084019081529160448101356001600160401b03811161032257611f079060043691840101613358565b604085015260648101356001600160401b03811161032257611f2f9060043691840101613358565b60608501526084810135906001600160401b03821161032257611f5a60c49260043691840101613358565b6080860152611f6b60a4820161339e565b60a0860152013560c0840152335f52601760205260ff60405f20541680156125ac575b611f97906135d7565b6001600160a01b03165f818152600b6020526040902083518051929491939192906001600160401b038211610e79578190611fd286546133ab565b601f811161255c575b50602090601f83116001146124f4575f926124e9575b50508160011b915f199060031b1c19161783555b5180519093906001600160401b038111610e795761202660018501546133ab565b601f81116124a5575b506020601f821160011461243a5781929394955f9261242f575b50508160011b915f199060031b1c19161760018401555b604082015180519093906001600160401b038111610e795761208560028301546133ab565b601f81116123eb575b506020601f82116001146123805781929394955f92612375575b50508160011b915f199060031b1c19161760028201555b606083015180519093906001600160401b038111610e79576120e460038401546133ab565b601f811161232d575b506020601f82116001146122c25781929394955f926122b7575b50508160011b915f199060031b1c19161760038301555b6080810151805160048401916001600160401b038211610e795761214283546133ab565b601f8111612272575b50602090601f831160011461220857918060c09492600696945f926121fd575b50508160011b915f199060031b1c19161790555b61219260a0820151151560058601613614565b0151910155805f52600c60205260405f20805460ff8116156121b057005b60ff19166001179055601454600160401b811015610e79576001810180601455811015611bc35760145f525f8051602061376b8339815191520180546001600160a01b0319169091179055005b01519050888061216b565b90601f19831691845f5260205f20925f5b81811061225a57509260019285926006989660c0989610612242575b505050811b01905561217f565b01515f1960f88460031b161c19169055888080612235565b92936020600181928786015181550195019301612219565b835f5260205f20601f840160051c810191602085106122ad575b601f0160051c01905b8181106122a2575061214b565b5f8155600101612295565b909150819061228c565b015190508580612107565b600384015f5260205f20905f5b601f1984168110612315575060019394959683601f198116106122fd575b505050811b01600383015561211e565b01515f1960f88460031b161c191690558580806122ed565b9091602060018192858b0151815501930191016122cf565b600384015f5260205f20601f830160051c8101916020841061236b575b601f0160051c01905b81811061236057506120ed565b5f8155600101612353565b909150819061234a565b0151905085806120a8565b600283015f5260205f20905f5b601f19841681106123d3575060019394959683601f198116106123bb575b505050811b0160028201556120bf565b01515f1960f88460031b161c191690558580806123ab565b9091602060018192858b01518155019301910161238d565b600283015f5260205f20601f830160051c810160208410612428575b601f830160051c8201811061241d57505061208e565b5f8155600101612407565b5080612407565b015190508580612049565b600185015f5260205f20905f5b601f198416811061248d575060019394959683601f19811610612475575b505050811b016001840155612060565b01515f1960f88460031b161c19169055858080612465565b9091602060018192858b015181550193019101612447565b600185015f5260205f20601f830160051c8101602084106124e2575b601f830160051c820181106124d757505061202f565b5f81556001016124c1565b50806124c1565b015190508680611ff1565b9250855f5260205f20905f935b601f1984168510612541576001945083601f19811610612529575b505050811b018355612005565b01515f1960f88460031b161c1916905586808061251c565b81810151835560209485019460019093019290910190612501565b909150855f5260205f20601f840160051c810191602085106125a2575b90601f859493920160051c01905b8181106125945750611fdb565b5f8155849350600101612587565b9091508190612579565b505f546001600160a01b03163314611f8e565b34610322576020366003190112610322576004356015548110156103225760155f525f8051602061372b83398151915201546040516001600160a01b039091168152602090f35b34610322576020366003190112610322576004356014548110156103225760145f525f8051602061376b83398151915201546040516001600160a01b039091168152602090f35b3461032257602080600319360112610322576004355f526012815260405f209081549161267983613633565b9261268760405194856132f0565b80845282840180925f52835f205f915b8383106127425750505050604051918083019381845251809452604083019360408160051b85010192915f955b8287106126d15785850386f35b909192938280600192603f1989820301855287519061271c60c083518352868060a01b0385850151168584015260408401516040840152606090808286015192850152830190613485565b9160808082015115159083015260a08091015191015296019201960195929190926126c4565b6006866001926040999899516127578161329f565b85548152848060a01b0385870154168382015260028601546040820152612780600387016133e3565b606082015260ff60048701541615156080820152600586015460a0820152815201920192019190959495612697565b34610322576020366003190112610322576001600160a01b036127d0613313565b165f52600d602052602060ff60405f2054166127ef60405180926134c3565bf35b34610322576020366003190112610322576001600160a01b03612812613313565b165f52600960205261286760405f2061282a816133e3565b9061288361283a600183016133e3565b9161287560ff600361284e600285016133e3565b9301541693604051968796608088526080880190613485565b908682036020880152613485565b908482036040860152613485565b90151560608301520390f35b3461032257602036600319011261032257335f52601760205260ff60405f20541680156128c8575b6128c0906135d7565b600435600555005b505f546001600160a01b031633146128b7565b3461032257600319604036820112610322576001600160401b039060243590828211610322576060908236030112610322576040519061291a82613284565b8060040135825260248101358381116103225761293d9060043691840101613358565b61295160446020938486019384520161339e565b9160408401928352335f526017815260ff60405f2054168015612aa5575b612978906135d7565b6004355f52600f815260405f209351845560019081850192518051968711610e79576129a484546133ab565b601f8111612a5f575b5081601f88116001146129f5575095806002959493819361001a995f946129ea575b50501b915f199060031b1c19161790555b5115159101613614565b0151925089806129cf565b9190601f198816855f52835f20935f905b828210612a4857505091600296959493918961001a9a9410612a30575b505050811b0190556129e0565b01515f1960f88460031b161c19169055878080612a23565b808786978294978701518155019601940190612a06565b845f52825f20601f890160051c810191848a10612a9b575b601f0160051c019084905b828110612a905750506129ad565b5f8155018490612a82565b9091508190612a77565b505f546001600160a01b0316331461296f565b34610322575f36600319011261032257335f52601760205260ff60405f2054168015612b01575b612ae8906135d7565b6020612af5600154613625565b80600155604051908152f35b505f546001600160a01b03163314612adf565b3461032257604036600319011261032257612b2d613313565b335f52601760205260ff60405f2054168015612b9a575b612b4d906135d7565b6001600160a01b03165f9081526007602052604090208054600160401b811015610e7957612b8091600182018155613253565b81545f1960039290921b91821b191660243590911b179055005b505f546001600160a01b03163314612b44565b34610322576020366003190112610322576001600160a01b03612bce613313565b165f52600a602052602060ff60405f2054166040519015158152f35b34610322575f36600319011261032257335f52601760205260ff60405f2054168015612c33575b612c1a906135d7565b6020612c27600454613625565b80600455604051908152f35b505f546001600160a01b03163314612c11565b3461032257604036600319011261032257612c5f613313565b335f52601760205260ff60405f2054168015612ca7575b612c7f906135d7565b6001600160a01b03165f908152600e6020526040902080546024358101919082106108b25755005b505f546001600160a01b03163314612c76565b346103225760031960403682011261032257602435906001600160401b038211610322576101409082360301126103225760405190612cf882613268565b80600401358252612d0b60248201613329565b602083019081529060448101356001600160401b03811161032257612d369060043691840101613358565b604084019081529060648101356001600160401b03811161032257612d619060043691840101613358565b606085015260848101356001600160401b03811161032257612dc591612d906101249260043691840101613358565b608087015260a481013560a087015260c481013560c087015260e481013560e08701526101048101356101008701520161339e565b610120840152335f52601760205260ff60405f20541680156131cc575b612deb906135d7565b6004355f9081526006602052604090208351815591516001830180546001600160a01b0319166001600160a01b03929092169190911790555180519092906001600160401b038111610e7957612e4460028401546133ab565b601f8111613188575b506020601f821160011461311e57819293945f92613113575b50508160011b915f199060031b1c19161760028301555b606081015180519092906001600160401b038111610e7957612ea260038301546133ab565b601f81116130cf575b506020601f821160011461306557819293945f9261305a575b50508160011b915f199060031b1c19161760038201555b60808201518051906001600160401b038211610e7957612efe60048401546133ab565b601f8111613012575b50602090601f8311600114612f9d57938260099361012093612f75975f92612f92575b50508160011b915f199060031b1c19161760048501555b60a0810151600585015560c0810151600685015560e081015160078501556101008101516008850155015115159101613614565b6004355f908152600860205260409020805460ff19166001179055005b015190508780612f2a565b90600484015f5260205f20915f5b601f1985168110612ffa57508361012093612f759793600193600997601f19811610612fe2575b505050811b016004850155612f41565b01515f1960f88460031b161c19169055878080612fd2565b91926020600181928685015181550194019201612fab565b600484015f5260205f20601f840160051c81019160208510613050575b601f0160051c01905b8181106130455750612f07565b5f8155600101613038565b909150819061302f565b015190508480612ec4565b600383015f5260205f20905f5b601f19841681106130b75750600193949583601f1981161061309f575b505050811b016003820155612edb565b01515f1960f88460031b161c1916905584808061308f565b9091602060018192858a015181550193019101613072565b600383015f5260205f20601f830160051c81016020841061310c575b601f830160051c82018110613101575050612eab565b5f81556001016130eb565b50806130eb565b015190508480612e66565b600284015f5260205f20905f5b601f19841681106131705750600193949583601f19811610613158575b505050811b016002830155612e7d565b01515f1960f88460031b161c19169055848080613148565b9091602060018192858a01518155019301910161312b565b600284015f5260205f20601f830160051c8101602084106131c5575b601f830160051c820181106131ba575050612e4d565b5f81556001016131a4565b50806131a4565b505f546001600160a01b03163314612de2565b34610322576020366003190112610322576004356016548110156103225761320860209161323b565b905460405160039290921b1c6001600160a01b03168152f35b34610322575f366003190112610322576020906004548152f35b601654811015611bc35760165f5260205f2001905f90565b8054821015611bc3575f5260205f2001905f90565b61014081019081106001600160401b03821117610e7957604052565b606081019081106001600160401b03821117610e7957604052565b60c081019081106001600160401b03821117610e7957604052565b60e081019081106001600160401b03821117610e7957604052565b608081019081106001600160401b03821117610e7957604052565b601f909101601f19168101906001600160401b03821190821017610e7957604052565b600435906001600160a01b038216820361032257565b35906001600160a01b038216820361032257565b6001600160401b038111610e7957601f01601f191660200190565b81601f820112156103225780359061336f8261333d565b9261337d60405194856132f0565b8284526020838301011161032257815f926020809301838601378301015290565b3590811515820361032257565b90600182811c921680156133d9575b60208310146133c557565b634e487b7160e01b5f52602260045260245ffd5b91607f16916133ba565b9060405191825f82546133f5816133ab565b908184526020946001916001811690815f146134635750600114613425575b505050613423925003836132f0565b565b5f90815285812095935091905b81831061344b57505061342393508201015f8080613414565b85548884018501529485019487945091830191613432565b9250505061342394925060ff191682840152151560051b8201015f8080613414565b91908251928382525f5b8481106134af575050825f602080949584010152601f8019910116010190565b60208183018101518483018201520161348f565b9060048210156134d05752565b634e487b7160e01b5f52602160045260245ffd5b60209060206040818301928281528551809452019301915f5b82811061350b575050505090565b83516001600160a01b0316855293810193928101926001016134fd565b60208082019080835283518092528060408094019401925f905b83821061355157505050505090565b845180518752808401516001600160a01b0390811688860152818301511687830152606080820151908801526080808201519088015260a09081015115159087015260c09095019493820193600190910190613542565b8054821015611bc3575f52600660205f20910201905f90565b6040906003190112610322576004359060243590565b156135de57565b60405162461bcd60e51b815260206004820152600e60248201526d139bdd08185d5d1a1bdc9a5e995960921b6044820152606490fd5b9060ff801983541691151516179055565b5f1981146108b25760010190565b6001600160401b038111610e795760051b60200190565b8054600160401b811015610e7957613667916001820181556135a8565b611553578151815560208201516001820180546001600160a01b039283166001600160a01b0319918216179091556040840151600284018054919093169116179055606082015160038201556080820151600482015560a0909101516134239190151590600501613614565b5f546001600160a01b031633036136e657565b606460405162461bcd60e51b815260206004820152602060248201527f4f776e61626c653a2063616c6c6572206973206e6f7420746865206f776e65726044820152fdfe55f448fdea98c4d29eb340757ef0a66cd03dbb9538908a6a81d96026b71ec4758be0079c531659141344cd1fd0a4f28419497f9722a3daafe3b4186f6b6457e0ce6d7b5282bd9a3661ae061feed1dbda4e52ab073b1f9285be6e155d9c38d4eca164736f6c6343000818000a","opcodes":"PUSH1 0x80 CALLVALUE PUSH2 0xAF JUMPI PUSH1 0x1F PUSH3 0x385F CODESIZE DUP2 SWAP1 SUB SWAP2 DUP3 ADD PUSH1 0x1F NOT AND DUP4 ADD SWAP2 PUSH1 0x1 PUSH1 0x1 PUSH1 0x40 SHL SUB DUP4 GT DUP5 DUP5 LT OR PUSH2 0xB3 JUMPI DUP1 DUP5 SWAP3 PUSH1 0x20 SWAP5 PUSH1 0x40 MSTORE DUP4 CODECOPY DUP2 ADD SUB SLT PUSH2 0xAF JUMPI MLOAD PUSH0 DUP1 SLOAD CALLER PUSH1 0x1 PUSH1 0x1 PUSH1 0xA0 SHL SUB NOT DUP3 AND DUP2 OR DUP4 SSTORE PUSH1 0x40 MLOAD SWAP4 SWAP3 SWAP1 SWAP2 PUSH1 0x1 PUSH1 0x1 PUSH1 0xA0 SHL SUB AND SWAP1 PUSH32 0x8BE0079C531659141344CD1FD0A4F28419497F9722A3DAAFE3B4186F6B6457E0 SWAP1 DUP1 LOG3 PUSH1 0x5 SSTORE CALLER PUSH0 MSTORE PUSH1 0x17 PUSH1 0x20 MSTORE PUSH1 0x40 PUSH0 KECCAK256 PUSH1 0x1 PUSH1 0xFF NOT DUP3 SLOAD AND OR SWAP1 SSTORE PUSH2 0x3797 SWAP1 DUP2 PUSH3 0xC8 DUP3 CODECOPY RETURN JUMPDEST PUSH0 DUP1 REVERT JUMPDEST PUSH4 0x4E487B71 PUSH1 0xE0 SHL PUSH0 MSTORE PUSH1 0x41 PUSH1 0x4 MSTORE PUSH1 0x24 PUSH0 REVERT INVALID PUSH1 0x80 DUP1 PUSH1 0x40 MSTORE PUSH1 0x4 CALLDATASIZE LT ISZERO PUSH2 0x1C JUMPI JUMPDEST POP CALLDATASIZE ISZERO PUSH2 0x1A JUMPI PUSH0 DUP1 REVERT JUMPDEST STOP JUMPDEST PUSH0 CALLDATALOAD PUSH1 0xE0 SHR SWAP1 DUP2 PUSH4 0x3624FC0 EQ PUSH2 0x3221 JUMPI POP DUP1 PUSH4 0x5A2C9CF EQ PUSH2 0x31DF JUMPI DUP1 PUSH4 0x6AD0CB9 EQ PUSH2 0x2CBA JUMPI DUP1 PUSH4 0x7C115ED EQ PUSH2 0x2C46 JUMPI DUP1 PUSH4 0xC04ACC6 EQ PUSH2 0x2BEA JUMPI DUP1 PUSH4 0xE50CEE5 EQ PUSH2 0x2BAD JUMPI DUP1 PUSH4 0x1294B01D EQ PUSH2 0x2B14 JUMPI DUP1 PUSH4 0x26D36BBC EQ PUSH2 0x2AB8 JUMPI DUP1 PUSH4 0x28A22B87 EQ PUSH2 0x28DB JUMPI DUP1 PUSH4 0x2AAFA807 EQ PUSH2 0x288F JUMPI DUP1 PUSH4 0x332D56D7 EQ PUSH2 0x27F1 JUMPI DUP1 PUSH4 0x45DE84DB EQ PUSH2 0x27AF JUMPI DUP1 PUSH4 0x46A4237B EQ PUSH2 0x264D JUMPI DUP1 PUSH4 0x4F1C441E EQ PUSH2 0x2606 JUMPI DUP1 PUSH4 0x502AA3B5 EQ PUSH2 0x25BF JUMPI DUP1 PUSH4 0x5074A29E EQ PUSH2 0x1E4E JUMPI DUP1 PUSH4 0x540F1C3C EQ PUSH2 0x1E24 JUMPI DUP1 PUSH4 0x59DD665F EQ PUSH2 0x1938 JUMPI DUP1 PUSH4 0x5AD6A580 EQ PUSH2 0x18CB JUMPI DUP1 PUSH4 0x5F638D62 EQ PUSH2 0x186F JUMPI DUP1 PUSH4 0x607EB4E4 EQ PUSH2 0x1837 JUMPI DUP1 PUSH4 0x6605FF66 EQ PUSH2 0x181A JUMPI DUP1 PUSH4 0x6F68EF3A EQ PUSH2 0x178E JUMPI DUP1 PUSH4 0x6F77926B EQ PUSH2 0x1699 JUMPI DUP1 PUSH4 0x715018A6 EQ PUSH2 0x1655 JUMPI DUP1 PUSH4 0x7ACC0B20 EQ PUSH2 0x1579 JUMPI DUP1 PUSH4 0x8061BC93 EQ PUSH2 0x1300 JUMPI DUP1 PUSH4 0x85A34393 EQ PUSH2 0x1237 JUMPI DUP1 PUSH4 0x865D2197 EQ PUSH2 0x11DB JUMPI DUP1 PUSH4 0x8DA5CB5B EQ PUSH2 0x11B4 JUMPI DUP1 PUSH4 0x9196DFCB EQ PUSH2 0x10D2 JUMPI DUP1 PUSH4 0x98EAA4A7 EQ PUSH2 0x108E JUMPI DUP1 PUSH4 0x9B9D326D EQ PUSH2 0x1071 JUMPI DUP1 PUSH4 0x9FA44DBF EQ PUSH2 0x102A JUMPI DUP1 PUSH4 0xA323D29E EQ PUSH2 0xEA0 JUMPI DUP1 PUSH4 0xAA279059 EQ PUSH2 0xCF2 JUMPI DUP1 PUSH4 0xAF55ED64 EQ PUSH2 0xCC3 JUMPI DUP1 PUSH4 0xB9DB15B4 EQ PUSH2 0xB21 JUMPI DUP1 PUSH4 0xC1302B34 EQ PUSH2 0xACA JUMPI DUP1 PUSH4 0xC258F531 EQ PUSH2 0xA01 JUMPI DUP1 PUSH4 0xC262F298 EQ PUSH2 0x9AF JUMPI DUP1 PUSH4 0xC64B8A8F EQ PUSH2 0x972 JUMPI DUP1 PUSH4 0xC6CDBE5E EQ PUSH2 0x915 JUMPI DUP1 PUSH4 0xC80BBA8A EQ PUSH2 0x83E JUMPI DUP1 PUSH4 0xD5B9221B EQ PUSH2 0x801 JUMPI DUP1 PUSH4 0xD72E481D EQ PUSH2 0x725 JUMPI DUP1 PUSH4 0xE01EF6E6 EQ PUSH2 0x708 JUMPI DUP1 PUSH4 0xE2367890 EQ PUSH2 0x6EB JUMPI DUP1 PUSH4 0xE585CB2C EQ PUSH2 0x63B JUMPI DUP1 PUSH4 0xE6A93E16 EQ PUSH2 0x58D JUMPI DUP1 PUSH4 0xE6B165ED EQ PUSH2 0x54C JUMPI DUP1 PUSH4 0xEAAE7562 EQ PUSH2 0x465 JUMPI DUP1 PUSH4 0xF2943DCE EQ PUSH2 0x3D1 JUMPI DUP1 PUSH4 0xF2FDE38B EQ PUSH2 0x326 JUMPI PUSH4 0xF3052D26 EQ PUSH2 0x285 JUMPI PUSH0 PUSH2 0xF JUMP JUMPDEST CALLVALUE PUSH2 0x322 JUMPI PUSH1 0x20 DUP1 PUSH1 0x3 NOT CALLDATASIZE ADD SLT PUSH2 0x322 JUMPI PUSH0 PUSH1 0x40 DUP1 MLOAD PUSH2 0x2A5 DUP2 PUSH2 0x3284 JUMP JUMPDEST DUP3 DUP2 MSTORE PUSH1 0x60 DUP5 DUP3 ADD MSTORE ADD MSTORE PUSH1 0x4 CALLDATALOAD PUSH0 MSTORE PUSH1 0xF DUP2 MSTORE PUSH1 0x40 PUSH0 KECCAK256 PUSH1 0x40 MLOAD SWAP1 PUSH2 0x2CA DUP3 PUSH2 0x3284 JUMP JUMPDEST DUP1 SLOAD DUP3 MSTORE PUSH2 0x315 PUSH1 0xFF PUSH1 0x2 PUSH2 0x2E1 PUSH1 0x1 DUP6 ADD PUSH2 0x33E3 JUMP JUMPDEST SWAP4 DUP7 DUP7 ADD SWAP5 DUP6 MSTORE ADD SLOAD AND SWAP2 PUSH1 0x40 DUP5 ADD SWAP3 ISZERO ISZERO DUP4 MSTORE PUSH1 0x40 MLOAD SWAP5 DUP6 SWAP5 DUP2 DUP7 MSTORE MLOAD SWAP1 DUP6 ADD MSTORE MLOAD PUSH1 0x60 PUSH1 0x40 DUP6 ADD MSTORE PUSH1 0x80 DUP5 ADD SWAP1 PUSH2 0x3485 JUMP JUMPDEST SWAP1 MLOAD ISZERO ISZERO PUSH1 0x60 DUP4 ADD MSTORE SUB SWAP1 RETURN JUMPDEST PUSH0 DUP1 REVERT JUMPDEST CALLVALUE PUSH2 0x322 JUMPI PUSH1 0x20 CALLDATASIZE PUSH1 0x3 NOT ADD SLT PUSH2 0x322 JUMPI PUSH2 0x33F PUSH2 0x3313 JUMP JUMPDEST PUSH2 0x347 PUSH2 0x36D3 JUMP JUMPDEST PUSH1 0x1 PUSH1 0x1 PUSH1 0xA0 SHL SUB SWAP1 DUP2 AND SWAP1 DUP2 ISZERO PUSH2 0x37D JUMPI PUSH0 SLOAD DUP3 PUSH1 0x1 DUP1 PUSH1 0xA0 SHL SUB NOT DUP3 AND OR PUSH0 SSTORE AND PUSH0 DUP1 MLOAD PUSH1 0x20 PUSH2 0x374B DUP4 CODECOPY DUP2 MLOAD SWAP2 MSTORE PUSH0 DUP1 LOG3 STOP JUMPDEST PUSH1 0x40 MLOAD PUSH3 0x461BCD PUSH1 0xE5 SHL DUP2 MSTORE PUSH1 0x20 PUSH1 0x4 DUP3 ADD MSTORE PUSH1 0x26 PUSH1 0x24 DUP3 ADD MSTORE PUSH32 0x4F776E61626C653A206E6577206F776E657220697320746865207A65726F2061 PUSH1 0x44 DUP3 ADD MSTORE PUSH6 0x646472657373 PUSH1 0xD0 SHL PUSH1 0x64 DUP3 ADD MSTORE PUSH1 0x84 SWAP1 REVERT JUMPDEST CALLVALUE PUSH2 0x322 JUMPI PUSH2 0x3DF CALLDATASIZE PUSH2 0x35C1 JUMP JUMPDEST SWAP1 PUSH0 MSTORE PUSH1 0x12 PUSH1 0x20 MSTORE PUSH1 0x40 PUSH0 KECCAK256 SWAP1 DUP2 SLOAD DUP2 LT ISZERO PUSH2 0x322 JUMPI PUSH2 0x3FE SWAP2 PUSH2 0x35A8 JUMP JUMPDEST POP DUP1 SLOAD PUSH1 0x1 DUP1 PUSH1 0xA0 SHL SUB PUSH1 0x1 DUP4 ADD SLOAD AND SWAP2 PUSH1 0x2 DUP2 ADD SLOAD PUSH2 0x454 PUSH2 0x423 PUSH1 0x3 DUP5 ADD PUSH2 0x33E3 JUMP JUMPDEST PUSH1 0x5 PUSH1 0xFF PUSH1 0x4 DUP7 ADD SLOAD AND SWAP5 ADD SLOAD SWAP3 PUSH1 0x40 MLOAD SWAP7 DUP8 SWAP7 DUP8 MSTORE PUSH1 0x20 DUP8 ADD MSTORE PUSH1 0x40 DUP7 ADD MSTORE PUSH1 0xC0 PUSH1 0x60 DUP7 ADD MSTORE PUSH1 0xC0 DUP6 ADD SWAP1 PUSH2 0x3485 JUMP JUMPDEST SWAP2 ISZERO ISZERO PUSH1 0x80 DUP5 ADD MSTORE PUSH1 0xA0 DUP4 ADD MSTORE SUB SWAP1 RETURN JUMPDEST CALLVALUE PUSH2 0x322 JUMPI PUSH2 0x100 CALLDATASIZE PUSH1 0x3 NOT ADD SLT PUSH2 0x322 JUMPI PUSH2 0x47F PUSH2 0x3313 JUMP JUMPDEST PUSH1 0x1 PUSH1 0x1 PUSH1 0xA0 SHL SUB PUSH1 0x24 CALLDATALOAD DUP2 DUP2 AND SWAP1 DUP2 SWAP1 SUB PUSH2 0x322 JUMPI PUSH1 0xC0 CALLDATASIZE PUSH1 0x43 NOT ADD SLT PUSH2 0x322 JUMPI PUSH1 0x40 MLOAD SWAP2 PUSH2 0x4AE DUP4 PUSH2 0x329F JUMP JUMPDEST PUSH1 0x44 CALLDATALOAD DUP4 MSTORE PUSH1 0x64 CALLDATALOAD DUP2 DUP2 AND DUP2 SUB PUSH2 0x322 JUMPI PUSH1 0x20 DUP5 ADD MSTORE PUSH1 0x84 CALLDATALOAD DUP2 DUP2 AND DUP2 SUB PUSH2 0x322 JUMPI PUSH1 0x40 DUP5 ADD MSTORE PUSH1 0xA4 CALLDATALOAD PUSH1 0x60 DUP5 ADD MSTORE PUSH1 0xC4 CALLDATALOAD PUSH1 0x80 DUP5 ADD MSTORE PUSH1 0xE4 CALLDATALOAD SWAP4 DUP5 ISZERO ISZERO DUP6 SUB PUSH2 0x322 JUMPI PUSH2 0x1A SWAP5 PUSH1 0xA0 DUP6 ADD MSTORE CALLER PUSH0 MSTORE PUSH1 0x17 PUSH1 0x20 MSTORE PUSH1 0xFF PUSH1 0x40 PUSH0 KECCAK256 SLOAD AND DUP1 ISZERO PUSH2 0x540 JUMPI JUMPDEST PUSH2 0x51B SWAP1 PUSH2 0x35D7 JUMP JUMPDEST AND PUSH0 MSTORE PUSH1 0x10 PUSH1 0x20 MSTORE PUSH2 0x530 DUP3 PUSH1 0x40 PUSH0 KECCAK256 PUSH2 0x364A JUMP JUMPDEST PUSH0 MSTORE PUSH1 0x11 PUSH1 0x20 MSTORE PUSH1 0x40 PUSH0 KECCAK256 PUSH2 0x364A JUMP JUMPDEST POP PUSH0 SLOAD DUP3 AND CALLER EQ PUSH2 0x512 JUMP JUMPDEST CALLVALUE PUSH2 0x322 JUMPI PUSH1 0x20 CALLDATASIZE PUSH1 0x3 NOT ADD SLT PUSH2 0x322 JUMPI PUSH2 0x565 PUSH2 0x3313 JUMP JUMPDEST PUSH2 0x56D PUSH2 0x36D3 JUMP JUMPDEST PUSH1 0x1 PUSH1 0x1 PUSH1 0xA0 SHL SUB AND PUSH0 SWAP1 DUP2 MSTORE PUSH1 0x17 PUSH1 0x20 MSTORE PUSH1 0x40 SWAP1 KECCAK256 DUP1 SLOAD PUSH1 0xFF NOT AND SWAP1 SSTORE STOP JUMPDEST CALLVALUE PUSH2 0x322 JUMPI PUSH1 0x20 DUP1 PUSH1 0x3 NOT CALLDATASIZE ADD SLT PUSH2 0x322 JUMPI PUSH1 0x1 PUSH1 0x1 PUSH1 0xA0 SHL SUB PUSH2 0x5AF PUSH2 0x3313 JUMP JUMPDEST AND PUSH0 MSTORE PUSH1 0x7 DUP2 MSTORE PUSH1 0x40 PUSH0 KECCAK256 PUSH1 0x40 MLOAD SWAP1 DUP2 DUP4 DUP3 SLOAD SWAP2 DUP3 DUP2 MSTORE ADD SWAP1 DUP2 SWAP3 PUSH0 MSTORE DUP5 PUSH0 KECCAK256 SWAP1 PUSH0 JUMPDEST DUP7 DUP3 DUP3 LT PUSH2 0x627 JUMPI DUP7 DUP7 PUSH2 0x5E8 DUP3 DUP9 SUB DUP4 PUSH2 0x32F0 JUMP JUMPDEST PUSH1 0x40 MLOAD SWAP3 DUP4 SWAP3 DUP2 DUP5 ADD SWAP1 DUP3 DUP6 MSTORE MLOAD DUP1 SWAP2 MSTORE PUSH1 0x40 DUP5 ADD SWAP3 SWAP2 PUSH0 JUMPDEST DUP3 DUP2 LT PUSH2 0x610 JUMPI POP POP POP POP SUB SWAP1 RETURN JUMPDEST DUP4 MLOAD DUP6 MSTORE DUP7 SWAP6 POP SWAP4 DUP2 ADD SWAP4 SWAP3 DUP2 ADD SWAP3 PUSH1 0x1 ADD PUSH2 0x601 JUMP JUMPDEST DUP4 SLOAD DUP6 MSTORE SWAP1 SWAP4 ADD SWAP3 PUSH1 0x1 SWAP3 DUP4 ADD SWAP3 ADD PUSH2 0x5D2 JUMP JUMPDEST CALLVALUE PUSH2 0x322 JUMPI PUSH1 0x40 CALLDATASIZE PUSH1 0x3 NOT ADD SLT PUSH2 0x322 JUMPI PUSH2 0x654 PUSH2 0x3313 JUMP JUMPDEST PUSH1 0x1 PUSH1 0x1 PUSH1 0xA0 SHL SUB SWAP1 DUP2 AND PUSH0 SWAP1 DUP2 MSTORE PUSH1 0x11 PUSH1 0x20 MSTORE PUSH1 0x40 SWAP1 KECCAK256 DUP1 SLOAD PUSH1 0x24 CALLDATALOAD SWAP1 DUP2 LT ISZERO PUSH2 0x322 JUMPI PUSH2 0x682 SWAP2 PUSH2 0x35A8 JUMP JUMPDEST POP DUP1 SLOAD PUSH1 0x1 DUP3 ADD SLOAD PUSH1 0x2 DUP4 ADD SLOAD PUSH1 0x3 DUP5 ADD SLOAD PUSH1 0x4 DUP6 ADD SLOAD PUSH1 0x5 SWAP1 SWAP6 ADD SLOAD PUSH1 0x40 DUP1 MLOAD SWAP6 DUP7 MSTORE PUSH1 0x1 PUSH1 0x1 PUSH1 0xA0 SHL SUB SWAP5 DUP9 AND DUP6 AND PUSH1 0x20 DUP8 ADD MSTORE SWAP3 SWAP1 SWAP7 AND SWAP3 SWAP1 SWAP3 AND SWAP1 DUP4 ADD MSTORE PUSH1 0x60 DUP3 ADD MSTORE PUSH1 0x80 DUP2 ADD SWAP2 SWAP1 SWAP2 MSTORE PUSH1 0xFF SWAP2 SWAP1 SWAP2 AND ISZERO ISZERO PUSH1 0xA0 DUP3 ADD MSTORE DUP1 PUSH1 0xC0 DUP2 ADD SUB SWAP1 RETURN JUMPDEST SUB SWAP1 RETURN JUMPDEST CALLVALUE PUSH2 0x322 JUMPI PUSH0 CALLDATASIZE PUSH1 0x3 NOT ADD SLT PUSH2 0x322 JUMPI PUSH1 0x20 PUSH1 0x3 SLOAD PUSH1 0x40 MLOAD SWAP1 DUP2 MSTORE RETURN JUMPDEST CALLVALUE PUSH2 0x322 JUMPI PUSH0 CALLDATASIZE PUSH1 0x3 NOT ADD SLT PUSH2 0x322 JUMPI PUSH1 0x20 PUSH1 0x5 SLOAD PUSH1 0x40 MLOAD SWAP1 DUP2 MSTORE RETURN JUMPDEST CALLVALUE PUSH2 0x322 JUMPI PUSH0 CALLDATASIZE PUSH1 0x3 NOT ADD SLT PUSH2 0x322 JUMPI PUSH2 0x73D PUSH2 0x36D3 JUMP JUMPDEST SELFBALANCE DUP1 ISZERO PUSH2 0x7C6 JUMPI PUSH0 DUP1 DUP1 DUP1 SWAP4 PUSH1 0x1 DUP1 PUSH1 0xA0 SHL SUB DUP3 SLOAD AND GAS CALL RETURNDATASIZE ISZERO PUSH2 0x7C1 JUMPI RETURNDATASIZE PUSH2 0x765 DUP2 PUSH2 0x333D JUMP JUMPDEST SWAP1 PUSH2 0x773 PUSH1 0x40 MLOAD SWAP3 DUP4 PUSH2 0x32F0 JUMP JUMPDEST DUP2 MSTORE PUSH0 PUSH1 0x20 RETURNDATASIZE SWAP3 ADD RETURNDATACOPY JUMPDEST ISZERO PUSH2 0x784 JUMPI STOP JUMPDEST PUSH1 0x40 MLOAD PUSH3 0x461BCD PUSH1 0xE5 SHL DUP2 MSTORE PUSH1 0x20 PUSH1 0x4 DUP3 ADD MSTORE PUSH1 0x15 PUSH1 0x24 DUP3 ADD MSTORE PUSH21 0x119959481DDA5D1A191C985DD85B0819985A5B1959 PUSH1 0x5A SHL PUSH1 0x44 DUP3 ADD MSTORE PUSH1 0x64 SWAP1 REVERT JUMPDEST PUSH2 0x77D JUMP JUMPDEST PUSH1 0x40 MLOAD PUSH3 0x461BCD PUSH1 0xE5 SHL DUP2 MSTORE PUSH1 0x20 PUSH1 0x4 DUP3 ADD MSTORE PUSH1 0x13 PUSH1 0x24 DUP3 ADD MSTORE PUSH19 0x4E6F206665657320746F207769746864726177 PUSH1 0x68 SHL PUSH1 0x44 DUP3 ADD MSTORE PUSH1 0x64 SWAP1 REVERT JUMPDEST CALLVALUE PUSH2 0x322 JUMPI PUSH1 0x20 CALLDATASIZE PUSH1 0x3 NOT ADD SLT PUSH2 0x322 JUMPI PUSH1 0x1 PUSH1 0x1 PUSH1 0xA0 SHL SUB PUSH2 0x822 PUSH2 0x3313 JUMP JUMPDEST AND PUSH0 MSTORE PUSH1 0x17 PUSH1 0x20 MSTORE PUSH1 0x20 PUSH1 0xFF PUSH1 0x40 PUSH0 KECCAK256 SLOAD AND PUSH1 0x40 MLOAD SWAP1 ISZERO ISZERO DUP2 MSTORE RETURN JUMPDEST CALLVALUE PUSH2 0x322 JUMPI PUSH1 0x40 CALLDATASIZE PUSH1 0x3 NOT ADD SLT PUSH2 0x322 JUMPI PUSH2 0x857 PUSH2 0x3313 JUMP JUMPDEST PUSH1 0x24 CALLDATALOAD SWAP1 CALLER PUSH0 MSTORE PUSH1 0x17 PUSH1 0x20 MSTORE PUSH1 0xFF PUSH1 0x40 PUSH0 KECCAK256 SLOAD AND DUP1 ISZERO PUSH2 0x902 JUMPI JUMPDEST PUSH2 0x87B SWAP1 PUSH2 0x35D7 JUMP JUMPDEST PUSH1 0x1 PUSH1 0x1 PUSH1 0xA0 SHL SUB AND PUSH0 DUP2 DUP2 MSTORE PUSH1 0xE PUSH1 0x20 MSTORE PUSH1 0x40 SWAP1 KECCAK256 SLOAD DUP3 GT PUSH2 0x8C6 JUMPI PUSH0 MSTORE PUSH1 0xE PUSH1 0x20 MSTORE PUSH1 0x40 PUSH0 KECCAK256 DUP1 SLOAD SWAP2 DUP3 SUB SWAP2 DUP3 GT PUSH2 0x8B2 JUMPI SSTORE STOP JUMPDEST PUSH4 0x4E487B71 PUSH1 0xE0 SHL PUSH0 MSTORE PUSH1 0x11 PUSH1 0x4 MSTORE PUSH1 0x24 PUSH0 REVERT JUMPDEST PUSH1 0x40 MLOAD PUSH3 0x461BCD PUSH1 0xE5 SHL DUP2 MSTORE PUSH1 0x20 PUSH1 0x4 DUP3 ADD MSTORE PUSH1 0x14 PUSH1 0x24 DUP3 ADD MSTORE PUSH20 0x496E73756666696369656E742062616C616E6365 PUSH1 0x60 SHL PUSH1 0x44 DUP3 ADD MSTORE PUSH1 0x64 SWAP1 REVERT JUMPDEST POP PUSH0 SLOAD PUSH1 0x1 PUSH1 0x1 PUSH1 0xA0 SHL SUB AND CALLER EQ PUSH2 0x872 JUMP JUMPDEST CALLVALUE PUSH2 0x322 JUMPI PUSH1 0x20 CALLDATASIZE PUSH1 0x3 NOT ADD SLT PUSH2 0x322 JUMPI PUSH1 0x4 CALLDATALOAD PUSH0 MSTORE PUSH1 0xF PUSH1 0x20 MSTORE PUSH1 0x40 PUSH0 KECCAK256 DUP1 SLOAD PUSH1 0xFF PUSH1 0x2 PUSH2 0x946 PUSH1 0x1 DUP6 ADD PUSH2 0x33E3 JUMP JUMPDEST SWAP4 ADD SLOAD AND PUSH2 0x966 PUSH1 0x40 MLOAD SWAP4 DUP5 SWAP4 DUP5 MSTORE PUSH1 0x60 PUSH1 0x20 DUP6 ADD MSTORE PUSH1 0x60 DUP5 ADD SWAP1 PUSH2 0x3485 JUMP JUMPDEST SWAP1 ISZERO ISZERO PUSH1 0x40 DUP4 ADD MSTORE SUB SWAP1 RETURN JUMPDEST CALLVALUE PUSH2 0x322 JUMPI PUSH1 0x20 CALLDATASIZE PUSH1 0x3 NOT ADD SLT PUSH2 0x322 JUMPI PUSH1 0x1 PUSH1 0x1 PUSH1 0xA0 SHL SUB PUSH2 0x993 PUSH2 0x3313 JUMP JUMPDEST AND PUSH0 MSTORE PUSH1 0xC PUSH1 0x20 MSTORE PUSH1 0x20 PUSH1 0xFF PUSH1 0x40 PUSH0 KECCAK256 SLOAD AND PUSH1 0x40 MLOAD SWAP1 ISZERO ISZERO DUP2 MSTORE RETURN JUMPDEST CALLVALUE PUSH2 0x322 JUMPI PUSH2 0x9BD CALLDATASIZE PUSH2 0x35C1 JUMP JUMPDEST SWAP1 CALLER PUSH0 MSTORE PUSH1 0x17 PUSH1 0x20 MSTORE PUSH1 0xFF PUSH1 0x40 PUSH0 KECCAK256 SLOAD AND DUP1 ISZERO PUSH2 0x9EE JUMPI JUMPDEST PUSH2 0x9DE SWAP1 PUSH2 0x35D7 JUMP JUMPDEST PUSH0 MSTORE PUSH1 0x13 PUSH1 0x20 MSTORE PUSH1 0x40 PUSH0 KECCAK256 SSTORE PUSH0 DUP1 RETURN JUMPDEST POP PUSH0 SLOAD PUSH1 0x1 PUSH1 0x1 PUSH1 0xA0 SHL SUB AND CALLER EQ PUSH2 0x9D5 JUMP JUMPDEST CALLVALUE PUSH2 0x322 JUMPI PUSH1 0x20 DUP1 PUSH1 0x3 NOT CALLDATASIZE ADD SLT PUSH2 0x322 JUMPI PUSH1 0x1 PUSH1 0x1 PUSH1 0xA0 SHL SUB SWAP1 DUP2 PUSH2 0xA25 PUSH2 0x3313 JUMP JUMPDEST AND PUSH0 MSTORE PUSH1 0x11 DUP2 MSTORE PUSH1 0x40 PUSH0 KECCAK256 DUP1 SLOAD SWAP1 PUSH2 0xA3C DUP3 PUSH2 0x3633 JUMP JUMPDEST SWAP3 PUSH2 0xA4A PUSH1 0x40 MLOAD SWAP5 DUP6 PUSH2 0x32F0 JUMP JUMPDEST DUP3 DUP5 MSTORE PUSH0 SWAP2 DUP3 MSTORE DUP1 DUP3 KECCAK256 DUP2 DUP6 ADD JUMPDEST DUP5 DUP5 LT PUSH2 0xA6D JUMPI PUSH1 0x40 MLOAD DUP1 PUSH2 0x6E7 DUP9 DUP3 PUSH2 0x3528 JUMP JUMPDEST PUSH1 0x6 DUP4 PUSH1 0x1 SWAP3 PUSH1 0x40 MLOAD PUSH2 0xA7F DUP2 PUSH2 0x329F JUMP JUMPDEST DUP6 SLOAD DUP2 MSTORE DUP11 DUP6 DUP8 ADD SLOAD AND DUP4 DUP3 ADD MSTORE DUP11 PUSH1 0x2 DUP8 ADD SLOAD AND PUSH1 0x40 DUP3 ADD MSTORE PUSH1 0x3 DUP7 ADD SLOAD PUSH1 0x60 DUP3 ADD MSTORE PUSH1 0x4 DUP7 ADD SLOAD PUSH1 0x80 DUP3 ADD MSTORE PUSH1 0xFF PUSH1 0x5 DUP8 ADD SLOAD AND ISZERO ISZERO PUSH1 0xA0 DUP3 ADD MSTORE DUP2 MSTORE ADD SWAP3 ADD SWAP4 ADD SWAP3 SWAP1 PUSH2 0xA58 JUMP JUMPDEST CALLVALUE PUSH2 0x322 JUMPI PUSH1 0x40 CALLDATASIZE PUSH1 0x3 NOT ADD SLT PUSH2 0x322 JUMPI PUSH2 0xAE3 PUSH2 0x3313 JUMP JUMPDEST PUSH1 0x1 PUSH1 0x1 PUSH1 0xA0 SHL SUB AND PUSH0 SWAP1 DUP2 MSTORE PUSH1 0x7 PUSH1 0x20 MSTORE PUSH1 0x40 SWAP1 KECCAK256 DUP1 SLOAD PUSH1 0x24 CALLDATALOAD SWAP2 SWAP1 DUP3 LT ISZERO PUSH2 0x322 JUMPI PUSH1 0x20 SWAP2 PUSH2 0xB13 SWAP2 PUSH2 0x3253 JUMP JUMPDEST SWAP1 SLOAD PUSH1 0x40 MLOAD SWAP2 PUSH1 0x3 SHL SHR DUP2 MSTORE RETURN JUMPDEST CALLVALUE PUSH2 0x322 JUMPI PUSH1 0x20 CALLDATASIZE PUSH1 0x3 NOT ADD SLT PUSH2 0x322 JUMPI PUSH0 PUSH2 0x120 PUSH1 0x40 MLOAD PUSH2 0xB42 DUP2 PUSH2 0x3268 JUMP JUMPDEST DUP3 DUP2 MSTORE DUP3 PUSH1 0x20 DUP3 ADD MSTORE PUSH1 0x60 PUSH1 0x40 DUP3 ADD MSTORE PUSH1 0x60 DUP1 DUP3 ADD MSTORE PUSH1 0x60 PUSH1 0x80 DUP3 ADD MSTORE DUP3 PUSH1 0xA0 DUP3 ADD MSTORE DUP3 PUSH1 0xC0 DUP3 ADD MSTORE DUP3 PUSH1 0xE0 DUP3 ADD MSTORE DUP3 PUSH2 0x100 DUP3 ADD MSTORE ADD MSTORE PUSH1 0x4 CALLDATALOAD PUSH0 MSTORE PUSH1 0x6 PUSH1 0x20 MSTORE PUSH1 0x40 PUSH0 KECCAK256 PUSH1 0xFF PUSH1 0x9 PUSH1 0x40 MLOAD SWAP3 PUSH2 0xB99 DUP5 PUSH2 0x3268 JUMP JUMPDEST DUP1 SLOAD DUP5 MSTORE PUSH1 0x1 DUP2 ADD SLOAD PUSH1 0x1 PUSH1 0x1 PUSH1 0xA0 SHL SUB AND PUSH1 0x20 DUP6 ADD MSTORE PUSH2 0xBBC PUSH1 0x2 DUP3 ADD PUSH2 0x33E3 JUMP JUMPDEST PUSH1 0x40 DUP6 ADD MSTORE PUSH2 0xBCD PUSH1 0x3 DUP3 ADD PUSH2 0x33E3 JUMP JUMPDEST PUSH1 0x60 DUP6 ADD MSTORE PUSH2 0xBDE PUSH1 0x4 DUP3 ADD PUSH2 0x33E3 JUMP JUMPDEST PUSH1 0x80 DUP6 ADD MSTORE PUSH1 0x5 DUP2 ADD SLOAD PUSH1 0xA0 DUP6 ADD MSTORE PUSH1 0x6 DUP2 ADD SLOAD PUSH1 0xC0 DUP6 ADD MSTORE PUSH1 0x7 DUP2 ADD SLOAD PUSH1 0xE0 DUP6 ADD MSTORE PUSH1 0x8 DUP2 ADD SLOAD PUSH2 0x100 DUP6 ADD MSTORE ADD SLOAD AND ISZERO ISZERO PUSH2 0x120 DUP3 ADD MSTORE PUSH1 0x40 MLOAD DUP1 SWAP2 PUSH1 0x20 DUP3 MSTORE DUP1 MLOAD PUSH1 0x20 DUP4 ADD MSTORE PUSH1 0x1 DUP1 PUSH1 0xA0 SHL SUB PUSH1 0x20 DUP3 ADD MLOAD AND PUSH1 0x40 DUP4 ADD MSTORE PUSH1 0x40 DUP2 ADD MLOAD PUSH2 0x120 PUSH2 0xC8D PUSH2 0xC5C PUSH2 0x140 SWAP4 DUP5 PUSH1 0x60 DUP9 ADD MSTORE PUSH2 0x160 DUP8 ADD SWAP1 PUSH2 0x3485 JUMP JUMPDEST PUSH2 0xC78 PUSH1 0x60 DUP7 ADD MLOAD SWAP2 PUSH1 0x1F NOT SWAP3 DUP4 DUP10 DUP4 SUB ADD PUSH1 0x80 DUP11 ADD MSTORE PUSH2 0x3485 JUMP JUMPDEST SWAP1 PUSH1 0x80 DUP7 ADD MLOAD SWAP1 DUP8 DUP4 SUB ADD PUSH1 0xA0 DUP9 ADD MSTORE PUSH2 0x3485 JUMP JUMPDEST SWAP3 PUSH1 0xA0 DUP2 ADD MLOAD PUSH1 0xC0 DUP7 ADD MSTORE PUSH1 0xC0 DUP2 ADD MLOAD PUSH1 0xE0 DUP7 ADD MSTORE PUSH1 0xE0 DUP2 ADD MLOAD PUSH2 0x100 DUP7 ADD MSTORE PUSH2 0x100 DUP2 ADD MLOAD DUP3 DUP7 ADD MSTORE ADD MLOAD ISZERO ISZERO SWAP1 DUP4 ADD MSTORE SUB SWAP1 RETURN JUMPDEST CALLVALUE PUSH2 0x322 JUMPI PUSH1 0x20 CALLDATASIZE PUSH1 0x3 NOT ADD SLT PUSH2 0x322 JUMPI PUSH1 0x4 CALLDATALOAD PUSH0 MSTORE PUSH1 0x8 PUSH1 0x20 MSTORE PUSH1 0x20 PUSH1 0xFF PUSH1 0x40 PUSH0 KECCAK256 SLOAD AND PUSH1 0x40 MLOAD SWAP1 ISZERO ISZERO DUP2 MSTORE RETURN JUMPDEST CALLVALUE PUSH2 0x322 JUMPI PUSH1 0x40 CALLDATASIZE PUSH1 0x3 NOT ADD SLT PUSH2 0x322 JUMPI PUSH2 0xD0B PUSH2 0x3313 JUMP JUMPDEST PUSH1 0x24 SWAP1 PUSH1 0x24 CALLDATALOAD SWAP2 PUSH1 0x4 DUP4 LT ISZERO PUSH2 0x322 JUMPI CALLER PUSH0 MSTORE PUSH1 0x17 PUSH1 0x20 MSTORE PUSH1 0xFF PUSH1 0x40 PUSH0 KECCAK256 SLOAD AND DUP1 ISZERO PUSH2 0xE8D JUMPI JUMPDEST PUSH2 0xD3B SWAP1 PUSH2 0x35D7 JUMP JUMPDEST PUSH1 0x1 DUP1 PUSH1 0xA0 SHL SUB SWAP1 DUP2 DUP4 AND SWAP3 DUP4 PUSH0 MSTORE PUSH1 0xD PUSH1 0x20 MSTORE PUSH1 0x40 PUSH0 KECCAK256 PUSH1 0xFF NOT DUP2 SLOAD AND PUSH1 0xFF DUP8 AND OR SWAP1 SSTORE PUSH1 0x1 SWAP5 PUSH1 0x1 DUP2 EQ PUSH2 0xE4F JUMPI JUMPDEST PUSH1 0x2 SWAP2 POP EQ PUSH2 0xD77 JUMPI STOP JUMPDEST DUP4 SWAP3 PUSH0 SWAP5 JUMPDEST PUSH2 0xD82 JUMPI STOP JUMPDEST PUSH1 0x16 DUP1 SLOAD SWAP1 DUP2 DUP8 LT ISZERO PUSH2 0x1A JUMPI DUP5 SWAP2 DUP4 PUSH2 0xD9B DUP10 PUSH2 0x323B JUMP JUMPDEST SWAP5 SWAP1 SLOAD PUSH1 0x3 SWAP6 DUP7 SHL SHR AND EQ PUSH2 0xDB7 JUMPI POP POP POP DUP4 DUP1 SWAP6 ADD SWAP5 PUSH2 0xD7C JUMP JUMPDEST SWAP4 SWAP3 POP SWAP5 POP SWAP5 PUSH0 NOT SWAP3 DUP4 DUP2 ADD SWAP1 DUP2 GT PUSH2 0xE3C JUMPI SWAP1 PUSH2 0xDE8 DUP6 PUSH2 0xDDB PUSH2 0xE06 SWAP5 PUSH2 0x323B JUMP JUMPDEST SWAP1 SLOAD SWAP1 DUP11 SHL SHR AND SWAP2 PUSH2 0x323B JUMP JUMPDEST SWAP1 SWAP2 SWAP1 PUSH1 0x1 DUP1 PUSH1 0xA0 SHL SUB DUP1 DUP5 SLOAD SWAP3 PUSH1 0x3 SHL SWAP4 AND DUP4 SHL SWAP3 SHL NOT AND OR SWAP1 SSTORE JUMP JUMPDEST DUP4 SLOAD SWAP1 DUP2 ISZERO PUSH2 0xE29 JUMPI POP ADD SWAP3 PUSH2 0xE1B DUP5 PUSH2 0x323B JUMP JUMPDEST DUP2 SWAP4 SWAP2 SLOAD SWAP3 SHL SHL NOT AND SWAP1 SSTORE SSTORE STOP JUMPDEST PUSH4 0x4E487B71 PUSH1 0xE0 SHL PUSH0 SWAP1 DUP2 MSTORE PUSH1 0x31 PUSH1 0x4 MSTORE REVERT JUMPDEST DUP3 PUSH4 0x4E487B71 PUSH1 0xE0 SHL PUSH0 MSTORE PUSH1 0x11 PUSH1 0x4 MSTORE PUSH0 REVERT JUMPDEST PUSH1 0x16 SLOAD PUSH1 0x1 PUSH1 0x40 SHL DUP2 LT ISZERO PUSH2 0xE79 JUMPI PUSH1 0x2 SWAP3 PUSH2 0xDE8 DUP3 PUSH1 0x1 PUSH2 0xE74 SWAP5 ADD PUSH1 0x16 SSTORE PUSH2 0x323B JUMP JUMPDEST PUSH2 0xD6C JUMP JUMPDEST PUSH4 0x4E487B71 PUSH1 0xE0 SHL PUSH0 MSTORE PUSH1 0x41 PUSH1 0x4 MSTORE PUSH1 0x24 PUSH0 REVERT JUMPDEST POP PUSH0 SLOAD PUSH1 0x1 PUSH1 0x1 PUSH1 0xA0 SHL SUB AND CALLER EQ PUSH2 0xD32 JUMP JUMPDEST CALLVALUE PUSH2 0x322 JUMPI PUSH1 0x20 DUP1 PUSH1 0x3 NOT CALLDATASIZE ADD SLT PUSH2 0x322 JUMPI PUSH2 0xEBA PUSH2 0x3313 JUMP JUMPDEST SWAP1 PUSH1 0x40 MLOAD SWAP2 PUSH2 0xEC8 DUP4 PUSH2 0x32BA JUMP JUMPDEST PUSH1 0x60 SWAP3 DUP4 DUP2 MSTORE DUP4 DUP4 DUP3 ADD MSTORE DUP4 PUSH1 0x40 DUP3 ADD MSTORE DUP4 DUP1 DUP3 ADD MSTORE DUP4 PUSH1 0x80 DUP3 ADD MSTORE PUSH1 0xA0 DUP2 ADD PUSH0 SWAP1 MSTORE PUSH1 0xC0 ADD PUSH0 SWAP1 MSTORE PUSH1 0x1 PUSH1 0xA0 SHL PUSH1 0x1 SWAP1 SUB AND PUSH0 MSTORE PUSH1 0xB DUP2 MSTORE PUSH1 0x40 PUSH0 KECCAK256 PUSH1 0xD DUP3 MSTORE PUSH1 0x40 PUSH0 KECCAK256 SLOAD PUSH1 0xFF AND PUSH1 0x40 MLOAD SWAP3 PUSH2 0xF1E DUP5 PUSH2 0x32BA JUMP JUMPDEST PUSH2 0xF27 DUP4 PUSH2 0x33E3 JUMP JUMPDEST DUP5 MSTORE PUSH2 0xF35 PUSH1 0x1 DUP5 ADD PUSH2 0x33E3 JUMP JUMPDEST DUP5 DUP3 ADD SWAP1 DUP2 MSTORE SWAP5 PUSH2 0xF48 PUSH1 0x2 DUP6 ADD PUSH2 0x33E3 JUMP JUMPDEST PUSH1 0x40 DUP7 ADD SWAP1 DUP2 MSTORE SWAP1 PUSH2 0xF5C PUSH1 0x3 DUP7 ADD PUSH2 0x33E3 JUMP JUMPDEST DUP7 DUP3 ADD SWAP1 DUP2 MSTORE PUSH2 0xF6E PUSH1 0x4 DUP8 ADD PUSH2 0x33E3 JUMP JUMPDEST SWAP1 PUSH1 0x80 DUP9 ADD SWAP2 DUP3 MSTORE PUSH1 0x5 DUP8 ADD SLOAD PUSH1 0xFF AND SWAP7 PUSH1 0xA0 DUP10 ADD SWAP8 ISZERO ISZERO DUP9 MSTORE PUSH1 0x6 ADD SLOAD SWAP4 PUSH1 0xC0 DUP10 ADD SWAP5 DUP6 MSTORE PUSH1 0x40 MLOAD SWAP10 DUP11 SWAP10 PUSH1 0x40 DUP12 MSTORE MLOAD PUSH1 0x40 DUP12 ADD PUSH1 0xE0 SWAP1 MSTORE PUSH2 0x120 DUP12 ADD PUSH2 0xFB5 SWAP2 PUSH2 0x3485 JUMP JUMPDEST SWAP1 MLOAD SWAP1 PUSH1 0x3F NOT SWAP6 DUP7 DUP13 DUP4 SUB ADD SWAP1 DUP13 ADD MSTORE PUSH2 0xFCE SWAP2 PUSH2 0x3485 JUMP JUMPDEST SWAP1 MLOAD SWAP1 DUP5 DUP11 DUP3 SUB ADD PUSH1 0x80 DUP12 ADD MSTORE PUSH2 0xFE4 SWAP2 PUSH2 0x3485 JUMP JUMPDEST SWAP1 MLOAD SWAP1 DUP4 DUP10 DUP3 SUB ADD PUSH1 0xA0 DUP11 ADD MSTORE PUSH2 0xFFA SWAP2 PUSH2 0x3485 JUMP JUMPDEST SWAP1 MLOAD SWAP2 DUP8 DUP3 SUB ADD PUSH1 0xC0 DUP9 ADD MSTORE PUSH2 0x100F SWAP2 PUSH2 0x3485 JUMP JUMPDEST SWAP4 MLOAD ISZERO ISZERO PUSH1 0xE0 DUP7 ADD MSTORE MLOAD PUSH2 0x100 DUP6 ADD MSTORE DUP4 ADD PUSH2 0x6E7 SWAP2 PUSH2 0x34C3 JUMP JUMPDEST CALLVALUE PUSH2 0x322 JUMPI PUSH1 0x40 CALLDATASIZE PUSH1 0x3 NOT ADD SLT PUSH2 0x322 JUMPI PUSH2 0x1043 PUSH2 0x3313 JUMP JUMPDEST PUSH1 0x1 PUSH1 0x1 PUSH1 0xA0 SHL SUB SWAP1 DUP2 AND PUSH0 SWAP1 DUP2 MSTORE PUSH1 0x10 PUSH1 0x20 MSTORE PUSH1 0x40 SWAP1 KECCAK256 DUP1 SLOAD PUSH1 0x24 CALLDATALOAD SWAP1 DUP2 LT ISZERO PUSH2 0x322 JUMPI PUSH2 0x682 SWAP2 PUSH2 0x35A8 JUMP JUMPDEST CALLVALUE PUSH2 0x322 JUMPI PUSH0 CALLDATASIZE PUSH1 0x3 NOT ADD SLT PUSH2 0x322 JUMPI PUSH1 0x20 PUSH1 0x1 SLOAD PUSH1 0x40 MLOAD SWAP1 DUP2 MSTORE RETURN JUMPDEST CALLVALUE PUSH2 0x322 JUMPI PUSH1 0x20 CALLDATASIZE PUSH1 0x3 NOT ADD SLT PUSH2 0x322 JUMPI PUSH2 0x10A7 PUSH2 0x3313 JUMP JUMPDEST PUSH2 0x10AF PUSH2 0x36D3 JUMP JUMPDEST PUSH1 0x1 PUSH1 0x1 PUSH1 0xA0 SHL SUB AND PUSH0 SWAP1 DUP2 MSTORE PUSH1 0x17 PUSH1 0x20 MSTORE PUSH1 0x40 SWAP1 KECCAK256 DUP1 SLOAD PUSH1 0xFF NOT AND PUSH1 0x1 OR SWAP1 SSTORE STOP JUMPDEST CALLVALUE PUSH2 0x322 JUMPI PUSH1 0x20 CALLDATASIZE PUSH1 0x3 NOT ADD SLT PUSH2 0x322 JUMPI PUSH1 0x1 PUSH1 0x1 PUSH1 0xA0 SHL SUB PUSH2 0x10F3 PUSH2 0x3313 JUMP JUMPDEST AND PUSH0 MSTORE PUSH1 0xB PUSH1 0x20 MSTORE PUSH2 0x116B PUSH1 0x40 PUSH0 KECCAK256 PUSH2 0x110B DUP2 PUSH2 0x33E3 JUMP JUMPDEST SWAP1 PUSH2 0x1118 PUSH1 0x1 DUP3 ADD PUSH2 0x33E3 JUMP JUMPDEST PUSH2 0x11A3 PUSH2 0x1127 PUSH1 0x2 DUP5 ADD PUSH2 0x33E3 JUMP JUMPDEST PUSH2 0x1195 PUSH2 0x1136 PUSH1 0x3 DUP7 ADD PUSH2 0x33E3 JUMP JUMPDEST PUSH2 0x1187 PUSH2 0x1145 PUSH1 0x4 DUP9 ADD PUSH2 0x33E3 JUMP JUMPDEST SWAP4 PUSH2 0x1179 PUSH1 0x6 PUSH1 0xFF PUSH1 0x5 DUP12 ADD SLOAD AND SWAP10 ADD SLOAD SWAP8 PUSH1 0x40 MLOAD SWAP12 DUP13 SWAP12 PUSH1 0xE0 DUP14 MSTORE PUSH1 0xE0 DUP14 ADD SWAP1 PUSH2 0x3485 JUMP JUMPDEST SWAP1 DUP12 DUP3 SUB PUSH1 0x20 DUP14 ADD MSTORE PUSH2 0x3485 JUMP JUMPDEST SWAP1 DUP10 DUP3 SUB PUSH1 0x40 DUP12 ADD MSTORE PUSH2 0x3485 JUMP JUMPDEST SWAP1 DUP8 DUP3 SUB PUSH1 0x60 DUP10 ADD MSTORE PUSH2 0x3485 JUMP JUMPDEST SWAP1 DUP6 DUP3 SUB PUSH1 0x80 DUP8 ADD MSTORE PUSH2 0x3485 JUMP JUMPDEST SWAP2 ISZERO ISZERO PUSH1 0xA0 DUP5 ADD MSTORE PUSH1 0xC0 DUP4 ADD MSTORE SUB SWAP1 RETURN JUMPDEST CALLVALUE PUSH2 0x322 JUMPI PUSH0 CALLDATASIZE PUSH1 0x3 NOT ADD SLT PUSH2 0x322 JUMPI PUSH0 SLOAD PUSH1 0x40 MLOAD PUSH1 0x1 PUSH1 0x1 PUSH1 0xA0 SHL SUB SWAP1 SWAP2 AND DUP2 MSTORE PUSH1 0x20 SWAP1 RETURN JUMPDEST CALLVALUE PUSH2 0x322 JUMPI PUSH0 CALLDATASIZE PUSH1 0x3 NOT ADD SLT PUSH2 0x322 JUMPI CALLER PUSH0 MSTORE PUSH1 0x17 PUSH1 0x20 MSTORE PUSH1 0xFF PUSH1 0x40 PUSH0 KECCAK256 SLOAD AND DUP1 ISZERO PUSH2 0x1224 JUMPI JUMPDEST PUSH2 0x120B SWAP1 PUSH2 0x35D7 JUMP JUMPDEST PUSH1 0x20 PUSH2 0x1218 PUSH1 0x2 SLOAD PUSH2 0x3625 JUMP JUMPDEST DUP1 PUSH1 0x2 SSTORE PUSH1 0x40 MLOAD SWAP1 DUP2 MSTORE RETURN JUMPDEST POP PUSH0 SLOAD PUSH1 0x1 PUSH1 0x1 PUSH1 0xA0 SHL SUB AND CALLER EQ PUSH2 0x1202 JUMP JUMPDEST CALLVALUE PUSH2 0x322 JUMPI PUSH1 0x20 DUP1 PUSH1 0x3 NOT CALLDATASIZE ADD SLT PUSH2 0x322 JUMPI PUSH1 0x1 PUSH1 0x1 PUSH1 0xA0 SHL SUB SWAP1 DUP2 PUSH2 0x125B PUSH2 0x3313 JUMP JUMPDEST AND PUSH0 MSTORE PUSH1 0x10 DUP2 MSTORE PUSH1 0x40 PUSH0 KECCAK256 DUP1 SLOAD SWAP1 PUSH2 0x1272 DUP3 PUSH2 0x3633 JUMP JUMPDEST SWAP3 PUSH2 0x1280 PUSH1 0x40 MLOAD SWAP5 DUP6 PUSH2 0x32F0 JUMP JUMPDEST DUP3 DUP5 MSTORE PUSH0 SWAP2 DUP3 MSTORE DUP1 DUP3 KECCAK256 DUP2 DUP6 ADD JUMPDEST DUP5 DUP5 LT PUSH2 0x12A3 JUMPI PUSH1 0x40 MLOAD DUP1 PUSH2 0x6E7 DUP9 DUP3 PUSH2 0x3528 JUMP JUMPDEST PUSH1 0x6 DUP4 PUSH1 0x1 SWAP3 PUSH1 0x40 MLOAD PUSH2 0x12B5 DUP2 PUSH2 0x329F JUMP JUMPDEST DUP6 SLOAD DUP2 MSTORE DUP11 DUP6 DUP8 ADD SLOAD AND DUP4 DUP3 ADD MSTORE DUP11 PUSH1 0x2 DUP8 ADD SLOAD AND PUSH1 0x40 DUP3 ADD MSTORE PUSH1 0x3 DUP7 ADD SLOAD PUSH1 0x60 DUP3 ADD MSTORE PUSH1 0x4 DUP7 ADD SLOAD PUSH1 0x80 DUP3 ADD MSTORE PUSH1 0xFF PUSH1 0x5 DUP8 ADD SLOAD AND ISZERO ISZERO PUSH1 0xA0 DUP3 ADD MSTORE DUP2 MSTORE ADD SWAP3 ADD SWAP4 ADD SWAP3 SWAP1 PUSH2 0x128E JUMP JUMPDEST CALLVALUE PUSH2 0x322 JUMPI PUSH1 0x3 NOT PUSH1 0x40 CALLDATASIZE DUP3 ADD SLT PUSH2 0x322 JUMPI PUSH1 0x24 CALLDATALOAD SWAP1 PUSH1 0x1 PUSH1 0x1 PUSH1 0x40 SHL SUB SWAP1 DUP2 DUP4 GT PUSH2 0x322 JUMPI PUSH1 0xC0 SWAP1 DUP4 CALLDATASIZE SUB ADD SLT PUSH2 0x322 JUMPI PUSH1 0x40 MLOAD SWAP2 PUSH2 0x133F DUP4 PUSH2 0x329F JUMP JUMPDEST DUP1 PUSH1 0x4 ADD CALLDATALOAD DUP4 MSTORE PUSH2 0x1352 PUSH1 0x24 DUP3 ADD PUSH2 0x3329 JUMP JUMPDEST SWAP2 PUSH1 0x20 SWAP3 DUP4 DUP6 ADD SWAP1 DUP2 MSTORE PUSH1 0x40 DUP6 ADD SWAP2 PUSH1 0x44 DUP5 ADD CALLDATALOAD DUP4 MSTORE PUSH1 0x64 DUP5 ADD CALLDATALOAD DUP2 DUP2 GT PUSH2 0x322 JUMPI PUSH2 0x1384 SWAP1 PUSH1 0x4 CALLDATASIZE SWAP2 DUP8 ADD ADD PUSH2 0x3358 JUMP JUMPDEST SWAP2 PUSH1 0x60 DUP8 ADD SWAP3 DUP4 MSTORE PUSH2 0x1398 PUSH1 0x84 DUP7 ADD PUSH2 0x339E JUMP JUMPDEST SWAP4 PUSH1 0x80 DUP9 ADD SWAP5 DUP6 MSTORE PUSH1 0xA4 PUSH1 0xA0 DUP10 ADD SWAP7 ADD CALLDATALOAD DUP7 MSTORE CALLER PUSH0 MSTORE PUSH1 0x17 DUP8 MSTORE PUSH1 0xFF PUSH1 0x40 PUSH0 KECCAK256 SLOAD AND DUP1 ISZERO PUSH2 0x1566 JUMPI JUMPDEST PUSH2 0x13CA SWAP1 PUSH2 0x35D7 JUMP JUMPDEST PUSH1 0x4 CALLDATALOAD PUSH0 MSTORE PUSH1 0x12 DUP8 MSTORE PUSH1 0x40 PUSH0 KECCAK256 SWAP2 DUP3 SLOAD PUSH1 0x1 PUSH1 0x40 SHL DUP2 LT ISZERO PUSH2 0xE79 JUMPI PUSH2 0x13F7 SWAP1 PUSH1 0x1 SWAP5 DUP6 DUP3 ADD DUP2 SSTORE PUSH2 0x35A8 JUMP JUMPDEST SWAP10 SWAP1 SWAP10 PUSH2 0x1553 JUMPI MLOAD DUP10 SSTORE MLOAD DUP3 DUP10 ADD DUP1 SLOAD PUSH1 0x1 PUSH1 0x1 PUSH1 0xA0 SHL SUB NOT AND PUSH1 0x1 PUSH1 0x1 PUSH1 0xA0 SHL SUB SWAP3 SWAP1 SWAP3 AND SWAP2 SWAP1 SWAP2 OR SWAP1 SSTORE MLOAD PUSH1 0x2 DUP9 ADD SSTORE SWAP2 MLOAD DUP1 MLOAD SWAP1 SWAP6 PUSH1 0x3 DUP9 ADD SWAP4 SWAP2 SWAP3 DUP4 GT PUSH2 0xE79 JUMPI PUSH2 0x1446 DUP5 SLOAD PUSH2 0x33AB JUMP JUMPDEST PUSH1 0x1F DUP2 GT PUSH2 0x150D JUMPI JUMPDEST POP DUP1 PUSH1 0x1F DUP5 GT PUSH1 0x1 EQ PUSH2 0x149F JUMPI POP SWAP2 DUP1 DUP1 SWAP3 PUSH2 0x148E SWAP7 SWAP6 SWAP5 PUSH1 0x5 SWAP10 PUSH0 SWAP5 PUSH2 0x1494 JUMPI JUMPDEST POP POP SHL SWAP2 PUSH0 NOT SWAP1 PUSH1 0x3 SHL SHR NOT AND OR SWAP1 SSTORE JUMPDEST MLOAD ISZERO ISZERO PUSH1 0x4 DUP6 ADD PUSH2 0x3614 JUMP JUMPDEST MLOAD SWAP2 ADD SSTORE STOP JUMPDEST ADD MLOAD SWAP3 POP DUP11 DUP1 PUSH2 0x1471 JUMP JUMPDEST SWAP2 SWAP4 SWAP5 SWAP6 SWAP7 PUSH1 0x1F NOT DUP5 AND DUP7 PUSH0 MSTORE DUP4 PUSH0 KECCAK256 SWAP4 PUSH0 SWAP1 JUMPDEST DUP3 DUP3 LT PUSH2 0x14F6 JUMPI POP POP SWAP2 PUSH1 0x5 SWAP9 SWAP8 SWAP6 SWAP4 SWAP2 DUP6 PUSH2 0x148E SWAP9 SWAP7 SWAP5 LT PUSH2 0x14DE JUMPI JUMPDEST POP POP POP DUP2 SHL ADD SWAP1 SSTORE PUSH2 0x1482 JUMP JUMPDEST ADD MLOAD PUSH0 NOT PUSH1 0xF8 DUP5 PUSH1 0x3 SHL AND SHR NOT AND SWAP1 SSTORE DUP9 DUP1 DUP1 PUSH2 0x14D1 JUMP JUMPDEST DUP1 DUP9 DUP7 SWAP8 DUP3 SWAP5 SWAP8 DUP8 ADD MLOAD DUP2 SSTORE ADD SWAP7 ADD SWAP5 ADD SWAP1 PUSH2 0x14B3 JUMP JUMPDEST DUP5 PUSH0 MSTORE DUP2 PUSH0 KECCAK256 PUSH1 0x1F DUP6 ADD PUSH1 0x5 SHR DUP2 ADD SWAP2 DUP4 DUP7 LT PUSH2 0x1549 JUMPI JUMPDEST PUSH1 0x1F ADD PUSH1 0x5 SHR ADD SWAP1 DUP4 SWAP1 JUMPDEST DUP3 DUP2 LT PUSH2 0x153E JUMPI POP POP PUSH2 0x144F JUMP JUMPDEST PUSH0 DUP2 SSTORE ADD DUP4 SWAP1 PUSH2 0x1530 JUMP JUMPDEST SWAP1 SWAP2 POP DUP2 SWAP1 PUSH2 0x1525 JUMP JUMPDEST PUSH4 0x4E487B71 PUSH1 0xE0 SHL PUSH0 MSTORE PUSH0 PUSH1 0x4 MSTORE PUSH1 0x24 PUSH0 REVERT JUMPDEST POP PUSH0 SLOAD PUSH1 0x1 PUSH1 0x1 PUSH1 0xA0 SHL SUB AND CALLER EQ PUSH2 0x13C1 JUMP JUMPDEST CALLVALUE PUSH2 0x322 JUMPI PUSH1 0x20 CALLDATASIZE PUSH1 0x3 NOT ADD SLT PUSH2 0x322 JUMPI PUSH1 0x4 CALLDATALOAD PUSH0 MSTORE PUSH1 0x6 PUSH1 0x20 MSTORE PUSH1 0x40 PUSH0 KECCAK256 PUSH1 0x40 DUP2 SLOAD SWAP2 PUSH1 0x1 DUP1 PUSH1 0xA0 SHL SUB PUSH1 0x1 DUP3 ADD SLOAD AND PUSH2 0x15B6 PUSH1 0x2 DUP4 ADD PUSH2 0x33E3 JUMP JUMPDEST SWAP2 PUSH2 0x15C3 PUSH1 0x3 DUP3 ADD PUSH2 0x33E3 JUMP JUMPDEST SWAP3 PUSH2 0x15D0 PUSH1 0x4 DUP4 ADD PUSH2 0x33E3 JUMP JUMPDEST SWAP4 PUSH2 0x1633 PUSH1 0x5 DUP5 ADD SLOAD SWAP6 PUSH2 0x1625 PUSH1 0x6 DUP7 ADD SLOAD SWAP4 PUSH2 0x1617 PUSH1 0x7 DUP9 ADD SLOAD SWAP7 PUSH1 0xFF PUSH1 0x9 PUSH1 0x8 DUP12 ADD SLOAD SWAP11 ADD SLOAD AND SWAP10 DUP13 MLOAD SWAP14 DUP15 SWAP14 DUP15 PUSH2 0x140 SWAP4 DUP5 SWAP4 DUP3 MSTORE PUSH1 0x20 DUP3 ADD MSTORE ADD MSTORE DUP13 ADD SWAP1 PUSH2 0x3485 JUMP JUMPDEST SWAP1 DUP11 DUP3 SUB PUSH1 0x60 DUP13 ADD MSTORE PUSH2 0x3485 JUMP JUMPDEST SWAP1 DUP9 DUP3 SUB PUSH1 0x80 DUP11 ADD MSTORE PUSH2 0x3485 JUMP JUMPDEST SWAP5 PUSH1 0xA0 DUP8 ADD MSTORE PUSH1 0xC0 DUP7 ADD MSTORE PUSH1 0xE0 DUP6 ADD MSTORE PUSH2 0x100 DUP5 ADD MSTORE ISZERO ISZERO PUSH2 0x120 DUP4 ADD MSTORE SUB SWAP1 RETURN JUMPDEST CALLVALUE PUSH2 0x322 JUMPI PUSH0 CALLDATASIZE PUSH1 0x3 NOT ADD SLT PUSH2 0x322 JUMPI PUSH2 0x166D PUSH2 0x36D3 JUMP JUMPDEST PUSH0 DUP1 SLOAD PUSH1 0x1 PUSH1 0x1 PUSH1 0xA0 SHL SUB NOT DUP2 AND DUP3 SSTORE PUSH1 0x1 PUSH1 0x1 PUSH1 0xA0 SHL SUB AND PUSH0 DUP1 MLOAD PUSH1 0x20 PUSH2 0x374B DUP4 CODECOPY DUP2 MLOAD SWAP2 MSTORE DUP3 DUP1 LOG3 STOP JUMPDEST CALLVALUE PUSH2 0x322 JUMPI PUSH1 0x20 DUP1 PUSH1 0x3 NOT CALLDATASIZE ADD SLT PUSH2 0x322 JUMPI PUSH1 0x80 SWAP1 PUSH2 0x16B6 PUSH2 0x3313 JUMP JUMPDEST SWAP1 PUSH1 0x40 MLOAD SWAP2 PUSH2 0x16C4 DUP4 PUSH2 0x32D5 JUMP JUMPDEST PUSH0 PUSH1 0x60 DUP5 DUP2 DUP1 SWAP7 MSTORE DUP2 DUP6 DUP3 ADD MSTORE DUP2 PUSH1 0x40 DUP3 ADD MSTORE ADD MSTORE PUSH1 0x1 DUP1 PUSH1 0xA0 SHL SUB AND PUSH0 MSTORE PUSH1 0x9 DUP2 MSTORE PUSH2 0x1781 PUSH1 0x40 PUSH0 KECCAK256 PUSH1 0x40 MLOAD SWAP4 PUSH2 0x16FB DUP6 PUSH2 0x32D5 JUMP JUMPDEST PUSH2 0x1704 DUP3 PUSH2 0x33E3 JUMP JUMPDEST DUP6 MSTORE PUSH2 0x1712 PUSH1 0x1 DUP4 ADD PUSH2 0x33E3 JUMP JUMPDEST SWAP1 DUP5 DUP7 ADD SWAP2 DUP3 MSTORE PUSH2 0x1771 PUSH2 0x175B PUSH1 0xFF PUSH1 0x3 PUSH2 0x172F PUSH1 0x2 DUP9 ADD PUSH2 0x33E3 JUMP JUMPDEST SWAP7 PUSH1 0x40 DUP12 ADD SWAP8 DUP9 MSTORE ADD SLOAD AND SWAP7 DUP4 DUP10 ADD SWAP8 ISZERO ISZERO DUP9 MSTORE PUSH1 0x40 MLOAD SWAP10 DUP11 SWAP10 DUP3 DUP12 MSTORE MLOAD SWAP2 DUP11 ADD MSTORE PUSH1 0xA0 DUP10 ADD SWAP1 PUSH2 0x3485 JUMP JUMPDEST SWAP3 MLOAD SWAP3 PUSH1 0x1F NOT SWAP4 DUP5 DUP10 DUP4 SUB ADD PUSH1 0x40 DUP11 ADD MSTORE PUSH2 0x3485 JUMP JUMPDEST SWAP3 MLOAD SWAP2 DUP7 DUP5 SUB ADD SWAP1 DUP7 ADD MSTORE PUSH2 0x3485 JUMP JUMPDEST SWAP1 MLOAD ISZERO ISZERO PUSH1 0x80 DUP4 ADD MSTORE SUB SWAP1 RETURN JUMPDEST CALLVALUE PUSH2 0x322 JUMPI PUSH0 CALLDATASIZE PUSH1 0x3 NOT ADD SLT PUSH2 0x322 JUMPI PUSH1 0x40 MLOAD PUSH1 0x16 DUP1 SLOAD DUP1 DUP4 MSTORE PUSH0 SWAP2 DUP3 MSTORE PUSH1 0x20 DUP1 DUP5 ADD SWAP4 SWAP3 PUSH32 0xD833147D7DC355BA459FC788F669E58CFAF9DC25DDCD0702E87D69C7B5124289 SWAP3 SWAP2 JUMPDEST DUP3 DUP3 LT PUSH2 0x17FA JUMPI PUSH2 0x6E7 DUP6 PUSH2 0x17EE DUP2 DUP10 SUB DUP3 PUSH2 0x32F0 JUMP JUMPDEST PUSH1 0x40 MLOAD SWAP2 DUP3 SWAP2 DUP3 PUSH2 0x34E4 JUMP JUMPDEST DUP4 SLOAD PUSH1 0x1 PUSH1 0x1 PUSH1 0xA0 SHL SUB AND DUP7 MSTORE SWAP5 DUP6 ADD SWAP5 PUSH1 0x1 SWAP4 DUP5 ADD SWAP4 SWAP1 SWAP2 ADD SWAP1 PUSH2 0x17D7 JUMP JUMPDEST CALLVALUE PUSH2 0x322 JUMPI PUSH0 CALLDATASIZE PUSH1 0x3 NOT ADD SLT PUSH2 0x322 JUMPI PUSH1 0x20 PUSH1 0x2 SLOAD PUSH1 0x40 MLOAD SWAP1 DUP2 MSTORE RETURN JUMPDEST CALLVALUE PUSH2 0x322 JUMPI PUSH1 0x20 CALLDATASIZE PUSH1 0x3 NOT ADD SLT PUSH2 0x322 JUMPI PUSH1 0x1 PUSH1 0x1 PUSH1 0xA0 SHL SUB PUSH2 0x1858 PUSH2 0x3313 JUMP JUMPDEST AND PUSH0 MSTORE PUSH1 0xE PUSH1 0x20 MSTORE PUSH1 0x20 PUSH1 0x40 PUSH0 KECCAK256 SLOAD PUSH1 0x40 MLOAD SWAP1 DUP2 MSTORE RETURN JUMPDEST CALLVALUE PUSH2 0x322 JUMPI PUSH0 CALLDATASIZE PUSH1 0x3 NOT ADD SLT PUSH2 0x322 JUMPI CALLER PUSH0 MSTORE PUSH1 0x17 PUSH1 0x20 MSTORE PUSH1 0xFF PUSH1 0x40 PUSH0 KECCAK256 SLOAD AND DUP1 ISZERO PUSH2 0x18B8 JUMPI JUMPDEST PUSH2 0x189F SWAP1 PUSH2 0x35D7 JUMP JUMPDEST PUSH1 0x20 PUSH2 0x18AC PUSH1 0x3 SLOAD PUSH2 0x3625 JUMP JUMPDEST DUP1 PUSH1 0x3 SSTORE PUSH1 0x40 MLOAD SWAP1 DUP2 MSTORE RETURN JUMPDEST POP PUSH0 SLOAD PUSH1 0x1 PUSH1 0x1 PUSH1 0xA0 SHL SUB AND CALLER EQ PUSH2 0x1896 JUMP JUMPDEST CALLVALUE PUSH2 0x322 JUMPI PUSH0 CALLDATASIZE PUSH1 0x3 NOT ADD SLT PUSH2 0x322 JUMPI PUSH1 0x40 MLOAD PUSH1 0x14 DUP1 SLOAD DUP1 DUP4 MSTORE PUSH0 SWAP2 DUP3 MSTORE PUSH1 0x20 DUP1 DUP5 ADD SWAP4 SWAP3 PUSH0 DUP1 MLOAD PUSH1 0x20 PUSH2 0x376B DUP4 CODECOPY DUP2 MLOAD SWAP2 MSTORE SWAP3 SWAP2 JUMPDEST DUP3 DUP3 LT PUSH2 0x1918 JUMPI PUSH2 0x6E7 DUP6 PUSH2 0x17EE DUP2 DUP10 SUB DUP3 PUSH2 0x32F0 JUMP JUMPDEST DUP4 SLOAD PUSH1 0x1 PUSH1 0x1 PUSH1 0xA0 SHL SUB AND DUP7 MSTORE SWAP5 DUP6 ADD SWAP5 PUSH1 0x1 SWAP4 DUP5 ADD SWAP4 SWAP1 SWAP2 ADD SWAP1 PUSH2 0x1901 JUMP JUMPDEST CALLVALUE PUSH2 0x322 JUMPI PUSH1 0x3 NOT PUSH1 0x40 CALLDATASIZE DUP3 ADD SLT PUSH2 0x322 JUMPI PUSH2 0x1952 PUSH2 0x3313 JUMP JUMPDEST SWAP1 PUSH1 0x24 CALLDATALOAD SWAP1 PUSH1 0x1 PUSH1 0x1 PUSH1 0x40 SHL SUB DUP3 GT PUSH2 0x322 JUMPI PUSH1 0x80 SWAP1 DUP3 CALLDATASIZE SUB ADD SLT PUSH2 0x322 JUMPI PUSH1 0x40 MLOAD SWAP2 PUSH2 0x197E DUP4 PUSH2 0x32D5 JUMP JUMPDEST PUSH1 0x4 DUP3 ADD CALLDATALOAD PUSH1 0x1 PUSH1 0x1 PUSH1 0x40 SHL SUB DUP2 GT PUSH2 0x322 JUMPI PUSH2 0x19A1 SWAP1 PUSH1 0x4 CALLDATASIZE SWAP2 DUP6 ADD ADD PUSH2 0x3358 JUMP JUMPDEST DUP4 MSTORE PUSH1 0x24 DUP3 ADD CALLDATALOAD PUSH1 0x1 PUSH1 0x1 PUSH1 0x40 SHL SUB DUP2 GT PUSH2 0x322 JUMPI PUSH2 0x19C6 SWAP1 PUSH1 0x4 CALLDATASIZE SWAP2 DUP6 ADD ADD PUSH2 0x3358 JUMP JUMPDEST PUSH1 0x20 DUP5 ADD SWAP1 DUP2 MSTORE SWAP2 PUSH1 0x44 DUP2 ADD CALLDATALOAD PUSH1 0x1 PUSH1 0x1 PUSH1 0x40 SHL SUB DUP2 GT PUSH2 0x322 JUMPI PUSH2 0x1A02 SWAP2 PUSH2 0x19F7 PUSH1 0x64 SWAP3 PUSH1 0x4 CALLDATASIZE SWAP2 DUP5 ADD ADD PUSH2 0x3358 JUMP JUMPDEST PUSH1 0x40 DUP8 ADD MSTORE ADD PUSH2 0x339E JUMP JUMPDEST PUSH1 0x60 DUP5 ADD MSTORE CALLER PUSH0 MSTORE PUSH1 0x17 PUSH1 0x20 MSTORE PUSH1 0xFF PUSH1 0x40 PUSH0 KECCAK256 SLOAD AND DUP1 ISZERO PUSH2 0x1E11 JUMPI JUMPDEST PUSH2 0x1A27 SWAP1 PUSH2 0x35D7 JUMP JUMPDEST PUSH1 0x1 PUSH1 0x1 PUSH1 0xA0 SHL SUB AND PUSH0 DUP2 DUP2 MSTORE PUSH1 0x9 PUSH1 0x20 MSTORE PUSH1 0x40 SWAP1 KECCAK256 DUP4 MLOAD DUP1 MLOAD SWAP3 SWAP4 SWAP2 SWAP3 SWAP1 PUSH1 0x1 PUSH1 0x1 PUSH1 0x40 SHL SUB DUP3 GT PUSH2 0xE79 JUMPI DUP2 SWAP1 PUSH2 0x1A60 DUP6 SLOAD PUSH2 0x33AB JUMP JUMPDEST PUSH1 0x1F DUP2 GT PUSH2 0x1DC1 JUMPI JUMPDEST POP PUSH1 0x20 SWAP1 PUSH1 0x1F DUP4 GT PUSH1 0x1 EQ PUSH2 0x1D5D JUMPI PUSH0 SWAP3 PUSH2 0x1D52 JUMPI JUMPDEST POP POP DUP2 PUSH1 0x1 SHL SWAP2 PUSH0 NOT SWAP1 PUSH1 0x3 SHL SHR NOT AND OR DUP3 SSTORE JUMPDEST MLOAD DUP1 MLOAD SWAP1 SWAP4 SWAP1 PUSH1 0x1 PUSH1 0x1 PUSH1 0x40 SHL SUB DUP2 GT PUSH2 0xE79 JUMPI PUSH2 0x1AB4 PUSH1 0x1 DUP5 ADD SLOAD PUSH2 0x33AB JUMP JUMPDEST PUSH1 0x1F DUP2 GT PUSH2 0x1D0A JUMPI JUMPDEST POP PUSH1 0x20 PUSH1 0x1F DUP3 GT PUSH1 0x1 EQ PUSH2 0x1C9F JUMPI DUP2 SWAP3 SWAP4 SWAP5 SWAP6 PUSH0 SWAP3 PUSH2 0x1C94 JUMPI JUMPDEST POP POP DUP2 PUSH1 0x1 SHL SWAP2 PUSH0 NOT SWAP1 PUSH1 0x3 SHL SHR NOT AND OR PUSH1 0x1 DUP4 ADD SSTORE JUMPDEST PUSH1 0x40 DUP2 ADD MLOAD DUP1 MLOAD PUSH1 0x2 DUP5 ADD SWAP2 PUSH1 0x1 PUSH1 0x1 PUSH1 0x40 SHL SUB DUP3 GT PUSH2 0xE79 JUMPI PUSH2 0x1B12 DUP4 SLOAD PUSH2 0x33AB JUMP JUMPDEST PUSH1 0x1F DUP2 GT PUSH2 0x1C4F JUMPI JUMPDEST POP PUSH1 0x20 SWAP1 PUSH1 0x1F DUP4 GT PUSH1 0x1 EQ PUSH2 0x1BE2 JUMPI SWAP3 DUP3 PUSH1 0x60 SWAP4 PUSH2 0x1B5D SWAP8 SWAP7 SWAP4 PUSH1 0x3 SWAP7 PUSH0 SWAP3 PUSH2 0x1BD7 JUMPI JUMPDEST POP POP DUP2 PUSH1 0x1 SHL SWAP2 PUSH0 NOT SWAP1 DUP8 SHL SHR NOT AND OR SWAP1 SSTORE JUMPDEST ADD MLOAD ISZERO ISZERO SWAP2 ADD PUSH2 0x3614 JUMP JUMPDEST DUP1 PUSH0 MSTORE PUSH1 0xA PUSH1 0x20 MSTORE PUSH1 0x40 PUSH0 KECCAK256 DUP1 SLOAD PUSH1 0xFF DUP2 AND ISZERO PUSH2 0x1B76 JUMPI STOP JUMPDEST PUSH1 0xFF NOT AND PUSH1 0x1 OR SWAP1 SSTORE PUSH1 0x15 SLOAD PUSH1 0x1 PUSH1 0x40 SHL DUP2 LT ISZERO PUSH2 0xE79 JUMPI PUSH1 0x1 DUP2 ADD DUP1 PUSH1 0x15 SSTORE DUP2 LT ISZERO PUSH2 0x1BC3 JUMPI PUSH1 0x15 PUSH0 MSTORE PUSH0 DUP1 MLOAD PUSH1 0x20 PUSH2 0x372B DUP4 CODECOPY DUP2 MLOAD SWAP2 MSTORE ADD DUP1 SLOAD PUSH1 0x1 PUSH1 0x1 PUSH1 0xA0 SHL SUB NOT AND SWAP1 SWAP2 OR SWAP1 SSTORE STOP JUMPDEST PUSH4 0x4E487B71 PUSH1 0xE0 SHL PUSH0 MSTORE PUSH1 0x32 PUSH1 0x4 MSTORE PUSH1 0x24 PUSH0 REVERT JUMPDEST ADD MLOAD SWAP1 POP DUP10 DUP1 PUSH2 0x1B3F JUMP JUMPDEST SWAP1 PUSH1 0x1F NOT DUP4 AND SWAP2 DUP5 PUSH0 MSTORE PUSH1 0x20 PUSH0 KECCAK256 SWAP3 PUSH0 JUMPDEST DUP2 DUP2 LT PUSH2 0x1C37 JUMPI POP SWAP4 PUSH2 0x1B5D SWAP8 SWAP7 SWAP4 PUSH1 0x3 SWAP7 SWAP4 PUSH1 0x1 SWAP4 DUP4 PUSH1 0x60 SWAP9 LT PUSH2 0x1C20 JUMPI JUMPDEST POP POP POP DUP2 SHL ADD SWAP1 SSTORE PUSH2 0x1B52 JUMP JUMPDEST ADD MLOAD PUSH0 NOT DUP4 DUP10 SHL PUSH1 0xF8 AND SHR NOT AND SWAP1 SSTORE DUP10 DUP1 DUP1 PUSH2 0x1C13 JUMP JUMPDEST SWAP3 SWAP4 PUSH1 0x20 PUSH1 0x1 DUP2 SWAP3 DUP8 DUP7 ADD MLOAD DUP2 SSTORE ADD SWAP6 ADD SWAP4 ADD PUSH2 0x1BF3 JUMP JUMPDEST DUP4 PUSH0 MSTORE PUSH1 0x20 PUSH0 KECCAK256 PUSH1 0x1F DUP5 ADD PUSH1 0x5 SHR DUP2 ADD SWAP2 PUSH1 0x20 DUP6 LT PUSH2 0x1C8A JUMPI JUMPDEST PUSH1 0x1F ADD PUSH1 0x5 SHR ADD SWAP1 JUMPDEST DUP2 DUP2 LT PUSH2 0x1C7F JUMPI POP PUSH2 0x1B1B JUMP JUMPDEST PUSH0 DUP2 SSTORE PUSH1 0x1 ADD PUSH2 0x1C72 JUMP JUMPDEST SWAP1 SWAP2 POP DUP2 SWAP1 PUSH2 0x1C69 JUMP JUMPDEST ADD MLOAD SWAP1 POP DUP6 DUP1 PUSH2 0x1AD7 JUMP JUMPDEST PUSH1 0x1 DUP5 ADD PUSH0 MSTORE PUSH1 0x20 PUSH0 KECCAK256 SWAP1 PUSH0 JUMPDEST PUSH1 0x1F NOT DUP5 AND DUP2 LT PUSH2 0x1CF2 JUMPI POP PUSH1 0x1 SWAP4 SWAP5 SWAP6 SWAP7 DUP4 PUSH1 0x1F NOT DUP2 AND LT PUSH2 0x1CDA JUMPI JUMPDEST POP POP POP DUP2 SHL ADD PUSH1 0x1 DUP4 ADD SSTORE PUSH2 0x1AEE JUMP JUMPDEST ADD MLOAD PUSH0 NOT PUSH1 0xF8 DUP5 PUSH1 0x3 SHL AND SHR NOT AND SWAP1 SSTORE DUP6 DUP1 DUP1 PUSH2 0x1CCA JUMP JUMPDEST SWAP1 SWAP2 PUSH1 0x20 PUSH1 0x1 DUP2 SWAP3 DUP6 DUP12 ADD MLOAD DUP2 SSTORE ADD SWAP4 ADD SWAP2 ADD PUSH2 0x1CAC JUMP JUMPDEST PUSH1 0x1 DUP5 ADD PUSH0 MSTORE PUSH1 0x20 PUSH0 KECCAK256 PUSH1 0x1F DUP4 ADD PUSH1 0x5 SHR DUP2 ADD SWAP2 PUSH1 0x20 DUP5 LT PUSH2 0x1D48 JUMPI JUMPDEST PUSH1 0x1F ADD PUSH1 0x5 SHR ADD SWAP1 JUMPDEST DUP2 DUP2 LT PUSH2 0x1D3D JUMPI POP PUSH2 0x1ABD JUMP JUMPDEST PUSH0 DUP2 SSTORE PUSH1 0x1 ADD PUSH2 0x1D30 JUMP JUMPDEST SWAP1 SWAP2 POP DUP2 SWAP1 PUSH2 0x1D27 JUMP JUMPDEST ADD MLOAD SWAP1 POP DUP7 DUP1 PUSH2 0x1A7F JUMP JUMPDEST PUSH0 DUP7 DUP2 MSTORE PUSH1 0x20 DUP2 KECCAK256 SWAP4 POP PUSH1 0x1F NOT DUP6 AND SWAP1 JUMPDEST DUP2 DUP2 LT PUSH2 0x1DA9 JUMPI POP SWAP1 DUP5 PUSH1 0x1 SWAP6 SWAP5 SWAP4 SWAP3 LT PUSH2 0x1D91 JUMPI JUMPDEST POP POP POP DUP2 SHL ADD DUP3 SSTORE PUSH2 0x1A93 JUMP JUMPDEST ADD MLOAD PUSH0 NOT PUSH1 0xF8 DUP5 PUSH1 0x3 SHL AND SHR NOT AND SWAP1 SSTORE DUP7 DUP1 DUP1 PUSH2 0x1D84 JUMP JUMPDEST SWAP3 SWAP4 PUSH1 0x20 PUSH1 0x1 DUP2 SWAP3 DUP8 DUP7 ADD MLOAD DUP2 SSTORE ADD SWAP6 ADD SWAP4 ADD PUSH2 0x1D6E JUMP JUMPDEST SWAP1 SWAP2 POP DUP5 PUSH0 MSTORE PUSH1 0x20 PUSH0 KECCAK256 PUSH1 0x1F DUP5 ADD PUSH1 0x5 SHR DUP2 ADD SWAP2 PUSH1 0x20 DUP6 LT PUSH2 0x1E07 JUMPI JUMPDEST SWAP1 PUSH1 0x1F DUP6 SWAP5 SWAP4 SWAP3 ADD PUSH1 0x5 SHR ADD SWAP1 JUMPDEST DUP2 DUP2 LT PUSH2 0x1DF9 JUMPI POP PUSH2 0x1A69 JUMP JUMPDEST PUSH0 DUP2 SSTORE DUP5 SWAP4 POP PUSH1 0x1 ADD PUSH2 0x1DEC JUMP JUMPDEST SWAP1 SWAP2 POP DUP2 SWAP1 PUSH2 0x1DDE JUMP JUMPDEST POP PUSH0 SLOAD PUSH1 0x1 PUSH1 0x1 PUSH1 0xA0 SHL SUB AND CALLER EQ PUSH2 0x1A1E JUMP JUMPDEST CALLVALUE PUSH2 0x322 JUMPI PUSH1 0x20 CALLDATASIZE PUSH1 0x3 NOT ADD SLT PUSH2 0x322 JUMPI PUSH1 0x4 CALLDATALOAD PUSH0 MSTORE PUSH1 0x13 PUSH1 0x20 MSTORE PUSH1 0x20 PUSH1 0x40 PUSH0 KECCAK256 SLOAD PUSH1 0x40 MLOAD SWAP1 DUP2 MSTORE RETURN JUMPDEST CALLVALUE PUSH2 0x322 JUMPI PUSH1 0x3 NOT PUSH1 0x40 CALLDATASIZE DUP3 ADD SLT PUSH2 0x322 JUMPI PUSH2 0x1E68 PUSH2 0x3313 JUMP JUMPDEST SWAP1 PUSH1 0x24 CALLDATALOAD SWAP1 PUSH1 0x1 PUSH1 0x1 PUSH1 0x40 SHL SUB DUP3 GT PUSH2 0x322 JUMPI PUSH1 0xE0 SWAP1 DUP3 CALLDATASIZE SUB ADD SLT PUSH2 0x322 JUMPI PUSH1 0x40 MLOAD SWAP2 PUSH2 0x1E94 DUP4 PUSH2 0x32BA JUMP JUMPDEST PUSH1 0x4 DUP3 ADD CALLDATALOAD PUSH1 0x1 PUSH1 0x1 PUSH1 0x40 SHL SUB DUP2 GT PUSH2 0x322 JUMPI PUSH2 0x1EB7 SWAP1 PUSH1 0x4 CALLDATASIZE SWAP2 DUP6 ADD ADD PUSH2 0x3358 JUMP JUMPDEST DUP4 MSTORE PUSH1 0x24 DUP3 ADD CALLDATALOAD PUSH1 0x1 PUSH1 0x1 PUSH1 0x40 SHL SUB DUP2 GT PUSH2 0x322 JUMPI PUSH2 0x1EDC SWAP1 PUSH1 0x4 CALLDATASIZE SWAP2 DUP6 ADD ADD PUSH2 0x3358 JUMP JUMPDEST PUSH1 0x20 DUP5 ADD SWAP1 DUP2 MSTORE SWAP2 PUSH1 0x44 DUP2 ADD CALLDATALOAD PUSH1 0x1 PUSH1 0x1 PUSH1 0x40 SHL SUB DUP2 GT PUSH2 0x322 JUMPI PUSH2 0x1F07 SWAP1 PUSH1 0x4 CALLDATASIZE SWAP2 DUP5 ADD ADD PUSH2 0x3358 JUMP JUMPDEST PUSH1 0x40 DUP6 ADD MSTORE PUSH1 0x64 DUP2 ADD CALLDATALOAD PUSH1 0x1 PUSH1 0x1 PUSH1 0x40 SHL SUB DUP2 GT PUSH2 0x322 JUMPI PUSH2 0x1F2F SWAP1 PUSH1 0x4 CALLDATASIZE SWAP2 DUP5 ADD ADD PUSH2 0x3358 JUMP JUMPDEST PUSH1 0x60 DUP6 ADD MSTORE PUSH1 0x84 DUP2 ADD CALLDATALOAD SWAP1 PUSH1 0x1 PUSH1 0x1 PUSH1 0x40 SHL SUB DUP3 GT PUSH2 0x322 JUMPI PUSH2 0x1F5A PUSH1 0xC4 SWAP3 PUSH1 0x4 CALLDATASIZE SWAP2 DUP5 ADD ADD PUSH2 0x3358 JUMP JUMPDEST PUSH1 0x80 DUP7 ADD MSTORE PUSH2 0x1F6B PUSH1 0xA4 DUP3 ADD PUSH2 0x339E JUMP JUMPDEST PUSH1 0xA0 DUP7 ADD MSTORE ADD CALLDATALOAD PUSH1 0xC0 DUP5 ADD MSTORE CALLER PUSH0 MSTORE PUSH1 0x17 PUSH1 0x20 MSTORE PUSH1 0xFF PUSH1 0x40 PUSH0 KECCAK256 SLOAD AND DUP1 ISZERO PUSH2 0x25AC JUMPI JUMPDEST PUSH2 0x1F97 SWAP1 PUSH2 0x35D7 JUMP JUMPDEST PUSH1 0x1 PUSH1 0x1 PUSH1 0xA0 SHL SUB AND PUSH0 DUP2 DUP2 MSTORE PUSH1 0xB PUSH1 0x20 MSTORE PUSH1 0x40 SWAP1 KECCAK256 DUP4 MLOAD DUP1 MLOAD SWAP3 SWAP5 SWAP2 SWAP4 SWAP2 SWAP3 SWAP1 PUSH1 0x1 PUSH1 0x1 PUSH1 0x40 SHL SUB DUP3 GT PUSH2 0xE79 JUMPI DUP2 SWAP1 PUSH2 0x1FD2 DUP7 SLOAD PUSH2 0x33AB JUMP JUMPDEST PUSH1 0x1F DUP2 GT PUSH2 0x255C JUMPI JUMPDEST POP PUSH1 0x20 SWAP1 PUSH1 0x1F DUP4 GT PUSH1 0x1 EQ PUSH2 0x24F4 JUMPI PUSH0 SWAP3 PUSH2 0x24E9 JUMPI JUMPDEST POP POP DUP2 PUSH1 0x1 SHL SWAP2 PUSH0 NOT SWAP1 PUSH1 0x3 SHL SHR NOT AND OR DUP4 SSTORE JUMPDEST MLOAD DUP1 MLOAD SWAP1 SWAP4 SWAP1 PUSH1 0x1 PUSH1 0x1 PUSH1 0x40 SHL SUB DUP2 GT PUSH2 0xE79 JUMPI PUSH2 0x2026 PUSH1 0x1 DUP6 ADD SLOAD PUSH2 0x33AB JUMP JUMPDEST PUSH1 0x1F DUP2 GT PUSH2 0x24A5 JUMPI JUMPDEST POP PUSH1 0x20 PUSH1 0x1F DUP3 GT PUSH1 0x1 EQ PUSH2 0x243A JUMPI DUP2 SWAP3 SWAP4 SWAP5 SWAP6 PUSH0 SWAP3 PUSH2 0x242F JUMPI JUMPDEST POP POP DUP2 PUSH1 0x1 SHL SWAP2 PUSH0 NOT SWAP1 PUSH1 0x3 SHL SHR NOT AND OR PUSH1 0x1 DUP5 ADD SSTORE JUMPDEST PUSH1 0x40 DUP3 ADD MLOAD DUP1 MLOAD SWAP1 SWAP4 SWAP1 PUSH1 0x1 PUSH1 0x1 PUSH1 0x40 SHL SUB DUP2 GT PUSH2 0xE79 JUMPI PUSH2 0x2085 PUSH1 0x2 DUP4 ADD SLOAD PUSH2 0x33AB JUMP JUMPDEST PUSH1 0x1F DUP2 GT PUSH2 0x23EB JUMPI JUMPDEST POP PUSH1 0x20 PUSH1 0x1F DUP3 GT PUSH1 0x1 EQ PUSH2 0x2380 JUMPI DUP2 SWAP3 SWAP4 SWAP5 SWAP6 PUSH0 SWAP3 PUSH2 0x2375 JUMPI JUMPDEST POP POP DUP2 PUSH1 0x1 SHL SWAP2 PUSH0 NOT SWAP1 PUSH1 0x3 SHL SHR NOT AND OR PUSH1 0x2 DUP3 ADD SSTORE JUMPDEST PUSH1 0x60 DUP4 ADD MLOAD DUP1 MLOAD SWAP1 SWAP4 SWAP1 PUSH1 0x1 PUSH1 0x1 PUSH1 0x40 SHL SUB DUP2 GT PUSH2 0xE79 JUMPI PUSH2 0x20E4 PUSH1 0x3 DUP5 ADD SLOAD PUSH2 0x33AB JUMP JUMPDEST PUSH1 0x1F DUP2 GT PUSH2 0x232D JUMPI JUMPDEST POP PUSH1 0x20 PUSH1 0x1F DUP3 GT PUSH1 0x1 EQ PUSH2 0x22C2 JUMPI DUP2 SWAP3 SWAP4 SWAP5 SWAP6 PUSH0 SWAP3 PUSH2 0x22B7 JUMPI JUMPDEST POP POP DUP2 PUSH1 0x1 SHL SWAP2 PUSH0 NOT SWAP1 PUSH1 0x3 SHL SHR NOT AND OR PUSH1 0x3 DUP4 ADD SSTORE JUMPDEST PUSH1 0x80 DUP2 ADD MLOAD DUP1 MLOAD PUSH1 0x4 DUP5 ADD SWAP2 PUSH1 0x1 PUSH1 0x1 PUSH1 0x40 SHL SUB DUP3 GT PUSH2 0xE79 JUMPI PUSH2 0x2142 DUP4 SLOAD PUSH2 0x33AB JUMP JUMPDEST PUSH1 0x1F DUP2 GT PUSH2 0x2272 JUMPI JUMPDEST POP PUSH1 0x20 SWAP1 PUSH1 0x1F DUP4 GT PUSH1 0x1 EQ PUSH2 0x2208 JUMPI SWAP2 DUP1 PUSH1 0xC0 SWAP5 SWAP3 PUSH1 0x6 SWAP7 SWAP5 PUSH0 SWAP3 PUSH2 0x21FD JUMPI JUMPDEST POP POP DUP2 PUSH1 0x1 SHL SWAP2 PUSH0 NOT SWAP1 PUSH1 0x3 SHL SHR NOT AND OR SWAP1 SSTORE JUMPDEST PUSH2 0x2192 PUSH1 0xA0 DUP3 ADD MLOAD ISZERO ISZERO PUSH1 0x5 DUP7 ADD PUSH2 0x3614 JUMP JUMPDEST ADD MLOAD SWAP2 ADD SSTORE DUP1 PUSH0 MSTORE PUSH1 0xC PUSH1 0x20 MSTORE PUSH1 0x40 PUSH0 KECCAK256 DUP1 SLOAD PUSH1 0xFF DUP2 AND ISZERO PUSH2 0x21B0 JUMPI STOP JUMPDEST PUSH1 0xFF NOT AND PUSH1 0x1 OR SWAP1 SSTORE PUSH1 0x14 SLOAD PUSH1 0x1 PUSH1 0x40 SHL DUP2 LT ISZERO PUSH2 0xE79 JUMPI PUSH1 0x1 DUP2 ADD DUP1 PUSH1 0x14 SSTORE DUP2 LT ISZERO PUSH2 0x1BC3 JUMPI PUSH1 0x14 PUSH0 MSTORE PUSH0 DUP1 MLOAD PUSH1 0x20 PUSH2 0x376B DUP4 CODECOPY DUP2 MLOAD SWAP2 MSTORE ADD DUP1 SLOAD PUSH1 0x1 PUSH1 0x1 PUSH1 0xA0 SHL SUB NOT AND SWAP1 SWAP2 OR SWAP1 SSTORE STOP JUMPDEST ADD MLOAD SWAP1 POP DUP9 DUP1 PUSH2 0x216B JUMP JUMPDEST SWAP1 PUSH1 0x1F NOT DUP4 AND SWAP2 DUP5 PUSH0 MSTORE PUSH1 0x20 PUSH0 KECCAK256 SWAP3 PUSH0 JUMPDEST DUP2 DUP2 LT PUSH2 0x225A JUMPI POP SWAP3 PUSH1 0x1 SWAP3 DUP6 SWAP3 PUSH1 0x6 SWAP9 SWAP7 PUSH1 0xC0 SWAP9 SWAP7 LT PUSH2 0x2242 JUMPI JUMPDEST POP POP POP DUP2 SHL ADD SWAP1 SSTORE PUSH2 0x217F JUMP JUMPDEST ADD MLOAD PUSH0 NOT PUSH1 0xF8 DUP5 PUSH1 0x3 SHL AND SHR NOT AND SWAP1 SSTORE DUP9 DUP1 DUP1 PUSH2 0x2235 JUMP JUMPDEST SWAP3 SWAP4 PUSH1 0x20 PUSH1 0x1 DUP2 SWAP3 DUP8 DUP7 ADD MLOAD DUP2 SSTORE ADD SWAP6 ADD SWAP4 ADD PUSH2 0x2219 JUMP JUMPDEST DUP4 PUSH0 MSTORE PUSH1 0x20 PUSH0 KECCAK256 PUSH1 0x1F DUP5 ADD PUSH1 0x5 SHR DUP2 ADD SWAP2 PUSH1 0x20 DUP6 LT PUSH2 0x22AD JUMPI JUMPDEST PUSH1 0x1F ADD PUSH1 0x5 SHR ADD SWAP1 JUMPDEST DUP2 DUP2 LT PUSH2 0x22A2 JUMPI POP PUSH2 0x214B JUMP JUMPDEST PUSH0 DUP2 SSTORE PUSH1 0x1 ADD PUSH2 0x2295 JUMP JUMPDEST SWAP1 SWAP2 POP DUP2 SWAP1 PUSH2 0x228C JUMP JUMPDEST ADD MLOAD SWAP1 POP DUP6 DUP1 PUSH2 0x2107 JUMP JUMPDEST PUSH1 0x3 DUP5 ADD PUSH0 MSTORE PUSH1 0x20 PUSH0 KECCAK256 SWAP1 PUSH0 JUMPDEST PUSH1 0x1F NOT DUP5 AND DUP2 LT PUSH2 0x2315 JUMPI POP PUSH1 0x1 SWAP4 SWAP5 SWAP6 SWAP7 DUP4 PUSH1 0x1F NOT DUP2 AND LT PUSH2 0x22FD JUMPI JUMPDEST POP POP POP DUP2 SHL ADD PUSH1 0x3 DUP4 ADD SSTORE PUSH2 0x211E JUMP JUMPDEST ADD MLOAD PUSH0 NOT PUSH1 0xF8 DUP5 PUSH1 0x3 SHL AND SHR NOT AND SWAP1 SSTORE DUP6 DUP1 DUP1 PUSH2 0x22ED JUMP JUMPDEST SWAP1 SWAP2 PUSH1 0x20 PUSH1 0x1 DUP2 SWAP3 DUP6 DUP12 ADD MLOAD DUP2 SSTORE ADD SWAP4 ADD SWAP2 ADD PUSH2 0x22CF JUMP JUMPDEST PUSH1 0x3 DUP5 ADD PUSH0 MSTORE PUSH1 0x20 PUSH0 KECCAK256 PUSH1 0x1F DUP4 ADD PUSH1 0x5 SHR DUP2 ADD SWAP2 PUSH1 0x20 DUP5 LT PUSH2 0x236B JUMPI JUMPDEST PUSH1 0x1F ADD PUSH1 0x5 SHR ADD SWAP1 JUMPDEST DUP2 DUP2 LT PUSH2 0x2360 JUMPI POP PUSH2 0x20ED JUMP JUMPDEST PUSH0 DUP2 SSTORE PUSH1 0x1 ADD PUSH2 0x2353 JUMP JUMPDEST SWAP1 SWAP2 POP DUP2 SWAP1 PUSH2 0x234A JUMP JUMPDEST ADD MLOAD SWAP1 POP DUP6 DUP1 PUSH2 0x20A8 JUMP JUMPDEST PUSH1 0x2 DUP4 ADD PUSH0 MSTORE PUSH1 0x20 PUSH0 KECCAK256 SWAP1 PUSH0 JUMPDEST PUSH1 0x1F NOT DUP5 AND DUP2 LT PUSH2 0x23D3 JUMPI POP PUSH1 0x1 SWAP4 SWAP5 SWAP6 SWAP7 DUP4 PUSH1 0x1F NOT DUP2 AND LT PUSH2 0x23BB JUMPI JUMPDEST POP POP POP DUP2 SHL ADD PUSH1 0x2 DUP3 ADD SSTORE PUSH2 0x20BF JUMP JUMPDEST ADD MLOAD PUSH0 NOT PUSH1 0xF8 DUP5 PUSH1 0x3 SHL AND SHR NOT AND SWAP1 SSTORE DUP6 DUP1 DUP1 PUSH2 0x23AB JUMP JUMPDEST SWAP1 SWAP2 PUSH1 0x20 PUSH1 0x1 DUP2 SWAP3 DUP6 DUP12 ADD MLOAD DUP2 SSTORE ADD SWAP4 ADD SWAP2 ADD PUSH2 0x238D JUMP JUMPDEST PUSH1 0x2 DUP4 ADD PUSH0 MSTORE PUSH1 0x20 PUSH0 KECCAK256 PUSH1 0x1F DUP4 ADD PUSH1 0x5 SHR DUP2 ADD PUSH1 0x20 DUP5 LT PUSH2 0x2428 JUMPI JUMPDEST PUSH1 0x1F DUP4 ADD PUSH1 0x5 SHR DUP3 ADD DUP2 LT PUSH2 0x241D JUMPI POP POP PUSH2 0x208E JUMP JUMPDEST PUSH0 DUP2 SSTORE PUSH1 0x1 ADD PUSH2 0x2407 JUMP JUMPDEST POP DUP1 PUSH2 0x2407 JUMP JUMPDEST ADD MLOAD SWAP1 POP DUP6 DUP1 PUSH2 0x2049 JUMP JUMPDEST PUSH1 0x1 DUP6 ADD PUSH0 MSTORE PUSH1 0x20 PUSH0 KECCAK256 SWAP1 PUSH0 JUMPDEST PUSH1 0x1F NOT DUP5 AND DUP2 LT PUSH2 0x248D JUMPI POP PUSH1 0x1 SWAP4 SWAP5 SWAP6 SWAP7 DUP4 PUSH1 0x1F NOT DUP2 AND LT PUSH2 0x2475 JUMPI JUMPDEST POP POP POP DUP2 SHL ADD PUSH1 0x1 DUP5 ADD SSTORE PUSH2 0x2060 JUMP JUMPDEST ADD MLOAD PUSH0 NOT PUSH1 0xF8 DUP5 PUSH1 0x3 SHL AND SHR NOT AND SWAP1 SSTORE DUP6 DUP1 DUP1 PUSH2 0x2465 JUMP JUMPDEST SWAP1 SWAP2 PUSH1 0x20 PUSH1 0x1 DUP2 SWAP3 DUP6 DUP12 ADD MLOAD DUP2 SSTORE ADD SWAP4 ADD SWAP2 ADD PUSH2 0x2447 JUMP JUMPDEST PUSH1 0x1 DUP6 ADD PUSH0 MSTORE PUSH1 0x20 PUSH0 KECCAK256 PUSH1 0x1F DUP4 ADD PUSH1 0x5 SHR DUP2 ADD PUSH1 0x20 DUP5 LT PUSH2 0x24E2 JUMPI JUMPDEST PUSH1 0x1F DUP4 ADD PUSH1 0x5 SHR DUP3 ADD DUP2 LT PUSH2 0x24D7 JUMPI POP POP PUSH2 0x202F JUMP JUMPDEST PUSH0 DUP2 SSTORE PUSH1 0x1 ADD PUSH2 0x24C1 JUMP JUMPDEST POP DUP1 PUSH2 0x24C1 JUMP JUMPDEST ADD MLOAD SWAP1 POP DUP7 DUP1 PUSH2 0x1FF1 JUMP JUMPDEST SWAP3 POP DUP6 PUSH0 MSTORE PUSH1 0x20 PUSH0 KECCAK256 SWAP1 PUSH0 SWAP4 JUMPDEST PUSH1 0x1F NOT DUP5 AND DUP6 LT PUSH2 0x2541 JUMPI PUSH1 0x1 SWAP5 POP DUP4 PUSH1 0x1F NOT DUP2 AND LT PUSH2 0x2529 JUMPI JUMPDEST POP POP POP DUP2 SHL ADD DUP4 SSTORE PUSH2 0x2005 JUMP JUMPDEST ADD MLOAD PUSH0 NOT PUSH1 0xF8 DUP5 PUSH1 0x3 SHL AND SHR NOT AND SWAP1 SSTORE DUP7 DUP1 DUP1 PUSH2 0x251C JUMP JUMPDEST DUP2 DUP2 ADD MLOAD DUP4 SSTORE PUSH1 0x20 SWAP5 DUP6 ADD SWAP5 PUSH1 0x1 SWAP1 SWAP4 ADD SWAP3 SWAP1 SWAP2 ADD SWAP1 PUSH2 0x2501 JUMP JUMPDEST SWAP1 SWAP2 POP DUP6 PUSH0 MSTORE PUSH1 0x20 PUSH0 KECCAK256 PUSH1 0x1F DUP5 ADD PUSH1 0x5 SHR DUP2 ADD SWAP2 PUSH1 0x20 DUP6 LT PUSH2 0x25A2 JUMPI JUMPDEST SWAP1 PUSH1 0x1F DUP6 SWAP5 SWAP4 SWAP3 ADD PUSH1 0x5 SHR ADD SWAP1 JUMPDEST DUP2 DUP2 LT PUSH2 0x2594 JUMPI POP PUSH2 0x1FDB JUMP JUMPDEST PUSH0 DUP2 SSTORE DUP5 SWAP4 POP PUSH1 0x1 ADD PUSH2 0x2587 JUMP JUMPDEST SWAP1 SWAP2 POP DUP2 SWAP1 PUSH2 0x2579 JUMP JUMPDEST POP PUSH0 SLOAD PUSH1 0x1 PUSH1 0x1 PUSH1 0xA0 SHL SUB AND CALLER EQ PUSH2 0x1F8E JUMP JUMPDEST CALLVALUE PUSH2 0x322 JUMPI PUSH1 0x20 CALLDATASIZE PUSH1 0x3 NOT ADD SLT PUSH2 0x322 JUMPI PUSH1 0x4 CALLDATALOAD PUSH1 0x15 SLOAD DUP2 LT ISZERO PUSH2 0x322 JUMPI PUSH1 0x15 PUSH0 MSTORE PUSH0 DUP1 MLOAD PUSH1 0x20 PUSH2 0x372B DUP4 CODECOPY DUP2 MLOAD SWAP2 MSTORE ADD SLOAD PUSH1 0x40 MLOAD PUSH1 0x1 PUSH1 0x1 PUSH1 0xA0 SHL SUB SWAP1 SWAP2 AND DUP2 MSTORE PUSH1 0x20 SWAP1 RETURN JUMPDEST CALLVALUE PUSH2 0x322 JUMPI PUSH1 0x20 CALLDATASIZE PUSH1 0x3 NOT ADD SLT PUSH2 0x322 JUMPI PUSH1 0x4 CALLDATALOAD PUSH1 0x14 SLOAD DUP2 LT ISZERO PUSH2 0x322 JUMPI PUSH1 0x14 PUSH0 MSTORE PUSH0 DUP1 MLOAD PUSH1 0x20 PUSH2 0x376B DUP4 CODECOPY DUP2 MLOAD SWAP2 MSTORE ADD SLOAD PUSH1 0x40 MLOAD PUSH1 0x1 PUSH1 0x1 PUSH1 0xA0 SHL SUB SWAP1 SWAP2 AND DUP2 MSTORE PUSH1 0x20 SWAP1 RETURN JUMPDEST CALLVALUE PUSH2 0x322 JUMPI PUSH1 0x20 DUP1 PUSH1 0x3 NOT CALLDATASIZE ADD SLT PUSH2 0x322 JUMPI PUSH1 0x4 CALLDATALOAD PUSH0 MSTORE PUSH1 0x12 DUP2 MSTORE PUSH1 0x40 PUSH0 KECCAK256 SWAP1 DUP2 SLOAD SWAP2 PUSH2 0x2679 DUP4 PUSH2 0x3633 JUMP JUMPDEST SWAP3 PUSH2 0x2687 PUSH1 0x40 MLOAD SWAP5 DUP6 PUSH2 0x32F0 JUMP JUMPDEST DUP1 DUP5 MSTORE DUP3 DUP5 ADD DUP1 SWAP3 PUSH0 MSTORE DUP4 PUSH0 KECCAK256 PUSH0 SWAP2 JUMPDEST DUP4 DUP4 LT PUSH2 0x2742 JUMPI POP POP POP POP PUSH1 0x40 MLOAD SWAP2 DUP1 DUP4 ADD SWAP4 DUP2 DUP5 MSTORE MLOAD DUP1 SWAP5 MSTORE PUSH1 0x40 DUP4 ADD SWAP4 PUSH1 0x40 DUP2 PUSH1 0x5 SHL DUP6 ADD ADD SWAP3 SWAP2 PUSH0 SWAP6 JUMPDEST DUP3 DUP8 LT PUSH2 0x26D1 JUMPI DUP6 DUP6 SUB DUP7 RETURN JUMPDEST SWAP1 SWAP2 SWAP3 SWAP4 DUP3 DUP1 PUSH1 0x1 SWAP3 PUSH1 0x3F NOT DUP10 DUP3 SUB ADD DUP6 MSTORE DUP8 MLOAD SWAP1 PUSH2 0x271C PUSH1 0xC0 DUP4 MLOAD DUP4 MSTORE DUP7 DUP1 PUSH1 0xA0 SHL SUB DUP6 DUP6 ADD MLOAD AND DUP6 DUP5 ADD MSTORE PUSH1 0x40 DUP5 ADD MLOAD PUSH1 0x40 DUP5 ADD MSTORE PUSH1 0x60 SWAP1 DUP1 DUP3 DUP7 ADD MLOAD SWAP3 DUP6 ADD MSTORE DUP4 ADD SWAP1 PUSH2 0x3485 JUMP JUMPDEST SWAP2 PUSH1 0x80 DUP1 DUP3 ADD MLOAD ISZERO ISZERO SWAP1 DUP4 ADD MSTORE PUSH1 0xA0 DUP1 SWAP2 ADD MLOAD SWAP2 ADD MSTORE SWAP7 ADD SWAP3 ADD SWAP7 ADD SWAP6 SWAP3 SWAP2 SWAP1 SWAP3 PUSH2 0x26C4 JUMP JUMPDEST PUSH1 0x6 DUP7 PUSH1 0x1 SWAP3 PUSH1 0x40 SWAP10 SWAP9 SWAP10 MLOAD PUSH2 0x2757 DUP2 PUSH2 0x329F JUMP JUMPDEST DUP6 SLOAD DUP2 MSTORE DUP5 DUP1 PUSH1 0xA0 SHL SUB DUP6 DUP8 ADD SLOAD AND DUP4 DUP3 ADD MSTORE PUSH1 0x2 DUP7 ADD SLOAD PUSH1 0x40 DUP3 ADD MSTORE PUSH2 0x2780 PUSH1 0x3 DUP8 ADD PUSH2 0x33E3 JUMP JUMPDEST PUSH1 0x60 DUP3 ADD MSTORE PUSH1 0xFF PUSH1 0x4 DUP8 ADD SLOAD AND ISZERO ISZERO PUSH1 0x80 DUP3 ADD MSTORE PUSH1 0x5 DUP7 ADD SLOAD PUSH1 0xA0 DUP3 ADD MSTORE DUP2 MSTORE ADD SWAP3 ADD SWAP3 ADD SWAP2 SWAP1 SWAP6 SWAP5 SWAP6 PUSH2 0x2697 JUMP JUMPDEST CALLVALUE PUSH2 0x322 JUMPI PUSH1 0x20 CALLDATASIZE PUSH1 0x3 NOT ADD SLT PUSH2 0x322 JUMPI PUSH1 0x1 PUSH1 0x1 PUSH1 0xA0 SHL SUB PUSH2 0x27D0 PUSH2 0x3313 JUMP JUMPDEST AND PUSH0 MSTORE PUSH1 0xD PUSH1 0x20 MSTORE PUSH1 0x20 PUSH1 0xFF PUSH1 0x40 PUSH0 KECCAK256 SLOAD AND PUSH2 0x27EF PUSH1 0x40 MLOAD DUP1 SWAP3 PUSH2 0x34C3 JUMP JUMPDEST RETURN JUMPDEST CALLVALUE PUSH2 0x322 JUMPI PUSH1 0x20 CALLDATASIZE PUSH1 0x3 NOT ADD SLT PUSH2 0x322 JUMPI PUSH1 0x1 PUSH1 0x1 PUSH1 0xA0 SHL SUB PUSH2 0x2812 PUSH2 0x3313 JUMP JUMPDEST AND PUSH0 MSTORE PUSH1 0x9 PUSH1 0x20 MSTORE PUSH2 0x2867 PUSH1 0x40 PUSH0 KECCAK256 PUSH2 0x282A DUP2 PUSH2 0x33E3 JUMP JUMPDEST SWAP1 PUSH2 0x2883 PUSH2 0x283A PUSH1 0x1 DUP4 ADD PUSH2 0x33E3 JUMP JUMPDEST SWAP2 PUSH2 0x2875 PUSH1 0xFF PUSH1 0x3 PUSH2 0x284E PUSH1 0x2 DUP6 ADD PUSH2 0x33E3 JUMP JUMPDEST SWAP4 ADD SLOAD AND SWAP4 PUSH1 0x40 MLOAD SWAP7 DUP8 SWAP7 PUSH1 0x80 DUP9 MSTORE PUSH1 0x80 DUP9 ADD SWAP1 PUSH2 0x3485 JUMP JUMPDEST SWAP1 DUP7 DUP3 SUB PUSH1 0x20 DUP9 ADD MSTORE PUSH2 0x3485 JUMP JUMPDEST SWAP1 DUP5 DUP3 SUB PUSH1 0x40 DUP7 ADD MSTORE PUSH2 0x3485 JUMP JUMPDEST SWAP1 ISZERO ISZERO PUSH1 0x60 DUP4 ADD MSTORE SUB SWAP1 RETURN JUMPDEST CALLVALUE PUSH2 0x322 JUMPI PUSH1 0x20 CALLDATASIZE PUSH1 0x3 NOT ADD SLT PUSH2 0x322 JUMPI CALLER PUSH0 MSTORE PUSH1 0x17 PUSH1 0x20 MSTORE PUSH1 0xFF PUSH1 0x40 PUSH0 KECCAK256 SLOAD AND DUP1 ISZERO PUSH2 0x28C8 JUMPI JUMPDEST PUSH2 0x28C0 SWAP1 PUSH2 0x35D7 JUMP JUMPDEST PUSH1 0x4 CALLDATALOAD PUSH1 0x5 SSTORE STOP JUMPDEST POP PUSH0 SLOAD PUSH1 0x1 PUSH1 0x1 PUSH1 0xA0 SHL SUB AND CALLER EQ PUSH2 0x28B7 JUMP JUMPDEST CALLVALUE PUSH2 0x322 JUMPI PUSH1 0x3 NOT PUSH1 0x40 CALLDATASIZE DUP3 ADD SLT PUSH2 0x322 JUMPI PUSH1 0x1 PUSH1 0x1 PUSH1 0x40 SHL SUB SWAP1 PUSH1 0x24 CALLDATALOAD SWAP1 DUP3 DUP3 GT PUSH2 0x322 JUMPI PUSH1 0x60 SWAP1 DUP3 CALLDATASIZE SUB ADD SLT PUSH2 0x322 JUMPI PUSH1 0x40 MLOAD SWAP1 PUSH2 0x291A DUP3 PUSH2 0x3284 JUMP JUMPDEST DUP1 PUSH1 0x4 ADD CALLDATALOAD DUP3 MSTORE PUSH1 0x24 DUP2 ADD CALLDATALOAD DUP4 DUP2 GT PUSH2 0x322 JUMPI PUSH2 0x293D SWAP1 PUSH1 0x4 CALLDATASIZE SWAP2 DUP5 ADD ADD PUSH2 0x3358 JUMP JUMPDEST PUSH2 0x2951 PUSH1 0x44 PUSH1 0x20 SWAP4 DUP5 DUP7 ADD SWAP4 DUP5 MSTORE ADD PUSH2 0x339E JUMP JUMPDEST SWAP2 PUSH1 0x40 DUP5 ADD SWAP3 DUP4 MSTORE CALLER PUSH0 MSTORE PUSH1 0x17 DUP2 MSTORE PUSH1 0xFF PUSH1 0x40 PUSH0 KECCAK256 SLOAD AND DUP1 ISZERO PUSH2 0x2AA5 JUMPI JUMPDEST PUSH2 0x2978 SWAP1 PUSH2 0x35D7 JUMP JUMPDEST PUSH1 0x4 CALLDATALOAD PUSH0 MSTORE PUSH1 0xF DUP2 MSTORE PUSH1 0x40 PUSH0 KECCAK256 SWAP4 MLOAD DUP5 SSTORE PUSH1 0x1 SWAP1 DUP2 DUP6 ADD SWAP3 MLOAD DUP1 MLOAD SWAP7 DUP8 GT PUSH2 0xE79 JUMPI PUSH2 0x29A4 DUP5 SLOAD PUSH2 0x33AB JUMP JUMPDEST PUSH1 0x1F DUP2 GT PUSH2 0x2A5F JUMPI JUMPDEST POP DUP2 PUSH1 0x1F DUP9 GT PUSH1 0x1 EQ PUSH2 0x29F5 JUMPI POP SWAP6 DUP1 PUSH1 0x2 SWAP6 SWAP5 SWAP4 DUP2 SWAP4 PUSH2 0x1A SWAP10 PUSH0 SWAP5 PUSH2 0x29EA JUMPI JUMPDEST POP POP SHL SWAP2 PUSH0 NOT SWAP1 PUSH1 0x3 SHL SHR NOT AND OR SWAP1 SSTORE JUMPDEST MLOAD ISZERO ISZERO SWAP2 ADD PUSH2 0x3614 JUMP JUMPDEST ADD MLOAD SWAP3 POP DUP10 DUP1 PUSH2 0x29CF JUMP JUMPDEST SWAP2 SWAP1 PUSH1 0x1F NOT DUP9 AND DUP6 PUSH0 MSTORE DUP4 PUSH0 KECCAK256 SWAP4 PUSH0 SWAP1 JUMPDEST DUP3 DUP3 LT PUSH2 0x2A48 JUMPI POP POP SWAP2 PUSH1 0x2 SWAP7 SWAP6 SWAP5 SWAP4 SWAP2 DUP10 PUSH2 0x1A SWAP11 SWAP5 LT PUSH2 0x2A30 JUMPI JUMPDEST POP POP POP DUP2 SHL ADD SWAP1 SSTORE PUSH2 0x29E0 JUMP JUMPDEST ADD MLOAD PUSH0 NOT PUSH1 0xF8 DUP5 PUSH1 0x3 SHL AND SHR NOT AND SWAP1 SSTORE DUP8 DUP1 DUP1 PUSH2 0x2A23 JUMP JUMPDEST DUP1 DUP8 DUP7 SWAP8 DUP3 SWAP5 SWAP8 DUP8 ADD MLOAD DUP2 SSTORE ADD SWAP7 ADD SWAP5 ADD SWAP1 PUSH2 0x2A06 JUMP JUMPDEST DUP5 PUSH0 MSTORE DUP3 PUSH0 KECCAK256 PUSH1 0x1F DUP10 ADD PUSH1 0x5 SHR DUP2 ADD SWAP2 DUP5 DUP11 LT PUSH2 0x2A9B JUMPI JUMPDEST PUSH1 0x1F ADD PUSH1 0x5 SHR ADD SWAP1 DUP5 SWAP1 JUMPDEST DUP3 DUP2 LT PUSH2 0x2A90 JUMPI POP POP PUSH2 0x29AD JUMP JUMPDEST PUSH0 DUP2 SSTORE ADD DUP5 SWAP1 PUSH2 0x2A82 JUMP JUMPDEST SWAP1 SWAP2 POP DUP2 SWAP1 PUSH2 0x2A77 JUMP JUMPDEST POP PUSH0 SLOAD PUSH1 0x1 PUSH1 0x1 PUSH1 0xA0 SHL SUB AND CALLER EQ PUSH2 0x296F JUMP JUMPDEST CALLVALUE PUSH2 0x322 JUMPI PUSH0 CALLDATASIZE PUSH1 0x3 NOT ADD SLT PUSH2 0x322 JUMPI CALLER PUSH0 MSTORE PUSH1 0x17 PUSH1 0x20 MSTORE PUSH1 0xFF PUSH1 0x40 PUSH0 KECCAK256 SLOAD AND DUP1 ISZERO PUSH2 0x2B01 JUMPI JUMPDEST PUSH2 0x2AE8 SWAP1 PUSH2 0x35D7 JUMP JUMPDEST PUSH1 0x20 PUSH2 0x2AF5 PUSH1 0x1 SLOAD PUSH2 0x3625 JUMP JUMPDEST DUP1 PUSH1 0x1 SSTORE PUSH1 0x40 MLOAD SWAP1 DUP2 MSTORE RETURN JUMPDEST POP PUSH0 SLOAD PUSH1 0x1 PUSH1 0x1 PUSH1 0xA0 SHL SUB AND CALLER EQ PUSH2 0x2ADF JUMP JUMPDEST CALLVALUE PUSH2 0x322 JUMPI PUSH1 0x40 CALLDATASIZE PUSH1 0x3 NOT ADD SLT PUSH2 0x322 JUMPI PUSH2 0x2B2D PUSH2 0x3313 JUMP JUMPDEST CALLER PUSH0 MSTORE PUSH1 0x17 PUSH1 0x20 MSTORE PUSH1 0xFF PUSH1 0x40 PUSH0 KECCAK256 SLOAD AND DUP1 ISZERO PUSH2 0x2B9A JUMPI JUMPDEST PUSH2 0x2B4D SWAP1 PUSH2 0x35D7 JUMP JUMPDEST PUSH1 0x1 PUSH1 0x1 PUSH1 0xA0 SHL SUB AND PUSH0 SWAP1 DUP2 MSTORE PUSH1 0x7 PUSH1 0x20 MSTORE PUSH1 0x40 SWAP1 KECCAK256 DUP1 SLOAD PUSH1 0x1 PUSH1 0x40 SHL DUP2 LT ISZERO PUSH2 0xE79 JUMPI PUSH2 0x2B80 SWAP2 PUSH1 0x1 DUP3 ADD DUP2 SSTORE PUSH2 0x3253 JUMP JUMPDEST DUP2 SLOAD PUSH0 NOT PUSH1 0x3 SWAP3 SWAP1 SWAP3 SHL SWAP2 DUP3 SHL NOT AND PUSH1 0x24 CALLDATALOAD SWAP1 SWAP2 SHL OR SWAP1 SSTORE STOP JUMPDEST POP PUSH0 SLOAD PUSH1 0x1 PUSH1 0x1 PUSH1 0xA0 SHL SUB AND CALLER EQ PUSH2 0x2B44 JUMP JUMPDEST CALLVALUE PUSH2 0x322 JUMPI PUSH1 0x20 CALLDATASIZE PUSH1 0x3 NOT ADD SLT PUSH2 0x322 JUMPI PUSH1 0x1 PUSH1 0x1 PUSH1 0xA0 SHL SUB PUSH2 0x2BCE PUSH2 0x3313 JUMP JUMPDEST AND PUSH0 MSTORE PUSH1 0xA PUSH1 0x20 MSTORE PUSH1 0x20 PUSH1 0xFF PUSH1 0x40 PUSH0 KECCAK256 SLOAD AND PUSH1 0x40 MLOAD SWAP1 ISZERO ISZERO DUP2 MSTORE RETURN JUMPDEST CALLVALUE PUSH2 0x322 JUMPI PUSH0 CALLDATASIZE PUSH1 0x3 NOT ADD SLT PUSH2 0x322 JUMPI CALLER PUSH0 MSTORE PUSH1 0x17 PUSH1 0x20 MSTORE PUSH1 0xFF PUSH1 0x40 PUSH0 KECCAK256 SLOAD AND DUP1 ISZERO PUSH2 0x2C33 JUMPI JUMPDEST PUSH2 0x2C1A SWAP1 PUSH2 0x35D7 JUMP JUMPDEST PUSH1 0x20 PUSH2 0x2C27 PUSH1 0x4 SLOAD PUSH2 0x3625 JUMP JUMPDEST DUP1 PUSH1 0x4 SSTORE PUSH1 0x40 MLOAD SWAP1 DUP2 MSTORE RETURN JUMPDEST POP PUSH0 SLOAD PUSH1 0x1 PUSH1 0x1 PUSH1 0xA0 SHL SUB AND CALLER EQ PUSH2 0x2C11 JUMP JUMPDEST CALLVALUE PUSH2 0x322 JUMPI PUSH1 0x40 CALLDATASIZE PUSH1 0x3 NOT ADD SLT PUSH2 0x322 JUMPI PUSH2 0x2C5F PUSH2 0x3313 JUMP JUMPDEST CALLER PUSH0 MSTORE PUSH1 0x17 PUSH1 0x20 MSTORE PUSH1 0xFF PUSH1 0x40 PUSH0 KECCAK256 SLOAD AND DUP1 ISZERO PUSH2 0x2CA7 JUMPI JUMPDEST PUSH2 0x2C7F SWAP1 PUSH2 0x35D7 JUMP JUMPDEST PUSH1 0x1 PUSH1 0x1 PUSH1 0xA0 SHL SUB AND PUSH0 SWAP1 DUP2 MSTORE PUSH1 0xE PUSH1 0x20 MSTORE PUSH1 0x40 SWAP1 KECCAK256 DUP1 SLOAD PUSH1 0x24 CALLDATALOAD DUP2 ADD SWAP2 SWAP1 DUP3 LT PUSH2 0x8B2 JUMPI SSTORE STOP JUMPDEST POP PUSH0 SLOAD PUSH1 0x1 PUSH1 0x1 PUSH1 0xA0 SHL SUB AND CALLER EQ PUSH2 0x2C76 JUMP JUMPDEST CALLVALUE PUSH2 0x322 JUMPI PUSH1 0x3 NOT PUSH1 0x40 CALLDATASIZE DUP3 ADD SLT PUSH2 0x322 JUMPI PUSH1 0x24 CALLDATALOAD SWAP1 PUSH1 0x1 PUSH1 0x1 PUSH1 0x40 SHL SUB DUP3 GT PUSH2 0x322 JUMPI PUSH2 0x140 SWAP1 DUP3 CALLDATASIZE SUB ADD SLT PUSH2 0x322 JUMPI PUSH1 0x40 MLOAD SWAP1 PUSH2 0x2CF8 DUP3 PUSH2 0x3268 JUMP JUMPDEST DUP1 PUSH1 0x4 ADD CALLDATALOAD DUP3 MSTORE PUSH2 0x2D0B PUSH1 0x24 DUP3 ADD PUSH2 0x3329 JUMP JUMPDEST PUSH1 0x20 DUP4 ADD SWAP1 DUP2 MSTORE SWAP1 PUSH1 0x44 DUP2 ADD CALLDATALOAD PUSH1 0x1 PUSH1 0x1 PUSH1 0x40 SHL SUB DUP2 GT PUSH2 0x322 JUMPI PUSH2 0x2D36 SWAP1 PUSH1 0x4 CALLDATASIZE SWAP2 DUP5 ADD ADD PUSH2 0x3358 JUMP JUMPDEST PUSH1 0x40 DUP5 ADD SWAP1 DUP2 MSTORE SWAP1 PUSH1 0x64 DUP2 ADD CALLDATALOAD PUSH1 0x1 PUSH1 0x1 PUSH1 0x40 SHL SUB DUP2 GT PUSH2 0x322 JUMPI PUSH2 0x2D61 SWAP1 PUSH1 0x4 CALLDATASIZE SWAP2 DUP5 ADD ADD PUSH2 0x3358 JUMP JUMPDEST PUSH1 0x60 DUP6 ADD MSTORE PUSH1 0x84 DUP2 ADD CALLDATALOAD PUSH1 0x1 PUSH1 0x1 PUSH1 0x40 SHL SUB DUP2 GT PUSH2 0x322 JUMPI PUSH2 0x2DC5 SWAP2 PUSH2 0x2D90 PUSH2 0x124 SWAP3 PUSH1 0x4 CALLDATASIZE SWAP2 DUP5 ADD ADD PUSH2 0x3358 JUMP JUMPDEST PUSH1 0x80 DUP8 ADD MSTORE PUSH1 0xA4 DUP2 ADD CALLDATALOAD PUSH1 0xA0 DUP8 ADD MSTORE PUSH1 0xC4 DUP2 ADD CALLDATALOAD PUSH1 0xC0 DUP8 ADD MSTORE PUSH1 0xE4 DUP2 ADD CALLDATALOAD PUSH1 0xE0 DUP8 ADD MSTORE PUSH2 0x104 DUP2 ADD CALLDATALOAD PUSH2 0x100 DUP8 ADD MSTORE ADD PUSH2 0x339E JUMP JUMPDEST PUSH2 0x120 DUP5 ADD MSTORE CALLER PUSH0 MSTORE PUSH1 0x17 PUSH1 0x20 MSTORE PUSH1 0xFF PUSH1 0x40 PUSH0 KECCAK256 SLOAD AND DUP1 ISZERO PUSH2 0x31CC JUMPI JUMPDEST PUSH2 0x2DEB SWAP1 PUSH2 0x35D7 JUMP JUMPDEST PUSH1 0x4 CALLDATALOAD PUSH0 SWAP1 DUP2 MSTORE PUSH1 0x6 PUSH1 0x20 MSTORE PUSH1 0x40 SWAP1 KECCAK256 DUP4 MLOAD DUP2 SSTORE SWAP2 MLOAD PUSH1 0x1 DUP4 ADD DUP1 SLOAD PUSH1 0x1 PUSH1 0x1 PUSH1 0xA0 SHL SUB NOT AND PUSH1 0x1 PUSH1 0x1 PUSH1 0xA0 SHL SUB SWAP3 SWAP1 SWAP3 AND SWAP2 SWAP1 SWAP2 OR SWAP1 SSTORE MLOAD DUP1 MLOAD SWAP1 SWAP3 SWAP1 PUSH1 0x1 PUSH1 0x1 PUSH1 0x40 SHL SUB DUP2 GT PUSH2 0xE79 JUMPI PUSH2 0x2E44 PUSH1 0x2 DUP5 ADD SLOAD PUSH2 0x33AB JUMP JUMPDEST PUSH1 0x1F DUP2 GT PUSH2 0x3188 JUMPI JUMPDEST POP PUSH1 0x20 PUSH1 0x1F DUP3 GT PUSH1 0x1 EQ PUSH2 0x311E JUMPI DUP2 SWAP3 SWAP4 SWAP5 PUSH0 SWAP3 PUSH2 0x3113 JUMPI JUMPDEST POP POP DUP2 PUSH1 0x1 SHL SWAP2 PUSH0 NOT SWAP1 PUSH1 0x3 SHL SHR NOT AND OR PUSH1 0x2 DUP4 ADD SSTORE JUMPDEST PUSH1 0x60 DUP2 ADD MLOAD DUP1 MLOAD SWAP1 SWAP3 SWAP1 PUSH1 0x1 PUSH1 0x1 PUSH1 0x40 SHL SUB DUP2 GT PUSH2 0xE79 JUMPI PUSH2 0x2EA2 PUSH1 0x3 DUP4 ADD SLOAD PUSH2 0x33AB JUMP JUMPDEST PUSH1 0x1F DUP2 GT PUSH2 0x30CF JUMPI JUMPDEST POP PUSH1 0x20 PUSH1 0x1F DUP3 GT PUSH1 0x1 EQ PUSH2 0x3065 JUMPI DUP2 SWAP3 SWAP4 SWAP5 PUSH0 SWAP3 PUSH2 0x305A JUMPI JUMPDEST POP POP DUP2 PUSH1 0x1 SHL SWAP2 PUSH0 NOT SWAP1 PUSH1 0x3 SHL SHR NOT AND OR PUSH1 0x3 DUP3 ADD SSTORE JUMPDEST PUSH1 0x80 DUP3 ADD MLOAD DUP1 MLOAD SWAP1 PUSH1 0x1 PUSH1 0x1 PUSH1 0x40 SHL SUB DUP3 GT PUSH2 0xE79 JUMPI PUSH2 0x2EFE PUSH1 0x4 DUP5 ADD SLOAD PUSH2 0x33AB JUMP JUMPDEST PUSH1 0x1F DUP2 GT PUSH2 0x3012 JUMPI JUMPDEST POP PUSH1 0x20 SWAP1 PUSH1 0x1F DUP4 GT PUSH1 0x1 EQ PUSH2 0x2F9D JUMPI SWAP4 DUP3 PUSH1 0x9 SWAP4 PUSH2 0x120 SWAP4 PUSH2 0x2F75 SWAP8 PUSH0 SWAP3 PUSH2 0x2F92 JUMPI JUMPDEST POP POP DUP2 PUSH1 0x1 SHL SWAP2 PUSH0 NOT SWAP1 PUSH1 0x3 SHL SHR NOT AND OR PUSH1 0x4 DUP6 ADD SSTORE JUMPDEST PUSH1 0xA0 DUP2 ADD MLOAD PUSH1 0x5 DUP6 ADD SSTORE PUSH1 0xC0 DUP2 ADD MLOAD PUSH1 0x6 DUP6 ADD SSTORE PUSH1 0xE0 DUP2 ADD MLOAD PUSH1 0x7 DUP6 ADD SSTORE PUSH2 0x100 DUP2 ADD MLOAD PUSH1 0x8 DUP6 ADD SSTORE ADD MLOAD ISZERO ISZERO SWAP2 ADD PUSH2 0x3614 JUMP JUMPDEST PUSH1 0x4 CALLDATALOAD PUSH0 SWAP1 DUP2 MSTORE PUSH1 0x8 PUSH1 0x20 MSTORE PUSH1 0x40 SWAP1 KECCAK256 DUP1 SLOAD PUSH1 0xFF NOT AND PUSH1 0x1 OR SWAP1 SSTORE STOP JUMPDEST ADD MLOAD SWAP1 POP DUP8 DUP1 PUSH2 0x2F2A JUMP JUMPDEST SWAP1 PUSH1 0x4 DUP5 ADD PUSH0 MSTORE PUSH1 0x20 PUSH0 KECCAK256 SWAP2 PUSH0 JUMPDEST PUSH1 0x1F NOT DUP6 AND DUP2 LT PUSH2 0x2FFA JUMPI POP DUP4 PUSH2 0x120 SWAP4 PUSH2 0x2F75 SWAP8 SWAP4 PUSH1 0x1 SWAP4 PUSH1 0x9 SWAP8 PUSH1 0x1F NOT DUP2 AND LT PUSH2 0x2FE2 JUMPI JUMPDEST POP POP POP DUP2 SHL ADD PUSH1 0x4 DUP6 ADD SSTORE PUSH2 0x2F41 JUMP JUMPDEST ADD MLOAD PUSH0 NOT PUSH1 0xF8 DUP5 PUSH1 0x3 SHL AND SHR NOT AND SWAP1 SSTORE DUP8 DUP1 DUP1 PUSH2 0x2FD2 JUMP JUMPDEST SWAP2 SWAP3 PUSH1 0x20 PUSH1 0x1 DUP2 SWAP3 DUP7 DUP6 ADD MLOAD DUP2 SSTORE ADD SWAP5 ADD SWAP3 ADD PUSH2 0x2FAB JUMP JUMPDEST PUSH1 0x4 DUP5 ADD PUSH0 MSTORE PUSH1 0x20 PUSH0 KECCAK256 PUSH1 0x1F DUP5 ADD PUSH1 0x5 SHR DUP2 ADD SWAP2 PUSH1 0x20 DUP6 LT PUSH2 0x3050 JUMPI JUMPDEST PUSH1 0x1F ADD PUSH1 0x5 SHR ADD SWAP1 JUMPDEST DUP2 DUP2 LT PUSH2 0x3045 JUMPI POP PUSH2 0x2F07 JUMP JUMPDEST PUSH0 DUP2 SSTORE PUSH1 0x1 ADD PUSH2 0x3038 JUMP JUMPDEST SWAP1 SWAP2 POP DUP2 SWAP1 PUSH2 0x302F JUMP JUMPDEST ADD MLOAD SWAP1 POP DUP5 DUP1 PUSH2 0x2EC4 JUMP JUMPDEST PUSH1 0x3 DUP4 ADD PUSH0 MSTORE PUSH1 0x20 PUSH0 KECCAK256 SWAP1 PUSH0 JUMPDEST PUSH1 0x1F NOT DUP5 AND DUP2 LT PUSH2 0x30B7 JUMPI POP PUSH1 0x1 SWAP4 SWAP5 SWAP6 DUP4 PUSH1 0x1F NOT DUP2 AND LT PUSH2 0x309F JUMPI JUMPDEST POP POP POP DUP2 SHL ADD PUSH1 0x3 DUP3 ADD SSTORE PUSH2 0x2EDB JUMP JUMPDEST ADD MLOAD PUSH0 NOT PUSH1 0xF8 DUP5 PUSH1 0x3 SHL AND SHR NOT AND SWAP1 SSTORE DUP5 DUP1 DUP1 PUSH2 0x308F JUMP JUMPDEST SWAP1 SWAP2 PUSH1 0x20 PUSH1 0x1 DUP2 SWAP3 DUP6 DUP11 ADD MLOAD DUP2 SSTORE ADD SWAP4 ADD SWAP2 ADD PUSH2 0x3072 JUMP JUMPDEST PUSH1 0x3 DUP4 ADD PUSH0 MSTORE PUSH1 0x20 PUSH0 KECCAK256 PUSH1 0x1F DUP4 ADD PUSH1 0x5 SHR DUP2 ADD PUSH1 0x20 DUP5 LT PUSH2 0x310C JUMPI JUMPDEST PUSH1 0x1F DUP4 ADD PUSH1 0x5 SHR DUP3 ADD DUP2 LT PUSH2 0x3101 JUMPI POP POP PUSH2 0x2EAB JUMP JUMPDEST PUSH0 DUP2 SSTORE PUSH1 0x1 ADD PUSH2 0x30EB JUMP JUMPDEST POP DUP1 PUSH2 0x30EB JUMP JUMPDEST ADD MLOAD SWAP1 POP DUP5 DUP1 PUSH2 0x2E66 JUMP JUMPDEST PUSH1 0x2 DUP5 ADD PUSH0 MSTORE PUSH1 0x20 PUSH0 KECCAK256 SWAP1 PUSH0 JUMPDEST PUSH1 0x1F NOT DUP5 AND DUP2 LT PUSH2 0x3170 JUMPI POP PUSH1 0x1 SWAP4 SWAP5 SWAP6 DUP4 PUSH1 0x1F NOT DUP2 AND LT PUSH2 0x3158 JUMPI JUMPDEST POP POP POP DUP2 SHL ADD PUSH1 0x2 DUP4 ADD SSTORE PUSH2 0x2E7D JUMP JUMPDEST ADD MLOAD PUSH0 NOT PUSH1 0xF8 DUP5 PUSH1 0x3 SHL AND SHR NOT AND SWAP1 SSTORE DUP5 DUP1 DUP1 PUSH2 0x3148 JUMP JUMPDEST SWAP1 SWAP2 PUSH1 0x20 PUSH1 0x1 DUP2 SWAP3 DUP6 DUP11 ADD MLOAD DUP2 SSTORE ADD SWAP4 ADD SWAP2 ADD PUSH2 0x312B JUMP JUMPDEST PUSH1 0x2 DUP5 ADD PUSH0 MSTORE PUSH1 0x20 PUSH0 KECCAK256 PUSH1 0x1F DUP4 ADD PUSH1 0x5 SHR DUP2 ADD PUSH1 0x20 DUP5 LT PUSH2 0x31C5 JUMPI JUMPDEST PUSH1 0x1F DUP4 ADD PUSH1 0x5 SHR DUP3 ADD DUP2 LT PUSH2 0x31BA JUMPI POP POP PUSH2 0x2E4D JUMP JUMPDEST PUSH0 DUP2 SSTORE PUSH1 0x1 ADD PUSH2 0x31A4 JUMP JUMPDEST POP DUP1 PUSH2 0x31A4 JUMP JUMPDEST POP PUSH0 SLOAD PUSH1 0x1 PUSH1 0x1 PUSH1 0xA0 SHL SUB AND CALLER EQ PUSH2 0x2DE2 JUMP JUMPDEST CALLVALUE PUSH2 0x322 JUMPI PUSH1 0x20 CALLDATASIZE PUSH1 0x3 NOT ADD SLT PUSH2 0x322 JUMPI PUSH1 0x4 CALLDATALOAD PUSH1 0x16 SLOAD DUP2 LT ISZERO PUSH2 0x322 JUMPI PUSH2 0x3208 PUSH1 0x20 SWAP2 PUSH2 0x323B JUMP JUMPDEST SWAP1 SLOAD PUSH1 0x40 MLOAD PUSH1 0x3 SWAP3 SWAP1 SWAP3 SHL SHR PUSH1 0x1 PUSH1 0x1 PUSH1 0xA0 SHL SUB AND DUP2 MSTORE RETURN JUMPDEST CALLVALUE PUSH2 0x322 JUMPI PUSH0 CALLDATASIZE PUSH1 0x3 NOT ADD SLT PUSH2 0x322 JUMPI PUSH1 0x20 SWAP1 PUSH1 0x4 SLOAD DUP2 MSTORE RETURN JUMPDEST PUSH1 0x16 SLOAD DUP2 LT ISZERO PUSH2 0x1BC3 JUMPI PUSH1 0x16 PUSH0 MSTORE PUSH1 0x20 PUSH0 KECCAK256 ADD SWAP1 PUSH0 SWAP1 JUMP JUMPDEST DUP1 SLOAD DUP3 LT ISZERO PUSH2 0x1BC3 JUMPI PUSH0 MSTORE PUSH1 0x20 PUSH0 KECCAK256 ADD SWAP1 PUSH0 SWAP1 JUMP JUMPDEST PUSH2 0x140 DUP2 ADD SWAP1 DUP2 LT PUSH1 0x1 PUSH1 0x1 PUSH1 0x40 SHL SUB DUP3 GT OR PUSH2 0xE79 JUMPI PUSH1 0x40 MSTORE JUMP JUMPDEST PUSH1 0x60 DUP2 ADD SWAP1 DUP2 LT PUSH1 0x1 PUSH1 0x1 PUSH1 0x40 SHL SUB DUP3 GT OR PUSH2 0xE79 JUMPI PUSH1 0x40 MSTORE JUMP JUMPDEST PUSH1 0xC0 DUP2 ADD SWAP1 DUP2 LT PUSH1 0x1 PUSH1 0x1 PUSH1 0x40 SHL SUB DUP3 GT OR PUSH2 0xE79 JUMPI PUSH1 0x40 MSTORE JUMP JUMPDEST PUSH1 0xE0 DUP2 ADD SWAP1 DUP2 LT PUSH1 0x1 PUSH1 0x1 PUSH1 0x40 SHL SUB DUP3 GT OR PUSH2 0xE79 JUMPI PUSH1 0x40 MSTORE JUMP JUMPDEST PUSH1 0x80 DUP2 ADD SWAP1 DUP2 LT PUSH1 0x1 PUSH1 0x1 PUSH1 0x40 SHL SUB DUP3 GT OR PUSH2 0xE79 JUMPI PUSH1 0x40 MSTORE JUMP JUMPDEST PUSH1 0x1F SWAP1 SWAP2 ADD PUSH1 0x1F NOT AND DUP2 ADD SWAP1 PUSH1 0x1 PUSH1 0x1 PUSH1 0x40 SHL SUB DUP3 GT SWAP1 DUP3 LT OR PUSH2 0xE79 JUMPI PUSH1 0x40 MSTORE JUMP JUMPDEST PUSH1 0x4 CALLDATALOAD SWAP1 PUSH1 0x1 PUSH1 0x1 PUSH1 0xA0 SHL SUB DUP3 AND DUP3 SUB PUSH2 0x322 JUMPI JUMP JUMPDEST CALLDATALOAD SWAP1 PUSH1 0x1 PUSH1 0x1 PUSH1 0xA0 SHL SUB DUP3 AND DUP3 SUB PUSH2 0x322 JUMPI JUMP JUMPDEST PUSH1 0x1 PUSH1 0x1 PUSH1 0x40 SHL SUB DUP2 GT PUSH2 0xE79 JUMPI PUSH1 0x1F ADD PUSH1 0x1F NOT AND PUSH1 0x20 ADD SWAP1 JUMP JUMPDEST DUP2 PUSH1 0x1F DUP3 ADD SLT ISZERO PUSH2 0x322 JUMPI DUP1 CALLDATALOAD SWAP1 PUSH2 0x336F DUP3 PUSH2 0x333D JUMP JUMPDEST SWAP3 PUSH2 0x337D PUSH1 0x40 MLOAD SWAP5 DUP6 PUSH2 0x32F0 JUMP JUMPDEST DUP3 DUP5 MSTORE PUSH1 0x20 DUP4 DUP4 ADD ADD GT PUSH2 0x322 JUMPI DUP2 PUSH0 SWAP3 PUSH1 0x20 DUP1 SWAP4 ADD DUP4 DUP7 ADD CALLDATACOPY DUP4 ADD ADD MSTORE SWAP1 JUMP JUMPDEST CALLDATALOAD SWAP1 DUP2 ISZERO ISZERO DUP3 SUB PUSH2 0x322 JUMPI JUMP JUMPDEST SWAP1 PUSH1 0x1 DUP3 DUP2 SHR SWAP3 AND DUP1 ISZERO PUSH2 0x33D9 JUMPI JUMPDEST PUSH1 0x20 DUP4 LT EQ PUSH2 0x33C5 JUMPI JUMP JUMPDEST PUSH4 0x4E487B71 PUSH1 0xE0 SHL PUSH0 MSTORE PUSH1 0x22 PUSH1 0x4 MSTORE PUSH1 0x24 PUSH0 REVERT JUMPDEST SWAP2 PUSH1 0x7F AND SWAP2 PUSH2 0x33BA JUMP JUMPDEST SWAP1 PUSH1 0x40 MLOAD SWAP2 DUP3 PUSH0 DUP3 SLOAD PUSH2 0x33F5 DUP2 PUSH2 0x33AB JUMP JUMPDEST SWAP1 DUP2 DUP5 MSTORE PUSH1 0x20 SWAP5 PUSH1 0x1 SWAP2 PUSH1 0x1 DUP2 AND SWAP1 DUP2 PUSH0 EQ PUSH2 0x3463 JUMPI POP PUSH1 0x1 EQ PUSH2 0x3425 JUMPI JUMPDEST POP POP POP PUSH2 0x3423 SWAP3 POP SUB DUP4 PUSH2 0x32F0 JUMP JUMPDEST JUMP JUMPDEST PUSH0 SWAP1 DUP2 MSTORE DUP6 DUP2 KECCAK256 SWAP6 SWAP4 POP SWAP2 SWAP1 JUMPDEST DUP2 DUP4 LT PUSH2 0x344B JUMPI POP POP PUSH2 0x3423 SWAP4 POP DUP3 ADD ADD PUSH0 DUP1 DUP1 PUSH2 0x3414 JUMP JUMPDEST DUP6 SLOAD DUP9 DUP5 ADD DUP6 ADD MSTORE SWAP5 DUP6 ADD SWAP5 DUP8 SWAP5 POP SWAP2 DUP4 ADD SWAP2 PUSH2 0x3432 JUMP JUMPDEST SWAP3 POP POP POP PUSH2 0x3423 SWAP5 SWAP3 POP PUSH1 0xFF NOT AND DUP3 DUP5 ADD MSTORE ISZERO ISZERO PUSH1 0x5 SHL DUP3 ADD ADD PUSH0 DUP1 DUP1 PUSH2 0x3414 JUMP JUMPDEST SWAP2 SWAP1 DUP3 MLOAD SWAP3 DUP4 DUP3 MSTORE PUSH0 JUMPDEST DUP5 DUP2 LT PUSH2 0x34AF JUMPI POP POP DUP3 PUSH0 PUSH1 0x20 DUP1 SWAP5 SWAP6 DUP5 ADD ADD MSTORE PUSH1 0x1F DUP1 NOT SWAP2 ADD AND ADD ADD SWAP1 JUMP JUMPDEST PUSH1 0x20 DUP2 DUP4 ADD DUP2 ADD MLOAD DUP5 DUP4 ADD DUP3 ADD MSTORE ADD PUSH2 0x348F JUMP JUMPDEST SWAP1 PUSH1 0x4 DUP3 LT ISZERO PUSH2 0x34D0 JUMPI MSTORE JUMP JUMPDEST PUSH4 0x4E487B71 PUSH1 0xE0 SHL PUSH0 MSTORE PUSH1 0x21 PUSH1 0x4 MSTORE PUSH1 0x24 PUSH0 REVERT JUMPDEST PUSH1 0x20 SWAP1 PUSH1 0x20 PUSH1 0x40 DUP2 DUP4 ADD SWAP3 DUP3 DUP2 MSTORE DUP6 MLOAD DUP1 SWAP5 MSTORE ADD SWAP4 ADD SWAP2 PUSH0 JUMPDEST DUP3 DUP2 LT PUSH2 0x350B JUMPI POP POP POP POP SWAP1 JUMP JUMPDEST DUP4 MLOAD PUSH1 0x1 PUSH1 0x1 PUSH1 0xA0 SHL SUB AND DUP6 MSTORE SWAP4 DUP2 ADD SWAP4 SWAP3 DUP2 ADD SWAP3 PUSH1 0x1 ADD PUSH2 0x34FD JUMP JUMPDEST PUSH1 0x20 DUP1 DUP3 ADD SWAP1 DUP1 DUP4 MSTORE DUP4 MLOAD DUP1 SWAP3 MSTORE DUP1 PUSH1 0x40 DUP1 SWAP5 ADD SWAP5 ADD SWAP3 PUSH0 SWAP1 JUMPDEST DUP4 DUP3 LT PUSH2 0x3551 JUMPI POP POP POP POP POP SWAP1 JUMP JUMPDEST DUP5 MLOAD DUP1 MLOAD DUP8 MSTORE DUP1 DUP5 ADD MLOAD PUSH1 0x1 PUSH1 0x1 PUSH1 0xA0 SHL SUB SWAP1 DUP2 AND DUP9 DUP7 ADD MSTORE DUP2 DUP4 ADD MLOAD AND DUP8 DUP4 ADD MSTORE PUSH1 0x60 DUP1 DUP3 ADD MLOAD SWAP1 DUP9 ADD MSTORE PUSH1 0x80 DUP1 DUP3 ADD MLOAD SWAP1 DUP9 ADD MSTORE PUSH1 0xA0 SWAP1 DUP2 ADD MLOAD ISZERO ISZERO SWAP1 DUP8 ADD MSTORE PUSH1 0xC0 SWAP1 SWAP6 ADD SWAP5 SWAP4 DUP3 ADD SWAP4 PUSH1 0x1 SWAP1 SWAP2 ADD SWAP1 PUSH2 0x3542 JUMP JUMPDEST DUP1 SLOAD DUP3 LT ISZERO PUSH2 0x1BC3 JUMPI PUSH0 MSTORE PUSH1 0x6 PUSH1 0x20 PUSH0 KECCAK256 SWAP2 MUL ADD SWAP1 PUSH0 SWAP1 JUMP JUMPDEST PUSH1 0x40 SWAP1 PUSH1 0x3 NOT ADD SLT PUSH2 0x322 JUMPI PUSH1 0x4 CALLDATALOAD SWAP1 PUSH1 0x24 CALLDATALOAD SWAP1 JUMP JUMPDEST ISZERO PUSH2 0x35DE JUMPI JUMP JUMPDEST PUSH1 0x40 MLOAD PUSH3 0x461BCD PUSH1 0xE5 SHL DUP2 MSTORE PUSH1 0x20 PUSH1 0x4 DUP3 ADD MSTORE PUSH1 0xE PUSH1 0x24 DUP3 ADD MSTORE PUSH14 0x139BDD08185D5D1A1BDC9A5E9959 PUSH1 0x92 SHL PUSH1 0x44 DUP3 ADD MSTORE PUSH1 0x64 SWAP1 REVERT JUMPDEST SWAP1 PUSH1 0xFF DUP1 NOT DUP4 SLOAD AND SWAP2 ISZERO ISZERO AND OR SWAP1 SSTORE JUMP JUMPDEST PUSH0 NOT DUP2 EQ PUSH2 0x8B2 JUMPI PUSH1 0x1 ADD SWAP1 JUMP JUMPDEST PUSH1 0x1 PUSH1 0x1 PUSH1 0x40 SHL SUB DUP2 GT PUSH2 0xE79 JUMPI PUSH1 0x5 SHL PUSH1 0x20 ADD SWAP1 JUMP JUMPDEST DUP1 SLOAD PUSH1 0x1 PUSH1 0x40 SHL DUP2 LT ISZERO PUSH2 0xE79 JUMPI PUSH2 0x3667 SWAP2 PUSH1 0x1 DUP3 ADD DUP2 SSTORE PUSH2 0x35A8 JUMP JUMPDEST PUSH2 0x1553 JUMPI DUP2 MLOAD DUP2 SSTORE PUSH1 0x20 DUP3 ADD MLOAD PUSH1 0x1 DUP3 ADD DUP1 SLOAD PUSH1 0x1 PUSH1 0x1 PUSH1 0xA0 SHL SUB SWAP3 DUP4 AND PUSH1 0x1 PUSH1 0x1 PUSH1 0xA0 SHL SUB NOT SWAP2 DUP3 AND OR SWAP1 SWAP2 SSTORE PUSH1 0x40 DUP5 ADD MLOAD PUSH1 0x2 DUP5 ADD DUP1 SLOAD SWAP2 SWAP1 SWAP4 AND SWAP2 AND OR SWAP1 SSTORE PUSH1 0x60 DUP3 ADD MLOAD PUSH1 0x3 DUP3 ADD SSTORE PUSH1 0x80 DUP3 ADD MLOAD PUSH1 0x4 DUP3 ADD SSTORE PUSH1 0xA0 SWAP1 SWAP2 ADD MLOAD PUSH2 0x3423 SWAP2 SWAP1 ISZERO ISZERO SWAP1 PUSH1 0x5 ADD PUSH2 0x3614 JUMP JUMPDEST PUSH0 SLOAD PUSH1 0x1 PUSH1 0x1 PUSH1 0xA0 SHL SUB AND CALLER SUB PUSH2 0x36E6 JUMPI JUMP JUMPDEST PUSH1 0x64 PUSH1 0x40 MLOAD PUSH3 0x461BCD PUSH1 0xE5 SHL DUP2 MSTORE PUSH1 0x20 PUSH1 0x4 DUP3 ADD MSTORE PUSH1 0x20 PUSH1 0x24 DUP3 ADD MSTORE PUSH32 0x4F776E61626C653A2063616C6C6572206973206E6F7420746865206F776E6572 PUSH1 0x44 DUP3 ADD MSTORE REVERT INVALID SSTORE DELEGATECALL BASEFEE REVERT 0xEA SWAP9 0xC4 0xD2 SWAP15 0xB3 BLOCKHASH PUSH22 0x7EF0A66CD03DBB9538908A6A81D96026B71EC4758BE0 SMOD SWAP13 MSTORE8 AND MSIZE EQ SGT PREVRANDAO 0xCD 0x1F 0xD0 LOG4 CALLCODE DUP5 NOT BLOBHASH PUSH32 0x9722A3DAAFE3B4186F6B6457E0CE6D7B5282BD9A3661AE061FEED1DBDA4E52AB SMOD EXTCODESIZE 0x1F SWAP3 DUP6 0xBE PUSH15 0x155D9C38D4ECA164736F6C63430008 XOR STOP EXP "},"methodIdentifiers":{"addAuthorizedContract(address)":"98eaa4a7","addPurchaseHistory(address,address,(uint256,address,address,uint256,uint256,bool))":"eaae7562","addReview(uint256,(uint256,address,uint256,string,bool,uint256))":"8061bc93","addSellerProduct(address,uint256)":"1294b01d","authorizedContracts(address)":"d5b9221b","buyerPurchaseHistory(address,uint256)":"9fa44dbf","categories(uint256)":"c6cdbe5e","categoryCounter()":"03624fc0","deductSellerBalance(address,uint256)":"c80bba8a","getAllRegisteredSellers()":"5ad6a580","getBuyerPurchases(address)":"85a34393","getCategory(uint256)":"f3052d26","getPendingVerificationUsers()":"6f68ef3a","getProduct(uint256)":"b9db15b4","getProductReviews(uint256)":"46a4237b","getSeller(address)":"a323d29e","getSellerProducts(address)":"e6a93e16","getSellerPurchases(address)":"c258f531","getUser(address)":"6f77926b","incrementCategories()":"0c04acc6","incrementProducts()":"26d36bbc","incrementReviews()":"5f638d62","incrementSales()":"865d2197","owner()":"8da5cb5b","pendingVerificationUsers(uint256)":"05a2c9cf","productCategories(uint256)":"540f1c3c","productExists(uint256)":"af55ed64","productReviews(uint256,uint256)":"f2943dce","products(uint256)":"7acc0b20","registeredSellers(address)":"c64b8a8f","registeredSellersList(uint256)":"4f1c441e","registeredUsers(address)":"0e50cee5","removeAuthorizedContract(address)":"e6b165ed","renounceOwnership()":"715018a6","sellerBalances(address)":"607eb4e4","sellerProducts(address,uint256)":"c1302b34","sellerProfiles(address)":"9196dfcb","sellerPurchaseHistory(address,uint256)":"e585cb2c","sellerStatus(address)":"45de84db","servicePct()":"e01ef6e6","setCategory(uint256,(uint256,string,bool))":"28a22b87","setProduct(uint256,(uint256,address,string,string,string,uint256,uint256,uint256,uint256,bool))":"06ad0cb9","setProductCategory(uint256,uint256)":"c262f298","setSeller(address,(string,string,string,string,string,bool,uint256))":"5074a29e","setSellerStatus(address,uint8)":"aa279059","setServicePct(uint256)":"2aafa807","setUser(address,(string,string,string,bool))":"59dd665f","totalProducts()":"9b9d326d","totalReviews()":"e2367890","totalSales()":"6605ff66","transferOwnership(address)":"f2fde38b","updateSellerBalance(address,uint256)":"07c115ed","userProfiles(address)":"332d56d7","usersList(uint256)":"502aa3b5","withdrawServiceFees()":"d72e481d"}}}}}