{"contracts/CryptoMartProxy.sol":{"CryptoMart":{"abi":[{"inputs":[{"internalType":"address","name":"_registry","type":"address"}],"stateMutability":"nonpayable","type":"constructor"},{"anonymous":false,"inputs":[{"indexed":true,"internalType":"address","name":"seller","type":"address"},{"indexed":false,"internalType":"uint256","name":"amount","type":"uint256"}],"name":"BalanceWithdrawn","type":"event"},{"anonymous":false,"inputs":[{"indexed":true,"internalType":"uint256","name":"categoryId","type":"uint256"},{"indexed":false,"internalType":"string","name":"name","type":"string"}],"name":"CategoryCreated","type":"event"},{"anonymous":false,"inputs":[{"indexed":true,"internalType":"address","name":"previousOwner","type":"address"},{"indexed":true,"internalType":"address","name":"newOwner","type":"address"}],"name":"OwnershipTransferred","type":"event"},{"anonymous":false,"inputs":[{"indexed":true,"internalType":"uint256","name":"productId","type":"uint256"},{"indexed":true,"internalType":"address","name":"seller","type":"address"},{"indexed":false,"internalType":"string","name":"name","type":"string"},{"indexed":false,"internalType":"uint256","name":"cost","type":"uint256"}],"name":"ProductCreated","type":"event"},{"anonymous":false,"inputs":[{"indexed":true,"internalType":"uint256","name":"productId","type":"uint256"}],"name":"ProductDeleted","type":"event"},{"anonymous":false,"inputs":[{"indexed":true,"internalType":"uint256","name":"productId","type":"uint256"},{"indexed":true,"internalType":"address","name":"buyer","type":"address"},{"indexed":true,"internalType":"address","name":"seller","type":"address"}],"name":"ProductPurchased","type":"event"},{"anonymous":false,"inputs":[{"indexed":true,"internalType":"uint256","name":"productId","type":"uint256"}],"name":"ProductUpdated","type":"event"},{"anonymous":false,"inputs":[{"indexed":true,"internalType":"uint256","name":"productId","type":"uint256"},{"indexed":true,"internalType":"address","name":"reviewer","type":"address"},{"indexed":false,"internalType":"uint256","name":"rating","type":"uint256"}],"name":"ReviewCreated","type":"event"},{"anonymous":false,"inputs":[{"indexed":true,"internalType":"address","name":"seller","type":"address"},{"indexed":false,"internalType":"string","name":"businessName","type":"string"}],"name":"SellerRegistered","type":"event"},{"anonymous":false,"inputs":[{"indexed":true,"internalType":"address","name":"user","type":"address"},{"indexed":false,"internalType":"string","name":"name","type":"string"}],"name":"UserRegistered","type":"event"},{"inputs":[{"internalType":"uint256","name":"productId","type":"uint256"}],"name":"buyProduct","outputs":[],"stateMutability":"payable","type":"function"},{"inputs":[{"internalType":"uint256","name":"newPct","type":"uint256"}],"name":"changeServicePct","outputs":[],"stateMutability":"nonpayable","type":"function"},{"inputs":[],"name":"coreContract","outputs":[{"internalType":"contract CryptoMartCore","name":"","type":"address"}],"stateMutability":"view","type":"function"},{"inputs":[{"internalType":"string","name":"name","type":"string"}],"name":"createCategory","outputs":[],"stateMutability":"nonpayable","type":"function"},{"inputs":[{"internalType":"string","name":"name","type":"string"},{"internalType":"string","name":"description","type":"string"},{"internalType":"string","name":"image","type":"string"},{"internalType":"uint256","name":"categoryId","type":"uint256"},{"internalType":"uint256","name":"cost","type":"uint256"},{"internalType":"uint256","name":"stock","type":"uint256"}],"name":"createProduct","outputs":[],"stateMutability":"nonpayable","type":"function"},{"inputs":[{"internalType":"uint256","name":"productId","type":"uint256"},{"internalType":"uint256","name":"rating","type":"uint256"},{"internalType":"string","name":"comment","type":"string"}],"name":"createReview","outputs":[],"stateMutability":"nonpayable","type":"function"},{"inputs":[{"internalType":"uint256","name":"","type":"uint256"},{"internalType":"string[]","name":"names","type":"string[]"}],"name":"createSubCategoriesBulk","outputs":[],"stateMutability":"nonpayable","type":"function"},{"inputs":[{"internalType":"uint256","name":"","type":"uint256"},{"internalType":"string","name":"name","type":"string"}],"name":"createSubCategory","outputs":[],"stateMutability":"nonpayable","type":"function"},{"inputs":[{"internalType":"uint256","name":"id","type":"uint256"}],"name":"deleteCategory","outputs":[],"stateMutability":"nonpayable","type":"function"},{"inputs":[{"internalType":"uint256","name":"productId","type":"uint256"}],"name":"deleteProduct","outputs":[],"stateMutability":"nonpayable","type":"function"},{"inputs":[{"internalType":"uint256","name":"productId","type":"uint256"},{"internalType":"uint256","name":"reviewId","type":"uint256"}],"name":"deleteReview","outputs":[],"stateMutability":"nonpayable","type":"function"},{"inputs":[{"internalType":"uint256","name":"id","type":"uint256"}],"name":"deleteSubCategory","outputs":[],"stateMutability":"nonpayable","type":"function"},{"inputs":[],"name":"getAllCategories","outputs":[{"components":[{"internalType":"uint256","name":"id","type":"uint256"},{"internalType":"string","name":"name","type":"string"},{"internalType":"bool","name":"isActive","type":"bool"}],"internalType":"struct CryptoMartStorage.CategoryStruct[]","name":"","type":"tuple[]"}],"stateMutability":"view","type":"function"},{"inputs":[],"name":"getAllProducts","outputs":[{"components":[{"internalType":"uint256","name":"id","type":"uint256"},{"internalType":"address","name":"seller","type":"address"},{"internalType":"string","name":"name","type":"string"},{"internalType":"string","name":"description","type":"string"},{"internalType":"string","name":"image","type":"string"},{"internalType":"uint256","name":"categoryId","type":"uint256"},{"internalType":"uint256","name":"cost","type":"uint256"},{"internalType":"uint256","name":"stock","type":"uint256"},{"internalType":"uint256","name":"timestamp","type":"uint256"},{"internalType":"bool","name":"deleted","type":"bool"}],"internalType":"struct CryptoMartStorage.ProductStruct[]","name":"","type":"tuple[]"}],"stateMutability":"view","type":"function"},{"inputs":[],"name":"getAllRegisteredSellers","outputs":[{"internalType":"address[]","name":"","type":"address[]"}],"stateMutability":"view","type":"function"},{"inputs":[],"name":"getAllSellers","outputs":[{"internalType":"address[]","name":"","type":"address[]"}],"stateMutability":"view","type":"function"},{"inputs":[{"internalType":"address","name":"buyer","type":"address"}],"name":"getBuyerPurchaseHistory","outputs":[{"components":[{"internalType":"uint256","name":"productId","type":"uint256"},{"internalType":"address","name":"buyer","type":"address"},{"internalType":"address","name":"seller","type":"address"},{"internalType":"uint256","name":"totalAmount","type":"uint256"},{"internalType":"uint256","name":"timestamp","type":"uint256"},{"internalType":"bool","name":"isDelivered","type":"bool"}],"internalType":"struct CryptoMartStorage.PurchaseStruct[]","name":"","type":"tuple[]"}],"stateMutability":"view","type":"function"},{"inputs":[{"internalType":"uint256","name":"id","type":"uint256"}],"name":"getCategory","outputs":[{"internalType":"uint256","name":"","type":"uint256"},{"internalType":"string","name":"","type":"string"},{"internalType":"bool","name":"","type":"bool"},{"internalType":"uint256[]","name":"","type":"uint256[]"}],"stateMutability":"view","type":"function"},{"inputs":[],"name":"getMyProducts","outputs":[{"components":[{"internalType":"uint256","name":"id","type":"uint256"},{"internalType":"address","name":"seller","type":"address"},{"internalType":"string","name":"name","type":"string"},{"internalType":"string","name":"description","type":"string"},{"internalType":"string","name":"image","type":"string"},{"internalType":"uint256","name":"categoryId","type":"uint256"},{"internalType":"uint256","name":"cost","type":"uint256"},{"internalType":"uint256","name":"stock","type":"uint256"},{"internalType":"uint256","name":"timestamp","type":"uint256"},{"internalType":"bool","name":"deleted","type":"bool"}],"internalType":"struct CryptoMartStorage.ProductStruct[]","name":"","type":"tuple[]"}],"stateMutability":"view","type":"function"},{"inputs":[],"name":"getPendingVerificationUsers","outputs":[{"internalType":"address[]","name":"","type":"address[]"}],"stateMutability":"view","type":"function"},{"inputs":[{"internalType":"uint256","name":"productId","type":"uint256"}],"name":"getProduct","outputs":[{"components":[{"internalType":"uint256","name":"id","type":"uint256"},{"internalType":"address","name":"seller","type":"address"},{"internalType":"string","name":"name","type":"string"},{"internalType":"string","name":"description","type":"string"},{"internalType":"string","name":"image","type":"string"},{"internalType":"uint256","name":"categoryId","type":"uint256"},{"internalType":"uint256","name":"cost","type":"uint256"},{"internalType":"uint256","name":"stock","type":"uint256"},{"internalType":"uint256","name":"timestamp","type":"uint256"},{"internalType":"bool","name":"deleted","type":"bool"}],"internalType":"struct CryptoMartStorage.ProductStruct","name":"","type":"tuple"}],"stateMutability":"view","type":"function"},{"inputs":[{"internalType":"uint256","name":"categoryId","type":"uint256"}],"name":"getProductsByCategory","outputs":[{"components":[{"internalType":"uint256","name":"id","type":"uint256"},{"internalType":"address","name":"seller","type":"address"},{"internalType":"string","name":"name","type":"string"},{"internalType":"string","name":"description","type":"string"},{"internalType":"string","name":"image","type":"string"},{"internalType":"uint256","name":"categoryId","type":"uint256"},{"internalType":"uint256","name":"cost","type":"uint256"},{"internalType":"uint256","name":"stock","type":"uint256"},{"internalType":"uint256","name":"timestamp","type":"uint256"},{"internalType":"bool","name":"deleted","type":"bool"}],"internalType":"struct CryptoMartStorage.ProductStruct[]","name":"","type":"tuple[]"}],"stateMutability":"view","type":"function"},{"inputs":[],"name":"getRegistryInfo","outputs":[{"internalType":"address","name":"registryAddress","type":"address"},{"internalType":"bool","name":"isConfigured","type":"bool"},{"internalType":"uint256","name":"deploymentTime","type":"uint256"},{"internalType":"string","name":"version","type":"string"}],"stateMutability":"view","type":"function"},{"inputs":[{"internalType":"uint256","name":"productId","type":"uint256"}],"name":"getReviews","outputs":[{"components":[{"internalType":"uint256","name":"reviewId","type":"uint256"},{"internalType":"address","name":"reviewer","type":"address"},{"internalType":"uint256","name":"rating","type":"uint256"},{"internalType":"string","name":"comment","type":"string"},{"internalType":"bool","name":"deleted","type":"bool"},{"internalType":"uint256","name":"timestamp","type":"uint256"}],"internalType":"struct CryptoMartStorage.ReviewStruct[]","name":"","type":"tuple[]"}],"stateMutability":"view","type":"function"},{"inputs":[{"internalType":"address","name":"seller","type":"address"}],"name":"getSeller","outputs":[{"components":[{"internalType":"string","name":"businessName","type":"string"},{"internalType":"string","name":"description","type":"string"},{"internalType":"string","name":"email","type":"string"},{"internalType":"string","name":"phone","type":"string"},{"internalType":"string","name":"logo","type":"string"},{"internalType":"bool","name":"isRegistered","type":"bool"},{"internalType":"uint256","name":"registeredAt","type":"uint256"}],"internalType":"struct CryptoMartStorage.SellerProfile","name":"","type":"tuple"},{"internalType":"enum CryptoMartStorage.SellerStatus","name":"","type":"uint8"}],"stateMutability":"view","type":"function"},{"inputs":[{"internalType":"address","name":"seller","type":"address"}],"name":"getSellerBalance","outputs":[{"internalType":"uint256","name":"","type":"uint256"}],"stateMutability":"view","type":"function"},{"inputs":[{"internalType":"address","name":"seller","type":"address"}],"name":"getSellerProducts","outputs":[{"components":[{"internalType":"uint256","name":"id","type":"uint256"},{"internalType":"address","name":"seller","type":"address"},{"internalType":"string","name":"name","type":"string"},{"internalType":"string","name":"description","type":"string"},{"internalType":"string","name":"image","type":"string"},{"internalType":"uint256","name":"categoryId","type":"uint256"},{"internalType":"uint256","name":"cost","type":"uint256"},{"internalType":"uint256","name":"stock","type":"uint256"},{"internalType":"uint256","name":"timestamp","type":"uint256"},{"internalType":"bool","name":"deleted","type":"bool"}],"internalType":"struct CryptoMartStorage.ProductStruct[]","name":"","type":"tuple[]"}],"stateMutability":"view","type":"function"},{"inputs":[{"internalType":"address","name":"seller","type":"address"}],"name":"getSellerProfile","outputs":[{"components":[{"internalType":"string","name":"businessName","type":"string"},{"internalType":"string","name":"description","type":"string"},{"internalType":"string","name":"email","type":"string"},{"internalType":"string","name":"phone","type":"string"},{"internalType":"string","name":"logo","type":"string"},{"internalType":"bool","name":"isRegistered","type":"bool"},{"internalType":"uint256","name":"registeredAt","type":"uint256"}],"internalType":"struct CryptoMartStorage.SellerProfile","name":"","type":"tuple"}],"stateMutability":"view","type":"function"},{"inputs":[{"internalType":"address","name":"seller","type":"address"}],"name":"getSellerPurchaseHistory","outputs":[{"components":[{"internalType":"uint256","name":"productId","type":"uint256"},{"internalType":"address","name":"buyer","type":"address"},{"internalType":"address","name":"seller","type":"address"},{"internalType":"uint256","name":"totalAmount","type":"uint256"},{"internalType":"uint256","name":"timestamp","type":"uint256"},{"internalType":"bool","name":"isDelivered","type":"bool"}],"internalType":"struct CryptoMartStorage.PurchaseStruct[]","name":"","type":"tuple[]"}],"stateMutability":"view","type":"function"},{"inputs":[{"internalType":"address","name":"seller","type":"address"}],"name":"getSellerStatus","outputs":[{"internalType":"enum CryptoMartStorage.SellerStatus","name":"","type":"uint8"}],"stateMutability":"view","type":"function"},{"inputs":[{"internalType":"uint256","name":"","type":"uint256"}],"name":"getSubCategories","outputs":[{"internalType":"uint256[]","name":"","type":"uint256[]"}],"stateMutability":"pure","type":"function"},{"inputs":[{"internalType":"uint256","name":"id","type":"uint256"}],"name":"getSubCategory","outputs":[{"internalType":"uint256","name":"","type":"uint256"},{"internalType":"string","name":"","type":"string"},{"internalType":"uint256","name":"","type":"uint256"},{"internalType":"bool","name":"","type":"bool"}],"stateMutability":"view","type":"function"},{"inputs":[],"name":"getSystemStats","outputs":[{"internalType":"uint256","name":"totalProducts","type":"uint256"},{"internalType":"uint256","name":"totalSales","type":"uint256"},{"internalType":"uint256","name":"totalCategories","type":"uint256"},{"internalType":"uint256","name":"serviceFee","type":"uint256"}],"stateMutability":"view","type":"function"},{"inputs":[],"name":"getTotalProducts","outputs":[{"internalType":"uint256","name":"","type":"uint256"}],"stateMutability":"view","type":"function"},{"inputs":[],"name":"getTotalSales","outputs":[{"internalType":"uint256","name":"","type":"uint256"}],"stateMutability":"view","type":"function"},{"inputs":[{"internalType":"address","name":"user","type":"address"}],"name":"getUser","outputs":[{"components":[{"internalType":"string","name":"name","type":"string"},{"internalType":"string","name":"email","type":"string"},{"internalType":"string","name":"avatar","type":"string"},{"internalType":"bool","name":"isRegistered","type":"bool"}],"internalType":"struct CryptoMartStorage.UserProfile","name":"","type":"tuple"}],"stateMutability":"view","type":"function"},{"inputs":[],"name":"grantOwnerSellerAccess","outputs":[],"stateMutability":"nonpayable","type":"function"},{"inputs":[{"internalType":"uint256","name":"productId","type":"uint256"},{"internalType":"address","name":"buyer","type":"address"}],"name":"markPurchaseDelivered","outputs":[],"stateMutability":"nonpayable","type":"function"},{"inputs":[],"name":"owner","outputs":[{"internalType":"address","name":"","type":"address"}],"stateMutability":"view","type":"function"},{"inputs":[],"name":"refreshContractReferences","outputs":[],"stateMutability":"nonpayable","type":"function"},{"inputs":[{"internalType":"string","name":"businessName","type":"string"},{"internalType":"string","name":"description","type":"string"},{"internalType":"string","name":"email","type":"string"},{"internalType":"string","name":"phone","type":"string"},{"internalType":"string","name":"logo","type":"string"}],"name":"registerSeller","outputs":[],"stateMutability":"nonpayable","type":"function"},{"inputs":[{"internalType":"string","name":"name","type":"string"},{"internalType":"string","name":"email","type":"string"},{"internalType":"string","name":"avatar","type":"string"}],"name":"registerUser","outputs":[],"stateMutability":"nonpayable","type":"function"},{"inputs":[{"internalType":"address","name":"seller","type":"address"}],"name":"registeredSellers","outputs":[{"internalType":"bool","name":"","type":"bool"}],"stateMutability":"view","type":"function"},{"inputs":[{"internalType":"address","name":"user","type":"address"}],"name":"registeredUsers","outputs":[{"internalType":"bool","name":"","type":"bool"}],"stateMutability":"view","type":"function"},{"inputs":[],"name":"registry","outputs":[{"internalType":"contract CryptoMartRegistry","name":"","type":"address"}],"stateMutability":"view","type":"function"},{"inputs":[],"name":"renounceOwnership","outputs":[],"stateMutability":"nonpayable","type":"function"},{"inputs":[],"name":"servicePct","outputs":[{"internalType":"uint256","name":"","type":"uint256"}],"stateMutability":"view","type":"function"},{"inputs":[],"name":"storageContract","outputs":[{"internalType":"contract CryptoMartStorage","name":"","type":"address"}],"stateMutability":"view","type":"function"},{"inputs":[],"name":"transactionsContract","outputs":[{"internalType":"contract CryptoMartTransactions","name":"","type":"address"}],"stateMutability":"view","type":"function"},{"inputs":[{"internalType":"address","name":"newOwner","type":"address"}],"name":"transferOwnership","outputs":[],"stateMutability":"nonpayable","type":"function"},{"inputs":[{"internalType":"uint256","name":"id","type":"uint256"},{"internalType":"string","name":"name","type":"string"},{"internalType":"bool","name":"isActive","type":"bool"}],"name":"updateCategory","outputs":[],"stateMutability":"nonpayable","type":"function"},{"inputs":[{"internalType":"uint256","name":"productId","type":"uint256"},{"internalType":"string","name":"name","type":"string"},{"internalType":"string","name":"description","type":"string"},{"internalType":"string","name":"image","type":"string"},{"internalType":"uint256","name":"categoryId","type":"uint256"},{"internalType":"uint256","name":"cost","type":"uint256"},{"internalType":"uint256","name":"stock","type":"uint256"}],"name":"updateProduct","outputs":[],"stateMutability":"nonpayable","type":"function"},{"inputs":[{"internalType":"address","name":"seller","type":"address"},{"internalType":"enum CryptoMartStorage.SellerStatus","name":"status","type":"uint8"}],"name":"updateSellerStatus","outputs":[],"stateMutability":"nonpayable","type":"function"},{"inputs":[{"internalType":"uint256","name":"id","type":"uint256"},{"internalType":"string","name":"name","type":"string"},{"internalType":"bool","name":"isActive","type":"bool"}],"name":"updateSubCategory","outputs":[],"stateMutability":"nonpayable","type":"function"},{"inputs":[],"name":"withdraw","outputs":[],"stateMutability":"nonpayable","type":"function"},{"inputs":[],"name":"withdrawServiceFees","outputs":[],"stateMutability":"nonpayable","type":"function"}],"evm":{"bytecode":{"linkReferences":{},"object":"60a0346200009657601f620034e738819003918201601f19168301916001600160401b038311848410176200009a578084926020946040528339810103126200009657516001600160a01b0381169081900362000096576200006133620000ae565b6080526200006f33620000ae565b6040516133f29081620000f58239608051818181611b85015281816122a801526132440152f35b5f80fd5b634e487b7160e01b5f52604160045260245ffd5b5f80546001600160a01b039283166001600160a01b03198216811783559216907f8be0079c531659141344cd1fd0a4f28419497f9722a3daafe3b4186f6b6457e09080a356fe6080604081815260049081361015610015575f80fd5b5f925f3560e01c90816302ee3a521461270a5750806304a6f276146125a75780630e50cee51461250657806311aa5b341461248a57806311ce0267146124615783816316d81b38146123e25750806317e9854814610fd957806318bb35bd146122865780632148893f146121f95780632156a96c146121ad5783816324d41a0314612150575080632c7ea0b214612134578063317a082714611e7e5780633c2575d5146120d1578381633ccfd60b14612084575080634293e5ce14611fc9578381634e213d2014611f7457508063570aea8a14611f285780635ad6a58014611ed9578381635be2095914611e835750806366224d8e14611e7e5780636f2c859914611dd45780636f68ef3a14611d845780636f77926b14611bfa578063715018a614611bb45780637b10399914611b70578381637d3978db14611ae6575080637e8555ed14611962578381638642269e14611912575080638da5cb5b146118ea5783816397b6f3931461186a575080639b269b8f146117f45780639d4a2255146115df578063a323d29e1461153b578063a9ab7af21461121c578063b27e169714611193578063b9db15b4146110e0578063c0403e2714611085578063c64b8a8f14610fde578063ceca737f14610fd9578063d1ce59a714610e7e578063d2bc9d7814610d2d578063d637dcfa14610c1857838163d72e481d14610bb257508063dadd0a57146109c8578063dc2986821461087c578063e01ef6e6146107eb578063e17f94c0146107c2578063e6a93e161461075f578063e80db5db14610736578063eb11c4341461068357838163ec4cf85b1461053d578163ed90c7b71461049a57508063f2fde38b146103eb578063f3052d26146103245763fdca4ca31461029d575f80fd5b34610320578260031936011261032057600254815163fdca4ca360e01b815292849184919082906001600160a01b03165afa91821561031657836102ed94936102f1575b5050519182918261284f565b0390f35b61030e9293503d8091833e610306818361295c565b810190612dc2565b905f806102e1565b81513d85823e3d90fd5b8280fd5b5091346103e85760203660031901126103e8576002548351637982969360e11b81528335938101939093528190839060249082906001600160a01b03165afa9081156103dd57809181938280926103ad575b5050846103996102ed949596519687968752608060208801526080870190612796565b921515908501528382036060850152612c44565b915091506102ed93506103d292503d8091833e6103ca818361295c565b81019061314e565b91939091905f610376565b8351903d90823e3d90fd5b80fd5b509034610320576020366003190112610320576104066128b2565b9061040f61336e565b6001600160a01b039182169283156104485750505f548260018060a01b03198216175f55165f805160206133c68339815191525f80a380f35b906020608492519162461bcd60e51b8352820152602660248201527f4f776e61626c653a206e6577206f776e657220697320746865207a65726f206160448201526564647265737360d01b6064820152fd5b8281853461052c57602036600319011261052c576002548135936001600160a01b0390911691823b15610539578460248592838551968794859363ed90c7b760e01b85528401525af19081156105305750610518575b50807fc341cf326465fe622f86c468249e8c0cb03ed23ba376a6a34863a1374ac7d76991a280f35b610521906128c8565b61052c5781836104f0565b5080fd5b513d84823e3d90fd5b8380fd5b8281853461052c576003199260e036850112610320578135936001600160401b039060243582811161067f57610576903690860161299a565b9060443583811161067b5761058e903690870161299a565b9260643590811161067b576105a6903690870161299a565b6002546001600160a01b03169190823b15610677576105f3966106128a938a979361060389958b519c8d9a8b998a9863ec4cf85b60e01b8a5289015260e0602489015260e4880190612796565b9084878303016044880152612796565b91848303016064850152612796565b608435608483015260a43560a483015260c43560c483015203925af19081156105305750610663575b50807feca6714fcf568fb34cf9db4a414cb0cc48e93c5d4e1ba0582a46ea3704cf24d591a280f35b61066c906128c8565b61052c57818361063b565b8780fd5b8680fd5b8580fd5b5082903461052c5760209283600319360112610320576106a16128b2565b6002548351633ac4710d60e21b81526001600160a01b03928316848201529491869186916024918391165afa93841561072a5781946106ec575b5050506106ea90518092612c23565bf35b90919293508481813d8311610723575b610706818361295c565b8101031261052c5751918210156103e85750906106ea84806106db565b503d6106fc565b508251903d90823e3d90fd5b83823461052c578160031936011261052c5760025490516001600160a01b039091168152602090f35b5034610320576020366003190112610320578261077a6128b2565b60025483516373549f0b60e11b81526001600160a01b039283169581019590955284916024918391165afa91821561031657836102ed94936102f1575050519182918261284f565b83823461052c578160031936011261052c5760035490516001600160a01b039091168152602090f35b5082903461052c578160031936011261052c57600154815163700f7b7360e11b81529360209185919082906001600160a01b03165afa9182156108715791610838575b6020925051908152f35b90506020823d602011610869575b816108536020938361295c565b8101031261086557602091519061082e565b5f80fd5b3d9150610846565b9051903d90823e3d90fd5b509034610320576020806003193601126105395781356001600160401b0381116109c4576108ad903690840161299a565b906108b661336e565b6002546001600160a01b0390811690813b1561067b57868087518094636e14c34160e11b825286898301528183816108f1602482018c612796565b03925af19283156109b857849361099f575b505060015416855194858092620d893f60e61b82525afa928315610995578593610964575b5061095e7f11c167cc9b439f0ad8bec5588159f1b06b813bc38d50c867a41b23b077be2c1a939451928284938452830190612796565b0390a280f35b92508083813d831161098e575b61097b818361295c565b810103126108655791519161095e610928565b503d610971565b84513d87823e3d90fd5b6109ab919293506128c8565b61067f578190865f610903565b508651903d90823e3d90fd5b8480fd5b5091903461052c578160031936011261052c57600254835163dadd0a5760e01b8152919083908390839082906001600160a01b03165afa918215610ba8578392610a8a575b5050825191602080840190808552835180925285850181878460051b880101950193965b838810610a3e5786860387f35b90919293948380600192603f198a82030186528851908580610a7160608551855286860151908088870152850190612796565b9301511515910152970193019701969093929193610a31565b9091503d8084833e610a9c818361295c565b81019160209182818503126109c45780516001600160401b039182821161067b57019184601f8401121561067f57825191610ad683612c77565b95610ae38951978861295c565b838752858088019460051b86010194818611610ba457868101945b868610610b145750505050505050505f80610a0d565b8551848111610ba0578201606080601f198387030112610b9c578c519181830183811088821117610b89578e528a81015183528d810151878111610b8557610b768f919383610b6c8f9896898c91819a980101612ca2565b8786015201612ce7565b90820152815201950194610afe565b8d80fd5b604189634e487b7160e01b5f525260245ffd5b8b80fd5b8a80fd5b8880fd5b84513d85823e3d90fd5b80848434610c145782600319360112610c14576001546001600160a01b031691823b15610c0f57815163d72e481d60e01b81529284918491829084905af19081156105305750610bff5750f35b610c08906128c8565b6103e85780f35b505050fd5b5050fd5b5034610320578260031960603682011261052c576001600160401b0390843582811161053957610c4b903690870161299a565b946024358381116109c457610c63903690830161299a565b926044359081116109c457610c7b903690830161299a565b6002546001600160a01b031690813b1561067f57856105f393610cc782968b946106038c519a8b998a988997637f34e14b60e11b89523390890152608060248901526084880190612796565b03925af18015610d2357610d0f575b50507f48cac28ad4dc618e15f4c2dd5e97751182f166de97b25618318b2112aa951a2f9051602081528061095e33946020830190612796565b610d18906128c8565b61032057825f610cd6565b83513d84823e3d90fd5b5090346103205781600319360112610320576024803592906001600160401b0380851161067f573660238601121561067f578484013590610d6d82612c77565b91610d7a8551938461295c565b8083526020966024602085019260051b82010192368411610e7a579089959493929160248201925b848410610e46575050505050610db661336e565b825b8151811015610e42576002546001600160a01b0316610dd78284612e57565b5190803b1561067f57610e089186918a838b8b5196879586948593636e14c34160e11b85528401528b830190612796565b03925af18015610e3857908591610e24575b5050600101610db8565b610e2d906128c8565b61053957835f610e1a565b86513d87823e3d90fd5b8380f35b90919280949596975035828111610b9c578a91610e6983928a369188010161299a565b815201930191908a96959493610da2565b8980fd5b5082903461052c578160031936011261052c576002548151632b85754560e11b81529260209290916001600160a01b0390811684868881845afa958615610f9857908792918597610fa5575b508590845193848092630855aa5b60e21b82525afa918215610f98579085918593610f67575b506001541683519788809263700f7b7360e11b82525afa938415610f5b578394610f2b575b6080965082519586528501528301526060820152f35b80945086813d8311610f54575b610f42818361295c565b81010312610865576080955193610f15565b503d610f38565b505051903d90823e3d90fd5b8281939294503d8311610f91575b610f7f818361295c565b81010312610865578490519188610ef0565b503d610f75565b50505051903d90823e3d90fd5b86809298508194503d8311610fd2575b610fbf818361295c565b8101031261086557848792519690610eca565b503d610fb5565b6129e0565b5082903461052c57602092836003193601126103205783610ffd6128b2565b600154845163c64b8a8f60e01b81526001600160a01b039283169481019490945283916024918391165afa92831561107a578093611040575b5050519015158152f35b909192508382813d8311611073575b611059818361295c565b810103126103e8575061106b90612ce7565b908380611036565b503d61104f565b8251903d90823e3d90fd5b5082903461052c57602036600319011261052c57805191602083016001600160401b038111848210176110cd576102ed94508252825251918291602083526020830190612c44565b604185634e487b7160e01b5f525260245ffd5b5082903461052c57602036600319011261052c576110fc612ea1565b506002548151632e76c56d60e21b81528435948101949094528290849060249082906001600160a01b03165afa91821561087157809261114c575b8151602080825281906102ed908201866127bb565b9091503d8082853e61115e818561295c565b83019260208185031261052c578051916001600160401b0383116103e857509261118c916102ed9401612cf4565b9083611137565b503461032057602036600319011261032057826111ae6128b2565b600354835163b27e169760e01b81526001600160a01b039283169581019590955284916024918391165afa91821561031657836102ed94936111f7575b50505191829182612adf565b6112149293503d8091833e61120c818361295c565b810190612eed565b905f806111eb565b509034610320576003199060c036830112610539576001600160401b0392813584811161067f57611250903690840161299a565b9260249485358181116106775761126a903690860161299a565b9060443590811161067757611282903690860161299a565b600154845163c64b8a8f60e01b81523387820152602098608435956001600160a01b03959094939092908616908b818481855afa908115611531578d916114f8575b50156114ba578751635191e94f60e11b8152338a820152908c908290849082905afa9081156114b0578c9161148c575b508881101561147a5760020361143f57908a939291856002541690813b1561067f57858a61134f8d97839761060360e0988f6105f390519c8b8e9c9a8d9b9963bdbe6f4f8d9b1b8b5233908b015289015260e4880190612796565b60643560848301528a60a483015260a43560c483015203925af1801561143557908893929161141c575b505060015416835194858092639b9d326d60e01b82525afa9283156114125786936113e1575b506113d47f5f25c590b5c7f62ed4186adca32d3118caef07e5020c6cc8268d4136df2cfef89394835193808552840190612796565b948201528033940390a380f35b92508483813d831161140b575b6113f8818361295c565b81010312610865579151916113d461139f565b503d6113ee565b82513d88823e3d90fd5b611428919293506128c8565b61067b578590875f611379565b85513d84823e3d90fd5b8760176064928c8a519362461bcd60e51b85528401528201527626bab9ba103132903b32b934b334b2b21039b2b63632b960491b6044820152fd5b50634e487b7160e01b8b52602188528afd5b6114a891503d808e833e6114a0818361295c565b8101906131f4565b90505f6112f4565b88513d8e823e3d90fd5b875162461bcd60e51b8152808a018c90526019818401527826bab9ba103132903932b3b4b9ba32b932b21039b2b63632b960391b6044820152606490fd5b90508b81813d831161152a575b61150f818361295c565b810103126115265761152090612ce7565b5f6112c4565b8c80fd5b503d611505565b89513d8f823e3d90fd5b50903461032057602036600319011261032057826115576128b2565b61155f612fc8565b506002548451635191e94f60e11b81526001600160a01b039283169481019490945283916024918391165afa908115610f5b578380926115bd575b50506102ed6115b28351948486958652850190612b5f565b916020840190612c23565b9091506115d59293503d8091833e6114a0818361295c565b9190915f8061159a565b5091903461052c5760209283600319360112610320576003548151639d4a225560e01b81528335938101939093526001600160a01b03949084908490602490829089165afa9283156117ea5784936116d1575b5092908051938085019181865284518093528086019082818560051b890101960194975b8489106116635787870388f35b9091929394958480600192603f198b82030187528951906116a960c083518352878585015116858401528884015189840152606090808286015192850152830190612796565b9160808082015115159083015260a08091015191015298019401980197919094939294611656565b9092503d8085833e6116e3818361295c565b810183828203126109c45781516001600160401b039283821161067b570181601f8201121561067f57805161171781612c77565b936117248651958661295c565b818552868086019260051b84010192848411610ba457878101925b84841061175357505050505050915f611632565b8351838111610ba057820160c09081601f19828a030112610b9c5789519161177a8361290a565b8b820151835261178b8b8301612c8e565b8c840152606091828101518c850152608092838201518881116117e657918e969492916117bf8d8980999795850101612ca2565b9085015260a0926117d1848301612ce7565b9085015201519082015281520193019261173f565b8f80fd5b82513d86823e3d90fd5b50346103205782600319360112610320576002548151639b269b8f60e01b815292849184919082906001600160a01b03165afa91821561031657836102ed9493611845575b50505191829182612bdf565b6118629293503d8091833e61185a818361295c565b8101906130cd565b905f80611839565b80848434610c145780600319360112610c14576118856128b2565b60243590838210156109c45761189961336e565b6002546001600160a01b039190821690813b1561067b57866044926118d982968851998a9788966397b6f39360e01b885216908601526024850190612c23565b5af19081156105305750610bff5750f35b83823461052c578160031936011261052c57905490516001600160a01b039091168152602090f35b8084846020366003190112610c14576003546001600160a01b031691823b15610c0f5783906024835180958193634321134f60e11b835280359083015234905af19081156105305750610bff5750f35b503461032057826003199260a08436011261052c576001600160401b03813581811161053957611995903690840161299a565b946024358281116109c4576119ad903690850161299a565b9260443583811161067f576119c5903690830161299a565b60643584811161067b576119dc903690840161299a565b9360843590811161067b576119f4903690840161299a565b6002546001600160a01b031692909190833b1561067757611a8a611a4b958b94611a7b8b99611a6b8b978f611a5b90519e8f9d8e9c8d9b6339ace85360e21b8d5233908d015260c060248d015260c48c0190612796565b90888b83030160448c0152612796565b90868983030160648a0152612796565b9084878303016084880152612796565b918483030160a4850152612796565b03925af18015610d2357611ad2575b50507fecef9454c60fab6a60b6f2aa319263c0f711cdb927c213e76687f7853b5978429051602081528061095e33946020830190612796565b611adb906128c8565b61032057825f611a99565b80848434610c145780600319360112610c14576024356001600160401b038111610c0f57611b17903690840161299a565b91611b2061336e565b6002546001600160a01b031692833b156109c457611b5d936020868094865197889586948593636e14c34160e11b85528401526024830190612796565b03925af19081156105305750610bff5750f35b83823461052c578160031936011261052c57517f00000000000000000000000000000000000000000000000000000000000000006001600160a01b03168152602090f35b83346103e857806003193601126103e857611bcd61336e565b5f80546001600160a01b0319811682556001600160a01b03165f805160206133c68339815191528280a380f35b5091903461052c57602091826003193601126103e857611c186128b2565b9080855192611c26846128ef565b81606085818097528189820152818a8201520152602460018060a01b0391826002541689519788948593636f77926b60e01b855216908301525afa928315611d78578193611ccb575b5050611cbd8451948486958652611cab611c9486516080848a015260a0890190612796565b9186015191601f19928389830301858a0152612796565b91850151908683030184870152612796565b910151151560808301520390f35b909192503d8083833e611cde818361295c565b810184828203126103205781516001600160401b03928382116109c457019160808383031261053957865193611d13856128ef565b835182811161052c5783611d28918601612ca2565b85528684015182811161052c5783611d41918601612ca2565b87860152878401519182116103e8575091611d628592611d6c948301612ca2565b8785015201612ce7565b82820152905f80611c6f565b508451903d90823e3d90fd5b503461032057826003193601126103205760025481516337b4779d60e11b815292849184919082906001600160a01b03165afa91821561031657836102ed94936118455750505191829182612bdf565b5082903461052c57602036600319011261052c576002548151637982969360e11b81528435948101949094528290849060249082906001600160a01b03165afa8015611e73578280948192611e4f575b50611e4083519586958652608060208701526080860190612796565b92840152151560608301520390f35b91509250611e689193503d8084833e6103ca818361295c565b509093919285611e24565b5051903d90823e3d90fd5b612a44565b80848434610c14576020366003190112610c14576001546001600160a01b031691823b15610c0f5783926024849284519586938492632aafa80760e01b84528035908401525af19081156105305750610bff5750f35b5034610320578260031936011261032057600254815162b5ad4b60e71b815292849184919082906001600160a01b03165afa91821561031657836102ed94936118455750505191829182612bdf565b5082903461052c578160031936011261052c576002548151632b85754560e11b81529360209185919082906001600160a01b03165afa9182156108715791610838576020925051908152f35b80848434610c145782600319360112610c1457611f8f61336e565b6002546001600160a01b031691823b15610c0f57815163027109e960e51b81529284918491829084905af19081156105305750610bff5750f35b5082903461052c57602036600319011261052c5781611fe66128b2565b611fee612fc8565b506002548351632149f2e760e11b81526001600160a01b039283169681019690965285916024918391165afa91821561087157809261203d575b8151602080825281906102ed90820186612b5f565b9091503d8082853e61204f818561295c565b83019260208185031261052c578051916001600160401b0383116103e857509261207d916102ed9401612ffe565b9083612028565b80848434610c145782600319360112610c14576003546001600160a01b031691823b15610c0f578151633ccfd60b60e01b81529284918491829084905af19081156105305750610bff5750f35b503461032057602036600319011261032057826120ec6128b2565b6003548351633c2575d560e01b81526001600160a01b039283169581019590955284916024918391165afa91821561031657836102ed94936111f75750505191829182612adf565b83346103e857806003193601126103e85761214d61322d565b80f35b80848434610c145780600319360112610c14576003546001600160a01b031691823b15610c0f57839260448492845195869384926324d41a0360e01b845280359084015260243560248401525af19081156105305750610bff5750f35b5082903461052c578160031936011261052c576002548151630855aa5b60e21b81529360209185919082906001600160a01b03165afa9182156108715791610838576020925051908152f35b5082903461052c576020928360031936011261032057836122186128b2565b6003548451632148893f60e01b81526001600160a01b039283169481019490945283916024918391165afa92831561107a5792612257575b5051908152f35b9091508281813d831161227f575b61226f818361295c565b8101031261086557519083612250565b503d612265565b5082903461052c578160031936011261052c578051631a740af960e31b8152917f00000000000000000000000000000000000000000000000000000000000000006001600160a01b0316916020919082858781875afa948515611e735782956123ab575b50805163bfc12c0560e01b815283818881885afa92831561107a579261237c575b508051928382016001600160401b03811185821017612369576102ed959697508252600f84526e052656769737472792076312e302e3608c1b8185015281519687968752151590860152840152608060608401526080830190612796565b604188634e487b7160e01b5f525260245ffd5b9091508281813d83116123a4575b612394818361295c565b810103126108655751908661230b565b503d61238a565b9094508281813d83116123db575b6123c3818361295c565b8101031261052c576123d490612ce7565b93866122ea565b503d6123b9565b80848434610c14576060366003190112610c14576044356001600160401b038111610c0f57612414903690840161299a565b6003546001600160a01b03169290833b156109c457611b5d9385928385518097819582946302db036760e31b84528035908401526024356024840152606060448401526064830190612796565b83823461052c578160031936011261052c5760015490516001600160a01b039091168152602090f35b50346108655780600319360112610865576024356001600160a01b038181169391849003610865576003541692833b156108655760445f92838551968794859363046a96cd60e21b855280359085015260248401525af19081156124fd57506124f1575080f35b6124fb91506128c8565b005b513d5f823e3d90fd5b509034610865576020918260031936011261086557826125246128b2565b6001548351630e50cee560e01b81526001600160a01b039283169581019590955284916024918391165afa91821561259d575f92612566575b50519015158152f35b9091508281813d8311612596575b61257e818361295c565b810103126108655761258f90612ce7565b908361255d565b503d612574565b50513d5f823e3d90fd5b50346108655760209060206003193601126108655760025481516301771d2960e11b815284359490915f91839182906001600160a01b03165afa908115612700575f916126e6575b505f915f5b825181101561262f578560a061260a8386612e57565b5101511461261b575b6001016125f4565b92612627600191612e7f565b939050612613565b509261263a83612c77565b926126478551948561295c565b808452612656601f1991612c77565b015f5b8181106126d0575050505f905f5b81518110156126c3578560a061267d8385612e57565b5101511461268e575b600101612667565b916126bb60019161269f8585612e57565b516126aa8288612e57565b526126b58187612e57565b50612e7f565b929050612686565b8451806102ed868261284f565b82906126da612ea1565b82828801015201612659565b6126fa91503d805f833e610306818361295c565b846125ef565b82513d5f823e3d90fd5b90508234610865575f366003190112610865576002546301771d2960e11b83525f91839182906001600160a01b03165afa90811561270057916102ed925f92612759575b50519182918261284f565b61276e9192503d805f833e610306818361295c565b908361274e565b5f5b8381106127865750505f910152565b8181015183820152602001612777565b906020916127af81518092818552858086019101612775565b601f01601f1916010190565b906128166128046127f26101408551855260018060a01b036020870151166020860152604086015190806040870152850190612796565b60608501518482036060860152612796565b60808401518382036080850152612796565b9160a081015160a083015260c081015160c083015260e081015160e0830152610100808201519083015261012080910151151591015290565b6020808201906020835283518092526040830192602060408460051b8301019501935f915b8483106128845750505050505090565b90919293949584806128a2600193603f198682030187528a516127bb565b9801930193019194939290612874565b600435906001600160a01b038216820361086557565b6001600160401b0381116128db57604052565b634e487b7160e01b5f52604160045260245ffd5b608081019081106001600160401b038211176128db57604052565b60c081019081106001600160401b038211176128db57604052565b61014081019081106001600160401b038211176128db57604052565b60e081019081106001600160401b038211176128db57604052565b601f909101601f19168101906001600160401b038211908210176128db57604052565b6001600160401b0381116128db57601f01601f191660200190565b81601f82011215610865578035906129b18261297f565b926129bf604051948561295c565b8284526020838301011161086557815f926020809301838601378301015290565b34610865576020366003190112610865576002546001600160a01b0316803b15610865575f809160246040518094819363ceca737f60e01b835260043560048401525af18015612a3957612a3057005b6124fb906128c8565b6040513d5f823e3d90fd5b34610865576060366003190112610865576024356001600160401b03811161086557612a7490369060040161299a565b60443590811515809203610865576002546001600160a01b031690813b15610865575f91612ac9918360405180968195829463331126c760e11b84526004356004850152606060248501526064840190612796565b90604483015203925af18015612a3957612a3057005b60208082019080835283518092528060408094019401925f905b838210612b0857505050505090565b845180518752808401516001600160a01b0390811688860152818301511687830152606080820151908801526080808201519088015260a09081015115159087015260c09095019493820193600190910190612af9565b9060c080612bca612bb8612ba6612b94612b82885160e0895260e0890190612796565b602089015188820360208a0152612796565b60408801518782036040890152612796565b60608701518682036060880152612796565b60808601518582036080870152612796565b9360a0810151151560a0850152015191015290565b60209060206040818301928281528551809452019301915f5b828110612c06575050505090565b83516001600160a01b031685529381019392810192600101612bf8565b906004821015612c305752565b634e487b7160e01b5f52602160045260245ffd5b9081518082526020808093019301915f5b828110612c63575050505090565b835185529381019392810192600101612c55565b6001600160401b0381116128db5760051b60200190565b51906001600160a01b038216820361086557565b81601f82011215610865578051612cb88161297f565b92612cc6604051948561295c565b8184526020828401011161086557612ce49160208085019101612775565b90565b5190811515820361086557565b919091610140818403126108655760405190612d0f82612925565b819381518352612d2160208301612c8e565b602084015260408201516001600160401b0391908281116108655781612d48918501612ca2565b604085015260608301518281116108655781612d65918501612ca2565b6060850152608083015191821161086557612d81918301612ca2565b608083015260a081015160a083015260c081015160c083015260e081015160e08301526101008082015190830152612dbd610120809201612ce7565b910152565b9060209081838203126108655782516001600160401b0393848211610865570181601f82011215610865578051612df881612c77565b94612e06604051968761295c565b818652848087019260051b8401019380851161086557858401925b858410612e32575050505050505090565b8351838111610865578791612e4c848480948a0101612cf4565b815201930192612e21565b8051821015612e6b5760209160051b010190565b634e487b7160e01b5f52603260045260245ffd5b5f198114612e8d5760010190565b634e487b7160e01b5f52601160045260245ffd5b60405190612eae82612925565b5f6101208382815282602082015260606040820152606080820152606060808201528260a08201528260c08201528260e0820152826101008201520152565b6020908181840312610865578051906001600160401b038211610865570182601f8201121561086557805191612f2283612c77565b936040612f32604051968761295c565b848652828601918360c080970286010194818611610865578401925b858410612f5f575050505050505090565b8684830312610865578487918451612f768161290a565b86518152612f85838801612c8e565b83820152612f94868801612c8e565b86820152606080880151908201526080808801519082015260a0612fb9818901612ce7565b90820152815201930192612f4e565b60405190612fd582612941565b5f60c0836060808252806020830152806040830152808083015260808201528260a08201520152565b91909160e081840312610865576040519061301882612941565b8051919384926001600160401b039290838111610865578261303b918301612ca2565b845260208101518381116108655782613055918301612ca2565b602085015260408101518381116108655782613072918301612ca2565b60408501526060810151838111610865578261308f918301612ca2565b60608501526080810151928311610865576130b060c0939284938301612ca2565b60808501526130c160a08201612ce7565b60a08501520151910152565b6020908181840312610865578051906001600160401b03821161086557019180601f8401121561086557825161310281612c77565b93613110604051958661295c565b818552838086019260051b820101928311610865578301905b828210613137575050505090565b83809161314384612c8e565b815201910190613129565b60808183031261086557805192602092838301519360018060401b0394858111610865578261317e918601612ca2565b9461318b60408601612ce7565b94606081015191821161086557019180601f840112156108655782516131b081612c77565b936131be604051958661295c565b818552838086019260051b820101928311610865578301905b8282106131e5575050505090565b815181529083019083016131d7565b91906040838203126108655782516001600160401b0381116108655760209161321e918501612ffe565b92015160048110156108655790565b604051631a740af960e31b81526001600160a01b037f0000000000000000000000000000000000000000000000000000000000000000811691602081600481865afa908115612a39575f91613334575b501561333057606060049260405193848092634a9c3a6960e11b82525afa8015612a39575f925f905f926132d9575b5082908160018060a01b031995168560015416176001551683600254161760025516906003541617600355565b935050506060823d606011613328575b816132f66060938361295c565b810103126108655761330782612c8e565b81613320604061331960208701612c8e565b9501612c8e565b9193906132ac565b3d91506132e9565b5050565b90506020813d602011613366575b8161334f6020938361295c565b810103126108655761336090612ce7565b5f61327d565b3d9150613342565b5f546001600160a01b0316330361338157565b606460405162461bcd60e51b815260206004820152602060248201527f4f776e61626c653a2063616c6c6572206973206e6f7420746865206f776e65726044820152fdfe8be0079c531659141344cd1fd0a4f28419497f9722a3daafe3b4186f6b6457e0a164736f6c6343000818000a","opcodes":"PUSH1 0xA0 CALLVALUE PUSH3 0x96 JUMPI PUSH1 0x1F PUSH3 0x34E7 CODESIZE DUP2 SWAP1 SUB SWAP2 DUP3 ADD PUSH1 0x1F NOT AND DUP4 ADD SWAP2 PUSH1 0x1 PUSH1 0x1 PUSH1 0x40 SHL SUB DUP4 GT DUP5 DUP5 LT OR PUSH3 0x9A JUMPI DUP1 DUP5 SWAP3 PUSH1 0x20 SWAP5 PUSH1 0x40 MSTORE DUP4 CODECOPY DUP2 ADD SUB SLT PUSH3 0x96 JUMPI MLOAD PUSH1 0x1 PUSH1 0x1 PUSH1 0xA0 SHL SUB DUP2 AND SWAP1 DUP2 SWAP1 SUB PUSH3 0x96 JUMPI PUSH3 0x61 CALLER PUSH3 0xAE JUMP JUMPDEST PUSH1 0x80 MSTORE PUSH3 0x6F CALLER PUSH3 0xAE JUMP JUMPDEST PUSH1 0x40 MLOAD PUSH2 0x33F2 SWAP1 DUP2 PUSH3 0xF5 DUP3 CODECOPY PUSH1 0x80 MLOAD DUP2 DUP2 DUP2 PUSH2 0x1B85 ADD MSTORE DUP2 DUP2 PUSH2 0x22A8 ADD MSTORE PUSH2 0x3244 ADD MSTORE RETURN JUMPDEST PUSH0 DUP1 REVERT JUMPDEST PUSH4 0x4E487B71 PUSH1 0xE0 SHL PUSH0 MSTORE PUSH1 0x41 PUSH1 0x4 MSTORE PUSH1 0x24 PUSH0 REVERT JUMPDEST PUSH0 DUP1 SLOAD PUSH1 0x1 PUSH1 0x1 PUSH1 0xA0 SHL SUB SWAP3 DUP4 AND PUSH1 0x1 PUSH1 0x1 PUSH1 0xA0 SHL SUB NOT DUP3 AND DUP2 OR DUP4 SSTORE SWAP3 AND SWAP1 PUSH32 0x8BE0079C531659141344CD1FD0A4F28419497F9722A3DAAFE3B4186F6B6457E0 SWAP1 DUP1 LOG3 JUMP INVALID PUSH1 0x80 PUSH1 0x40 DUP2 DUP2 MSTORE PUSH1 0x4 SWAP1 DUP2 CALLDATASIZE LT ISZERO PUSH2 0x15 JUMPI PUSH0 DUP1 REVERT JUMPDEST PUSH0 SWAP3 PUSH0 CALLDATALOAD PUSH1 0xE0 SHR SWAP1 DUP2 PUSH4 0x2EE3A52 EQ PUSH2 0x270A JUMPI POP DUP1 PUSH4 0x4A6F276 EQ PUSH2 0x25A7 JUMPI DUP1 PUSH4 0xE50CEE5 EQ PUSH2 0x2506 JUMPI DUP1 PUSH4 0x11AA5B34 EQ PUSH2 0x248A JUMPI DUP1 PUSH4 0x11CE0267 EQ PUSH2 0x2461 JUMPI DUP4 DUP2 PUSH4 0x16D81B38 EQ PUSH2 0x23E2 JUMPI POP DUP1 PUSH4 0x17E98548 EQ PUSH2 0xFD9 JUMPI DUP1 PUSH4 0x18BB35BD EQ PUSH2 0x2286 JUMPI DUP1 PUSH4 0x2148893F EQ PUSH2 0x21F9 JUMPI DUP1 PUSH4 0x2156A96C EQ PUSH2 0x21AD JUMPI DUP4 DUP2 PUSH4 0x24D41A03 EQ PUSH2 0x2150 JUMPI POP DUP1 PUSH4 0x2C7EA0B2 EQ PUSH2 0x2134 JUMPI DUP1 PUSH4 0x317A0827 EQ PUSH2 0x1E7E JUMPI DUP1 PUSH4 0x3C2575D5 EQ PUSH2 0x20D1 JUMPI DUP4 DUP2 PUSH4 0x3CCFD60B EQ PUSH2 0x2084 JUMPI POP DUP1 PUSH4 0x4293E5CE EQ PUSH2 0x1FC9 JUMPI DUP4 DUP2 PUSH4 0x4E213D20 EQ PUSH2 0x1F74 JUMPI POP DUP1 PUSH4 0x570AEA8A EQ PUSH2 0x1F28 JUMPI DUP1 PUSH4 0x5AD6A580 EQ PUSH2 0x1ED9 JUMPI DUP4 DUP2 PUSH4 0x5BE20959 EQ PUSH2 0x1E83 JUMPI POP DUP1 PUSH4 0x66224D8E EQ PUSH2 0x1E7E JUMPI DUP1 PUSH4 0x6F2C8599 EQ PUSH2 0x1DD4 JUMPI DUP1 PUSH4 0x6F68EF3A EQ PUSH2 0x1D84 JUMPI DUP1 PUSH4 0x6F77926B EQ PUSH2 0x1BFA JUMPI DUP1 PUSH4 0x715018A6 EQ PUSH2 0x1BB4 JUMPI DUP1 PUSH4 0x7B103999 EQ PUSH2 0x1B70 JUMPI DUP4 DUP2 PUSH4 0x7D3978DB EQ PUSH2 0x1AE6 JUMPI POP DUP1 PUSH4 0x7E8555ED EQ PUSH2 0x1962 JUMPI DUP4 DUP2 PUSH4 0x8642269E EQ PUSH2 0x1912 JUMPI POP DUP1 PUSH4 0x8DA5CB5B EQ PUSH2 0x18EA JUMPI DUP4 DUP2 PUSH4 0x97B6F393 EQ PUSH2 0x186A JUMPI POP DUP1 PUSH4 0x9B269B8F EQ PUSH2 0x17F4 JUMPI DUP1 PUSH4 0x9D4A2255 EQ PUSH2 0x15DF JUMPI DUP1 PUSH4 0xA323D29E EQ PUSH2 0x153B JUMPI DUP1 PUSH4 0xA9AB7AF2 EQ PUSH2 0x121C JUMPI DUP1 PUSH4 0xB27E1697 EQ PUSH2 0x1193 JUMPI DUP1 PUSH4 0xB9DB15B4 EQ PUSH2 0x10E0 JUMPI DUP1 PUSH4 0xC0403E27 EQ PUSH2 0x1085 JUMPI DUP1 PUSH4 0xC64B8A8F EQ PUSH2 0xFDE JUMPI DUP1 PUSH4 0xCECA737F EQ PUSH2 0xFD9 JUMPI DUP1 PUSH4 0xD1CE59A7 EQ PUSH2 0xE7E JUMPI DUP1 PUSH4 0xD2BC9D78 EQ PUSH2 0xD2D JUMPI DUP1 PUSH4 0xD637DCFA EQ PUSH2 0xC18 JUMPI DUP4 DUP2 PUSH4 0xD72E481D EQ PUSH2 0xBB2 JUMPI POP DUP1 PUSH4 0xDADD0A57 EQ PUSH2 0x9C8 JUMPI DUP1 PUSH4 0xDC298682 EQ PUSH2 0x87C JUMPI DUP1 PUSH4 0xE01EF6E6 EQ PUSH2 0x7EB JUMPI DUP1 PUSH4 0xE17F94C0 EQ PUSH2 0x7C2 JUMPI DUP1 PUSH4 0xE6A93E16 EQ PUSH2 0x75F JUMPI DUP1 PUSH4 0xE80DB5DB EQ PUSH2 0x736 JUMPI DUP1 PUSH4 0xEB11C434 EQ PUSH2 0x683 JUMPI DUP4 DUP2 PUSH4 0xEC4CF85B EQ PUSH2 0x53D JUMPI DUP2 PUSH4 0xED90C7B7 EQ PUSH2 0x49A JUMPI POP DUP1 PUSH4 0xF2FDE38B EQ PUSH2 0x3EB JUMPI DUP1 PUSH4 0xF3052D26 EQ PUSH2 0x324 JUMPI PUSH4 0xFDCA4CA3 EQ PUSH2 0x29D JUMPI PUSH0 DUP1 REVERT JUMPDEST CALLVALUE PUSH2 0x320 JUMPI DUP3 PUSH1 0x3 NOT CALLDATASIZE ADD SLT PUSH2 0x320 JUMPI PUSH1 0x2 SLOAD DUP2 MLOAD PUSH4 0xFDCA4CA3 PUSH1 0xE0 SHL DUP2 MSTORE SWAP3 DUP5 SWAP2 DUP5 SWAP2 SWAP1 DUP3 SWAP1 PUSH1 0x1 PUSH1 0x1 PUSH1 0xA0 SHL SUB AND GAS STATICCALL SWAP2 DUP3 ISZERO PUSH2 0x316 JUMPI DUP4 PUSH2 0x2ED SWAP5 SWAP4 PUSH2 0x2F1 JUMPI JUMPDEST POP POP MLOAD SWAP2 DUP3 SWAP2 DUP3 PUSH2 0x284F JUMP JUMPDEST SUB SWAP1 RETURN JUMPDEST PUSH2 0x30E SWAP3 SWAP4 POP RETURNDATASIZE DUP1 SWAP2 DUP4 RETURNDATACOPY PUSH2 0x306 DUP2 DUP4 PUSH2 0x295C JUMP JUMPDEST DUP2 ADD SWAP1 PUSH2 0x2DC2 JUMP JUMPDEST SWAP1 PUSH0 DUP1 PUSH2 0x2E1 JUMP JUMPDEST DUP2 MLOAD RETURNDATASIZE DUP6 DUP3 RETURNDATACOPY RETURNDATASIZE SWAP1 REVERT JUMPDEST DUP3 DUP1 REVERT JUMPDEST POP SWAP2 CALLVALUE PUSH2 0x3E8 JUMPI PUSH1 0x20 CALLDATASIZE PUSH1 0x3 NOT ADD SLT PUSH2 0x3E8 JUMPI PUSH1 0x2 SLOAD DUP4 MLOAD PUSH4 0x79829693 PUSH1 0xE1 SHL DUP2 MSTORE DUP4 CALLDATALOAD SWAP4 DUP2 ADD SWAP4 SWAP1 SWAP4 MSTORE DUP2 SWAP1 DUP4 SWAP1 PUSH1 0x24 SWAP1 DUP3 SWAP1 PUSH1 0x1 PUSH1 0x1 PUSH1 0xA0 SHL SUB AND GAS STATICCALL SWAP1 DUP2 ISZERO PUSH2 0x3DD JUMPI DUP1 SWAP2 DUP2 SWAP4 DUP3 DUP1 SWAP3 PUSH2 0x3AD JUMPI JUMPDEST POP POP DUP5 PUSH2 0x399 PUSH2 0x2ED SWAP5 SWAP6 SWAP7 MLOAD SWAP7 DUP8 SWAP7 DUP8 MSTORE PUSH1 0x80 PUSH1 0x20 DUP9 ADD MSTORE PUSH1 0x80 DUP8 ADD SWAP1 PUSH2 0x2796 JUMP JUMPDEST SWAP3 ISZERO ISZERO SWAP1 DUP6 ADD MSTORE DUP4 DUP3 SUB PUSH1 0x60 DUP6 ADD MSTORE PUSH2 0x2C44 JUMP JUMPDEST SWAP2 POP SWAP2 POP PUSH2 0x2ED SWAP4 POP PUSH2 0x3D2 SWAP3 POP RETURNDATASIZE DUP1 SWAP2 DUP4 RETURNDATACOPY PUSH2 0x3CA DUP2 DUP4 PUSH2 0x295C JUMP JUMPDEST DUP2 ADD SWAP1 PUSH2 0x314E JUMP JUMPDEST SWAP2 SWAP4 SWAP1 SWAP2 SWAP1 PUSH0 PUSH2 0x376 JUMP JUMPDEST DUP4 MLOAD SWAP1 RETURNDATASIZE SWAP1 DUP3 RETURNDATACOPY RETURNDATASIZE SWAP1 REVERT JUMPDEST DUP1 REVERT JUMPDEST POP SWAP1 CALLVALUE PUSH2 0x320 JUMPI PUSH1 0x20 CALLDATASIZE PUSH1 0x3 NOT ADD SLT PUSH2 0x320 JUMPI PUSH2 0x406 PUSH2 0x28B2 JUMP JUMPDEST SWAP1 PUSH2 0x40F PUSH2 0x336E JUMP JUMPDEST PUSH1 0x1 PUSH1 0x1 PUSH1 0xA0 SHL SUB SWAP2 DUP3 AND SWAP3 DUP4 ISZERO PUSH2 0x448 JUMPI POP POP PUSH0 SLOAD DUP3 PUSH1 0x1 DUP1 PUSH1 0xA0 SHL SUB NOT DUP3 AND OR PUSH0 SSTORE AND PUSH0 DUP1 MLOAD PUSH1 0x20 PUSH2 0x33C6 DUP4 CODECOPY DUP2 MLOAD SWAP2 MSTORE PUSH0 DUP1 LOG3 DUP1 RETURN JUMPDEST SWAP1 PUSH1 0x20 PUSH1 0x84 SWAP3 MLOAD SWAP2 PUSH3 0x461BCD PUSH1 0xE5 SHL DUP4 MSTORE DUP3 ADD MSTORE PUSH1 0x26 PUSH1 0x24 DUP3 ADD MSTORE PUSH32 0x4F776E61626C653A206E6577206F776E657220697320746865207A65726F2061 PUSH1 0x44 DUP3 ADD MSTORE PUSH6 0x646472657373 PUSH1 0xD0 SHL PUSH1 0x64 DUP3 ADD MSTORE REVERT JUMPDEST DUP3 DUP2 DUP6 CALLVALUE PUSH2 0x52C JUMPI PUSH1 0x20 CALLDATASIZE PUSH1 0x3 NOT ADD SLT PUSH2 0x52C JUMPI PUSH1 0x2 SLOAD DUP2 CALLDATALOAD SWAP4 PUSH1 0x1 PUSH1 0x1 PUSH1 0xA0 SHL SUB SWAP1 SWAP2 AND SWAP2 DUP3 EXTCODESIZE ISZERO PUSH2 0x539 JUMPI DUP5 PUSH1 0x24 DUP6 SWAP3 DUP4 DUP6 MLOAD SWAP7 DUP8 SWAP5 DUP6 SWAP4 PUSH4 0xED90C7B7 PUSH1 0xE0 SHL DUP6 MSTORE DUP5 ADD MSTORE GAS CALL SWAP1 DUP2 ISZERO PUSH2 0x530 JUMPI POP PUSH2 0x518 JUMPI JUMPDEST POP DUP1 PUSH32 0xC341CF326465FE622F86C468249E8C0CB03ED23BA376A6A34863A1374AC7D769 SWAP2 LOG2 DUP1 RETURN JUMPDEST PUSH2 0x521 SWAP1 PUSH2 0x28C8 JUMP JUMPDEST PUSH2 0x52C JUMPI DUP2 DUP4 PUSH2 0x4F0 JUMP JUMPDEST POP DUP1 REVERT JUMPDEST MLOAD RETURNDATASIZE DUP5 DUP3 RETURNDATACOPY RETURNDATASIZE SWAP1 REVERT JUMPDEST DUP4 DUP1 REVERT JUMPDEST DUP3 DUP2 DUP6 CALLVALUE PUSH2 0x52C JUMPI PUSH1 0x3 NOT SWAP3 PUSH1 0xE0 CALLDATASIZE DUP6 ADD SLT PUSH2 0x320 JUMPI DUP2 CALLDATALOAD SWAP4 PUSH1 0x1 PUSH1 0x1 PUSH1 0x40 SHL SUB SWAP1 PUSH1 0x24 CALLDATALOAD DUP3 DUP2 GT PUSH2 0x67F JUMPI PUSH2 0x576 SWAP1 CALLDATASIZE SWAP1 DUP7 ADD PUSH2 0x299A JUMP JUMPDEST SWAP1 PUSH1 0x44 CALLDATALOAD DUP4 DUP2 GT PUSH2 0x67B JUMPI PUSH2 0x58E SWAP1 CALLDATASIZE SWAP1 DUP8 ADD PUSH2 0x299A JUMP JUMPDEST SWAP3 PUSH1 0x64 CALLDATALOAD SWAP1 DUP2 GT PUSH2 0x67B JUMPI PUSH2 0x5A6 SWAP1 CALLDATASIZE SWAP1 DUP8 ADD PUSH2 0x299A JUMP JUMPDEST PUSH1 0x2 SLOAD PUSH1 0x1 PUSH1 0x1 PUSH1 0xA0 SHL SUB AND SWAP2 SWAP1 DUP3 EXTCODESIZE ISZERO PUSH2 0x677 JUMPI PUSH2 0x5F3 SWAP7 PUSH2 0x612 DUP11 SWAP4 DUP11 SWAP8 SWAP4 PUSH2 0x603 DUP10 SWAP6 DUP12 MLOAD SWAP13 DUP14 SWAP11 DUP12 SWAP10 DUP11 SWAP9 PUSH4 0xEC4CF85B PUSH1 0xE0 SHL DUP11 MSTORE DUP10 ADD MSTORE PUSH1 0xE0 PUSH1 0x24 DUP10 ADD MSTORE PUSH1 0xE4 DUP9 ADD SWAP1 PUSH2 0x2796 JUMP JUMPDEST SWAP1 DUP5 DUP8 DUP4 SUB ADD PUSH1 0x44 DUP9 ADD MSTORE PUSH2 0x2796 JUMP JUMPDEST SWAP2 DUP5 DUP4 SUB ADD PUSH1 0x64 DUP6 ADD MSTORE PUSH2 0x2796 JUMP JUMPDEST PUSH1 0x84 CALLDATALOAD PUSH1 0x84 DUP4 ADD MSTORE PUSH1 0xA4 CALLDATALOAD PUSH1 0xA4 DUP4 ADD MSTORE PUSH1 0xC4 CALLDATALOAD PUSH1 0xC4 DUP4 ADD MSTORE SUB SWAP3 GAS CALL SWAP1 DUP2 ISZERO PUSH2 0x530 JUMPI POP PUSH2 0x663 JUMPI JUMPDEST POP DUP1 PUSH32 0xECA6714FCF568FB34CF9DB4A414CB0CC48E93C5D4E1BA0582A46EA3704CF24D5 SWAP2 LOG2 DUP1 RETURN JUMPDEST PUSH2 0x66C SWAP1 PUSH2 0x28C8 JUMP JUMPDEST PUSH2 0x52C JUMPI DUP2 DUP4 PUSH2 0x63B JUMP JUMPDEST DUP8 DUP1 REVERT JUMPDEST DUP7 DUP1 REVERT JUMPDEST DUP6 DUP1 REVERT JUMPDEST POP DUP3 SWAP1 CALLVALUE PUSH2 0x52C JUMPI PUSH1 0x20 SWAP3 DUP4 PUSH1 0x3 NOT CALLDATASIZE ADD SLT PUSH2 0x320 JUMPI PUSH2 0x6A1 PUSH2 0x28B2 JUMP JUMPDEST PUSH1 0x2 SLOAD DUP4 MLOAD PUSH4 0x3AC4710D PUSH1 0xE2 SHL DUP2 MSTORE PUSH1 0x1 PUSH1 0x1 PUSH1 0xA0 SHL SUB SWAP3 DUP4 AND DUP5 DUP3 ADD MSTORE SWAP5 SWAP2 DUP7 SWAP2 DUP7 SWAP2 PUSH1 0x24 SWAP2 DUP4 SWAP2 AND GAS STATICCALL SWAP4 DUP5 ISZERO PUSH2 0x72A JUMPI DUP2 SWAP5 PUSH2 0x6EC JUMPI JUMPDEST POP POP POP PUSH2 0x6EA SWAP1 MLOAD DUP1 SWAP3 PUSH2 0x2C23 JUMP JUMPDEST RETURN JUMPDEST SWAP1 SWAP2 SWAP3 SWAP4 POP DUP5 DUP2 DUP2 RETURNDATASIZE DUP4 GT PUSH2 0x723 JUMPI JUMPDEST PUSH2 0x706 DUP2 DUP4 PUSH2 0x295C JUMP JUMPDEST DUP2 ADD SUB SLT PUSH2 0x52C JUMPI MLOAD SWAP2 DUP3 LT ISZERO PUSH2 0x3E8 JUMPI POP SWAP1 PUSH2 0x6EA DUP5 DUP1 PUSH2 0x6DB JUMP JUMPDEST POP RETURNDATASIZE PUSH2 0x6FC JUMP JUMPDEST POP DUP3 MLOAD SWAP1 RETURNDATASIZE SWAP1 DUP3 RETURNDATACOPY RETURNDATASIZE SWAP1 REVERT JUMPDEST DUP4 DUP3 CALLVALUE PUSH2 0x52C JUMPI DUP2 PUSH1 0x3 NOT CALLDATASIZE ADD SLT PUSH2 0x52C JUMPI PUSH1 0x2 SLOAD SWAP1 MLOAD PUSH1 0x1 PUSH1 0x1 PUSH1 0xA0 SHL SUB SWAP1 SWAP2 AND DUP2 MSTORE PUSH1 0x20 SWAP1 RETURN JUMPDEST POP CALLVALUE PUSH2 0x320 JUMPI PUSH1 0x20 CALLDATASIZE PUSH1 0x3 NOT ADD SLT PUSH2 0x320 JUMPI DUP3 PUSH2 0x77A PUSH2 0x28B2 JUMP JUMPDEST PUSH1 0x2 SLOAD DUP4 MLOAD PUSH4 0x73549F0B PUSH1 0xE1 SHL DUP2 MSTORE PUSH1 0x1 PUSH1 0x1 PUSH1 0xA0 SHL SUB SWAP3 DUP4 AND SWAP6 DUP2 ADD SWAP6 SWAP1 SWAP6 MSTORE DUP5 SWAP2 PUSH1 0x24 SWAP2 DUP4 SWAP2 AND GAS STATICCALL SWAP2 DUP3 ISZERO PUSH2 0x316 JUMPI DUP4 PUSH2 0x2ED SWAP5 SWAP4 PUSH2 0x2F1 JUMPI POP POP MLOAD SWAP2 DUP3 SWAP2 DUP3 PUSH2 0x284F JUMP JUMPDEST DUP4 DUP3 CALLVALUE PUSH2 0x52C JUMPI DUP2 PUSH1 0x3 NOT CALLDATASIZE ADD SLT PUSH2 0x52C JUMPI PUSH1 0x3 SLOAD SWAP1 MLOAD PUSH1 0x1 PUSH1 0x1 PUSH1 0xA0 SHL SUB SWAP1 SWAP2 AND DUP2 MSTORE PUSH1 0x20 SWAP1 RETURN JUMPDEST POP DUP3 SWAP1 CALLVALUE PUSH2 0x52C JUMPI DUP2 PUSH1 0x3 NOT CALLDATASIZE ADD SLT PUSH2 0x52C JUMPI PUSH1 0x1 SLOAD DUP2 MLOAD PUSH4 0x700F7B73 PUSH1 0xE1 SHL DUP2 MSTORE SWAP4 PUSH1 0x20 SWAP2 DUP6 SWAP2 SWAP1 DUP3 SWAP1 PUSH1 0x1 PUSH1 0x1 PUSH1 0xA0 SHL SUB AND GAS STATICCALL SWAP2 DUP3 ISZERO PUSH2 0x871 JUMPI SWAP2 PUSH2 0x838 JUMPI JUMPDEST PUSH1 0x20 SWAP3 POP MLOAD SWAP1 DUP2 MSTORE RETURN JUMPDEST SWAP1 POP PUSH1 0x20 DUP3 RETURNDATASIZE PUSH1 0x20 GT PUSH2 0x869 JUMPI JUMPDEST DUP2 PUSH2 0x853 PUSH1 0x20 SWAP4 DUP4 PUSH2 0x295C JUMP JUMPDEST DUP2 ADD SUB SLT PUSH2 0x865 JUMPI PUSH1 0x20 SWAP2 MLOAD SWAP1 PUSH2 0x82E JUMP JUMPDEST PUSH0 DUP1 REVERT JUMPDEST RETURNDATASIZE SWAP2 POP PUSH2 0x846 JUMP JUMPDEST SWAP1 MLOAD SWAP1 RETURNDATASIZE SWAP1 DUP3 RETURNDATACOPY RETURNDATASIZE SWAP1 REVERT JUMPDEST POP SWAP1 CALLVALUE PUSH2 0x320 JUMPI PUSH1 0x20 DUP1 PUSH1 0x3 NOT CALLDATASIZE ADD SLT PUSH2 0x539 JUMPI DUP2 CALLDATALOAD PUSH1 0x1 PUSH1 0x1 PUSH1 0x40 SHL SUB DUP2 GT PUSH2 0x9C4 JUMPI PUSH2 0x8AD SWAP1 CALLDATASIZE SWAP1 DUP5 ADD PUSH2 0x299A JUMP JUMPDEST SWAP1 PUSH2 0x8B6 PUSH2 0x336E JUMP JUMPDEST PUSH1 0x2 SLOAD PUSH1 0x1 PUSH1 0x1 PUSH1 0xA0 SHL SUB SWAP1 DUP2 AND SWAP1 DUP2 EXTCODESIZE ISZERO PUSH2 0x67B JUMPI DUP7 DUP1 DUP8 MLOAD DUP1 SWAP5 PUSH4 0x6E14C341 PUSH1 0xE1 SHL DUP3 MSTORE DUP7 DUP10 DUP4 ADD MSTORE DUP2 DUP4 DUP2 PUSH2 0x8F1 PUSH1 0x24 DUP3 ADD DUP13 PUSH2 0x2796 JUMP JUMPDEST SUB SWAP3 GAS CALL SWAP3 DUP4 ISZERO PUSH2 0x9B8 JUMPI DUP5 SWAP4 PUSH2 0x99F JUMPI JUMPDEST POP POP PUSH1 0x1 SLOAD AND DUP6 MLOAD SWAP5 DUP6 DUP1 SWAP3 PUSH3 0xD893F PUSH1 0xE6 SHL DUP3 MSTORE GAS STATICCALL SWAP3 DUP4 ISZERO PUSH2 0x995 JUMPI DUP6 SWAP4 PUSH2 0x964 JUMPI JUMPDEST POP PUSH2 0x95E PUSH32 0x11C167CC9B439F0AD8BEC5588159F1B06B813BC38D50C867A41B23B077BE2C1A SWAP4 SWAP5 MLOAD SWAP3 DUP3 DUP5 SWAP4 DUP5 MSTORE DUP4 ADD SWAP1 PUSH2 0x2796 JUMP JUMPDEST SUB SWAP1 LOG2 DUP1 RETURN JUMPDEST SWAP3 POP DUP1 DUP4 DUP2 RETURNDATASIZE DUP4 GT PUSH2 0x98E JUMPI JUMPDEST PUSH2 0x97B DUP2 DUP4 PUSH2 0x295C JUMP JUMPDEST DUP2 ADD SUB SLT PUSH2 0x865 JUMPI SWAP2 MLOAD SWAP2 PUSH2 0x95E PUSH2 0x928 JUMP JUMPDEST POP RETURNDATASIZE PUSH2 0x971 JUMP JUMPDEST DUP5 MLOAD RETURNDATASIZE DUP8 DUP3 RETURNDATACOPY RETURNDATASIZE SWAP1 REVERT JUMPDEST PUSH2 0x9AB SWAP2 SWAP3 SWAP4 POP PUSH2 0x28C8 JUMP JUMPDEST PUSH2 0x67F JUMPI DUP2 SWAP1 DUP7 PUSH0 PUSH2 0x903 JUMP JUMPDEST POP DUP7 MLOAD SWAP1 RETURNDATASIZE SWAP1 DUP3 RETURNDATACOPY RETURNDATASIZE SWAP1 REVERT JUMPDEST DUP5 DUP1 REVERT JUMPDEST POP SWAP2 SWAP1 CALLVALUE PUSH2 0x52C JUMPI DUP2 PUSH1 0x3 NOT CALLDATASIZE ADD SLT PUSH2 0x52C JUMPI PUSH1 0x2 SLOAD DUP4 MLOAD PUSH4 0xDADD0A57 PUSH1 0xE0 SHL DUP2 MSTORE SWAP2 SWAP1 DUP4 SWAP1 DUP4 SWAP1 DUP4 SWAP1 DUP3 SWAP1 PUSH1 0x1 PUSH1 0x1 PUSH1 0xA0 SHL SUB AND GAS STATICCALL SWAP2 DUP3 ISZERO PUSH2 0xBA8 JUMPI DUP4 SWAP3 PUSH2 0xA8A JUMPI JUMPDEST POP POP DUP3 MLOAD SWAP2 PUSH1 0x20 DUP1 DUP5 ADD SWAP1 DUP1 DUP6 MSTORE DUP4 MLOAD DUP1 SWAP3 MSTORE DUP6 DUP6 ADD DUP2 DUP8 DUP5 PUSH1 0x5 SHL DUP9 ADD ADD SWAP6 ADD SWAP4 SWAP7 JUMPDEST DUP4 DUP9 LT PUSH2 0xA3E JUMPI DUP7 DUP7 SUB DUP8 RETURN JUMPDEST SWAP1 SWAP2 SWAP3 SWAP4 SWAP5 DUP4 DUP1 PUSH1 0x1 SWAP3 PUSH1 0x3F NOT DUP11 DUP3 SUB ADD DUP7 MSTORE DUP9 MLOAD SWAP1 DUP6 DUP1 PUSH2 0xA71 PUSH1 0x60 DUP6 MLOAD DUP6 MSTORE DUP7 DUP7 ADD MLOAD SWAP1 DUP1 DUP9 DUP8 ADD MSTORE DUP6 ADD SWAP1 PUSH2 0x2796 JUMP JUMPDEST SWAP4 ADD MLOAD ISZERO ISZERO SWAP2 ADD MSTORE SWAP8 ADD SWAP4 ADD SWAP8 ADD SWAP7 SWAP1 SWAP4 SWAP3 SWAP2 SWAP4 PUSH2 0xA31 JUMP JUMPDEST SWAP1 SWAP2 POP RETURNDATASIZE DUP1 DUP5 DUP4 RETURNDATACOPY PUSH2 0xA9C DUP2 DUP4 PUSH2 0x295C JUMP JUMPDEST DUP2 ADD SWAP2 PUSH1 0x20 SWAP2 DUP3 DUP2 DUP6 SUB SLT PUSH2 0x9C4 JUMPI DUP1 MLOAD PUSH1 0x1 PUSH1 0x1 PUSH1 0x40 SHL SUB SWAP2 DUP3 DUP3 GT PUSH2 0x67B JUMPI ADD SWAP2 DUP5 PUSH1 0x1F DUP5 ADD SLT ISZERO PUSH2 0x67F JUMPI DUP3 MLOAD SWAP2 PUSH2 0xAD6 DUP4 PUSH2 0x2C77 JUMP JUMPDEST SWAP6 PUSH2 0xAE3 DUP10 MLOAD SWAP8 DUP9 PUSH2 0x295C JUMP JUMPDEST DUP4 DUP8 MSTORE DUP6 DUP1 DUP9 ADD SWAP5 PUSH1 0x5 SHL DUP7 ADD ADD SWAP5 DUP2 DUP7 GT PUSH2 0xBA4 JUMPI DUP7 DUP2 ADD SWAP5 JUMPDEST DUP7 DUP7 LT PUSH2 0xB14 JUMPI POP POP POP POP POP POP POP POP PUSH0 DUP1 PUSH2 0xA0D JUMP JUMPDEST DUP6 MLOAD DUP5 DUP2 GT PUSH2 0xBA0 JUMPI DUP3 ADD PUSH1 0x60 DUP1 PUSH1 0x1F NOT DUP4 DUP8 SUB ADD SLT PUSH2 0xB9C JUMPI DUP13 MLOAD SWAP2 DUP2 DUP4 ADD DUP4 DUP2 LT DUP9 DUP3 GT OR PUSH2 0xB89 JUMPI DUP15 MSTORE DUP11 DUP2 ADD MLOAD DUP4 MSTORE DUP14 DUP2 ADD MLOAD DUP8 DUP2 GT PUSH2 0xB85 JUMPI PUSH2 0xB76 DUP16 SWAP2 SWAP4 DUP4 PUSH2 0xB6C DUP16 SWAP9 SWAP7 DUP10 DUP13 SWAP2 DUP2 SWAP11 SWAP9 ADD ADD PUSH2 0x2CA2 JUMP JUMPDEST DUP8 DUP7 ADD MSTORE ADD PUSH2 0x2CE7 JUMP JUMPDEST SWAP1 DUP3 ADD MSTORE DUP2 MSTORE ADD SWAP6 ADD SWAP5 PUSH2 0xAFE JUMP JUMPDEST DUP14 DUP1 REVERT JUMPDEST PUSH1 0x41 DUP10 PUSH4 0x4E487B71 PUSH1 0xE0 SHL PUSH0 MSTORE MSTORE PUSH1 0x24 PUSH0 REVERT JUMPDEST DUP12 DUP1 REVERT JUMPDEST DUP11 DUP1 REVERT JUMPDEST DUP9 DUP1 REVERT JUMPDEST DUP5 MLOAD RETURNDATASIZE DUP6 DUP3 RETURNDATACOPY RETURNDATASIZE SWAP1 REVERT JUMPDEST DUP1 DUP5 DUP5 CALLVALUE PUSH2 0xC14 JUMPI DUP3 PUSH1 0x3 NOT CALLDATASIZE ADD SLT PUSH2 0xC14 JUMPI PUSH1 0x1 SLOAD PUSH1 0x1 PUSH1 0x1 PUSH1 0xA0 SHL SUB AND SWAP2 DUP3 EXTCODESIZE ISZERO PUSH2 0xC0F JUMPI DUP2 MLOAD PUSH4 0xD72E481D PUSH1 0xE0 SHL DUP2 MSTORE SWAP3 DUP5 SWAP2 DUP5 SWAP2 DUP3 SWAP1 DUP5 SWAP1 GAS CALL SWAP1 DUP2 ISZERO PUSH2 0x530 JUMPI POP PUSH2 0xBFF JUMPI POP RETURN JUMPDEST PUSH2 0xC08 SWAP1 PUSH2 0x28C8 JUMP JUMPDEST PUSH2 0x3E8 JUMPI DUP1 RETURN JUMPDEST POP POP POP REVERT JUMPDEST POP POP REVERT JUMPDEST POP CALLVALUE PUSH2 0x320 JUMPI DUP3 PUSH1 0x3 NOT PUSH1 0x60 CALLDATASIZE DUP3 ADD SLT PUSH2 0x52C JUMPI PUSH1 0x1 PUSH1 0x1 PUSH1 0x40 SHL SUB SWAP1 DUP5 CALLDATALOAD DUP3 DUP2 GT PUSH2 0x539 JUMPI PUSH2 0xC4B SWAP1 CALLDATASIZE SWAP1 DUP8 ADD PUSH2 0x299A JUMP JUMPDEST SWAP5 PUSH1 0x24 CALLDATALOAD DUP4 DUP2 GT PUSH2 0x9C4 JUMPI PUSH2 0xC63 SWAP1 CALLDATASIZE SWAP1 DUP4 ADD PUSH2 0x299A JUMP JUMPDEST SWAP3 PUSH1 0x44 CALLDATALOAD SWAP1 DUP2 GT PUSH2 0x9C4 JUMPI PUSH2 0xC7B SWAP1 CALLDATASIZE SWAP1 DUP4 ADD PUSH2 0x299A JUMP JUMPDEST PUSH1 0x2 SLOAD PUSH1 0x1 PUSH1 0x1 PUSH1 0xA0 SHL SUB AND SWAP1 DUP2 EXTCODESIZE ISZERO PUSH2 0x67F JUMPI DUP6 PUSH2 0x5F3 SWAP4 PUSH2 0xCC7 DUP3 SWAP7 DUP12 SWAP5 PUSH2 0x603 DUP13 MLOAD SWAP11 DUP12 SWAP10 DUP11 SWAP9 DUP10 SWAP8 PUSH4 0x7F34E14B PUSH1 0xE1 SHL DUP10 MSTORE CALLER SWAP1 DUP10 ADD MSTORE PUSH1 0x80 PUSH1 0x24 DUP10 ADD MSTORE PUSH1 0x84 DUP9 ADD SWAP1 PUSH2 0x2796 JUMP JUMPDEST SUB SWAP3 GAS CALL DUP1 ISZERO PUSH2 0xD23 JUMPI PUSH2 0xD0F JUMPI JUMPDEST POP POP PUSH32 0x48CAC28AD4DC618E15F4C2DD5E97751182F166DE97B25618318B2112AA951A2F SWAP1 MLOAD PUSH1 0x20 DUP2 MSTORE DUP1 PUSH2 0x95E CALLER SWAP5 PUSH1 0x20 DUP4 ADD SWAP1 PUSH2 0x2796 JUMP JUMPDEST PUSH2 0xD18 SWAP1 PUSH2 0x28C8 JUMP JUMPDEST PUSH2 0x320 JUMPI DUP3 PUSH0 PUSH2 0xCD6 JUMP JUMPDEST DUP4 MLOAD RETURNDATASIZE DUP5 DUP3 RETURNDATACOPY RETURNDATASIZE SWAP1 REVERT JUMPDEST POP SWAP1 CALLVALUE PUSH2 0x320 JUMPI DUP2 PUSH1 0x3 NOT CALLDATASIZE ADD SLT PUSH2 0x320 JUMPI PUSH1 0x24 DUP1 CALLDATALOAD SWAP3 SWAP1 PUSH1 0x1 PUSH1 0x1 PUSH1 0x40 SHL SUB DUP1 DUP6 GT PUSH2 0x67F JUMPI CALLDATASIZE PUSH1 0x23 DUP7 ADD SLT ISZERO PUSH2 0x67F JUMPI DUP5 DUP5 ADD CALLDATALOAD SWAP1 PUSH2 0xD6D DUP3 PUSH2 0x2C77 JUMP JUMPDEST SWAP2 PUSH2 0xD7A DUP6 MLOAD SWAP4 DUP5 PUSH2 0x295C JUMP JUMPDEST DUP1 DUP4 MSTORE PUSH1 0x20 SWAP7 PUSH1 0x24 PUSH1 0x20 DUP6 ADD SWAP3 PUSH1 0x5 SHL DUP3 ADD ADD SWAP3 CALLDATASIZE DUP5 GT PUSH2 0xE7A JUMPI SWAP1 DUP10 SWAP6 SWAP5 SWAP4 SWAP3 SWAP2 PUSH1 0x24 DUP3 ADD SWAP3 JUMPDEST DUP5 DUP5 LT PUSH2 0xE46 JUMPI POP POP POP POP POP PUSH2 0xDB6 PUSH2 0x336E JUMP JUMPDEST DUP3 JUMPDEST DUP2 MLOAD DUP2 LT ISZERO PUSH2 0xE42 JUMPI PUSH1 0x2 SLOAD PUSH1 0x1 PUSH1 0x1 PUSH1 0xA0 SHL SUB AND PUSH2 0xDD7 DUP3 DUP5 PUSH2 0x2E57 JUMP JUMPDEST MLOAD SWAP1 DUP1 EXTCODESIZE ISZERO PUSH2 0x67F JUMPI PUSH2 0xE08 SWAP2 DUP7 SWAP2 DUP11 DUP4 DUP12 DUP12 MLOAD SWAP7 DUP8 SWAP6 DUP7 SWAP5 DUP6 SWAP4 PUSH4 0x6E14C341 PUSH1 0xE1 SHL DUP6 MSTORE DUP5 ADD MSTORE DUP12 DUP4 ADD SWAP1 PUSH2 0x2796 JUMP JUMPDEST SUB SWAP3 GAS CALL DUP1 ISZERO PUSH2 0xE38 JUMPI SWAP1 DUP6 SWAP2 PUSH2 0xE24 JUMPI JUMPDEST POP POP PUSH1 0x1 ADD PUSH2 0xDB8 JUMP JUMPDEST PUSH2 0xE2D SWAP1 PUSH2 0x28C8 JUMP JUMPDEST PUSH2 0x539 JUMPI DUP4 PUSH0 PUSH2 0xE1A JUMP JUMPDEST DUP7 MLOAD RETURNDATASIZE DUP8 DUP3 RETURNDATACOPY RETURNDATASIZE SWAP1 REVERT JUMPDEST DUP4 DUP1 RETURN JUMPDEST SWAP1 SWAP2 SWAP3 DUP1 SWAP5 SWAP6 SWAP7 SWAP8 POP CALLDATALOAD DUP3 DUP2 GT PUSH2 0xB9C JUMPI DUP11 SWAP2 PUSH2 0xE69 DUP4 SWAP3 DUP11 CALLDATASIZE SWAP2 DUP9 ADD ADD PUSH2 0x299A JUMP JUMPDEST DUP2 MSTORE ADD SWAP4 ADD SWAP2 SWAP1 DUP11 SWAP7 SWAP6 SWAP5 SWAP4 PUSH2 0xDA2 JUMP JUMPDEST DUP10 DUP1 REVERT JUMPDEST POP DUP3 SWAP1 CALLVALUE PUSH2 0x52C JUMPI DUP2 PUSH1 0x3 NOT CALLDATASIZE ADD SLT PUSH2 0x52C JUMPI PUSH1 0x2 SLOAD DUP2 MLOAD PUSH4 0x2B857545 PUSH1 0xE1 SHL DUP2 MSTORE SWAP3 PUSH1 0x20 SWAP3 SWAP1 SWAP2 PUSH1 0x1 PUSH1 0x1 PUSH1 0xA0 SHL SUB SWAP1 DUP2 AND DUP5 DUP7 DUP9 DUP2 DUP5 GAS STATICCALL SWAP6 DUP7 ISZERO PUSH2 0xF98 JUMPI SWAP1 DUP8 SWAP3 SWAP2 DUP6 SWAP8 PUSH2 0xFA5 JUMPI JUMPDEST POP DUP6 SWAP1 DUP5 MLOAD SWAP4 DUP5 DUP1 SWAP3 PUSH4 0x855AA5B PUSH1 0xE2 SHL DUP3 MSTORE GAS STATICCALL SWAP2 DUP3 ISZERO PUSH2 0xF98 JUMPI SWAP1 DUP6 SWAP2 DUP6 SWAP4 PUSH2 0xF67 JUMPI JUMPDEST POP PUSH1 0x1 SLOAD AND DUP4 MLOAD SWAP8 DUP9 DUP1 SWAP3 PUSH4 0x700F7B73 PUSH1 0xE1 SHL DUP3 MSTORE GAS STATICCALL SWAP4 DUP5 ISZERO PUSH2 0xF5B JUMPI DUP4 SWAP5 PUSH2 0xF2B JUMPI JUMPDEST PUSH1 0x80 SWAP7 POP DUP3 MLOAD SWAP6 DUP7 MSTORE DUP6 ADD MSTORE DUP4 ADD MSTORE PUSH1 0x60 DUP3 ADD MSTORE RETURN JUMPDEST DUP1 SWAP5 POP DUP7 DUP2 RETURNDATASIZE DUP4 GT PUSH2 0xF54 JUMPI JUMPDEST PUSH2 0xF42 DUP2 DUP4 PUSH2 0x295C JUMP JUMPDEST DUP2 ADD SUB SLT PUSH2 0x865 JUMPI PUSH1 0x80 SWAP6 MLOAD SWAP4 PUSH2 0xF15 JUMP JUMPDEST POP RETURNDATASIZE PUSH2 0xF38 JUMP JUMPDEST POP POP MLOAD SWAP1 RETURNDATASIZE SWAP1 DUP3 RETURNDATACOPY RETURNDATASIZE SWAP1 REVERT JUMPDEST DUP3 DUP2 SWAP4 SWAP3 SWAP5 POP RETURNDATASIZE DUP4 GT PUSH2 0xF91 JUMPI JUMPDEST PUSH2 0xF7F DUP2 DUP4 PUSH2 0x295C JUMP JUMPDEST DUP2 ADD SUB SLT PUSH2 0x865 JUMPI DUP5 SWAP1 MLOAD SWAP2 DUP9 PUSH2 0xEF0 JUMP JUMPDEST POP RETURNDATASIZE PUSH2 0xF75 JUMP JUMPDEST POP POP POP MLOAD SWAP1 RETURNDATASIZE SWAP1 DUP3 RETURNDATACOPY RETURNDATASIZE SWAP1 REVERT JUMPDEST DUP7 DUP1 SWAP3 SWAP9 POP DUP2 SWAP5 POP RETURNDATASIZE DUP4 GT PUSH2 0xFD2 JUMPI JUMPDEST PUSH2 0xFBF DUP2 DUP4 PUSH2 0x295C JUMP JUMPDEST DUP2 ADD SUB SLT PUSH2 0x865 JUMPI DUP5 DUP8 SWAP3 MLOAD SWAP7 SWAP1 PUSH2 0xECA JUMP JUMPDEST POP RETURNDATASIZE PUSH2 0xFB5 JUMP JUMPDEST PUSH2 0x29E0 JUMP JUMPDEST POP DUP3 SWAP1 CALLVALUE PUSH2 0x52C JUMPI PUSH1 0x20 SWAP3 DUP4 PUSH1 0x3 NOT CALLDATASIZE ADD SLT PUSH2 0x320 JUMPI DUP4 PUSH2 0xFFD PUSH2 0x28B2 JUMP JUMPDEST PUSH1 0x1 SLOAD DUP5 MLOAD PUSH4 0xC64B8A8F PUSH1 0xE0 SHL DUP2 MSTORE PUSH1 0x1 PUSH1 0x1 PUSH1 0xA0 SHL SUB SWAP3 DUP4 AND SWAP5 DUP2 ADD SWAP5 SWAP1 SWAP5 MSTORE DUP4 SWAP2 PUSH1 0x24 SWAP2 DUP4 SWAP2 AND GAS STATICCALL SWAP3 DUP4 ISZERO PUSH2 0x107A JUMPI DUP1 SWAP4 PUSH2 0x1040 JUMPI JUMPDEST POP POP MLOAD SWAP1 ISZERO ISZERO DUP2 MSTORE RETURN JUMPDEST SWAP1 SWAP2 SWAP3 POP DUP4 DUP3 DUP2 RETURNDATASIZE DUP4 GT PUSH2 0x1073 JUMPI JUMPDEST PUSH2 0x1059 DUP2 DUP4 PUSH2 0x295C JUMP JUMPDEST DUP2 ADD SUB SLT PUSH2 0x3E8 JUMPI POP PUSH2 0x106B SWAP1 PUSH2 0x2CE7 JUMP JUMPDEST SWAP1 DUP4 DUP1 PUSH2 0x1036 JUMP JUMPDEST POP RETURNDATASIZE PUSH2 0x104F JUMP JUMPDEST DUP3 MLOAD SWAP1 RETURNDATASIZE SWAP1 DUP3 RETURNDATACOPY RETURNDATASIZE SWAP1 REVERT JUMPDEST POP DUP3 SWAP1 CALLVALUE PUSH2 0x52C JUMPI PUSH1 0x20 CALLDATASIZE PUSH1 0x3 NOT ADD SLT PUSH2 0x52C JUMPI DUP1 MLOAD SWAP2 PUSH1 0x20 DUP4 ADD PUSH1 0x1 PUSH1 0x1 PUSH1 0x40 SHL SUB DUP2 GT DUP5 DUP3 LT OR PUSH2 0x10CD JUMPI PUSH2 0x2ED SWAP5 POP DUP3 MSTORE DUP3 MSTORE MLOAD SWAP2 DUP3 SWAP2 PUSH1 0x20 DUP4 MSTORE PUSH1 0x20 DUP4 ADD SWAP1 PUSH2 0x2C44 JUMP JUMPDEST PUSH1 0x41 DUP6 PUSH4 0x4E487B71 PUSH1 0xE0 SHL PUSH0 MSTORE MSTORE PUSH1 0x24 PUSH0 REVERT JUMPDEST POP DUP3 SWAP1 CALLVALUE PUSH2 0x52C JUMPI PUSH1 0x20 CALLDATASIZE PUSH1 0x3 NOT ADD SLT PUSH2 0x52C JUMPI PUSH2 0x10FC PUSH2 0x2EA1 JUMP JUMPDEST POP PUSH1 0x2 SLOAD DUP2 MLOAD PUSH4 0x2E76C56D PUSH1 0xE2 SHL DUP2 MSTORE DUP5 CALLDATALOAD SWAP5 DUP2 ADD SWAP5 SWAP1 SWAP5 MSTORE DUP3 SWAP1 DUP5 SWAP1 PUSH1 0x24 SWAP1 DUP3 SWAP1 PUSH1 0x1 PUSH1 0x1 PUSH1 0xA0 SHL SUB AND GAS STATICCALL SWAP2 DUP3 ISZERO PUSH2 0x871 JUMPI DUP1 SWAP3 PUSH2 0x114C JUMPI JUMPDEST DUP2 MLOAD PUSH1 0x20 DUP1 DUP3 MSTORE DUP2 SWAP1 PUSH2 0x2ED SWAP1 DUP3 ADD DUP7 PUSH2 0x27BB JUMP JUMPDEST SWAP1 SWAP2 POP RETURNDATASIZE DUP1 DUP3 DUP6 RETURNDATACOPY PUSH2 0x115E DUP2 DUP6 PUSH2 0x295C JUMP JUMPDEST DUP4 ADD SWAP3 PUSH1 0x20 DUP2 DUP6 SUB SLT PUSH2 0x52C JUMPI DUP1 MLOAD SWAP2 PUSH1 0x1 PUSH1 0x1 PUSH1 0x40 SHL SUB DUP4 GT PUSH2 0x3E8 JUMPI POP SWAP3 PUSH2 0x118C SWAP2 PUSH2 0x2ED SWAP5 ADD PUSH2 0x2CF4 JUMP JUMPDEST SWAP1 DUP4 PUSH2 0x1137 JUMP JUMPDEST POP CALLVALUE PUSH2 0x320 JUMPI PUSH1 0x20 CALLDATASIZE PUSH1 0x3 NOT ADD SLT PUSH2 0x320 JUMPI DUP3 PUSH2 0x11AE PUSH2 0x28B2 JUMP JUMPDEST PUSH1 0x3 SLOAD DUP4 MLOAD PUSH4 0xB27E1697 PUSH1 0xE0 SHL DUP2 MSTORE PUSH1 0x1 PUSH1 0x1 PUSH1 0xA0 SHL SUB SWAP3 DUP4 AND SWAP6 DUP2 ADD SWAP6 SWAP1 SWAP6 MSTORE DUP5 SWAP2 PUSH1 0x24 SWAP2 DUP4 SWAP2 AND GAS STATICCALL SWAP2 DUP3 ISZERO PUSH2 0x316 JUMPI DUP4 PUSH2 0x2ED SWAP5 SWAP4 PUSH2 0x11F7 JUMPI JUMPDEST POP POP MLOAD SWAP2 DUP3 SWAP2 DUP3 PUSH2 0x2ADF JUMP JUMPDEST PUSH2 0x1214 SWAP3 SWAP4 POP RETURNDATASIZE DUP1 SWAP2 DUP4 RETURNDATACOPY PUSH2 0x120C DUP2 DUP4 PUSH2 0x295C JUMP JUMPDEST DUP2 ADD SWAP1 PUSH2 0x2EED JUMP JUMPDEST SWAP1 PUSH0 DUP1 PUSH2 0x11EB JUMP JUMPDEST POP SWAP1 CALLVALUE PUSH2 0x320 JUMPI PUSH1 0x3 NOT SWAP1 PUSH1 0xC0 CALLDATASIZE DUP4 ADD SLT PUSH2 0x539 JUMPI PUSH1 0x1 PUSH1 0x1 PUSH1 0x40 SHL SUB SWAP3 DUP2 CALLDATALOAD DUP5 DUP2 GT PUSH2 0x67F JUMPI PUSH2 0x1250 SWAP1 CALLDATASIZE SWAP1 DUP5 ADD PUSH2 0x299A JUMP JUMPDEST SWAP3 PUSH1 0x24 SWAP5 DUP6 CALLDATALOAD DUP2 DUP2 GT PUSH2 0x677 JUMPI PUSH2 0x126A SWAP1 CALLDATASIZE SWAP1 DUP7 ADD PUSH2 0x299A JUMP JUMPDEST SWAP1 PUSH1 0x44 CALLDATALOAD SWAP1 DUP2 GT PUSH2 0x677 JUMPI PUSH2 0x1282 SWAP1 CALLDATASIZE SWAP1 DUP7 ADD PUSH2 0x299A JUMP JUMPDEST PUSH1 0x1 SLOAD DUP5 MLOAD PUSH4 0xC64B8A8F PUSH1 0xE0 SHL DUP2 MSTORE CALLER DUP8 DUP3 ADD MSTORE PUSH1 0x20 SWAP9 PUSH1 0x84 CALLDATALOAD SWAP6 PUSH1 0x1 PUSH1 0x1 PUSH1 0xA0 SHL SUB SWAP6 SWAP1 SWAP5 SWAP4 SWAP1 SWAP3 SWAP1 DUP7 AND SWAP1 DUP12 DUP2 DUP5 DUP2 DUP6 GAS STATICCALL SWAP1 DUP2 ISZERO PUSH2 0x1531 JUMPI DUP14 SWAP2 PUSH2 0x14F8 JUMPI JUMPDEST POP ISZERO PUSH2 0x14BA JUMPI DUP8 MLOAD PUSH4 0x5191E94F PUSH1 0xE1 SHL DUP2 MSTORE CALLER DUP11 DUP3 ADD MSTORE SWAP1 DUP13 SWAP1 DUP3 SWAP1 DUP5 SWAP1 DUP3 SWAP1 GAS STATICCALL SWAP1 DUP2 ISZERO PUSH2 0x14B0 JUMPI DUP13 SWAP2 PUSH2 0x148C JUMPI JUMPDEST POP DUP9 DUP2 LT ISZERO PUSH2 0x147A JUMPI PUSH1 0x2 SUB PUSH2 0x143F JUMPI SWAP1 DUP11 SWAP4 SWAP3 SWAP2 DUP6 PUSH1 0x2 SLOAD AND SWAP1 DUP2 EXTCODESIZE ISZERO PUSH2 0x67F JUMPI DUP6 DUP11 PUSH2 0x134F DUP14 SWAP8 DUP4 SWAP8 PUSH2 0x603 PUSH1 0xE0 SWAP9 DUP16 PUSH2 0x5F3 SWAP1 MLOAD SWAP13 DUP12 DUP15 SWAP13 SWAP11 DUP14 SWAP12 SWAP10 PUSH4 0xBDBE6F4F DUP14 SWAP12 SHL DUP12 MSTORE CALLER SWAP1 DUP12 ADD MSTORE DUP10 ADD MSTORE PUSH1 0xE4 DUP9 ADD SWAP1 PUSH2 0x2796 JUMP JUMPDEST PUSH1 0x64 CALLDATALOAD PUSH1 0x84 DUP4 ADD MSTORE DUP11 PUSH1 0xA4 DUP4 ADD MSTORE PUSH1 0xA4 CALLDATALOAD PUSH1 0xC4 DUP4 ADD MSTORE SUB SWAP3 GAS CALL DUP1 ISZERO PUSH2 0x1435 JUMPI SWAP1 DUP9 SWAP4 SWAP3 SWAP2 PUSH2 0x141C JUMPI JUMPDEST POP POP PUSH1 0x1 SLOAD AND DUP4 MLOAD SWAP5 DUP6 DUP1 SWAP3 PUSH4 0x9B9D326D PUSH1 0xE0 SHL DUP3 MSTORE GAS STATICCALL SWAP3 DUP4 ISZERO PUSH2 0x1412 JUMPI DUP7 SWAP4 PUSH2 0x13E1 JUMPI JUMPDEST POP PUSH2 0x13D4 PUSH32 0x5F25C590B5C7F62ED4186ADCA32D3118CAEF07E5020C6CC8268D4136DF2CFEF8 SWAP4 SWAP5 DUP4 MLOAD SWAP4 DUP1 DUP6 MSTORE DUP5 ADD SWAP1 PUSH2 0x2796 JUMP JUMPDEST SWAP5 DUP3 ADD MSTORE DUP1 CALLER SWAP5 SUB SWAP1 LOG3 DUP1 RETURN JUMPDEST SWAP3 POP DUP5 DUP4 DUP2 RETURNDATASIZE DUP4 GT PUSH2 0x140B JUMPI JUMPDEST PUSH2 0x13F8 DUP2 DUP4 PUSH2 0x295C JUMP JUMPDEST DUP2 ADD SUB SLT PUSH2 0x865 JUMPI SWAP2 MLOAD SWAP2 PUSH2 0x13D4 PUSH2 0x139F JUMP JUMPDEST POP RETURNDATASIZE PUSH2 0x13EE JUMP JUMPDEST DUP3 MLOAD RETURNDATASIZE DUP9 DUP3 RETURNDATACOPY RETURNDATASIZE SWAP1 REVERT JUMPDEST PUSH2 0x1428 SWAP2 SWAP3 SWAP4 POP PUSH2 0x28C8 JUMP JUMPDEST PUSH2 0x67B JUMPI DUP6 SWAP1 DUP8 PUSH0 PUSH2 0x1379 JUMP JUMPDEST DUP6 MLOAD RETURNDATASIZE DUP5 DUP3 RETURNDATACOPY RETURNDATASIZE SWAP1 REVERT JUMPDEST DUP8 PUSH1 0x17 PUSH1 0x64 SWAP3 DUP13 DUP11 MLOAD SWAP4 PUSH3 0x461BCD PUSH1 0xE5 SHL DUP6 MSTORE DUP5 ADD MSTORE DUP3 ADD MSTORE PUSH23 0x26BAB9BA103132903B32B934B334B2B21039B2B63632B9 PUSH1 0x49 SHL PUSH1 0x44 DUP3 ADD MSTORE REVERT JUMPDEST POP PUSH4 0x4E487B71 PUSH1 0xE0 SHL DUP12 MSTORE PUSH1 0x21 DUP9 MSTORE DUP11 REVERT JUMPDEST PUSH2 0x14A8 SWAP2 POP RETURNDATASIZE DUP1 DUP15 DUP4 RETURNDATACOPY PUSH2 0x14A0 DUP2 DUP4 PUSH2 0x295C JUMP JUMPDEST DUP2 ADD SWAP1 PUSH2 0x31F4 JUMP JUMPDEST SWAP1 POP PUSH0 PUSH2 0x12F4 JUMP JUMPDEST DUP9 MLOAD RETURNDATASIZE DUP15 DUP3 RETURNDATACOPY RETURNDATASIZE SWAP1 REVERT JUMPDEST DUP8 MLOAD PUSH3 0x461BCD PUSH1 0xE5 SHL DUP2 MSTORE DUP1 DUP11 ADD DUP13 SWAP1 MSTORE PUSH1 0x19 DUP2 DUP5 ADD MSTORE PUSH25 0x26BAB9BA103132903932B3B4B9BA32B932B21039B2B63632B9 PUSH1 0x39 SHL PUSH1 0x44 DUP3 ADD MSTORE PUSH1 0x64 SWAP1 REVERT JUMPDEST SWAP1 POP DUP12 DUP2 DUP2 RETURNDATASIZE DUP4 GT PUSH2 0x152A JUMPI JUMPDEST PUSH2 0x150F DUP2 DUP4 PUSH2 0x295C JUMP JUMPDEST DUP2 ADD SUB SLT PUSH2 0x1526 JUMPI PUSH2 0x1520 SWAP1 PUSH2 0x2CE7 JUMP JUMPDEST PUSH0 PUSH2 0x12C4 JUMP JUMPDEST DUP13 DUP1 REVERT JUMPDEST POP RETURNDATASIZE PUSH2 0x1505 JUMP JUMPDEST DUP10 MLOAD RETURNDATASIZE DUP16 DUP3 RETURNDATACOPY RETURNDATASIZE SWAP1 REVERT JUMPDEST POP SWAP1 CALLVALUE PUSH2 0x320 JUMPI PUSH1 0x20 CALLDATASIZE PUSH1 0x3 NOT ADD SLT PUSH2 0x320 JUMPI DUP3 PUSH2 0x1557 PUSH2 0x28B2 JUMP JUMPDEST PUSH2 0x155F PUSH2 0x2FC8 JUMP JUMPDEST POP PUSH1 0x2 SLOAD DUP5 MLOAD PUSH4 0x5191E94F PUSH1 0xE1 SHL DUP2 MSTORE PUSH1 0x1 PUSH1 0x1 PUSH1 0xA0 SHL SUB SWAP3 DUP4 AND SWAP5 DUP2 ADD SWAP5 SWAP1 SWAP5 MSTORE DUP4 SWAP2 PUSH1 0x24 SWAP2 DUP4 SWAP2 AND GAS STATICCALL SWAP1 DUP2 ISZERO PUSH2 0xF5B JUMPI DUP4 DUP1 SWAP3 PUSH2 0x15BD JUMPI JUMPDEST POP POP PUSH2 0x2ED PUSH2 0x15B2 DUP4 MLOAD SWAP5 DUP5 DUP7 SWAP6 DUP7 MSTORE DUP6 ADD SWAP1 PUSH2 0x2B5F JUMP JUMPDEST SWAP2 PUSH1 0x20 DUP5 ADD SWAP1 PUSH2 0x2C23 JUMP JUMPDEST SWAP1 SWAP2 POP PUSH2 0x15D5 SWAP3 SWAP4 POP RETURNDATASIZE DUP1 SWAP2 DUP4 RETURNDATACOPY PUSH2 0x14A0 DUP2 DUP4 PUSH2 0x295C JUMP JUMPDEST SWAP2 SWAP1 SWAP2 PUSH0 DUP1 PUSH2 0x159A JUMP JUMPDEST POP SWAP2 SWAP1 CALLVALUE PUSH2 0x52C JUMPI PUSH1 0x20 SWAP3 DUP4 PUSH1 0x3 NOT CALLDATASIZE ADD SLT PUSH2 0x320 JUMPI PUSH1 0x3 SLOAD DUP2 MLOAD PUSH4 0x9D4A2255 PUSH1 0xE0 SHL DUP2 MSTORE DUP4 CALLDATALOAD SWAP4 DUP2 ADD SWAP4 SWAP1 SWAP4 MSTORE PUSH1 0x1 PUSH1 0x1 PUSH1 0xA0 SHL SUB SWAP5 SWAP1 DUP5 SWAP1 DUP5 SWAP1 PUSH1 0x24 SWAP1 DUP3 SWAP1 DUP10 AND GAS STATICCALL SWAP3 DUP4 ISZERO PUSH2 0x17EA JUMPI DUP5 SWAP4 PUSH2 0x16D1 JUMPI JUMPDEST POP SWAP3 SWAP1 DUP1 MLOAD SWAP4 DUP1 DUP6 ADD SWAP2 DUP2 DUP7 MSTORE DUP5 MLOAD DUP1 SWAP4 MSTORE DUP1 DUP7 ADD SWAP1 DUP3 DUP2 DUP6 PUSH1 0x5 SHL DUP10 ADD ADD SWAP7 ADD SWAP5 SWAP8 JUMPDEST DUP5 DUP10 LT PUSH2 0x1663 JUMPI DUP8 DUP8 SUB DUP9 RETURN JUMPDEST SWAP1 SWAP2 SWAP3 SWAP4 SWAP5 SWAP6 DUP5 DUP1 PUSH1 0x1 SWAP3 PUSH1 0x3F NOT DUP12 DUP3 SUB ADD DUP8 MSTORE DUP10 MLOAD SWAP1 PUSH2 0x16A9 PUSH1 0xC0 DUP4 MLOAD DUP4 MSTORE DUP8 DUP6 DUP6 ADD MLOAD AND DUP6 DUP5 ADD MSTORE DUP9 DUP5 ADD MLOAD DUP10 DUP5 ADD MSTORE PUSH1 0x60 SWAP1 DUP1 DUP3 DUP7 ADD MLOAD SWAP3 DUP6 ADD MSTORE DUP4 ADD SWAP1 PUSH2 0x2796 JUMP JUMPDEST SWAP2 PUSH1 0x80 DUP1 DUP3 ADD MLOAD ISZERO ISZERO SWAP1 DUP4 ADD MSTORE PUSH1 0xA0 DUP1 SWAP2 ADD MLOAD SWAP2 ADD MSTORE SWAP9 ADD SWAP5 ADD SWAP9 ADD SWAP8 SWAP2 SWAP1 SWAP5 SWAP4 SWAP3 SWAP5 PUSH2 0x1656 JUMP JUMPDEST SWAP1 SWAP3 POP RETURNDATASIZE DUP1 DUP6 DUP4 RETURNDATACOPY PUSH2 0x16E3 DUP2 DUP4 PUSH2 0x295C JUMP JUMPDEST DUP2 ADD DUP4 DUP3 DUP3 SUB SLT PUSH2 0x9C4 JUMPI DUP2 MLOAD PUSH1 0x1 PUSH1 0x1 PUSH1 0x40 SHL SUB SWAP3 DUP4 DUP3 GT PUSH2 0x67B JUMPI ADD DUP2 PUSH1 0x1F DUP3 ADD SLT ISZERO PUSH2 0x67F JUMPI DUP1 MLOAD PUSH2 0x1717 DUP2 PUSH2 0x2C77 JUMP JUMPDEST SWAP4 PUSH2 0x1724 DUP7 MLOAD SWAP6 DUP7 PUSH2 0x295C JUMP JUMPDEST DUP2 DUP6 MSTORE DUP7 DUP1 DUP7 ADD SWAP3 PUSH1 0x5 SHL DUP5 ADD ADD SWAP3 DUP5 DUP5 GT PUSH2 0xBA4 JUMPI DUP8 DUP2 ADD SWAP3 JUMPDEST DUP5 DUP5 LT PUSH2 0x1753 JUMPI POP POP POP POP POP POP SWAP2 PUSH0 PUSH2 0x1632 JUMP JUMPDEST DUP4 MLOAD DUP4 DUP2 GT PUSH2 0xBA0 JUMPI DUP3 ADD PUSH1 0xC0 SWAP1 DUP2 PUSH1 0x1F NOT DUP3 DUP11 SUB ADD SLT PUSH2 0xB9C JUMPI DUP10 MLOAD SWAP2 PUSH2 0x177A DUP4 PUSH2 0x290A JUMP JUMPDEST DUP12 DUP3 ADD MLOAD DUP4 MSTORE PUSH2 0x178B DUP12 DUP4 ADD PUSH2 0x2C8E JUMP JUMPDEST DUP13 DUP5 ADD MSTORE PUSH1 0x60 SWAP2 DUP3 DUP2 ADD MLOAD DUP13 DUP6 ADD MSTORE PUSH1 0x80 SWAP3 DUP4 DUP3 ADD MLOAD DUP9 DUP2 GT PUSH2 0x17E6 JUMPI SWAP2 DUP15 SWAP7 SWAP5 SWAP3 SWAP2 PUSH2 0x17BF DUP14 DUP10 DUP1 SWAP10 SWAP8 SWAP6 DUP6 ADD ADD PUSH2 0x2CA2 JUMP JUMPDEST SWAP1 DUP6 ADD MSTORE PUSH1 0xA0 SWAP3 PUSH2 0x17D1 DUP5 DUP4 ADD PUSH2 0x2CE7 JUMP JUMPDEST SWAP1 DUP6 ADD MSTORE ADD MLOAD SWAP1 DUP3 ADD MSTORE DUP2 MSTORE ADD SWAP4 ADD SWAP3 PUSH2 0x173F JUMP JUMPDEST DUP16 DUP1 REVERT JUMPDEST DUP3 MLOAD RETURNDATASIZE DUP7 DUP3 RETURNDATACOPY RETURNDATASIZE SWAP1 REVERT JUMPDEST POP CALLVALUE PUSH2 0x320 JUMPI DUP3 PUSH1 0x3 NOT CALLDATASIZE ADD SLT PUSH2 0x320 JUMPI PUSH1 0x2 SLOAD DUP2 MLOAD PUSH4 0x9B269B8F PUSH1 0xE0 SHL DUP2 MSTORE SWAP3 DUP5 SWAP2 DUP5 SWAP2 SWAP1 DUP3 SWAP1 PUSH1 0x1 PUSH1 0x1 PUSH1 0xA0 SHL SUB AND GAS STATICCALL SWAP2 DUP3 ISZERO PUSH2 0x316 JUMPI DUP4 PUSH2 0x2ED SWAP5 SWAP4 PUSH2 0x1845 JUMPI JUMPDEST POP POP MLOAD SWAP2 DUP3 SWAP2 DUP3 PUSH2 0x2BDF JUMP JUMPDEST PUSH2 0x1862 SWAP3 SWAP4 POP RETURNDATASIZE DUP1 SWAP2 DUP4 RETURNDATACOPY PUSH2 0x185A DUP2 DUP4 PUSH2 0x295C JUMP JUMPDEST DUP2 ADD SWAP1 PUSH2 0x30CD JUMP JUMPDEST SWAP1 PUSH0 DUP1 PUSH2 0x1839 JUMP JUMPDEST DUP1 DUP5 DUP5 CALLVALUE PUSH2 0xC14 JUMPI DUP1 PUSH1 0x3 NOT CALLDATASIZE ADD SLT PUSH2 0xC14 JUMPI PUSH2 0x1885 PUSH2 0x28B2 JUMP JUMPDEST PUSH1 0x24 CALLDATALOAD SWAP1 DUP4 DUP3 LT ISZERO PUSH2 0x9C4 JUMPI PUSH2 0x1899 PUSH2 0x336E JUMP JUMPDEST PUSH1 0x2 SLOAD PUSH1 0x1 PUSH1 0x1 PUSH1 0xA0 SHL SUB SWAP2 SWAP1 DUP3 AND SWAP1 DUP2 EXTCODESIZE ISZERO PUSH2 0x67B JUMPI DUP7 PUSH1 0x44 SWAP3 PUSH2 0x18D9 DUP3 SWAP7 DUP9 MLOAD SWAP10 DUP11 SWAP8 DUP9 SWAP7 PUSH4 0x97B6F393 PUSH1 0xE0 SHL DUP9 MSTORE AND SWAP1 DUP7 ADD MSTORE PUSH1 0x24 DUP6 ADD SWAP1 PUSH2 0x2C23 JUMP JUMPDEST GAS CALL SWAP1 DUP2 ISZERO PUSH2 0x530 JUMPI POP PUSH2 0xBFF JUMPI POP RETURN JUMPDEST DUP4 DUP3 CALLVALUE PUSH2 0x52C JUMPI DUP2 PUSH1 0x3 NOT CALLDATASIZE ADD SLT PUSH2 0x52C JUMPI SWAP1 SLOAD SWAP1 MLOAD PUSH1 0x1 PUSH1 0x1 PUSH1 0xA0 SHL SUB SWAP1 SWAP2 AND DUP2 MSTORE PUSH1 0x20 SWAP1 RETURN JUMPDEST DUP1 DUP5 DUP5 PUSH1 0x20 CALLDATASIZE PUSH1 0x3 NOT ADD SLT PUSH2 0xC14 JUMPI PUSH1 0x3 SLOAD PUSH1 0x1 PUSH1 0x1 PUSH1 0xA0 SHL SUB AND SWAP2 DUP3 EXTCODESIZE ISZERO PUSH2 0xC0F JUMPI DUP4 SWAP1 PUSH1 0x24 DUP4 MLOAD DUP1 SWAP6 DUP2 SWAP4 PUSH4 0x4321134F PUSH1 0xE1 SHL DUP4 MSTORE DUP1 CALLDATALOAD SWAP1 DUP4 ADD MSTORE CALLVALUE SWAP1 GAS CALL SWAP1 DUP2 ISZERO PUSH2 0x530 JUMPI POP PUSH2 0xBFF JUMPI POP RETURN JUMPDEST POP CALLVALUE PUSH2 0x320 JUMPI DUP3 PUSH1 0x3 NOT SWAP3 PUSH1 0xA0 DUP5 CALLDATASIZE ADD SLT PUSH2 0x52C JUMPI PUSH1 0x1 PUSH1 0x1 PUSH1 0x40 SHL SUB DUP2 CALLDATALOAD DUP2 DUP2 GT PUSH2 0x539 JUMPI PUSH2 0x1995 SWAP1 CALLDATASIZE SWAP1 DUP5 ADD PUSH2 0x299A JUMP JUMPDEST SWAP5 PUSH1 0x24 CALLDATALOAD DUP3 DUP2 GT PUSH2 0x9C4 JUMPI PUSH2 0x19AD SWAP1 CALLDATASIZE SWAP1 DUP6 ADD PUSH2 0x299A JUMP JUMPDEST SWAP3 PUSH1 0x44 CALLDATALOAD DUP4 DUP2 GT PUSH2 0x67F JUMPI PUSH2 0x19C5 SWAP1 CALLDATASIZE SWAP1 DUP4 ADD PUSH2 0x299A JUMP JUMPDEST PUSH1 0x64 CALLDATALOAD DUP5 DUP2 GT PUSH2 0x67B JUMPI PUSH2 0x19DC SWAP1 CALLDATASIZE SWAP1 DUP5 ADD PUSH2 0x299A JUMP JUMPDEST SWAP4 PUSH1 0x84 CALLDATALOAD SWAP1 DUP2 GT PUSH2 0x67B JUMPI PUSH2 0x19F4 SWAP1 CALLDATASIZE SWAP1 DUP5 ADD PUSH2 0x299A JUMP JUMPDEST PUSH1 0x2 SLOAD PUSH1 0x1 PUSH1 0x1 PUSH1 0xA0 SHL SUB AND SWAP3 SWAP1 SWAP2 SWAP1 DUP4 EXTCODESIZE ISZERO PUSH2 0x677 JUMPI PUSH2 0x1A8A PUSH2 0x1A4B SWAP6 DUP12 SWAP5 PUSH2 0x1A7B DUP12 SWAP10 PUSH2 0x1A6B DUP12 SWAP8 DUP16 PUSH2 0x1A5B SWAP1 MLOAD SWAP15 DUP16 SWAP14 DUP15 SWAP13 DUP14 SWAP12 PUSH4 0x39ACE853 PUSH1 0xE2 SHL DUP14 MSTORE CALLER SWAP1 DUP14 ADD MSTORE PUSH1 0xC0 PUSH1 0x24 DUP14 ADD MSTORE PUSH1 0xC4 DUP13 ADD SWAP1 PUSH2 0x2796 JUMP JUMPDEST SWAP1 DUP9 DUP12 DUP4 SUB ADD PUSH1 0x44 DUP13 ADD MSTORE PUSH2 0x2796 JUMP JUMPDEST SWAP1 DUP7 DUP10 DUP4 SUB ADD PUSH1 0x64 DUP11 ADD MSTORE PUSH2 0x2796 JUMP JUMPDEST SWAP1 DUP5 DUP8 DUP4 SUB ADD PUSH1 0x84 DUP9 ADD MSTORE PUSH2 0x2796 JUMP JUMPDEST SWAP2 DUP5 DUP4 SUB ADD PUSH1 0xA4 DUP6 ADD MSTORE PUSH2 0x2796 JUMP JUMPDEST SUB SWAP3 GAS CALL DUP1 ISZERO PUSH2 0xD23 JUMPI PUSH2 0x1AD2 JUMPI JUMPDEST POP POP PUSH32 0xECEF9454C60FAB6A60B6F2AA319263C0F711CDB927C213E76687F7853B597842 SWAP1 MLOAD PUSH1 0x20 DUP2 MSTORE DUP1 PUSH2 0x95E CALLER SWAP5 PUSH1 0x20 DUP4 ADD SWAP1 PUSH2 0x2796 JUMP JUMPDEST PUSH2 0x1ADB SWAP1 PUSH2 0x28C8 JUMP JUMPDEST PUSH2 0x320 JUMPI DUP3 PUSH0 PUSH2 0x1A99 JUMP JUMPDEST DUP1 DUP5 DUP5 CALLVALUE PUSH2 0xC14 JUMPI DUP1 PUSH1 0x3 NOT CALLDATASIZE ADD SLT PUSH2 0xC14 JUMPI PUSH1 0x24 CALLDATALOAD PUSH1 0x1 PUSH1 0x1 PUSH1 0x40 SHL SUB DUP2 GT PUSH2 0xC0F JUMPI PUSH2 0x1B17 SWAP1 CALLDATASIZE SWAP1 DUP5 ADD PUSH2 0x299A JUMP JUMPDEST SWAP2 PUSH2 0x1B20 PUSH2 0x336E JUMP JUMPDEST PUSH1 0x2 SLOAD PUSH1 0x1 PUSH1 0x1 PUSH1 0xA0 SHL SUB AND SWAP3 DUP4 EXTCODESIZE ISZERO PUSH2 0x9C4 JUMPI PUSH2 0x1B5D SWAP4 PUSH1 0x20 DUP7 DUP1 SWAP5 DUP7 MLOAD SWAP8 DUP9 SWAP6 DUP7 SWAP5 DUP6 SWAP4 PUSH4 0x6E14C341 PUSH1 0xE1 SHL DUP6 MSTORE DUP5 ADD MSTORE PUSH1 0x24 DUP4 ADD SWAP1 PUSH2 0x2796 JUMP JUMPDEST SUB SWAP3 GAS CALL SWAP1 DUP2 ISZERO PUSH2 0x530 JUMPI POP PUSH2 0xBFF JUMPI POP RETURN JUMPDEST DUP4 DUP3 CALLVALUE PUSH2 0x52C JUMPI DUP2 PUSH1 0x3 NOT CALLDATASIZE ADD SLT PUSH2 0x52C JUMPI MLOAD PUSH32 0x0 PUSH1 0x1 PUSH1 0x1 PUSH1 0xA0 SHL SUB AND DUP2 MSTORE PUSH1 0x20 SWAP1 RETURN JUMPDEST DUP4 CALLVALUE PUSH2 0x3E8 JUMPI DUP1 PUSH1 0x3 NOT CALLDATASIZE ADD SLT PUSH2 0x3E8 JUMPI PUSH2 0x1BCD PUSH2 0x336E JUMP JUMPDEST PUSH0 DUP1 SLOAD PUSH1 0x1 PUSH1 0x1 PUSH1 0xA0 SHL SUB NOT DUP2 AND DUP3 SSTORE PUSH1 0x1 PUSH1 0x1 PUSH1 0xA0 SHL SUB AND PUSH0 DUP1 MLOAD PUSH1 0x20 PUSH2 0x33C6 DUP4 CODECOPY DUP2 MLOAD SWAP2 MSTORE DUP3 DUP1 LOG3 DUP1 RETURN JUMPDEST POP SWAP2 SWAP1 CALLVALUE PUSH2 0x52C JUMPI PUSH1 0x20 SWAP2 DUP3 PUSH1 0x3 NOT CALLDATASIZE ADD SLT PUSH2 0x3E8 JUMPI PUSH2 0x1C18 PUSH2 0x28B2 JUMP JUMPDEST SWAP1 DUP1 DUP6 MLOAD SWAP3 PUSH2 0x1C26 DUP5 PUSH2 0x28EF JUMP JUMPDEST DUP2 PUSH1 0x60 DUP6 DUP2 DUP1 SWAP8 MSTORE DUP2 DUP10 DUP3 ADD MSTORE DUP2 DUP11 DUP3 ADD MSTORE ADD MSTORE PUSH1 0x24 PUSH1 0x1 DUP1 PUSH1 0xA0 SHL SUB SWAP2 DUP3 PUSH1 0x2 SLOAD AND DUP10 MLOAD SWAP8 DUP9 SWAP5 DUP6 SWAP4 PUSH4 0x6F77926B PUSH1 0xE0 SHL DUP6 MSTORE AND SWAP1 DUP4 ADD MSTORE GAS STATICCALL SWAP3 DUP4 ISZERO PUSH2 0x1D78 JUMPI DUP2 SWAP4 PUSH2 0x1CCB JUMPI JUMPDEST POP POP PUSH2 0x1CBD DUP5 MLOAD SWAP5 DUP5 DUP7 SWAP6 DUP7 MSTORE PUSH2 0x1CAB PUSH2 0x1C94 DUP7 MLOAD PUSH1 0x80 DUP5 DUP11 ADD MSTORE PUSH1 0xA0 DUP10 ADD SWAP1 PUSH2 0x2796 JUMP JUMPDEST SWAP2 DUP7 ADD MLOAD SWAP2 PUSH1 0x1F NOT SWAP3 DUP4 DUP10 DUP4 SUB ADD DUP6 DUP11 ADD MSTORE PUSH2 0x2796 JUMP JUMPDEST SWAP2 DUP6 ADD MLOAD SWAP1 DUP7 DUP4 SUB ADD DUP5 DUP8 ADD MSTORE PUSH2 0x2796 JUMP JUMPDEST SWAP2 ADD MLOAD ISZERO ISZERO PUSH1 0x80 DUP4 ADD MSTORE SUB SWAP1 RETURN JUMPDEST SWAP1 SWAP2 SWAP3 POP RETURNDATASIZE DUP1 DUP4 DUP4 RETURNDATACOPY PUSH2 0x1CDE DUP2 DUP4 PUSH2 0x295C JUMP JUMPDEST DUP2 ADD DUP5 DUP3 DUP3 SUB SLT PUSH2 0x320 JUMPI DUP2 MLOAD PUSH1 0x1 PUSH1 0x1 PUSH1 0x40 SHL SUB SWAP3 DUP4 DUP3 GT PUSH2 0x9C4 JUMPI ADD SWAP2 PUSH1 0x80 DUP4 DUP4 SUB SLT PUSH2 0x539 JUMPI DUP7 MLOAD SWAP4 PUSH2 0x1D13 DUP6 PUSH2 0x28EF JUMP JUMPDEST DUP4 MLOAD DUP3 DUP2 GT PUSH2 0x52C JUMPI DUP4 PUSH2 0x1D28 SWAP2 DUP7 ADD PUSH2 0x2CA2 JUMP JUMPDEST DUP6 MSTORE DUP7 DUP5 ADD MLOAD DUP3 DUP2 GT PUSH2 0x52C JUMPI DUP4 PUSH2 0x1D41 SWAP2 DUP7 ADD PUSH2 0x2CA2 JUMP JUMPDEST DUP8 DUP7 ADD MSTORE DUP8 DUP5 ADD MLOAD SWAP2 DUP3 GT PUSH2 0x3E8 JUMPI POP SWAP2 PUSH2 0x1D62 DUP6 SWAP3 PUSH2 0x1D6C SWAP5 DUP4 ADD PUSH2 0x2CA2 JUMP JUMPDEST DUP8 DUP6 ADD MSTORE ADD PUSH2 0x2CE7 JUMP JUMPDEST DUP3 DUP3 ADD MSTORE SWAP1 PUSH0 DUP1 PUSH2 0x1C6F JUMP JUMPDEST POP DUP5 MLOAD SWAP1 RETURNDATASIZE SWAP1 DUP3 RETURNDATACOPY RETURNDATASIZE SWAP1 REVERT JUMPDEST POP CALLVALUE PUSH2 0x320 JUMPI DUP3 PUSH1 0x3 NOT CALLDATASIZE ADD SLT PUSH2 0x320 JUMPI PUSH1 0x2 SLOAD DUP2 MLOAD PUSH4 0x37B4779D PUSH1 0xE1 SHL DUP2 MSTORE SWAP3 DUP5 SWAP2 DUP5 SWAP2 SWAP1 DUP3 SWAP1 PUSH1 0x1 PUSH1 0x1 PUSH1 0xA0 SHL SUB AND GAS STATICCALL SWAP2 DUP3 ISZERO PUSH2 0x316 JUMPI DUP4 PUSH2 0x2ED SWAP5 SWAP4 PUSH2 0x1845 JUMPI POP POP MLOAD SWAP2 DUP3 SWAP2 DUP3 PUSH2 0x2BDF JUMP JUMPDEST POP DUP3 SWAP1 CALLVALUE PUSH2 0x52C JUMPI PUSH1 0x20 CALLDATASIZE PUSH1 0x3 NOT ADD SLT PUSH2 0x52C JUMPI PUSH1 0x2 SLOAD DUP2 MLOAD PUSH4 0x79829693 PUSH1 0xE1 SHL DUP2 MSTORE DUP5 CALLDATALOAD SWAP5 DUP2 ADD SWAP5 SWAP1 SWAP5 MSTORE DUP3 SWAP1 DUP5 SWAP1 PUSH1 0x24 SWAP1 DUP3 SWAP1 PUSH1 0x1 PUSH1 0x1 PUSH1 0xA0 SHL SUB AND GAS STATICCALL DUP1 ISZERO PUSH2 0x1E73 JUMPI DUP3 DUP1 SWAP5 DUP2 SWAP3 PUSH2 0x1E4F JUMPI JUMPDEST POP PUSH2 0x1E40 DUP4 MLOAD SWAP6 DUP7 SWAP6 DUP7 MSTORE PUSH1 0x80 PUSH1 0x20 DUP8 ADD MSTORE PUSH1 0x80 DUP7 ADD SWAP1 PUSH2 0x2796 JUMP JUMPDEST SWAP3 DUP5 ADD MSTORE ISZERO ISZERO PUSH1 0x60 DUP4 ADD MSTORE SUB SWAP1 RETURN JUMPDEST SWAP2 POP SWAP3 POP PUSH2 0x1E68 SWAP2 SWAP4 POP RETURNDATASIZE DUP1 DUP5 DUP4 RETURNDATACOPY PUSH2 0x3CA DUP2 DUP4 PUSH2 0x295C JUMP JUMPDEST POP SWAP1 SWAP4 SWAP2 SWAP3 DUP6 PUSH2 0x1E24 JUMP JUMPDEST POP MLOAD SWAP1 RETURNDATASIZE SWAP1 DUP3 RETURNDATACOPY RETURNDATASIZE SWAP1 REVERT JUMPDEST PUSH2 0x2A44 JUMP JUMPDEST DUP1 DUP5 DUP5 CALLVALUE PUSH2 0xC14 JUMPI PUSH1 0x20 CALLDATASIZE PUSH1 0x3 NOT ADD SLT PUSH2 0xC14 JUMPI PUSH1 0x1 SLOAD PUSH1 0x1 PUSH1 0x1 PUSH1 0xA0 SHL SUB AND SWAP2 DUP3 EXTCODESIZE ISZERO PUSH2 0xC0F JUMPI DUP4 SWAP3 PUSH1 0x24 DUP5 SWAP3 DUP5 MLOAD SWAP6 DUP7 SWAP4 DUP5 SWAP3 PUSH4 0x2AAFA807 PUSH1 0xE0 SHL DUP5 MSTORE DUP1 CALLDATALOAD SWAP1 DUP5 ADD MSTORE GAS CALL SWAP1 DUP2 ISZERO PUSH2 0x530 JUMPI POP PUSH2 0xBFF JUMPI POP RETURN JUMPDEST POP CALLVALUE PUSH2 0x320 JUMPI DUP3 PUSH1 0x3 NOT CALLDATASIZE ADD SLT PUSH2 0x320 JUMPI PUSH1 0x2 SLOAD DUP2 MLOAD PUSH3 0xB5AD4B PUSH1 0xE7 SHL DUP2 MSTORE SWAP3 DUP5 SWAP2 DUP5 SWAP2 SWAP1 DUP3 SWAP1 PUSH1 0x1 PUSH1 0x1 PUSH1 0xA0 SHL SUB AND GAS STATICCALL SWAP2 DUP3 ISZERO PUSH2 0x316 JUMPI DUP4 PUSH2 0x2ED SWAP5 SWAP4 PUSH2 0x1845 JUMPI POP POP MLOAD SWAP2 DUP3 SWAP2 DUP3 PUSH2 0x2BDF JUMP JUMPDEST POP DUP3 SWAP1 CALLVALUE PUSH2 0x52C JUMPI DUP2 PUSH1 0x3 NOT CALLDATASIZE ADD SLT PUSH2 0x52C JUMPI PUSH1 0x2 SLOAD DUP2 MLOAD PUSH4 0x2B857545 PUSH1 0xE1 SHL DUP2 MSTORE SWAP4 PUSH1 0x20 SWAP2 DUP6 SWAP2 SWAP1 DUP3 SWAP1 PUSH1 0x1 PUSH1 0x1 PUSH1 0xA0 SHL SUB AND GAS STATICCALL SWAP2 DUP3 ISZERO PUSH2 0x871 JUMPI SWAP2 PUSH2 0x838 JUMPI PUSH1 0x20 SWAP3 POP MLOAD SWAP1 DUP2 MSTORE RETURN JUMPDEST DUP1 DUP5 DUP5 CALLVALUE PUSH2 0xC14 JUMPI DUP3 PUSH1 0x3 NOT CALLDATASIZE ADD SLT PUSH2 0xC14 JUMPI PUSH2 0x1F8F PUSH2 0x336E JUMP JUMPDEST PUSH1 0x2 SLOAD PUSH1 0x1 PUSH1 0x1 PUSH1 0xA0 SHL SUB AND SWAP2 DUP3 EXTCODESIZE ISZERO PUSH2 0xC0F JUMPI DUP2 MLOAD PUSH4 0x27109E9 PUSH1 0xE5 SHL DUP2 MSTORE SWAP3 DUP5 SWAP2 DUP5 SWAP2 DUP3 SWAP1 DUP5 SWAP1 GAS CALL SWAP1 DUP2 ISZERO PUSH2 0x530 JUMPI POP PUSH2 0xBFF JUMPI POP RETURN JUMPDEST POP DUP3 SWAP1 CALLVALUE PUSH2 0x52C JUMPI PUSH1 0x20 CALLDATASIZE PUSH1 0x3 NOT ADD SLT PUSH2 0x52C JUMPI DUP2 PUSH2 0x1FE6 PUSH2 0x28B2 JUMP JUMPDEST PUSH2 0x1FEE PUSH2 0x2FC8 JUMP JUMPDEST POP PUSH1 0x2 SLOAD DUP4 MLOAD PUSH4 0x2149F2E7 PUSH1 0xE1 SHL DUP2 MSTORE PUSH1 0x1 PUSH1 0x1 PUSH1 0xA0 SHL SUB SWAP3 DUP4 AND SWAP7 DUP2 ADD SWAP7 SWAP1 SWAP7 MSTORE DUP6 SWAP2 PUSH1 0x24 SWAP2 DUP4 SWAP2 AND GAS STATICCALL SWAP2 DUP3 ISZERO PUSH2 0x871 JUMPI DUP1 SWAP3 PUSH2 0x203D JUMPI JUMPDEST DUP2 MLOAD PUSH1 0x20 DUP1 DUP3 MSTORE DUP2 SWAP1 PUSH2 0x2ED SWAP1 DUP3 ADD DUP7 PUSH2 0x2B5F JUMP JUMPDEST SWAP1 SWAP2 POP RETURNDATASIZE DUP1 DUP3 DUP6 RETURNDATACOPY PUSH2 0x204F DUP2 DUP6 PUSH2 0x295C JUMP JUMPDEST DUP4 ADD SWAP3 PUSH1 0x20 DUP2 DUP6 SUB SLT PUSH2 0x52C JUMPI DUP1 MLOAD SWAP2 PUSH1 0x1 PUSH1 0x1 PUSH1 0x40 SHL SUB DUP4 GT PUSH2 0x3E8 JUMPI POP SWAP3 PUSH2 0x207D SWAP2 PUSH2 0x2ED SWAP5 ADD PUSH2 0x2FFE JUMP JUMPDEST SWAP1 DUP4 PUSH2 0x2028 JUMP JUMPDEST DUP1 DUP5 DUP5 CALLVALUE PUSH2 0xC14 JUMPI DUP3 PUSH1 0x3 NOT CALLDATASIZE ADD SLT PUSH2 0xC14 JUMPI PUSH1 0x3 SLOAD PUSH1 0x1 PUSH1 0x1 PUSH1 0xA0 SHL SUB AND SWAP2 DUP3 EXTCODESIZE ISZERO PUSH2 0xC0F JUMPI DUP2 MLOAD PUSH4 0x3CCFD60B PUSH1 0xE0 SHL DUP2 MSTORE SWAP3 DUP5 SWAP2 DUP5 SWAP2 DUP3 SWAP1 DUP5 SWAP1 GAS CALL SWAP1 DUP2 ISZERO PUSH2 0x530 JUMPI POP PUSH2 0xBFF JUMPI POP RETURN JUMPDEST POP CALLVALUE PUSH2 0x320 JUMPI PUSH1 0x20 CALLDATASIZE PUSH1 0x3 NOT ADD SLT PUSH2 0x320 JUMPI DUP3 PUSH2 0x20EC PUSH2 0x28B2 JUMP JUMPDEST PUSH1 0x3 SLOAD DUP4 MLOAD PUSH4 0x3C2575D5 PUSH1 0xE0 SHL DUP2 MSTORE PUSH1 0x1 PUSH1 0x1 PUSH1 0xA0 SHL SUB SWAP3 DUP4 AND SWAP6 DUP2 ADD SWAP6 SWAP1 SWAP6 MSTORE DUP5 SWAP2 PUSH1 0x24 SWAP2 DUP4 SWAP2 AND GAS STATICCALL SWAP2 DUP3 ISZERO PUSH2 0x316 JUMPI DUP4 PUSH2 0x2ED SWAP5 SWAP4 PUSH2 0x11F7 JUMPI POP POP MLOAD SWAP2 DUP3 SWAP2 DUP3 PUSH2 0x2ADF JUMP JUMPDEST DUP4 CALLVALUE PUSH2 0x3E8 JUMPI DUP1 PUSH1 0x3 NOT CALLDATASIZE ADD SLT PUSH2 0x3E8 JUMPI PUSH2 0x214D PUSH2 0x322D JUMP JUMPDEST DUP1 RETURN JUMPDEST DUP1 DUP5 DUP5 CALLVALUE PUSH2 0xC14 JUMPI DUP1 PUSH1 0x3 NOT CALLDATASIZE ADD SLT PUSH2 0xC14 JUMPI PUSH1 0x3 SLOAD PUSH1 0x1 PUSH1 0x1 PUSH1 0xA0 SHL SUB AND SWAP2 DUP3 EXTCODESIZE ISZERO PUSH2 0xC0F JUMPI DUP4 SWAP3 PUSH1 0x44 DUP5 SWAP3 DUP5 MLOAD SWAP6 DUP7 SWAP4 DUP5 SWAP3 PUSH4 0x24D41A03 PUSH1 0xE0 SHL DUP5 MSTORE DUP1 CALLDATALOAD SWAP1 DUP5 ADD MSTORE PUSH1 0x24 CALLDATALOAD PUSH1 0x24 DUP5 ADD MSTORE GAS CALL SWAP1 DUP2 ISZERO PUSH2 0x530 JUMPI POP PUSH2 0xBFF JUMPI POP RETURN JUMPDEST POP DUP3 SWAP1 CALLVALUE PUSH2 0x52C JUMPI DUP2 PUSH1 0x3 NOT CALLDATASIZE ADD SLT PUSH2 0x52C JUMPI PUSH1 0x2 SLOAD DUP2 MLOAD PUSH4 0x855AA5B PUSH1 0xE2 SHL DUP2 MSTORE SWAP4 PUSH1 0x20 SWAP2 DUP6 SWAP2 SWAP1 DUP3 SWAP1 PUSH1 0x1 PUSH1 0x1 PUSH1 0xA0 SHL SUB AND GAS STATICCALL SWAP2 DUP3 ISZERO PUSH2 0x871 JUMPI SWAP2 PUSH2 0x838 JUMPI PUSH1 0x20 SWAP3 POP MLOAD SWAP1 DUP2 MSTORE RETURN JUMPDEST POP DUP3 SWAP1 CALLVALUE PUSH2 0x52C JUMPI PUSH1 0x20 SWAP3 DUP4 PUSH1 0x3 NOT CALLDATASIZE ADD SLT PUSH2 0x320 JUMPI DUP4 PUSH2 0x2218 PUSH2 0x28B2 JUMP JUMPDEST PUSH1 0x3 SLOAD DUP5 MLOAD PUSH4 0x2148893F PUSH1 0xE0 SHL DUP2 MSTORE PUSH1 0x1 PUSH1 0x1 PUSH1 0xA0 SHL SUB SWAP3 DUP4 AND SWAP5 DUP2 ADD SWAP5 SWAP1 SWAP5 MSTORE DUP4 SWAP2 PUSH1 0x24 SWAP2 DUP4 SWAP2 AND GAS STATICCALL SWAP3 DUP4 ISZERO PUSH2 0x107A JUMPI SWAP3 PUSH2 0x2257 JUMPI JUMPDEST POP MLOAD SWAP1 DUP2 MSTORE RETURN JUMPDEST SWAP1 SWAP2 POP DUP3 DUP2 DUP2 RETURNDATASIZE DUP4 GT PUSH2 0x227F JUMPI JUMPDEST PUSH2 0x226F DUP2 DUP4 PUSH2 0x295C JUMP JUMPDEST DUP2 ADD SUB SLT PUSH2 0x865 JUMPI MLOAD SWAP1 DUP4 PUSH2 0x2250 JUMP JUMPDEST POP RETURNDATASIZE PUSH2 0x2265 JUMP JUMPDEST POP DUP3 SWAP1 CALLVALUE PUSH2 0x52C JUMPI DUP2 PUSH1 0x3 NOT CALLDATASIZE ADD SLT PUSH2 0x52C JUMPI DUP1 MLOAD PUSH4 0x1A740AF9 PUSH1 0xE3 SHL DUP2 MSTORE SWAP2 PUSH32 0x0 PUSH1 0x1 PUSH1 0x1 PUSH1 0xA0 SHL SUB AND SWAP2 PUSH1 0x20 SWAP2 SWAP1 DUP3 DUP6 DUP8 DUP2 DUP8 GAS STATICCALL SWAP5 DUP6 ISZERO PUSH2 0x1E73 JUMPI DUP3 SWAP6 PUSH2 0x23AB JUMPI JUMPDEST POP DUP1 MLOAD PUSH4 0xBFC12C05 PUSH1 0xE0 SHL DUP2 MSTORE DUP4 DUP2 DUP9 DUP2 DUP9 GAS STATICCALL SWAP3 DUP4 ISZERO PUSH2 0x107A JUMPI SWAP3 PUSH2 0x237C JUMPI JUMPDEST POP DUP1 MLOAD SWAP3 DUP4 DUP3 ADD PUSH1 0x1 PUSH1 0x1 PUSH1 0x40 SHL SUB DUP2 GT DUP6 DUP3 LT OR PUSH2 0x2369 JUMPI PUSH2 0x2ED SWAP6 SWAP7 SWAP8 POP DUP3 MSTORE PUSH1 0xF DUP5 MSTORE PUSH15 0x52656769737472792076312E302E3 PUSH1 0x8C SHL DUP2 DUP6 ADD MSTORE DUP2 MLOAD SWAP7 DUP8 SWAP7 DUP8 MSTORE ISZERO ISZERO SWAP1 DUP7 ADD MSTORE DUP5 ADD MSTORE PUSH1 0x80 PUSH1 0x60 DUP5 ADD MSTORE PUSH1 0x80 DUP4 ADD SWAP1 PUSH2 0x2796 JUMP JUMPDEST PUSH1 0x41 DUP9 PUSH4 0x4E487B71 PUSH1 0xE0 SHL PUSH0 MSTORE MSTORE PUSH1 0x24 PUSH0 REVERT JUMPDEST SWAP1 SWAP2 POP DUP3 DUP2 DUP2 RETURNDATASIZE DUP4 GT PUSH2 0x23A4 JUMPI JUMPDEST PUSH2 0x2394 DUP2 DUP4 PUSH2 0x295C JUMP JUMPDEST DUP2 ADD SUB SLT PUSH2 0x865 JUMPI MLOAD SWAP1 DUP7 PUSH2 0x230B JUMP JUMPDEST POP RETURNDATASIZE PUSH2 0x238A JUMP JUMPDEST SWAP1 SWAP5 POP DUP3 DUP2 DUP2 RETURNDATASIZE DUP4 GT PUSH2 0x23DB JUMPI JUMPDEST PUSH2 0x23C3 DUP2 DUP4 PUSH2 0x295C JUMP JUMPDEST DUP2 ADD SUB SLT PUSH2 0x52C JUMPI PUSH2 0x23D4 SWAP1 PUSH2 0x2CE7 JUMP JUMPDEST SWAP4 DUP7 PUSH2 0x22EA JUMP JUMPDEST POP RETURNDATASIZE PUSH2 0x23B9 JUMP JUMPDEST DUP1 DUP5 DUP5 CALLVALUE PUSH2 0xC14 JUMPI PUSH1 0x60 CALLDATASIZE PUSH1 0x3 NOT ADD SLT PUSH2 0xC14 JUMPI PUSH1 0x44 CALLDATALOAD PUSH1 0x1 PUSH1 0x1 PUSH1 0x40 SHL SUB DUP2 GT PUSH2 0xC0F JUMPI PUSH2 0x2414 SWAP1 CALLDATASIZE SWAP1 DUP5 ADD PUSH2 0x299A JUMP JUMPDEST PUSH1 0x3 SLOAD PUSH1 0x1 PUSH1 0x1 PUSH1 0xA0 SHL SUB AND SWAP3 SWAP1 DUP4 EXTCODESIZE ISZERO PUSH2 0x9C4 JUMPI PUSH2 0x1B5D SWAP4 DUP6 SWAP3 DUP4 DUP6 MLOAD DUP1 SWAP8 DUP2 SWAP6 DUP3 SWAP5 PUSH4 0x2DB0367 PUSH1 0xE3 SHL DUP5 MSTORE DUP1 CALLDATALOAD SWAP1 DUP5 ADD MSTORE PUSH1 0x24 CALLDATALOAD PUSH1 0x24 DUP5 ADD MSTORE PUSH1 0x60 PUSH1 0x44 DUP5 ADD MSTORE PUSH1 0x64 DUP4 ADD SWAP1 PUSH2 0x2796 JUMP JUMPDEST DUP4 DUP3 CALLVALUE PUSH2 0x52C JUMPI DUP2 PUSH1 0x3 NOT CALLDATASIZE ADD SLT PUSH2 0x52C JUMPI PUSH1 0x1 SLOAD SWAP1 MLOAD PUSH1 0x1 PUSH1 0x1 PUSH1 0xA0 SHL SUB SWAP1 SWAP2 AND DUP2 MSTORE PUSH1 0x20 SWAP1 RETURN JUMPDEST POP CALLVALUE PUSH2 0x865 JUMPI DUP1 PUSH1 0x3 NOT CALLDATASIZE ADD SLT PUSH2 0x865 JUMPI PUSH1 0x24 CALLDATALOAD PUSH1 0x1 PUSH1 0x1 PUSH1 0xA0 SHL SUB DUP2 DUP2 AND SWAP4 SWAP2 DUP5 SWAP1 SUB PUSH2 0x865 JUMPI PUSH1 0x3 SLOAD AND SWAP3 DUP4 EXTCODESIZE ISZERO PUSH2 0x865 JUMPI PUSH1 0x44 PUSH0 SWAP3 DUP4 DUP6 MLOAD SWAP7 DUP8 SWAP5 DUP6 SWAP4 PUSH4 0x46A96CD PUSH1 0xE2 SHL DUP6 MSTORE DUP1 CALLDATALOAD SWAP1 DUP6 ADD MSTORE PUSH1 0x24 DUP5 ADD MSTORE GAS CALL SWAP1 DUP2 ISZERO PUSH2 0x24FD JUMPI POP PUSH2 0x24F1 JUMPI POP DUP1 RETURN JUMPDEST PUSH2 0x24FB SWAP2 POP PUSH2 0x28C8 JUMP JUMPDEST STOP JUMPDEST MLOAD RETURNDATASIZE PUSH0 DUP3 RETURNDATACOPY RETURNDATASIZE SWAP1 REVERT JUMPDEST POP SWAP1 CALLVALUE PUSH2 0x865 JUMPI PUSH1 0x20 SWAP2 DUP3 PUSH1 0x3 NOT CALLDATASIZE ADD SLT PUSH2 0x865 JUMPI DUP3 PUSH2 0x2524 PUSH2 0x28B2 JUMP JUMPDEST PUSH1 0x1 SLOAD DUP4 MLOAD PUSH4 0xE50CEE5 PUSH1 0xE0 SHL DUP2 MSTORE PUSH1 0x1 PUSH1 0x1 PUSH1 0xA0 SHL SUB SWAP3 DUP4 AND SWAP6 DUP2 ADD SWAP6 SWAP1 SWAP6 MSTORE DUP5 SWAP2 PUSH1 0x24 SWAP2 DUP4 SWAP2 AND GAS STATICCALL SWAP2 DUP3 ISZERO PUSH2 0x259D JUMPI PUSH0 SWAP3 PUSH2 0x2566 JUMPI JUMPDEST POP MLOAD SWAP1 ISZERO ISZERO DUP2 MSTORE RETURN JUMPDEST SWAP1 SWAP2 POP DUP3 DUP2 DUP2 RETURNDATASIZE DUP4 GT PUSH2 0x2596 JUMPI JUMPDEST PUSH2 0x257E DUP2 DUP4 PUSH2 0x295C JUMP JUMPDEST DUP2 ADD SUB SLT PUSH2 0x865 JUMPI PUSH2 0x258F SWAP1 PUSH2 0x2CE7 JUMP JUMPDEST SWAP1 DUP4 PUSH2 0x255D JUMP JUMPDEST POP RETURNDATASIZE PUSH2 0x2574 JUMP JUMPDEST POP MLOAD RETURNDATASIZE PUSH0 DUP3 RETURNDATACOPY RETURNDATASIZE SWAP1 REVERT JUMPDEST POP CALLVALUE PUSH2 0x865 JUMPI PUSH1 0x20 SWAP1 PUSH1 0x20 PUSH1 0x3 NOT CALLDATASIZE ADD SLT PUSH2 0x865 JUMPI PUSH1 0x2 SLOAD DUP2 MLOAD PUSH4 0x1771D29 PUSH1 0xE1 SHL DUP2 MSTORE DUP5 CALLDATALOAD SWAP5 SWAP1 SWAP2 PUSH0 SWAP2 DUP4 SWAP2 DUP3 SWAP1 PUSH1 0x1 PUSH1 0x1 PUSH1 0xA0 SHL SUB AND GAS STATICCALL SWAP1 DUP2 ISZERO PUSH2 0x2700 JUMPI PUSH0 SWAP2 PUSH2 0x26E6 JUMPI JUMPDEST POP PUSH0 SWAP2 PUSH0 JUMPDEST DUP3 MLOAD DUP2 LT ISZERO PUSH2 0x262F JUMPI DUP6 PUSH1 0xA0 PUSH2 0x260A DUP4 DUP7 PUSH2 0x2E57 JUMP JUMPDEST MLOAD ADD MLOAD EQ PUSH2 0x261B JUMPI JUMPDEST PUSH1 0x1 ADD PUSH2 0x25F4 JUMP JUMPDEST SWAP3 PUSH2 0x2627 PUSH1 0x1 SWAP2 PUSH2 0x2E7F JUMP JUMPDEST SWAP4 SWAP1 POP PUSH2 0x2613 JUMP JUMPDEST POP SWAP3 PUSH2 0x263A DUP4 PUSH2 0x2C77 JUMP JUMPDEST SWAP3 PUSH2 0x2647 DUP6 MLOAD SWAP5 DUP6 PUSH2 0x295C JUMP JUMPDEST DUP1 DUP5 MSTORE PUSH2 0x2656 PUSH1 0x1F NOT SWAP2 PUSH2 0x2C77 JUMP JUMPDEST ADD PUSH0 JUMPDEST DUP2 DUP2 LT PUSH2 0x26D0 JUMPI POP POP POP PUSH0 SWAP1 PUSH0 JUMPDEST DUP2 MLOAD DUP2 LT ISZERO PUSH2 0x26C3 JUMPI DUP6 PUSH1 0xA0 PUSH2 0x267D DUP4 DUP6 PUSH2 0x2E57 JUMP JUMPDEST MLOAD ADD MLOAD EQ PUSH2 0x268E JUMPI JUMPDEST PUSH1 0x1 ADD PUSH2 0x2667 JUMP JUMPDEST SWAP2 PUSH2 0x26BB PUSH1 0x1 SWAP2 PUSH2 0x269F DUP6 DUP6 PUSH2 0x2E57 JUMP JUMPDEST MLOAD PUSH2 0x26AA DUP3 DUP9 PUSH2 0x2E57 JUMP JUMPDEST MSTORE PUSH2 0x26B5 DUP2 DUP8 PUSH2 0x2E57 JUMP JUMPDEST POP PUSH2 0x2E7F JUMP JUMPDEST SWAP3 SWAP1 POP PUSH2 0x2686 JUMP JUMPDEST DUP5 MLOAD DUP1 PUSH2 0x2ED DUP7 DUP3 PUSH2 0x284F JUMP JUMPDEST DUP3 SWAP1 PUSH2 0x26DA PUSH2 0x2EA1 JUMP JUMPDEST DUP3 DUP3 DUP9 ADD ADD MSTORE ADD PUSH2 0x2659 JUMP JUMPDEST PUSH2 0x26FA SWAP2 POP RETURNDATASIZE DUP1 PUSH0 DUP4 RETURNDATACOPY PUSH2 0x306 DUP2 DUP4 PUSH2 0x295C JUMP JUMPDEST DUP5 PUSH2 0x25EF JUMP JUMPDEST DUP3 MLOAD RETURNDATASIZE PUSH0 DUP3 RETURNDATACOPY RETURNDATASIZE SWAP1 REVERT JUMPDEST SWAP1 POP DUP3 CALLVALUE PUSH2 0x865 JUMPI PUSH0 CALLDATASIZE PUSH1 0x3 NOT ADD SLT PUSH2 0x865 JUMPI PUSH1 0x2 SLOAD PUSH4 0x1771D29 PUSH1 0xE1 SHL DUP4 MSTORE PUSH0 SWAP2 DUP4 SWAP2 DUP3 SWAP1 PUSH1 0x1 PUSH1 0x1 PUSH1 0xA0 SHL SUB AND GAS STATICCALL SWAP1 DUP2 ISZERO PUSH2 0x2700 JUMPI SWAP2 PUSH2 0x2ED SWAP3 PUSH0 SWAP3 PUSH2 0x2759 JUMPI JUMPDEST POP MLOAD SWAP2 DUP3 SWAP2 DUP3 PUSH2 0x284F JUMP JUMPDEST PUSH2 0x276E SWAP2 SWAP3 POP RETURNDATASIZE DUP1 PUSH0 DUP4 RETURNDATACOPY PUSH2 0x306 DUP2 DUP4 PUSH2 0x295C JUMP JUMPDEST SWAP1 DUP4 PUSH2 0x274E JUMP JUMPDEST PUSH0 JUMPDEST DUP4 DUP2 LT PUSH2 0x2786 JUMPI POP POP PUSH0 SWAP2 ADD MSTORE JUMP JUMPDEST DUP2 DUP2 ADD MLOAD DUP4 DUP3 ADD MSTORE PUSH1 0x20 ADD PUSH2 0x2777 JUMP JUMPDEST SWAP1 PUSH1 0x20 SWAP2 PUSH2 0x27AF DUP2 MLOAD DUP1 SWAP3 DUP2 DUP6 MSTORE DUP6 DUP1 DUP7 ADD SWAP2 ADD PUSH2 0x2775 JUMP JUMPDEST PUSH1 0x1F ADD PUSH1 0x1F NOT AND ADD ADD SWAP1 JUMP JUMPDEST SWAP1 PUSH2 0x2816 PUSH2 0x2804 PUSH2 0x27F2 PUSH2 0x140 DUP6 MLOAD DUP6 MSTORE PUSH1 0x1 DUP1 PUSH1 0xA0 SHL SUB PUSH1 0x20 DUP8 ADD MLOAD AND PUSH1 0x20 DUP7 ADD MSTORE PUSH1 0x40 DUP7 ADD MLOAD SWAP1 DUP1 PUSH1 0x40 DUP8 ADD MSTORE DUP6 ADD SWAP1 PUSH2 0x2796 JUMP JUMPDEST PUSH1 0x60 DUP6 ADD MLOAD DUP5 DUP3 SUB PUSH1 0x60 DUP7 ADD MSTORE PUSH2 0x2796 JUMP JUMPDEST PUSH1 0x80 DUP5 ADD MLOAD DUP4 DUP3 SUB PUSH1 0x80 DUP6 ADD MSTORE PUSH2 0x2796 JUMP JUMPDEST SWAP2 PUSH1 0xA0 DUP2 ADD MLOAD PUSH1 0xA0 DUP4 ADD MSTORE PUSH1 0xC0 DUP2 ADD MLOAD PUSH1 0xC0 DUP4 ADD MSTORE PUSH1 0xE0 DUP2 ADD MLOAD PUSH1 0xE0 DUP4 ADD MSTORE PUSH2 0x100 DUP1 DUP3 ADD MLOAD SWAP1 DUP4 ADD MSTORE PUSH2 0x120 DUP1 SWAP2 ADD MLOAD ISZERO ISZERO SWAP2 ADD MSTORE SWAP1 JUMP JUMPDEST PUSH1 0x20 DUP1 DUP3 ADD SWAP1 PUSH1 0x20 DUP4 MSTORE DUP4 MLOAD DUP1 SWAP3 MSTORE PUSH1 0x40 DUP4 ADD SWAP3 PUSH1 0x20 PUSH1 0x40 DUP5 PUSH1 0x5 SHL DUP4 ADD ADD SWAP6 ADD SWAP4 PUSH0 SWAP2 JUMPDEST DUP5 DUP4 LT PUSH2 0x2884 JUMPI POP POP POP POP POP POP SWAP1 JUMP JUMPDEST SWAP1 SWAP2 SWAP3 SWAP4 SWAP5 SWAP6 DUP5 DUP1 PUSH2 0x28A2 PUSH1 0x1 SWAP4 PUSH1 0x3F NOT DUP7 DUP3 SUB ADD DUP8 MSTORE DUP11 MLOAD PUSH2 0x27BB JUMP JUMPDEST SWAP9 ADD SWAP4 ADD SWAP4 ADD SWAP2 SWAP5 SWAP4 SWAP3 SWAP1 PUSH2 0x2874 JUMP JUMPDEST PUSH1 0x4 CALLDATALOAD SWAP1 PUSH1 0x1 PUSH1 0x1 PUSH1 0xA0 SHL SUB DUP3 AND DUP3 SUB PUSH2 0x865 JUMPI JUMP JUMPDEST PUSH1 0x1 PUSH1 0x1 PUSH1 0x40 SHL SUB DUP2 GT PUSH2 0x28DB JUMPI PUSH1 0x40 MSTORE JUMP JUMPDEST PUSH4 0x4E487B71 PUSH1 0xE0 SHL PUSH0 MSTORE PUSH1 0x41 PUSH1 0x4 MSTORE PUSH1 0x24 PUSH0 REVERT JUMPDEST PUSH1 0x80 DUP2 ADD SWAP1 DUP2 LT PUSH1 0x1 PUSH1 0x1 PUSH1 0x40 SHL SUB DUP3 GT OR PUSH2 0x28DB JUMPI PUSH1 0x40 MSTORE JUMP JUMPDEST PUSH1 0xC0 DUP2 ADD SWAP1 DUP2 LT PUSH1 0x1 PUSH1 0x1 PUSH1 0x40 SHL SUB DUP3 GT OR PUSH2 0x28DB JUMPI PUSH1 0x40 MSTORE JUMP JUMPDEST PUSH2 0x140 DUP2 ADD SWAP1 DUP2 LT PUSH1 0x1 PUSH1 0x1 PUSH1 0x40 SHL SUB DUP3 GT OR PUSH2 0x28DB JUMPI PUSH1 0x40 MSTORE JUMP JUMPDEST PUSH1 0xE0 DUP2 ADD SWAP1 DUP2 LT PUSH1 0x1 PUSH1 0x1 PUSH1 0x40 SHL SUB DUP3 GT OR PUSH2 0x28DB JUMPI PUSH1 0x40 MSTORE JUMP JUMPDEST PUSH1 0x1F SWAP1 SWAP2 ADD PUSH1 0x1F NOT AND DUP2 ADD SWAP1 PUSH1 0x1 PUSH1 0x1 PUSH1 0x40 SHL SUB DUP3 GT SWAP1 DUP3 LT OR PUSH2 0x28DB JUMPI PUSH1 0x40 MSTORE JUMP JUMPDEST PUSH1 0x1 PUSH1 0x1 PUSH1 0x40 SHL SUB DUP2 GT PUSH2 0x28DB JUMPI PUSH1 0x1F ADD PUSH1 0x1F NOT AND PUSH1 0x20 ADD SWAP1 JUMP JUMPDEST DUP2 PUSH1 0x1F DUP3 ADD SLT ISZERO PUSH2 0x865 JUMPI DUP1 CALLDATALOAD SWAP1 PUSH2 0x29B1 DUP3 PUSH2 0x297F JUMP JUMPDEST SWAP3 PUSH2 0x29BF PUSH1 0x40 MLOAD SWAP5 DUP6 PUSH2 0x295C JUMP JUMPDEST DUP3 DUP5 MSTORE PUSH1 0x20 DUP4 DUP4 ADD ADD GT PUSH2 0x865 JUMPI DUP2 PUSH0 SWAP3 PUSH1 0x20 DUP1 SWAP4 ADD DUP4 DUP7 ADD CALLDATACOPY DUP4 ADD ADD MSTORE SWAP1 JUMP JUMPDEST CALLVALUE PUSH2 0x865 JUMPI PUSH1 0x20 CALLDATASIZE PUSH1 0x3 NOT ADD SLT PUSH2 0x865 JUMPI PUSH1 0x2 SLOAD PUSH1 0x1 PUSH1 0x1 PUSH1 0xA0 SHL SUB AND DUP1 EXTCODESIZE ISZERO PUSH2 0x865 JUMPI PUSH0 DUP1 SWAP2 PUSH1 0x24 PUSH1 0x40 MLOAD DUP1 SWAP5 DUP2 SWAP4 PUSH4 0xCECA737F PUSH1 0xE0 SHL DUP4 MSTORE PUSH1 0x4 CALLDATALOAD PUSH1 0x4 DUP5 ADD MSTORE GAS CALL DUP1 ISZERO PUSH2 0x2A39 JUMPI PUSH2 0x2A30 JUMPI STOP JUMPDEST PUSH2 0x24FB SWAP1 PUSH2 0x28C8 JUMP JUMPDEST PUSH1 0x40 MLOAD RETURNDATASIZE PUSH0 DUP3 RETURNDATACOPY RETURNDATASIZE SWAP1 REVERT JUMPDEST CALLVALUE PUSH2 0x865 JUMPI PUSH1 0x60 CALLDATASIZE PUSH1 0x3 NOT ADD SLT PUSH2 0x865 JUMPI PUSH1 0x24 CALLDATALOAD PUSH1 0x1 PUSH1 0x1 PUSH1 0x40 SHL SUB DUP2 GT PUSH2 0x865 JUMPI PUSH2 0x2A74 SWAP1 CALLDATASIZE SWAP1 PUSH1 0x4 ADD PUSH2 0x299A JUMP JUMPDEST PUSH1 0x44 CALLDATALOAD SWAP1 DUP2 ISZERO ISZERO DUP1 SWAP3 SUB PUSH2 0x865 JUMPI PUSH1 0x2 SLOAD PUSH1 0x1 PUSH1 0x1 PUSH1 0xA0 SHL SUB AND SWAP1 DUP2 EXTCODESIZE ISZERO PUSH2 0x865 JUMPI PUSH0 SWAP2 PUSH2 0x2AC9 SWAP2 DUP4 PUSH1 0x40 MLOAD DUP1 SWAP7 DUP2 SWAP6 DUP3 SWAP5 PUSH4 0x331126C7 PUSH1 0xE1 SHL DUP5 MSTORE PUSH1 0x4 CALLDATALOAD PUSH1 0x4 DUP6 ADD MSTORE PUSH1 0x60 PUSH1 0x24 DUP6 ADD MSTORE PUSH1 0x64 DUP5 ADD SWAP1 PUSH2 0x2796 JUMP JUMPDEST SWAP1 PUSH1 0x44 DUP4 ADD MSTORE SUB SWAP3 GAS CALL DUP1 ISZERO PUSH2 0x2A39 JUMPI PUSH2 0x2A30 JUMPI STOP JUMPDEST PUSH1 0x20 DUP1 DUP3 ADD SWAP1 DUP1 DUP4 MSTORE DUP4 MLOAD DUP1 SWAP3 MSTORE DUP1 PUSH1 0x40 DUP1 SWAP5 ADD SWAP5 ADD SWAP3 PUSH0 SWAP1 JUMPDEST DUP4 DUP3 LT PUSH2 0x2B08 JUMPI POP POP POP POP POP SWAP1 JUMP JUMPDEST DUP5 MLOAD DUP1 MLOAD DUP8 MSTORE DUP1 DUP5 ADD MLOAD PUSH1 0x1 PUSH1 0x1 PUSH1 0xA0 SHL SUB SWAP1 DUP2 AND DUP9 DUP7 ADD MSTORE DUP2 DUP4 ADD MLOAD AND DUP8 DUP4 ADD MSTORE PUSH1 0x60 DUP1 DUP3 ADD MLOAD SWAP1 DUP9 ADD MSTORE PUSH1 0x80 DUP1 DUP3 ADD MLOAD SWAP1 DUP9 ADD MSTORE PUSH1 0xA0 SWAP1 DUP2 ADD MLOAD ISZERO ISZERO SWAP1 DUP8 ADD MSTORE PUSH1 0xC0 SWAP1 SWAP6 ADD SWAP5 SWAP4 DUP3 ADD SWAP4 PUSH1 0x1 SWAP1 SWAP2 ADD SWAP1 PUSH2 0x2AF9 JUMP JUMPDEST SWAP1 PUSH1 0xC0 DUP1 PUSH2 0x2BCA PUSH2 0x2BB8 PUSH2 0x2BA6 PUSH2 0x2B94 PUSH2 0x2B82 DUP9 MLOAD PUSH1 0xE0 DUP10 MSTORE PUSH1 0xE0 DUP10 ADD SWAP1 PUSH2 0x2796 JUMP JUMPDEST PUSH1 0x20 DUP10 ADD MLOAD DUP9 DUP3 SUB PUSH1 0x20 DUP11 ADD MSTORE PUSH2 0x2796 JUMP JUMPDEST PUSH1 0x40 DUP9 ADD MLOAD DUP8 DUP3 SUB PUSH1 0x40 DUP10 ADD MSTORE PUSH2 0x2796 JUMP JUMPDEST PUSH1 0x60 DUP8 ADD MLOAD DUP7 DUP3 SUB PUSH1 0x60 DUP9 ADD MSTORE PUSH2 0x2796 JUMP JUMPDEST PUSH1 0x80 DUP7 ADD MLOAD DUP6 DUP3 SUB PUSH1 0x80 DUP8 ADD MSTORE PUSH2 0x2796 JUMP JUMPDEST SWAP4 PUSH1 0xA0 DUP2 ADD MLOAD ISZERO ISZERO PUSH1 0xA0 DUP6 ADD MSTORE ADD MLOAD SWAP2 ADD MSTORE SWAP1 JUMP JUMPDEST PUSH1 0x20 SWAP1 PUSH1 0x20 PUSH1 0x40 DUP2 DUP4 ADD SWAP3 DUP3 DUP2 MSTORE DUP6 MLOAD DUP1 SWAP5 MSTORE ADD SWAP4 ADD SWAP2 PUSH0 JUMPDEST DUP3 DUP2 LT PUSH2 0x2C06 JUMPI POP POP POP POP SWAP1 JUMP JUMPDEST DUP4 MLOAD PUSH1 0x1 PUSH1 0x1 PUSH1 0xA0 SHL SUB AND DUP6 MSTORE SWAP4 DUP2 ADD SWAP4 SWAP3 DUP2 ADD SWAP3 PUSH1 0x1 ADD PUSH2 0x2BF8 JUMP JUMPDEST SWAP1 PUSH1 0x4 DUP3 LT ISZERO PUSH2 0x2C30 JUMPI MSTORE JUMP JUMPDEST PUSH4 0x4E487B71 PUSH1 0xE0 SHL PUSH0 MSTORE PUSH1 0x21 PUSH1 0x4 MSTORE PUSH1 0x24 PUSH0 REVERT JUMPDEST SWAP1 DUP2 MLOAD DUP1 DUP3 MSTORE PUSH1 0x20 DUP1 DUP1 SWAP4 ADD SWAP4 ADD SWAP2 PUSH0 JUMPDEST DUP3 DUP2 LT PUSH2 0x2C63 JUMPI POP POP POP POP SWAP1 JUMP JUMPDEST DUP4 MLOAD DUP6 MSTORE SWAP4 DUP2 ADD SWAP4 SWAP3 DUP2 ADD SWAP3 PUSH1 0x1 ADD PUSH2 0x2C55 JUMP JUMPDEST PUSH1 0x1 PUSH1 0x1 PUSH1 0x40 SHL SUB DUP2 GT PUSH2 0x28DB JUMPI PUSH1 0x5 SHL PUSH1 0x20 ADD SWAP1 JUMP JUMPDEST MLOAD SWAP1 PUSH1 0x1 PUSH1 0x1 PUSH1 0xA0 SHL SUB DUP3 AND DUP3 SUB PUSH2 0x865 JUMPI JUMP JUMPDEST DUP2 PUSH1 0x1F DUP3 ADD SLT ISZERO PUSH2 0x865 JUMPI DUP1 MLOAD PUSH2 0x2CB8 DUP2 PUSH2 0x297F JUMP JUMPDEST SWAP3 PUSH2 0x2CC6 PUSH1 0x40 MLOAD SWAP5 DUP6 PUSH2 0x295C JUMP JUMPDEST DUP2 DUP5 MSTORE PUSH1 0x20 DUP3 DUP5 ADD ADD GT PUSH2 0x865 JUMPI PUSH2 0x2CE4 SWAP2 PUSH1 0x20 DUP1 DUP6 ADD SWAP2 ADD PUSH2 0x2775 JUMP JUMPDEST SWAP1 JUMP JUMPDEST MLOAD SWAP1 DUP2 ISZERO ISZERO DUP3 SUB PUSH2 0x865 JUMPI JUMP JUMPDEST SWAP2 SWAP1 SWAP2 PUSH2 0x140 DUP2 DUP5 SUB SLT PUSH2 0x865 JUMPI PUSH1 0x40 MLOAD SWAP1 PUSH2 0x2D0F DUP3 PUSH2 0x2925 JUMP JUMPDEST DUP2 SWAP4 DUP2 MLOAD DUP4 MSTORE PUSH2 0x2D21 PUSH1 0x20 DUP4 ADD PUSH2 0x2C8E JUMP JUMPDEST PUSH1 0x20 DUP5 ADD MSTORE PUSH1 0x40 DUP3 ADD MLOAD PUSH1 0x1 PUSH1 0x1 PUSH1 0x40 SHL SUB SWAP2 SWAP1 DUP3 DUP2 GT PUSH2 0x865 JUMPI DUP2 PUSH2 0x2D48 SWAP2 DUP6 ADD PUSH2 0x2CA2 JUMP JUMPDEST PUSH1 0x40 DUP6 ADD MSTORE PUSH1 0x60 DUP4 ADD MLOAD DUP3 DUP2 GT PUSH2 0x865 JUMPI DUP2 PUSH2 0x2D65 SWAP2 DUP6 ADD PUSH2 0x2CA2 JUMP JUMPDEST PUSH1 0x60 DUP6 ADD MSTORE PUSH1 0x80 DUP4 ADD MLOAD SWAP2 DUP3 GT PUSH2 0x865 JUMPI PUSH2 0x2D81 SWAP2 DUP4 ADD PUSH2 0x2CA2 JUMP JUMPDEST PUSH1 0x80 DUP4 ADD MSTORE PUSH1 0xA0 DUP2 ADD MLOAD PUSH1 0xA0 DUP4 ADD MSTORE PUSH1 0xC0 DUP2 ADD MLOAD PUSH1 0xC0 DUP4 ADD MSTORE PUSH1 0xE0 DUP2 ADD MLOAD PUSH1 0xE0 DUP4 ADD MSTORE PUSH2 0x100 DUP1 DUP3 ADD MLOAD SWAP1 DUP4 ADD MSTORE PUSH2 0x2DBD PUSH2 0x120 DUP1 SWAP3 ADD PUSH2 0x2CE7 JUMP JUMPDEST SWAP2 ADD MSTORE JUMP JUMPDEST SWAP1 PUSH1 0x20 SWAP1 DUP2 DUP4 DUP3 SUB SLT PUSH2 0x865 JUMPI DUP3 MLOAD PUSH1 0x1 PUSH1 0x1 PUSH1 0x40 SHL SUB SWAP4 DUP5 DUP3 GT PUSH2 0x865 JUMPI ADD DUP2 PUSH1 0x1F DUP3 ADD SLT ISZERO PUSH2 0x865 JUMPI DUP1 MLOAD PUSH2 0x2DF8 DUP2 PUSH2 0x2C77 JUMP JUMPDEST SWAP5 PUSH2 0x2E06 PUSH1 0x40 MLOAD SWAP7 DUP8 PUSH2 0x295C JUMP JUMPDEST DUP2 DUP7 MSTORE DUP5 DUP1 DUP8 ADD SWAP3 PUSH1 0x5 SHL DUP5 ADD ADD SWAP4 DUP1 DUP6 GT PUSH2 0x865 JUMPI DUP6 DUP5 ADD SWAP3 JUMPDEST DUP6 DUP5 LT PUSH2 0x2E32 JUMPI POP POP POP POP POP POP POP SWAP1 JUMP JUMPDEST DUP4 MLOAD DUP4 DUP2 GT PUSH2 0x865 JUMPI DUP8 SWAP2 PUSH2 0x2E4C DUP5 DUP5 DUP1 SWAP5 DUP11 ADD ADD PUSH2 0x2CF4 JUMP JUMPDEST DUP2 MSTORE ADD SWAP4 ADD SWAP3 PUSH2 0x2E21 JUMP JUMPDEST DUP1 MLOAD DUP3 LT ISZERO PUSH2 0x2E6B JUMPI PUSH1 0x20 SWAP2 PUSH1 0x5 SHL ADD ADD SWAP1 JUMP JUMPDEST PUSH4 0x4E487B71 PUSH1 0xE0 SHL PUSH0 MSTORE PUSH1 0x32 PUSH1 0x4 MSTORE PUSH1 0x24 PUSH0 REVERT JUMPDEST PUSH0 NOT DUP2 EQ PUSH2 0x2E8D JUMPI PUSH1 0x1 ADD SWAP1 JUMP JUMPDEST PUSH4 0x4E487B71 PUSH1 0xE0 SHL PUSH0 MSTORE PUSH1 0x11 PUSH1 0x4 MSTORE PUSH1 0x24 PUSH0 REVERT JUMPDEST PUSH1 0x40 MLOAD SWAP1 PUSH2 0x2EAE DUP3 PUSH2 0x2925 JUMP JUMPDEST PUSH0 PUSH2 0x120 DUP4 DUP3 DUP2 MSTORE DUP3 PUSH1 0x20 DUP3 ADD MSTORE PUSH1 0x60 PUSH1 0x40 DUP3 ADD MSTORE PUSH1 0x60 DUP1 DUP3 ADD MSTORE PUSH1 0x60 PUSH1 0x80 DUP3 ADD MSTORE DUP3 PUSH1 0xA0 DUP3 ADD MSTORE DUP3 PUSH1 0xC0 DUP3 ADD MSTORE DUP3 PUSH1 0xE0 DUP3 ADD MSTORE DUP3 PUSH2 0x100 DUP3 ADD MSTORE ADD MSTORE JUMP JUMPDEST PUSH1 0x20 SWAP1 DUP2 DUP2 DUP5 SUB SLT PUSH2 0x865 JUMPI DUP1 MLOAD SWAP1 PUSH1 0x1 PUSH1 0x1 PUSH1 0x40 SHL SUB DUP3 GT PUSH2 0x865 JUMPI ADD DUP3 PUSH1 0x1F DUP3 ADD SLT ISZERO PUSH2 0x865 JUMPI DUP1 MLOAD SWAP2 PUSH2 0x2F22 DUP4 PUSH2 0x2C77 JUMP JUMPDEST SWAP4 PUSH1 0x40 PUSH2 0x2F32 PUSH1 0x40 MLOAD SWAP7 DUP8 PUSH2 0x295C JUMP JUMPDEST DUP5 DUP7 MSTORE DUP3 DUP7 ADD SWAP2 DUP4 PUSH1 0xC0 DUP1 SWAP8 MUL DUP7 ADD ADD SWAP5 DUP2 DUP7 GT PUSH2 0x865 JUMPI DUP5 ADD SWAP3 JUMPDEST DUP6 DUP5 LT PUSH2 0x2F5F JUMPI POP POP POP POP POP POP POP SWAP1 JUMP JUMPDEST DUP7 DUP5 DUP4 SUB SLT PUSH2 0x865 JUMPI DUP5 DUP8 SWAP2 DUP5 MLOAD PUSH2 0x2F76 DUP2 PUSH2 0x290A JUMP JUMPDEST DUP7 MLOAD DUP2 MSTORE PUSH2 0x2F85 DUP4 DUP9 ADD PUSH2 0x2C8E JUMP JUMPDEST DUP4 DUP3 ADD MSTORE PUSH2 0x2F94 DUP7 DUP9 ADD PUSH2 0x2C8E JUMP JUMPDEST DUP7 DUP3 ADD MSTORE PUSH1 0x60 DUP1 DUP9 ADD MLOAD SWAP1 DUP3 ADD MSTORE PUSH1 0x80 DUP1 DUP9 ADD MLOAD SWAP1 DUP3 ADD MSTORE PUSH1 0xA0 PUSH2 0x2FB9 DUP2 DUP10 ADD PUSH2 0x2CE7 JUMP JUMPDEST SWAP1 DUP3 ADD MSTORE DUP2 MSTORE ADD SWAP4 ADD SWAP3 PUSH2 0x2F4E JUMP JUMPDEST PUSH1 0x40 MLOAD SWAP1 PUSH2 0x2FD5 DUP3 PUSH2 0x2941 JUMP JUMPDEST PUSH0 PUSH1 0xC0 DUP4 PUSH1 0x60 DUP1 DUP3 MSTORE DUP1 PUSH1 0x20 DUP4 ADD MSTORE DUP1 PUSH1 0x40 DUP4 ADD MSTORE DUP1 DUP1 DUP4 ADD MSTORE PUSH1 0x80 DUP3 ADD MSTORE DUP3 PUSH1 0xA0 DUP3 ADD MSTORE ADD MSTORE JUMP JUMPDEST SWAP2 SWAP1 SWAP2 PUSH1 0xE0 DUP2 DUP5 SUB SLT PUSH2 0x865 JUMPI PUSH1 0x40 MLOAD SWAP1 PUSH2 0x3018 DUP3 PUSH2 0x2941 JUMP JUMPDEST DUP1 MLOAD SWAP2 SWAP4 DUP5 SWAP3 PUSH1 0x1 PUSH1 0x1 PUSH1 0x40 SHL SUB SWAP3 SWAP1 DUP4 DUP2 GT PUSH2 0x865 JUMPI DUP3 PUSH2 0x303B SWAP2 DUP4 ADD PUSH2 0x2CA2 JUMP JUMPDEST DUP5 MSTORE PUSH1 0x20 DUP2 ADD MLOAD DUP4 DUP2 GT PUSH2 0x865 JUMPI DUP3 PUSH2 0x3055 SWAP2 DUP4 ADD PUSH2 0x2CA2 JUMP JUMPDEST PUSH1 0x20 DUP6 ADD MSTORE PUSH1 0x40 DUP2 ADD MLOAD DUP4 DUP2 GT PUSH2 0x865 JUMPI DUP3 PUSH2 0x3072 SWAP2 DUP4 ADD PUSH2 0x2CA2 JUMP JUMPDEST PUSH1 0x40 DUP6 ADD MSTORE PUSH1 0x60 DUP2 ADD MLOAD DUP4 DUP2 GT PUSH2 0x865 JUMPI DUP3 PUSH2 0x308F SWAP2 DUP4 ADD PUSH2 0x2CA2 JUMP JUMPDEST PUSH1 0x60 DUP6 ADD MSTORE PUSH1 0x80 DUP2 ADD MLOAD SWAP3 DUP4 GT PUSH2 0x865 JUMPI PUSH2 0x30B0 PUSH1 0xC0 SWAP4 SWAP3 DUP5 SWAP4 DUP4 ADD PUSH2 0x2CA2 JUMP JUMPDEST PUSH1 0x80 DUP6 ADD MSTORE PUSH2 0x30C1 PUSH1 0xA0 DUP3 ADD PUSH2 0x2CE7 JUMP JUMPDEST PUSH1 0xA0 DUP6 ADD MSTORE ADD MLOAD SWAP2 ADD MSTORE JUMP JUMPDEST PUSH1 0x20 SWAP1 DUP2 DUP2 DUP5 SUB SLT PUSH2 0x865 JUMPI DUP1 MLOAD SWAP1 PUSH1 0x1 PUSH1 0x1 PUSH1 0x40 SHL SUB DUP3 GT PUSH2 0x865 JUMPI ADD SWAP2 DUP1 PUSH1 0x1F DUP5 ADD SLT ISZERO PUSH2 0x865 JUMPI DUP3 MLOAD PUSH2 0x3102 DUP2 PUSH2 0x2C77 JUMP JUMPDEST SWAP4 PUSH2 0x3110 PUSH1 0x40 MLOAD SWAP6 DUP7 PUSH2 0x295C JUMP JUMPDEST DUP2 DUP6 MSTORE DUP4 DUP1 DUP7 ADD SWAP3 PUSH1 0x5 SHL DUP3 ADD ADD SWAP3 DUP4 GT PUSH2 0x865 JUMPI DUP4 ADD SWAP1 JUMPDEST DUP3 DUP3 LT PUSH2 0x3137 JUMPI POP POP POP POP SWAP1 JUMP JUMPDEST DUP4 DUP1 SWAP2 PUSH2 0x3143 DUP5 PUSH2 0x2C8E JUMP JUMPDEST DUP2 MSTORE ADD SWAP2 ADD SWAP1 PUSH2 0x3129 JUMP JUMPDEST PUSH1 0x80 DUP2 DUP4 SUB SLT PUSH2 0x865 JUMPI DUP1 MLOAD SWAP3 PUSH1 0x20 SWAP3 DUP4 DUP4 ADD MLOAD SWAP4 PUSH1 0x1 DUP1 PUSH1 0x40 SHL SUB SWAP5 DUP6 DUP2 GT PUSH2 0x865 JUMPI DUP3 PUSH2 0x317E SWAP2 DUP7 ADD PUSH2 0x2CA2 JUMP JUMPDEST SWAP5 PUSH2 0x318B PUSH1 0x40 DUP7 ADD PUSH2 0x2CE7 JUMP JUMPDEST SWAP5 PUSH1 0x60 DUP2 ADD MLOAD SWAP2 DUP3 GT PUSH2 0x865 JUMPI ADD SWAP2 DUP1 PUSH1 0x1F DUP5 ADD SLT ISZERO PUSH2 0x865 JUMPI DUP3 MLOAD PUSH2 0x31B0 DUP2 PUSH2 0x2C77 JUMP JUMPDEST SWAP4 PUSH2 0x31BE PUSH1 0x40 MLOAD SWAP6 DUP7 PUSH2 0x295C JUMP JUMPDEST DUP2 DUP6 MSTORE DUP4 DUP1 DUP7 ADD SWAP3 PUSH1 0x5 SHL DUP3 ADD ADD SWAP3 DUP4 GT PUSH2 0x865 JUMPI DUP4 ADD SWAP1 JUMPDEST DUP3 DUP3 LT PUSH2 0x31E5 JUMPI POP POP POP POP SWAP1 JUMP JUMPDEST DUP2 MLOAD DUP2 MSTORE SWAP1 DUP4 ADD SWAP1 DUP4 ADD PUSH2 0x31D7 JUMP JUMPDEST SWAP2 SWAP1 PUSH1 0x40 DUP4 DUP3 SUB SLT PUSH2 0x865 JUMPI DUP3 MLOAD PUSH1 0x1 PUSH1 0x1 PUSH1 0x40 SHL SUB DUP2 GT PUSH2 0x865 JUMPI PUSH1 0x20 SWAP2 PUSH2 0x321E SWAP2 DUP6 ADD PUSH2 0x2FFE JUMP JUMPDEST SWAP3 ADD MLOAD PUSH1 0x4 DUP2 LT ISZERO PUSH2 0x865 JUMPI SWAP1 JUMP JUMPDEST PUSH1 0x40 MLOAD PUSH4 0x1A740AF9 PUSH1 0xE3 SHL DUP2 MSTORE PUSH1 0x1 PUSH1 0x1 PUSH1 0xA0 SHL SUB PUSH32 0x0 DUP2 AND SWAP2 PUSH1 0x20 DUP2 PUSH1 0x4 DUP2 DUP7 GAS STATICCALL SWAP1 DUP2 ISZERO PUSH2 0x2A39 JUMPI PUSH0 SWAP2 PUSH2 0x3334 JUMPI JUMPDEST POP ISZERO PUSH2 0x3330 JUMPI PUSH1 0x60 PUSH1 0x4 SWAP3 PUSH1 0x40 MLOAD SWAP4 DUP5 DUP1 SWAP3 PUSH4 0x4A9C3A69 PUSH1 0xE1 SHL DUP3 MSTORE GAS STATICCALL DUP1 ISZERO PUSH2 0x2A39 JUMPI PUSH0 SWAP3 PUSH0 SWAP1 PUSH0 SWAP3 PUSH2 0x32D9 JUMPI JUMPDEST POP DUP3 SWAP1 DUP2 PUSH1 0x1 DUP1 PUSH1 0xA0 SHL SUB NOT SWAP6 AND DUP6 PUSH1 0x1 SLOAD AND OR PUSH1 0x1 SSTORE AND DUP4 PUSH1 0x2 SLOAD AND OR PUSH1 0x2 SSTORE AND SWAP1 PUSH1 0x3 SLOAD AND OR PUSH1 0x3 SSTORE JUMP JUMPDEST SWAP4 POP POP POP PUSH1 0x60 DUP3 RETURNDATASIZE PUSH1 0x60 GT PUSH2 0x3328 JUMPI JUMPDEST DUP2 PUSH2 0x32F6 PUSH1 0x60 SWAP4 DUP4 PUSH2 0x295C JUMP JUMPDEST DUP2 ADD SUB SLT PUSH2 0x865 JUMPI PUSH2 0x3307 DUP3 PUSH2 0x2C8E JUMP JUMPDEST DUP2 PUSH2 0x3320 PUSH1 0x40 PUSH2 0x3319 PUSH1 0x20 DUP8 ADD PUSH2 0x2C8E JUMP JUMPDEST SWAP6 ADD PUSH2 0x2C8E JUMP JUMPDEST SWAP2 SWAP4 SWAP1 PUSH2 0x32AC JUMP JUMPDEST RETURNDATASIZE SWAP2 POP PUSH2 0x32E9 JUMP JUMPDEST POP POP JUMP JUMPDEST SWAP1 POP PUSH1 0x20 DUP2 RETURNDATASIZE PUSH1 0x20 GT PUSH2 0x3366 JUMPI JUMPDEST DUP2 PUSH2 0x334F PUSH1 0x20 SWAP4 DUP4 PUSH2 0x295C JUMP JUMPDEST DUP2 ADD SUB SLT PUSH2 0x865 JUMPI PUSH2 0x3360 SWAP1 PUSH2 0x2CE7 JUMP JUMPDEST PUSH0 PUSH2 0x327D JUMP JUMPDEST RETURNDATASIZE SWAP2 POP PUSH2 0x3342 JUMP JUMPDEST PUSH0 SLOAD PUSH1 0x1 PUSH1 0x1 PUSH1 0xA0 SHL SUB AND CALLER SUB PUSH2 0x3381 JUMPI JUMP JUMPDEST PUSH1 0x64 PUSH1 0x40 MLOAD PUSH3 0x461BCD PUSH1 0xE5 SHL DUP2 MSTORE PUSH1 0x20 PUSH1 0x4 DUP3 ADD MSTORE PUSH1 0x20 PUSH1 0x24 DUP3 ADD MSTORE PUSH32 0x4F776E61626C653A2063616C6C6572206973206E6F7420746865206F776E6572 PUSH1 0x44 DUP3 ADD MSTORE REVERT INVALID DUP12 0xE0 SMOD SWAP13 MSTORE8 AND MSIZE EQ SGT PREVRANDAO 0xCD 0x1F 0xD0 LOG4 CALLCODE DUP5 NOT BLOBHASH PUSH32 0x9722A3DAAFE3B4186F6B6457E0A164736F6C6343000818000A00000000000000 "},"methodIdentifiers":{"buyProduct(uint256)":"8642269e","changeServicePct(uint256)":"5be20959","coreContract()":"e80db5db","createCategory(string)":"dc298682","createProduct(string,string,string,uint256,uint256,uint256)":"a9ab7af2","createReview(uint256,uint256,string)":"16d81b38","createSubCategoriesBulk(uint256,string[])":"d2bc9d78","createSubCategory(uint256,string)":"7d3978db","deleteCategory(uint256)":"ceca737f","deleteProduct(uint256)":"ed90c7b7","deleteReview(uint256,uint256)":"24d41a03","deleteSubCategory(uint256)":"17e98548","getAllCategories()":"dadd0a57","getAllProducts()":"02ee3a52","getAllRegisteredSellers()":"5ad6a580","getAllSellers()":"9b269b8f","getBuyerPurchaseHistory(address)":"b27e1697","getCategory(uint256)":"f3052d26","getMyProducts()":"fdca4ca3","getPendingVerificationUsers()":"6f68ef3a","getProduct(uint256)":"b9db15b4","getProductsByCategory(uint256)":"04a6f276","getRegistryInfo()":"18bb35bd","getReviews(uint256)":"9d4a2255","getSeller(address)":"a323d29e","getSellerBalance(address)":"2148893f","getSellerProducts(address)":"e6a93e16","getSellerProfile(address)":"4293e5ce","getSellerPurchaseHistory(address)":"3c2575d5","getSellerStatus(address)":"eb11c434","getSubCategories(uint256)":"c0403e27","getSubCategory(uint256)":"6f2c8599","getSystemStats()":"d1ce59a7","getTotalProducts()":"570aea8a","getTotalSales()":"2156a96c","getUser(address)":"6f77926b","grantOwnerSellerAccess()":"4e213d20","markPurchaseDelivered(uint256,address)":"11aa5b34","owner()":"8da5cb5b","refreshContractReferences()":"2c7ea0b2","registerSeller(string,string,string,string,string)":"7e8555ed","registerUser(string,string,string)":"d637dcfa","registeredSellers(address)":"c64b8a8f","registeredUsers(address)":"0e50cee5","registry()":"7b103999","renounceOwnership()":"715018a6","servicePct()":"e01ef6e6","storageContract()":"11ce0267","transactionsContract()":"e17f94c0","transferOwnership(address)":"f2fde38b","updateCategory(uint256,string,bool)":"66224d8e","updateProduct(uint256,string,string,string,uint256,uint256,uint256)":"ec4cf85b","updateSellerStatus(address,uint8)":"97b6f393","updateSubCategory(uint256,string,bool)":"317a0827","withdraw()":"3ccfd60b","withdrawServiceFees()":"d72e481d"}}}}}