{"contracts/CryptoMartCore.sol":{"CryptoMartCore":{"abi":[{"inputs":[{"internalType":"address","name":"_storageContract","type":"address"}],"stateMutability":"nonpayable","type":"constructor"},{"anonymous":false,"inputs":[{"indexed":true,"internalType":"address","name":"owner","type":"address"},{"indexed":true,"internalType":"address","name":"approved","type":"address"},{"indexed":true,"internalType":"uint256","name":"tokenId","type":"uint256"}],"name":"Approval","type":"event"},{"anonymous":false,"inputs":[{"indexed":true,"internalType":"address","name":"owner","type":"address"},{"indexed":true,"internalType":"address","name":"operator","type":"address"},{"indexed":false,"internalType":"bool","name":"approved","type":"bool"}],"name":"ApprovalForAll","type":"event"},{"anonymous":false,"inputs":[{"indexed":true,"internalType":"address","name":"seller","type":"address"},{"indexed":false,"internalType":"uint256","name":"amount","type":"uint256"}],"name":"BalanceWithdrawn","type":"event"},{"anonymous":false,"inputs":[{"indexed":true,"internalType":"uint256","name":"categoryId","type":"uint256"},{"indexed":false,"internalType":"string","name":"name","type":"string"}],"name":"CategoryCreated","type":"event"},{"anonymous":false,"inputs":[{"indexed":true,"internalType":"uint256","name":"categoryId","type":"uint256"}],"name":"CategoryDeleted","type":"event"},{"anonymous":false,"inputs":[{"indexed":true,"internalType":"uint256","name":"categoryId","type":"uint256"}],"name":"CategoryUpdated","type":"event"},{"anonymous":false,"inputs":[{"indexed":true,"internalType":"address","name":"previousOwner","type":"address"},{"indexed":true,"internalType":"address","name":"newOwner","type":"address"}],"name":"OwnershipTransferred","type":"event"},{"anonymous":false,"inputs":[{"indexed":true,"internalType":"uint256","name":"productId","type":"uint256"},{"indexed":true,"internalType":"address","name":"seller","type":"address"},{"indexed":false,"internalType":"string","name":"name","type":"string"},{"indexed":false,"internalType":"uint256","name":"cost","type":"uint256"}],"name":"ProductCreated","type":"event"},{"anonymous":false,"inputs":[{"indexed":true,"internalType":"uint256","name":"productId","type":"uint256"}],"name":"ProductDeleted","type":"event"},{"anonymous":false,"inputs":[{"indexed":true,"internalType":"uint256","name":"productId","type":"uint256"},{"indexed":true,"internalType":"address","name":"buyer","type":"address"},{"indexed":true,"internalType":"address","name":"seller","type":"address"}],"name":"ProductPurchased","type":"event"},{"anonymous":false,"inputs":[{"indexed":true,"internalType":"uint256","name":"productId","type":"uint256"}],"name":"ProductUpdated","type":"event"},{"anonymous":false,"inputs":[{"indexed":true,"internalType":"uint256","name":"productId","type":"uint256"},{"indexed":true,"internalType":"address","name":"buyer","type":"address"}],"name":"PurchaseDelivered","type":"event"},{"anonymous":false,"inputs":[{"indexed":true,"internalType":"uint256","name":"productId","type":"uint256"},{"indexed":true,"internalType":"address","name":"buyer","type":"address"},{"indexed":true,"internalType":"address","name":"seller","type":"address"},{"indexed":false,"internalType":"uint256","name":"amount","type":"uint256"},{"indexed":false,"internalType":"uint256","name":"timestamp","type":"uint256"}],"name":"PurchaseRecorded","type":"event"},{"anonymous":false,"inputs":[{"indexed":true,"internalType":"uint256","name":"productId","type":"uint256"},{"indexed":true,"internalType":"address","name":"reviewer","type":"address"},{"indexed":false,"internalType":"uint256","name":"rating","type":"uint256"}],"name":"ReviewCreated","type":"event"},{"anonymous":false,"inputs":[{"indexed":true,"internalType":"uint256","name":"productId","type":"uint256"},{"indexed":true,"internalType":"uint256","name":"reviewId","type":"uint256"}],"name":"ReviewDeleted","type":"event"},{"anonymous":false,"inputs":[{"indexed":true,"internalType":"address","name":"seller","type":"address"},{"indexed":false,"internalType":"string","name":"businessName","type":"string"}],"name":"SellerRegistered","type":"event"},{"anonymous":false,"inputs":[{"indexed":true,"internalType":"address","name":"seller","type":"address"},{"indexed":false,"internalType":"enum CryptoMartStorage.SellerStatus","name":"status","type":"uint8"}],"name":"SellerStatusUpdated","type":"event"},{"anonymous":false,"inputs":[{"indexed":true,"internalType":"address","name":"from","type":"address"},{"indexed":true,"internalType":"address","name":"to","type":"address"},{"indexed":true,"internalType":"uint256","name":"tokenId","type":"uint256"}],"name":"Transfer","type":"event"},{"anonymous":false,"inputs":[{"indexed":true,"internalType":"address","name":"user","type":"address"},{"indexed":false,"internalType":"string","name":"name","type":"string"}],"name":"UserRegistered","type":"event"},{"inputs":[{"internalType":"address","name":"to","type":"address"},{"internalType":"uint256","name":"tokenId","type":"uint256"}],"name":"approve","outputs":[],"stateMutability":"nonpayable","type":"function"},{"inputs":[{"internalType":"address","name":"owner","type":"address"}],"name":"balanceOf","outputs":[{"internalType":"uint256","name":"","type":"uint256"}],"stateMutability":"view","type":"function"},{"inputs":[{"internalType":"uint256","name":"newPct","type":"uint256"}],"name":"changeServicePct","outputs":[],"stateMutability":"nonpayable","type":"function"},{"inputs":[{"internalType":"string","name":"_name","type":"string"}],"name":"createCategory","outputs":[],"stateMutability":"nonpayable","type":"function"},{"inputs":[{"internalType":"address","name":"seller","type":"address"},{"internalType":"string","name":"name","type":"string"},{"internalType":"string","name":"description","type":"string"},{"internalType":"string","name":"image","type":"string"},{"internalType":"uint256","name":"categoryId","type":"uint256"},{"internalType":"uint256","name":"cost","type":"uint256"},{"internalType":"uint256","name":"stock","type":"uint256"}],"name":"createProduct","outputs":[],"stateMutability":"nonpayable","type":"function"},{"inputs":[{"internalType":"uint256","name":"id","type":"uint256"}],"name":"deleteCategory","outputs":[],"stateMutability":"nonpayable","type":"function"},{"inputs":[{"internalType":"uint256","name":"productId","type":"uint256"}],"name":"deleteProduct","outputs":[],"stateMutability":"nonpayable","type":"function"},{"inputs":[],"name":"getAllCategories","outputs":[{"components":[{"internalType":"uint256","name":"id","type":"uint256"},{"internalType":"string","name":"name","type":"string"},{"internalType":"bool","name":"isActive","type":"bool"}],"internalType":"struct CryptoMartStorage.CategoryStruct[]","name":"","type":"tuple[]"}],"stateMutability":"view","type":"function"},{"inputs":[],"name":"getAllProducts","outputs":[{"components":[{"internalType":"uint256","name":"id","type":"uint256"},{"internalType":"address","name":"seller","type":"address"},{"internalType":"string","name":"name","type":"string"},{"internalType":"string","name":"description","type":"string"},{"internalType":"string","name":"image","type":"string"},{"internalType":"uint256","name":"categoryId","type":"uint256"},{"internalType":"uint256","name":"cost","type":"uint256"},{"internalType":"uint256","name":"stock","type":"uint256"},{"internalType":"uint256","name":"timestamp","type":"uint256"},{"internalType":"bool","name":"deleted","type":"bool"}],"internalType":"struct CryptoMartStorage.ProductStruct[]","name":"","type":"tuple[]"}],"stateMutability":"view","type":"function"},{"inputs":[],"name":"getAllRegisteredSellers","outputs":[{"internalType":"address[]","name":"","type":"address[]"}],"stateMutability":"view","type":"function"},{"inputs":[],"name":"getAllSellers","outputs":[{"internalType":"address[]","name":"","type":"address[]"}],"stateMutability":"view","type":"function"},{"inputs":[{"internalType":"uint256","name":"tokenId","type":"uint256"}],"name":"getApproved","outputs":[{"internalType":"address","name":"","type":"address"}],"stateMutability":"view","type":"function"},{"inputs":[{"internalType":"uint256","name":"id","type":"uint256"}],"name":"getCategory","outputs":[{"internalType":"uint256","name":"","type":"uint256"},{"internalType":"string","name":"","type":"string"},{"internalType":"bool","name":"","type":"bool"},{"internalType":"uint256[]","name":"","type":"uint256[]"}],"stateMutability":"view","type":"function"},{"inputs":[],"name":"getMyProducts","outputs":[{"components":[{"internalType":"uint256","name":"id","type":"uint256"},{"internalType":"address","name":"seller","type":"address"},{"internalType":"string","name":"name","type":"string"},{"internalType":"string","name":"description","type":"string"},{"internalType":"string","name":"image","type":"string"},{"internalType":"uint256","name":"categoryId","type":"uint256"},{"internalType":"uint256","name":"cost","type":"uint256"},{"internalType":"uint256","name":"stock","type":"uint256"},{"internalType":"uint256","name":"timestamp","type":"uint256"},{"internalType":"bool","name":"deleted","type":"bool"}],"internalType":"struct CryptoMartStorage.ProductStruct[]","name":"","type":"tuple[]"}],"stateMutability":"view","type":"function"},{"inputs":[],"name":"getPendingVerificationUsers","outputs":[{"internalType":"address[]","name":"","type":"address[]"}],"stateMutability":"view","type":"function"},{"inputs":[{"internalType":"uint256","name":"productId","type":"uint256"}],"name":"getProduct","outputs":[{"components":[{"internalType":"uint256","name":"id","type":"uint256"},{"internalType":"address","name":"seller","type":"address"},{"internalType":"string","name":"name","type":"string"},{"internalType":"string","name":"description","type":"string"},{"internalType":"string","name":"image","type":"string"},{"internalType":"uint256","name":"categoryId","type":"uint256"},{"internalType":"uint256","name":"cost","type":"uint256"},{"internalType":"uint256","name":"stock","type":"uint256"},{"internalType":"uint256","name":"timestamp","type":"uint256"},{"internalType":"bool","name":"deleted","type":"bool"}],"internalType":"struct CryptoMartStorage.ProductStruct","name":"","type":"tuple"}],"stateMutability":"view","type":"function"},{"inputs":[{"internalType":"address","name":"seller","type":"address"}],"name":"getSeller","outputs":[{"components":[{"internalType":"string","name":"businessName","type":"string"},{"internalType":"string","name":"description","type":"string"},{"internalType":"string","name":"email","type":"string"},{"internalType":"string","name":"phone","type":"string"},{"internalType":"string","name":"logo","type":"string"},{"internalType":"bool","name":"isRegistered","type":"bool"},{"internalType":"uint256","name":"registeredAt","type":"uint256"}],"internalType":"struct CryptoMartStorage.SellerProfile","name":"","type":"tuple"},{"internalType":"enum CryptoMartStorage.SellerStatus","name":"","type":"uint8"}],"stateMutability":"view","type":"function"},{"inputs":[{"internalType":"address","name":"seller","type":"address"}],"name":"getSellerProducts","outputs":[{"components":[{"internalType":"uint256","name":"id","type":"uint256"},{"internalType":"address","name":"seller","type":"address"},{"internalType":"string","name":"name","type":"string"},{"internalType":"string","name":"description","type":"string"},{"internalType":"string","name":"image","type":"string"},{"internalType":"uint256","name":"categoryId","type":"uint256"},{"internalType":"uint256","name":"cost","type":"uint256"},{"internalType":"uint256","name":"stock","type":"uint256"},{"internalType":"uint256","name":"timestamp","type":"uint256"},{"internalType":"bool","name":"deleted","type":"bool"}],"internalType":"struct CryptoMartStorage.ProductStruct[]","name":"","type":"tuple[]"}],"stateMutability":"view","type":"function"},{"inputs":[{"internalType":"address","name":"seller","type":"address"}],"name":"getSellerProfile","outputs":[{"components":[{"internalType":"string","name":"businessName","type":"string"},{"internalType":"string","name":"description","type":"string"},{"internalType":"string","name":"email","type":"string"},{"internalType":"string","name":"phone","type":"string"},{"internalType":"string","name":"logo","type":"string"},{"internalType":"bool","name":"isRegistered","type":"bool"},{"internalType":"uint256","name":"registeredAt","type":"uint256"}],"internalType":"struct CryptoMartStorage.SellerProfile","name":"","type":"tuple"}],"stateMutability":"view","type":"function"},{"inputs":[{"internalType":"address","name":"seller","type":"address"}],"name":"getSellerStatus","outputs":[{"internalType":"enum CryptoMartStorage.SellerStatus","name":"","type":"uint8"}],"stateMutability":"view","type":"function"},{"inputs":[],"name":"getTotalProducts","outputs":[{"internalType":"uint256","name":"","type":"uint256"}],"stateMutability":"view","type":"function"},{"inputs":[],"name":"getTotalSales","outputs":[{"internalType":"uint256","name":"","type":"uint256"}],"stateMutability":"view","type":"function"},{"inputs":[{"internalType":"address","name":"user","type":"address"}],"name":"getUser","outputs":[{"components":[{"internalType":"string","name":"name","type":"string"},{"internalType":"string","name":"email","type":"string"},{"internalType":"string","name":"avatar","type":"string"},{"internalType":"bool","name":"isRegistered","type":"bool"}],"internalType":"struct CryptoMartStorage.UserProfile","name":"","type":"tuple"}],"stateMutability":"view","type":"function"},{"inputs":[],"name":"grantOwnerSellerAccess","outputs":[],"stateMutability":"nonpayable","type":"function"},{"inputs":[{"internalType":"address","name":"owner","type":"address"},{"internalType":"address","name":"operator","type":"address"}],"name":"isApprovedForAll","outputs":[{"internalType":"bool","name":"","type":"bool"}],"stateMutability":"view","type":"function"},{"inputs":[],"name":"name","outputs":[{"internalType":"string","name":"","type":"string"}],"stateMutability":"view","type":"function"},{"inputs":[],"name":"owner","outputs":[{"internalType":"address","name":"","type":"address"}],"stateMutability":"view","type":"function"},{"inputs":[{"internalType":"uint256","name":"tokenId","type":"uint256"}],"name":"ownerOf","outputs":[{"internalType":"address","name":"","type":"address"}],"stateMutability":"view","type":"function"},{"inputs":[{"internalType":"address","name":"seller","type":"address"},{"internalType":"string","name":"businessName","type":"string"},{"internalType":"string","name":"description","type":"string"},{"internalType":"string","name":"email","type":"string"},{"internalType":"string","name":"phone","type":"string"},{"internalType":"string","name":"logo","type":"string"}],"name":"registerSeller","outputs":[],"stateMutability":"nonpayable","type":"function"},{"inputs":[{"internalType":"address","name":"user","type":"address"},{"internalType":"string","name":"name","type":"string"},{"internalType":"string","name":"email","type":"string"},{"internalType":"string","name":"avatar","type":"string"}],"name":"registerUser","outputs":[],"stateMutability":"nonpayable","type":"function"},{"inputs":[],"name":"renounceOwnership","outputs":[],"stateMutability":"nonpayable","type":"function"},{"inputs":[{"internalType":"address","name":"from","type":"address"},{"internalType":"address","name":"to","type":"address"},{"internalType":"uint256","name":"tokenId","type":"uint256"}],"name":"safeTransferFrom","outputs":[],"stateMutability":"nonpayable","type":"function"},{"inputs":[{"internalType":"address","name":"from","type":"address"},{"internalType":"address","name":"to","type":"address"},{"internalType":"uint256","name":"tokenId","type":"uint256"},{"internalType":"bytes","name":"data","type":"bytes"}],"name":"safeTransferFrom","outputs":[],"stateMutability":"nonpayable","type":"function"},{"inputs":[{"internalType":"address","name":"operator","type":"address"},{"internalType":"bool","name":"approved","type":"bool"}],"name":"setApprovalForAll","outputs":[],"stateMutability":"nonpayable","type":"function"},{"inputs":[],"name":"storageContract","outputs":[{"internalType":"contract CryptoMartStorage","name":"","type":"address"}],"stateMutability":"view","type":"function"},{"inputs":[{"internalType":"bytes4","name":"interfaceId","type":"bytes4"}],"name":"supportsInterface","outputs":[{"internalType":"bool","name":"","type":"bool"}],"stateMutability":"view","type":"function"},{"inputs":[],"name":"symbol","outputs":[{"internalType":"string","name":"","type":"string"}],"stateMutability":"view","type":"function"},{"inputs":[{"internalType":"uint256","name":"tokenId","type":"uint256"}],"name":"tokenURI","outputs":[{"internalType":"string","name":"","type":"string"}],"stateMutability":"view","type":"function"},{"inputs":[{"internalType":"address","name":"from","type":"address"},{"internalType":"address","name":"to","type":"address"},{"internalType":"uint256","name":"tokenId","type":"uint256"}],"name":"transferFrom","outputs":[],"stateMutability":"nonpayable","type":"function"},{"inputs":[{"internalType":"address","name":"newOwner","type":"address"}],"name":"transferOwnership","outputs":[],"stateMutability":"nonpayable","type":"function"},{"inputs":[{"internalType":"uint256","name":"id","type":"uint256"},{"internalType":"string","name":"name","type":"string"},{"internalType":"bool","name":"isActive","type":"bool"}],"name":"updateCategory","outputs":[],"stateMutability":"nonpayable","type":"function"},{"inputs":[{"internalType":"uint256","name":"productId","type":"uint256"},{"internalType":"string","name":"name","type":"string"},{"internalType":"string","name":"description","type":"string"},{"internalType":"string","name":"image","type":"string"},{"internalType":"uint256","name":"categoryId","type":"uint256"},{"internalType":"uint256","name":"cost","type":"uint256"},{"internalType":"uint256","name":"stock","type":"uint256"}],"name":"updateProduct","outputs":[],"stateMutability":"nonpayable","type":"function"},{"inputs":[{"internalType":"address","name":"seller","type":"address"},{"internalType":"enum CryptoMartStorage.SellerStatus","name":"status","type":"uint8"}],"name":"updateSellerStatus","outputs":[],"stateMutability":"nonpayable","type":"function"},{"inputs":[],"name":"withdrawServiceFees","outputs":[],"stateMutability":"nonpayable","type":"function"},{"stateMutability":"payable","type":"receive"}],"evm":{"bytecode":{"linkReferences":{},"object":"60a0346200043f57601f90601f196001600160401b03620045d93881900385810184168501838111868210176200035e578592829160405283396020948591810103126200043f57516001600160a01b038082169590918690036200043f576200006862000443565b91600a83526910dc9e5c1d1bd3585c9d60b21b868401526200008962000443565b600581526410d350549560da1b878201525f8054336001600160a01b0319821681178355929316907f8be0079c531659141344cd1fd0a4f28419497f9722a3daafe3b4186f6b6457e09080a36001928380558051908582116200035e57600254908582811c9216801562000434575b898310146200033f578185849311620003e0575b5088908583116001146200037e575f9262000372575b50505f19600383901b1c191690841b176002555b80519384116200035e5760039586548481811c9116801562000353575b828210146200033f57838111620002f7575b5080928511600114620002935750839450908392915f9462000287575b50501b915f1990841b1c19161790555b608052604051614175908162000464823960805181818161029a01528181610467015281816105ac0152818161075701528181610965015281816109c101528181610a5a01528181610b0701528181610b6801528181610ba401528181610bf901528181610d8c01528181610f0c0152818161121001528181611330015281816114b60152818161176201528181611b0801528181611d8c01528181611f21015281816120a50152818161239e015281816124bc01528181612583015281816126e0015281816127af0152818161286001528181612aa601528181612b7e01528181612bd401528181612e8b01526133300152f35b015192505f8062000182565b929484908116875f52845f20945f905b88838310620002dc5750505010620002c4575b505050811b01905562000192565b01515f1983861b60f8161c191690555f8080620002b6565b858701518855909601959485019487935090810190620002a3565b875f52815f208480880160051c82019284891062000335575b0160051c019085905b8281106200032957505062000165565b5f815501859062000319565b9250819262000310565b634e487b7160e01b5f52602260045260245ffd5b90607f169062000153565b634e487b7160e01b5f52604160045260245ffd5b015190505f8062000122565b90888794169160025f528a5f20925f5b8c828210620003c95750508411620003b0575b505050811b0160025562000136565b01515f1960f88460031b161c191690555f8080620003a1565b8385015186558a979095019493840193016200038e565b90915060025f52885f208580850160051c8201928b86106200042a575b918891869594930160051c01915b8281106200041b5750506200010c565b5f81558594508891016200040b565b92508192620003fd565b91607f1691620000f8565b5f80fd5b60408051919082016001600160401b038111838210176200035e5760405256fe608080604052600436101561001c575b50361561001a575f80fd5b005b5f905f3560e01c90816301ffc9a7146130405750806302ee3a5214612e6c57806306fdde0314612d95578063081812fc14612d77578063095ea7b314612c0357806311ce026714612bbf5780632156a96c14612b5957806323b872dd14612b3057806342842e0e14612b095780634293e5ce14612a5d5780634e213d2014612824578063570aea8a146127885780635ad6a580146120705780635be20959146126b75780636352211e1461268657806366224d8e146125295780636f68ef3a146124975780636f77926b1461233657806370a08231146122a0578063715018a61461225a5780638da5cb5b1461223357806395d89b411461215657806397b6f393146120755780639b269b8f14612070578063a22cb46514611fa4578063a323d29e14611ed6578063b88d4fde14611e73578063b9db15b414611d57578063bdbe6f4f14611a5b578063c87b56dd14611853578063ceca737f14611734578063d72e481d14611676578063dadd0a5714611494578063dc298682146112e5578063e6a93e16146111d3578063e6b3a14c14610e47578063e985e9c514610df5578063eb11c43414610d4b578063ec4cf85b146108e0578063ed90c7b714610720578063f2fde38b14610673578063f3052d261461057c578063fdca4ca31461043f5763fe69c2960361000f573461043c57608036600319011261043c576102216131e8565b6001600160401b03906024358281116103a2576102429036906004016134d0565b6044358381116104385761025a9036906004016134d0565b92606435908111610438576102739036906004016134d0565b604051630e50cee560e01b81526001600160a01b03938416600482018190529460209490927f0000000000000000000000000000000000000000000000000000000000000000909116918581602481865afa90811561042d5788916103f4575b506103b557908692916102e885511515613bac565b604051926102f5846133ef565b85845286840152604083015260016060830152803b156103b15761034183929183926040519485809481936359dd665f60e01b83528c60048401526040602484015260448301906134ee565b03925af180156103a65761038e575b50507f48cac28ad4dc618e15f4c2dd5e97751182f166de97b25618318b2112aa951a2f916103886040519282849384528301906130cc565b0390a280f35b610397906133c1565b6103a257835f610350565b8380fd5b6040513d84823e3d90fd5b8280fd5b60405162461bcd60e51b8152600481018690526017602482015276155cd95c88185b1c9958591e481c9959da5cdd195c9959604a1b6044820152606490fd5b90508581813d8311610426575b61040b818361345c565b810103126104225761041c90613650565b5f6102d3565b8780fd5b503d610401565b6040513d8a823e3d90fd5b8480fd5b80fd5b503461043c578060031936011261043c576040516373549f0b60e11b815233600482015260247f00000000000000000000000000000000000000000000000000000000000000006001600160a01b031683838381845afa92831561057157849361054d575b506104af83516135df565b91845b845181101561053b576104c58186613792565b519060405191632e76c56d60e21b8352600483015286828481875afa801561053057600192889161050e575b506104fc8287613792565b526105078186613792565b50016104b2565b61052a91503d808a833e610522818361345c565b8101906136b3565b5f6104f1565b6040513d89823e3d90fd5b604051806105498682613185565b0390f35b61056a9193503d8086833e610562818361345c565b810190613d06565b915f6104a4565b6040513d86823e3d90fd5b503461043c576020908160031936011261043c57604051637982969360e11b8152600480359082015281816024817f00000000000000000000000000000000000000000000000000000000000000006001600160a01b03165afa9081156103a6578291610651575b5091825191604082850151940151151561060f604051958695865260808587015260808601906130cc565b9060408501528381036060850152826060519182815201926080925b82811061063a57505050500390f35b83518552869550938101939281019260010161062b565b61066d91503d8084833e610665818361345c565b810190613a70565b5f6105e4565b503461043c57602036600319011261043c5761068d6131e8565b610695613fb0565b6001600160a01b039081169081156106cc575f548260018060a01b03198216175f55165f805160206141498339815191525f80a380f35b60405162461bcd60e51b815260206004820152602660248201527f4f776e61626c653a206e6577206f776e657220697320746865207a65726f206160448201526564647265737360d01b6064820152608490fd5b503461043c5760208060031936011261086a57604051632bd57b5960e21b8152600480359082018190529183916001600160a01b037f00000000000000000000000000000000000000000000000000000000000000008116918381602481865afa801561089f5785906108aa575b6107989150613b67565b604051632e76c56d60e21b815260048101869052928484602481865afa93841561089f57859461087b575b5090806107de9285015116331490811561086e575b50613d7f565b6001610120830152803b156103b15761081f83929183926040519485809481936306ad0cb960e01b83528a60048401526040602484015260448301906130f1565b03925af180156103a657610856575b50807fc341cf326465fe622f86c468249e8c0cb03ed23ba376a6a34863a1374ac7d76991a280f35b61085f906133c1565b61086a57815f61082e565b5080fd5b905084541633145f6107d8565b82919450916108966107de933d8089833e610522818361345c565b949192506107c3565b6040513d87823e3d90fd5b508381813d83116108d9575b6108c0818361345c565b81010312610438576108d461079891613650565b61078e565b503d6108b6565b503461043c5760e036600319011261043c576001600160401b0390602480358381116103b1576109149036906004016134d0565b926044358181116103a25761092d9036906004016134d0565b906064359081116103a2576109469036906004016134d0565b604051632bd57b5960e21b8152600480359082015290949060208185817f00000000000000000000000000000000000000000000000000000000000000006001600160a01b03165afa801561089f578590610d10575b6109a69150613b67565b604051632e76c56d60e21b81526004803590820152848185817f00000000000000000000000000000000000000000000000000000000000000006001600160a01b03165afa90811561089f578591610cf6575b5060208101516001600160a01b031633148015610ce3575b610a1a90613d7f565b610120810151610cad578495610a3283511515613bac565b610a3f60a4351515613be8565b604051637982969360e11b81526084356004820152868187817f00000000000000000000000000000000000000000000000000000000000000006001600160a01b03165afa90811561053057610aa3916040918991610c93575b5001511515613c34565b60208201516101009283015160405195909490916001600160a01b0316610ac98761340a565b6004358752602087015260408601526060850152608084015260843560a084015260a43560c084015260c43560e084015282015261012081018390527f00000000000000000000000000000000000000000000000000000000000000006001600160a01b03163b15610c8f5782610b6391604051809381926306ad0cb960e01b8352600435600484015260408784015260448301906130f1565b0381837f00000000000000000000000000000000000000000000000000000000000000006001600160a01b03165af1908115610c84578391610c70575b50507f00000000000000000000000000000000000000000000000000000000000000006001600160a01b03163b15610c6d5760405163184c5e5360e31b81526004803590820152608435918101919091528181604481837f00000000000000000000000000000000000000000000000000000000000000006001600160a01b03165af180156103a657610c59575b506004357feca6714fcf568fb34cf9db4a414cb0cc48e93c5d4e1ba0582a46ea3704cf24d58280a280f35b610c62906133c1565b61043c57805f610c2e565b50fd5b610c79906133c1565b610c6d57815f610ba0565b6040513d85823e3d90fd5b5050fd5b610ca791503d808b833e610665818361345c565b5f610a99565b60405162461bcd60e51b815260206004820152600f818601526e141c9bd91d58dd0819195b195d1959608a1b6044820152606490fd5b5084546001600160a01b03163314610a11565b610d0a91503d8087833e610522818361345c565b5f6109f9565b506020813d602011610d43575b81610d2a6020938361345c565b8101031261043857610d3e6109a691613650565b61099c565b3d9150610d1d565b503461043c57602036600319011261043c57602481610d686131e8565b604051635191e94f60e11b81526001600160a01b03918216600482015292839182907f0000000000000000000000000000000000000000000000000000000000000000165afa9081156103a6578260209392610dd0575b5050610dce604051809261353a565bf35b610dec92503d8091833e610de4818361345c565b810190613875565b90505f80610dbf565b503461043c57604036600319011261043c57610e0f6131e8565b6040610e196131fe565b9260018060a01b03809316815260076020522091165f52602052602060ff60405f2054166040519015158152f35b503461043c5760c036600319011261043c57610e616131e8565b602491906001600160401b039083358281116103a257610e859036906004016134d0565b60443583811161043857610e9d9036906004016134d0565b6064358481116111cf57610eb59036906004016134d0565b956084358581116111cb57610ece9036906004016134d0565b9460a4359081116111cb57610ee79036906004016134d0565b604051630e50cee560e01b81526001600160a01b0386811660048301819052976020977f000000000000000000000000000000000000000000000000000000000000000090921695939192888187818a5afa908115611147578b91611196575b50156111525760405163c64b8a8f60e01b8152600481018a9052888187818a5afa908115611147578b9161110e575b506110cb5786511561108e57899a60409a9798999a5194610f9686613392565b8986528a860152604085015260608401526080830152600160a08301524260c0830152833b156104385760405163283a514f60e11b815291859183918291610fe2919060048401613964565b038183875af190811561057157849161107a575b5050813b156103b15760016044849283604051958694859363aa27905960e01b85528c60048601528401525af180156103a657611066575b50507fecef9454c60fab6a60b6f2aa319263c0f711cdb927c213e76687f7853b597842916103886040519282849384528301906130cc565b61106f906133c1565b6103a257835f61102e565b611083906133c1565b6103b157825f610ff6565b60405162461bcd60e51b81526004810189905260168187015275109d5cda5b995cdcc81b985b59481c995c5d5a5c995960521b6044820152606490fd5b60405162461bcd60e51b815260048101899052601c818701527b20b63932b0b23c903932b3b4b9ba32b932b21030b99039b2b63632b960211b6044820152606490fd5b90508881813d8311611140575b611125818361345c565b8101031261113c5761113690613650565b5f610f76565b8a80fd5b503d61111b565b6040513d8d823e3d90fd5b60405162461bcd60e51b815260048101899052601d818701527f4d757374206265207265676973746572656420757365722066697273740000006044820152606490fd5b90508881813d83116111c4575b6111ad818361345c565b8101031261113c576111be90613650565b5f610f47565b503d6111a3565b8680fd5b8580fd5b503461043c57602036600319011261043c576111ed6131e8565b6040516373549f0b60e11b81526001600160a01b039182166004820152906024907f00000000000000000000000000000000000000000000000000000000000000001683838381845afa9283156105715784936112c9575b5061125083516135df565b91845b845181101561053b576112668186613792565b519060405191632e76c56d60e21b8352600483015286828481875afa80156105305760019288916112af575b5061129d8287613792565b526112a88186613792565b5001611253565b6112c391503d808a833e610522818361345c565b5f611292565b6112de9193503d8086833e610562818361345c565b915f611245565b503461043c5760208060031936011261086a576004356001600160401b0381116103b1576113179036906004016134d0565b9081511561145757604051630602566360e11b815291837f00000000000000000000000000000000000000000000000000000000000000006001600160a01b0316838560048185855af19485156103a6578295611420575b506040519061137d826133d4565b858252838583015260016040830152803b156103b1576113c583929183926040519485809481936328a22b8760e01b83528c600484015260406024840152604483019061355b565b03925af180156103a65761140c575b50507f11c167cc9b439f0ad8bec5588159f1b06b813bc38d50c867a41b23b077be2c1a916103886040519282849384528301906130cc565b611415906133c1565b6103a257835f6113d4565b84809296508193503d8311611450575b61143a818361345c565b8101031261144c57849051935f61136f565b5f80fd5b503d611430565b6064906040519062461bcd60e51b82526004820152601660248201527510d85d1959dbdc9e481b985b59481c995c5d5a5c995960521b6044820152fd5b503461043c578060031936011261043c57604051620d893f60e61b81526020907f00000000000000000000000000000000000000000000000000000000000000006001600160a01b03168282600481845afa918215610571578492611647575b5061150182949394613ca2565b91839160015b828111156115b45750505061151b81613ca2565b91835b8281106115845750505060405191838301848452825180915260408401948060408360051b870101940192955b8287106115585785850386f35b909192938280611574600193603f198a8203018652885161355b565b960192019601959291909261154b565b8061159460019284989798613792565b5161159f8287613792565b526115aa8186613792565b500194939461151e565b9085969591604051637982969360e11b81528160048201528381602481865afa90811561057157849161162d575b506040810151611602575b506115f79061362e565b909150959495611507565b85611626916116156115f794988a613792565b526116208189613792565b5061362e565b94906115ed565b61164191503d8086833e610665818361345c565b5f6115e2565b9091508281813d831161166f575b61165f818361345c565b8101031261144c5751905f6114f4565b503d611655565b503461043c578060031936011261043c5761168f613fb0565b4780156116f957815482918291829182916001600160a01b03165af16116b3613c73565b50156116bc5780f35b60405162461bcd60e51b8152602060048201526015602482015274119959481dda5d1a191c985dd85b0819985a5b1959605a1b6044820152606490fd5b60405162461bcd60e51b81526020600482015260136024820152724e6f206665657320746f20776974686472617760681b6044820152606490fd5b503461043c57602036600319011261043c57604051637982969360e11b8152600480359082018190529082907f00000000000000000000000000000000000000000000000000000000000000006001600160a01b03168282602481845afa918215610c84578392611837575b506117ad82511515613ad9565b826040830152803b156103b1576117ec83929183926040519485809481936328a22b8760e01b83528a600484015260406024840152604483019061355b565b03925af180156103a657611823575b50807f510c8243d59e6c99aa1a4cf786d70d3e2e425109eb3870cc957ccb326a11ea9791a280f35b61182c906133c1565b61086a57815f6117fb565b61184c9192503d8085833e610665818361345c565b905f6117a0565b503461043c576020908160031936011261043c57816004359161187583613dbc565b6040519261188284613426565b8184528115611a425781908072184f03e93ff9f4daa797ed6e38ed64bf6a1f0160401b8181811015611a34575b508590506904ee2d6d415b85acef8160201b80841015611a26575b5050662386f26fc1000080831015611a17575b506305f5e10080831015611a08575b50612710808310156119f9575b5060648210156119e9575b600a809210156119df575b600190816021600186019561193c6119268861347f565b97611934604051998a61345c565b80895261347f565b878a019890601f1901368a3750860101905b6119aa575b5050505092611994929161198894604051958361197988955180928880890191016130ab565b840191518093868401906130ab565b0103808452018261345c565b905b6105496040519282849384528301906130cc565b5f19019083906f181899199a1a9b1b9c1cb0b131b232b360811b8282061a8353049182156119da5791908261194e565b611953565b916001019161190f565b9190606460029104910191611904565b6004919392049101915f6118f9565b6008919392049101915f6118ec565b6010919392049101915f6118dd565b93019290910490845f6118ca565b604094500491505f806118af565b50505050604051611a5281613426565b5f815290611996565b503461043c5760e036600319011261043c57611a756131e8565b6001600160401b03906024358281116103a257611a969036906004016134d0565b9060443583811161043857611aaf9036906004016134d0565b9260643590811161043857611ac89036906004016134d0565b91608435918560a43591611ade84511515613bac565b611ae9831515613be8565b604051637982969360e11b8152600481018690526001600160a01b03957f000000000000000000000000000000000000000000000000000000000000000087169290918481602481875afa90811561089f57611b52916040918791611d43575001511515613c34565b6040516309b4daef60e21b815297602097888a60048189895af1998a15611d3857869a611d05575b5060405192611b888461340a565b8a845216998a89840152876040840152606083015260808201528160a08201528460c082015260c43560e08201524261010082015283610120820152823b156103a25783611bf891604051809381926306ad0cb960e01b83528c60048401526040602484015260448301906130f1565b038183875af1908115610571578491611cf1575b5050813b156103b157604051631294b01d60e01b8152886004820152876024820152838160448183875af1908115610571578491611cdd575b5050813b156103b157829160448392604051948593849263184c5e5360e31b84528c600485015260248401525af180156103a657611cc5575b5050907f5f25c590b5c7f62ed4186adca32d3118caef07e5020c6cc8268d4136df2cfef892611cbb926040519384936040855260408501906130cc565b918301520390a380f35b611cd1909392936133c1565b6111cf5790855f611c7e565b611ce6906133c1565b6103b157825f611c45565b611cfa906133c1565b6103b157825f611c0c565b8980929b508197503d8311611d31575b611d1f818361345c565b8101031261144c578a9451985f611b7a565b503d611d15565b6040513d88823e3d90fd5b610ca791503d8089833e610665818361345c565b503461043c5760208060031936011261086a57600435611d75613593565b50604051632bd57b5960e21b8152600481018290527f00000000000000000000000000000000000000000000000000000000000000006001600160a01b03169184918481602481875afa8015610c84578390611e3d575b611dd69150613b67565b602460405180948193632e76c56d60e21b835260048301525afa928315611e31578093611e14575b50506105496040519282849384528301906130f1565b611e299293503d8091833e610522818361345c565b905f80611dfe565b604051903d90823e3d90fd5b508481813d8311611e6c575b611e53818361345c565b810103126103b157611e67611dd691613650565b611dcc565b503d611e49565b503461043c57608036600319011261043c57611e8d6131e8565b611e956131fe565b606435916001600160401b0383116103a257366023840112156103a257611ec9611ed393369060248160040135910161349a565b9160443591613b1f565b80f35b503461043c57602036600319011261043c5780602491611ef46131e8565b611efc61383f565b50604051635191e94f60e11b81526001600160a01b03918216600482015293849182907f0000000000000000000000000000000000000000000000000000000000000000165afa8015611f9757611f6e92828092611f79575b5050610549604051938493604085526040850190613249565b91602084019061353a565b909150611f9092503d8091833e610de4818361345c565b5f80611f55565b50604051903d90823e3d90fd5b503461043c57604036600319011261043c57611fbe6131e8565b6024359081151580920361144c576001600160a01b03169033821461202f57338352600760205260408320825f5260205260405f2060ff1981541660ff83161790556040519081527f17307eab39ab6107e8899845ad3d59bd9653f200f220920489ca2b5937696c3160203392a380f35b60405162461bcd60e51b815260206004820152601960248201527822a9219b99189d1030b8383937bb32903a379031b0b63632b960391b6044820152606490fd5b61330d565b503461043c57604036600319011261043c5761208f6131e8565b60243560048110156103b1576001600160a01b037f0000000000000000000000000000000000000000000000000000000000000000811692849190843b156103b157829160448392604051948593849263aa27905960e01b845216988960048401526120fe602484018a61353a565b5af180156103a657612142575b505060207fd8f7bcb2c5cffc294a0aaef719685993d7be95273fb8254803a1563510ccefed9161213e604051809261353a565ba280f35b61214b906133c1565b6103b157825f61210b565b503461043c578060031936011261043c5760405190806003549160018360011c9260018516948515612229575b6020958686108114612215578588528794939291879082156121f35750506001146121b7575b50506119969250038361345c565b90859250600382528282205b8583106121db57505061199693508201015f806121a9565b805483890185015287945086939092019181016121c3565b925093505061199694915060ff191682840152151560051b8201015f806121a9565b634e487b7160e01b83526022600452602483fd5b93607f1693612183565b503461043c578060031936011261043c57546040516001600160a01b039091168152602090f35b503461043c578060031936011261043c57612273613fb0565b5f80546001600160a01b0319811682556001600160a01b03165f805160206141498339815191528280a380f35b503461043c57602036600319011261043c576001600160a01b036122c26131e8565b1680156122df578160409160209352600583522054604051908152f35b60405162461bcd60e51b815260206004820152602960248201527f4552433732313a2061646472657373207a65726f206973206e6f7420612076616044820152683634b21037bbb732b960b91b6064820152608490fd5b503461043c5760208060031936011261086a576024916123546131e8565b8160405191612362836133ef565b606080845285840181905260408085018290529381018390529251636f77926b60e01b81526001600160a01b03918216600482015295869182907f0000000000000000000000000000000000000000000000000000000000000000165afa9384156103a65782946123e5575b5050506105496040519282849384528301906134ee565b90919293503d8084833e6123f9818361345c565b810184828203126103a25781516001600160401b03928382116111cf570191608083830312610438576040519461242f866133ef565b835182811161086a5783612444918601613671565b86528684015182811161086a578361245d918601613671565b87870152604084015191821161043c57509161247f849261248a948301613671565b604086015201613650565b90820152905f80806123ce565b503461043c578060031936011261043c576040516337b4779d60e11b815281816004817f00000000000000000000000000000000000000000000000000000000000000006001600160a01b03165afa9081156103a657826105499392612506575b5050604051918291826132c9565b61252292503d8091833e61251a818361345c565b810190613986565b5f806124f8565b503461043c57606036600319011261043c576004356024356001600160401b0381116103b15761255d9036906004016134d0565b6044359081151580920361144c57604051637982969360e11b81526004810184905284927f00000000000000000000000000000000000000000000000000000000000000006001600160a01b0316918481602481865afa801561089f576125ce91869161266c575b50511515613ad9565b604051926125db846133d4565b85845260208401526040830152803b156103b15761262183929183926040519485809481936328a22b8760e01b83528a600484015260406024840152604483019061355b565b03925af180156103a657612658575b50807f20611f93bb94c3dcaf404a8f60335558241ab3e3c68f6201b0e1744037220c3f91a280f35b612661906133c1565b61086a57815f612630565b61268091503d8088833e610665818361345c565b5f6125c5565b503461043c57602036600319011261043c5760206126a5600435613a4e565b6040516001600160a01b039091168152f35b503461043c57602036600319011261043c576004356126d4613fb0565b600a811161274c5781907f00000000000000000000000000000000000000000000000000000000000000006001600160a01b031690813b15610c8f578291602483926040519485938492632aafa80760e01b845260048401525af180156103a65761273c5750f35b612745906133c1565b61043c5780f35b60405162461bcd60e51b81526020600482015260146024820152730a6cae4ecd2c6ca40cccaca40e8dede40d0d2ced60631b6044820152606490fd5b503461043c578060031936011261043c57604051639b9d326d60e01b8152906020826004817f00000000000000000000000000000000000000000000000000000000000000006001600160a01b03165afa908115611e3157906127f1575b602090604051908152f35b506020813d60201161281c575b8161280b6020938361345c565b8101031261144c57602090516127e6565b3d91506127fe565b503461144c575f36600319011261144c5761283d613fb0565b5f5460405163c64b8a8f60e01b81526001600160a01b03918216600482018190527f00000000000000000000000000000000000000000000000000000000000000008316939291602091908281602481895afa908115612a1d575f91612a28575b50156128a8578380f35b604051916128b583613392565b6040516128c181613441565b601081526f21b93cb83a37a6b0b93a1020b236b4b760811b8282015283526040516128eb81613441565b6016815275283630ba3337b9369020b236b4b734b9ba3930ba37b960511b82820152818401527361646d696e4063727970746f6d6172742e636f6d60601b6040519161293683613441565b60148352820152604083015260405161294e81613426565b5f8152606083015260405161296281613426565b5f81526080830152600160a08301524260c0830152843b1561144c5760405163283a514f60e11b8152915f91839182916129a0919060048401613964565b038183885af18015612a1d57612a0a575b50918192825416813b15610c8f57829160448392604051948593849263aa27905960e01b84526004840152600260248401525af180156103a6576129f6575b80808380f35b6129ff906133c1565b61043c57805f6129f0565b612a159192506133c1565b5f905f6129b1565b6040513d5f823e3d90fd5b90508281813d8311612a56575b612a3f818361345c565b8101031261144c57612a5090613650565b5f61289e565b503d612a35565b3461144c57602036600319011261144c5760245f612a796131e8565b612a8161383f565b50604051635191e94f60e11b81526001600160a01b03918216600482015292839182907f0000000000000000000000000000000000000000000000000000000000000000165afa8015612a1d57610549915f91612aee575b50604051918291602083526020830190613249565b612b0291503d805f833e610de4818361345c565b5082612ad9565b3461144c5761001a612b1a36613214565b9060405192612b2884613426565b5f8452613b1f565b3461144c5761001a612b4136613214565b91612b54612b4f8433613de0565b6137dd565b613ea4565b3461144c575f36600319011261144c57604051633302ffb360e11b81526020816004817f00000000000000000000000000000000000000000000000000000000000000006001600160a01b03165afa8015612a1d575f906127f157602090604051908152f35b3461144c575f36600319011261144c576040517f00000000000000000000000000000000000000000000000000000000000000006001600160a01b03168152602090f35b3461144c57604036600319011261144c57612c1c6131e8565b602435906001600160a01b038080612c3385613a4e565b16921691808314612d2857803314908115612d07575b5015612c9c575f83815260066020526040902080546001600160a01b03191683179055612c7583613a4e565b167f8c5be1e5ebec7d5bd14f71427d1e84f3dd0314c0f7b2291e5b200ac8c7c3b9255f80a4005b60405162461bcd60e51b815260206004820152603d60248201527f4552433732313a20617070726f76652063616c6c6572206973206e6f7420746f60448201527f6b656e206f776e6572206f7220617070726f76656420666f7220616c6c0000006064820152608490fd5b90505f52600760205260405f20335f5260205260ff60405f20541684612c49565b60405162461bcd60e51b815260206004820152602160248201527f4552433732313a20617070726f76616c20746f2063757272656e74206f776e656044820152603960f91b6064820152608490fd5b3461144c57602036600319011261144c5760206126a56004356137ba565b3461144c575f36600319011261144c576040515f6002549060018260011c9160018416918215612e62575b6020948585108414612e4e5785879486865291825f14612e2e575050600114612df1575b506119969250038361345c565b84915060025f52815f20905f915b858310612e16575050611996935082010185612de4565b80548389018501528794508693909201918101612dff565b60ff19168582015261199695151560051b8501019250879150612de49050565b634e487b7160e01b5f52602260045260245ffd5b92607f1692612dc0565b3461144c575f36600319011261144c57604051639b9d326d60e01b81527f00000000000000000000000000000000000000000000000000000000000000006001600160a01b0316906020908181600481865afa908115612a1d575f91613013575b50612ed7816135df565b915f9160019460015b82811115612f365750505050612ef5816135df565b915f5b828110612f0d57604051806105498682613185565b80612f19869284613792565b51612f248287613792565b52612f2f8186613792565b5001612ef8565b604051632bd57b5960e21b81526004810182905260249085818381875afa908115612a1d575f91612fde575b50612f77575b50612f729061362e565b612ee0565b5f6040518092632e76c56d60e21b825284600483015281865afa908115612a1d575f91612fc4575b50610120810151612f685785612fbd91611615612f7294988a613792565b9490612f68565b612fd891503d805f833e610522818361345c565b88612f9f565b90508581813d831161300c575b612ff5818361345c565b8101031261144c5761300690613650565b89612f62565b503d612feb565b90508181813d8311613039575b61302a818361345c565b8101031261144c575183612ecd565b503d613020565b3461144c57602036600319011261144c576004359063ffffffff60e01b821680920361144c576020916380ac58cd60e01b811490811561309a575b8115613089575b5015158152f35b6301ffc9a760e01b14905083613082565b635b5e139f60e01b8114915061307b565b5f5b8381106130bc5750505f910152565b81810151838201526020016130ad565b906020916130e5815180928185528580860191016130ab565b601f01601f1916010190565b9061314c61313a6131286101408551855260018060a01b0360208701511660208601526040860151908060408701528501906130cc565b606085015184820360608601526130cc565b608084015183820360808501526130cc565b9160a081015160a083015260c081015160c083015260e081015160e0830152610100808201519083015261012080910151151591015290565b6020808201906020835283518092526040830192602060408460051b8301019501935f915b8483106131ba5750505050505090565b90919293949584806131d8600193603f198682030187528a516130f1565b98019301930191949392906131aa565b600435906001600160a01b038216820361144c57565b602435906001600160a01b038216820361144c57565b606090600319011261144c576001600160a01b0390600435828116810361144c5791602435908116810361144c579060443590565b9060c0806132b46132a261329061327e61326c885160e0895260e08901906130cc565b602089015188820360208a01526130cc565b604088015187820360408901526130cc565b606087015186820360608801526130cc565b608086015185820360808701526130cc565b9360a0810151151560a0850152015191015290565b60209060206040818301928281528551809452019301915f5b8281106132f0575050505090565b83516001600160a01b0316855293810193928101926001016132e2565b3461144c575f36600319011261144c5760405162b5ad4b60e71b81525f816004817f00000000000000000000000000000000000000000000000000000000000000006001600160a01b03165afa8015612a1d57610549915f91613378575b50604051918291826132c9565b61338c91503d805f833e61251a818361345c565b5f61336b565b60e081019081106001600160401b038211176133ad57604052565b634e487b7160e01b5f52604160045260245ffd5b6001600160401b0381116133ad57604052565b606081019081106001600160401b038211176133ad57604052565b608081019081106001600160401b038211176133ad57604052565b61014081019081106001600160401b038211176133ad57604052565b602081019081106001600160401b038211176133ad57604052565b604081019081106001600160401b038211176133ad57604052565b601f909101601f19168101906001600160401b038211908210176133ad57604052565b6001600160401b0381116133ad57601f01601f191660200190565b9291926134a68261347f565b916134b4604051938461345c565b82948184528183011161144c578281602093845f960137010152565b9080601f8301121561144c578160206134eb9335910161349a565b90565b9060608061352f61351d61350b86516080875260808701906130cc565b602087015186820360208801526130cc565b604086015185820360408701526130cc565b930151151591015290565b9060048210156135475752565b634e487b7160e01b5f52602160045260245ffd5b908151815260408061352f60208501516060602086015260608501906130cc565b6001600160401b0381116133ad5760051b60200190565b604051906135a08261340a565b5f6101208382815282602082015260606040820152606080820152606060808201528260a08201528260c08201528260e0820152826101008201520152565b906135e98261357c565b6135f6604051918261345c565b8281528092613607601f199161357c565b01905f5b82811061361757505050565b602090613622613593565b8282850101520161360b565b5f19811461363c5760010190565b634e487b7160e01b5f52601160045260245ffd5b5190811515820361144c57565b51906001600160a01b038216820361144c57565b81601f8201121561144c5780516136878161347f565b92613695604051948561345c565b8184526020828401011161144c576134eb91602080850191016130ab565b60208183031261144c5780516001600160401b039182821161144c5701906101408284031261144c57604051926136e98461340a565b825184526136f96020840161365d565b6020850152604083015182811161144c5781613716918501613671565b6040850152606083015182811161144c5781613733918501613671565b6060850152608083015191821161144c5761374f918301613671565b608083015260a081015160a083015260c081015160c083015260e081015160e0830152610100808201519083015261378b610120809201613650565b9082015290565b80518210156137a65760209160051b010190565b634e487b7160e01b5f52603260045260245ffd5b6137c381613dbc565b5f908152600660205260409020546001600160a01b031690565b156137e457565b60405162461bcd60e51b815260206004820152602d60248201527f4552433732313a2063616c6c6572206973206e6f7420746f6b656e206f776e6560448201526c1c881bdc88185c1c1c9bdd9959609a1b6064820152608490fd5b6040519061384c82613392565b5f60c0836060808252806020830152806040830152808083015260808201528260a08201520152565b919060408382031261144c5782516001600160401b03919082811161144c5784019060e08282031261144c57604051916138ae83613392565b805184811161144c57826138c3918301613671565b8352602081015184811161144c57826138dd918301613671565b6020840152604081015184811161144c57826138fa918301613671565b6040840152606081015184811161144c5782613917918301613671565b6060840152608081015193841161144c5761393860c0926020958301613671565b608084015261394960a08201613650565b60a0840152015160c0820152920151600481101561144c5790565b6001600160a01b0390911681526040602082018190526134eb92910190613249565b602090818184031261144c578051906001600160401b03821161144c57019180601f8401121561144c5782516139bb8161357c565b936139c9604051958661345c565b818552838086019260051b82010192831161144c578301905b8282106139f0575050505090565b8380916139fc8461365d565b8152019101906139e2565b15613a0e57565b60405162461bcd60e51b8152602060048201526018602482015277115490cdcc8c4e881a5b9d985b1a59081d1bdad95b88125160421b6044820152606490fd5b5f908152600460205260409020546001600160a01b03166134eb811515613a07565b60208183031261144c5780516001600160401b039182821161144c57019160608382031261144c5760405192613aa5846133d4565b80518452602081015192831161144c57613ac6604092613ad1948301613671565b602085015201613650565b604082015290565b15613ae057565b60405162461bcd60e51b815260206004820152601760248201527610d85d1959dbdc9e48191bd95cc81b9bdd08195e1a5cdd604a1b6044820152606490fd5b90613b43939291613b33612b4f8433613de0565b613b3e838383613ea4565b61405a565b15613b4a57565b60405162461bcd60e51b815280613b6360048201614007565b0390fd5b15613b6e57565b60405162461bcd60e51b8152602060048201526016602482015275141c9bd91d58dd08191bd95cc81b9bdd08195e1a5cdd60521b6044820152606490fd5b15613bb357565b60405162461bcd60e51b815260206004820152600d60248201526c13985b59481c995c5d5a5c9959609a1b6044820152606490fd5b15613bef57565b60405162461bcd60e51b815260206004820152601e60248201527f436f7374206d7573742062652067726561746572207468616e207a65726f00006044820152606490fd5b15613c3b57565b60405162461bcd60e51b815260206004820152601060248201526f496e76616c69642063617465676f727960801b6044820152606490fd5b3d15613c9d573d90613c848261347f565b91613c92604051938461345c565b82523d5f602084013e565b606090565b90613cac8261357c565b604090613cbc604051918261345c565b8381528093613ccd601f199161357c565b01915f5b838110613cde5750505050565b6020908251613cec816133d4565b5f8152826060818301525f85830152828601015201613cd1565b602090818184031261144c578051906001600160401b03821161144c57019180601f8401121561144c578251613d3b8161357c565b93613d49604051958661345c565b818552838086019260051b82010192831161144c578301905b828210613d70575050505090565b81518152908301908301613d62565b15613d8657565b60405162461bcd60e51b815260206004820152600e60248201526d139bdd08185d5d1a1bdc9a5e995960921b6044820152606490fd5b5f90815260046020526040902054613dde906001600160a01b03161515613a07565b565b906001600160a01b038080613df484613a4e565b16931691838314938415613e27575b508315613e11575b50505090565b613e1d919293506137ba565b16145f8080613e0b565b9093505f52600760205260405f20825f5260205260ff60405f205416925f613e03565b15613e5157565b60405162461bcd60e51b815260206004820152602560248201527f4552433732313a207472616e736665722066726f6d20696e636f72726563742060448201526437bbb732b960d91b6064820152608490fd5b90613ecc91613eb284613a4e565b6001600160a01b0393918416928492909183168414613e4a565b16918215613f5f5781613ee991613ee286613a4e565b1614613e4a565b825f52600660205260405f2060018060a01b031990818154169055815f52600560205260405f205f198154019055825f5260405f2060018154019055835f5260046020528260405f20918254161790557fddf252ad1be2c89b69c2b068fc378daa952ba7f163c4a11628f55a4df523b3ef5f80a4565b60405162461bcd60e51b8152602060048201526024808201527f4552433732313a207472616e7366657220746f20746865207a65726f206164646044820152637265737360e01b6064820152608490fd5b5f546001600160a01b03163303613fc357565b606460405162461bcd60e51b815260206004820152602060248201527f4f776e61626c653a2063616c6c6572206973206e6f7420746865206f776e65726044820152fd5b60809060208152603260208201527f4552433732313a207472616e7366657220746f206e6f6e20455243373231526560408201527131b2b4bb32b91034b6b83632b6b2b73a32b960711b60608201520190565b92909190823b1561413f576140ac926020925f60018060a01b0360405180978196829584630a85bd0160e11b9c8d865233600487015216602485015260448401526080606484015260848301906130cc565b0393165af15f91816140fa575b506140ec576140c6613c73565b805190816140e75760405162461bcd60e51b815280613b6360048201614007565b602001fd5b6001600160e01b0319161490565b9091506020813d602011614137575b816141166020938361345c565b8101031261144c57516001600160e01b03198116810361144c57905f6140b9565b3d9150614109565b5050505060019056fe8be0079c531659141344cd1fd0a4f28419497f9722a3daafe3b4186f6b6457e0a164736f6c6343000818000a","opcodes":"PUSH1 0xA0 CALLVALUE PUSH3 0x43F JUMPI PUSH1 0x1F SWAP1 PUSH1 0x1F NOT PUSH1 0x1 PUSH1 0x1 PUSH1 0x40 SHL SUB PUSH3 0x45D9 CODESIZE DUP2 SWAP1 SUB DUP6 DUP2 ADD DUP5 AND DUP6 ADD DUP4 DUP2 GT DUP7 DUP3 LT OR PUSH3 0x35E JUMPI DUP6 SWAP3 DUP3 SWAP2 PUSH1 0x40 MSTORE DUP4 CODECOPY PUSH1 0x20 SWAP5 DUP6 SWAP2 DUP2 ADD SUB SLT PUSH3 0x43F JUMPI MLOAD PUSH1 0x1 PUSH1 0x1 PUSH1 0xA0 SHL SUB DUP1 DUP3 AND SWAP6 SWAP1 SWAP2 DUP7 SWAP1 SUB PUSH3 0x43F JUMPI PUSH3 0x68 PUSH3 0x443 JUMP JUMPDEST SWAP2 PUSH1 0xA DUP4 MSTORE PUSH10 0x10DC9E5C1D1BD3585C9D PUSH1 0xB2 SHL DUP7 DUP5 ADD MSTORE PUSH3 0x89 PUSH3 0x443 JUMP JUMPDEST PUSH1 0x5 DUP2 MSTORE PUSH5 0x10D3505495 PUSH1 0xDA SHL DUP8 DUP3 ADD MSTORE PUSH0 DUP1 SLOAD CALLER PUSH1 0x1 PUSH1 0x1 PUSH1 0xA0 SHL SUB NOT DUP3 AND DUP2 OR DUP4 SSTORE SWAP3 SWAP4 AND SWAP1 PUSH32 0x8BE0079C531659141344CD1FD0A4F28419497F9722A3DAAFE3B4186F6B6457E0 SWAP1 DUP1 LOG3 PUSH1 0x1 SWAP3 DUP4 DUP1 SSTORE DUP1 MLOAD SWAP1 DUP6 DUP3 GT PUSH3 0x35E JUMPI PUSH1 0x2 SLOAD SWAP1 DUP6 DUP3 DUP2 SHR SWAP3 AND DUP1 ISZERO PUSH3 0x434 JUMPI JUMPDEST DUP10 DUP4 LT EQ PUSH3 0x33F JUMPI DUP2 DUP6 DUP5 SWAP4 GT PUSH3 0x3E0 JUMPI JUMPDEST POP DUP9 SWAP1 DUP6 DUP4 GT PUSH1 0x1 EQ PUSH3 0x37E JUMPI PUSH0 SWAP3 PUSH3 0x372 JUMPI JUMPDEST POP POP PUSH0 NOT PUSH1 0x3 DUP4 SWAP1 SHL SHR NOT AND SWAP1 DUP5 SHL OR PUSH1 0x2 SSTORE JUMPDEST DUP1 MLOAD SWAP4 DUP5 GT PUSH3 0x35E JUMPI PUSH1 0x3 SWAP6 DUP7 SLOAD DUP5 DUP2 DUP2 SHR SWAP2 AND DUP1 ISZERO PUSH3 0x353 JUMPI JUMPDEST DUP3 DUP3 LT EQ PUSH3 0x33F JUMPI DUP4 DUP2 GT PUSH3 0x2F7 JUMPI JUMPDEST POP DUP1 SWAP3 DUP6 GT PUSH1 0x1 EQ PUSH3 0x293 JUMPI POP DUP4 SWAP5 POP SWAP1 DUP4 SWAP3 SWAP2 PUSH0 SWAP5 PUSH3 0x287 JUMPI JUMPDEST POP POP SHL SWAP2 PUSH0 NOT SWAP1 DUP5 SHL SHR NOT AND OR SWAP1 SSTORE JUMPDEST PUSH1 0x80 MSTORE PUSH1 0x40 MLOAD PUSH2 0x4175 SWAP1 DUP2 PUSH3 0x464 DUP3 CODECOPY PUSH1 0x80 MLOAD DUP2 DUP2 DUP2 PUSH2 0x29A ADD MSTORE DUP2 DUP2 PUSH2 0x467 ADD MSTORE DUP2 DUP2 PUSH2 0x5AC ADD MSTORE DUP2 DUP2 PUSH2 0x757 ADD MSTORE DUP2 DUP2 PUSH2 0x965 ADD MSTORE DUP2 DUP2 PUSH2 0x9C1 ADD MSTORE DUP2 DUP2 PUSH2 0xA5A ADD MSTORE DUP2 DUP2 PUSH2 0xB07 ADD MSTORE DUP2 DUP2 PUSH2 0xB68 ADD MSTORE DUP2 DUP2 PUSH2 0xBA4 ADD MSTORE DUP2 DUP2 PUSH2 0xBF9 ADD MSTORE DUP2 DUP2 PUSH2 0xD8C ADD MSTORE DUP2 DUP2 PUSH2 0xF0C ADD MSTORE DUP2 DUP2 PUSH2 0x1210 ADD MSTORE DUP2 DUP2 PUSH2 0x1330 ADD MSTORE DUP2 DUP2 PUSH2 0x14B6 ADD MSTORE DUP2 DUP2 PUSH2 0x1762 ADD MSTORE DUP2 DUP2 PUSH2 0x1B08 ADD MSTORE DUP2 DUP2 PUSH2 0x1D8C ADD MSTORE DUP2 DUP2 PUSH2 0x1F21 ADD MSTORE DUP2 DUP2 PUSH2 0x20A5 ADD MSTORE DUP2 DUP2 PUSH2 0x239E ADD MSTORE DUP2 DUP2 PUSH2 0x24BC ADD MSTORE DUP2 DUP2 PUSH2 0x2583 ADD MSTORE DUP2 DUP2 PUSH2 0x26E0 ADD MSTORE DUP2 DUP2 PUSH2 0x27AF ADD MSTORE DUP2 DUP2 PUSH2 0x2860 ADD MSTORE DUP2 DUP2 PUSH2 0x2AA6 ADD MSTORE DUP2 DUP2 PUSH2 0x2B7E ADD MSTORE DUP2 DUP2 PUSH2 0x2BD4 ADD MSTORE DUP2 DUP2 PUSH2 0x2E8B ADD MSTORE PUSH2 0x3330 ADD MSTORE RETURN JUMPDEST ADD MLOAD SWAP3 POP PUSH0 DUP1 PUSH3 0x182 JUMP JUMPDEST SWAP3 SWAP5 DUP5 SWAP1 DUP2 AND DUP8 PUSH0 MSTORE DUP5 PUSH0 KECCAK256 SWAP5 PUSH0 SWAP1 JUMPDEST DUP9 DUP4 DUP4 LT PUSH3 0x2DC JUMPI POP POP POP LT PUSH3 0x2C4 JUMPI JUMPDEST POP POP POP DUP2 SHL ADD SWAP1 SSTORE PUSH3 0x192 JUMP JUMPDEST ADD MLOAD PUSH0 NOT DUP4 DUP7 SHL PUSH1 0xF8 AND SHR NOT AND SWAP1 SSTORE PUSH0 DUP1 DUP1 PUSH3 0x2B6 JUMP JUMPDEST DUP6 DUP8 ADD MLOAD DUP9 SSTORE SWAP1 SWAP7 ADD SWAP6 SWAP5 DUP6 ADD SWAP5 DUP8 SWAP4 POP SWAP1 DUP2 ADD SWAP1 PUSH3 0x2A3 JUMP JUMPDEST DUP8 PUSH0 MSTORE DUP2 PUSH0 KECCAK256 DUP5 DUP1 DUP9 ADD PUSH1 0x5 SHR DUP3 ADD SWAP3 DUP5 DUP10 LT PUSH3 0x335 JUMPI JUMPDEST ADD PUSH1 0x5 SHR ADD SWAP1 DUP6 SWAP1 JUMPDEST DUP3 DUP2 LT PUSH3 0x329 JUMPI POP POP PUSH3 0x165 JUMP JUMPDEST PUSH0 DUP2 SSTORE ADD DUP6 SWAP1 PUSH3 0x319 JUMP JUMPDEST SWAP3 POP DUP2 SWAP3 PUSH3 0x310 JUMP JUMPDEST PUSH4 0x4E487B71 PUSH1 0xE0 SHL PUSH0 MSTORE PUSH1 0x22 PUSH1 0x4 MSTORE PUSH1 0x24 PUSH0 REVERT JUMPDEST SWAP1 PUSH1 0x7F AND SWAP1 PUSH3 0x153 JUMP JUMPDEST PUSH4 0x4E487B71 PUSH1 0xE0 SHL PUSH0 MSTORE PUSH1 0x41 PUSH1 0x4 MSTORE PUSH1 0x24 PUSH0 REVERT JUMPDEST ADD MLOAD SWAP1 POP PUSH0 DUP1 PUSH3 0x122 JUMP JUMPDEST SWAP1 DUP9 DUP8 SWAP5 AND SWAP2 PUSH1 0x2 PUSH0 MSTORE DUP11 PUSH0 KECCAK256 SWAP3 PUSH0 JUMPDEST DUP13 DUP3 DUP3 LT PUSH3 0x3C9 JUMPI POP POP DUP5 GT PUSH3 0x3B0 JUMPI JUMPDEST POP POP POP DUP2 SHL ADD PUSH1 0x2 SSTORE PUSH3 0x136 JUMP JUMPDEST ADD MLOAD PUSH0 NOT PUSH1 0xF8 DUP5 PUSH1 0x3 SHL AND SHR NOT AND SWAP1 SSTORE PUSH0 DUP1 DUP1 PUSH3 0x3A1 JUMP JUMPDEST DUP4 DUP6 ADD MLOAD DUP7 SSTORE DUP11 SWAP8 SWAP1 SWAP6 ADD SWAP5 SWAP4 DUP5 ADD SWAP4 ADD PUSH3 0x38E JUMP JUMPDEST SWAP1 SWAP2 POP PUSH1 0x2 PUSH0 MSTORE DUP9 PUSH0 KECCAK256 DUP6 DUP1 DUP6 ADD PUSH1 0x5 SHR DUP3 ADD SWAP3 DUP12 DUP7 LT PUSH3 0x42A JUMPI JUMPDEST SWAP2 DUP9 SWAP2 DUP7 SWAP6 SWAP5 SWAP4 ADD PUSH1 0x5 SHR ADD SWAP2 JUMPDEST DUP3 DUP2 LT PUSH3 0x41B JUMPI POP POP PUSH3 0x10C JUMP JUMPDEST PUSH0 DUP2 SSTORE DUP6 SWAP5 POP DUP9 SWAP2 ADD PUSH3 0x40B JUMP JUMPDEST SWAP3 POP DUP2 SWAP3 PUSH3 0x3FD JUMP JUMPDEST SWAP2 PUSH1 0x7F AND SWAP2 PUSH3 0xF8 JUMP JUMPDEST PUSH0 DUP1 REVERT JUMPDEST PUSH1 0x40 DUP1 MLOAD SWAP2 SWAP1 DUP3 ADD PUSH1 0x1 PUSH1 0x1 PUSH1 0x40 SHL SUB DUP2 GT DUP4 DUP3 LT OR PUSH3 0x35E JUMPI PUSH1 0x40 MSTORE JUMP INVALID PUSH1 0x80 DUP1 PUSH1 0x40 MSTORE PUSH1 0x4 CALLDATASIZE LT ISZERO PUSH2 0x1C JUMPI JUMPDEST POP CALLDATASIZE ISZERO PUSH2 0x1A JUMPI PUSH0 DUP1 REVERT JUMPDEST STOP JUMPDEST PUSH0 SWAP1 PUSH0 CALLDATALOAD PUSH1 0xE0 SHR SWAP1 DUP2 PUSH4 0x1FFC9A7 EQ PUSH2 0x3040 JUMPI POP DUP1 PUSH4 0x2EE3A52 EQ PUSH2 0x2E6C JUMPI DUP1 PUSH4 0x6FDDE03 EQ PUSH2 0x2D95 JUMPI DUP1 PUSH4 0x81812FC EQ PUSH2 0x2D77 JUMPI DUP1 PUSH4 0x95EA7B3 EQ PUSH2 0x2C03 JUMPI DUP1 PUSH4 0x11CE0267 EQ PUSH2 0x2BBF JUMPI DUP1 PUSH4 0x2156A96C EQ PUSH2 0x2B59 JUMPI DUP1 PUSH4 0x23B872DD EQ PUSH2 0x2B30 JUMPI DUP1 PUSH4 0x42842E0E EQ PUSH2 0x2B09 JUMPI DUP1 PUSH4 0x4293E5CE EQ PUSH2 0x2A5D JUMPI DUP1 PUSH4 0x4E213D20 EQ PUSH2 0x2824 JUMPI DUP1 PUSH4 0x570AEA8A EQ PUSH2 0x2788 JUMPI DUP1 PUSH4 0x5AD6A580 EQ PUSH2 0x2070 JUMPI DUP1 PUSH4 0x5BE20959 EQ PUSH2 0x26B7 JUMPI DUP1 PUSH4 0x6352211E EQ PUSH2 0x2686 JUMPI DUP1 PUSH4 0x66224D8E EQ PUSH2 0x2529 JUMPI DUP1 PUSH4 0x6F68EF3A EQ PUSH2 0x2497 JUMPI DUP1 PUSH4 0x6F77926B EQ PUSH2 0x2336 JUMPI DUP1 PUSH4 0x70A08231 EQ PUSH2 0x22A0 JUMPI DUP1 PUSH4 0x715018A6 EQ PUSH2 0x225A JUMPI DUP1 PUSH4 0x8DA5CB5B EQ PUSH2 0x2233 JUMPI DUP1 PUSH4 0x95D89B41 EQ PUSH2 0x2156 JUMPI DUP1 PUSH4 0x97B6F393 EQ PUSH2 0x2075 JUMPI DUP1 PUSH4 0x9B269B8F EQ PUSH2 0x2070 JUMPI DUP1 PUSH4 0xA22CB465 EQ PUSH2 0x1FA4 JUMPI DUP1 PUSH4 0xA323D29E EQ PUSH2 0x1ED6 JUMPI DUP1 PUSH4 0xB88D4FDE EQ PUSH2 0x1E73 JUMPI DUP1 PUSH4 0xB9DB15B4 EQ PUSH2 0x1D57 JUMPI DUP1 PUSH4 0xBDBE6F4F EQ PUSH2 0x1A5B JUMPI DUP1 PUSH4 0xC87B56DD EQ PUSH2 0x1853 JUMPI DUP1 PUSH4 0xCECA737F EQ PUSH2 0x1734 JUMPI DUP1 PUSH4 0xD72E481D EQ PUSH2 0x1676 JUMPI DUP1 PUSH4 0xDADD0A57 EQ PUSH2 0x1494 JUMPI DUP1 PUSH4 0xDC298682 EQ PUSH2 0x12E5 JUMPI DUP1 PUSH4 0xE6A93E16 EQ PUSH2 0x11D3 JUMPI DUP1 PUSH4 0xE6B3A14C EQ PUSH2 0xE47 JUMPI DUP1 PUSH4 0xE985E9C5 EQ PUSH2 0xDF5 JUMPI DUP1 PUSH4 0xEB11C434 EQ PUSH2 0xD4B JUMPI DUP1 PUSH4 0xEC4CF85B EQ PUSH2 0x8E0 JUMPI DUP1 PUSH4 0xED90C7B7 EQ PUSH2 0x720 JUMPI DUP1 PUSH4 0xF2FDE38B EQ PUSH2 0x673 JUMPI DUP1 PUSH4 0xF3052D26 EQ PUSH2 0x57C JUMPI DUP1 PUSH4 0xFDCA4CA3 EQ PUSH2 0x43F JUMPI PUSH4 0xFE69C296 SUB PUSH2 0xF JUMPI CALLVALUE PUSH2 0x43C JUMPI PUSH1 0x80 CALLDATASIZE PUSH1 0x3 NOT ADD SLT PUSH2 0x43C JUMPI PUSH2 0x221 PUSH2 0x31E8 JUMP JUMPDEST PUSH1 0x1 PUSH1 0x1 PUSH1 0x40 SHL SUB SWAP1 PUSH1 0x24 CALLDATALOAD DUP3 DUP2 GT PUSH2 0x3A2 JUMPI PUSH2 0x242 SWAP1 CALLDATASIZE SWAP1 PUSH1 0x4 ADD PUSH2 0x34D0 JUMP JUMPDEST PUSH1 0x44 CALLDATALOAD DUP4 DUP2 GT PUSH2 0x438 JUMPI PUSH2 0x25A SWAP1 CALLDATASIZE SWAP1 PUSH1 0x4 ADD PUSH2 0x34D0 JUMP JUMPDEST SWAP3 PUSH1 0x64 CALLDATALOAD SWAP1 DUP2 GT PUSH2 0x438 JUMPI PUSH2 0x273 SWAP1 CALLDATASIZE SWAP1 PUSH1 0x4 ADD PUSH2 0x34D0 JUMP JUMPDEST PUSH1 0x40 MLOAD PUSH4 0xE50CEE5 PUSH1 0xE0 SHL DUP2 MSTORE PUSH1 0x1 PUSH1 0x1 PUSH1 0xA0 SHL SUB SWAP4 DUP5 AND PUSH1 0x4 DUP3 ADD DUP2 SWAP1 MSTORE SWAP5 PUSH1 0x20 SWAP5 SWAP1 SWAP3 PUSH32 0x0 SWAP1 SWAP2 AND SWAP2 DUP6 DUP2 PUSH1 0x24 DUP2 DUP7 GAS STATICCALL SWAP1 DUP2 ISZERO PUSH2 0x42D JUMPI DUP9 SWAP2 PUSH2 0x3F4 JUMPI JUMPDEST POP PUSH2 0x3B5 JUMPI SWAP1 DUP7 SWAP3 SWAP2 PUSH2 0x2E8 DUP6 MLOAD ISZERO ISZERO PUSH2 0x3BAC JUMP JUMPDEST PUSH1 0x40 MLOAD SWAP3 PUSH2 0x2F5 DUP5 PUSH2 0x33EF JUMP JUMPDEST DUP6 DUP5 MSTORE DUP7 DUP5 ADD MSTORE PUSH1 0x40 DUP4 ADD MSTORE PUSH1 0x1 PUSH1 0x60 DUP4 ADD MSTORE DUP1 EXTCODESIZE ISZERO PUSH2 0x3B1 JUMPI PUSH2 0x341 DUP4 SWAP3 SWAP2 DUP4 SWAP3 PUSH1 0x40 MLOAD SWAP5 DUP6 DUP1 SWAP5 DUP2 SWAP4 PUSH4 0x59DD665F PUSH1 0xE0 SHL DUP4 MSTORE DUP13 PUSH1 0x4 DUP5 ADD MSTORE PUSH1 0x40 PUSH1 0x24 DUP5 ADD MSTORE PUSH1 0x44 DUP4 ADD SWAP1 PUSH2 0x34EE JUMP JUMPDEST SUB SWAP3 GAS CALL DUP1 ISZERO PUSH2 0x3A6 JUMPI PUSH2 0x38E JUMPI JUMPDEST POP POP PUSH32 0x48CAC28AD4DC618E15F4C2DD5E97751182F166DE97B25618318B2112AA951A2F SWAP2 PUSH2 0x388 PUSH1 0x40 MLOAD SWAP3 DUP3 DUP5 SWAP4 DUP5 MSTORE DUP4 ADD SWAP1 PUSH2 0x30CC JUMP JUMPDEST SUB SWAP1 LOG2 DUP1 RETURN JUMPDEST PUSH2 0x397 SWAP1 PUSH2 0x33C1 JUMP JUMPDEST PUSH2 0x3A2 JUMPI DUP4 PUSH0 PUSH2 0x350 JUMP JUMPDEST DUP4 DUP1 REVERT JUMPDEST PUSH1 0x40 MLOAD RETURNDATASIZE DUP5 DUP3 RETURNDATACOPY RETURNDATASIZE SWAP1 REVERT JUMPDEST DUP3 DUP1 REVERT JUMPDEST PUSH1 0x40 MLOAD PUSH3 0x461BCD PUSH1 0xE5 SHL DUP2 MSTORE PUSH1 0x4 DUP2 ADD DUP7 SWAP1 MSTORE PUSH1 0x17 PUSH1 0x24 DUP3 ADD MSTORE PUSH23 0x155CD95C88185B1C9958591E481C9959DA5CDD195C9959 PUSH1 0x4A SHL PUSH1 0x44 DUP3 ADD MSTORE PUSH1 0x64 SWAP1 REVERT JUMPDEST SWAP1 POP DUP6 DUP2 DUP2 RETURNDATASIZE DUP4 GT PUSH2 0x426 JUMPI JUMPDEST PUSH2 0x40B DUP2 DUP4 PUSH2 0x345C JUMP JUMPDEST DUP2 ADD SUB SLT PUSH2 0x422 JUMPI PUSH2 0x41C SWAP1 PUSH2 0x3650 JUMP JUMPDEST PUSH0 PUSH2 0x2D3 JUMP JUMPDEST DUP8 DUP1 REVERT JUMPDEST POP RETURNDATASIZE PUSH2 0x401 JUMP JUMPDEST PUSH1 0x40 MLOAD RETURNDATASIZE DUP11 DUP3 RETURNDATACOPY RETURNDATASIZE SWAP1 REVERT JUMPDEST DUP5 DUP1 REVERT JUMPDEST DUP1 REVERT JUMPDEST POP CALLVALUE PUSH2 0x43C JUMPI DUP1 PUSH1 0x3 NOT CALLDATASIZE ADD SLT PUSH2 0x43C JUMPI PUSH1 0x40 MLOAD PUSH4 0x73549F0B PUSH1 0xE1 SHL DUP2 MSTORE CALLER PUSH1 0x4 DUP3 ADD MSTORE PUSH1 0x24 PUSH32 0x0 PUSH1 0x1 PUSH1 0x1 PUSH1 0xA0 SHL SUB AND DUP4 DUP4 DUP4 DUP2 DUP5 GAS STATICCALL SWAP3 DUP4 ISZERO PUSH2 0x571 JUMPI DUP5 SWAP4 PUSH2 0x54D JUMPI JUMPDEST POP PUSH2 0x4AF DUP4 MLOAD PUSH2 0x35DF JUMP JUMPDEST SWAP2 DUP5 JUMPDEST DUP5 MLOAD DUP2 LT ISZERO PUSH2 0x53B JUMPI PUSH2 0x4C5 DUP2 DUP7 PUSH2 0x3792 JUMP JUMPDEST MLOAD SWAP1 PUSH1 0x40 MLOAD SWAP2 PUSH4 0x2E76C56D PUSH1 0xE2 SHL DUP4 MSTORE PUSH1 0x4 DUP4 ADD MSTORE DUP7 DUP3 DUP5 DUP2 DUP8 GAS STATICCALL DUP1 ISZERO PUSH2 0x530 JUMPI PUSH1 0x1 SWAP3 DUP9 SWAP2 PUSH2 0x50E JUMPI JUMPDEST POP PUSH2 0x4FC DUP3 DUP8 PUSH2 0x3792 JUMP JUMPDEST MSTORE PUSH2 0x507 DUP2 DUP7 PUSH2 0x3792 JUMP JUMPDEST POP ADD PUSH2 0x4B2 JUMP JUMPDEST PUSH2 0x52A SWAP2 POP RETURNDATASIZE DUP1 DUP11 DUP4 RETURNDATACOPY PUSH2 0x522 DUP2 DUP4 PUSH2 0x345C JUMP JUMPDEST DUP2 ADD SWAP1 PUSH2 0x36B3 JUMP JUMPDEST PUSH0 PUSH2 0x4F1 JUMP JUMPDEST PUSH1 0x40 MLOAD RETURNDATASIZE DUP10 DUP3 RETURNDATACOPY RETURNDATASIZE SWAP1 REVERT JUMPDEST PUSH1 0x40 MLOAD DUP1 PUSH2 0x549 DUP7 DUP3 PUSH2 0x3185 JUMP JUMPDEST SUB SWAP1 RETURN JUMPDEST PUSH2 0x56A SWAP2 SWAP4 POP RETURNDATASIZE DUP1 DUP7 DUP4 RETURNDATACOPY PUSH2 0x562 DUP2 DUP4 PUSH2 0x345C JUMP JUMPDEST DUP2 ADD SWAP1 PUSH2 0x3D06 JUMP JUMPDEST SWAP2 PUSH0 PUSH2 0x4A4 JUMP JUMPDEST PUSH1 0x40 MLOAD RETURNDATASIZE DUP7 DUP3 RETURNDATACOPY RETURNDATASIZE SWAP1 REVERT JUMPDEST POP CALLVALUE PUSH2 0x43C JUMPI PUSH1 0x20 SWAP1 DUP2 PUSH1 0x3 NOT CALLDATASIZE ADD SLT PUSH2 0x43C JUMPI PUSH1 0x40 MLOAD PUSH4 0x79829693 PUSH1 0xE1 SHL DUP2 MSTORE PUSH1 0x4 DUP1 CALLDATALOAD SWAP1 DUP3 ADD MSTORE DUP2 DUP2 PUSH1 0x24 DUP2 PUSH32 0x0 PUSH1 0x1 PUSH1 0x1 PUSH1 0xA0 SHL SUB AND GAS STATICCALL SWAP1 DUP2 ISZERO PUSH2 0x3A6 JUMPI DUP3 SWAP2 PUSH2 0x651 JUMPI JUMPDEST POP SWAP2 DUP3 MLOAD SWAP2 PUSH1 0x40 DUP3 DUP6 ADD MLOAD SWAP5 ADD MLOAD ISZERO ISZERO PUSH2 0x60F PUSH1 0x40 MLOAD SWAP6 DUP7 SWAP6 DUP7 MSTORE PUSH1 0x80 DUP6 DUP8 ADD MSTORE PUSH1 0x80 DUP7 ADD SWAP1 PUSH2 0x30CC JUMP JUMPDEST SWAP1 PUSH1 0x40 DUP6 ADD MSTORE DUP4 DUP2 SUB PUSH1 0x60 DUP6 ADD MSTORE DUP3 PUSH1 0x60 MLOAD SWAP2 DUP3 DUP2 MSTORE ADD SWAP3 PUSH1 0x80 SWAP3 JUMPDEST DUP3 DUP2 LT PUSH2 0x63A JUMPI POP POP POP POP SUB SWAP1 RETURN JUMPDEST DUP4 MLOAD DUP6 MSTORE DUP7 SWAP6 POP SWAP4 DUP2 ADD SWAP4 SWAP3 DUP2 ADD SWAP3 PUSH1 0x1 ADD PUSH2 0x62B JUMP JUMPDEST PUSH2 0x66D SWAP2 POP RETURNDATASIZE DUP1 DUP5 DUP4 RETURNDATACOPY PUSH2 0x665 DUP2 DUP4 PUSH2 0x345C JUMP JUMPDEST DUP2 ADD SWAP1 PUSH2 0x3A70 JUMP JUMPDEST PUSH0 PUSH2 0x5E4 JUMP JUMPDEST POP CALLVALUE PUSH2 0x43C JUMPI PUSH1 0x20 CALLDATASIZE PUSH1 0x3 NOT ADD SLT PUSH2 0x43C JUMPI PUSH2 0x68D PUSH2 0x31E8 JUMP JUMPDEST PUSH2 0x695 PUSH2 0x3FB0 JUMP JUMPDEST PUSH1 0x1 PUSH1 0x1 PUSH1 0xA0 SHL SUB SWAP1 DUP2 AND SWAP1 DUP2 ISZERO PUSH2 0x6CC JUMPI PUSH0 SLOAD DUP3 PUSH1 0x1 DUP1 PUSH1 0xA0 SHL SUB NOT DUP3 AND OR PUSH0 SSTORE AND PUSH0 DUP1 MLOAD PUSH1 0x20 PUSH2 0x4149 DUP4 CODECOPY DUP2 MLOAD SWAP2 MSTORE PUSH0 DUP1 LOG3 DUP1 RETURN JUMPDEST PUSH1 0x40 MLOAD PUSH3 0x461BCD PUSH1 0xE5 SHL DUP2 MSTORE PUSH1 0x20 PUSH1 0x4 DUP3 ADD MSTORE PUSH1 0x26 PUSH1 0x24 DUP3 ADD MSTORE PUSH32 0x4F776E61626C653A206E6577206F776E657220697320746865207A65726F2061 PUSH1 0x44 DUP3 ADD MSTORE PUSH6 0x646472657373 PUSH1 0xD0 SHL PUSH1 0x64 DUP3 ADD MSTORE PUSH1 0x84 SWAP1 REVERT JUMPDEST POP CALLVALUE PUSH2 0x43C JUMPI PUSH1 0x20 DUP1 PUSH1 0x3 NOT CALLDATASIZE ADD SLT PUSH2 0x86A JUMPI PUSH1 0x40 MLOAD PUSH4 0x2BD57B59 PUSH1 0xE2 SHL DUP2 MSTORE PUSH1 0x4 DUP1 CALLDATALOAD SWAP1 DUP3 ADD DUP2 SWAP1 MSTORE SWAP2 DUP4 SWAP2 PUSH1 0x1 PUSH1 0x1 PUSH1 0xA0 SHL SUB PUSH32 0x0 DUP2 AND SWAP2 DUP4 DUP2 PUSH1 0x24 DUP2 DUP7 GAS STATICCALL DUP1 ISZERO PUSH2 0x89F JUMPI DUP6 SWAP1 PUSH2 0x8AA JUMPI JUMPDEST PUSH2 0x798 SWAP2 POP PUSH2 0x3B67 JUMP JUMPDEST PUSH1 0x40 MLOAD PUSH4 0x2E76C56D PUSH1 0xE2 SHL DUP2 MSTORE PUSH1 0x4 DUP2 ADD DUP7 SWAP1 MSTORE SWAP3 DUP5 DUP5 PUSH1 0x24 DUP2 DUP7 GAS STATICCALL SWAP4 DUP5 ISZERO PUSH2 0x89F JUMPI DUP6 SWAP5 PUSH2 0x87B JUMPI JUMPDEST POP SWAP1 DUP1 PUSH2 0x7DE SWAP3 DUP6 ADD MLOAD AND CALLER EQ SWAP1 DUP2 ISZERO PUSH2 0x86E JUMPI JUMPDEST POP PUSH2 0x3D7F JUMP JUMPDEST PUSH1 0x1 PUSH2 0x120 DUP4 ADD MSTORE DUP1 EXTCODESIZE ISZERO PUSH2 0x3B1 JUMPI PUSH2 0x81F DUP4 SWAP3 SWAP2 DUP4 SWAP3 PUSH1 0x40 MLOAD SWAP5 DUP6 DUP1 SWAP5 DUP2 SWAP4 PUSH4 0x6AD0CB9 PUSH1 0xE0 SHL DUP4 MSTORE DUP11 PUSH1 0x4 DUP5 ADD MSTORE PUSH1 0x40 PUSH1 0x24 DUP5 ADD MSTORE PUSH1 0x44 DUP4 ADD SWAP1 PUSH2 0x30F1 JUMP JUMPDEST SUB SWAP3 GAS CALL DUP1 ISZERO PUSH2 0x3A6 JUMPI PUSH2 0x856 JUMPI JUMPDEST POP DUP1 PUSH32 0xC341CF326465FE622F86C468249E8C0CB03ED23BA376A6A34863A1374AC7D769 SWAP2 LOG2 DUP1 RETURN JUMPDEST PUSH2 0x85F SWAP1 PUSH2 0x33C1 JUMP JUMPDEST PUSH2 0x86A JUMPI DUP2 PUSH0 PUSH2 0x82E JUMP JUMPDEST POP DUP1 REVERT JUMPDEST SWAP1 POP DUP5 SLOAD AND CALLER EQ PUSH0 PUSH2 0x7D8 JUMP JUMPDEST DUP3 SWAP2 SWAP5 POP SWAP2 PUSH2 0x896 PUSH2 0x7DE SWAP4 RETURNDATASIZE DUP1 DUP10 DUP4 RETURNDATACOPY PUSH2 0x522 DUP2 DUP4 PUSH2 0x345C JUMP JUMPDEST SWAP5 SWAP2 SWAP3 POP PUSH2 0x7C3 JUMP JUMPDEST PUSH1 0x40 MLOAD RETURNDATASIZE DUP8 DUP3 RETURNDATACOPY RETURNDATASIZE SWAP1 REVERT JUMPDEST POP DUP4 DUP2 DUP2 RETURNDATASIZE DUP4 GT PUSH2 0x8D9 JUMPI JUMPDEST PUSH2 0x8C0 DUP2 DUP4 PUSH2 0x345C JUMP JUMPDEST DUP2 ADD SUB SLT PUSH2 0x438 JUMPI PUSH2 0x8D4 PUSH2 0x798 SWAP2 PUSH2 0x3650 JUMP JUMPDEST PUSH2 0x78E JUMP JUMPDEST POP RETURNDATASIZE PUSH2 0x8B6 JUMP JUMPDEST POP CALLVALUE PUSH2 0x43C JUMPI PUSH1 0xE0 CALLDATASIZE PUSH1 0x3 NOT ADD SLT PUSH2 0x43C JUMPI PUSH1 0x1 PUSH1 0x1 PUSH1 0x40 SHL SUB SWAP1 PUSH1 0x24 DUP1 CALLDATALOAD DUP4 DUP2 GT PUSH2 0x3B1 JUMPI PUSH2 0x914 SWAP1 CALLDATASIZE SWAP1 PUSH1 0x4 ADD PUSH2 0x34D0 JUMP JUMPDEST SWAP3 PUSH1 0x44 CALLDATALOAD DUP2 DUP2 GT PUSH2 0x3A2 JUMPI PUSH2 0x92D SWAP1 CALLDATASIZE SWAP1 PUSH1 0x4 ADD PUSH2 0x34D0 JUMP JUMPDEST SWAP1 PUSH1 0x64 CALLDATALOAD SWAP1 DUP2 GT PUSH2 0x3A2 JUMPI PUSH2 0x946 SWAP1 CALLDATASIZE SWAP1 PUSH1 0x4 ADD PUSH2 0x34D0 JUMP JUMPDEST PUSH1 0x40 MLOAD PUSH4 0x2BD57B59 PUSH1 0xE2 SHL DUP2 MSTORE PUSH1 0x4 DUP1 CALLDATALOAD SWAP1 DUP3 ADD MSTORE SWAP1 SWAP5 SWAP1 PUSH1 0x20 DUP2 DUP6 DUP2 PUSH32 0x0 PUSH1 0x1 PUSH1 0x1 PUSH1 0xA0 SHL SUB AND GAS STATICCALL DUP1 ISZERO PUSH2 0x89F JUMPI DUP6 SWAP1 PUSH2 0xD10 JUMPI JUMPDEST PUSH2 0x9A6 SWAP2 POP PUSH2 0x3B67 JUMP JUMPDEST PUSH1 0x40 MLOAD PUSH4 0x2E76C56D PUSH1 0xE2 SHL DUP2 MSTORE PUSH1 0x4 DUP1 CALLDATALOAD SWAP1 DUP3 ADD MSTORE DUP5 DUP2 DUP6 DUP2 PUSH32 0x0 PUSH1 0x1 PUSH1 0x1 PUSH1 0xA0 SHL SUB AND GAS STATICCALL SWAP1 DUP2 ISZERO PUSH2 0x89F JUMPI DUP6 SWAP2 PUSH2 0xCF6 JUMPI JUMPDEST POP PUSH1 0x20 DUP2 ADD MLOAD PUSH1 0x1 PUSH1 0x1 PUSH1 0xA0 SHL SUB AND CALLER EQ DUP1 ISZERO PUSH2 0xCE3 JUMPI JUMPDEST PUSH2 0xA1A SWAP1 PUSH2 0x3D7F JUMP JUMPDEST PUSH2 0x120 DUP2 ADD MLOAD PUSH2 0xCAD JUMPI DUP5 SWAP6 PUSH2 0xA32 DUP4 MLOAD ISZERO ISZERO PUSH2 0x3BAC JUMP JUMPDEST PUSH2 0xA3F PUSH1 0xA4 CALLDATALOAD ISZERO ISZERO PUSH2 0x3BE8 JUMP JUMPDEST PUSH1 0x40 MLOAD PUSH4 0x79829693 PUSH1 0xE1 SHL DUP2 MSTORE PUSH1 0x84 CALLDATALOAD PUSH1 0x4 DUP3 ADD MSTORE DUP7 DUP2 DUP8 DUP2 PUSH32 0x0 PUSH1 0x1 PUSH1 0x1 PUSH1 0xA0 SHL SUB AND GAS STATICCALL SWAP1 DUP2 ISZERO PUSH2 0x530 JUMPI PUSH2 0xAA3 SWAP2 PUSH1 0x40 SWAP2 DUP10 SWAP2 PUSH2 0xC93 JUMPI JUMPDEST POP ADD MLOAD ISZERO ISZERO PUSH2 0x3C34 JUMP JUMPDEST PUSH1 0x20 DUP3 ADD MLOAD PUSH2 0x100 SWAP3 DUP4 ADD MLOAD PUSH1 0x40 MLOAD SWAP6 SWAP1 SWAP5 SWAP1 SWAP2 PUSH1 0x1 PUSH1 0x1 PUSH1 0xA0 SHL SUB AND PUSH2 0xAC9 DUP8 PUSH2 0x340A JUMP JUMPDEST PUSH1 0x4 CALLDATALOAD DUP8 MSTORE PUSH1 0x20 DUP8 ADD MSTORE PUSH1 0x40 DUP7 ADD MSTORE PUSH1 0x60 DUP6 ADD MSTORE PUSH1 0x80 DUP5 ADD MSTORE PUSH1 0x84 CALLDATALOAD PUSH1 0xA0 DUP5 ADD MSTORE PUSH1 0xA4 CALLDATALOAD PUSH1 0xC0 DUP5 ADD MSTORE PUSH1 0xC4 CALLDATALOAD PUSH1 0xE0 DUP5 ADD MSTORE DUP3 ADD MSTORE PUSH2 0x120 DUP2 ADD DUP4 SWAP1 MSTORE PUSH32 0x0 PUSH1 0x1 PUSH1 0x1 PUSH1 0xA0 SHL SUB AND EXTCODESIZE ISZERO PUSH2 0xC8F JUMPI DUP3 PUSH2 0xB63 SWAP2 PUSH1 0x40 MLOAD DUP1 SWAP4 DUP2 SWAP3 PUSH4 0x6AD0CB9 PUSH1 0xE0 SHL DUP4 MSTORE PUSH1 0x4 CALLDATALOAD PUSH1 0x4 DUP5 ADD MSTORE PUSH1 0x40 DUP8 DUP5 ADD MSTORE PUSH1 0x44 DUP4 ADD SWAP1 PUSH2 0x30F1 JUMP JUMPDEST SUB DUP2 DUP4 PUSH32 0x0 PUSH1 0x1 PUSH1 0x1 PUSH1 0xA0 SHL SUB AND GAS CALL SWAP1 DUP2 ISZERO PUSH2 0xC84 JUMPI DUP4 SWAP2 PUSH2 0xC70 JUMPI JUMPDEST POP POP PUSH32 0x0 PUSH1 0x1 PUSH1 0x1 PUSH1 0xA0 SHL SUB AND EXTCODESIZE ISZERO PUSH2 0xC6D JUMPI PUSH1 0x40 MLOAD PUSH4 0x184C5E53 PUSH1 0xE3 SHL DUP2 MSTORE PUSH1 0x4 DUP1 CALLDATALOAD SWAP1 DUP3 ADD MSTORE PUSH1 0x84 CALLDATALOAD SWAP2 DUP2 ADD SWAP2 SWAP1 SWAP2 MSTORE DUP2 DUP2 PUSH1 0x44 DUP2 DUP4 PUSH32 0x0 PUSH1 0x1 PUSH1 0x1 PUSH1 0xA0 SHL SUB AND GAS CALL DUP1 ISZERO PUSH2 0x3A6 JUMPI PUSH2 0xC59 JUMPI JUMPDEST POP PUSH1 0x4 CALLDATALOAD PUSH32 0xECA6714FCF568FB34CF9DB4A414CB0CC48E93C5D4E1BA0582A46EA3704CF24D5 DUP3 DUP1 LOG2 DUP1 RETURN JUMPDEST PUSH2 0xC62 SWAP1 PUSH2 0x33C1 JUMP JUMPDEST PUSH2 0x43C JUMPI DUP1 PUSH0 PUSH2 0xC2E JUMP JUMPDEST POP REVERT JUMPDEST PUSH2 0xC79 SWAP1 PUSH2 0x33C1 JUMP JUMPDEST PUSH2 0xC6D JUMPI DUP2 PUSH0 PUSH2 0xBA0 JUMP JUMPDEST PUSH1 0x40 MLOAD RETURNDATASIZE DUP6 DUP3 RETURNDATACOPY RETURNDATASIZE SWAP1 REVERT JUMPDEST POP POP REVERT JUMPDEST PUSH2 0xCA7 SWAP2 POP RETURNDATASIZE DUP1 DUP12 DUP4 RETURNDATACOPY PUSH2 0x665 DUP2 DUP4 PUSH2 0x345C JUMP JUMPDEST PUSH0 PUSH2 0xA99 JUMP JUMPDEST PUSH1 0x40 MLOAD PUSH3 0x461BCD PUSH1 0xE5 SHL DUP2 MSTORE PUSH1 0x20 PUSH1 0x4 DUP3 ADD MSTORE PUSH1 0xF DUP2 DUP7 ADD MSTORE PUSH15 0x141C9BD91D58DD0819195B195D1959 PUSH1 0x8A SHL PUSH1 0x44 DUP3 ADD MSTORE PUSH1 0x64 SWAP1 REVERT JUMPDEST POP DUP5 SLOAD PUSH1 0x1 PUSH1 0x1 PUSH1 0xA0 SHL SUB AND CALLER EQ PUSH2 0xA11 JUMP JUMPDEST PUSH2 0xD0A SWAP2 POP RETURNDATASIZE DUP1 DUP8 DUP4 RETURNDATACOPY PUSH2 0x522 DUP2 DUP4 PUSH2 0x345C JUMP JUMPDEST PUSH0 PUSH2 0x9F9 JUMP JUMPDEST POP PUSH1 0x20 DUP2 RETURNDATASIZE PUSH1 0x20 GT PUSH2 0xD43 JUMPI JUMPDEST DUP2 PUSH2 0xD2A PUSH1 0x20 SWAP4 DUP4 PUSH2 0x345C JUMP JUMPDEST DUP2 ADD SUB SLT PUSH2 0x438 JUMPI PUSH2 0xD3E PUSH2 0x9A6 SWAP2 PUSH2 0x3650 JUMP JUMPDEST PUSH2 0x99C JUMP JUMPDEST RETURNDATASIZE SWAP2 POP PUSH2 0xD1D JUMP JUMPDEST POP CALLVALUE PUSH2 0x43C JUMPI PUSH1 0x20 CALLDATASIZE PUSH1 0x3 NOT ADD SLT PUSH2 0x43C JUMPI PUSH1 0x24 DUP2 PUSH2 0xD68 PUSH2 0x31E8 JUMP JUMPDEST PUSH1 0x40 MLOAD PUSH4 0x5191E94F PUSH1 0xE1 SHL DUP2 MSTORE PUSH1 0x1 PUSH1 0x1 PUSH1 0xA0 SHL SUB SWAP2 DUP3 AND PUSH1 0x4 DUP3 ADD MSTORE SWAP3 DUP4 SWAP2 DUP3 SWAP1 PUSH32 0x0 AND GAS STATICCALL SWAP1 DUP2 ISZERO PUSH2 0x3A6 JUMPI DUP3 PUSH1 0x20 SWAP4 SWAP3 PUSH2 0xDD0 JUMPI JUMPDEST POP POP PUSH2 0xDCE PUSH1 0x40 MLOAD DUP1 SWAP3 PUSH2 0x353A JUMP JUMPDEST RETURN JUMPDEST PUSH2 0xDEC SWAP3 POP RETURNDATASIZE DUP1 SWAP2 DUP4 RETURNDATACOPY PUSH2 0xDE4 DUP2 DUP4 PUSH2 0x345C JUMP JUMPDEST DUP2 ADD SWAP1 PUSH2 0x3875 JUMP JUMPDEST SWAP1 POP PUSH0 DUP1 PUSH2 0xDBF JUMP JUMPDEST POP CALLVALUE PUSH2 0x43C JUMPI PUSH1 0x40 CALLDATASIZE PUSH1 0x3 NOT ADD SLT PUSH2 0x43C JUMPI PUSH2 0xE0F PUSH2 0x31E8 JUMP JUMPDEST PUSH1 0x40 PUSH2 0xE19 PUSH2 0x31FE JUMP JUMPDEST SWAP3 PUSH1 0x1 DUP1 PUSH1 0xA0 SHL SUB DUP1 SWAP4 AND DUP2 MSTORE PUSH1 0x7 PUSH1 0x20 MSTORE KECCAK256 SWAP2 AND PUSH0 MSTORE PUSH1 0x20 MSTORE PUSH1 0x20 PUSH1 0xFF PUSH1 0x40 PUSH0 KECCAK256 SLOAD AND PUSH1 0x40 MLOAD SWAP1 ISZERO ISZERO DUP2 MSTORE RETURN JUMPDEST POP CALLVALUE PUSH2 0x43C JUMPI PUSH1 0xC0 CALLDATASIZE PUSH1 0x3 NOT ADD SLT PUSH2 0x43C JUMPI PUSH2 0xE61 PUSH2 0x31E8 JUMP JUMPDEST PUSH1 0x24 SWAP2 SWAP1 PUSH1 0x1 PUSH1 0x1 PUSH1 0x40 SHL SUB SWAP1 DUP4 CALLDATALOAD DUP3 DUP2 GT PUSH2 0x3A2 JUMPI PUSH2 0xE85 SWAP1 CALLDATASIZE SWAP1 PUSH1 0x4 ADD PUSH2 0x34D0 JUMP JUMPDEST PUSH1 0x44 CALLDATALOAD DUP4 DUP2 GT PUSH2 0x438 JUMPI PUSH2 0xE9D SWAP1 CALLDATASIZE SWAP1 PUSH1 0x4 ADD PUSH2 0x34D0 JUMP JUMPDEST PUSH1 0x64 CALLDATALOAD DUP5 DUP2 GT PUSH2 0x11CF JUMPI PUSH2 0xEB5 SWAP1 CALLDATASIZE SWAP1 PUSH1 0x4 ADD PUSH2 0x34D0 JUMP JUMPDEST SWAP6 PUSH1 0x84 CALLDATALOAD DUP6 DUP2 GT PUSH2 0x11CB JUMPI PUSH2 0xECE SWAP1 CALLDATASIZE SWAP1 PUSH1 0x4 ADD PUSH2 0x34D0 JUMP JUMPDEST SWAP5 PUSH1 0xA4 CALLDATALOAD SWAP1 DUP2 GT PUSH2 0x11CB JUMPI PUSH2 0xEE7 SWAP1 CALLDATASIZE SWAP1 PUSH1 0x4 ADD PUSH2 0x34D0 JUMP JUMPDEST PUSH1 0x40 MLOAD PUSH4 0xE50CEE5 PUSH1 0xE0 SHL DUP2 MSTORE PUSH1 0x1 PUSH1 0x1 PUSH1 0xA0 SHL SUB DUP7 DUP2 AND PUSH1 0x4 DUP4 ADD DUP2 SWAP1 MSTORE SWAP8 PUSH1 0x20 SWAP8 PUSH32 0x0 SWAP1 SWAP3 AND SWAP6 SWAP4 SWAP2 SWAP3 DUP9 DUP2 DUP8 DUP2 DUP11 GAS STATICCALL SWAP1 DUP2 ISZERO PUSH2 0x1147 JUMPI DUP12 SWAP2 PUSH2 0x1196 JUMPI JUMPDEST POP ISZERO PUSH2 0x1152 JUMPI PUSH1 0x40 MLOAD PUSH4 0xC64B8A8F PUSH1 0xE0 SHL DUP2 MSTORE PUSH1 0x4 DUP2 ADD DUP11 SWAP1 MSTORE DUP9 DUP2 DUP8 DUP2 DUP11 GAS STATICCALL SWAP1 DUP2 ISZERO PUSH2 0x1147 JUMPI DUP12 SWAP2 PUSH2 0x110E JUMPI JUMPDEST POP PUSH2 0x10CB JUMPI DUP7 MLOAD ISZERO PUSH2 0x108E JUMPI DUP10 SWAP11 PUSH1 0x40 SWAP11 SWAP8 SWAP9 SWAP10 SWAP11 MLOAD SWAP5 PUSH2 0xF96 DUP7 PUSH2 0x3392 JUMP JUMPDEST DUP10 DUP7 MSTORE DUP11 DUP7 ADD MSTORE PUSH1 0x40 DUP6 ADD MSTORE PUSH1 0x60 DUP5 ADD MSTORE PUSH1 0x80 DUP4 ADD MSTORE PUSH1 0x1 PUSH1 0xA0 DUP4 ADD MSTORE TIMESTAMP PUSH1 0xC0 DUP4 ADD MSTORE DUP4 EXTCODESIZE ISZERO PUSH2 0x438 JUMPI PUSH1 0x40 MLOAD PUSH4 0x283A514F PUSH1 0xE1 SHL DUP2 MSTORE SWAP2 DUP6 SWAP2 DUP4 SWAP2 DUP3 SWAP2 PUSH2 0xFE2 SWAP2 SWAP1 PUSH1 0x4 DUP5 ADD PUSH2 0x3964 JUMP JUMPDEST SUB DUP2 DUP4 DUP8 GAS CALL SWAP1 DUP2 ISZERO PUSH2 0x571 JUMPI DUP5 SWAP2 PUSH2 0x107A JUMPI JUMPDEST POP POP DUP2 EXTCODESIZE ISZERO PUSH2 0x3B1 JUMPI PUSH1 0x1 PUSH1 0x44 DUP5 SWAP3 DUP4 PUSH1 0x40 MLOAD SWAP6 DUP7 SWAP5 DUP6 SWAP4 PUSH4 0xAA279059 PUSH1 0xE0 SHL DUP6 MSTORE DUP13 PUSH1 0x4 DUP7 ADD MSTORE DUP5 ADD MSTORE GAS CALL DUP1 ISZERO PUSH2 0x3A6 JUMPI PUSH2 0x1066 JUMPI JUMPDEST POP POP PUSH32 0xECEF9454C60FAB6A60B6F2AA319263C0F711CDB927C213E76687F7853B597842 SWAP2 PUSH2 0x388 PUSH1 0x40 MLOAD SWAP3 DUP3 DUP5 SWAP4 DUP5 MSTORE DUP4 ADD SWAP1 PUSH2 0x30CC JUMP JUMPDEST PUSH2 0x106F SWAP1 PUSH2 0x33C1 JUMP JUMPDEST PUSH2 0x3A2 JUMPI DUP4 PUSH0 PUSH2 0x102E JUMP JUMPDEST PUSH2 0x1083 SWAP1 PUSH2 0x33C1 JUMP JUMPDEST PUSH2 0x3B1 JUMPI DUP3 PUSH0 PUSH2 0xFF6 JUMP JUMPDEST PUSH1 0x40 MLOAD PUSH3 0x461BCD PUSH1 0xE5 SHL DUP2 MSTORE PUSH1 0x4 DUP2 ADD DUP10 SWAP1 MSTORE PUSH1 0x16 DUP2 DUP8 ADD MSTORE PUSH22 0x109D5CDA5B995CDCC81B985B59481C995C5D5A5C9959 PUSH1 0x52 SHL PUSH1 0x44 DUP3 ADD MSTORE PUSH1 0x64 SWAP1 REVERT JUMPDEST PUSH1 0x40 MLOAD PUSH3 0x461BCD PUSH1 0xE5 SHL DUP2 MSTORE PUSH1 0x4 DUP2 ADD DUP10 SWAP1 MSTORE PUSH1 0x1C DUP2 DUP8 ADD MSTORE PUSH28 0x20B63932B0B23C903932B3B4B9BA32B932B21030B99039B2B63632B9 PUSH1 0x21 SHL PUSH1 0x44 DUP3 ADD MSTORE PUSH1 0x64 SWAP1 REVERT JUMPDEST SWAP1 POP DUP9 DUP2 DUP2 RETURNDATASIZE DUP4 GT PUSH2 0x1140 JUMPI JUMPDEST PUSH2 0x1125 DUP2 DUP4 PUSH2 0x345C JUMP JUMPDEST DUP2 ADD SUB SLT PUSH2 0x113C JUMPI PUSH2 0x1136 SWAP1 PUSH2 0x3650 JUMP JUMPDEST PUSH0 PUSH2 0xF76 JUMP JUMPDEST DUP11 DUP1 REVERT JUMPDEST POP RETURNDATASIZE PUSH2 0x111B JUMP JUMPDEST PUSH1 0x40 MLOAD RETURNDATASIZE DUP14 DUP3 RETURNDATACOPY RETURNDATASIZE SWAP1 REVERT JUMPDEST PUSH1 0x40 MLOAD PUSH3 0x461BCD PUSH1 0xE5 SHL DUP2 MSTORE PUSH1 0x4 DUP2 ADD DUP10 SWAP1 MSTORE PUSH1 0x1D DUP2 DUP8 ADD MSTORE PUSH32 0x4D75737420626520726567697374657265642075736572206669727374000000 PUSH1 0x44 DUP3 ADD MSTORE PUSH1 0x64 SWAP1 REVERT JUMPDEST SWAP1 POP DUP9 DUP2 DUP2 RETURNDATASIZE DUP4 GT PUSH2 0x11C4 JUMPI JUMPDEST PUSH2 0x11AD DUP2 DUP4 PUSH2 0x345C JUMP JUMPDEST DUP2 ADD SUB SLT PUSH2 0x113C JUMPI PUSH2 0x11BE SWAP1 PUSH2 0x3650 JUMP JUMPDEST PUSH0 PUSH2 0xF47 JUMP JUMPDEST POP RETURNDATASIZE PUSH2 0x11A3 JUMP JUMPDEST DUP7 DUP1 REVERT JUMPDEST DUP6 DUP1 REVERT JUMPDEST POP CALLVALUE PUSH2 0x43C JUMPI PUSH1 0x20 CALLDATASIZE PUSH1 0x3 NOT ADD SLT PUSH2 0x43C JUMPI PUSH2 0x11ED PUSH2 0x31E8 JUMP JUMPDEST PUSH1 0x40 MLOAD PUSH4 0x73549F0B PUSH1 0xE1 SHL DUP2 MSTORE PUSH1 0x1 PUSH1 0x1 PUSH1 0xA0 SHL SUB SWAP2 DUP3 AND PUSH1 0x4 DUP3 ADD MSTORE SWAP1 PUSH1 0x24 SWAP1 PUSH32 0x0 AND DUP4 DUP4 DUP4 DUP2 DUP5 GAS STATICCALL SWAP3 DUP4 ISZERO PUSH2 0x571 JUMPI DUP5 SWAP4 PUSH2 0x12C9 JUMPI JUMPDEST POP PUSH2 0x1250 DUP4 MLOAD PUSH2 0x35DF JUMP JUMPDEST SWAP2 DUP5 JUMPDEST DUP5 MLOAD DUP2 LT ISZERO PUSH2 0x53B JUMPI PUSH2 0x1266 DUP2 DUP7 PUSH2 0x3792 JUMP JUMPDEST MLOAD SWAP1 PUSH1 0x40 MLOAD SWAP2 PUSH4 0x2E76C56D PUSH1 0xE2 SHL DUP4 MSTORE PUSH1 0x4 DUP4 ADD MSTORE DUP7 DUP3 DUP5 DUP2 DUP8 GAS STATICCALL DUP1 ISZERO PUSH2 0x530 JUMPI PUSH1 0x1 SWAP3 DUP9 SWAP2 PUSH2 0x12AF JUMPI JUMPDEST POP PUSH2 0x129D DUP3 DUP8 PUSH2 0x3792 JUMP JUMPDEST MSTORE PUSH2 0x12A8 DUP2 DUP7 PUSH2 0x3792 JUMP JUMPDEST POP ADD PUSH2 0x1253 JUMP JUMPDEST PUSH2 0x12C3 SWAP2 POP RETURNDATASIZE DUP1 DUP11 DUP4 RETURNDATACOPY PUSH2 0x522 DUP2 DUP4 PUSH2 0x345C JUMP JUMPDEST PUSH0 PUSH2 0x1292 JUMP JUMPDEST PUSH2 0x12DE SWAP2 SWAP4 POP RETURNDATASIZE DUP1 DUP7 DUP4 RETURNDATACOPY PUSH2 0x562 DUP2 DUP4 PUSH2 0x345C JUMP JUMPDEST SWAP2 PUSH0 PUSH2 0x1245 JUMP JUMPDEST POP CALLVALUE PUSH2 0x43C JUMPI PUSH1 0x20 DUP1 PUSH1 0x3 NOT CALLDATASIZE ADD SLT PUSH2 0x86A JUMPI PUSH1 0x4 CALLDATALOAD PUSH1 0x1 PUSH1 0x1 PUSH1 0x40 SHL SUB DUP2 GT PUSH2 0x3B1 JUMPI PUSH2 0x1317 SWAP1 CALLDATASIZE SWAP1 PUSH1 0x4 ADD PUSH2 0x34D0 JUMP JUMPDEST SWAP1 DUP2 MLOAD ISZERO PUSH2 0x1457 JUMPI PUSH1 0x40 MLOAD PUSH4 0x6025663 PUSH1 0xE1 SHL DUP2 MSTORE SWAP2 DUP4 PUSH32 0x0 PUSH1 0x1 PUSH1 0x1 PUSH1 0xA0 SHL SUB AND DUP4 DUP6 PUSH1 0x4 DUP2 DUP6 DUP6 GAS CALL SWAP5 DUP6 ISZERO PUSH2 0x3A6 JUMPI DUP3 SWAP6 PUSH2 0x1420 JUMPI JUMPDEST POP PUSH1 0x40 MLOAD SWAP1 PUSH2 0x137D DUP3 PUSH2 0x33D4 JUMP JUMPDEST DUP6 DUP3 MSTORE DUP4 DUP6 DUP4 ADD MSTORE PUSH1 0x1 PUSH1 0x40 DUP4 ADD MSTORE DUP1 EXTCODESIZE ISZERO PUSH2 0x3B1 JUMPI PUSH2 0x13C5 DUP4 SWAP3 SWAP2 DUP4 SWAP3 PUSH1 0x40 MLOAD SWAP5 DUP6 DUP1 SWAP5 DUP2 SWAP4 PUSH4 0x28A22B87 PUSH1 0xE0 SHL DUP4 MSTORE DUP13 PUSH1 0x4 DUP5 ADD MSTORE PUSH1 0x40 PUSH1 0x24 DUP5 ADD MSTORE PUSH1 0x44 DUP4 ADD SWAP1 PUSH2 0x355B JUMP JUMPDEST SUB SWAP3 GAS CALL DUP1 ISZERO PUSH2 0x3A6 JUMPI PUSH2 0x140C JUMPI JUMPDEST POP POP PUSH32 0x11C167CC9B439F0AD8BEC5588159F1B06B813BC38D50C867A41B23B077BE2C1A SWAP2 PUSH2 0x388 PUSH1 0x40 MLOAD SWAP3 DUP3 DUP5 SWAP4 DUP5 MSTORE DUP4 ADD SWAP1 PUSH2 0x30CC JUMP JUMPDEST PUSH2 0x1415 SWAP1 PUSH2 0x33C1 JUMP JUMPDEST PUSH2 0x3A2 JUMPI DUP4 PUSH0 PUSH2 0x13D4 JUMP JUMPDEST DUP5 DUP1 SWAP3 SWAP7 POP DUP2 SWAP4 POP RETURNDATASIZE DUP4 GT PUSH2 0x1450 JUMPI JUMPDEST PUSH2 0x143A DUP2 DUP4 PUSH2 0x345C JUMP JUMPDEST DUP2 ADD SUB SLT PUSH2 0x144C JUMPI DUP5 SWAP1 MLOAD SWAP4 PUSH0 PUSH2 0x136F JUMP JUMPDEST PUSH0 DUP1 REVERT JUMPDEST POP RETURNDATASIZE PUSH2 0x1430 JUMP JUMPDEST PUSH1 0x64 SWAP1 PUSH1 0x40 MLOAD SWAP1 PUSH3 0x461BCD PUSH1 0xE5 SHL DUP3 MSTORE PUSH1 0x4 DUP3 ADD MSTORE PUSH1 0x16 PUSH1 0x24 DUP3 ADD MSTORE PUSH22 0x10D85D1959DBDC9E481B985B59481C995C5D5A5C9959 PUSH1 0x52 SHL PUSH1 0x44 DUP3 ADD MSTORE REVERT JUMPDEST POP CALLVALUE PUSH2 0x43C JUMPI DUP1 PUSH1 0x3 NOT CALLDATASIZE ADD SLT PUSH2 0x43C JUMPI PUSH1 0x40 MLOAD PUSH3 0xD893F PUSH1 0xE6 SHL DUP2 MSTORE PUSH1 0x20 SWAP1 PUSH32 0x0 PUSH1 0x1 PUSH1 0x1 PUSH1 0xA0 SHL SUB AND DUP3 DUP3 PUSH1 0x4 DUP2 DUP5 GAS STATICCALL SWAP2 DUP3 ISZERO PUSH2 0x571 JUMPI DUP5 SWAP3 PUSH2 0x1647 JUMPI JUMPDEST POP PUSH2 0x1501 DUP3 SWAP5 SWAP4 SWAP5 PUSH2 0x3CA2 JUMP JUMPDEST SWAP2 DUP4 SWAP2 PUSH1 0x1 JUMPDEST DUP3 DUP2 GT ISZERO PUSH2 0x15B4 JUMPI POP POP POP PUSH2 0x151B DUP2 PUSH2 0x3CA2 JUMP JUMPDEST SWAP2 DUP4 JUMPDEST DUP3 DUP2 LT PUSH2 0x1584 JUMPI POP POP POP PUSH1 0x40 MLOAD SWAP2 DUP4 DUP4 ADD DUP5 DUP5 MSTORE DUP3 MLOAD DUP1 SWAP2 MSTORE PUSH1 0x40 DUP5 ADD SWAP5 DUP1 PUSH1 0x40 DUP4 PUSH1 0x5 SHL DUP8 ADD ADD SWAP5 ADD SWAP3 SWAP6 JUMPDEST DUP3 DUP8 LT PUSH2 0x1558 JUMPI DUP6 DUP6 SUB DUP7 RETURN JUMPDEST SWAP1 SWAP2 SWAP3 SWAP4 DUP3 DUP1 PUSH2 0x1574 PUSH1 0x1 SWAP4 PUSH1 0x3F NOT DUP11 DUP3 SUB ADD DUP7 MSTORE DUP9 MLOAD PUSH2 0x355B JUMP JUMPDEST SWAP7 ADD SWAP3 ADD SWAP7 ADD SWAP6 SWAP3 SWAP2 SWAP1 SWAP3 PUSH2 0x154B JUMP JUMPDEST DUP1 PUSH2 0x1594 PUSH1 0x1 SWAP3 DUP5 SWAP9 SWAP8 SWAP9 PUSH2 0x3792 JUMP JUMPDEST MLOAD PUSH2 0x159F DUP3 DUP8 PUSH2 0x3792 JUMP JUMPDEST MSTORE PUSH2 0x15AA DUP2 DUP7 PUSH2 0x3792 JUMP JUMPDEST POP ADD SWAP5 SWAP4 SWAP5 PUSH2 0x151E JUMP JUMPDEST SWAP1 DUP6 SWAP7 SWAP6 SWAP2 PUSH1 0x40 MLOAD PUSH4 0x79829693 PUSH1 0xE1 SHL DUP2 MSTORE DUP2 PUSH1 0x4 DUP3 ADD MSTORE DUP4 DUP2 PUSH1 0x24 DUP2 DUP7 GAS STATICCALL SWAP1 DUP2 ISZERO PUSH2 0x571 JUMPI DUP5 SWAP2 PUSH2 0x162D JUMPI JUMPDEST POP PUSH1 0x40 DUP2 ADD MLOAD PUSH2 0x1602 JUMPI JUMPDEST POP PUSH2 0x15F7 SWAP1 PUSH2 0x362E JUMP JUMPDEST SWAP1 SWAP2 POP SWAP6 SWAP5 SWAP6 PUSH2 0x1507 JUMP JUMPDEST DUP6 PUSH2 0x1626 SWAP2 PUSH2 0x1615 PUSH2 0x15F7 SWAP5 SWAP9 DUP11 PUSH2 0x3792 JUMP JUMPDEST MSTORE PUSH2 0x1620 DUP2 DUP10 PUSH2 0x3792 JUMP JUMPDEST POP PUSH2 0x362E JUMP JUMPDEST SWAP5 SWAP1 PUSH2 0x15ED JUMP JUMPDEST PUSH2 0x1641 SWAP2 POP RETURNDATASIZE DUP1 DUP7 DUP4 RETURNDATACOPY PUSH2 0x665 DUP2 DUP4 PUSH2 0x345C JUMP JUMPDEST PUSH0 PUSH2 0x15E2 JUMP JUMPDEST SWAP1 SWAP2 POP DUP3 DUP2 DUP2 RETURNDATASIZE DUP4 GT PUSH2 0x166F JUMPI JUMPDEST PUSH2 0x165F DUP2 DUP4 PUSH2 0x345C JUMP JUMPDEST DUP2 ADD SUB SLT PUSH2 0x144C JUMPI MLOAD SWAP1 PUSH0 PUSH2 0x14F4 JUMP JUMPDEST POP RETURNDATASIZE PUSH2 0x1655 JUMP JUMPDEST POP CALLVALUE PUSH2 0x43C JUMPI DUP1 PUSH1 0x3 NOT CALLDATASIZE ADD SLT PUSH2 0x43C JUMPI PUSH2 0x168F PUSH2 0x3FB0 JUMP JUMPDEST SELFBALANCE DUP1 ISZERO PUSH2 0x16F9 JUMPI DUP2 SLOAD DUP3 SWAP2 DUP3 SWAP2 DUP3 SWAP2 DUP3 SWAP2 PUSH1 0x1 PUSH1 0x1 PUSH1 0xA0 SHL SUB AND GAS CALL PUSH2 0x16B3 PUSH2 0x3C73 JUMP JUMPDEST POP ISZERO PUSH2 0x16BC JUMPI DUP1 RETURN JUMPDEST PUSH1 0x40 MLOAD PUSH3 0x461BCD PUSH1 0xE5 SHL DUP2 MSTORE PUSH1 0x20 PUSH1 0x4 DUP3 ADD MSTORE PUSH1 0x15 PUSH1 0x24 DUP3 ADD MSTORE PUSH21 0x119959481DDA5D1A191C985DD85B0819985A5B1959 PUSH1 0x5A SHL PUSH1 0x44 DUP3 ADD MSTORE PUSH1 0x64 SWAP1 REVERT JUMPDEST PUSH1 0x40 MLOAD PUSH3 0x461BCD PUSH1 0xE5 SHL DUP2 MSTORE PUSH1 0x20 PUSH1 0x4 DUP3 ADD MSTORE PUSH1 0x13 PUSH1 0x24 DUP3 ADD MSTORE PUSH19 0x4E6F206665657320746F207769746864726177 PUSH1 0x68 SHL PUSH1 0x44 DUP3 ADD MSTORE PUSH1 0x64 SWAP1 REVERT JUMPDEST POP CALLVALUE PUSH2 0x43C JUMPI PUSH1 0x20 CALLDATASIZE PUSH1 0x3 NOT ADD SLT PUSH2 0x43C JUMPI PUSH1 0x40 MLOAD PUSH4 0x79829693 PUSH1 0xE1 SHL DUP2 MSTORE PUSH1 0x4 DUP1 CALLDATALOAD SWAP1 DUP3 ADD DUP2 SWAP1 MSTORE SWAP1 DUP3 SWAP1 PUSH32 0x0 PUSH1 0x1 PUSH1 0x1 PUSH1 0xA0 SHL SUB AND DUP3 DUP3 PUSH1 0x24 DUP2 DUP5 GAS STATICCALL SWAP2 DUP3 ISZERO PUSH2 0xC84 JUMPI DUP4 SWAP3 PUSH2 0x1837 JUMPI JUMPDEST POP PUSH2 0x17AD DUP3 MLOAD ISZERO ISZERO PUSH2 0x3AD9 JUMP JUMPDEST DUP3 PUSH1 0x40 DUP4 ADD MSTORE DUP1 EXTCODESIZE ISZERO PUSH2 0x3B1 JUMPI PUSH2 0x17EC DUP4 SWAP3 SWAP2 DUP4 SWAP3 PUSH1 0x40 MLOAD SWAP5 DUP6 DUP1 SWAP5 DUP2 SWAP4 PUSH4 0x28A22B87 PUSH1 0xE0 SHL DUP4 MSTORE DUP11 PUSH1 0x4 DUP5 ADD MSTORE PUSH1 0x40 PUSH1 0x24 DUP5 ADD MSTORE PUSH1 0x44 DUP4 ADD SWAP1 PUSH2 0x355B JUMP JUMPDEST SUB SWAP3 GAS CALL DUP1 ISZERO PUSH2 0x3A6 JUMPI PUSH2 0x1823 JUMPI JUMPDEST POP DUP1 PUSH32 0x510C8243D59E6C99AA1A4CF786D70D3E2E425109EB3870CC957CCB326A11EA97 SWAP2 LOG2 DUP1 RETURN JUMPDEST PUSH2 0x182C SWAP1 PUSH2 0x33C1 JUMP JUMPDEST PUSH2 0x86A JUMPI DUP2 PUSH0 PUSH2 0x17FB JUMP JUMPDEST PUSH2 0x184C SWAP2 SWAP3 POP RETURNDATASIZE DUP1 DUP6 DUP4 RETURNDATACOPY PUSH2 0x665 DUP2 DUP4 PUSH2 0x345C JUMP JUMPDEST SWAP1 PUSH0 PUSH2 0x17A0 JUMP JUMPDEST POP CALLVALUE PUSH2 0x43C JUMPI PUSH1 0x20 SWAP1 DUP2 PUSH1 0x3 NOT CALLDATASIZE ADD SLT PUSH2 0x43C JUMPI DUP2 PUSH1 0x4 CALLDATALOAD SWAP2 PUSH2 0x1875 DUP4 PUSH2 0x3DBC JUMP JUMPDEST PUSH1 0x40 MLOAD SWAP3 PUSH2 0x1882 DUP5 PUSH2 0x3426 JUMP JUMPDEST DUP2 DUP5 MSTORE DUP2 ISZERO PUSH2 0x1A42 JUMPI DUP2 SWAP1 DUP1 PUSH19 0x184F03E93FF9F4DAA797ED6E38ED64BF6A1F01 PUSH1 0x40 SHL DUP2 DUP2 DUP2 LT ISZERO PUSH2 0x1A34 JUMPI JUMPDEST POP DUP6 SWAP1 POP PUSH10 0x4EE2D6D415B85ACEF81 PUSH1 0x20 SHL DUP1 DUP5 LT ISZERO PUSH2 0x1A26 JUMPI JUMPDEST POP POP PUSH7 0x2386F26FC10000 DUP1 DUP4 LT ISZERO PUSH2 0x1A17 JUMPI JUMPDEST POP PUSH4 0x5F5E100 DUP1 DUP4 LT ISZERO PUSH2 0x1A08 JUMPI JUMPDEST POP PUSH2 0x2710 DUP1 DUP4 LT ISZERO PUSH2 0x19F9 JUMPI JUMPDEST POP PUSH1 0x64 DUP3 LT ISZERO PUSH2 0x19E9 JUMPI JUMPDEST PUSH1 0xA DUP1 SWAP3 LT ISZERO PUSH2 0x19DF JUMPI JUMPDEST PUSH1 0x1 SWAP1 DUP2 PUSH1 0x21 PUSH1 0x1 DUP7 ADD SWAP6 PUSH2 0x193C PUSH2 0x1926 DUP9 PUSH2 0x347F JUMP JUMPDEST SWAP8 PUSH2 0x1934 PUSH1 0x40 MLOAD SWAP10 DUP11 PUSH2 0x345C JUMP JUMPDEST DUP1 DUP10 MSTORE PUSH2 0x347F JUMP JUMPDEST DUP8 DUP11 ADD SWAP9 SWAP1 PUSH1 0x1F NOT ADD CALLDATASIZE DUP11 CALLDATACOPY POP DUP7 ADD ADD SWAP1 JUMPDEST PUSH2 0x19AA JUMPI JUMPDEST POP POP POP POP SWAP3 PUSH2 0x1994 SWAP3 SWAP2 PUSH2 0x1988 SWAP5 PUSH1 0x40 MLOAD SWAP6 DUP4 PUSH2 0x1979 DUP9 SWAP6 MLOAD DUP1 SWAP3 DUP9 DUP1 DUP10 ADD SWAP2 ADD PUSH2 0x30AB JUMP JUMPDEST DUP5 ADD SWAP2 MLOAD DUP1 SWAP4 DUP7 DUP5 ADD SWAP1 PUSH2 0x30AB JUMP JUMPDEST ADD SUB DUP1 DUP5 MSTORE ADD DUP3 PUSH2 0x345C JUMP JUMPDEST SWAP1 JUMPDEST PUSH2 0x549 PUSH1 0x40 MLOAD SWAP3 DUP3 DUP5 SWAP4 DUP5 MSTORE DUP4 ADD SWAP1 PUSH2 0x30CC JUMP JUMPDEST PUSH0 NOT ADD SWAP1 DUP4 SWAP1 PUSH16 0x181899199A1A9B1B9C1CB0B131B232B3 PUSH1 0x81 SHL DUP3 DUP3 MOD BYTE DUP4 MSTORE8 DIV SWAP2 DUP3 ISZERO PUSH2 0x19DA JUMPI SWAP2 SWAP1 DUP3 PUSH2 0x194E JUMP JUMPDEST PUSH2 0x1953 JUMP JUMPDEST SWAP2 PUSH1 0x1 ADD SWAP2 PUSH2 0x190F JUMP JUMPDEST SWAP2 SWAP1 PUSH1 0x64 PUSH1 0x2 SWAP2 DIV SWAP2 ADD SWAP2 PUSH2 0x1904 JUMP JUMPDEST PUSH1 0x4 SWAP2 SWAP4 SWAP3 DIV SWAP2 ADD SWAP2 PUSH0 PUSH2 0x18F9 JUMP JUMPDEST PUSH1 0x8 SWAP2 SWAP4 SWAP3 DIV SWAP2 ADD SWAP2 PUSH0 PUSH2 0x18EC JUMP JUMPDEST PUSH1 0x10 SWAP2 SWAP4 SWAP3 DIV SWAP2 ADD SWAP2 PUSH0 PUSH2 0x18DD JUMP JUMPDEST SWAP4 ADD SWAP3 SWAP1 SWAP2 DIV SWAP1 DUP5 PUSH0 PUSH2 0x18CA JUMP JUMPDEST PUSH1 0x40 SWAP5 POP DIV SWAP2 POP PUSH0 DUP1 PUSH2 0x18AF JUMP JUMPDEST POP POP POP POP PUSH1 0x40 MLOAD PUSH2 0x1A52 DUP2 PUSH2 0x3426 JUMP JUMPDEST PUSH0 DUP2 MSTORE SWAP1 PUSH2 0x1996 JUMP JUMPDEST POP CALLVALUE PUSH2 0x43C JUMPI PUSH1 0xE0 CALLDATASIZE PUSH1 0x3 NOT ADD SLT PUSH2 0x43C JUMPI PUSH2 0x1A75 PUSH2 0x31E8 JUMP JUMPDEST PUSH1 0x1 PUSH1 0x1 PUSH1 0x40 SHL SUB SWAP1 PUSH1 0x24 CALLDATALOAD DUP3 DUP2 GT PUSH2 0x3A2 JUMPI PUSH2 0x1A96 SWAP1 CALLDATASIZE SWAP1 PUSH1 0x4 ADD PUSH2 0x34D0 JUMP JUMPDEST SWAP1 PUSH1 0x44 CALLDATALOAD DUP4 DUP2 GT PUSH2 0x438 JUMPI PUSH2 0x1AAF SWAP1 CALLDATASIZE SWAP1 PUSH1 0x4 ADD PUSH2 0x34D0 JUMP JUMPDEST SWAP3 PUSH1 0x64 CALLDATALOAD SWAP1 DUP2 GT PUSH2 0x438 JUMPI PUSH2 0x1AC8 SWAP1 CALLDATASIZE SWAP1 PUSH1 0x4 ADD PUSH2 0x34D0 JUMP JUMPDEST SWAP2 PUSH1 0x84 CALLDATALOAD SWAP2 DUP6 PUSH1 0xA4 CALLDATALOAD SWAP2 PUSH2 0x1ADE DUP5 MLOAD ISZERO ISZERO PUSH2 0x3BAC JUMP JUMPDEST PUSH2 0x1AE9 DUP4 ISZERO ISZERO PUSH2 0x3BE8 JUMP JUMPDEST PUSH1 0x40 MLOAD PUSH4 0x79829693 PUSH1 0xE1 SHL DUP2 MSTORE PUSH1 0x4 DUP2 ADD DUP7 SWAP1 MSTORE PUSH1 0x1 PUSH1 0x1 PUSH1 0xA0 SHL SUB SWAP6 PUSH32 0x0 DUP8 AND SWAP3 SWAP1 SWAP2 DUP5 DUP2 PUSH1 0x24 DUP2 DUP8 GAS STATICCALL SWAP1 DUP2 ISZERO PUSH2 0x89F JUMPI PUSH2 0x1B52 SWAP2 PUSH1 0x40 SWAP2 DUP8 SWAP2 PUSH2 0x1D43 JUMPI POP ADD MLOAD ISZERO ISZERO PUSH2 0x3C34 JUMP JUMPDEST PUSH1 0x40 MLOAD PUSH4 0x9B4DAEF PUSH1 0xE2 SHL DUP2 MSTORE SWAP8 PUSH1 0x20 SWAP8 DUP9 DUP11 PUSH1 0x4 DUP2 DUP10 DUP10 GAS CALL SWAP10 DUP11 ISZERO PUSH2 0x1D38 JUMPI DUP7 SWAP11 PUSH2 0x1D05 JUMPI JUMPDEST POP PUSH1 0x40 MLOAD SWAP3 PUSH2 0x1B88 DUP5 PUSH2 0x340A JUMP JUMPDEST DUP11 DUP5 MSTORE AND SWAP10 DUP11 DUP10 DUP5 ADD MSTORE DUP8 PUSH1 0x40 DUP5 ADD MSTORE PUSH1 0x60 DUP4 ADD MSTORE PUSH1 0x80 DUP3 ADD MSTORE DUP2 PUSH1 0xA0 DUP3 ADD MSTORE DUP5 PUSH1 0xC0 DUP3 ADD MSTORE PUSH1 0xC4 CALLDATALOAD PUSH1 0xE0 DUP3 ADD MSTORE TIMESTAMP PUSH2 0x100 DUP3 ADD MSTORE DUP4 PUSH2 0x120 DUP3 ADD MSTORE DUP3 EXTCODESIZE ISZERO PUSH2 0x3A2 JUMPI DUP4 PUSH2 0x1BF8 SWAP2 PUSH1 0x40 MLOAD DUP1 SWAP4 DUP2 SWAP3 PUSH4 0x6AD0CB9 PUSH1 0xE0 SHL DUP4 MSTORE DUP13 PUSH1 0x4 DUP5 ADD MSTORE PUSH1 0x40 PUSH1 0x24 DUP5 ADD MSTORE PUSH1 0x44 DUP4 ADD SWAP1 PUSH2 0x30F1 JUMP JUMPDEST SUB DUP2 DUP4 DUP8 GAS CALL SWAP1 DUP2 ISZERO PUSH2 0x571 JUMPI DUP5 SWAP2 PUSH2 0x1CF1 JUMPI JUMPDEST POP POP DUP2 EXTCODESIZE ISZERO PUSH2 0x3B1 JUMPI PUSH1 0x40 MLOAD PUSH4 0x1294B01D PUSH1 0xE0 SHL DUP2 MSTORE DUP9 PUSH1 0x4 DUP3 ADD MSTORE DUP8 PUSH1 0x24 DUP3 ADD MSTORE DUP4 DUP2 PUSH1 0x44 DUP2 DUP4 DUP8 GAS CALL SWAP1 DUP2 ISZERO PUSH2 0x571 JUMPI DUP5 SWAP2 PUSH2 0x1CDD JUMPI JUMPDEST POP POP DUP2 EXTCODESIZE ISZERO PUSH2 0x3B1 JUMPI DUP3 SWAP2 PUSH1 0x44 DUP4 SWAP3 PUSH1 0x40 MLOAD SWAP5 DUP6 SWAP4 DUP5 SWAP3 PUSH4 0x184C5E53 PUSH1 0xE3 SHL DUP5 MSTORE DUP13 PUSH1 0x4 DUP6 ADD MSTORE PUSH1 0x24 DUP5 ADD MSTORE GAS CALL DUP1 ISZERO PUSH2 0x3A6 JUMPI PUSH2 0x1CC5 JUMPI JUMPDEST POP POP SWAP1 PUSH32 0x5F25C590B5C7F62ED4186ADCA32D3118CAEF07E5020C6CC8268D4136DF2CFEF8 SWAP3 PUSH2 0x1CBB SWAP3 PUSH1 0x40 MLOAD SWAP4 DUP5 SWAP4 PUSH1 0x40 DUP6 MSTORE PUSH1 0x40 DUP6 ADD SWAP1 PUSH2 0x30CC JUMP JUMPDEST SWAP2 DUP4 ADD MSTORE SUB SWAP1 LOG3 DUP1 RETURN JUMPDEST PUSH2 0x1CD1 SWAP1 SWAP4 SWAP3 SWAP4 PUSH2 0x33C1 JUMP JUMPDEST PUSH2 0x11CF JUMPI SWAP1 DUP6 PUSH0 PUSH2 0x1C7E JUMP JUMPDEST PUSH2 0x1CE6 SWAP1 PUSH2 0x33C1 JUMP JUMPDEST PUSH2 0x3B1 JUMPI DUP3 PUSH0 PUSH2 0x1C45 JUMP JUMPDEST PUSH2 0x1CFA SWAP1 PUSH2 0x33C1 JUMP JUMPDEST PUSH2 0x3B1 JUMPI DUP3 PUSH0 PUSH2 0x1C0C JUMP JUMPDEST DUP10 DUP1 SWAP3 SWAP12 POP DUP2 SWAP8 POP RETURNDATASIZE DUP4 GT PUSH2 0x1D31 JUMPI JUMPDEST PUSH2 0x1D1F DUP2 DUP4 PUSH2 0x345C JUMP JUMPDEST DUP2 ADD SUB SLT PUSH2 0x144C JUMPI DUP11 SWAP5 MLOAD SWAP9 PUSH0 PUSH2 0x1B7A JUMP JUMPDEST POP RETURNDATASIZE PUSH2 0x1D15 JUMP JUMPDEST PUSH1 0x40 MLOAD RETURNDATASIZE DUP9 DUP3 RETURNDATACOPY RETURNDATASIZE SWAP1 REVERT JUMPDEST PUSH2 0xCA7 SWAP2 POP RETURNDATASIZE DUP1 DUP10 DUP4 RETURNDATACOPY PUSH2 0x665 DUP2 DUP4 PUSH2 0x345C JUMP JUMPDEST POP CALLVALUE PUSH2 0x43C JUMPI PUSH1 0x20 DUP1 PUSH1 0x3 NOT CALLDATASIZE ADD SLT PUSH2 0x86A JUMPI PUSH1 0x4 CALLDATALOAD PUSH2 0x1D75 PUSH2 0x3593 JUMP JUMPDEST POP PUSH1 0x40 MLOAD PUSH4 0x2BD57B59 PUSH1 0xE2 SHL DUP2 MSTORE PUSH1 0x4 DUP2 ADD DUP3 SWAP1 MSTORE PUSH32 0x0 PUSH1 0x1 PUSH1 0x1 PUSH1 0xA0 SHL SUB AND SWAP2 DUP5 SWAP2 DUP5 DUP2 PUSH1 0x24 DUP2 DUP8 GAS STATICCALL DUP1 ISZERO PUSH2 0xC84 JUMPI DUP4 SWAP1 PUSH2 0x1E3D JUMPI JUMPDEST PUSH2 0x1DD6 SWAP2 POP PUSH2 0x3B67 JUMP JUMPDEST PUSH1 0x24 PUSH1 0x40 MLOAD DUP1 SWAP5 DUP2 SWAP4 PUSH4 0x2E76C56D PUSH1 0xE2 SHL DUP4 MSTORE PUSH1 0x4 DUP4 ADD MSTORE GAS STATICCALL SWAP3 DUP4 ISZERO PUSH2 0x1E31 JUMPI DUP1 SWAP4 PUSH2 0x1E14 JUMPI JUMPDEST POP POP PUSH2 0x549 PUSH1 0x40 MLOAD SWAP3 DUP3 DUP5 SWAP4 DUP5 MSTORE DUP4 ADD SWAP1 PUSH2 0x30F1 JUMP JUMPDEST PUSH2 0x1E29 SWAP3 SWAP4 POP RETURNDATASIZE DUP1 SWAP2 DUP4 RETURNDATACOPY PUSH2 0x522 DUP2 DUP4 PUSH2 0x345C JUMP JUMPDEST SWAP1 PUSH0 DUP1 PUSH2 0x1DFE JUMP JUMPDEST PUSH1 0x40 MLOAD SWAP1 RETURNDATASIZE SWAP1 DUP3 RETURNDATACOPY RETURNDATASIZE SWAP1 REVERT JUMPDEST POP DUP5 DUP2 DUP2 RETURNDATASIZE DUP4 GT PUSH2 0x1E6C JUMPI JUMPDEST PUSH2 0x1E53 DUP2 DUP4 PUSH2 0x345C JUMP JUMPDEST DUP2 ADD SUB SLT PUSH2 0x3B1 JUMPI PUSH2 0x1E67 PUSH2 0x1DD6 SWAP2 PUSH2 0x3650 JUMP JUMPDEST PUSH2 0x1DCC JUMP JUMPDEST POP RETURNDATASIZE PUSH2 0x1E49 JUMP JUMPDEST POP CALLVALUE PUSH2 0x43C JUMPI PUSH1 0x80 CALLDATASIZE PUSH1 0x3 NOT ADD SLT PUSH2 0x43C JUMPI PUSH2 0x1E8D PUSH2 0x31E8 JUMP JUMPDEST PUSH2 0x1E95 PUSH2 0x31FE JUMP JUMPDEST PUSH1 0x64 CALLDATALOAD SWAP2 PUSH1 0x1 PUSH1 0x1 PUSH1 0x40 SHL SUB DUP4 GT PUSH2 0x3A2 JUMPI CALLDATASIZE PUSH1 0x23 DUP5 ADD SLT ISZERO PUSH2 0x3A2 JUMPI PUSH2 0x1EC9 PUSH2 0x1ED3 SWAP4 CALLDATASIZE SWAP1 PUSH1 0x24 DUP2 PUSH1 0x4 ADD CALLDATALOAD SWAP2 ADD PUSH2 0x349A JUMP JUMPDEST SWAP2 PUSH1 0x44 CALLDATALOAD SWAP2 PUSH2 0x3B1F JUMP JUMPDEST DUP1 RETURN JUMPDEST POP CALLVALUE PUSH2 0x43C JUMPI PUSH1 0x20 CALLDATASIZE PUSH1 0x3 NOT ADD SLT PUSH2 0x43C JUMPI DUP1 PUSH1 0x24 SWAP2 PUSH2 0x1EF4 PUSH2 0x31E8 JUMP JUMPDEST PUSH2 0x1EFC PUSH2 0x383F JUMP JUMPDEST POP PUSH1 0x40 MLOAD PUSH4 0x5191E94F PUSH1 0xE1 SHL DUP2 MSTORE PUSH1 0x1 PUSH1 0x1 PUSH1 0xA0 SHL SUB SWAP2 DUP3 AND PUSH1 0x4 DUP3 ADD MSTORE SWAP4 DUP5 SWAP2 DUP3 SWAP1 PUSH32 0x0 AND GAS STATICCALL DUP1 ISZERO PUSH2 0x1F97 JUMPI PUSH2 0x1F6E SWAP3 DUP3 DUP1 SWAP3 PUSH2 0x1F79 JUMPI JUMPDEST POP POP PUSH2 0x549 PUSH1 0x40 MLOAD SWAP4 DUP5 SWAP4 PUSH1 0x40 DUP6 MSTORE PUSH1 0x40 DUP6 ADD SWAP1 PUSH2 0x3249 JUMP JUMPDEST SWAP2 PUSH1 0x20 DUP5 ADD SWAP1 PUSH2 0x353A JUMP JUMPDEST SWAP1 SWAP2 POP PUSH2 0x1F90 SWAP3 POP RETURNDATASIZE DUP1 SWAP2 DUP4 RETURNDATACOPY PUSH2 0xDE4 DUP2 DUP4 PUSH2 0x345C JUMP JUMPDEST PUSH0 DUP1 PUSH2 0x1F55 JUMP JUMPDEST POP PUSH1 0x40 MLOAD SWAP1 RETURNDATASIZE SWAP1 DUP3 RETURNDATACOPY RETURNDATASIZE SWAP1 REVERT JUMPDEST POP CALLVALUE PUSH2 0x43C JUMPI PUSH1 0x40 CALLDATASIZE PUSH1 0x3 NOT ADD SLT PUSH2 0x43C JUMPI PUSH2 0x1FBE PUSH2 0x31E8 JUMP JUMPDEST PUSH1 0x24 CALLDATALOAD SWAP1 DUP2 ISZERO ISZERO DUP1 SWAP3 SUB PUSH2 0x144C JUMPI PUSH1 0x1 PUSH1 0x1 PUSH1 0xA0 SHL SUB AND SWAP1 CALLER DUP3 EQ PUSH2 0x202F JUMPI CALLER DUP4 MSTORE PUSH1 0x7 PUSH1 0x20 MSTORE PUSH1 0x40 DUP4 KECCAK256 DUP3 PUSH0 MSTORE PUSH1 0x20 MSTORE PUSH1 0x40 PUSH0 KECCAK256 PUSH1 0xFF NOT DUP2 SLOAD AND PUSH1 0xFF DUP4 AND OR SWAP1 SSTORE PUSH1 0x40 MLOAD SWAP1 DUP2 MSTORE PUSH32 0x17307EAB39AB6107E8899845AD3D59BD9653F200F220920489CA2B5937696C31 PUSH1 0x20 CALLER SWAP3 LOG3 DUP1 RETURN JUMPDEST PUSH1 0x40 MLOAD PUSH3 0x461BCD PUSH1 0xE5 SHL DUP2 MSTORE PUSH1 0x20 PUSH1 0x4 DUP3 ADD MSTORE PUSH1 0x19 PUSH1 0x24 DUP3 ADD MSTORE PUSH25 0x22A9219B99189D1030B8383937BB32903A379031B0B63632B9 PUSH1 0x39 SHL PUSH1 0x44 DUP3 ADD MSTORE PUSH1 0x64 SWAP1 REVERT JUMPDEST PUSH2 0x330D JUMP JUMPDEST POP CALLVALUE PUSH2 0x43C JUMPI PUSH1 0x40 CALLDATASIZE PUSH1 0x3 NOT ADD SLT PUSH2 0x43C JUMPI PUSH2 0x208F PUSH2 0x31E8 JUMP JUMPDEST PUSH1 0x24 CALLDATALOAD PUSH1 0x4 DUP2 LT ISZERO PUSH2 0x3B1 JUMPI PUSH1 0x1 PUSH1 0x1 PUSH1 0xA0 SHL SUB PUSH32 0x0 DUP2 AND SWAP3 DUP5 SWAP2 SWAP1 DUP5 EXTCODESIZE ISZERO PUSH2 0x3B1 JUMPI DUP3 SWAP2 PUSH1 0x44 DUP4 SWAP3 PUSH1 0x40 MLOAD SWAP5 DUP6 SWAP4 DUP5 SWAP3 PUSH4 0xAA279059 PUSH1 0xE0 SHL DUP5 MSTORE AND SWAP9 DUP10 PUSH1 0x4 DUP5 ADD MSTORE PUSH2 0x20FE PUSH1 0x24 DUP5 ADD DUP11 PUSH2 0x353A JUMP JUMPDEST GAS CALL DUP1 ISZERO PUSH2 0x3A6 JUMPI PUSH2 0x2142 JUMPI JUMPDEST POP POP PUSH1 0x20 PUSH32 0xD8F7BCB2C5CFFC294A0AAEF719685993D7BE95273FB8254803A1563510CCEFED SWAP2 PUSH2 0x213E PUSH1 0x40 MLOAD DUP1 SWAP3 PUSH2 0x353A JUMP JUMPDEST LOG2 DUP1 RETURN JUMPDEST PUSH2 0x214B SWAP1 PUSH2 0x33C1 JUMP JUMPDEST PUSH2 0x3B1 JUMPI DUP3 PUSH0 PUSH2 0x210B JUMP JUMPDEST POP CALLVALUE PUSH2 0x43C JUMPI DUP1 PUSH1 0x3 NOT CALLDATASIZE ADD SLT PUSH2 0x43C JUMPI PUSH1 0x40 MLOAD SWAP1 DUP1 PUSH1 0x3 SLOAD SWAP2 PUSH1 0x1 DUP4 PUSH1 0x1 SHR SWAP3 PUSH1 0x1 DUP6 AND SWAP5 DUP6 ISZERO PUSH2 0x2229 JUMPI JUMPDEST PUSH1 0x20 SWAP6 DUP7 DUP7 LT DUP2 EQ PUSH2 0x2215 JUMPI DUP6 DUP9 MSTORE DUP8 SWAP5 SWAP4 SWAP3 SWAP2 DUP8 SWAP1 DUP3 ISZERO PUSH2 0x21F3 JUMPI POP POP PUSH1 0x1 EQ PUSH2 0x21B7 JUMPI JUMPDEST POP POP PUSH2 0x1996 SWAP3 POP SUB DUP4 PUSH2 0x345C JUMP JUMPDEST SWAP1 DUP6 SWAP3 POP PUSH1 0x3 DUP3 MSTORE DUP3 DUP3 KECCAK256 JUMPDEST DUP6 DUP4 LT PUSH2 0x21DB JUMPI POP POP PUSH2 0x1996 SWAP4 POP DUP3 ADD ADD PUSH0 DUP1 PUSH2 0x21A9 JUMP JUMPDEST DUP1 SLOAD DUP4 DUP10 ADD DUP6 ADD MSTORE DUP8 SWAP5 POP DUP7 SWAP4 SWAP1 SWAP3 ADD SWAP2 DUP2 ADD PUSH2 0x21C3 JUMP JUMPDEST SWAP3 POP SWAP4 POP POP PUSH2 0x1996 SWAP5 SWAP2 POP PUSH1 0xFF NOT AND DUP3 DUP5 ADD MSTORE ISZERO ISZERO PUSH1 0x5 SHL DUP3 ADD ADD PUSH0 DUP1 PUSH2 0x21A9 JUMP JUMPDEST PUSH4 0x4E487B71 PUSH1 0xE0 SHL DUP4 MSTORE PUSH1 0x22 PUSH1 0x4 MSTORE PUSH1 0x24 DUP4 REVERT JUMPDEST SWAP4 PUSH1 0x7F AND SWAP4 PUSH2 0x2183 JUMP JUMPDEST POP CALLVALUE PUSH2 0x43C JUMPI DUP1 PUSH1 0x3 NOT CALLDATASIZE ADD SLT PUSH2 0x43C JUMPI SLOAD PUSH1 0x40 MLOAD PUSH1 0x1 PUSH1 0x1 PUSH1 0xA0 SHL SUB SWAP1 SWAP2 AND DUP2 MSTORE PUSH1 0x20 SWAP1 RETURN JUMPDEST POP CALLVALUE PUSH2 0x43C JUMPI DUP1 PUSH1 0x3 NOT CALLDATASIZE ADD SLT PUSH2 0x43C JUMPI PUSH2 0x2273 PUSH2 0x3FB0 JUMP JUMPDEST PUSH0 DUP1 SLOAD PUSH1 0x1 PUSH1 0x1 PUSH1 0xA0 SHL SUB NOT DUP2 AND DUP3 SSTORE PUSH1 0x1 PUSH1 0x1 PUSH1 0xA0 SHL SUB AND PUSH0 DUP1 MLOAD PUSH1 0x20 PUSH2 0x4149 DUP4 CODECOPY DUP2 MLOAD SWAP2 MSTORE DUP3 DUP1 LOG3 DUP1 RETURN JUMPDEST POP CALLVALUE PUSH2 0x43C JUMPI PUSH1 0x20 CALLDATASIZE PUSH1 0x3 NOT ADD SLT PUSH2 0x43C JUMPI PUSH1 0x1 PUSH1 0x1 PUSH1 0xA0 SHL SUB PUSH2 0x22C2 PUSH2 0x31E8 JUMP JUMPDEST AND DUP1 ISZERO PUSH2 0x22DF JUMPI DUP2 PUSH1 0x40 SWAP2 PUSH1 0x20 SWAP4 MSTORE PUSH1 0x5 DUP4 MSTORE KECCAK256 SLOAD PUSH1 0x40 MLOAD SWAP1 DUP2 MSTORE RETURN JUMPDEST PUSH1 0x40 MLOAD PUSH3 0x461BCD PUSH1 0xE5 SHL DUP2 MSTORE PUSH1 0x20 PUSH1 0x4 DUP3 ADD MSTORE PUSH1 0x29 PUSH1 0x24 DUP3 ADD MSTORE PUSH32 0x4552433732313A2061646472657373207A65726F206973206E6F742061207661 PUSH1 0x44 DUP3 ADD MSTORE PUSH9 0x3634B21037BBB732B9 PUSH1 0xB9 SHL PUSH1 0x64 DUP3 ADD MSTORE PUSH1 0x84 SWAP1 REVERT JUMPDEST POP CALLVALUE PUSH2 0x43C JUMPI PUSH1 0x20 DUP1 PUSH1 0x3 NOT CALLDATASIZE ADD SLT PUSH2 0x86A JUMPI PUSH1 0x24 SWAP2 PUSH2 0x2354 PUSH2 0x31E8 JUMP JUMPDEST DUP2 PUSH1 0x40 MLOAD SWAP2 PUSH2 0x2362 DUP4 PUSH2 0x33EF JUMP JUMPDEST PUSH1 0x60 DUP1 DUP5 MSTORE DUP6 DUP5 ADD DUP2 SWAP1 MSTORE PUSH1 0x40 DUP1 DUP6 ADD DUP3 SWAP1 MSTORE SWAP4 DUP2 ADD DUP4 SWAP1 MSTORE SWAP3 MLOAD PUSH4 0x6F77926B PUSH1 0xE0 SHL DUP2 MSTORE PUSH1 0x1 PUSH1 0x1 PUSH1 0xA0 SHL SUB SWAP2 DUP3 AND PUSH1 0x4 DUP3 ADD MSTORE SWAP6 DUP7 SWAP2 DUP3 SWAP1 PUSH32 0x0 AND GAS STATICCALL SWAP4 DUP5 ISZERO PUSH2 0x3A6 JUMPI DUP3 SWAP5 PUSH2 0x23E5 JUMPI JUMPDEST POP POP POP PUSH2 0x549 PUSH1 0x40 MLOAD SWAP3 DUP3 DUP5 SWAP4 DUP5 MSTORE DUP4 ADD SWAP1 PUSH2 0x34EE JUMP JUMPDEST SWAP1 SWAP2 SWAP3 SWAP4 POP RETURNDATASIZE DUP1 DUP5 DUP4 RETURNDATACOPY PUSH2 0x23F9 DUP2 DUP4 PUSH2 0x345C JUMP JUMPDEST DUP2 ADD DUP5 DUP3 DUP3 SUB SLT PUSH2 0x3A2 JUMPI DUP2 MLOAD PUSH1 0x1 PUSH1 0x1 PUSH1 0x40 SHL SUB SWAP3 DUP4 DUP3 GT PUSH2 0x11CF JUMPI ADD SWAP2 PUSH1 0x80 DUP4 DUP4 SUB SLT PUSH2 0x438 JUMPI PUSH1 0x40 MLOAD SWAP5 PUSH2 0x242F DUP7 PUSH2 0x33EF JUMP JUMPDEST DUP4 MLOAD DUP3 DUP2 GT PUSH2 0x86A JUMPI DUP4 PUSH2 0x2444 SWAP2 DUP7 ADD PUSH2 0x3671 JUMP JUMPDEST DUP7 MSTORE DUP7 DUP5 ADD MLOAD DUP3 DUP2 GT PUSH2 0x86A JUMPI DUP4 PUSH2 0x245D SWAP2 DUP7 ADD PUSH2 0x3671 JUMP JUMPDEST DUP8 DUP8 ADD MSTORE PUSH1 0x40 DUP5 ADD MLOAD SWAP2 DUP3 GT PUSH2 0x43C JUMPI POP SWAP2 PUSH2 0x247F DUP5 SWAP3 PUSH2 0x248A SWAP5 DUP4 ADD PUSH2 0x3671 JUMP JUMPDEST PUSH1 0x40 DUP7 ADD MSTORE ADD PUSH2 0x3650 JUMP JUMPDEST SWAP1 DUP3 ADD MSTORE SWAP1 PUSH0 DUP1 DUP1 PUSH2 0x23CE JUMP JUMPDEST POP CALLVALUE PUSH2 0x43C JUMPI DUP1 PUSH1 0x3 NOT CALLDATASIZE ADD SLT PUSH2 0x43C JUMPI PUSH1 0x40 MLOAD PUSH4 0x37B4779D PUSH1 0xE1 SHL DUP2 MSTORE DUP2 DUP2 PUSH1 0x4 DUP2 PUSH32 0x0 PUSH1 0x1 PUSH1 0x1 PUSH1 0xA0 SHL SUB AND GAS STATICCALL SWAP1 DUP2 ISZERO PUSH2 0x3A6 JUMPI DUP3 PUSH2 0x549 SWAP4 SWAP3 PUSH2 0x2506 JUMPI JUMPDEST POP POP PUSH1 0x40 MLOAD SWAP2 DUP3 SWAP2 DUP3 PUSH2 0x32C9 JUMP JUMPDEST PUSH2 0x2522 SWAP3 POP RETURNDATASIZE DUP1 SWAP2 DUP4 RETURNDATACOPY PUSH2 0x251A DUP2 DUP4 PUSH2 0x345C JUMP JUMPDEST DUP2 ADD SWAP1 PUSH2 0x3986 JUMP JUMPDEST PUSH0 DUP1 PUSH2 0x24F8 JUMP JUMPDEST POP CALLVALUE PUSH2 0x43C JUMPI PUSH1 0x60 CALLDATASIZE PUSH1 0x3 NOT ADD SLT PUSH2 0x43C JUMPI PUSH1 0x4 CALLDATALOAD PUSH1 0x24 CALLDATALOAD PUSH1 0x1 PUSH1 0x1 PUSH1 0x40 SHL SUB DUP2 GT PUSH2 0x3B1 JUMPI PUSH2 0x255D SWAP1 CALLDATASIZE SWAP1 PUSH1 0x4 ADD PUSH2 0x34D0 JUMP JUMPDEST PUSH1 0x44 CALLDATALOAD SWAP1 DUP2 ISZERO ISZERO DUP1 SWAP3 SUB PUSH2 0x144C JUMPI PUSH1 0x40 MLOAD PUSH4 0x79829693 PUSH1 0xE1 SHL DUP2 MSTORE PUSH1 0x4 DUP2 ADD DUP5 SWAP1 MSTORE DUP5 SWAP3 PUSH32 0x0 PUSH1 0x1 PUSH1 0x1 PUSH1 0xA0 SHL SUB AND SWAP2 DUP5 DUP2 PUSH1 0x24 DUP2 DUP7 GAS STATICCALL DUP1 ISZERO PUSH2 0x89F JUMPI PUSH2 0x25CE SWAP2 DUP7 SWAP2 PUSH2 0x266C JUMPI JUMPDEST POP MLOAD ISZERO ISZERO PUSH2 0x3AD9 JUMP JUMPDEST PUSH1 0x40 MLOAD SWAP3 PUSH2 0x25DB DUP5 PUSH2 0x33D4 JUMP JUMPDEST DUP6 DUP5 MSTORE PUSH1 0x20 DUP5 ADD MSTORE PUSH1 0x40 DUP4 ADD MSTORE DUP1 EXTCODESIZE ISZERO PUSH2 0x3B1 JUMPI PUSH2 0x2621 DUP4 SWAP3 SWAP2 DUP4 SWAP3 PUSH1 0x40 MLOAD SWAP5 DUP6 DUP1 SWAP5 DUP2 SWAP4 PUSH4 0x28A22B87 PUSH1 0xE0 SHL DUP4 MSTORE DUP11 PUSH1 0x4 DUP5 ADD MSTORE PUSH1 0x40 PUSH1 0x24 DUP5 ADD MSTORE PUSH1 0x44 DUP4 ADD SWAP1 PUSH2 0x355B JUMP JUMPDEST SUB SWAP3 GAS CALL DUP1 ISZERO PUSH2 0x3A6 JUMPI PUSH2 0x2658 JUMPI JUMPDEST POP DUP1 PUSH32 0x20611F93BB94C3DCAF404A8F60335558241AB3E3C68F6201B0E1744037220C3F SWAP2 LOG2 DUP1 RETURN JUMPDEST PUSH2 0x2661 SWAP1 PUSH2 0x33C1 JUMP JUMPDEST PUSH2 0x86A JUMPI DUP2 PUSH0 PUSH2 0x2630 JUMP JUMPDEST PUSH2 0x2680 SWAP2 POP RETURNDATASIZE DUP1 DUP9 DUP4 RETURNDATACOPY PUSH2 0x665 DUP2 DUP4 PUSH2 0x345C JUMP JUMPDEST PUSH0 PUSH2 0x25C5 JUMP JUMPDEST POP CALLVALUE PUSH2 0x43C JUMPI PUSH1 0x20 CALLDATASIZE PUSH1 0x3 NOT ADD SLT PUSH2 0x43C JUMPI PUSH1 0x20 PUSH2 0x26A5 PUSH1 0x4 CALLDATALOAD PUSH2 0x3A4E JUMP JUMPDEST PUSH1 0x40 MLOAD PUSH1 0x1 PUSH1 0x1 PUSH1 0xA0 SHL SUB SWAP1 SWAP2 AND DUP2 MSTORE RETURN JUMPDEST POP CALLVALUE PUSH2 0x43C JUMPI PUSH1 0x20 CALLDATASIZE PUSH1 0x3 NOT ADD SLT PUSH2 0x43C JUMPI PUSH1 0x4 CALLDATALOAD PUSH2 0x26D4 PUSH2 0x3FB0 JUMP JUMPDEST PUSH1 0xA DUP2 GT PUSH2 0x274C JUMPI DUP2 SWAP1 PUSH32 0x0 PUSH1 0x1 PUSH1 0x1 PUSH1 0xA0 SHL SUB AND SWAP1 DUP2 EXTCODESIZE ISZERO PUSH2 0xC8F JUMPI DUP3 SWAP2 PUSH1 0x24 DUP4 SWAP3 PUSH1 0x40 MLOAD SWAP5 DUP6 SWAP4 DUP5 SWAP3 PUSH4 0x2AAFA807 PUSH1 0xE0 SHL DUP5 MSTORE PUSH1 0x4 DUP5 ADD MSTORE GAS CALL DUP1 ISZERO PUSH2 0x3A6 JUMPI PUSH2 0x273C JUMPI POP RETURN JUMPDEST PUSH2 0x2745 SWAP1 PUSH2 0x33C1 JUMP JUMPDEST PUSH2 0x43C JUMPI DUP1 RETURN JUMPDEST PUSH1 0x40 MLOAD PUSH3 0x461BCD PUSH1 0xE5 SHL DUP2 MSTORE PUSH1 0x20 PUSH1 0x4 DUP3 ADD MSTORE PUSH1 0x14 PUSH1 0x24 DUP3 ADD MSTORE PUSH20 0xA6CAE4ECD2C6CA40CCCACA40E8DEDE40D0D2CED PUSH1 0x63 SHL PUSH1 0x44 DUP3 ADD MSTORE PUSH1 0x64 SWAP1 REVERT JUMPDEST POP CALLVALUE PUSH2 0x43C JUMPI DUP1 PUSH1 0x3 NOT CALLDATASIZE ADD SLT PUSH2 0x43C JUMPI PUSH1 0x40 MLOAD PUSH4 0x9B9D326D PUSH1 0xE0 SHL DUP2 MSTORE SWAP1 PUSH1 0x20 DUP3 PUSH1 0x4 DUP2 PUSH32 0x0 PUSH1 0x1 PUSH1 0x1 PUSH1 0xA0 SHL SUB AND GAS STATICCALL SWAP1 DUP2 ISZERO PUSH2 0x1E31 JUMPI SWAP1 PUSH2 0x27F1 JUMPI JUMPDEST PUSH1 0x20 SWAP1 PUSH1 0x40 MLOAD SWAP1 DUP2 MSTORE RETURN JUMPDEST POP PUSH1 0x20 DUP2 RETURNDATASIZE PUSH1 0x20 GT PUSH2 0x281C JUMPI JUMPDEST DUP2 PUSH2 0x280B PUSH1 0x20 SWAP4 DUP4 PUSH2 0x345C JUMP JUMPDEST DUP2 ADD SUB SLT PUSH2 0x144C JUMPI PUSH1 0x20 SWAP1 MLOAD PUSH2 0x27E6 JUMP JUMPDEST RETURNDATASIZE SWAP2 POP PUSH2 0x27FE JUMP JUMPDEST POP CALLVALUE PUSH2 0x144C JUMPI PUSH0 CALLDATASIZE PUSH1 0x3 NOT ADD SLT PUSH2 0x144C JUMPI PUSH2 0x283D PUSH2 0x3FB0 JUMP JUMPDEST PUSH0 SLOAD PUSH1 0x40 MLOAD PUSH4 0xC64B8A8F PUSH1 0xE0 SHL DUP2 MSTORE PUSH1 0x1 PUSH1 0x1 PUSH1 0xA0 SHL SUB SWAP2 DUP3 AND PUSH1 0x4 DUP3 ADD DUP2 SWAP1 MSTORE PUSH32 0x0 DUP4 AND SWAP4 SWAP3 SWAP2 PUSH1 0x20 SWAP2 SWAP1 DUP3 DUP2 PUSH1 0x24 DUP2 DUP10 GAS STATICCALL SWAP1 DUP2 ISZERO PUSH2 0x2A1D JUMPI PUSH0 SWAP2 PUSH2 0x2A28 JUMPI JUMPDEST POP ISZERO PUSH2 0x28A8 JUMPI DUP4 DUP1 RETURN JUMPDEST PUSH1 0x40 MLOAD SWAP2 PUSH2 0x28B5 DUP4 PUSH2 0x3392 JUMP JUMPDEST PUSH1 0x40 MLOAD PUSH2 0x28C1 DUP2 PUSH2 0x3441 JUMP JUMPDEST PUSH1 0x10 DUP2 MSTORE PUSH16 0x21B93CB83A37A6B0B93A1020B236B4B7 PUSH1 0x81 SHL DUP3 DUP3 ADD MSTORE DUP4 MSTORE PUSH1 0x40 MLOAD PUSH2 0x28EB DUP2 PUSH2 0x3441 JUMP JUMPDEST PUSH1 0x16 DUP2 MSTORE PUSH22 0x283630BA3337B9369020B236B4B734B9BA3930BA37B9 PUSH1 0x51 SHL DUP3 DUP3 ADD MSTORE DUP2 DUP5 ADD MSTORE PUSH20 0x61646D696E4063727970746F6D6172742E636F6D PUSH1 0x60 SHL PUSH1 0x40 MLOAD SWAP2 PUSH2 0x2936 DUP4 PUSH2 0x3441 JUMP JUMPDEST PUSH1 0x14 DUP4 MSTORE DUP3 ADD MSTORE PUSH1 0x40 DUP4 ADD MSTORE PUSH1 0x40 MLOAD PUSH2 0x294E DUP2 PUSH2 0x3426 JUMP JUMPDEST PUSH0 DUP2 MSTORE PUSH1 0x60 DUP4 ADD MSTORE PUSH1 0x40 MLOAD PUSH2 0x2962 DUP2 PUSH2 0x3426 JUMP JUMPDEST PUSH0 DUP2 MSTORE PUSH1 0x80 DUP4 ADD MSTORE PUSH1 0x1 PUSH1 0xA0 DUP4 ADD MSTORE TIMESTAMP PUSH1 0xC0 DUP4 ADD MSTORE DUP5 EXTCODESIZE ISZERO PUSH2 0x144C JUMPI PUSH1 0x40 MLOAD PUSH4 0x283A514F PUSH1 0xE1 SHL DUP2 MSTORE SWAP2 PUSH0 SWAP2 DUP4 SWAP2 DUP3 SWAP2 PUSH2 0x29A0 SWAP2 SWAP1 PUSH1 0x4 DUP5 ADD PUSH2 0x3964 JUMP JUMPDEST SUB DUP2 DUP4 DUP9 GAS CALL DUP1 ISZERO PUSH2 0x2A1D JUMPI PUSH2 0x2A0A JUMPI JUMPDEST POP SWAP2 DUP2 SWAP3 DUP3 SLOAD AND DUP2 EXTCODESIZE ISZERO PUSH2 0xC8F JUMPI DUP3 SWAP2 PUSH1 0x44 DUP4 SWAP3 PUSH1 0x40 MLOAD SWAP5 DUP6 SWAP4 DUP5 SWAP3 PUSH4 0xAA279059 PUSH1 0xE0 SHL DUP5 MSTORE PUSH1 0x4 DUP5 ADD MSTORE PUSH1 0x2 PUSH1 0x24 DUP5 ADD MSTORE GAS CALL DUP1 ISZERO PUSH2 0x3A6 JUMPI PUSH2 0x29F6 JUMPI JUMPDEST DUP1 DUP1 DUP4 DUP1 RETURN JUMPDEST PUSH2 0x29FF SWAP1 PUSH2 0x33C1 JUMP JUMPDEST PUSH2 0x43C JUMPI DUP1 PUSH0 PUSH2 0x29F0 JUMP JUMPDEST PUSH2 0x2A15 SWAP2 SWAP3 POP PUSH2 0x33C1 JUMP JUMPDEST PUSH0 SWAP1 PUSH0 PUSH2 0x29B1 JUMP JUMPDEST PUSH1 0x40 MLOAD RETURNDATASIZE PUSH0 DUP3 RETURNDATACOPY RETURNDATASIZE SWAP1 REVERT JUMPDEST SWAP1 POP DUP3 DUP2 DUP2 RETURNDATASIZE DUP4 GT PUSH2 0x2A56 JUMPI JUMPDEST PUSH2 0x2A3F DUP2 DUP4 PUSH2 0x345C JUMP JUMPDEST DUP2 ADD SUB SLT PUSH2 0x144C JUMPI PUSH2 0x2A50 SWAP1 PUSH2 0x3650 JUMP JUMPDEST PUSH0 PUSH2 0x289E JUMP JUMPDEST POP RETURNDATASIZE PUSH2 0x2A35 JUMP JUMPDEST CALLVALUE PUSH2 0x144C JUMPI PUSH1 0x20 CALLDATASIZE PUSH1 0x3 NOT ADD SLT PUSH2 0x144C JUMPI PUSH1 0x24 PUSH0 PUSH2 0x2A79 PUSH2 0x31E8 JUMP JUMPDEST PUSH2 0x2A81 PUSH2 0x383F JUMP JUMPDEST POP PUSH1 0x40 MLOAD PUSH4 0x5191E94F PUSH1 0xE1 SHL DUP2 MSTORE PUSH1 0x1 PUSH1 0x1 PUSH1 0xA0 SHL SUB SWAP2 DUP3 AND PUSH1 0x4 DUP3 ADD MSTORE SWAP3 DUP4 SWAP2 DUP3 SWAP1 PUSH32 0x0 AND GAS STATICCALL DUP1 ISZERO PUSH2 0x2A1D JUMPI PUSH2 0x549 SWAP2 PUSH0 SWAP2 PUSH2 0x2AEE JUMPI JUMPDEST POP PUSH1 0x40 MLOAD SWAP2 DUP3 SWAP2 PUSH1 0x20 DUP4 MSTORE PUSH1 0x20 DUP4 ADD SWAP1 PUSH2 0x3249 JUMP JUMPDEST PUSH2 0x2B02 SWAP2 POP RETURNDATASIZE DUP1 PUSH0 DUP4 RETURNDATACOPY PUSH2 0xDE4 DUP2 DUP4 PUSH2 0x345C JUMP JUMPDEST POP DUP3 PUSH2 0x2AD9 JUMP JUMPDEST CALLVALUE PUSH2 0x144C JUMPI PUSH2 0x1A PUSH2 0x2B1A CALLDATASIZE PUSH2 0x3214 JUMP JUMPDEST SWAP1 PUSH1 0x40 MLOAD SWAP3 PUSH2 0x2B28 DUP5 PUSH2 0x3426 JUMP JUMPDEST PUSH0 DUP5 MSTORE PUSH2 0x3B1F JUMP JUMPDEST CALLVALUE PUSH2 0x144C JUMPI PUSH2 0x1A PUSH2 0x2B41 CALLDATASIZE PUSH2 0x3214 JUMP JUMPDEST SWAP2 PUSH2 0x2B54 PUSH2 0x2B4F DUP5 CALLER PUSH2 0x3DE0 JUMP JUMPDEST PUSH2 0x37DD JUMP JUMPDEST PUSH2 0x3EA4 JUMP JUMPDEST CALLVALUE PUSH2 0x144C JUMPI PUSH0 CALLDATASIZE PUSH1 0x3 NOT ADD SLT PUSH2 0x144C JUMPI PUSH1 0x40 MLOAD PUSH4 0x3302FFB3 PUSH1 0xE1 SHL DUP2 MSTORE PUSH1 0x20 DUP2 PUSH1 0x4 DUP2 PUSH32 0x0 PUSH1 0x1 PUSH1 0x1 PUSH1 0xA0 SHL SUB AND GAS STATICCALL DUP1 ISZERO PUSH2 0x2A1D JUMPI PUSH0 SWAP1 PUSH2 0x27F1 JUMPI PUSH1 0x20 SWAP1 PUSH1 0x40 MLOAD SWAP1 DUP2 MSTORE RETURN JUMPDEST CALLVALUE PUSH2 0x144C JUMPI PUSH0 CALLDATASIZE PUSH1 0x3 NOT ADD SLT PUSH2 0x144C JUMPI PUSH1 0x40 MLOAD PUSH32 0x0 PUSH1 0x1 PUSH1 0x1 PUSH1 0xA0 SHL SUB AND DUP2 MSTORE PUSH1 0x20 SWAP1 RETURN JUMPDEST CALLVALUE PUSH2 0x144C JUMPI PUSH1 0x40 CALLDATASIZE PUSH1 0x3 NOT ADD SLT PUSH2 0x144C JUMPI PUSH2 0x2C1C PUSH2 0x31E8 JUMP JUMPDEST PUSH1 0x24 CALLDATALOAD SWAP1 PUSH1 0x1 PUSH1 0x1 PUSH1 0xA0 SHL SUB DUP1 DUP1 PUSH2 0x2C33 DUP6 PUSH2 0x3A4E JUMP JUMPDEST AND SWAP3 AND SWAP2 DUP1 DUP4 EQ PUSH2 0x2D28 JUMPI DUP1 CALLER EQ SWAP1 DUP2 ISZERO PUSH2 0x2D07 JUMPI JUMPDEST POP ISZERO PUSH2 0x2C9C JUMPI PUSH0 DUP4 DUP2 MSTORE PUSH1 0x6 PUSH1 0x20 MSTORE PUSH1 0x40 SWAP1 KECCAK256 DUP1 SLOAD PUSH1 0x1 PUSH1 0x1 PUSH1 0xA0 SHL SUB NOT AND DUP4 OR SWAP1 SSTORE PUSH2 0x2C75 DUP4 PUSH2 0x3A4E JUMP JUMPDEST AND PUSH32 0x8C5BE1E5EBEC7D5BD14F71427D1E84F3DD0314C0F7B2291E5B200AC8C7C3B925 PUSH0 DUP1 LOG4 STOP JUMPDEST PUSH1 0x40 MLOAD PUSH3 0x461BCD PUSH1 0xE5 SHL DUP2 MSTORE PUSH1 0x20 PUSH1 0x4 DUP3 ADD MSTORE PUSH1 0x3D PUSH1 0x24 DUP3 ADD MSTORE PUSH32 0x4552433732313A20617070726F76652063616C6C6572206973206E6F7420746F PUSH1 0x44 DUP3 ADD MSTORE PUSH32 0x6B656E206F776E6572206F7220617070726F76656420666F7220616C6C000000 PUSH1 0x64 DUP3 ADD MSTORE PUSH1 0x84 SWAP1 REVERT JUMPDEST SWAP1 POP PUSH0 MSTORE PUSH1 0x7 PUSH1 0x20 MSTORE PUSH1 0x40 PUSH0 KECCAK256 CALLER PUSH0 MSTORE PUSH1 0x20 MSTORE PUSH1 0xFF PUSH1 0x40 PUSH0 KECCAK256 SLOAD AND DUP5 PUSH2 0x2C49 JUMP JUMPDEST PUSH1 0x40 MLOAD PUSH3 0x461BCD PUSH1 0xE5 SHL DUP2 MSTORE PUSH1 0x20 PUSH1 0x4 DUP3 ADD MSTORE PUSH1 0x21 PUSH1 0x24 DUP3 ADD MSTORE PUSH32 0x4552433732313A20617070726F76616C20746F2063757272656E74206F776E65 PUSH1 0x44 DUP3 ADD MSTORE PUSH1 0x39 PUSH1 0xF9 SHL PUSH1 0x64 DUP3 ADD MSTORE PUSH1 0x84 SWAP1 REVERT JUMPDEST CALLVALUE PUSH2 0x144C JUMPI PUSH1 0x20 CALLDATASIZE PUSH1 0x3 NOT ADD SLT PUSH2 0x144C JUMPI PUSH1 0x20 PUSH2 0x26A5 PUSH1 0x4 CALLDATALOAD PUSH2 0x37BA JUMP JUMPDEST CALLVALUE PUSH2 0x144C JUMPI PUSH0 CALLDATASIZE PUSH1 0x3 NOT ADD SLT PUSH2 0x144C JUMPI PUSH1 0x40 MLOAD PUSH0 PUSH1 0x2 SLOAD SWAP1 PUSH1 0x1 DUP3 PUSH1 0x1 SHR SWAP2 PUSH1 0x1 DUP5 AND SWAP2 DUP3 ISZERO PUSH2 0x2E62 JUMPI JUMPDEST PUSH1 0x20 SWAP5 DUP6 DUP6 LT DUP5 EQ PUSH2 0x2E4E JUMPI DUP6 DUP8 SWAP5 DUP7 DUP7 MSTORE SWAP2 DUP3 PUSH0 EQ PUSH2 0x2E2E JUMPI POP POP PUSH1 0x1 EQ PUSH2 0x2DF1 JUMPI JUMPDEST POP PUSH2 0x1996 SWAP3 POP SUB DUP4 PUSH2 0x345C JUMP JUMPDEST DUP5 SWAP2 POP PUSH1 0x2 PUSH0 MSTORE DUP2 PUSH0 KECCAK256 SWAP1 PUSH0 SWAP2 JUMPDEST DUP6 DUP4 LT PUSH2 0x2E16 JUMPI POP POP PUSH2 0x1996 SWAP4 POP DUP3 ADD ADD DUP6 PUSH2 0x2DE4 JUMP JUMPDEST DUP1 SLOAD DUP4 DUP10 ADD DUP6 ADD MSTORE DUP8 SWAP5 POP DUP7 SWAP4 SWAP1 SWAP3 ADD SWAP2 DUP2 ADD PUSH2 0x2DFF JUMP JUMPDEST PUSH1 0xFF NOT AND DUP6 DUP3 ADD MSTORE PUSH2 0x1996 SWAP6 ISZERO ISZERO PUSH1 0x5 SHL DUP6 ADD ADD SWAP3 POP DUP8 SWAP2 POP PUSH2 0x2DE4 SWAP1 POP JUMP JUMPDEST PUSH4 0x4E487B71 PUSH1 0xE0 SHL PUSH0 MSTORE PUSH1 0x22 PUSH1 0x4 MSTORE PUSH1 0x24 PUSH0 REVERT JUMPDEST SWAP3 PUSH1 0x7F AND SWAP3 PUSH2 0x2DC0 JUMP JUMPDEST CALLVALUE PUSH2 0x144C JUMPI PUSH0 CALLDATASIZE PUSH1 0x3 NOT ADD SLT PUSH2 0x144C JUMPI PUSH1 0x40 MLOAD PUSH4 0x9B9D326D PUSH1 0xE0 SHL DUP2 MSTORE PUSH32 0x0 PUSH1 0x1 PUSH1 0x1 PUSH1 0xA0 SHL SUB AND SWAP1 PUSH1 0x20 SWAP1 DUP2 DUP2 PUSH1 0x4 DUP2 DUP7 GAS STATICCALL SWAP1 DUP2 ISZERO PUSH2 0x2A1D JUMPI PUSH0 SWAP2 PUSH2 0x3013 JUMPI JUMPDEST POP PUSH2 0x2ED7 DUP2 PUSH2 0x35DF JUMP JUMPDEST SWAP2 PUSH0 SWAP2 PUSH1 0x1 SWAP5 PUSH1 0x1 JUMPDEST DUP3 DUP2 GT ISZERO PUSH2 0x2F36 JUMPI POP POP POP POP PUSH2 0x2EF5 DUP2 PUSH2 0x35DF JUMP JUMPDEST SWAP2 PUSH0 JUMPDEST DUP3 DUP2 LT PUSH2 0x2F0D JUMPI PUSH1 0x40 MLOAD DUP1 PUSH2 0x549 DUP7 DUP3 PUSH2 0x3185 JUMP JUMPDEST DUP1 PUSH2 0x2F19 DUP7 SWAP3 DUP5 PUSH2 0x3792 JUMP JUMPDEST MLOAD PUSH2 0x2F24 DUP3 DUP8 PUSH2 0x3792 JUMP JUMPDEST MSTORE PUSH2 0x2F2F DUP2 DUP7 PUSH2 0x3792 JUMP JUMPDEST POP ADD PUSH2 0x2EF8 JUMP JUMPDEST PUSH1 0x40 MLOAD PUSH4 0x2BD57B59 PUSH1 0xE2 SHL DUP2 MSTORE PUSH1 0x4 DUP2 ADD DUP3 SWAP1 MSTORE PUSH1 0x24 SWAP1 DUP6 DUP2 DUP4 DUP2 DUP8 GAS STATICCALL SWAP1 DUP2 ISZERO PUSH2 0x2A1D JUMPI PUSH0 SWAP2 PUSH2 0x2FDE JUMPI JUMPDEST POP PUSH2 0x2F77 JUMPI JUMPDEST POP PUSH2 0x2F72 SWAP1 PUSH2 0x362E JUMP JUMPDEST PUSH2 0x2EE0 JUMP JUMPDEST PUSH0 PUSH1 0x40 MLOAD DUP1 SWAP3 PUSH4 0x2E76C56D PUSH1 0xE2 SHL DUP3 MSTORE DUP5 PUSH1 0x4 DUP4 ADD MSTORE DUP2 DUP7 GAS STATICCALL SWAP1 DUP2 ISZERO PUSH2 0x2A1D JUMPI PUSH0 SWAP2 PUSH2 0x2FC4 JUMPI JUMPDEST POP PUSH2 0x120 DUP2 ADD MLOAD PUSH2 0x2F68 JUMPI DUP6 PUSH2 0x2FBD SWAP2 PUSH2 0x1615 PUSH2 0x2F72 SWAP5 SWAP9 DUP11 PUSH2 0x3792 JUMP JUMPDEST SWAP5 SWAP1 PUSH2 0x2F68 JUMP JUMPDEST PUSH2 0x2FD8 SWAP2 POP RETURNDATASIZE DUP1 PUSH0 DUP4 RETURNDATACOPY PUSH2 0x522 DUP2 DUP4 PUSH2 0x345C JUMP JUMPDEST DUP9 PUSH2 0x2F9F JUMP JUMPDEST SWAP1 POP DUP6 DUP2 DUP2 RETURNDATASIZE DUP4 GT PUSH2 0x300C JUMPI JUMPDEST PUSH2 0x2FF5 DUP2 DUP4 PUSH2 0x345C JUMP JUMPDEST DUP2 ADD SUB SLT PUSH2 0x144C JUMPI PUSH2 0x3006 SWAP1 PUSH2 0x3650 JUMP JUMPDEST DUP10 PUSH2 0x2F62 JUMP JUMPDEST POP RETURNDATASIZE PUSH2 0x2FEB JUMP JUMPDEST SWAP1 POP DUP2 DUP2 DUP2 RETURNDATASIZE DUP4 GT PUSH2 0x3039 JUMPI JUMPDEST PUSH2 0x302A DUP2 DUP4 PUSH2 0x345C JUMP JUMPDEST DUP2 ADD SUB SLT PUSH2 0x144C JUMPI MLOAD DUP4 PUSH2 0x2ECD JUMP JUMPDEST POP RETURNDATASIZE PUSH2 0x3020 JUMP JUMPDEST CALLVALUE PUSH2 0x144C JUMPI PUSH1 0x20 CALLDATASIZE PUSH1 0x3 NOT ADD SLT PUSH2 0x144C JUMPI PUSH1 0x4 CALLDATALOAD SWAP1 PUSH4 0xFFFFFFFF PUSH1 0xE0 SHL DUP3 AND DUP1 SWAP3 SUB PUSH2 0x144C JUMPI PUSH1 0x20 SWAP2 PUSH4 0x80AC58CD PUSH1 0xE0 SHL DUP2 EQ SWAP1 DUP2 ISZERO PUSH2 0x309A JUMPI JUMPDEST DUP2 ISZERO PUSH2 0x3089 JUMPI JUMPDEST POP ISZERO ISZERO DUP2 MSTORE RETURN JUMPDEST PUSH4 0x1FFC9A7 PUSH1 0xE0 SHL EQ SWAP1 POP DUP4 PUSH2 0x3082 JUMP JUMPDEST PUSH4 0x5B5E139F PUSH1 0xE0 SHL DUP2 EQ SWAP2 POP PUSH2 0x307B JUMP JUMPDEST PUSH0 JUMPDEST DUP4 DUP2 LT PUSH2 0x30BC JUMPI POP POP PUSH0 SWAP2 ADD MSTORE JUMP JUMPDEST DUP2 DUP2 ADD MLOAD DUP4 DUP3 ADD MSTORE PUSH1 0x20 ADD PUSH2 0x30AD JUMP JUMPDEST SWAP1 PUSH1 0x20 SWAP2 PUSH2 0x30E5 DUP2 MLOAD DUP1 SWAP3 DUP2 DUP6 MSTORE DUP6 DUP1 DUP7 ADD SWAP2 ADD PUSH2 0x30AB JUMP JUMPDEST PUSH1 0x1F ADD PUSH1 0x1F NOT AND ADD ADD SWAP1 JUMP JUMPDEST SWAP1 PUSH2 0x314C PUSH2 0x313A PUSH2 0x3128 PUSH2 0x140 DUP6 MLOAD DUP6 MSTORE PUSH1 0x1 DUP1 PUSH1 0xA0 SHL SUB PUSH1 0x20 DUP8 ADD MLOAD AND PUSH1 0x20 DUP7 ADD MSTORE PUSH1 0x40 DUP7 ADD MLOAD SWAP1 DUP1 PUSH1 0x40 DUP8 ADD MSTORE DUP6 ADD SWAP1 PUSH2 0x30CC JUMP JUMPDEST PUSH1 0x60 DUP6 ADD MLOAD DUP5 DUP3 SUB PUSH1 0x60 DUP7 ADD MSTORE PUSH2 0x30CC JUMP JUMPDEST PUSH1 0x80 DUP5 ADD MLOAD DUP4 DUP3 SUB PUSH1 0x80 DUP6 ADD MSTORE PUSH2 0x30CC JUMP JUMPDEST SWAP2 PUSH1 0xA0 DUP2 ADD MLOAD PUSH1 0xA0 DUP4 ADD MSTORE PUSH1 0xC0 DUP2 ADD MLOAD PUSH1 0xC0 DUP4 ADD MSTORE PUSH1 0xE0 DUP2 ADD MLOAD PUSH1 0xE0 DUP4 ADD MSTORE PUSH2 0x100 DUP1 DUP3 ADD MLOAD SWAP1 DUP4 ADD MSTORE PUSH2 0x120 DUP1 SWAP2 ADD MLOAD ISZERO ISZERO SWAP2 ADD MSTORE SWAP1 JUMP JUMPDEST PUSH1 0x20 DUP1 DUP3 ADD SWAP1 PUSH1 0x20 DUP4 MSTORE DUP4 MLOAD DUP1 SWAP3 MSTORE PUSH1 0x40 DUP4 ADD SWAP3 PUSH1 0x20 PUSH1 0x40 DUP5 PUSH1 0x5 SHL DUP4 ADD ADD SWAP6 ADD SWAP4 PUSH0 SWAP2 JUMPDEST DUP5 DUP4 LT PUSH2 0x31BA JUMPI POP POP POP POP POP POP SWAP1 JUMP JUMPDEST SWAP1 SWAP2 SWAP3 SWAP4 SWAP5 SWAP6 DUP5 DUP1 PUSH2 0x31D8 PUSH1 0x1 SWAP4 PUSH1 0x3F NOT DUP7 DUP3 SUB ADD DUP8 MSTORE DUP11 MLOAD PUSH2 0x30F1 JUMP JUMPDEST SWAP9 ADD SWAP4 ADD SWAP4 ADD SWAP2 SWAP5 SWAP4 SWAP3 SWAP1 PUSH2 0x31AA JUMP JUMPDEST PUSH1 0x4 CALLDATALOAD SWAP1 PUSH1 0x1 PUSH1 0x1 PUSH1 0xA0 SHL SUB DUP3 AND DUP3 SUB PUSH2 0x144C JUMPI JUMP JUMPDEST PUSH1 0x24 CALLDATALOAD SWAP1 PUSH1 0x1 PUSH1 0x1 PUSH1 0xA0 SHL SUB DUP3 AND DUP3 SUB PUSH2 0x144C JUMPI JUMP JUMPDEST PUSH1 0x60 SWAP1 PUSH1 0x3 NOT ADD SLT PUSH2 0x144C JUMPI PUSH1 0x1 PUSH1 0x1 PUSH1 0xA0 SHL SUB SWAP1 PUSH1 0x4 CALLDATALOAD DUP3 DUP2 AND DUP2 SUB PUSH2 0x144C JUMPI SWAP2 PUSH1 0x24 CALLDATALOAD SWAP1 DUP2 AND DUP2 SUB PUSH2 0x144C JUMPI SWAP1 PUSH1 0x44 CALLDATALOAD SWAP1 JUMP JUMPDEST SWAP1 PUSH1 0xC0 DUP1 PUSH2 0x32B4 PUSH2 0x32A2 PUSH2 0x3290 PUSH2 0x327E PUSH2 0x326C DUP9 MLOAD PUSH1 0xE0 DUP10 MSTORE PUSH1 0xE0 DUP10 ADD SWAP1 PUSH2 0x30CC JUMP JUMPDEST PUSH1 0x20 DUP10 ADD MLOAD DUP9 DUP3 SUB PUSH1 0x20 DUP11 ADD MSTORE PUSH2 0x30CC JUMP JUMPDEST PUSH1 0x40 DUP9 ADD MLOAD DUP8 DUP3 SUB PUSH1 0x40 DUP10 ADD MSTORE PUSH2 0x30CC JUMP JUMPDEST PUSH1 0x60 DUP8 ADD MLOAD DUP7 DUP3 SUB PUSH1 0x60 DUP9 ADD MSTORE PUSH2 0x30CC JUMP JUMPDEST PUSH1 0x80 DUP7 ADD MLOAD DUP6 DUP3 SUB PUSH1 0x80 DUP8 ADD MSTORE PUSH2 0x30CC JUMP JUMPDEST SWAP4 PUSH1 0xA0 DUP2 ADD MLOAD ISZERO ISZERO PUSH1 0xA0 DUP6 ADD MSTORE ADD MLOAD SWAP2 ADD MSTORE SWAP1 JUMP JUMPDEST PUSH1 0x20 SWAP1 PUSH1 0x20 PUSH1 0x40 DUP2 DUP4 ADD SWAP3 DUP3 DUP2 MSTORE DUP6 MLOAD DUP1 SWAP5 MSTORE ADD SWAP4 ADD SWAP2 PUSH0 JUMPDEST DUP3 DUP2 LT PUSH2 0x32F0 JUMPI POP POP POP POP SWAP1 JUMP JUMPDEST DUP4 MLOAD PUSH1 0x1 PUSH1 0x1 PUSH1 0xA0 SHL SUB AND DUP6 MSTORE SWAP4 DUP2 ADD SWAP4 SWAP3 DUP2 ADD SWAP3 PUSH1 0x1 ADD PUSH2 0x32E2 JUMP JUMPDEST CALLVALUE PUSH2 0x144C JUMPI PUSH0 CALLDATASIZE PUSH1 0x3 NOT ADD SLT PUSH2 0x144C JUMPI PUSH1 0x40 MLOAD PUSH3 0xB5AD4B PUSH1 0xE7 SHL DUP2 MSTORE PUSH0 DUP2 PUSH1 0x4 DUP2 PUSH32 0x0 PUSH1 0x1 PUSH1 0x1 PUSH1 0xA0 SHL SUB AND GAS STATICCALL DUP1 ISZERO PUSH2 0x2A1D JUMPI PUSH2 0x549 SWAP2 PUSH0 SWAP2 PUSH2 0x3378 JUMPI JUMPDEST POP PUSH1 0x40 MLOAD SWAP2 DUP3 SWAP2 DUP3 PUSH2 0x32C9 JUMP JUMPDEST PUSH2 0x338C SWAP2 POP RETURNDATASIZE DUP1 PUSH0 DUP4 RETURNDATACOPY PUSH2 0x251A DUP2 DUP4 PUSH2 0x345C JUMP JUMPDEST PUSH0 PUSH2 0x336B JUMP JUMPDEST PUSH1 0xE0 DUP2 ADD SWAP1 DUP2 LT PUSH1 0x1 PUSH1 0x1 PUSH1 0x40 SHL SUB DUP3 GT OR PUSH2 0x33AD JUMPI PUSH1 0x40 MSTORE JUMP JUMPDEST PUSH4 0x4E487B71 PUSH1 0xE0 SHL PUSH0 MSTORE PUSH1 0x41 PUSH1 0x4 MSTORE PUSH1 0x24 PUSH0 REVERT JUMPDEST PUSH1 0x1 PUSH1 0x1 PUSH1 0x40 SHL SUB DUP2 GT PUSH2 0x33AD JUMPI PUSH1 0x40 MSTORE JUMP JUMPDEST PUSH1 0x60 DUP2 ADD SWAP1 DUP2 LT PUSH1 0x1 PUSH1 0x1 PUSH1 0x40 SHL SUB DUP3 GT OR PUSH2 0x33AD JUMPI PUSH1 0x40 MSTORE JUMP JUMPDEST PUSH1 0x80 DUP2 ADD SWAP1 DUP2 LT PUSH1 0x1 PUSH1 0x1 PUSH1 0x40 SHL SUB DUP3 GT OR PUSH2 0x33AD JUMPI PUSH1 0x40 MSTORE JUMP JUMPDEST PUSH2 0x140 DUP2 ADD SWAP1 DUP2 LT PUSH1 0x1 PUSH1 0x1 PUSH1 0x40 SHL SUB DUP3 GT OR PUSH2 0x33AD JUMPI PUSH1 0x40 MSTORE JUMP JUMPDEST PUSH1 0x20 DUP2 ADD SWAP1 DUP2 LT PUSH1 0x1 PUSH1 0x1 PUSH1 0x40 SHL SUB DUP3 GT OR PUSH2 0x33AD JUMPI PUSH1 0x40 MSTORE JUMP JUMPDEST PUSH1 0x40 DUP2 ADD SWAP1 DUP2 LT PUSH1 0x1 PUSH1 0x1 PUSH1 0x40 SHL SUB DUP3 GT OR PUSH2 0x33AD JUMPI PUSH1 0x40 MSTORE JUMP JUMPDEST PUSH1 0x1F SWAP1 SWAP2 ADD PUSH1 0x1F NOT AND DUP2 ADD SWAP1 PUSH1 0x1 PUSH1 0x1 PUSH1 0x40 SHL SUB DUP3 GT SWAP1 DUP3 LT OR PUSH2 0x33AD JUMPI PUSH1 0x40 MSTORE JUMP JUMPDEST PUSH1 0x1 PUSH1 0x1 PUSH1 0x40 SHL SUB DUP2 GT PUSH2 0x33AD JUMPI PUSH1 0x1F ADD PUSH1 0x1F NOT AND PUSH1 0x20 ADD SWAP1 JUMP JUMPDEST SWAP3 SWAP2 SWAP3 PUSH2 0x34A6 DUP3 PUSH2 0x347F JUMP JUMPDEST SWAP2 PUSH2 0x34B4 PUSH1 0x40 MLOAD SWAP4 DUP5 PUSH2 0x345C JUMP JUMPDEST DUP3 SWAP5 DUP2 DUP5 MSTORE DUP2 DUP4 ADD GT PUSH2 0x144C JUMPI DUP3 DUP2 PUSH1 0x20 SWAP4 DUP5 PUSH0 SWAP7 ADD CALLDATACOPY ADD ADD MSTORE JUMP JUMPDEST SWAP1 DUP1 PUSH1 0x1F DUP4 ADD SLT ISZERO PUSH2 0x144C JUMPI DUP2 PUSH1 0x20 PUSH2 0x34EB SWAP4 CALLDATALOAD SWAP2 ADD PUSH2 0x349A JUMP JUMPDEST SWAP1 JUMP JUMPDEST SWAP1 PUSH1 0x60 DUP1 PUSH2 0x352F PUSH2 0x351D PUSH2 0x350B DUP7 MLOAD PUSH1 0x80 DUP8 MSTORE PUSH1 0x80 DUP8 ADD SWAP1 PUSH2 0x30CC JUMP JUMPDEST PUSH1 0x20 DUP8 ADD MLOAD DUP7 DUP3 SUB PUSH1 0x20 DUP9 ADD MSTORE PUSH2 0x30CC JUMP JUMPDEST PUSH1 0x40 DUP7 ADD MLOAD DUP6 DUP3 SUB PUSH1 0x40 DUP8 ADD MSTORE PUSH2 0x30CC JUMP JUMPDEST SWAP4 ADD MLOAD ISZERO ISZERO SWAP2 ADD MSTORE SWAP1 JUMP JUMPDEST SWAP1 PUSH1 0x4 DUP3 LT ISZERO PUSH2 0x3547 JUMPI MSTORE JUMP JUMPDEST PUSH4 0x4E487B71 PUSH1 0xE0 SHL PUSH0 MSTORE PUSH1 0x21 PUSH1 0x4 MSTORE PUSH1 0x24 PUSH0 REVERT JUMPDEST SWAP1 DUP2 MLOAD DUP2 MSTORE PUSH1 0x40 DUP1 PUSH2 0x352F PUSH1 0x20 DUP6 ADD MLOAD PUSH1 0x60 PUSH1 0x20 DUP7 ADD MSTORE PUSH1 0x60 DUP6 ADD SWAP1 PUSH2 0x30CC JUMP JUMPDEST PUSH1 0x1 PUSH1 0x1 PUSH1 0x40 SHL SUB DUP2 GT PUSH2 0x33AD JUMPI PUSH1 0x5 SHL PUSH1 0x20 ADD SWAP1 JUMP JUMPDEST PUSH1 0x40 MLOAD SWAP1 PUSH2 0x35A0 DUP3 PUSH2 0x340A JUMP JUMPDEST PUSH0 PUSH2 0x120 DUP4 DUP3 DUP2 MSTORE DUP3 PUSH1 0x20 DUP3 ADD MSTORE PUSH1 0x60 PUSH1 0x40 DUP3 ADD MSTORE PUSH1 0x60 DUP1 DUP3 ADD MSTORE PUSH1 0x60 PUSH1 0x80 DUP3 ADD MSTORE DUP3 PUSH1 0xA0 DUP3 ADD MSTORE DUP3 PUSH1 0xC0 DUP3 ADD MSTORE DUP3 PUSH1 0xE0 DUP3 ADD MSTORE DUP3 PUSH2 0x100 DUP3 ADD MSTORE ADD MSTORE JUMP JUMPDEST SWAP1 PUSH2 0x35E9 DUP3 PUSH2 0x357C JUMP JUMPDEST PUSH2 0x35F6 PUSH1 0x40 MLOAD SWAP2 DUP3 PUSH2 0x345C JUMP JUMPDEST DUP3 DUP2 MSTORE DUP1 SWAP3 PUSH2 0x3607 PUSH1 0x1F NOT SWAP2 PUSH2 0x357C JUMP JUMPDEST ADD SWAP1 PUSH0 JUMPDEST DUP3 DUP2 LT PUSH2 0x3617 JUMPI POP POP POP JUMP JUMPDEST PUSH1 0x20 SWAP1 PUSH2 0x3622 PUSH2 0x3593 JUMP JUMPDEST DUP3 DUP3 DUP6 ADD ADD MSTORE ADD PUSH2 0x360B JUMP JUMPDEST PUSH0 NOT DUP2 EQ PUSH2 0x363C JUMPI PUSH1 0x1 ADD SWAP1 JUMP JUMPDEST PUSH4 0x4E487B71 PUSH1 0xE0 SHL PUSH0 MSTORE PUSH1 0x11 PUSH1 0x4 MSTORE PUSH1 0x24 PUSH0 REVERT JUMPDEST MLOAD SWAP1 DUP2 ISZERO ISZERO DUP3 SUB PUSH2 0x144C JUMPI JUMP JUMPDEST MLOAD SWAP1 PUSH1 0x1 PUSH1 0x1 PUSH1 0xA0 SHL SUB DUP3 AND DUP3 SUB PUSH2 0x144C JUMPI JUMP JUMPDEST DUP2 PUSH1 0x1F DUP3 ADD SLT ISZERO PUSH2 0x144C JUMPI DUP1 MLOAD PUSH2 0x3687 DUP2 PUSH2 0x347F JUMP JUMPDEST SWAP3 PUSH2 0x3695 PUSH1 0x40 MLOAD SWAP5 DUP6 PUSH2 0x345C JUMP JUMPDEST DUP2 DUP5 MSTORE PUSH1 0x20 DUP3 DUP5 ADD ADD GT PUSH2 0x144C JUMPI PUSH2 0x34EB SWAP2 PUSH1 0x20 DUP1 DUP6 ADD SWAP2 ADD PUSH2 0x30AB JUMP JUMPDEST PUSH1 0x20 DUP2 DUP4 SUB SLT PUSH2 0x144C JUMPI DUP1 MLOAD PUSH1 0x1 PUSH1 0x1 PUSH1 0x40 SHL SUB SWAP2 DUP3 DUP3 GT PUSH2 0x144C JUMPI ADD SWAP1 PUSH2 0x140 DUP3 DUP5 SUB SLT PUSH2 0x144C JUMPI PUSH1 0x40 MLOAD SWAP3 PUSH2 0x36E9 DUP5 PUSH2 0x340A JUMP JUMPDEST DUP3 MLOAD DUP5 MSTORE PUSH2 0x36F9 PUSH1 0x20 DUP5 ADD PUSH2 0x365D JUMP JUMPDEST PUSH1 0x20 DUP6 ADD MSTORE PUSH1 0x40 DUP4 ADD MLOAD DUP3 DUP2 GT PUSH2 0x144C JUMPI DUP2 PUSH2 0x3716 SWAP2 DUP6 ADD PUSH2 0x3671 JUMP JUMPDEST PUSH1 0x40 DUP6 ADD MSTORE PUSH1 0x60 DUP4 ADD MLOAD DUP3 DUP2 GT PUSH2 0x144C JUMPI DUP2 PUSH2 0x3733 SWAP2 DUP6 ADD PUSH2 0x3671 JUMP JUMPDEST PUSH1 0x60 DUP6 ADD MSTORE PUSH1 0x80 DUP4 ADD MLOAD SWAP2 DUP3 GT PUSH2 0x144C JUMPI PUSH2 0x374F SWAP2 DUP4 ADD PUSH2 0x3671 JUMP JUMPDEST PUSH1 0x80 DUP4 ADD MSTORE PUSH1 0xA0 DUP2 ADD MLOAD PUSH1 0xA0 DUP4 ADD MSTORE PUSH1 0xC0 DUP2 ADD MLOAD PUSH1 0xC0 DUP4 ADD MSTORE PUSH1 0xE0 DUP2 ADD MLOAD PUSH1 0xE0 DUP4 ADD MSTORE PUSH2 0x100 DUP1 DUP3 ADD MLOAD SWAP1 DUP4 ADD MSTORE PUSH2 0x378B PUSH2 0x120 DUP1 SWAP3 ADD PUSH2 0x3650 JUMP JUMPDEST SWAP1 DUP3 ADD MSTORE SWAP1 JUMP JUMPDEST DUP1 MLOAD DUP3 LT ISZERO PUSH2 0x37A6 JUMPI PUSH1 0x20 SWAP2 PUSH1 0x5 SHL ADD ADD SWAP1 JUMP JUMPDEST PUSH4 0x4E487B71 PUSH1 0xE0 SHL PUSH0 MSTORE PUSH1 0x32 PUSH1 0x4 MSTORE PUSH1 0x24 PUSH0 REVERT JUMPDEST PUSH2 0x37C3 DUP2 PUSH2 0x3DBC JUMP JUMPDEST PUSH0 SWAP1 DUP2 MSTORE PUSH1 0x6 PUSH1 0x20 MSTORE PUSH1 0x40 SWAP1 KECCAK256 SLOAD PUSH1 0x1 PUSH1 0x1 PUSH1 0xA0 SHL SUB AND SWAP1 JUMP JUMPDEST ISZERO PUSH2 0x37E4 JUMPI JUMP JUMPDEST PUSH1 0x40 MLOAD PUSH3 0x461BCD PUSH1 0xE5 SHL DUP2 MSTORE PUSH1 0x20 PUSH1 0x4 DUP3 ADD MSTORE PUSH1 0x2D PUSH1 0x24 DUP3 ADD MSTORE PUSH32 0x4552433732313A2063616C6C6572206973206E6F7420746F6B656E206F776E65 PUSH1 0x44 DUP3 ADD MSTORE PUSH13 0x1C881BDC88185C1C1C9BDD9959 PUSH1 0x9A SHL PUSH1 0x64 DUP3 ADD MSTORE PUSH1 0x84 SWAP1 REVERT JUMPDEST PUSH1 0x40 MLOAD SWAP1 PUSH2 0x384C DUP3 PUSH2 0x3392 JUMP JUMPDEST PUSH0 PUSH1 0xC0 DUP4 PUSH1 0x60 DUP1 DUP3 MSTORE DUP1 PUSH1 0x20 DUP4 ADD MSTORE DUP1 PUSH1 0x40 DUP4 ADD MSTORE DUP1 DUP1 DUP4 ADD MSTORE PUSH1 0x80 DUP3 ADD MSTORE DUP3 PUSH1 0xA0 DUP3 ADD MSTORE ADD MSTORE JUMP JUMPDEST SWAP2 SWAP1 PUSH1 0x40 DUP4 DUP3 SUB SLT PUSH2 0x144C JUMPI DUP3 MLOAD PUSH1 0x1 PUSH1 0x1 PUSH1 0x40 SHL SUB SWAP2 SWAP1 DUP3 DUP2 GT PUSH2 0x144C JUMPI DUP5 ADD SWAP1 PUSH1 0xE0 DUP3 DUP3 SUB SLT PUSH2 0x144C JUMPI PUSH1 0x40 MLOAD SWAP2 PUSH2 0x38AE DUP4 PUSH2 0x3392 JUMP JUMPDEST DUP1 MLOAD DUP5 DUP2 GT PUSH2 0x144C JUMPI DUP3 PUSH2 0x38C3 SWAP2 DUP4 ADD PUSH2 0x3671 JUMP JUMPDEST DUP4 MSTORE PUSH1 0x20 DUP2 ADD MLOAD DUP5 DUP2 GT PUSH2 0x144C JUMPI DUP3 PUSH2 0x38DD SWAP2 DUP4 ADD PUSH2 0x3671 JUMP JUMPDEST PUSH1 0x20 DUP5 ADD MSTORE PUSH1 0x40 DUP2 ADD MLOAD DUP5 DUP2 GT PUSH2 0x144C JUMPI DUP3 PUSH2 0x38FA SWAP2 DUP4 ADD PUSH2 0x3671 JUMP JUMPDEST PUSH1 0x40 DUP5 ADD MSTORE PUSH1 0x60 DUP2 ADD MLOAD DUP5 DUP2 GT PUSH2 0x144C JUMPI DUP3 PUSH2 0x3917 SWAP2 DUP4 ADD PUSH2 0x3671 JUMP JUMPDEST PUSH1 0x60 DUP5 ADD MSTORE PUSH1 0x80 DUP2 ADD MLOAD SWAP4 DUP5 GT PUSH2 0x144C JUMPI PUSH2 0x3938 PUSH1 0xC0 SWAP3 PUSH1 0x20 SWAP6 DUP4 ADD PUSH2 0x3671 JUMP JUMPDEST PUSH1 0x80 DUP5 ADD MSTORE PUSH2 0x3949 PUSH1 0xA0 DUP3 ADD PUSH2 0x3650 JUMP JUMPDEST PUSH1 0xA0 DUP5 ADD MSTORE ADD MLOAD PUSH1 0xC0 DUP3 ADD MSTORE SWAP3 ADD MLOAD PUSH1 0x4 DUP2 LT ISZERO PUSH2 0x144C JUMPI SWAP1 JUMP JUMPDEST PUSH1 0x1 PUSH1 0x1 PUSH1 0xA0 SHL SUB SWAP1 SWAP2 AND DUP2 MSTORE PUSH1 0x40 PUSH1 0x20 DUP3 ADD DUP2 SWAP1 MSTORE PUSH2 0x34EB SWAP3 SWAP2 ADD SWAP1 PUSH2 0x3249 JUMP JUMPDEST PUSH1 0x20 SWAP1 DUP2 DUP2 DUP5 SUB SLT PUSH2 0x144C JUMPI DUP1 MLOAD SWAP1 PUSH1 0x1 PUSH1 0x1 PUSH1 0x40 SHL SUB DUP3 GT PUSH2 0x144C JUMPI ADD SWAP2 DUP1 PUSH1 0x1F DUP5 ADD SLT ISZERO PUSH2 0x144C JUMPI DUP3 MLOAD PUSH2 0x39BB DUP2 PUSH2 0x357C JUMP JUMPDEST SWAP4 PUSH2 0x39C9 PUSH1 0x40 MLOAD SWAP6 DUP7 PUSH2 0x345C JUMP JUMPDEST DUP2 DUP6 MSTORE DUP4 DUP1 DUP7 ADD SWAP3 PUSH1 0x5 SHL DUP3 ADD ADD SWAP3 DUP4 GT PUSH2 0x144C JUMPI DUP4 ADD SWAP1 JUMPDEST DUP3 DUP3 LT PUSH2 0x39F0 JUMPI POP POP POP POP SWAP1 JUMP JUMPDEST DUP4 DUP1 SWAP2 PUSH2 0x39FC DUP5 PUSH2 0x365D JUMP JUMPDEST DUP2 MSTORE ADD SWAP2 ADD SWAP1 PUSH2 0x39E2 JUMP JUMPDEST ISZERO PUSH2 0x3A0E JUMPI JUMP JUMPDEST PUSH1 0x40 MLOAD PUSH3 0x461BCD PUSH1 0xE5 SHL DUP2 MSTORE PUSH1 0x20 PUSH1 0x4 DUP3 ADD MSTORE PUSH1 0x18 PUSH1 0x24 DUP3 ADD MSTORE PUSH24 0x115490CDCC8C4E881A5B9D985B1A59081D1BDAD95B881251 PUSH1 0x42 SHL PUSH1 0x44 DUP3 ADD MSTORE PUSH1 0x64 SWAP1 REVERT JUMPDEST PUSH0 SWAP1 DUP2 MSTORE PUSH1 0x4 PUSH1 0x20 MSTORE PUSH1 0x40 SWAP1 KECCAK256 SLOAD PUSH1 0x1 PUSH1 0x1 PUSH1 0xA0 SHL SUB AND PUSH2 0x34EB DUP2 ISZERO ISZERO PUSH2 0x3A07 JUMP JUMPDEST PUSH1 0x20 DUP2 DUP4 SUB SLT PUSH2 0x144C JUMPI DUP1 MLOAD PUSH1 0x1 PUSH1 0x1 PUSH1 0x40 SHL SUB SWAP2 DUP3 DUP3 GT PUSH2 0x144C JUMPI ADD SWAP2 PUSH1 0x60 DUP4 DUP3 SUB SLT PUSH2 0x144C JUMPI PUSH1 0x40 MLOAD SWAP3 PUSH2 0x3AA5 DUP5 PUSH2 0x33D4 JUMP JUMPDEST DUP1 MLOAD DUP5 MSTORE PUSH1 0x20 DUP2 ADD MLOAD SWAP3 DUP4 GT PUSH2 0x144C JUMPI PUSH2 0x3AC6 PUSH1 0x40 SWAP3 PUSH2 0x3AD1 SWAP5 DUP4 ADD PUSH2 0x3671 JUMP JUMPDEST PUSH1 0x20 DUP6 ADD MSTORE ADD PUSH2 0x3650 JUMP JUMPDEST PUSH1 0x40 DUP3 ADD MSTORE SWAP1 JUMP JUMPDEST ISZERO PUSH2 0x3AE0 JUMPI JUMP JUMPDEST PUSH1 0x40 MLOAD PUSH3 0x461BCD PUSH1 0xE5 SHL DUP2 MSTORE PUSH1 0x20 PUSH1 0x4 DUP3 ADD MSTORE PUSH1 0x17 PUSH1 0x24 DUP3 ADD MSTORE PUSH23 0x10D85D1959DBDC9E48191BD95CC81B9BDD08195E1A5CDD PUSH1 0x4A SHL PUSH1 0x44 DUP3 ADD MSTORE PUSH1 0x64 SWAP1 REVERT JUMPDEST SWAP1 PUSH2 0x3B43 SWAP4 SWAP3 SWAP2 PUSH2 0x3B33 PUSH2 0x2B4F DUP5 CALLER PUSH2 0x3DE0 JUMP JUMPDEST PUSH2 0x3B3E DUP4 DUP4 DUP4 PUSH2 0x3EA4 JUMP JUMPDEST PUSH2 0x405A JUMP JUMPDEST ISZERO PUSH2 0x3B4A JUMPI JUMP JUMPDEST PUSH1 0x40 MLOAD PUSH3 0x461BCD PUSH1 0xE5 SHL DUP2 MSTORE DUP1 PUSH2 0x3B63 PUSH1 0x4 DUP3 ADD PUSH2 0x4007 JUMP JUMPDEST SUB SWAP1 REVERT JUMPDEST ISZERO PUSH2 0x3B6E JUMPI JUMP JUMPDEST PUSH1 0x40 MLOAD PUSH3 0x461BCD PUSH1 0xE5 SHL DUP2 MSTORE PUSH1 0x20 PUSH1 0x4 DUP3 ADD MSTORE PUSH1 0x16 PUSH1 0x24 DUP3 ADD MSTORE PUSH22 0x141C9BD91D58DD08191BD95CC81B9BDD08195E1A5CDD PUSH1 0x52 SHL PUSH1 0x44 DUP3 ADD MSTORE PUSH1 0x64 SWAP1 REVERT JUMPDEST ISZERO PUSH2 0x3BB3 JUMPI JUMP JUMPDEST PUSH1 0x40 MLOAD PUSH3 0x461BCD PUSH1 0xE5 SHL DUP2 MSTORE PUSH1 0x20 PUSH1 0x4 DUP3 ADD MSTORE PUSH1 0xD PUSH1 0x24 DUP3 ADD MSTORE PUSH13 0x13985B59481C995C5D5A5C9959 PUSH1 0x9A SHL PUSH1 0x44 DUP3 ADD MSTORE PUSH1 0x64 SWAP1 REVERT JUMPDEST ISZERO PUSH2 0x3BEF JUMPI JUMP JUMPDEST PUSH1 0x40 MLOAD PUSH3 0x461BCD PUSH1 0xE5 SHL DUP2 MSTORE PUSH1 0x20 PUSH1 0x4 DUP3 ADD MSTORE PUSH1 0x1E PUSH1 0x24 DUP3 ADD MSTORE PUSH32 0x436F7374206D7573742062652067726561746572207468616E207A65726F0000 PUSH1 0x44 DUP3 ADD MSTORE PUSH1 0x64 SWAP1 REVERT JUMPDEST ISZERO PUSH2 0x3C3B JUMPI JUMP JUMPDEST PUSH1 0x40 MLOAD PUSH3 0x461BCD PUSH1 0xE5 SHL DUP2 MSTORE PUSH1 0x20 PUSH1 0x4 DUP3 ADD MSTORE PUSH1 0x10 PUSH1 0x24 DUP3 ADD MSTORE PUSH16 0x496E76616C69642063617465676F7279 PUSH1 0x80 SHL PUSH1 0x44 DUP3 ADD MSTORE PUSH1 0x64 SWAP1 REVERT JUMPDEST RETURNDATASIZE ISZERO PUSH2 0x3C9D JUMPI RETURNDATASIZE SWAP1 PUSH2 0x3C84 DUP3 PUSH2 0x347F JUMP JUMPDEST SWAP2 PUSH2 0x3C92 PUSH1 0x40 MLOAD SWAP4 DUP5 PUSH2 0x345C JUMP JUMPDEST DUP3 MSTORE RETURNDATASIZE PUSH0 PUSH1 0x20 DUP5 ADD RETURNDATACOPY JUMP JUMPDEST PUSH1 0x60 SWAP1 JUMP JUMPDEST SWAP1 PUSH2 0x3CAC DUP3 PUSH2 0x357C JUMP JUMPDEST PUSH1 0x40 SWAP1 PUSH2 0x3CBC PUSH1 0x40 MLOAD SWAP2 DUP3 PUSH2 0x345C JUMP JUMPDEST DUP4 DUP2 MSTORE DUP1 SWAP4 PUSH2 0x3CCD PUSH1 0x1F NOT SWAP2 PUSH2 0x357C JUMP JUMPDEST ADD SWAP2 PUSH0 JUMPDEST DUP4 DUP2 LT PUSH2 0x3CDE JUMPI POP POP POP POP JUMP JUMPDEST PUSH1 0x20 SWAP1 DUP3 MLOAD PUSH2 0x3CEC DUP2 PUSH2 0x33D4 JUMP JUMPDEST PUSH0 DUP2 MSTORE DUP3 PUSH1 0x60 DUP2 DUP4 ADD MSTORE PUSH0 DUP6 DUP4 ADD MSTORE DUP3 DUP7 ADD ADD MSTORE ADD PUSH2 0x3CD1 JUMP JUMPDEST PUSH1 0x20 SWAP1 DUP2 DUP2 DUP5 SUB SLT PUSH2 0x144C JUMPI DUP1 MLOAD SWAP1 PUSH1 0x1 PUSH1 0x1 PUSH1 0x40 SHL SUB DUP3 GT PUSH2 0x144C JUMPI ADD SWAP2 DUP1 PUSH1 0x1F DUP5 ADD SLT ISZERO PUSH2 0x144C JUMPI DUP3 MLOAD PUSH2 0x3D3B DUP2 PUSH2 0x357C JUMP JUMPDEST SWAP4 PUSH2 0x3D49 PUSH1 0x40 MLOAD SWAP6 DUP7 PUSH2 0x345C JUMP JUMPDEST DUP2 DUP6 MSTORE DUP4 DUP1 DUP7 ADD SWAP3 PUSH1 0x5 SHL DUP3 ADD ADD SWAP3 DUP4 GT PUSH2 0x144C JUMPI DUP4 ADD SWAP1 JUMPDEST DUP3 DUP3 LT PUSH2 0x3D70 JUMPI POP POP POP POP SWAP1 JUMP JUMPDEST DUP2 MLOAD DUP2 MSTORE SWAP1 DUP4 ADD SWAP1 DUP4 ADD PUSH2 0x3D62 JUMP JUMPDEST ISZERO PUSH2 0x3D86 JUMPI JUMP JUMPDEST PUSH1 0x40 MLOAD PUSH3 0x461BCD PUSH1 0xE5 SHL DUP2 MSTORE PUSH1 0x20 PUSH1 0x4 DUP3 ADD MSTORE PUSH1 0xE PUSH1 0x24 DUP3 ADD MSTORE PUSH14 0x139BDD08185D5D1A1BDC9A5E9959 PUSH1 0x92 SHL PUSH1 0x44 DUP3 ADD MSTORE PUSH1 0x64 SWAP1 REVERT JUMPDEST PUSH0 SWAP1 DUP2 MSTORE PUSH1 0x4 PUSH1 0x20 MSTORE PUSH1 0x40 SWAP1 KECCAK256 SLOAD PUSH2 0x3DDE SWAP1 PUSH1 0x1 PUSH1 0x1 PUSH1 0xA0 SHL SUB AND ISZERO ISZERO PUSH2 0x3A07 JUMP JUMPDEST JUMP JUMPDEST SWAP1 PUSH1 0x1 PUSH1 0x1 PUSH1 0xA0 SHL SUB DUP1 DUP1 PUSH2 0x3DF4 DUP5 PUSH2 0x3A4E JUMP JUMPDEST AND SWAP4 AND SWAP2 DUP4 DUP4 EQ SWAP4 DUP5 ISZERO PUSH2 0x3E27 JUMPI JUMPDEST POP DUP4 ISZERO PUSH2 0x3E11 JUMPI JUMPDEST POP POP POP SWAP1 JUMP JUMPDEST PUSH2 0x3E1D SWAP2 SWAP3 SWAP4 POP PUSH2 0x37BA JUMP JUMPDEST AND EQ PUSH0 DUP1 DUP1 PUSH2 0x3E0B JUMP JUMPDEST SWAP1 SWAP4 POP PUSH0 MSTORE PUSH1 0x7 PUSH1 0x20 MSTORE PUSH1 0x40 PUSH0 KECCAK256 DUP3 PUSH0 MSTORE PUSH1 0x20 MSTORE PUSH1 0xFF PUSH1 0x40 PUSH0 KECCAK256 SLOAD AND SWAP3 PUSH0 PUSH2 0x3E03 JUMP JUMPDEST ISZERO PUSH2 0x3E51 JUMPI JUMP JUMPDEST PUSH1 0x40 MLOAD PUSH3 0x461BCD PUSH1 0xE5 SHL DUP2 MSTORE PUSH1 0x20 PUSH1 0x4 DUP3 ADD MSTORE PUSH1 0x25 PUSH1 0x24 DUP3 ADD MSTORE PUSH32 0x4552433732313A207472616E736665722066726F6D20696E636F727265637420 PUSH1 0x44 DUP3 ADD MSTORE PUSH5 0x37BBB732B9 PUSH1 0xD9 SHL PUSH1 0x64 DUP3 ADD MSTORE PUSH1 0x84 SWAP1 REVERT JUMPDEST SWAP1 PUSH2 0x3ECC SWAP2 PUSH2 0x3EB2 DUP5 PUSH2 0x3A4E JUMP JUMPDEST PUSH1 0x1 PUSH1 0x1 PUSH1 0xA0 SHL SUB SWAP4 SWAP2 DUP5 AND SWAP3 DUP5 SWAP3 SWAP1 SWAP2 DUP4 AND DUP5 EQ PUSH2 0x3E4A JUMP JUMPDEST AND SWAP2 DUP3 ISZERO PUSH2 0x3F5F JUMPI DUP2 PUSH2 0x3EE9 SWAP2 PUSH2 0x3EE2 DUP7 PUSH2 0x3A4E JUMP JUMPDEST AND EQ PUSH2 0x3E4A JUMP JUMPDEST DUP3 PUSH0 MSTORE PUSH1 0x6 PUSH1 0x20 MSTORE PUSH1 0x40 PUSH0 KECCAK256 PUSH1 0x1 DUP1 PUSH1 0xA0 SHL SUB NOT SWAP1 DUP2 DUP2 SLOAD AND SWAP1 SSTORE DUP2 PUSH0 MSTORE PUSH1 0x5 PUSH1 0x20 MSTORE PUSH1 0x40 PUSH0 KECCAK256 PUSH0 NOT DUP2 SLOAD ADD SWAP1 SSTORE DUP3 PUSH0 MSTORE PUSH1 0x40 PUSH0 KECCAK256 PUSH1 0x1 DUP2 SLOAD ADD SWAP1 SSTORE DUP4 PUSH0 MSTORE PUSH1 0x4 PUSH1 0x20 MSTORE DUP3 PUSH1 0x40 PUSH0 KECCAK256 SWAP2 DUP3 SLOAD AND OR SWAP1 SSTORE PUSH32 0xDDF252AD1BE2C89B69C2B068FC378DAA952BA7F163C4A11628F55A4DF523B3EF PUSH0 DUP1 LOG4 JUMP JUMPDEST PUSH1 0x40 MLOAD PUSH3 0x461BCD PUSH1 0xE5 SHL DUP2 MSTORE PUSH1 0x20 PUSH1 0x4 DUP3 ADD MSTORE PUSH1 0x24 DUP1 DUP3 ADD MSTORE PUSH32 0x4552433732313A207472616E7366657220746F20746865207A65726F20616464 PUSH1 0x44 DUP3 ADD MSTORE PUSH4 0x72657373 PUSH1 0xE0 SHL PUSH1 0x64 DUP3 ADD MSTORE PUSH1 0x84 SWAP1 REVERT JUMPDEST PUSH0 SLOAD PUSH1 0x1 PUSH1 0x1 PUSH1 0xA0 SHL SUB AND CALLER SUB PUSH2 0x3FC3 JUMPI JUMP JUMPDEST PUSH1 0x64 PUSH1 0x40 MLOAD PUSH3 0x461BCD PUSH1 0xE5 SHL DUP2 MSTORE PUSH1 0x20 PUSH1 0x4 DUP3 ADD MSTORE PUSH1 0x20 PUSH1 0x24 DUP3 ADD MSTORE PUSH32 0x4F776E61626C653A2063616C6C6572206973206E6F7420746865206F776E6572 PUSH1 0x44 DUP3 ADD MSTORE REVERT JUMPDEST PUSH1 0x80 SWAP1 PUSH1 0x20 DUP2 MSTORE PUSH1 0x32 PUSH1 0x20 DUP3 ADD MSTORE PUSH32 0x4552433732313A207472616E7366657220746F206E6F6E204552433732315265 PUSH1 0x40 DUP3 ADD MSTORE PUSH18 0x31B2B4BB32B91034B6B83632B6B2B73A32B9 PUSH1 0x71 SHL PUSH1 0x60 DUP3 ADD MSTORE ADD SWAP1 JUMP JUMPDEST SWAP3 SWAP1 SWAP2 SWAP1 DUP3 EXTCODESIZE ISZERO PUSH2 0x413F JUMPI PUSH2 0x40AC SWAP3 PUSH1 0x20 SWAP3 PUSH0 PUSH1 0x1 DUP1 PUSH1 0xA0 SHL SUB PUSH1 0x40 MLOAD DUP1 SWAP8 DUP2 SWAP7 DUP3 SWAP6 DUP5 PUSH4 0xA85BD01 PUSH1 0xE1 SHL SWAP13 DUP14 DUP7 MSTORE CALLER PUSH1 0x4 DUP8 ADD MSTORE AND PUSH1 0x24 DUP6 ADD MSTORE PUSH1 0x44 DUP5 ADD MSTORE PUSH1 0x80 PUSH1 0x64 DUP5 ADD MSTORE PUSH1 0x84 DUP4 ADD SWAP1 PUSH2 0x30CC JUMP JUMPDEST SUB SWAP4 AND GAS CALL PUSH0 SWAP2 DUP2 PUSH2 0x40FA JUMPI JUMPDEST POP PUSH2 0x40EC JUMPI PUSH2 0x40C6 PUSH2 0x3C73 JUMP JUMPDEST DUP1 MLOAD SWAP1 DUP2 PUSH2 0x40E7 JUMPI PUSH1 0x40 MLOAD PUSH3 0x461BCD PUSH1 0xE5 SHL DUP2 MSTORE DUP1 PUSH2 0x3B63 PUSH1 0x4 DUP3 ADD PUSH2 0x4007 JUMP JUMPDEST PUSH1 0x20 ADD REVERT JUMPDEST PUSH1 0x1 PUSH1 0x1 PUSH1 0xE0 SHL SUB NOT AND EQ SWAP1 JUMP JUMPDEST SWAP1 SWAP2 POP PUSH1 0x20 DUP2 RETURNDATASIZE PUSH1 0x20 GT PUSH2 0x4137 JUMPI JUMPDEST DUP2 PUSH2 0x4116 PUSH1 0x20 SWAP4 DUP4 PUSH2 0x345C JUMP JUMPDEST DUP2 ADD SUB SLT PUSH2 0x144C JUMPI MLOAD PUSH1 0x1 PUSH1 0x1 PUSH1 0xE0 SHL SUB NOT DUP2 AND DUP2 SUB PUSH2 0x144C JUMPI SWAP1 PUSH0 PUSH2 0x40B9 JUMP JUMPDEST RETURNDATASIZE SWAP2 POP PUSH2 0x4109 JUMP JUMPDEST POP POP POP POP PUSH1 0x1 SWAP1 JUMP INVALID DUP12 0xE0 SMOD SWAP13 MSTORE8 AND MSIZE EQ SGT PREVRANDAO 0xCD 0x1F 0xD0 LOG4 CALLCODE DUP5 NOT BLOBHASH PUSH32 0x9722A3DAAFE3B4186F6B6457E0A164736F6C6343000818000A00000000000000 "},"methodIdentifiers":{"approve(address,uint256)":"095ea7b3","balanceOf(address)":"70a08231","changeServicePct(uint256)":"5be20959","createCategory(string)":"dc298682","createProduct(address,string,string,string,uint256,uint256,uint256)":"bdbe6f4f","deleteCategory(uint256)":"ceca737f","deleteProduct(uint256)":"ed90c7b7","getAllCategories()":"dadd0a57","getAllProducts()":"02ee3a52","getAllRegisteredSellers()":"5ad6a580","getAllSellers()":"9b269b8f","getApproved(uint256)":"081812fc","getCategory(uint256)":"f3052d26","getMyProducts()":"fdca4ca3","getPendingVerificationUsers()":"6f68ef3a","getProduct(uint256)":"b9db15b4","getSeller(address)":"a323d29e","getSellerProducts(address)":"e6a93e16","getSellerProfile(address)":"4293e5ce","getSellerStatus(address)":"eb11c434","getTotalProducts()":"570aea8a","getTotalSales()":"2156a96c","getUser(address)":"6f77926b","grantOwnerSellerAccess()":"4e213d20","isApprovedForAll(address,address)":"e985e9c5","name()":"06fdde03","owner()":"8da5cb5b","ownerOf(uint256)":"6352211e","registerSeller(address,string,string,string,string,string)":"e6b3a14c","registerUser(address,string,string,string)":"fe69c296","renounceOwnership()":"715018a6","safeTransferFrom(address,address,uint256)":"42842e0e","safeTransferFrom(address,address,uint256,bytes)":"b88d4fde","setApprovalForAll(address,bool)":"a22cb465","storageContract()":"11ce0267","supportsInterface(bytes4)":"01ffc9a7","symbol()":"95d89b41","tokenURI(uint256)":"c87b56dd","transferFrom(address,address,uint256)":"23b872dd","transferOwnership(address)":"f2fde38b","updateCategory(uint256,string,bool)":"66224d8e","updateProduct(uint256,string,string,string,uint256,uint256,uint256)":"ec4cf85b","updateSellerStatus(address,uint8)":"97b6f393","withdrawServiceFees()":"d72e481d"}}}}}