{"contracts/CryptoMartCore.sol":{"CryptoMartCore":{"abi":[{"inputs":[{"internalType":"address","name":"_storageContract","type":"address"}],"stateMutability":"nonpayable","type":"constructor"},{"anonymous":false,"inputs":[{"indexed":true,"internalType":"address","name":"owner","type":"address"},{"indexed":true,"internalType":"address","name":"approved","type":"address"},{"indexed":true,"internalType":"uint256","name":"tokenId","type":"uint256"}],"name":"Approval","type":"event"},{"anonymous":false,"inputs":[{"indexed":true,"internalType":"address","name":"owner","type":"address"},{"indexed":true,"internalType":"address","name":"operator","type":"address"},{"indexed":false,"internalType":"bool","name":"approved","type":"bool"}],"name":"ApprovalForAll","type":"event"},{"anonymous":false,"inputs":[{"indexed":true,"internalType":"address","name":"seller","type":"address"},{"indexed":false,"internalType":"uint256","name":"amount","type":"uint256"}],"name":"BalanceWithdrawn","type":"event"},{"anonymous":false,"inputs":[{"indexed":true,"internalType":"uint256","name":"categoryId","type":"uint256"},{"indexed":false,"internalType":"string","name":"name","type":"string"}],"name":"CategoryCreated","type":"event"},{"anonymous":false,"inputs":[{"indexed":true,"internalType":"uint256","name":"categoryId","type":"uint256"}],"name":"CategoryDeleted","type":"event"},{"anonymous":false,"inputs":[{"indexed":true,"internalType":"uint256","name":"categoryId","type":"uint256"}],"name":"CategoryUpdated","type":"event"},{"anonymous":false,"inputs":[{"indexed":true,"internalType":"address","name":"previousOwner","type":"address"},{"indexed":true,"internalType":"address","name":"newOwner","type":"address"}],"name":"OwnershipTransferred","type":"event"},{"anonymous":false,"inputs":[{"indexed":true,"internalType":"uint256","name":"productId","type":"uint256"},{"indexed":true,"internalType":"address","name":"seller","type":"address"},{"indexed":false,"internalType":"string","name":"name","type":"string"},{"indexed":false,"internalType":"uint256","name":"cost","type":"uint256"}],"name":"ProductCreated","type":"event"},{"anonymous":false,"inputs":[{"indexed":true,"internalType":"uint256","name":"productId","type":"uint256"}],"name":"ProductDeleted","type":"event"},{"anonymous":false,"inputs":[{"indexed":true,"internalType":"uint256","name":"productId","type":"uint256"},{"indexed":true,"internalType":"address","name":"buyer","type":"address"},{"indexed":true,"internalType":"address","name":"seller","type":"address"}],"name":"ProductPurchased","type":"event"},{"anonymous":false,"inputs":[{"indexed":true,"internalType":"uint256","name":"productId","type":"uint256"}],"name":"ProductUpdated","type":"event"},{"anonymous":false,"inputs":[{"indexed":true,"internalType":"uint256","name":"productId","type":"uint256"},{"indexed":true,"internalType":"address","name":"buyer","type":"address"}],"name":"PurchaseDelivered","type":"event"},{"anonymous":false,"inputs":[{"indexed":true,"internalType":"uint256","name":"productId","type":"uint256"},{"indexed":true,"internalType":"address","name":"buyer","type":"address"},{"indexed":true,"internalType":"address","name":"seller","type":"address"},{"indexed":false,"internalType":"uint256","name":"amount","type":"uint256"},{"indexed":false,"internalType":"uint256","name":"timestamp","type":"uint256"}],"name":"PurchaseRecorded","type":"event"},{"anonymous":false,"inputs":[{"indexed":true,"internalType":"uint256","name":"productId","type":"uint256"},{"indexed":true,"internalType":"address","name":"reviewer","type":"address"},{"indexed":false,"internalType":"uint256","name":"rating","type":"uint256"}],"name":"ReviewCreated","type":"event"},{"anonymous":false,"inputs":[{"indexed":true,"internalType":"uint256","name":"productId","type":"uint256"},{"indexed":true,"internalType":"uint256","name":"reviewId","type":"uint256"}],"name":"ReviewDeleted","type":"event"},{"anonymous":false,"inputs":[{"indexed":true,"internalType":"address","name":"seller","type":"address"},{"indexed":false,"internalType":"string","name":"businessName","type":"string"}],"name":"SellerRegistered","type":"event"},{"anonymous":false,"inputs":[{"indexed":true,"internalType":"address","name":"seller","type":"address"},{"indexed":false,"internalType":"enum CryptoMartStorage.SellerStatus","name":"status","type":"uint8"}],"name":"SellerStatusUpdated","type":"event"},{"anonymous":false,"inputs":[{"indexed":true,"internalType":"address","name":"from","type":"address"},{"indexed":true,"internalType":"address","name":"to","type":"address"},{"indexed":true,"internalType":"uint256","name":"tokenId","type":"uint256"}],"name":"Transfer","type":"event"},{"anonymous":false,"inputs":[{"indexed":true,"internalType":"address","name":"user","type":"address"},{"indexed":false,"internalType":"string","name":"name","type":"string"}],"name":"UserRegistered","type":"event"},{"inputs":[{"internalType":"address","name":"to","type":"address"},{"internalType":"uint256","name":"tokenId","type":"uint256"}],"name":"approve","outputs":[],"stateMutability":"nonpayable","type":"function"},{"inputs":[{"internalType":"address","name":"owner","type":"address"}],"name":"balanceOf","outputs":[{"internalType":"uint256","name":"","type":"uint256"}],"stateMutability":"view","type":"function"},{"inputs":[{"internalType":"uint256","name":"newPct","type":"uint256"}],"name":"changeServicePct","outputs":[],"stateMutability":"nonpayable","type":"function"},{"inputs":[{"internalType":"string","name":"_name","type":"string"}],"name":"createCategory","outputs":[],"stateMutability":"nonpayable","type":"function"},{"inputs":[{"internalType":"string","name":"name","type":"string"},{"internalType":"string","name":"description","type":"string"},{"internalType":"string","name":"image","type":"string"},{"internalType":"uint256","name":"categoryId","type":"uint256"},{"internalType":"uint256","name":"cost","type":"uint256"},{"internalType":"uint256","name":"stock","type":"uint256"}],"name":"createProduct","outputs":[],"stateMutability":"nonpayable","type":"function"},{"inputs":[{"internalType":"uint256","name":"id","type":"uint256"}],"name":"deleteCategory","outputs":[],"stateMutability":"nonpayable","type":"function"},{"inputs":[{"internalType":"uint256","name":"productId","type":"uint256"}],"name":"deleteProduct","outputs":[],"stateMutability":"nonpayable","type":"function"},{"inputs":[],"name":"getAllCategories","outputs":[{"components":[{"internalType":"uint256","name":"id","type":"uint256"},{"internalType":"string","name":"name","type":"string"},{"internalType":"bool","name":"isActive","type":"bool"}],"internalType":"struct CryptoMartStorage.CategoryStruct[]","name":"","type":"tuple[]"}],"stateMutability":"view","type":"function"},{"inputs":[],"name":"getAllProducts","outputs":[{"components":[{"internalType":"uint256","name":"id","type":"uint256"},{"internalType":"address","name":"seller","type":"address"},{"internalType":"string","name":"name","type":"string"},{"internalType":"string","name":"description","type":"string"},{"internalType":"string","name":"image","type":"string"},{"internalType":"uint256","name":"categoryId","type":"uint256"},{"internalType":"uint256","name":"cost","type":"uint256"},{"internalType":"uint256","name":"stock","type":"uint256"},{"internalType":"uint256","name":"timestamp","type":"uint256"},{"internalType":"bool","name":"deleted","type":"bool"}],"internalType":"struct CryptoMartStorage.ProductStruct[]","name":"","type":"tuple[]"}],"stateMutability":"view","type":"function"},{"inputs":[],"name":"getAllRegisteredSellers","outputs":[{"internalType":"address[]","name":"","type":"address[]"}],"stateMutability":"view","type":"function"},{"inputs":[],"name":"getAllSellers","outputs":[{"internalType":"address[]","name":"","type":"address[]"}],"stateMutability":"view","type":"function"},{"inputs":[{"internalType":"uint256","name":"tokenId","type":"uint256"}],"name":"getApproved","outputs":[{"internalType":"address","name":"","type":"address"}],"stateMutability":"view","type":"function"},{"inputs":[{"internalType":"uint256","name":"id","type":"uint256"}],"name":"getCategory","outputs":[{"internalType":"uint256","name":"","type":"uint256"},{"internalType":"string","name":"","type":"string"},{"internalType":"bool","name":"","type":"bool"},{"internalType":"uint256[]","name":"","type":"uint256[]"}],"stateMutability":"view","type":"function"},{"inputs":[],"name":"getMyProducts","outputs":[{"components":[{"internalType":"uint256","name":"id","type":"uint256"},{"internalType":"address","name":"seller","type":"address"},{"internalType":"string","name":"name","type":"string"},{"internalType":"string","name":"description","type":"string"},{"internalType":"string","name":"image","type":"string"},{"internalType":"uint256","name":"categoryId","type":"uint256"},{"internalType":"uint256","name":"cost","type":"uint256"},{"internalType":"uint256","name":"stock","type":"uint256"},{"internalType":"uint256","name":"timestamp","type":"uint256"},{"internalType":"bool","name":"deleted","type":"bool"}],"internalType":"struct CryptoMartStorage.ProductStruct[]","name":"","type":"tuple[]"}],"stateMutability":"view","type":"function"},{"inputs":[],"name":"getPendingVerificationUsers","outputs":[{"internalType":"address[]","name":"","type":"address[]"}],"stateMutability":"view","type":"function"},{"inputs":[{"internalType":"uint256","name":"productId","type":"uint256"}],"name":"getProduct","outputs":[{"components":[{"internalType":"uint256","name":"id","type":"uint256"},{"internalType":"address","name":"seller","type":"address"},{"internalType":"string","name":"name","type":"string"},{"internalType":"string","name":"description","type":"string"},{"internalType":"string","name":"image","type":"string"},{"internalType":"uint256","name":"categoryId","type":"uint256"},{"internalType":"uint256","name":"cost","type":"uint256"},{"internalType":"uint256","name":"stock","type":"uint256"},{"internalType":"uint256","name":"timestamp","type":"uint256"},{"internalType":"bool","name":"deleted","type":"bool"}],"internalType":"struct CryptoMartStorage.ProductStruct","name":"","type":"tuple"}],"stateMutability":"view","type":"function"},{"inputs":[{"internalType":"address","name":"seller","type":"address"}],"name":"getSeller","outputs":[{"components":[{"internalType":"string","name":"businessName","type":"string"},{"internalType":"string","name":"description","type":"string"},{"internalType":"string","name":"email","type":"string"},{"internalType":"string","name":"phone","type":"string"},{"internalType":"string","name":"logo","type":"string"},{"internalType":"bool","name":"isRegistered","type":"bool"},{"internalType":"uint256","name":"registeredAt","type":"uint256"}],"internalType":"struct CryptoMartStorage.SellerProfile","name":"","type":"tuple"},{"internalType":"enum CryptoMartStorage.SellerStatus","name":"","type":"uint8"}],"stateMutability":"view","type":"function"},{"inputs":[{"internalType":"address","name":"seller","type":"address"}],"name":"getSellerProducts","outputs":[{"components":[{"internalType":"uint256","name":"id","type":"uint256"},{"internalType":"address","name":"seller","type":"address"},{"internalType":"string","name":"name","type":"string"},{"internalType":"string","name":"description","type":"string"},{"internalType":"string","name":"image","type":"string"},{"internalType":"uint256","name":"categoryId","type":"uint256"},{"internalType":"uint256","name":"cost","type":"uint256"},{"internalType":"uint256","name":"stock","type":"uint256"},{"internalType":"uint256","name":"timestamp","type":"uint256"},{"internalType":"bool","name":"deleted","type":"bool"}],"internalType":"struct CryptoMartStorage.ProductStruct[]","name":"","type":"tuple[]"}],"stateMutability":"view","type":"function"},{"inputs":[{"internalType":"address","name":"seller","type":"address"}],"name":"getSellerProfile","outputs":[{"components":[{"internalType":"string","name":"businessName","type":"string"},{"internalType":"string","name":"description","type":"string"},{"internalType":"string","name":"email","type":"string"},{"internalType":"string","name":"phone","type":"string"},{"internalType":"string","name":"logo","type":"string"},{"internalType":"bool","name":"isRegistered","type":"bool"},{"internalType":"uint256","name":"registeredAt","type":"uint256"}],"internalType":"struct CryptoMartStorage.SellerProfile","name":"","type":"tuple"}],"stateMutability":"view","type":"function"},{"inputs":[{"internalType":"address","name":"seller","type":"address"}],"name":"getSellerStatus","outputs":[{"internalType":"enum CryptoMartStorage.SellerStatus","name":"","type":"uint8"}],"stateMutability":"view","type":"function"},{"inputs":[],"name":"getTotalProducts","outputs":[{"internalType":"uint256","name":"","type":"uint256"}],"stateMutability":"view","type":"function"},{"inputs":[],"name":"getTotalSales","outputs":[{"internalType":"uint256","name":"","type":"uint256"}],"stateMutability":"view","type":"function"},{"inputs":[{"internalType":"address","name":"user","type":"address"}],"name":"getUser","outputs":[{"components":[{"internalType":"string","name":"name","type":"string"},{"internalType":"string","name":"email","type":"string"},{"internalType":"string","name":"avatar","type":"string"},{"internalType":"bool","name":"isRegistered","type":"bool"}],"internalType":"struct CryptoMartStorage.UserProfile","name":"","type":"tuple"}],"stateMutability":"view","type":"function"},{"inputs":[],"name":"grantOwnerSellerAccess","outputs":[],"stateMutability":"nonpayable","type":"function"},{"inputs":[{"internalType":"address","name":"owner","type":"address"},{"internalType":"address","name":"operator","type":"address"}],"name":"isApprovedForAll","outputs":[{"internalType":"bool","name":"","type":"bool"}],"stateMutability":"view","type":"function"},{"inputs":[],"name":"name","outputs":[{"internalType":"string","name":"","type":"string"}],"stateMutability":"view","type":"function"},{"inputs":[],"name":"owner","outputs":[{"internalType":"address","name":"","type":"address"}],"stateMutability":"view","type":"function"},{"inputs":[{"internalType":"uint256","name":"tokenId","type":"uint256"}],"name":"ownerOf","outputs":[{"internalType":"address","name":"","type":"address"}],"stateMutability":"view","type":"function"},{"inputs":[{"internalType":"string","name":"businessName","type":"string"},{"internalType":"string","name":"description","type":"string"},{"internalType":"string","name":"email","type":"string"},{"internalType":"string","name":"phone","type":"string"},{"internalType":"string","name":"logo","type":"string"}],"name":"registerSeller","outputs":[],"stateMutability":"nonpayable","type":"function"},{"inputs":[{"internalType":"string","name":"name","type":"string"},{"internalType":"string","name":"email","type":"string"},{"internalType":"string","name":"avatar","type":"string"}],"name":"registerUser","outputs":[],"stateMutability":"nonpayable","type":"function"},{"inputs":[],"name":"renounceOwnership","outputs":[],"stateMutability":"nonpayable","type":"function"},{"inputs":[{"internalType":"address","name":"from","type":"address"},{"internalType":"address","name":"to","type":"address"},{"internalType":"uint256","name":"tokenId","type":"uint256"}],"name":"safeTransferFrom","outputs":[],"stateMutability":"nonpayable","type":"function"},{"inputs":[{"internalType":"address","name":"from","type":"address"},{"internalType":"address","name":"to","type":"address"},{"internalType":"uint256","name":"tokenId","type":"uint256"},{"internalType":"bytes","name":"data","type":"bytes"}],"name":"safeTransferFrom","outputs":[],"stateMutability":"nonpayable","type":"function"},{"inputs":[{"internalType":"address","name":"operator","type":"address"},{"internalType":"bool","name":"approved","type":"bool"}],"name":"setApprovalForAll","outputs":[],"stateMutability":"nonpayable","type":"function"},{"inputs":[],"name":"storageContract","outputs":[{"internalType":"contract CryptoMartStorage","name":"","type":"address"}],"stateMutability":"view","type":"function"},{"inputs":[{"internalType":"bytes4","name":"interfaceId","type":"bytes4"}],"name":"supportsInterface","outputs":[{"internalType":"bool","name":"","type":"bool"}],"stateMutability":"view","type":"function"},{"inputs":[],"name":"symbol","outputs":[{"internalType":"string","name":"","type":"string"}],"stateMutability":"view","type":"function"},{"inputs":[{"internalType":"uint256","name":"tokenId","type":"uint256"}],"name":"tokenURI","outputs":[{"internalType":"string","name":"","type":"string"}],"stateMutability":"view","type":"function"},{"inputs":[{"internalType":"address","name":"from","type":"address"},{"internalType":"address","name":"to","type":"address"},{"internalType":"uint256","name":"tokenId","type":"uint256"}],"name":"transferFrom","outputs":[],"stateMutability":"nonpayable","type":"function"},{"inputs":[{"internalType":"address","name":"newOwner","type":"address"}],"name":"transferOwnership","outputs":[],"stateMutability":"nonpayable","type":"function"},{"inputs":[{"internalType":"uint256","name":"id","type":"uint256"},{"internalType":"string","name":"name","type":"string"},{"internalType":"bool","name":"isActive","type":"bool"}],"name":"updateCategory","outputs":[],"stateMutability":"nonpayable","type":"function"},{"inputs":[{"internalType":"uint256","name":"productId","type":"uint256"},{"internalType":"string","name":"name","type":"string"},{"internalType":"string","name":"description","type":"string"},{"internalType":"string","name":"image","type":"string"},{"internalType":"uint256","name":"categoryId","type":"uint256"},{"internalType":"uint256","name":"cost","type":"uint256"},{"internalType":"uint256","name":"stock","type":"uint256"}],"name":"updateProduct","outputs":[],"stateMutability":"nonpayable","type":"function"},{"inputs":[{"internalType":"address","name":"seller","type":"address"},{"internalType":"enum CryptoMartStorage.SellerStatus","name":"status","type":"uint8"}],"name":"updateSellerStatus","outputs":[],"stateMutability":"nonpayable","type":"function"},{"inputs":[],"name":"withdrawServiceFees","outputs":[],"stateMutability":"nonpayable","type":"function"},{"stateMutability":"payable","type":"receive"}],"evm":{"bytecode":{"linkReferences":{},"object":"60a0346200043f57601f90601f196001600160401b03620046fa3881900385810184168501838111868210176200035e578592829160405283396020948591810103126200043f57516001600160a01b038082169590918690036200043f576200006862000443565b91600a83526910dc9e5c1d1bd3585c9d60b21b868401526200008962000443565b600581526410d350549560da1b878201525f8054336001600160a01b0319821681178355929316907f8be0079c531659141344cd1fd0a4f28419497f9722a3daafe3b4186f6b6457e09080a36001928380558051908582116200035e57600254908582811c9216801562000434575b898310146200033f578185849311620003e0575b5088908583116001146200037e575f9262000372575b50505f19600383901b1c191690841b176002555b80519384116200035e5760039586548481811c9116801562000353575b828210146200033f57838111620002f7575b5080928511600114620002935750839450908392915f9462000287575b50501b915f1990841b1c19161790555b608052604051614296908162000464823960805181818161022f015281816103770152818161052d015281816107430152818161079f01528181610838015281816108e50152818161094601528181610982015281816109d701528181610b6e01528181610c6601528181610d8e01528181610f1a01528181611214015281816113cb015281816116f9015281816118c801528181611cc001528181611e4c015281816120b0015281816124b6015281816125d4015281816126a301528181612801015281816128d00152818161298101528181612bc701528181612c9f01528181612cf501528181612fac01526134510152f35b015192505f8062000182565b929484908116875f52845f20945f905b88838310620002dc5750505010620002c4575b505050811b01905562000192565b01515f1983861b60f8161c191690555f8080620002b6565b858701518855909601959485019487935090810190620002a3565b875f52815f208480880160051c82019284891062000335575b0160051c019085905b8281106200032957505062000165565b5f815501859062000319565b9250819262000310565b634e487b7160e01b5f52602260045260245ffd5b90607f169062000153565b634e487b7160e01b5f52604160045260245ffd5b015190505f8062000122565b90888794169160025f528a5f20925f5b8c828210620003c95750508411620003b0575b505050811b0160025562000136565b01515f1960f88460031b161c191690555f8080620003a1565b8385015186558a979095019493840193016200038e565b90915060025f52885f208580850160051c8201928b86106200042a575b918891869594930160051c01915b8281106200041b5750506200010c565b5f81558594508891016200040b565b92508192620003fd565b91607f1691620000f8565b5f80fd5b60408051919082016001600160401b038111838210176200035e5760405256fe608080604052600436101561001c575b50361561001a575f80fd5b005b5f905f3560e01c90816301ffc9a7146131615750806302ee3a5214612f8d57806306fdde0314612eb6578063081812fc14612e98578063095ea7b314612d2457806311ce026714612ce05780632156a96c14612c7a57806323b872dd14612c5157806342842e0e14612c2a5780634293e5ce14612b7e5780634e213d2014612945578063570aea8a146128a95780635ad6a58014611e0f5780635be20959146127d85780636352211e146127a757806366224d8e146126415780636f68ef3a146125af5780636f77926b1461244e57806370a08231146123b8578063715018a6146123725780637e8555ed146120015780638da5cb5b14611fda57806395d89b4114611efd57806397b6f39314611e145780639b269b8f14611e0f578063a22cb46514611d43578063a323d29e14611c75578063a9ab7af214611843578063b88d4fde146117e0578063b9db15b4146116c4578063c87b56dd146114bc578063ceca737f14611396578063d637dcfa14611198578063d72e481d146110da578063dadd0a5714610ef8578063dc29868214610d3b578063e6a93e1614610c29578063e985e9c514610bd7578063eb11c43414610b2d578063ec4cf85b146106be578063ed90c7b7146104f6578063f2fde38b14610449578063f3052d26146103475763fdca4ca30361000f57346103445780600319360112610344576040516373549f0b60e11b815233600482015260247f00000000000000000000000000000000000000000000000000000000000000006001600160a01b031683838381845afa928315610339578493610315575b506102778351613700565b91845b84518110156103035761028d81866138b3565b519060405191632e76c56d60e21b8352600483015286828481875afa80156102f85760019288916102d6575b506102c482876138b3565b526102cf81866138b3565b500161027a565b6102f291503d808a833e6102ea818361357d565b8101906137d4565b5f6102b9565b6040513d89823e3d90fd5b6040518061031186826132a6565b0390f35b6103329193503d8086833e61032a818361357d565b810190613e27565b915f61026c565b6040513d86823e3d90fd5b80fd5b5034610344576020908160031936011261034457604051637982969360e11b8152600480359082015281816024817f00000000000000000000000000000000000000000000000000000000000000006001600160a01b03165afa90811561043e57829161041c575b509182519160408285015194015115156103da604051958695865260808587015260808601906131ed565b9060408501528381036060850152826060519182815201926080925b82811061040557505050500390f35b8351855286955093810193928101926001016103f6565b61043891503d8084833e610430818361357d565b810190613b91565b5f6103af565b6040513d84823e3d90fd5b503461034457602036600319011261034457610463613309565b61046b6140d1565b6001600160a01b039081169081156104a2575f548260018060a01b03198216175f55165f8051602061426a8339815191525f80a380f35b60405162461bcd60e51b815260206004820152602660248201527f4f776e61626c653a206e6577206f776e657220697320746865207a65726f206160448201526564647265737360d01b6064820152608490fd5b50346103445760208060031936011261064057604051632bd57b5960e21b8152600480359082018190529183916001600160a01b037f00000000000000000000000000000000000000000000000000000000000000008116918381602481865afa8015610679578590610684575b61056e9150613d4f565b604051632e76c56d60e21b815260048101869052928484602481865afa938415610679578594610655575b5090806105b492850151163314908115610648575b50613ea0565b6001610120830152803b15610644576105f583929183926040519485809481936306ad0cb960e01b83528a6004840152604060248401526044830190613212565b03925af1801561043e5761062c575b50807fc341cf326465fe622f86c468249e8c0cb03ed23ba376a6a34863a1374ac7d76991a280f35b610635906134e2565b61064057815f610604565b5080fd5b8280fd5b905084541633145f6105ae565b82919450916106706105b4933d8089833e6102ea818361357d565b94919250610599565b6040513d87823e3d90fd5b508381813d83116106b7575b61069a818361357d565b810103126106b3576106ae61056e91613771565b610564565b8480fd5b503d610690565b50346103445760e0366003190112610344576001600160401b039060248035838111610644576106f29036906004016135f1565b92604435818111610b295761070b9036906004016135f1565b90606435908111610b29576107249036906004016135f1565b604051632bd57b5960e21b8152600480359082015290949060208185817f00000000000000000000000000000000000000000000000000000000000000006001600160a01b03165afa8015610679578590610aee575b6107849150613d4f565b604051632e76c56d60e21b81526004803590820152848185817f00000000000000000000000000000000000000000000000000000000000000006001600160a01b03165afa908115610679578591610ad4575b5060208101516001600160a01b031633148015610ac1575b6107f890613ea0565b610120810151610a8b57849561081083511515613c40565b61081d60a4351515613c7c565b604051637982969360e11b81526084356004820152868187817f00000000000000000000000000000000000000000000000000000000000000006001600160a01b03165afa9081156102f857610881916040918991610a71575b5001511515613cc8565b60208201516101009283015160405195909490916001600160a01b03166108a78761352b565b6004358752602087015260408601526060850152608084015260843560a084015260a43560c084015260c43560e084015282015261012081018390527f00000000000000000000000000000000000000000000000000000000000000006001600160a01b03163b15610a6d578261094191604051809381926306ad0cb960e01b835260043560048401526040878401526044830190613212565b0381837f00000000000000000000000000000000000000000000000000000000000000006001600160a01b03165af1908115610a62578391610a4e575b50507f00000000000000000000000000000000000000000000000000000000000000006001600160a01b03163b15610a4b5760405163184c5e5360e31b81526004803590820152608435918101919091528181604481837f00000000000000000000000000000000000000000000000000000000000000006001600160a01b03165af1801561043e57610a37575b506004357feca6714fcf568fb34cf9db4a414cb0cc48e93c5d4e1ba0582a46ea3704cf24d58280a280f35b610a40906134e2565b61034457805f610a0c565b50fd5b610a57906134e2565b610a4b57815f61097e565b6040513d85823e3d90fd5b5050fd5b610a8591503d808b833e610430818361357d565b5f610877565b60405162461bcd60e51b815260206004820152600f818601526e141c9bd91d58dd0819195b195d1959608a1b6044820152606490fd5b5084546001600160a01b031633146107ef565b610ae891503d8087833e6102ea818361357d565b5f6107d7565b506020813d602011610b21575b81610b086020938361357d565b810103126106b357610b1c61078491613771565b61077a565b3d9150610afb565b8380fd5b503461034457602036600319011261034457602481610b4a613309565b604051635191e94f60e11b81526001600160a01b03918216600482015292839182907f0000000000000000000000000000000000000000000000000000000000000000165afa90811561043e578260209392610bb2575b5050610bb0604051809261365b565bf35b610bce92503d8091833e610bc6818361357d565b810190613996565b90505f80610ba1565b503461034457604036600319011261034457610bf1613309565b6040610bfb61331f565b9260018060a01b03809316815260076020522091165f52602052602060ff60405f2054166040519015158152f35b503461034457602036600319011261034457610c43613309565b6040516373549f0b60e11b81526001600160a01b039182166004820152906024907f00000000000000000000000000000000000000000000000000000000000000001683838381845afa928315610339578493610d1f575b50610ca68351613700565b91845b845181101561030357610cbc81866138b3565b519060405191632e76c56d60e21b8352600483015286828481875afa80156102f8576001928891610d05575b50610cf382876138b3565b52610cfe81866138b3565b5001610ca9565b610d1991503d808a833e6102ea818361357d565b5f610ce8565b610d349193503d8086833e61032a818361357d565b915f610c9b565b503461034457602080600319360112610640576004356001600160401b03811161064457610d6d9036906004016135f1565b90610d766140d1565b815115610ebb57604051630602566360e11b815291837f00000000000000000000000000000000000000000000000000000000000000006001600160a01b0316838560048185855af194851561043e578295610e84575b5060405190610ddb826134f5565b858252838583015260016040830152803b1561064457610e2383929183926040519485809481936328a22b8760e01b83528c600484015260406024840152604483019061367c565b03925af1801561043e57610e70575b50507f11c167cc9b439f0ad8bec5588159f1b06b813bc38d50c867a41b23b077be2c1a91610e6a6040519282849384528301906131ed565b0390a280f35b610e79906134e2565b610b2957835f610e32565b84809296508193503d8311610eb4575b610e9e818361357d565b81010312610eb057849051935f610dcd565b5f80fd5b503d610e94565b6064906040519062461bcd60e51b82526004820152601660248201527510d85d1959dbdc9e481b985b59481c995c5d5a5c995960521b6044820152fd5b5034610344578060031936011261034457604051620d893f60e61b81526020907f00000000000000000000000000000000000000000000000000000000000000006001600160a01b03168282600481845afa9182156103395784926110ab575b50610f6582949394613dc3565b91839160015b8281111561101857505050610f7f81613dc3565b91835b828110610fe85750505060405191838301848452825180915260408401948060408360051b870101940192955b828710610fbc5785850386f35b909192938280610fd8600193603f198a8203018652885161367c565b9601920196019592919092610faf565b80610ff8600192849897986138b3565b5161100382876138b3565b5261100e81866138b3565b5001949394610f82565b9085969591604051637982969360e11b81528160048201528381602481865afa908115610339578491611091575b506040810151611066575b5061105b9061374f565b909150959495610f6b565b8561108a9161107961105b94988a6138b3565b5261108481896138b3565b5061374f565b9490611051565b6110a591503d8086833e610430818361357d565b5f611046565b9091508281813d83116110d3575b6110c3818361357d565b81010312610eb05751905f610f58565b503d6110b9565b50346103445780600319360112610344576110f36140d1565b47801561115d57815482918291829182916001600160a01b03165af1611117613d94565b50156111205780f35b60405162461bcd60e51b8152602060048201526015602482015274119959481dda5d1a191c985dd85b0819985a5b1959605a1b6044820152606490fd5b60405162461bcd60e51b81526020600482015260136024820152724e6f206665657320746f20776974686472617760681b6044820152606490fd5b5034610344576060366003190112610344576001600160401b03600435818111610644576111ca9036906004016135f1565b602435828111610b29576111e29036906004016135f1565b91604435908111610b29576111fb9036906004016135f1565b604051630e50cee560e01b8152336004820152602093917f00000000000000000000000000000000000000000000000000000000000000006001600160a01b0316918581602481865afa9081156102f857879161135d575b5061131e579085929161126885511515613c40565b6040519261127584613510565b85845286840152604083015260016060830152803b15610644576112c183929183926040519485809481936359dd665f60e01b835233600484015260406024840152604483019061360f565b03925af1801561043e5761130a575b5050610e6a7f48cac28ad4dc618e15f4c2dd5e97751182f166de97b25618318b2112aa951a2f9160405191829185835233958301906131ed565b611313906134e2565b61064457825f6112d0565b60405162461bcd60e51b8152600481018690526017602482015276155cd95c88185b1c9958591e481c9959da5cdd195c9959604a1b6044820152606490fd5b90508581813d831161138f575b611374818361357d565b8101031261138b5761138590613771565b5f611253565b8680fd5b503d61136a565b5034610344576020366003190112610344576004356113b36140d1565b604051637982969360e11b81526004810182905282907f00000000000000000000000000000000000000000000000000000000000000006001600160a01b03168282602481845afa918215610a625783926114a0575b5061141682511515613bfa565b826040830152803b156106445761145583929183926040519485809481936328a22b8760e01b83528a600484015260406024840152604483019061367c565b03925af1801561043e5761148c575b50807f510c8243d59e6c99aa1a4cf786d70d3e2e425109eb3870cc957ccb326a11ea9791a280f35b611495906134e2565b61064057815f611464565b6114b59192503d8085833e610430818361357d565b905f611409565b503461034457602090816003193601126103445781600435916114de83613edd565b604051926114eb84613547565b81845281156116ab5781908072184f03e93ff9f4daa797ed6e38ed64bf6a1f0160401b818181101561169d575b508590506904ee2d6d415b85acef8160201b8084101561168f575b5050662386f26fc1000080831015611680575b506305f5e10080831015611671575b5061271080831015611662575b506064821015611652575b600a80921015611648575b60019081602160018601956115a561158f886135a0565b9761159d604051998a61357d565b8089526135a0565b878a019890601f1901368a3750860101905b611613575b50505050926115fd92916115f19460405195836115e288955180928880890191016131cc565b840191518093868401906131cc565b0103808452018261357d565b905b6103116040519282849384528301906131ed565b5f19019083906f181899199a1a9b1b9c1cb0b131b232b360811b8282061a835304918215611643579190826115b7565b6115bc565b9160010191611578565b919060646002910491019161156d565b6004919392049101915f611562565b6008919392049101915f611555565b6010919392049101915f611546565b93019290910490845f611533565b604094500491505f80611518565b505050506040516116bb81613547565b5f8152906115ff565b503461034457602080600319360112610640576004356116e26136b4565b50604051632bd57b5960e21b8152600481018290527f00000000000000000000000000000000000000000000000000000000000000006001600160a01b03169184918481602481875afa8015610a625783906117aa575b6117439150613d4f565b602460405180948193632e76c56d60e21b835260048301525afa92831561179e578093611781575b5050610311604051928284938452830190613212565b6117969293503d8091833e6102ea818361357d565b905f8061176b565b604051903d90823e3d90fd5b508481813d83116117d9575b6117c0818361357d565b81010312610644576117d461174391613771565b611739565b503d6117b6565b5034610344576080366003190112610344576117fa613309565b61180261331f565b606435916001600160401b038311610b295736602384011215610b29576118366118409336906024816004013591016135bb565b9160443591613d07565b80f35b50346103445760c0366003190112610344576001600160401b03600435818111610644576118759036906004016135f1565b90602480358281116106b35761188f9036906004016135f1565b926044928335908111611b4f576118aa9036906004016135f1565b60405163c64b8a8f60e01b81523360048201526020959194608435947f00000000000000000000000000000000000000000000000000000000000000006001600160a01b031693909260643592919089818681895afa908115611bf2578b91611c3c575b5015611bfd57604051635191e94f60e11b81523360048201528a818681895afa908115611bf2578b91611bd6575b506004811015611bc357600203611b865790899493929161195f87511515613c40565b61196a881515613c7c565b604051637982969360e11b81526004810184905286818681895afa9081156102f8576119a3916040918991610a71575001511515613cc8565b6040516309b4daef60e21b8152988a8a6004818a8a5af1998a156102f857879a611b53575b50604051916119d68361352b565b8a8352338c840152886040840152606083015260808201528260a08201528760c082015260a43560e08201524261010082015285610120820152843b15611b4f5785611a4291604051809381926306ad0cb960e01b83528d600484015260408984015286830190613212565b038183895af1908115611b30578691611b3b575b5050833b156106b357604051631294b01d60e01b81523360048201528381018990528581838183895af1908115611b30578691611b1c575b5050833b156106b357849283604051958694859363184c5e5360e31b85528c60048601528401525af1801561043e57611b08575b50507f5f25c590b5c7f62ed4186adca32d3118caef07e5020c6cc8268d4136df2cfef891611afb604051926040845260408401906131ed565b948201528033940390a380f35b611b11906134e2565b6106b357845f611ac2565b611b25906134e2565b6106b357845f611a8e565b6040513d88823e3d90fd5b611b44906134e2565b6106b357845f611a56565b8580fd5b8b80929b508198503d8311611b7f575b611b6d818361357d565b81010312610eb0578a9551985f6119c8565b503d611b63565b60405162461bcd60e51b8152600481018a90526017818601527626bab9ba103132903b32b934b334b2b21039b2b63632b960491b81840152606490fd5b634e487b7160e01b8b526021600452848bfd5b611bea91503d808d833e610bc6818361357d565b90505f61193c565b6040513d8d823e3d90fd5b60405162461bcd60e51b8152600481018a90526019818601527826bab9ba103132903932b3b4b9ba32b932b21039b2b63632b960391b81840152606490fd5b90508981813d8311611c6e575b611c53818361357d565b81010312611c6a57611c6490613771565b5f61190e565b8a80fd5b503d611c49565b50346103445760203660031901126103445780602491611c93613309565b611c9b613960565b50604051635191e94f60e11b81526001600160a01b03918216600482015293849182907f0000000000000000000000000000000000000000000000000000000000000000165afa8015611d3657611d0d92828092611d18575b505061031160405193849360408552604085019061336a565b91602084019061365b565b909150611d2f92503d8091833e610bc6818361357d565b5f80611cf4565b50604051903d90823e3d90fd5b503461034457604036600319011261034457611d5d613309565b60243590811515809203610eb0576001600160a01b031690338214611dce57338352600760205260408320825f5260205260405f2060ff1981541660ff83161790556040519081527f17307eab39ab6107e8899845ad3d59bd9653f200f220920489ca2b5937696c3160203392a380f35b60405162461bcd60e51b815260206004820152601960248201527822a9219b99189d1030b8383937bb32903a379031b0b63632b960391b6044820152606490fd5b61342e565b503461034457604036600319011261034457611e2e613309565b602435600481101561064457611e426140d1565b6001600160a01b037f0000000000000000000000000000000000000000000000000000000000000000811692849190843b1561064457829160448392604051948593849263aa27905960e01b84521698896004840152611ea5602484018a61365b565b5af1801561043e57611ee9575b505060207fd8f7bcb2c5cffc294a0aaef719685993d7be95273fb8254803a1563510ccefed91611ee5604051809261365b565ba280f35b611ef2906134e2565b61064457825f611eb2565b503461034457806003193601126103445760405190806003549160018360011c9260018516948515611fd0575b6020958686108114611fbc57858852879493929187908215611f9a575050600114611f5e575b50506115ff9250038361357d565b90859250600382528282205b858310611f825750506115ff93508201015f80611f50565b80548389018501528794508693909201918101611f6a565b92509350506115ff94915060ff191682840152151560051b8201015f80611f50565b634e487b7160e01b83526022600452602483fd5b93607f1693611f2a565b5034610344578060031936011261034457546040516001600160a01b039091168152602090f35b50346103445760a0366003190112610344576001600160401b03600435818111610644576120339036906004016135f1565b60249182358181116106b35761204d9036906004016135f1565b92604435828111611b4f576120669036906004016135f1565b9360643583811161138b5761207f9036906004016135f1565b9260843590811161138b576120989036906004016135f1565b604051630e50cee560e01b81523360048201526020967f00000000000000000000000000000000000000000000000000000000000000006001600160a01b03169591888187818a5afa9081156122ee578a9161233d575b50156122f95760405163c64b8a8f60e01b8152336004820152888187818a5afa9081156122ee578a916122b5575b506122725786511561223557908895949392916040519361213d856134b3565b88855289850152604084015260608301526080820152600160a08201524260c0820152823b15610b295783612187916040518093819263283a514f60e11b83523360048401613a85565b038183875af1908115610339578491612221575b5050813b156106445760016044849283604051958694859363aa27905960e01b85523360048601528401525af1801561043e5761220d575b5050610e6a7fecef9454c60fab6a60b6f2aa319263c0f711cdb927c213e76687f7853b5978429160405191829185835233958301906131ed565b612216906134e2565b61064457825f6121d3565b61222a906134e2565b61064457825f61219b565b60405162461bcd60e51b81526004810189905260168187015275109d5cda5b995cdcc81b985b59481c995c5d5a5c995960521b6044820152606490fd5b60405162461bcd60e51b815260048101899052601c818701527b20b63932b0b23c903932b3b4b9ba32b932b21030b99039b2b63632b960211b6044820152606490fd5b90508881813d83116122e7575b6122cc818361357d565b810103126122e3576122dd90613771565b5f61211d565b8980fd5b503d6122c2565b6040513d8c823e3d90fd5b60405162461bcd60e51b815260048101899052601d818701527f4d757374206265207265676973746572656420757365722066697273740000006044820152606490fd5b90508881813d831161236b575b612354818361357d565b810103126122e35761236590613771565b5f6120ef565b503d61234a565b503461034457806003193601126103445761238b6140d1565b5f80546001600160a01b0319811682556001600160a01b03165f8051602061426a8339815191528280a380f35b5034610344576020366003190112610344576001600160a01b036123da613309565b1680156123f7578160409160209352600583522054604051908152f35b60405162461bcd60e51b815260206004820152602960248201527f4552433732313a2061646472657373207a65726f206973206e6f7420612076616044820152683634b21037bbb732b960b91b6064820152608490fd5b5034610344576020806003193601126106405760249161246c613309565b816040519161247a83613510565b606080845285840181905260408085018290529381018390529251636f77926b60e01b81526001600160a01b03918216600482015295869182907f0000000000000000000000000000000000000000000000000000000000000000165afa93841561043e5782946124fd575b50505061031160405192828493845283019061360f565b90919293503d8084833e612511818361357d565b81018482820312610b295781516001600160401b0392838211611b4f5701916080838303126106b3576040519461254786613510565b8351828111610640578361255c918601613792565b8652868401518281116106405783612575918601613792565b87870152604084015191821161034457509161259784926125a2948301613792565b604086015201613771565b90820152905f80806124e6565b50346103445780600319360112610344576040516337b4779d60e11b815281816004817f00000000000000000000000000000000000000000000000000000000000000006001600160a01b03165afa90811561043e5782610311939261261e575b5050604051918291826133ea565b61263a92503d8091833e612632818361357d565b810190613aa7565b5f80612610565b5034610344576060366003190112610344576004356024356001600160401b038111610644576126759036906004016135f1565b60443590811515809203610eb057839161268d6140d1565b604051637982969360e11b8152600481018590527f00000000000000000000000000000000000000000000000000000000000000006001600160a01b031691908481602481865afa8015610679576126ef91869161278d575b50511515613bfa565b604051926126fc846134f5565b85845260208401526040830152803b156106445761274283929183926040519485809481936328a22b8760e01b83528a600484015260406024840152604483019061367c565b03925af1801561043e57612779575b50807f20611f93bb94c3dcaf404a8f60335558241ab3e3c68f6201b0e1744037220c3f91a280f35b612782906134e2565b61064057815f612751565b6127a191503d8088833e610430818361357d565b5f6126e6565b50346103445760203660031901126103445760206127c6600435613b6f565b6040516001600160a01b039091168152f35b5034610344576020366003190112610344576004356127f56140d1565b600a811161286d5781907f00000000000000000000000000000000000000000000000000000000000000006001600160a01b031690813b15610a6d578291602483926040519485938492632aafa80760e01b845260048401525af1801561043e5761285d5750f35b612866906134e2565b6103445780f35b60405162461bcd60e51b81526020600482015260146024820152730a6cae4ecd2c6ca40cccaca40e8dede40d0d2ced60631b6044820152606490fd5b5034610344578060031936011261034457604051639b9d326d60e01b8152906020826004817f00000000000000000000000000000000000000000000000000000000000000006001600160a01b03165afa90811561179e5790612912575b602090604051908152f35b506020813d60201161293d575b8161292c6020938361357d565b81010312610eb05760209051612907565b3d915061291f565b5034610eb0575f366003190112610eb05761295e6140d1565b5f5460405163c64b8a8f60e01b81526001600160a01b03918216600482018190527f00000000000000000000000000000000000000000000000000000000000000008316939291602091908281602481895afa908115612b3e575f91612b49575b50156129c9578380f35b604051916129d6836134b3565b6040516129e281613562565b601081526f21b93cb83a37a6b0b93a1020b236b4b760811b828201528352604051612a0c81613562565b6016815275283630ba3337b9369020b236b4b734b9ba3930ba37b960511b82820152818401527361646d696e4063727970746f6d6172742e636f6d60601b60405191612a5783613562565b601483528201526040830152604051612a6f81613547565b5f81526060830152604051612a8381613547565b5f81526080830152600160a08301524260c0830152843b15610eb05760405163283a514f60e11b8152915f9183918291612ac1919060048401613a85565b038183885af18015612b3e57612b2b575b50918192825416813b15610a6d57829160448392604051948593849263aa27905960e01b84526004840152600260248401525af1801561043e57612b17575b80808380f35b612b20906134e2565b61034457805f612b11565b612b369192506134e2565b5f905f612ad2565b6040513d5f823e3d90fd5b90508281813d8311612b77575b612b60818361357d565b81010312610eb057612b7190613771565b5f6129bf565b503d612b56565b34610eb0576020366003190112610eb05760245f612b9a613309565b612ba2613960565b50604051635191e94f60e11b81526001600160a01b03918216600482015292839182907f0000000000000000000000000000000000000000000000000000000000000000165afa8015612b3e57610311915f91612c0f575b5060405191829160208352602083019061336a565b612c2391503d805f833e610bc6818361357d565b5082612bfa565b34610eb05761001a612c3b36613335565b9060405192612c4984613547565b5f8452613d07565b34610eb05761001a612c6236613335565b91612c75612c708433613f01565b6138fe565b613fc5565b34610eb0575f366003190112610eb057604051633302ffb360e11b81526020816004817f00000000000000000000000000000000000000000000000000000000000000006001600160a01b03165afa8015612b3e575f9061291257602090604051908152f35b34610eb0575f366003190112610eb0576040517f00000000000000000000000000000000000000000000000000000000000000006001600160a01b03168152602090f35b34610eb0576040366003190112610eb057612d3d613309565b602435906001600160a01b038080612d5485613b6f565b16921691808314612e4957803314908115612e28575b5015612dbd575f83815260066020526040902080546001600160a01b03191683179055612d9683613b6f565b167f8c5be1e5ebec7d5bd14f71427d1e84f3dd0314c0f7b2291e5b200ac8c7c3b9255f80a4005b60405162461bcd60e51b815260206004820152603d60248201527f4552433732313a20617070726f76652063616c6c6572206973206e6f7420746f60448201527f6b656e206f776e6572206f7220617070726f76656420666f7220616c6c0000006064820152608490fd5b90505f52600760205260405f20335f5260205260ff60405f20541684612d6a565b60405162461bcd60e51b815260206004820152602160248201527f4552433732313a20617070726f76616c20746f2063757272656e74206f776e656044820152603960f91b6064820152608490fd5b34610eb0576020366003190112610eb05760206127c66004356138db565b34610eb0575f366003190112610eb0576040515f6002549060018260011c9160018416918215612f83575b6020948585108414612f6f5785879486865291825f14612f4f575050600114612f12575b506115ff9250038361357d565b84915060025f52815f20905f915b858310612f375750506115ff935082010185612f05565b80548389018501528794508693909201918101612f20565b60ff1916858201526115ff95151560051b8501019250879150612f059050565b634e487b7160e01b5f52602260045260245ffd5b92607f1692612ee1565b34610eb0575f366003190112610eb057604051639b9d326d60e01b81527f00000000000000000000000000000000000000000000000000000000000000006001600160a01b0316906020908181600481865afa908115612b3e575f91613134575b50612ff881613700565b915f9160019460015b82811115613057575050505061301681613700565b915f5b82811061302e576040518061031186826132a6565b8061303a8692846138b3565b5161304582876138b3565b5261305081866138b3565b5001613019565b604051632bd57b5960e21b81526004810182905260249085818381875afa908115612b3e575f916130ff575b50613098575b506130939061374f565b613001565b5f6040518092632e76c56d60e21b825284600483015281865afa908115612b3e575f916130e5575b5061012081015161308957856130de9161107961309394988a6138b3565b9490613089565b6130f991503d805f833e6102ea818361357d565b886130c0565b90508581813d831161312d575b613116818361357d565b81010312610eb05761312790613771565b89613083565b503d61310c565b90508181813d831161315a575b61314b818361357d565b81010312610eb0575183612fee565b503d613141565b34610eb0576020366003190112610eb0576004359063ffffffff60e01b8216809203610eb0576020916380ac58cd60e01b81149081156131bb575b81156131aa575b5015158152f35b6301ffc9a760e01b149050836131a3565b635b5e139f60e01b8114915061319c565b5f5b8381106131dd5750505f910152565b81810151838201526020016131ce565b90602091613206815180928185528580860191016131cc565b601f01601f1916010190565b9061326d61325b6132496101408551855260018060a01b0360208701511660208601526040860151908060408701528501906131ed565b606085015184820360608601526131ed565b608084015183820360808501526131ed565b9160a081015160a083015260c081015160c083015260e081015160e0830152610100808201519083015261012080910151151591015290565b6020808201906020835283518092526040830192602060408460051b8301019501935f915b8483106132db5750505050505090565b90919293949584806132f9600193603f198682030187528a51613212565b98019301930191949392906132cb565b600435906001600160a01b0382168203610eb057565b602435906001600160a01b0382168203610eb057565b6060906003190112610eb0576001600160a01b03906004358281168103610eb057916024359081168103610eb0579060443590565b9060c0806133d56133c36133b161339f61338d885160e0895260e08901906131ed565b602089015188820360208a01526131ed565b604088015187820360408901526131ed565b606087015186820360608801526131ed565b608086015185820360808701526131ed565b9360a0810151151560a0850152015191015290565b60209060206040818301928281528551809452019301915f5b828110613411575050505090565b83516001600160a01b031685529381019392810192600101613403565b34610eb0575f366003190112610eb05760405162b5ad4b60e71b81525f816004817f00000000000000000000000000000000000000000000000000000000000000006001600160a01b03165afa8015612b3e57610311915f91613499575b50604051918291826133ea565b6134ad91503d805f833e612632818361357d565b5f61348c565b60e081019081106001600160401b038211176134ce57604052565b634e487b7160e01b5f52604160045260245ffd5b6001600160401b0381116134ce57604052565b606081019081106001600160401b038211176134ce57604052565b608081019081106001600160401b038211176134ce57604052565b61014081019081106001600160401b038211176134ce57604052565b602081019081106001600160401b038211176134ce57604052565b604081019081106001600160401b038211176134ce57604052565b601f909101601f19168101906001600160401b038211908210176134ce57604052565b6001600160401b0381116134ce57601f01601f191660200190565b9291926135c7826135a0565b916135d5604051938461357d565b829481845281830111610eb0578281602093845f960137010152565b9080601f83011215610eb05781602061360c933591016135bb565b90565b9060608061365061363e61362c86516080875260808701906131ed565b602087015186820360208801526131ed565b604086015185820360408701526131ed565b930151151591015290565b9060048210156136685752565b634e487b7160e01b5f52602160045260245ffd5b908151815260408061365060208501516060602086015260608501906131ed565b6001600160401b0381116134ce5760051b60200190565b604051906136c18261352b565b5f6101208382815282602082015260606040820152606080820152606060808201528260a08201528260c08201528260e0820152826101008201520152565b9061370a8261369d565b613717604051918261357d565b8281528092613728601f199161369d565b01905f5b82811061373857505050565b6020906137436136b4565b8282850101520161372c565b5f19811461375d5760010190565b634e487b7160e01b5f52601160045260245ffd5b51908115158203610eb057565b51906001600160a01b0382168203610eb057565b81601f82011215610eb05780516137a8816135a0565b926137b6604051948561357d565b81845260208284010111610eb05761360c91602080850191016131cc565b602081830312610eb05780516001600160401b0391828211610eb057019061014082840312610eb0576040519261380a8461352b565b8251845261381a6020840161377e565b60208501526040830151828111610eb05781613837918501613792565b60408501526060830151828111610eb05781613854918501613792565b60608501526080830151918211610eb057613870918301613792565b608083015260a081015160a083015260c081015160c083015260e081015160e083015261010080820151908301526138ac610120809201613771565b9082015290565b80518210156138c75760209160051b010190565b634e487b7160e01b5f52603260045260245ffd5b6138e481613edd565b5f908152600660205260409020546001600160a01b031690565b1561390557565b60405162461bcd60e51b815260206004820152602d60248201527f4552433732313a2063616c6c6572206973206e6f7420746f6b656e206f776e6560448201526c1c881bdc88185c1c1c9bdd9959609a1b6064820152608490fd5b6040519061396d826134b3565b5f60c0836060808252806020830152806040830152808083015260808201528260a08201520152565b9190604083820312610eb05782516001600160401b039190828111610eb05784019060e082820312610eb057604051916139cf836134b3565b8051848111610eb057826139e4918301613792565b83526020810151848111610eb057826139fe918301613792565b60208401526040810151848111610eb05782613a1b918301613792565b60408401526060810151848111610eb05782613a38918301613792565b60608401526080810151938411610eb057613a5960c0926020958301613792565b6080840152613a6a60a08201613771565b60a0840152015160c08201529201516004811015610eb05790565b6001600160a01b03909116815260406020820181905261360c9291019061336a565b6020908181840312610eb0578051906001600160401b038211610eb057019180601f84011215610eb0578251613adc8161369d565b93613aea604051958661357d565b818552838086019260051b820101928311610eb0578301905b828210613b11575050505090565b838091613b1d8461377e565b815201910190613b03565b15613b2f57565b60405162461bcd60e51b8152602060048201526018602482015277115490cdcc8c4e881a5b9d985b1a59081d1bdad95b88125160421b6044820152606490fd5b5f908152600460205260409020546001600160a01b031661360c811515613b28565b602081830312610eb05780516001600160401b0391828211610eb0570191606083820312610eb05760405192613bc6846134f5565b805184526020810151928311610eb057613be7604092613bf2948301613792565b602085015201613771565b604082015290565b15613c0157565b60405162461bcd60e51b815260206004820152601760248201527610d85d1959dbdc9e48191bd95cc81b9bdd08195e1a5cdd604a1b6044820152606490fd5b15613c4757565b60405162461bcd60e51b815260206004820152600d60248201526c13985b59481c995c5d5a5c9959609a1b6044820152606490fd5b15613c8357565b60405162461bcd60e51b815260206004820152601e60248201527f436f7374206d7573742062652067726561746572207468616e207a65726f00006044820152606490fd5b15613ccf57565b60405162461bcd60e51b815260206004820152601060248201526f496e76616c69642063617465676f727960801b6044820152606490fd5b90613d2b939291613d1b612c708433613f01565b613d26838383613fc5565b61417b565b15613d3257565b60405162461bcd60e51b815280613d4b60048201614128565b0390fd5b15613d5657565b60405162461bcd60e51b8152602060048201526016602482015275141c9bd91d58dd08191bd95cc81b9bdd08195e1a5cdd60521b6044820152606490fd5b3d15613dbe573d90613da5826135a0565b91613db3604051938461357d565b82523d5f602084013e565b606090565b90613dcd8261369d565b604090613ddd604051918261357d565b8381528093613dee601f199161369d565b01915f5b838110613dff5750505050565b6020908251613e0d816134f5565b5f8152826060818301525f85830152828601015201613df2565b6020908181840312610eb0578051906001600160401b038211610eb057019180601f84011215610eb0578251613e5c8161369d565b93613e6a604051958661357d565b818552838086019260051b820101928311610eb0578301905b828210613e91575050505090565b81518152908301908301613e83565b15613ea757565b60405162461bcd60e51b815260206004820152600e60248201526d139bdd08185d5d1a1bdc9a5e995960921b6044820152606490fd5b5f90815260046020526040902054613eff906001600160a01b03161515613b28565b565b906001600160a01b038080613f1584613b6f565b16931691838314938415613f48575b508315613f32575b50505090565b613f3e919293506138db565b16145f8080613f2c565b9093505f52600760205260405f20825f5260205260ff60405f205416925f613f24565b15613f7257565b60405162461bcd60e51b815260206004820152602560248201527f4552433732313a207472616e736665722066726f6d20696e636f72726563742060448201526437bbb732b960d91b6064820152608490fd5b90613fed91613fd384613b6f565b6001600160a01b0393918416928492909183168414613f6b565b16918215614080578161400a9161400386613b6f565b1614613f6b565b825f52600660205260405f2060018060a01b031990818154169055815f52600560205260405f205f198154019055825f5260405f2060018154019055835f5260046020528260405f20918254161790557fddf252ad1be2c89b69c2b068fc378daa952ba7f163c4a11628f55a4df523b3ef5f80a4565b60405162461bcd60e51b8152602060048201526024808201527f4552433732313a207472616e7366657220746f20746865207a65726f206164646044820152637265737360e01b6064820152608490fd5b5f546001600160a01b031633036140e457565b606460405162461bcd60e51b815260206004820152602060248201527f4f776e61626c653a2063616c6c6572206973206e6f7420746865206f776e65726044820152fd5b60809060208152603260208201527f4552433732313a207472616e7366657220746f206e6f6e20455243373231526560408201527131b2b4bb32b91034b6b83632b6b2b73a32b960711b60608201520190565b92909190823b15614260576141cd926020925f60018060a01b0360405180978196829584630a85bd0160e11b9c8d865233600487015216602485015260448401526080606484015260848301906131ed565b0393165af15f918161421b575b5061420d576141e7613d94565b805190816142085760405162461bcd60e51b815280613d4b60048201614128565b602001fd5b6001600160e01b0319161490565b9091506020813d602011614258575b816142376020938361357d565b81010312610eb057516001600160e01b031981168103610eb057905f6141da565b3d915061422a565b5050505060019056fe8be0079c531659141344cd1fd0a4f28419497f9722a3daafe3b4186f6b6457e0a164736f6c6343000818000a","opcodes":"PUSH1 0xA0 CALLVALUE PUSH3 0x43F JUMPI PUSH1 0x1F SWAP1 PUSH1 0x1F NOT PUSH1 0x1 PUSH1 0x1 PUSH1 0x40 SHL SUB PUSH3 0x46FA CODESIZE DUP2 SWAP1 SUB DUP6 DUP2 ADD DUP5 AND DUP6 ADD DUP4 DUP2 GT DUP7 DUP3 LT OR PUSH3 0x35E JUMPI DUP6 SWAP3 DUP3 SWAP2 PUSH1 0x40 MSTORE DUP4 CODECOPY PUSH1 0x20 SWAP5 DUP6 SWAP2 DUP2 ADD SUB SLT PUSH3 0x43F JUMPI MLOAD PUSH1 0x1 PUSH1 0x1 PUSH1 0xA0 SHL SUB DUP1 DUP3 AND SWAP6 SWAP1 SWAP2 DUP7 SWAP1 SUB PUSH3 0x43F JUMPI PUSH3 0x68 PUSH3 0x443 JUMP JUMPDEST SWAP2 PUSH1 0xA DUP4 MSTORE PUSH10 0x10DC9E5C1D1BD3585C9D PUSH1 0xB2 SHL DUP7 DUP5 ADD MSTORE PUSH3 0x89 PUSH3 0x443 JUMP JUMPDEST PUSH1 0x5 DUP2 MSTORE PUSH5 0x10D3505495 PUSH1 0xDA SHL DUP8 DUP3 ADD MSTORE PUSH0 DUP1 SLOAD CALLER PUSH1 0x1 PUSH1 0x1 PUSH1 0xA0 SHL SUB NOT DUP3 AND DUP2 OR DUP4 SSTORE SWAP3 SWAP4 AND SWAP1 PUSH32 0x8BE0079C531659141344CD1FD0A4F28419497F9722A3DAAFE3B4186F6B6457E0 SWAP1 DUP1 LOG3 PUSH1 0x1 SWAP3 DUP4 DUP1 SSTORE DUP1 MLOAD SWAP1 DUP6 DUP3 GT PUSH3 0x35E JUMPI PUSH1 0x2 SLOAD SWAP1 DUP6 DUP3 DUP2 SHR SWAP3 AND DUP1 ISZERO PUSH3 0x434 JUMPI JUMPDEST DUP10 DUP4 LT EQ PUSH3 0x33F JUMPI DUP2 DUP6 DUP5 SWAP4 GT PUSH3 0x3E0 JUMPI JUMPDEST POP DUP9 SWAP1 DUP6 DUP4 GT PUSH1 0x1 EQ PUSH3 0x37E JUMPI PUSH0 SWAP3 PUSH3 0x372 JUMPI JUMPDEST POP POP PUSH0 NOT PUSH1 0x3 DUP4 SWAP1 SHL SHR NOT AND SWAP1 DUP5 SHL OR PUSH1 0x2 SSTORE JUMPDEST DUP1 MLOAD SWAP4 DUP5 GT PUSH3 0x35E JUMPI PUSH1 0x3 SWAP6 DUP7 SLOAD DUP5 DUP2 DUP2 SHR SWAP2 AND DUP1 ISZERO PUSH3 0x353 JUMPI JUMPDEST DUP3 DUP3 LT EQ PUSH3 0x33F JUMPI DUP4 DUP2 GT PUSH3 0x2F7 JUMPI JUMPDEST POP DUP1 SWAP3 DUP6 GT PUSH1 0x1 EQ PUSH3 0x293 JUMPI POP DUP4 SWAP5 POP SWAP1 DUP4 SWAP3 SWAP2 PUSH0 SWAP5 PUSH3 0x287 JUMPI JUMPDEST POP POP SHL SWAP2 PUSH0 NOT SWAP1 DUP5 SHL SHR NOT AND OR SWAP1 SSTORE JUMPDEST PUSH1 0x80 MSTORE PUSH1 0x40 MLOAD PUSH2 0x4296 SWAP1 DUP2 PUSH3 0x464 DUP3 CODECOPY PUSH1 0x80 MLOAD DUP2 DUP2 DUP2 PUSH2 0x22F ADD MSTORE DUP2 DUP2 PUSH2 0x377 ADD MSTORE DUP2 DUP2 PUSH2 0x52D ADD MSTORE DUP2 DUP2 PUSH2 0x743 ADD MSTORE DUP2 DUP2 PUSH2 0x79F ADD MSTORE DUP2 DUP2 PUSH2 0x838 ADD MSTORE DUP2 DUP2 PUSH2 0x8E5 ADD MSTORE DUP2 DUP2 PUSH2 0x946 ADD MSTORE DUP2 DUP2 PUSH2 0x982 ADD MSTORE DUP2 DUP2 PUSH2 0x9D7 ADD MSTORE DUP2 DUP2 PUSH2 0xB6E ADD MSTORE DUP2 DUP2 PUSH2 0xC66 ADD MSTORE DUP2 DUP2 PUSH2 0xD8E ADD MSTORE DUP2 DUP2 PUSH2 0xF1A ADD MSTORE DUP2 DUP2 PUSH2 0x1214 ADD MSTORE DUP2 DUP2 PUSH2 0x13CB ADD MSTORE DUP2 DUP2 PUSH2 0x16F9 ADD MSTORE DUP2 DUP2 PUSH2 0x18C8 ADD MSTORE DUP2 DUP2 PUSH2 0x1CC0 ADD MSTORE DUP2 DUP2 PUSH2 0x1E4C ADD MSTORE DUP2 DUP2 PUSH2 0x20B0 ADD MSTORE DUP2 DUP2 PUSH2 0x24B6 ADD MSTORE DUP2 DUP2 PUSH2 0x25D4 ADD MSTORE DUP2 DUP2 PUSH2 0x26A3 ADD MSTORE DUP2 DUP2 PUSH2 0x2801 ADD MSTORE DUP2 DUP2 PUSH2 0x28D0 ADD MSTORE DUP2 DUP2 PUSH2 0x2981 ADD MSTORE DUP2 DUP2 PUSH2 0x2BC7 ADD MSTORE DUP2 DUP2 PUSH2 0x2C9F ADD MSTORE DUP2 DUP2 PUSH2 0x2CF5 ADD MSTORE DUP2 DUP2 PUSH2 0x2FAC ADD MSTORE PUSH2 0x3451 ADD MSTORE RETURN JUMPDEST ADD MLOAD SWAP3 POP PUSH0 DUP1 PUSH3 0x182 JUMP JUMPDEST SWAP3 SWAP5 DUP5 SWAP1 DUP2 AND DUP8 PUSH0 MSTORE DUP5 PUSH0 KECCAK256 SWAP5 PUSH0 SWAP1 JUMPDEST DUP9 DUP4 DUP4 LT PUSH3 0x2DC JUMPI POP POP POP LT PUSH3 0x2C4 JUMPI JUMPDEST POP POP POP DUP2 SHL ADD SWAP1 SSTORE PUSH3 0x192 JUMP JUMPDEST ADD MLOAD PUSH0 NOT DUP4 DUP7 SHL PUSH1 0xF8 AND SHR NOT AND SWAP1 SSTORE PUSH0 DUP1 DUP1 PUSH3 0x2B6 JUMP JUMPDEST DUP6 DUP8 ADD MLOAD DUP9 SSTORE SWAP1 SWAP7 ADD SWAP6 SWAP5 DUP6 ADD SWAP5 DUP8 SWAP4 POP SWAP1 DUP2 ADD SWAP1 PUSH3 0x2A3 JUMP JUMPDEST DUP8 PUSH0 MSTORE DUP2 PUSH0 KECCAK256 DUP5 DUP1 DUP9 ADD PUSH1 0x5 SHR DUP3 ADD SWAP3 DUP5 DUP10 LT PUSH3 0x335 JUMPI JUMPDEST ADD PUSH1 0x5 SHR ADD SWAP1 DUP6 SWAP1 JUMPDEST DUP3 DUP2 LT PUSH3 0x329 JUMPI POP POP PUSH3 0x165 JUMP JUMPDEST PUSH0 DUP2 SSTORE ADD DUP6 SWAP1 PUSH3 0x319 JUMP JUMPDEST SWAP3 POP DUP2 SWAP3 PUSH3 0x310 JUMP JUMPDEST PUSH4 0x4E487B71 PUSH1 0xE0 SHL PUSH0 MSTORE PUSH1 0x22 PUSH1 0x4 MSTORE PUSH1 0x24 PUSH0 REVERT JUMPDEST SWAP1 PUSH1 0x7F AND SWAP1 PUSH3 0x153 JUMP JUMPDEST PUSH4 0x4E487B71 PUSH1 0xE0 SHL PUSH0 MSTORE PUSH1 0x41 PUSH1 0x4 MSTORE PUSH1 0x24 PUSH0 REVERT JUMPDEST ADD MLOAD SWAP1 POP PUSH0 DUP1 PUSH3 0x122 JUMP JUMPDEST SWAP1 DUP9 DUP8 SWAP5 AND SWAP2 PUSH1 0x2 PUSH0 MSTORE DUP11 PUSH0 KECCAK256 SWAP3 PUSH0 JUMPDEST DUP13 DUP3 DUP3 LT PUSH3 0x3C9 JUMPI POP POP DUP5 GT PUSH3 0x3B0 JUMPI JUMPDEST POP POP POP DUP2 SHL ADD PUSH1 0x2 SSTORE PUSH3 0x136 JUMP JUMPDEST ADD MLOAD PUSH0 NOT PUSH1 0xF8 DUP5 PUSH1 0x3 SHL AND SHR NOT AND SWAP1 SSTORE PUSH0 DUP1 DUP1 PUSH3 0x3A1 JUMP JUMPDEST DUP4 DUP6 ADD MLOAD DUP7 SSTORE DUP11 SWAP8 SWAP1 SWAP6 ADD SWAP5 SWAP4 DUP5 ADD SWAP4 ADD PUSH3 0x38E JUMP JUMPDEST SWAP1 SWAP2 POP PUSH1 0x2 PUSH0 MSTORE DUP9 PUSH0 KECCAK256 DUP6 DUP1 DUP6 ADD PUSH1 0x5 SHR DUP3 ADD SWAP3 DUP12 DUP7 LT PUSH3 0x42A JUMPI JUMPDEST SWAP2 DUP9 SWAP2 DUP7 SWAP6 SWAP5 SWAP4 ADD PUSH1 0x5 SHR ADD SWAP2 JUMPDEST DUP3 DUP2 LT PUSH3 0x41B JUMPI POP POP PUSH3 0x10C JUMP JUMPDEST PUSH0 DUP2 SSTORE DUP6 SWAP5 POP DUP9 SWAP2 ADD PUSH3 0x40B JUMP JUMPDEST SWAP3 POP DUP2 SWAP3 PUSH3 0x3FD JUMP JUMPDEST SWAP2 PUSH1 0x7F AND SWAP2 PUSH3 0xF8 JUMP JUMPDEST PUSH0 DUP1 REVERT JUMPDEST PUSH1 0x40 DUP1 MLOAD SWAP2 SWAP1 DUP3 ADD PUSH1 0x1 PUSH1 0x1 PUSH1 0x40 SHL SUB DUP2 GT DUP4 DUP3 LT OR PUSH3 0x35E JUMPI PUSH1 0x40 MSTORE JUMP INVALID PUSH1 0x80 DUP1 PUSH1 0x40 MSTORE PUSH1 0x4 CALLDATASIZE LT ISZERO PUSH2 0x1C JUMPI JUMPDEST POP CALLDATASIZE ISZERO PUSH2 0x1A JUMPI PUSH0 DUP1 REVERT JUMPDEST STOP JUMPDEST PUSH0 SWAP1 PUSH0 CALLDATALOAD PUSH1 0xE0 SHR SWAP1 DUP2 PUSH4 0x1FFC9A7 EQ PUSH2 0x3161 JUMPI POP DUP1 PUSH4 0x2EE3A52 EQ PUSH2 0x2F8D JUMPI DUP1 PUSH4 0x6FDDE03 EQ PUSH2 0x2EB6 JUMPI DUP1 PUSH4 0x81812FC EQ PUSH2 0x2E98 JUMPI DUP1 PUSH4 0x95EA7B3 EQ PUSH2 0x2D24 JUMPI DUP1 PUSH4 0x11CE0267 EQ PUSH2 0x2CE0 JUMPI DUP1 PUSH4 0x2156A96C EQ PUSH2 0x2C7A JUMPI DUP1 PUSH4 0x23B872DD EQ PUSH2 0x2C51 JUMPI DUP1 PUSH4 0x42842E0E EQ PUSH2 0x2C2A JUMPI DUP1 PUSH4 0x4293E5CE EQ PUSH2 0x2B7E JUMPI DUP1 PUSH4 0x4E213D20 EQ PUSH2 0x2945 JUMPI DUP1 PUSH4 0x570AEA8A EQ PUSH2 0x28A9 JUMPI DUP1 PUSH4 0x5AD6A580 EQ PUSH2 0x1E0F JUMPI DUP1 PUSH4 0x5BE20959 EQ PUSH2 0x27D8 JUMPI DUP1 PUSH4 0x6352211E EQ PUSH2 0x27A7 JUMPI DUP1 PUSH4 0x66224D8E EQ PUSH2 0x2641 JUMPI DUP1 PUSH4 0x6F68EF3A EQ PUSH2 0x25AF JUMPI DUP1 PUSH4 0x6F77926B EQ PUSH2 0x244E JUMPI DUP1 PUSH4 0x70A08231 EQ PUSH2 0x23B8 JUMPI DUP1 PUSH4 0x715018A6 EQ PUSH2 0x2372 JUMPI DUP1 PUSH4 0x7E8555ED EQ PUSH2 0x2001 JUMPI DUP1 PUSH4 0x8DA5CB5B EQ PUSH2 0x1FDA JUMPI DUP1 PUSH4 0x95D89B41 EQ PUSH2 0x1EFD JUMPI DUP1 PUSH4 0x97B6F393 EQ PUSH2 0x1E14 JUMPI DUP1 PUSH4 0x9B269B8F EQ PUSH2 0x1E0F JUMPI DUP1 PUSH4 0xA22CB465 EQ PUSH2 0x1D43 JUMPI DUP1 PUSH4 0xA323D29E EQ PUSH2 0x1C75 JUMPI DUP1 PUSH4 0xA9AB7AF2 EQ PUSH2 0x1843 JUMPI DUP1 PUSH4 0xB88D4FDE EQ PUSH2 0x17E0 JUMPI DUP1 PUSH4 0xB9DB15B4 EQ PUSH2 0x16C4 JUMPI DUP1 PUSH4 0xC87B56DD EQ PUSH2 0x14BC JUMPI DUP1 PUSH4 0xCECA737F EQ PUSH2 0x1396 JUMPI DUP1 PUSH4 0xD637DCFA EQ PUSH2 0x1198 JUMPI DUP1 PUSH4 0xD72E481D EQ PUSH2 0x10DA JUMPI DUP1 PUSH4 0xDADD0A57 EQ PUSH2 0xEF8 JUMPI DUP1 PUSH4 0xDC298682 EQ PUSH2 0xD3B JUMPI DUP1 PUSH4 0xE6A93E16 EQ PUSH2 0xC29 JUMPI DUP1 PUSH4 0xE985E9C5 EQ PUSH2 0xBD7 JUMPI DUP1 PUSH4 0xEB11C434 EQ PUSH2 0xB2D JUMPI DUP1 PUSH4 0xEC4CF85B EQ PUSH2 0x6BE JUMPI DUP1 PUSH4 0xED90C7B7 EQ PUSH2 0x4F6 JUMPI DUP1 PUSH4 0xF2FDE38B EQ PUSH2 0x449 JUMPI DUP1 PUSH4 0xF3052D26 EQ PUSH2 0x347 JUMPI PUSH4 0xFDCA4CA3 SUB PUSH2 0xF JUMPI CALLVALUE PUSH2 0x344 JUMPI DUP1 PUSH1 0x3 NOT CALLDATASIZE ADD SLT PUSH2 0x344 JUMPI PUSH1 0x40 MLOAD PUSH4 0x73549F0B PUSH1 0xE1 SHL DUP2 MSTORE CALLER PUSH1 0x4 DUP3 ADD MSTORE PUSH1 0x24 PUSH32 0x0 PUSH1 0x1 PUSH1 0x1 PUSH1 0xA0 SHL SUB AND DUP4 DUP4 DUP4 DUP2 DUP5 GAS STATICCALL SWAP3 DUP4 ISZERO PUSH2 0x339 JUMPI DUP5 SWAP4 PUSH2 0x315 JUMPI JUMPDEST POP PUSH2 0x277 DUP4 MLOAD PUSH2 0x3700 JUMP JUMPDEST SWAP2 DUP5 JUMPDEST DUP5 MLOAD DUP2 LT ISZERO PUSH2 0x303 JUMPI PUSH2 0x28D DUP2 DUP7 PUSH2 0x38B3 JUMP JUMPDEST MLOAD SWAP1 PUSH1 0x40 MLOAD SWAP2 PUSH4 0x2E76C56D PUSH1 0xE2 SHL DUP4 MSTORE PUSH1 0x4 DUP4 ADD MSTORE DUP7 DUP3 DUP5 DUP2 DUP8 GAS STATICCALL DUP1 ISZERO PUSH2 0x2F8 JUMPI PUSH1 0x1 SWAP3 DUP9 SWAP2 PUSH2 0x2D6 JUMPI JUMPDEST POP PUSH2 0x2C4 DUP3 DUP8 PUSH2 0x38B3 JUMP JUMPDEST MSTORE PUSH2 0x2CF DUP2 DUP7 PUSH2 0x38B3 JUMP JUMPDEST POP ADD PUSH2 0x27A JUMP JUMPDEST PUSH2 0x2F2 SWAP2 POP RETURNDATASIZE DUP1 DUP11 DUP4 RETURNDATACOPY PUSH2 0x2EA DUP2 DUP4 PUSH2 0x357D JUMP JUMPDEST DUP2 ADD SWAP1 PUSH2 0x37D4 JUMP JUMPDEST PUSH0 PUSH2 0x2B9 JUMP JUMPDEST PUSH1 0x40 MLOAD RETURNDATASIZE DUP10 DUP3 RETURNDATACOPY RETURNDATASIZE SWAP1 REVERT JUMPDEST PUSH1 0x40 MLOAD DUP1 PUSH2 0x311 DUP7 DUP3 PUSH2 0x32A6 JUMP JUMPDEST SUB SWAP1 RETURN JUMPDEST PUSH2 0x332 SWAP2 SWAP4 POP RETURNDATASIZE DUP1 DUP7 DUP4 RETURNDATACOPY PUSH2 0x32A DUP2 DUP4 PUSH2 0x357D JUMP JUMPDEST DUP2 ADD SWAP1 PUSH2 0x3E27 JUMP JUMPDEST SWAP2 PUSH0 PUSH2 0x26C JUMP JUMPDEST PUSH1 0x40 MLOAD RETURNDATASIZE DUP7 DUP3 RETURNDATACOPY RETURNDATASIZE SWAP1 REVERT JUMPDEST DUP1 REVERT JUMPDEST POP CALLVALUE PUSH2 0x344 JUMPI PUSH1 0x20 SWAP1 DUP2 PUSH1 0x3 NOT CALLDATASIZE ADD SLT PUSH2 0x344 JUMPI PUSH1 0x40 MLOAD PUSH4 0x79829693 PUSH1 0xE1 SHL DUP2 MSTORE PUSH1 0x4 DUP1 CALLDATALOAD SWAP1 DUP3 ADD MSTORE DUP2 DUP2 PUSH1 0x24 DUP2 PUSH32 0x0 PUSH1 0x1 PUSH1 0x1 PUSH1 0xA0 SHL SUB AND GAS STATICCALL SWAP1 DUP2 ISZERO PUSH2 0x43E JUMPI DUP3 SWAP2 PUSH2 0x41C JUMPI JUMPDEST POP SWAP2 DUP3 MLOAD SWAP2 PUSH1 0x40 DUP3 DUP6 ADD MLOAD SWAP5 ADD MLOAD ISZERO ISZERO PUSH2 0x3DA PUSH1 0x40 MLOAD SWAP6 DUP7 SWAP6 DUP7 MSTORE PUSH1 0x80 DUP6 DUP8 ADD MSTORE PUSH1 0x80 DUP7 ADD SWAP1 PUSH2 0x31ED JUMP JUMPDEST SWAP1 PUSH1 0x40 DUP6 ADD MSTORE DUP4 DUP2 SUB PUSH1 0x60 DUP6 ADD MSTORE DUP3 PUSH1 0x60 MLOAD SWAP2 DUP3 DUP2 MSTORE ADD SWAP3 PUSH1 0x80 SWAP3 JUMPDEST DUP3 DUP2 LT PUSH2 0x405 JUMPI POP POP POP POP SUB SWAP1 RETURN JUMPDEST DUP4 MLOAD DUP6 MSTORE DUP7 SWAP6 POP SWAP4 DUP2 ADD SWAP4 SWAP3 DUP2 ADD SWAP3 PUSH1 0x1 ADD PUSH2 0x3F6 JUMP JUMPDEST PUSH2 0x438 SWAP2 POP RETURNDATASIZE DUP1 DUP5 DUP4 RETURNDATACOPY PUSH2 0x430 DUP2 DUP4 PUSH2 0x357D JUMP JUMPDEST DUP2 ADD SWAP1 PUSH2 0x3B91 JUMP JUMPDEST PUSH0 PUSH2 0x3AF JUMP JUMPDEST PUSH1 0x40 MLOAD RETURNDATASIZE DUP5 DUP3 RETURNDATACOPY RETURNDATASIZE SWAP1 REVERT JUMPDEST POP CALLVALUE PUSH2 0x344 JUMPI PUSH1 0x20 CALLDATASIZE PUSH1 0x3 NOT ADD SLT PUSH2 0x344 JUMPI PUSH2 0x463 PUSH2 0x3309 JUMP JUMPDEST PUSH2 0x46B PUSH2 0x40D1 JUMP JUMPDEST PUSH1 0x1 PUSH1 0x1 PUSH1 0xA0 SHL SUB SWAP1 DUP2 AND SWAP1 DUP2 ISZERO PUSH2 0x4A2 JUMPI PUSH0 SLOAD DUP3 PUSH1 0x1 DUP1 PUSH1 0xA0 SHL SUB NOT DUP3 AND OR PUSH0 SSTORE AND PUSH0 DUP1 MLOAD PUSH1 0x20 PUSH2 0x426A DUP4 CODECOPY DUP2 MLOAD SWAP2 MSTORE PUSH0 DUP1 LOG3 DUP1 RETURN JUMPDEST PUSH1 0x40 MLOAD PUSH3 0x461BCD PUSH1 0xE5 SHL DUP2 MSTORE PUSH1 0x20 PUSH1 0x4 DUP3 ADD MSTORE PUSH1 0x26 PUSH1 0x24 DUP3 ADD MSTORE PUSH32 0x4F776E61626C653A206E6577206F776E657220697320746865207A65726F2061 PUSH1 0x44 DUP3 ADD MSTORE PUSH6 0x646472657373 PUSH1 0xD0 SHL PUSH1 0x64 DUP3 ADD MSTORE PUSH1 0x84 SWAP1 REVERT JUMPDEST POP CALLVALUE PUSH2 0x344 JUMPI PUSH1 0x20 DUP1 PUSH1 0x3 NOT CALLDATASIZE ADD SLT PUSH2 0x640 JUMPI PUSH1 0x40 MLOAD PUSH4 0x2BD57B59 PUSH1 0xE2 SHL DUP2 MSTORE PUSH1 0x4 DUP1 CALLDATALOAD SWAP1 DUP3 ADD DUP2 SWAP1 MSTORE SWAP2 DUP4 SWAP2 PUSH1 0x1 PUSH1 0x1 PUSH1 0xA0 SHL SUB PUSH32 0x0 DUP2 AND SWAP2 DUP4 DUP2 PUSH1 0x24 DUP2 DUP7 GAS STATICCALL DUP1 ISZERO PUSH2 0x679 JUMPI DUP6 SWAP1 PUSH2 0x684 JUMPI JUMPDEST PUSH2 0x56E SWAP2 POP PUSH2 0x3D4F JUMP JUMPDEST PUSH1 0x40 MLOAD PUSH4 0x2E76C56D PUSH1 0xE2 SHL DUP2 MSTORE PUSH1 0x4 DUP2 ADD DUP7 SWAP1 MSTORE SWAP3 DUP5 DUP5 PUSH1 0x24 DUP2 DUP7 GAS STATICCALL SWAP4 DUP5 ISZERO PUSH2 0x679 JUMPI DUP6 SWAP5 PUSH2 0x655 JUMPI JUMPDEST POP SWAP1 DUP1 PUSH2 0x5B4 SWAP3 DUP6 ADD MLOAD AND CALLER EQ SWAP1 DUP2 ISZERO PUSH2 0x648 JUMPI JUMPDEST POP PUSH2 0x3EA0 JUMP JUMPDEST PUSH1 0x1 PUSH2 0x120 DUP4 ADD MSTORE DUP1 EXTCODESIZE ISZERO PUSH2 0x644 JUMPI PUSH2 0x5F5 DUP4 SWAP3 SWAP2 DUP4 SWAP3 PUSH1 0x40 MLOAD SWAP5 DUP6 DUP1 SWAP5 DUP2 SWAP4 PUSH4 0x6AD0CB9 PUSH1 0xE0 SHL DUP4 MSTORE DUP11 PUSH1 0x4 DUP5 ADD MSTORE PUSH1 0x40 PUSH1 0x24 DUP5 ADD MSTORE PUSH1 0x44 DUP4 ADD SWAP1 PUSH2 0x3212 JUMP JUMPDEST SUB SWAP3 GAS CALL DUP1 ISZERO PUSH2 0x43E JUMPI PUSH2 0x62C JUMPI JUMPDEST POP DUP1 PUSH32 0xC341CF326465FE622F86C468249E8C0CB03ED23BA376A6A34863A1374AC7D769 SWAP2 LOG2 DUP1 RETURN JUMPDEST PUSH2 0x635 SWAP1 PUSH2 0x34E2 JUMP JUMPDEST PUSH2 0x640 JUMPI DUP2 PUSH0 PUSH2 0x604 JUMP JUMPDEST POP DUP1 REVERT JUMPDEST DUP3 DUP1 REVERT JUMPDEST SWAP1 POP DUP5 SLOAD AND CALLER EQ PUSH0 PUSH2 0x5AE JUMP JUMPDEST DUP3 SWAP2 SWAP5 POP SWAP2 PUSH2 0x670 PUSH2 0x5B4 SWAP4 RETURNDATASIZE DUP1 DUP10 DUP4 RETURNDATACOPY PUSH2 0x2EA DUP2 DUP4 PUSH2 0x357D JUMP JUMPDEST SWAP5 SWAP2 SWAP3 POP PUSH2 0x599 JUMP JUMPDEST PUSH1 0x40 MLOAD RETURNDATASIZE DUP8 DUP3 RETURNDATACOPY RETURNDATASIZE SWAP1 REVERT JUMPDEST POP DUP4 DUP2 DUP2 RETURNDATASIZE DUP4 GT PUSH2 0x6B7 JUMPI JUMPDEST PUSH2 0x69A DUP2 DUP4 PUSH2 0x357D JUMP JUMPDEST DUP2 ADD SUB SLT PUSH2 0x6B3 JUMPI PUSH2 0x6AE PUSH2 0x56E SWAP2 PUSH2 0x3771 JUMP JUMPDEST PUSH2 0x564 JUMP JUMPDEST DUP5 DUP1 REVERT JUMPDEST POP RETURNDATASIZE PUSH2 0x690 JUMP JUMPDEST POP CALLVALUE PUSH2 0x344 JUMPI PUSH1 0xE0 CALLDATASIZE PUSH1 0x3 NOT ADD SLT PUSH2 0x344 JUMPI PUSH1 0x1 PUSH1 0x1 PUSH1 0x40 SHL SUB SWAP1 PUSH1 0x24 DUP1 CALLDATALOAD DUP4 DUP2 GT PUSH2 0x644 JUMPI PUSH2 0x6F2 SWAP1 CALLDATASIZE SWAP1 PUSH1 0x4 ADD PUSH2 0x35F1 JUMP JUMPDEST SWAP3 PUSH1 0x44 CALLDATALOAD DUP2 DUP2 GT PUSH2 0xB29 JUMPI PUSH2 0x70B SWAP1 CALLDATASIZE SWAP1 PUSH1 0x4 ADD PUSH2 0x35F1 JUMP JUMPDEST SWAP1 PUSH1 0x64 CALLDATALOAD SWAP1 DUP2 GT PUSH2 0xB29 JUMPI PUSH2 0x724 SWAP1 CALLDATASIZE SWAP1 PUSH1 0x4 ADD PUSH2 0x35F1 JUMP JUMPDEST PUSH1 0x40 MLOAD PUSH4 0x2BD57B59 PUSH1 0xE2 SHL DUP2 MSTORE PUSH1 0x4 DUP1 CALLDATALOAD SWAP1 DUP3 ADD MSTORE SWAP1 SWAP5 SWAP1 PUSH1 0x20 DUP2 DUP6 DUP2 PUSH32 0x0 PUSH1 0x1 PUSH1 0x1 PUSH1 0xA0 SHL SUB AND GAS STATICCALL DUP1 ISZERO PUSH2 0x679 JUMPI DUP6 SWAP1 PUSH2 0xAEE JUMPI JUMPDEST PUSH2 0x784 SWAP2 POP PUSH2 0x3D4F JUMP JUMPDEST PUSH1 0x40 MLOAD PUSH4 0x2E76C56D PUSH1 0xE2 SHL DUP2 MSTORE PUSH1 0x4 DUP1 CALLDATALOAD SWAP1 DUP3 ADD MSTORE DUP5 DUP2 DUP6 DUP2 PUSH32 0x0 PUSH1 0x1 PUSH1 0x1 PUSH1 0xA0 SHL SUB AND GAS STATICCALL SWAP1 DUP2 ISZERO PUSH2 0x679 JUMPI DUP6 SWAP2 PUSH2 0xAD4 JUMPI JUMPDEST POP PUSH1 0x20 DUP2 ADD MLOAD PUSH1 0x1 PUSH1 0x1 PUSH1 0xA0 SHL SUB AND CALLER EQ DUP1 ISZERO PUSH2 0xAC1 JUMPI JUMPDEST PUSH2 0x7F8 SWAP1 PUSH2 0x3EA0 JUMP JUMPDEST PUSH2 0x120 DUP2 ADD MLOAD PUSH2 0xA8B JUMPI DUP5 SWAP6 PUSH2 0x810 DUP4 MLOAD ISZERO ISZERO PUSH2 0x3C40 JUMP JUMPDEST PUSH2 0x81D PUSH1 0xA4 CALLDATALOAD ISZERO ISZERO PUSH2 0x3C7C JUMP JUMPDEST PUSH1 0x40 MLOAD PUSH4 0x79829693 PUSH1 0xE1 SHL DUP2 MSTORE PUSH1 0x84 CALLDATALOAD PUSH1 0x4 DUP3 ADD MSTORE DUP7 DUP2 DUP8 DUP2 PUSH32 0x0 PUSH1 0x1 PUSH1 0x1 PUSH1 0xA0 SHL SUB AND GAS STATICCALL SWAP1 DUP2 ISZERO PUSH2 0x2F8 JUMPI PUSH2 0x881 SWAP2 PUSH1 0x40 SWAP2 DUP10 SWAP2 PUSH2 0xA71 JUMPI JUMPDEST POP ADD MLOAD ISZERO ISZERO PUSH2 0x3CC8 JUMP JUMPDEST PUSH1 0x20 DUP3 ADD MLOAD PUSH2 0x100 SWAP3 DUP4 ADD MLOAD PUSH1 0x40 MLOAD SWAP6 SWAP1 SWAP5 SWAP1 SWAP2 PUSH1 0x1 PUSH1 0x1 PUSH1 0xA0 SHL SUB AND PUSH2 0x8A7 DUP8 PUSH2 0x352B JUMP JUMPDEST PUSH1 0x4 CALLDATALOAD DUP8 MSTORE PUSH1 0x20 DUP8 ADD MSTORE PUSH1 0x40 DUP7 ADD MSTORE PUSH1 0x60 DUP6 ADD MSTORE PUSH1 0x80 DUP5 ADD MSTORE PUSH1 0x84 CALLDATALOAD PUSH1 0xA0 DUP5 ADD MSTORE PUSH1 0xA4 CALLDATALOAD PUSH1 0xC0 DUP5 ADD MSTORE PUSH1 0xC4 CALLDATALOAD PUSH1 0xE0 DUP5 ADD MSTORE DUP3 ADD MSTORE PUSH2 0x120 DUP2 ADD DUP4 SWAP1 MSTORE PUSH32 0x0 PUSH1 0x1 PUSH1 0x1 PUSH1 0xA0 SHL SUB AND EXTCODESIZE ISZERO PUSH2 0xA6D JUMPI DUP3 PUSH2 0x941 SWAP2 PUSH1 0x40 MLOAD DUP1 SWAP4 DUP2 SWAP3 PUSH4 0x6AD0CB9 PUSH1 0xE0 SHL DUP4 MSTORE PUSH1 0x4 CALLDATALOAD PUSH1 0x4 DUP5 ADD MSTORE PUSH1 0x40 DUP8 DUP5 ADD MSTORE PUSH1 0x44 DUP4 ADD SWAP1 PUSH2 0x3212 JUMP JUMPDEST SUB DUP2 DUP4 PUSH32 0x0 PUSH1 0x1 PUSH1 0x1 PUSH1 0xA0 SHL SUB AND GAS CALL SWAP1 DUP2 ISZERO PUSH2 0xA62 JUMPI DUP4 SWAP2 PUSH2 0xA4E JUMPI JUMPDEST POP POP PUSH32 0x0 PUSH1 0x1 PUSH1 0x1 PUSH1 0xA0 SHL SUB AND EXTCODESIZE ISZERO PUSH2 0xA4B JUMPI PUSH1 0x40 MLOAD PUSH4 0x184C5E53 PUSH1 0xE3 SHL DUP2 MSTORE PUSH1 0x4 DUP1 CALLDATALOAD SWAP1 DUP3 ADD MSTORE PUSH1 0x84 CALLDATALOAD SWAP2 DUP2 ADD SWAP2 SWAP1 SWAP2 MSTORE DUP2 DUP2 PUSH1 0x44 DUP2 DUP4 PUSH32 0x0 PUSH1 0x1 PUSH1 0x1 PUSH1 0xA0 SHL SUB AND GAS CALL DUP1 ISZERO PUSH2 0x43E JUMPI PUSH2 0xA37 JUMPI JUMPDEST POP PUSH1 0x4 CALLDATALOAD PUSH32 0xECA6714FCF568FB34CF9DB4A414CB0CC48E93C5D4E1BA0582A46EA3704CF24D5 DUP3 DUP1 LOG2 DUP1 RETURN JUMPDEST PUSH2 0xA40 SWAP1 PUSH2 0x34E2 JUMP JUMPDEST PUSH2 0x344 JUMPI DUP1 PUSH0 PUSH2 0xA0C JUMP JUMPDEST POP REVERT JUMPDEST PUSH2 0xA57 SWAP1 PUSH2 0x34E2 JUMP JUMPDEST PUSH2 0xA4B JUMPI DUP2 PUSH0 PUSH2 0x97E JUMP JUMPDEST PUSH1 0x40 MLOAD RETURNDATASIZE DUP6 DUP3 RETURNDATACOPY RETURNDATASIZE SWAP1 REVERT JUMPDEST POP POP REVERT JUMPDEST PUSH2 0xA85 SWAP2 POP RETURNDATASIZE DUP1 DUP12 DUP4 RETURNDATACOPY PUSH2 0x430 DUP2 DUP4 PUSH2 0x357D JUMP JUMPDEST PUSH0 PUSH2 0x877 JUMP JUMPDEST PUSH1 0x40 MLOAD PUSH3 0x461BCD PUSH1 0xE5 SHL DUP2 MSTORE PUSH1 0x20 PUSH1 0x4 DUP3 ADD MSTORE PUSH1 0xF DUP2 DUP7 ADD MSTORE PUSH15 0x141C9BD91D58DD0819195B195D1959 PUSH1 0x8A SHL PUSH1 0x44 DUP3 ADD MSTORE PUSH1 0x64 SWAP1 REVERT JUMPDEST POP DUP5 SLOAD PUSH1 0x1 PUSH1 0x1 PUSH1 0xA0 SHL SUB AND CALLER EQ PUSH2 0x7EF JUMP JUMPDEST PUSH2 0xAE8 SWAP2 POP RETURNDATASIZE DUP1 DUP8 DUP4 RETURNDATACOPY PUSH2 0x2EA DUP2 DUP4 PUSH2 0x357D JUMP JUMPDEST PUSH0 PUSH2 0x7D7 JUMP JUMPDEST POP PUSH1 0x20 DUP2 RETURNDATASIZE PUSH1 0x20 GT PUSH2 0xB21 JUMPI JUMPDEST DUP2 PUSH2 0xB08 PUSH1 0x20 SWAP4 DUP4 PUSH2 0x357D JUMP JUMPDEST DUP2 ADD SUB SLT PUSH2 0x6B3 JUMPI PUSH2 0xB1C PUSH2 0x784 SWAP2 PUSH2 0x3771 JUMP JUMPDEST PUSH2 0x77A JUMP JUMPDEST RETURNDATASIZE SWAP2 POP PUSH2 0xAFB JUMP JUMPDEST DUP4 DUP1 REVERT JUMPDEST POP CALLVALUE PUSH2 0x344 JUMPI PUSH1 0x20 CALLDATASIZE PUSH1 0x3 NOT ADD SLT PUSH2 0x344 JUMPI PUSH1 0x24 DUP2 PUSH2 0xB4A PUSH2 0x3309 JUMP JUMPDEST PUSH1 0x40 MLOAD PUSH4 0x5191E94F PUSH1 0xE1 SHL DUP2 MSTORE PUSH1 0x1 PUSH1 0x1 PUSH1 0xA0 SHL SUB SWAP2 DUP3 AND PUSH1 0x4 DUP3 ADD MSTORE SWAP3 DUP4 SWAP2 DUP3 SWAP1 PUSH32 0x0 AND GAS STATICCALL SWAP1 DUP2 ISZERO PUSH2 0x43E JUMPI DUP3 PUSH1 0x20 SWAP4 SWAP3 PUSH2 0xBB2 JUMPI JUMPDEST POP POP PUSH2 0xBB0 PUSH1 0x40 MLOAD DUP1 SWAP3 PUSH2 0x365B JUMP JUMPDEST RETURN JUMPDEST PUSH2 0xBCE SWAP3 POP RETURNDATASIZE DUP1 SWAP2 DUP4 RETURNDATACOPY PUSH2 0xBC6 DUP2 DUP4 PUSH2 0x357D JUMP JUMPDEST DUP2 ADD SWAP1 PUSH2 0x3996 JUMP JUMPDEST SWAP1 POP PUSH0 DUP1 PUSH2 0xBA1 JUMP JUMPDEST POP CALLVALUE PUSH2 0x344 JUMPI PUSH1 0x40 CALLDATASIZE PUSH1 0x3 NOT ADD SLT PUSH2 0x344 JUMPI PUSH2 0xBF1 PUSH2 0x3309 JUMP JUMPDEST PUSH1 0x40 PUSH2 0xBFB PUSH2 0x331F JUMP JUMPDEST SWAP3 PUSH1 0x1 DUP1 PUSH1 0xA0 SHL SUB DUP1 SWAP4 AND DUP2 MSTORE PUSH1 0x7 PUSH1 0x20 MSTORE KECCAK256 SWAP2 AND PUSH0 MSTORE PUSH1 0x20 MSTORE PUSH1 0x20 PUSH1 0xFF PUSH1 0x40 PUSH0 KECCAK256 SLOAD AND PUSH1 0x40 MLOAD SWAP1 ISZERO ISZERO DUP2 MSTORE RETURN JUMPDEST POP CALLVALUE PUSH2 0x344 JUMPI PUSH1 0x20 CALLDATASIZE PUSH1 0x3 NOT ADD SLT PUSH2 0x344 JUMPI PUSH2 0xC43 PUSH2 0x3309 JUMP JUMPDEST PUSH1 0x40 MLOAD PUSH4 0x73549F0B PUSH1 0xE1 SHL DUP2 MSTORE PUSH1 0x1 PUSH1 0x1 PUSH1 0xA0 SHL SUB SWAP2 DUP3 AND PUSH1 0x4 DUP3 ADD MSTORE SWAP1 PUSH1 0x24 SWAP1 PUSH32 0x0 AND DUP4 DUP4 DUP4 DUP2 DUP5 GAS STATICCALL SWAP3 DUP4 ISZERO PUSH2 0x339 JUMPI DUP5 SWAP4 PUSH2 0xD1F JUMPI JUMPDEST POP PUSH2 0xCA6 DUP4 MLOAD PUSH2 0x3700 JUMP JUMPDEST SWAP2 DUP5 JUMPDEST DUP5 MLOAD DUP2 LT ISZERO PUSH2 0x303 JUMPI PUSH2 0xCBC DUP2 DUP7 PUSH2 0x38B3 JUMP JUMPDEST MLOAD SWAP1 PUSH1 0x40 MLOAD SWAP2 PUSH4 0x2E76C56D PUSH1 0xE2 SHL DUP4 MSTORE PUSH1 0x4 DUP4 ADD MSTORE DUP7 DUP3 DUP5 DUP2 DUP8 GAS STATICCALL DUP1 ISZERO PUSH2 0x2F8 JUMPI PUSH1 0x1 SWAP3 DUP9 SWAP2 PUSH2 0xD05 JUMPI JUMPDEST POP PUSH2 0xCF3 DUP3 DUP8 PUSH2 0x38B3 JUMP JUMPDEST MSTORE PUSH2 0xCFE DUP2 DUP7 PUSH2 0x38B3 JUMP JUMPDEST POP ADD PUSH2 0xCA9 JUMP JUMPDEST PUSH2 0xD19 SWAP2 POP RETURNDATASIZE DUP1 DUP11 DUP4 RETURNDATACOPY PUSH2 0x2EA DUP2 DUP4 PUSH2 0x357D JUMP JUMPDEST PUSH0 PUSH2 0xCE8 JUMP JUMPDEST PUSH2 0xD34 SWAP2 SWAP4 POP RETURNDATASIZE DUP1 DUP7 DUP4 RETURNDATACOPY PUSH2 0x32A DUP2 DUP4 PUSH2 0x357D JUMP JUMPDEST SWAP2 PUSH0 PUSH2 0xC9B JUMP JUMPDEST POP CALLVALUE PUSH2 0x344 JUMPI PUSH1 0x20 DUP1 PUSH1 0x3 NOT CALLDATASIZE ADD SLT PUSH2 0x640 JUMPI PUSH1 0x4 CALLDATALOAD PUSH1 0x1 PUSH1 0x1 PUSH1 0x40 SHL SUB DUP2 GT PUSH2 0x644 JUMPI PUSH2 0xD6D SWAP1 CALLDATASIZE SWAP1 PUSH1 0x4 ADD PUSH2 0x35F1 JUMP JUMPDEST SWAP1 PUSH2 0xD76 PUSH2 0x40D1 JUMP JUMPDEST DUP2 MLOAD ISZERO PUSH2 0xEBB JUMPI PUSH1 0x40 MLOAD PUSH4 0x6025663 PUSH1 0xE1 SHL DUP2 MSTORE SWAP2 DUP4 PUSH32 0x0 PUSH1 0x1 PUSH1 0x1 PUSH1 0xA0 SHL SUB AND DUP4 DUP6 PUSH1 0x4 DUP2 DUP6 DUP6 GAS CALL SWAP5 DUP6 ISZERO PUSH2 0x43E JUMPI DUP3 SWAP6 PUSH2 0xE84 JUMPI JUMPDEST POP PUSH1 0x40 MLOAD SWAP1 PUSH2 0xDDB DUP3 PUSH2 0x34F5 JUMP JUMPDEST DUP6 DUP3 MSTORE DUP4 DUP6 DUP4 ADD MSTORE PUSH1 0x1 PUSH1 0x40 DUP4 ADD MSTORE DUP1 EXTCODESIZE ISZERO PUSH2 0x644 JUMPI PUSH2 0xE23 DUP4 SWAP3 SWAP2 DUP4 SWAP3 PUSH1 0x40 MLOAD SWAP5 DUP6 DUP1 SWAP5 DUP2 SWAP4 PUSH4 0x28A22B87 PUSH1 0xE0 SHL DUP4 MSTORE DUP13 PUSH1 0x4 DUP5 ADD MSTORE PUSH1 0x40 PUSH1 0x24 DUP5 ADD MSTORE PUSH1 0x44 DUP4 ADD SWAP1 PUSH2 0x367C JUMP JUMPDEST SUB SWAP3 GAS CALL DUP1 ISZERO PUSH2 0x43E JUMPI PUSH2 0xE70 JUMPI JUMPDEST POP POP PUSH32 0x11C167CC9B439F0AD8BEC5588159F1B06B813BC38D50C867A41B23B077BE2C1A SWAP2 PUSH2 0xE6A PUSH1 0x40 MLOAD SWAP3 DUP3 DUP5 SWAP4 DUP5 MSTORE DUP4 ADD SWAP1 PUSH2 0x31ED JUMP JUMPDEST SUB SWAP1 LOG2 DUP1 RETURN JUMPDEST PUSH2 0xE79 SWAP1 PUSH2 0x34E2 JUMP JUMPDEST PUSH2 0xB29 JUMPI DUP4 PUSH0 PUSH2 0xE32 JUMP JUMPDEST DUP5 DUP1 SWAP3 SWAP7 POP DUP2 SWAP4 POP RETURNDATASIZE DUP4 GT PUSH2 0xEB4 JUMPI JUMPDEST PUSH2 0xE9E DUP2 DUP4 PUSH2 0x357D JUMP JUMPDEST DUP2 ADD SUB SLT PUSH2 0xEB0 JUMPI DUP5 SWAP1 MLOAD SWAP4 PUSH0 PUSH2 0xDCD JUMP JUMPDEST PUSH0 DUP1 REVERT JUMPDEST POP RETURNDATASIZE PUSH2 0xE94 JUMP JUMPDEST PUSH1 0x64 SWAP1 PUSH1 0x40 MLOAD SWAP1 PUSH3 0x461BCD PUSH1 0xE5 SHL DUP3 MSTORE PUSH1 0x4 DUP3 ADD MSTORE PUSH1 0x16 PUSH1 0x24 DUP3 ADD MSTORE PUSH22 0x10D85D1959DBDC9E481B985B59481C995C5D5A5C9959 PUSH1 0x52 SHL PUSH1 0x44 DUP3 ADD MSTORE REVERT JUMPDEST POP CALLVALUE PUSH2 0x344 JUMPI DUP1 PUSH1 0x3 NOT CALLDATASIZE ADD SLT PUSH2 0x344 JUMPI PUSH1 0x40 MLOAD PUSH3 0xD893F PUSH1 0xE6 SHL DUP2 MSTORE PUSH1 0x20 SWAP1 PUSH32 0x0 PUSH1 0x1 PUSH1 0x1 PUSH1 0xA0 SHL SUB AND DUP3 DUP3 PUSH1 0x4 DUP2 DUP5 GAS STATICCALL SWAP2 DUP3 ISZERO PUSH2 0x339 JUMPI DUP5 SWAP3 PUSH2 0x10AB JUMPI JUMPDEST POP PUSH2 0xF65 DUP3 SWAP5 SWAP4 SWAP5 PUSH2 0x3DC3 JUMP JUMPDEST SWAP2 DUP4 SWAP2 PUSH1 0x1 JUMPDEST DUP3 DUP2 GT ISZERO PUSH2 0x1018 JUMPI POP POP POP PUSH2 0xF7F DUP2 PUSH2 0x3DC3 JUMP JUMPDEST SWAP2 DUP4 JUMPDEST DUP3 DUP2 LT PUSH2 0xFE8 JUMPI POP POP POP PUSH1 0x40 MLOAD SWAP2 DUP4 DUP4 ADD DUP5 DUP5 MSTORE DUP3 MLOAD DUP1 SWAP2 MSTORE PUSH1 0x40 DUP5 ADD SWAP5 DUP1 PUSH1 0x40 DUP4 PUSH1 0x5 SHL DUP8 ADD ADD SWAP5 ADD SWAP3 SWAP6 JUMPDEST DUP3 DUP8 LT PUSH2 0xFBC JUMPI DUP6 DUP6 SUB DUP7 RETURN JUMPDEST SWAP1 SWAP2 SWAP3 SWAP4 DUP3 DUP1 PUSH2 0xFD8 PUSH1 0x1 SWAP4 PUSH1 0x3F NOT DUP11 DUP3 SUB ADD DUP7 MSTORE DUP9 MLOAD PUSH2 0x367C JUMP JUMPDEST SWAP7 ADD SWAP3 ADD SWAP7 ADD SWAP6 SWAP3 SWAP2 SWAP1 SWAP3 PUSH2 0xFAF JUMP JUMPDEST DUP1 PUSH2 0xFF8 PUSH1 0x1 SWAP3 DUP5 SWAP9 SWAP8 SWAP9 PUSH2 0x38B3 JUMP JUMPDEST MLOAD PUSH2 0x1003 DUP3 DUP8 PUSH2 0x38B3 JUMP JUMPDEST MSTORE PUSH2 0x100E DUP2 DUP7 PUSH2 0x38B3 JUMP JUMPDEST POP ADD SWAP5 SWAP4 SWAP5 PUSH2 0xF82 JUMP JUMPDEST SWAP1 DUP6 SWAP7 SWAP6 SWAP2 PUSH1 0x40 MLOAD PUSH4 0x79829693 PUSH1 0xE1 SHL DUP2 MSTORE DUP2 PUSH1 0x4 DUP3 ADD MSTORE DUP4 DUP2 PUSH1 0x24 DUP2 DUP7 GAS STATICCALL SWAP1 DUP2 ISZERO PUSH2 0x339 JUMPI DUP5 SWAP2 PUSH2 0x1091 JUMPI JUMPDEST POP PUSH1 0x40 DUP2 ADD MLOAD PUSH2 0x1066 JUMPI JUMPDEST POP PUSH2 0x105B SWAP1 PUSH2 0x374F JUMP JUMPDEST SWAP1 SWAP2 POP SWAP6 SWAP5 SWAP6 PUSH2 0xF6B JUMP JUMPDEST DUP6 PUSH2 0x108A SWAP2 PUSH2 0x1079 PUSH2 0x105B SWAP5 SWAP9 DUP11 PUSH2 0x38B3 JUMP JUMPDEST MSTORE PUSH2 0x1084 DUP2 DUP10 PUSH2 0x38B3 JUMP JUMPDEST POP PUSH2 0x374F JUMP JUMPDEST SWAP5 SWAP1 PUSH2 0x1051 JUMP JUMPDEST PUSH2 0x10A5 SWAP2 POP RETURNDATASIZE DUP1 DUP7 DUP4 RETURNDATACOPY PUSH2 0x430 DUP2 DUP4 PUSH2 0x357D JUMP JUMPDEST PUSH0 PUSH2 0x1046 JUMP JUMPDEST SWAP1 SWAP2 POP DUP3 DUP2 DUP2 RETURNDATASIZE DUP4 GT PUSH2 0x10D3 JUMPI JUMPDEST PUSH2 0x10C3 DUP2 DUP4 PUSH2 0x357D JUMP JUMPDEST DUP2 ADD SUB SLT PUSH2 0xEB0 JUMPI MLOAD SWAP1 PUSH0 PUSH2 0xF58 JUMP JUMPDEST POP RETURNDATASIZE PUSH2 0x10B9 JUMP JUMPDEST POP CALLVALUE PUSH2 0x344 JUMPI DUP1 PUSH1 0x3 NOT CALLDATASIZE ADD SLT PUSH2 0x344 JUMPI PUSH2 0x10F3 PUSH2 0x40D1 JUMP JUMPDEST SELFBALANCE DUP1 ISZERO PUSH2 0x115D JUMPI DUP2 SLOAD DUP3 SWAP2 DUP3 SWAP2 DUP3 SWAP2 DUP3 SWAP2 PUSH1 0x1 PUSH1 0x1 PUSH1 0xA0 SHL SUB AND GAS CALL PUSH2 0x1117 PUSH2 0x3D94 JUMP JUMPDEST POP ISZERO PUSH2 0x1120 JUMPI DUP1 RETURN JUMPDEST PUSH1 0x40 MLOAD PUSH3 0x461BCD PUSH1 0xE5 SHL DUP2 MSTORE PUSH1 0x20 PUSH1 0x4 DUP3 ADD MSTORE PUSH1 0x15 PUSH1 0x24 DUP3 ADD MSTORE PUSH21 0x119959481DDA5D1A191C985DD85B0819985A5B1959 PUSH1 0x5A SHL PUSH1 0x44 DUP3 ADD MSTORE PUSH1 0x64 SWAP1 REVERT JUMPDEST PUSH1 0x40 MLOAD PUSH3 0x461BCD PUSH1 0xE5 SHL DUP2 MSTORE PUSH1 0x20 PUSH1 0x4 DUP3 ADD MSTORE PUSH1 0x13 PUSH1 0x24 DUP3 ADD MSTORE PUSH19 0x4E6F206665657320746F207769746864726177 PUSH1 0x68 SHL PUSH1 0x44 DUP3 ADD MSTORE PUSH1 0x64 SWAP1 REVERT JUMPDEST POP CALLVALUE PUSH2 0x344 JUMPI PUSH1 0x60 CALLDATASIZE PUSH1 0x3 NOT ADD SLT PUSH2 0x344 JUMPI PUSH1 0x1 PUSH1 0x1 PUSH1 0x40 SHL SUB PUSH1 0x4 CALLDATALOAD DUP2 DUP2 GT PUSH2 0x644 JUMPI PUSH2 0x11CA SWAP1 CALLDATASIZE SWAP1 PUSH1 0x4 ADD PUSH2 0x35F1 JUMP JUMPDEST PUSH1 0x24 CALLDATALOAD DUP3 DUP2 GT PUSH2 0xB29 JUMPI PUSH2 0x11E2 SWAP1 CALLDATASIZE SWAP1 PUSH1 0x4 ADD PUSH2 0x35F1 JUMP JUMPDEST SWAP2 PUSH1 0x44 CALLDATALOAD SWAP1 DUP2 GT PUSH2 0xB29 JUMPI PUSH2 0x11FB SWAP1 CALLDATASIZE SWAP1 PUSH1 0x4 ADD PUSH2 0x35F1 JUMP JUMPDEST PUSH1 0x40 MLOAD PUSH4 0xE50CEE5 PUSH1 0xE0 SHL DUP2 MSTORE CALLER PUSH1 0x4 DUP3 ADD MSTORE PUSH1 0x20 SWAP4 SWAP2 PUSH32 0x0 PUSH1 0x1 PUSH1 0x1 PUSH1 0xA0 SHL SUB AND SWAP2 DUP6 DUP2 PUSH1 0x24 DUP2 DUP7 GAS STATICCALL SWAP1 DUP2 ISZERO PUSH2 0x2F8 JUMPI DUP8 SWAP2 PUSH2 0x135D JUMPI JUMPDEST POP PUSH2 0x131E JUMPI SWAP1 DUP6 SWAP3 SWAP2 PUSH2 0x1268 DUP6 MLOAD ISZERO ISZERO PUSH2 0x3C40 JUMP JUMPDEST PUSH1 0x40 MLOAD SWAP3 PUSH2 0x1275 DUP5 PUSH2 0x3510 JUMP JUMPDEST DUP6 DUP5 MSTORE DUP7 DUP5 ADD MSTORE PUSH1 0x40 DUP4 ADD MSTORE PUSH1 0x1 PUSH1 0x60 DUP4 ADD MSTORE DUP1 EXTCODESIZE ISZERO PUSH2 0x644 JUMPI PUSH2 0x12C1 DUP4 SWAP3 SWAP2 DUP4 SWAP3 PUSH1 0x40 MLOAD SWAP5 DUP6 DUP1 SWAP5 DUP2 SWAP4 PUSH4 0x59DD665F PUSH1 0xE0 SHL DUP4 MSTORE CALLER PUSH1 0x4 DUP5 ADD MSTORE PUSH1 0x40 PUSH1 0x24 DUP5 ADD MSTORE PUSH1 0x44 DUP4 ADD SWAP1 PUSH2 0x360F JUMP JUMPDEST SUB SWAP3 GAS CALL DUP1 ISZERO PUSH2 0x43E JUMPI PUSH2 0x130A JUMPI JUMPDEST POP POP PUSH2 0xE6A PUSH32 0x48CAC28AD4DC618E15F4C2DD5E97751182F166DE97B25618318B2112AA951A2F SWAP2 PUSH1 0x40 MLOAD SWAP2 DUP3 SWAP2 DUP6 DUP4 MSTORE CALLER SWAP6 DUP4 ADD SWAP1 PUSH2 0x31ED JUMP JUMPDEST PUSH2 0x1313 SWAP1 PUSH2 0x34E2 JUMP JUMPDEST PUSH2 0x644 JUMPI DUP3 PUSH0 PUSH2 0x12D0 JUMP JUMPDEST PUSH1 0x40 MLOAD PUSH3 0x461BCD PUSH1 0xE5 SHL DUP2 MSTORE PUSH1 0x4 DUP2 ADD DUP7 SWAP1 MSTORE PUSH1 0x17 PUSH1 0x24 DUP3 ADD MSTORE PUSH23 0x155CD95C88185B1C9958591E481C9959DA5CDD195C9959 PUSH1 0x4A SHL PUSH1 0x44 DUP3 ADD MSTORE PUSH1 0x64 SWAP1 REVERT JUMPDEST SWAP1 POP DUP6 DUP2 DUP2 RETURNDATASIZE DUP4 GT PUSH2 0x138F JUMPI JUMPDEST PUSH2 0x1374 DUP2 DUP4 PUSH2 0x357D JUMP JUMPDEST DUP2 ADD SUB SLT PUSH2 0x138B JUMPI PUSH2 0x1385 SWAP1 PUSH2 0x3771 JUMP JUMPDEST PUSH0 PUSH2 0x1253 JUMP JUMPDEST DUP7 DUP1 REVERT JUMPDEST POP RETURNDATASIZE PUSH2 0x136A JUMP JUMPDEST POP CALLVALUE PUSH2 0x344 JUMPI PUSH1 0x20 CALLDATASIZE PUSH1 0x3 NOT ADD SLT PUSH2 0x344 JUMPI PUSH1 0x4 CALLDATALOAD PUSH2 0x13B3 PUSH2 0x40D1 JUMP JUMPDEST PUSH1 0x40 MLOAD PUSH4 0x79829693 PUSH1 0xE1 SHL DUP2 MSTORE PUSH1 0x4 DUP2 ADD DUP3 SWAP1 MSTORE DUP3 SWAP1 PUSH32 0x0 PUSH1 0x1 PUSH1 0x1 PUSH1 0xA0 SHL SUB AND DUP3 DUP3 PUSH1 0x24 DUP2 DUP5 GAS STATICCALL SWAP2 DUP3 ISZERO PUSH2 0xA62 JUMPI DUP4 SWAP3 PUSH2 0x14A0 JUMPI JUMPDEST POP PUSH2 0x1416 DUP3 MLOAD ISZERO ISZERO PUSH2 0x3BFA JUMP JUMPDEST DUP3 PUSH1 0x40 DUP4 ADD MSTORE DUP1 EXTCODESIZE ISZERO PUSH2 0x644 JUMPI PUSH2 0x1455 DUP4 SWAP3 SWAP2 DUP4 SWAP3 PUSH1 0x40 MLOAD SWAP5 DUP6 DUP1 SWAP5 DUP2 SWAP4 PUSH4 0x28A22B87 PUSH1 0xE0 SHL DUP4 MSTORE DUP11 PUSH1 0x4 DUP5 ADD MSTORE PUSH1 0x40 PUSH1 0x24 DUP5 ADD MSTORE PUSH1 0x44 DUP4 ADD SWAP1 PUSH2 0x367C JUMP JUMPDEST SUB SWAP3 GAS CALL DUP1 ISZERO PUSH2 0x43E JUMPI PUSH2 0x148C JUMPI JUMPDEST POP DUP1 PUSH32 0x510C8243D59E6C99AA1A4CF786D70D3E2E425109EB3870CC957CCB326A11EA97 SWAP2 LOG2 DUP1 RETURN JUMPDEST PUSH2 0x1495 SWAP1 PUSH2 0x34E2 JUMP JUMPDEST PUSH2 0x640 JUMPI DUP2 PUSH0 PUSH2 0x1464 JUMP JUMPDEST PUSH2 0x14B5 SWAP2 SWAP3 POP RETURNDATASIZE DUP1 DUP6 DUP4 RETURNDATACOPY PUSH2 0x430 DUP2 DUP4 PUSH2 0x357D JUMP JUMPDEST SWAP1 PUSH0 PUSH2 0x1409 JUMP JUMPDEST POP CALLVALUE PUSH2 0x344 JUMPI PUSH1 0x20 SWAP1 DUP2 PUSH1 0x3 NOT CALLDATASIZE ADD SLT PUSH2 0x344 JUMPI DUP2 PUSH1 0x4 CALLDATALOAD SWAP2 PUSH2 0x14DE DUP4 PUSH2 0x3EDD JUMP JUMPDEST PUSH1 0x40 MLOAD SWAP3 PUSH2 0x14EB DUP5 PUSH2 0x3547 JUMP JUMPDEST DUP2 DUP5 MSTORE DUP2 ISZERO PUSH2 0x16AB JUMPI DUP2 SWAP1 DUP1 PUSH19 0x184F03E93FF9F4DAA797ED6E38ED64BF6A1F01 PUSH1 0x40 SHL DUP2 DUP2 DUP2 LT ISZERO PUSH2 0x169D JUMPI JUMPDEST POP DUP6 SWAP1 POP PUSH10 0x4EE2D6D415B85ACEF81 PUSH1 0x20 SHL DUP1 DUP5 LT ISZERO PUSH2 0x168F JUMPI JUMPDEST POP POP PUSH7 0x2386F26FC10000 DUP1 DUP4 LT ISZERO PUSH2 0x1680 JUMPI JUMPDEST POP PUSH4 0x5F5E100 DUP1 DUP4 LT ISZERO PUSH2 0x1671 JUMPI JUMPDEST POP PUSH2 0x2710 DUP1 DUP4 LT ISZERO PUSH2 0x1662 JUMPI JUMPDEST POP PUSH1 0x64 DUP3 LT ISZERO PUSH2 0x1652 JUMPI JUMPDEST PUSH1 0xA DUP1 SWAP3 LT ISZERO PUSH2 0x1648 JUMPI JUMPDEST PUSH1 0x1 SWAP1 DUP2 PUSH1 0x21 PUSH1 0x1 DUP7 ADD SWAP6 PUSH2 0x15A5 PUSH2 0x158F DUP9 PUSH2 0x35A0 JUMP JUMPDEST SWAP8 PUSH2 0x159D PUSH1 0x40 MLOAD SWAP10 DUP11 PUSH2 0x357D JUMP JUMPDEST DUP1 DUP10 MSTORE PUSH2 0x35A0 JUMP JUMPDEST DUP8 DUP11 ADD SWAP9 SWAP1 PUSH1 0x1F NOT ADD CALLDATASIZE DUP11 CALLDATACOPY POP DUP7 ADD ADD SWAP1 JUMPDEST PUSH2 0x1613 JUMPI JUMPDEST POP POP POP POP SWAP3 PUSH2 0x15FD SWAP3 SWAP2 PUSH2 0x15F1 SWAP5 PUSH1 0x40 MLOAD SWAP6 DUP4 PUSH2 0x15E2 DUP9 SWAP6 MLOAD DUP1 SWAP3 DUP9 DUP1 DUP10 ADD SWAP2 ADD PUSH2 0x31CC JUMP JUMPDEST DUP5 ADD SWAP2 MLOAD DUP1 SWAP4 DUP7 DUP5 ADD SWAP1 PUSH2 0x31CC JUMP JUMPDEST ADD SUB DUP1 DUP5 MSTORE ADD DUP3 PUSH2 0x357D JUMP JUMPDEST SWAP1 JUMPDEST PUSH2 0x311 PUSH1 0x40 MLOAD SWAP3 DUP3 DUP5 SWAP4 DUP5 MSTORE DUP4 ADD SWAP1 PUSH2 0x31ED JUMP JUMPDEST PUSH0 NOT ADD SWAP1 DUP4 SWAP1 PUSH16 0x181899199A1A9B1B9C1CB0B131B232B3 PUSH1 0x81 SHL DUP3 DUP3 MOD BYTE DUP4 MSTORE8 DIV SWAP2 DUP3 ISZERO PUSH2 0x1643 JUMPI SWAP2 SWAP1 DUP3 PUSH2 0x15B7 JUMP JUMPDEST PUSH2 0x15BC JUMP JUMPDEST SWAP2 PUSH1 0x1 ADD SWAP2 PUSH2 0x1578 JUMP JUMPDEST SWAP2 SWAP1 PUSH1 0x64 PUSH1 0x2 SWAP2 DIV SWAP2 ADD SWAP2 PUSH2 0x156D JUMP JUMPDEST PUSH1 0x4 SWAP2 SWAP4 SWAP3 DIV SWAP2 ADD SWAP2 PUSH0 PUSH2 0x1562 JUMP JUMPDEST PUSH1 0x8 SWAP2 SWAP4 SWAP3 DIV SWAP2 ADD SWAP2 PUSH0 PUSH2 0x1555 JUMP JUMPDEST PUSH1 0x10 SWAP2 SWAP4 SWAP3 DIV SWAP2 ADD SWAP2 PUSH0 PUSH2 0x1546 JUMP JUMPDEST SWAP4 ADD SWAP3 SWAP1 SWAP2 DIV SWAP1 DUP5 PUSH0 PUSH2 0x1533 JUMP JUMPDEST PUSH1 0x40 SWAP5 POP DIV SWAP2 POP PUSH0 DUP1 PUSH2 0x1518 JUMP JUMPDEST POP POP POP POP PUSH1 0x40 MLOAD PUSH2 0x16BB DUP2 PUSH2 0x3547 JUMP JUMPDEST PUSH0 DUP2 MSTORE SWAP1 PUSH2 0x15FF JUMP JUMPDEST POP CALLVALUE PUSH2 0x344 JUMPI PUSH1 0x20 DUP1 PUSH1 0x3 NOT CALLDATASIZE ADD SLT PUSH2 0x640 JUMPI PUSH1 0x4 CALLDATALOAD PUSH2 0x16E2 PUSH2 0x36B4 JUMP JUMPDEST POP PUSH1 0x40 MLOAD PUSH4 0x2BD57B59 PUSH1 0xE2 SHL DUP2 MSTORE PUSH1 0x4 DUP2 ADD DUP3 SWAP1 MSTORE PUSH32 0x0 PUSH1 0x1 PUSH1 0x1 PUSH1 0xA0 SHL SUB AND SWAP2 DUP5 SWAP2 DUP5 DUP2 PUSH1 0x24 DUP2 DUP8 GAS STATICCALL DUP1 ISZERO PUSH2 0xA62 JUMPI DUP4 SWAP1 PUSH2 0x17AA JUMPI JUMPDEST PUSH2 0x1743 SWAP2 POP PUSH2 0x3D4F JUMP JUMPDEST PUSH1 0x24 PUSH1 0x40 MLOAD DUP1 SWAP5 DUP2 SWAP4 PUSH4 0x2E76C56D PUSH1 0xE2 SHL DUP4 MSTORE PUSH1 0x4 DUP4 ADD MSTORE GAS STATICCALL SWAP3 DUP4 ISZERO PUSH2 0x179E JUMPI DUP1 SWAP4 PUSH2 0x1781 JUMPI JUMPDEST POP POP PUSH2 0x311 PUSH1 0x40 MLOAD SWAP3 DUP3 DUP5 SWAP4 DUP5 MSTORE DUP4 ADD SWAP1 PUSH2 0x3212 JUMP JUMPDEST PUSH2 0x1796 SWAP3 SWAP4 POP RETURNDATASIZE DUP1 SWAP2 DUP4 RETURNDATACOPY PUSH2 0x2EA DUP2 DUP4 PUSH2 0x357D JUMP JUMPDEST SWAP1 PUSH0 DUP1 PUSH2 0x176B JUMP JUMPDEST PUSH1 0x40 MLOAD SWAP1 RETURNDATASIZE SWAP1 DUP3 RETURNDATACOPY RETURNDATASIZE SWAP1 REVERT JUMPDEST POP DUP5 DUP2 DUP2 RETURNDATASIZE DUP4 GT PUSH2 0x17D9 JUMPI JUMPDEST PUSH2 0x17C0 DUP2 DUP4 PUSH2 0x357D JUMP JUMPDEST DUP2 ADD SUB SLT PUSH2 0x644 JUMPI PUSH2 0x17D4 PUSH2 0x1743 SWAP2 PUSH2 0x3771 JUMP JUMPDEST PUSH2 0x1739 JUMP JUMPDEST POP RETURNDATASIZE PUSH2 0x17B6 JUMP JUMPDEST POP CALLVALUE PUSH2 0x344 JUMPI PUSH1 0x80 CALLDATASIZE PUSH1 0x3 NOT ADD SLT PUSH2 0x344 JUMPI PUSH2 0x17FA PUSH2 0x3309 JUMP JUMPDEST PUSH2 0x1802 PUSH2 0x331F JUMP JUMPDEST PUSH1 0x64 CALLDATALOAD SWAP2 PUSH1 0x1 PUSH1 0x1 PUSH1 0x40 SHL SUB DUP4 GT PUSH2 0xB29 JUMPI CALLDATASIZE PUSH1 0x23 DUP5 ADD SLT ISZERO PUSH2 0xB29 JUMPI PUSH2 0x1836 PUSH2 0x1840 SWAP4 CALLDATASIZE SWAP1 PUSH1 0x24 DUP2 PUSH1 0x4 ADD CALLDATALOAD SWAP2 ADD PUSH2 0x35BB JUMP JUMPDEST SWAP2 PUSH1 0x44 CALLDATALOAD SWAP2 PUSH2 0x3D07 JUMP JUMPDEST DUP1 RETURN JUMPDEST POP CALLVALUE PUSH2 0x344 JUMPI PUSH1 0xC0 CALLDATASIZE PUSH1 0x3 NOT ADD SLT PUSH2 0x344 JUMPI PUSH1 0x1 PUSH1 0x1 PUSH1 0x40 SHL SUB PUSH1 0x4 CALLDATALOAD DUP2 DUP2 GT PUSH2 0x644 JUMPI PUSH2 0x1875 SWAP1 CALLDATASIZE SWAP1 PUSH1 0x4 ADD PUSH2 0x35F1 JUMP JUMPDEST SWAP1 PUSH1 0x24 DUP1 CALLDATALOAD DUP3 DUP2 GT PUSH2 0x6B3 JUMPI PUSH2 0x188F SWAP1 CALLDATASIZE SWAP1 PUSH1 0x4 ADD PUSH2 0x35F1 JUMP JUMPDEST SWAP3 PUSH1 0x44 SWAP3 DUP4 CALLDATALOAD SWAP1 DUP2 GT PUSH2 0x1B4F JUMPI PUSH2 0x18AA SWAP1 CALLDATASIZE SWAP1 PUSH1 0x4 ADD PUSH2 0x35F1 JUMP JUMPDEST PUSH1 0x40 MLOAD PUSH4 0xC64B8A8F PUSH1 0xE0 SHL DUP2 MSTORE CALLER PUSH1 0x4 DUP3 ADD MSTORE PUSH1 0x20 SWAP6 SWAP2 SWAP5 PUSH1 0x84 CALLDATALOAD SWAP5 PUSH32 0x0 PUSH1 0x1 PUSH1 0x1 PUSH1 0xA0 SHL SUB AND SWAP4 SWAP1 SWAP3 PUSH1 0x64 CALLDATALOAD SWAP3 SWAP2 SWAP1 DUP10 DUP2 DUP7 DUP2 DUP10 GAS STATICCALL SWAP1 DUP2 ISZERO PUSH2 0x1BF2 JUMPI DUP12 SWAP2 PUSH2 0x1C3C JUMPI JUMPDEST POP ISZERO PUSH2 0x1BFD JUMPI PUSH1 0x40 MLOAD PUSH4 0x5191E94F PUSH1 0xE1 SHL DUP2 MSTORE CALLER PUSH1 0x4 DUP3 ADD MSTORE DUP11 DUP2 DUP7 DUP2 DUP10 GAS STATICCALL SWAP1 DUP2 ISZERO PUSH2 0x1BF2 JUMPI DUP12 SWAP2 PUSH2 0x1BD6 JUMPI JUMPDEST POP PUSH1 0x4 DUP2 LT ISZERO PUSH2 0x1BC3 JUMPI PUSH1 0x2 SUB PUSH2 0x1B86 JUMPI SWAP1 DUP10 SWAP5 SWAP4 SWAP3 SWAP2 PUSH2 0x195F DUP8 MLOAD ISZERO ISZERO PUSH2 0x3C40 JUMP JUMPDEST PUSH2 0x196A DUP9 ISZERO ISZERO PUSH2 0x3C7C JUMP JUMPDEST PUSH1 0x40 MLOAD PUSH4 0x79829693 PUSH1 0xE1 SHL DUP2 MSTORE PUSH1 0x4 DUP2 ADD DUP5 SWAP1 MSTORE DUP7 DUP2 DUP7 DUP2 DUP10 GAS STATICCALL SWAP1 DUP2 ISZERO PUSH2 0x2F8 JUMPI PUSH2 0x19A3 SWAP2 PUSH1 0x40 SWAP2 DUP10 SWAP2 PUSH2 0xA71 JUMPI POP ADD MLOAD ISZERO ISZERO PUSH2 0x3CC8 JUMP JUMPDEST PUSH1 0x40 MLOAD PUSH4 0x9B4DAEF PUSH1 0xE2 SHL DUP2 MSTORE SWAP9 DUP11 DUP11 PUSH1 0x4 DUP2 DUP11 DUP11 GAS CALL SWAP10 DUP11 ISZERO PUSH2 0x2F8 JUMPI DUP8 SWAP11 PUSH2 0x1B53 JUMPI JUMPDEST POP PUSH1 0x40 MLOAD SWAP2 PUSH2 0x19D6 DUP4 PUSH2 0x352B JUMP JUMPDEST DUP11 DUP4 MSTORE CALLER DUP13 DUP5 ADD MSTORE DUP9 PUSH1 0x40 DUP5 ADD MSTORE PUSH1 0x60 DUP4 ADD MSTORE PUSH1 0x80 DUP3 ADD MSTORE DUP3 PUSH1 0xA0 DUP3 ADD MSTORE DUP8 PUSH1 0xC0 DUP3 ADD MSTORE PUSH1 0xA4 CALLDATALOAD PUSH1 0xE0 DUP3 ADD MSTORE TIMESTAMP PUSH2 0x100 DUP3 ADD MSTORE DUP6 PUSH2 0x120 DUP3 ADD MSTORE DUP5 EXTCODESIZE ISZERO PUSH2 0x1B4F JUMPI DUP6 PUSH2 0x1A42 SWAP2 PUSH1 0x40 MLOAD DUP1 SWAP4 DUP2 SWAP3 PUSH4 0x6AD0CB9 PUSH1 0xE0 SHL DUP4 MSTORE DUP14 PUSH1 0x4 DUP5 ADD MSTORE PUSH1 0x40 DUP10 DUP5 ADD MSTORE DUP7 DUP4 ADD SWAP1 PUSH2 0x3212 JUMP JUMPDEST SUB DUP2 DUP4 DUP10 GAS CALL SWAP1 DUP2 ISZERO PUSH2 0x1B30 JUMPI DUP7 SWAP2 PUSH2 0x1B3B JUMPI JUMPDEST POP POP DUP4 EXTCODESIZE ISZERO PUSH2 0x6B3 JUMPI PUSH1 0x40 MLOAD PUSH4 0x1294B01D PUSH1 0xE0 SHL DUP2 MSTORE CALLER PUSH1 0x4 DUP3 ADD MSTORE DUP4 DUP2 ADD DUP10 SWAP1 MSTORE DUP6 DUP2 DUP4 DUP2 DUP4 DUP10 GAS CALL SWAP1 DUP2 ISZERO PUSH2 0x1B30 JUMPI DUP7 SWAP2 PUSH2 0x1B1C JUMPI JUMPDEST POP POP DUP4 EXTCODESIZE ISZERO PUSH2 0x6B3 JUMPI DUP5 SWAP3 DUP4 PUSH1 0x40 MLOAD SWAP6 DUP7 SWAP5 DUP6 SWAP4 PUSH4 0x184C5E53 PUSH1 0xE3 SHL DUP6 MSTORE DUP13 PUSH1 0x4 DUP7 ADD MSTORE DUP5 ADD MSTORE GAS CALL DUP1 ISZERO PUSH2 0x43E JUMPI PUSH2 0x1B08 JUMPI JUMPDEST POP POP PUSH32 0x5F25C590B5C7F62ED4186ADCA32D3118CAEF07E5020C6CC8268D4136DF2CFEF8 SWAP2 PUSH2 0x1AFB PUSH1 0x40 MLOAD SWAP3 PUSH1 0x40 DUP5 MSTORE PUSH1 0x40 DUP5 ADD SWAP1 PUSH2 0x31ED JUMP JUMPDEST SWAP5 DUP3 ADD MSTORE DUP1 CALLER SWAP5 SUB SWAP1 LOG3 DUP1 RETURN JUMPDEST PUSH2 0x1B11 SWAP1 PUSH2 0x34E2 JUMP JUMPDEST PUSH2 0x6B3 JUMPI DUP5 PUSH0 PUSH2 0x1AC2 JUMP JUMPDEST PUSH2 0x1B25 SWAP1 PUSH2 0x34E2 JUMP JUMPDEST PUSH2 0x6B3 JUMPI DUP5 PUSH0 PUSH2 0x1A8E JUMP JUMPDEST PUSH1 0x40 MLOAD RETURNDATASIZE DUP9 DUP3 RETURNDATACOPY RETURNDATASIZE SWAP1 REVERT JUMPDEST PUSH2 0x1B44 SWAP1 PUSH2 0x34E2 JUMP JUMPDEST PUSH2 0x6B3 JUMPI DUP5 PUSH0 PUSH2 0x1A56 JUMP JUMPDEST DUP6 DUP1 REVERT JUMPDEST DUP12 DUP1 SWAP3 SWAP12 POP DUP2 SWAP9 POP RETURNDATASIZE DUP4 GT PUSH2 0x1B7F JUMPI JUMPDEST PUSH2 0x1B6D DUP2 DUP4 PUSH2 0x357D JUMP JUMPDEST DUP2 ADD SUB SLT PUSH2 0xEB0 JUMPI DUP11 SWAP6 MLOAD SWAP9 PUSH0 PUSH2 0x19C8 JUMP JUMPDEST POP RETURNDATASIZE PUSH2 0x1B63 JUMP JUMPDEST PUSH1 0x40 MLOAD PUSH3 0x461BCD PUSH1 0xE5 SHL DUP2 MSTORE PUSH1 0x4 DUP2 ADD DUP11 SWAP1 MSTORE PUSH1 0x17 DUP2 DUP7 ADD MSTORE PUSH23 0x26BAB9BA103132903B32B934B334B2B21039B2B63632B9 PUSH1 0x49 SHL DUP2 DUP5 ADD MSTORE PUSH1 0x64 SWAP1 REVERT JUMPDEST PUSH4 0x4E487B71 PUSH1 0xE0 SHL DUP12 MSTORE PUSH1 0x21 PUSH1 0x4 MSTORE DUP5 DUP12 REVERT JUMPDEST PUSH2 0x1BEA SWAP2 POP RETURNDATASIZE DUP1 DUP14 DUP4 RETURNDATACOPY PUSH2 0xBC6 DUP2 DUP4 PUSH2 0x357D JUMP JUMPDEST SWAP1 POP PUSH0 PUSH2 0x193C JUMP JUMPDEST PUSH1 0x40 MLOAD RETURNDATASIZE DUP14 DUP3 RETURNDATACOPY RETURNDATASIZE SWAP1 REVERT JUMPDEST PUSH1 0x40 MLOAD PUSH3 0x461BCD PUSH1 0xE5 SHL DUP2 MSTORE PUSH1 0x4 DUP2 ADD DUP11 SWAP1 MSTORE PUSH1 0x19 DUP2 DUP7 ADD MSTORE PUSH25 0x26BAB9BA103132903932B3B4B9BA32B932B21039B2B63632B9 PUSH1 0x39 SHL DUP2 DUP5 ADD MSTORE PUSH1 0x64 SWAP1 REVERT JUMPDEST SWAP1 POP DUP10 DUP2 DUP2 RETURNDATASIZE DUP4 GT PUSH2 0x1C6E JUMPI JUMPDEST PUSH2 0x1C53 DUP2 DUP4 PUSH2 0x357D JUMP JUMPDEST DUP2 ADD SUB SLT PUSH2 0x1C6A JUMPI PUSH2 0x1C64 SWAP1 PUSH2 0x3771 JUMP JUMPDEST PUSH0 PUSH2 0x190E JUMP JUMPDEST DUP11 DUP1 REVERT JUMPDEST POP RETURNDATASIZE PUSH2 0x1C49 JUMP JUMPDEST POP CALLVALUE PUSH2 0x344 JUMPI PUSH1 0x20 CALLDATASIZE PUSH1 0x3 NOT ADD SLT PUSH2 0x344 JUMPI DUP1 PUSH1 0x24 SWAP2 PUSH2 0x1C93 PUSH2 0x3309 JUMP JUMPDEST PUSH2 0x1C9B PUSH2 0x3960 JUMP JUMPDEST POP PUSH1 0x40 MLOAD PUSH4 0x5191E94F PUSH1 0xE1 SHL DUP2 MSTORE PUSH1 0x1 PUSH1 0x1 PUSH1 0xA0 SHL SUB SWAP2 DUP3 AND PUSH1 0x4 DUP3 ADD MSTORE SWAP4 DUP5 SWAP2 DUP3 SWAP1 PUSH32 0x0 AND GAS STATICCALL DUP1 ISZERO PUSH2 0x1D36 JUMPI PUSH2 0x1D0D SWAP3 DUP3 DUP1 SWAP3 PUSH2 0x1D18 JUMPI JUMPDEST POP POP PUSH2 0x311 PUSH1 0x40 MLOAD SWAP4 DUP5 SWAP4 PUSH1 0x40 DUP6 MSTORE PUSH1 0x40 DUP6 ADD SWAP1 PUSH2 0x336A JUMP JUMPDEST SWAP2 PUSH1 0x20 DUP5 ADD SWAP1 PUSH2 0x365B JUMP JUMPDEST SWAP1 SWAP2 POP PUSH2 0x1D2F SWAP3 POP RETURNDATASIZE DUP1 SWAP2 DUP4 RETURNDATACOPY PUSH2 0xBC6 DUP2 DUP4 PUSH2 0x357D JUMP JUMPDEST PUSH0 DUP1 PUSH2 0x1CF4 JUMP JUMPDEST POP PUSH1 0x40 MLOAD SWAP1 RETURNDATASIZE SWAP1 DUP3 RETURNDATACOPY RETURNDATASIZE SWAP1 REVERT JUMPDEST POP CALLVALUE PUSH2 0x344 JUMPI PUSH1 0x40 CALLDATASIZE PUSH1 0x3 NOT ADD SLT PUSH2 0x344 JUMPI PUSH2 0x1D5D PUSH2 0x3309 JUMP JUMPDEST PUSH1 0x24 CALLDATALOAD SWAP1 DUP2 ISZERO ISZERO DUP1 SWAP3 SUB PUSH2 0xEB0 JUMPI PUSH1 0x1 PUSH1 0x1 PUSH1 0xA0 SHL SUB AND SWAP1 CALLER DUP3 EQ PUSH2 0x1DCE JUMPI CALLER DUP4 MSTORE PUSH1 0x7 PUSH1 0x20 MSTORE PUSH1 0x40 DUP4 KECCAK256 DUP3 PUSH0 MSTORE PUSH1 0x20 MSTORE PUSH1 0x40 PUSH0 KECCAK256 PUSH1 0xFF NOT DUP2 SLOAD AND PUSH1 0xFF DUP4 AND OR SWAP1 SSTORE PUSH1 0x40 MLOAD SWAP1 DUP2 MSTORE PUSH32 0x17307EAB39AB6107E8899845AD3D59BD9653F200F220920489CA2B5937696C31 PUSH1 0x20 CALLER SWAP3 LOG3 DUP1 RETURN JUMPDEST PUSH1 0x40 MLOAD PUSH3 0x461BCD PUSH1 0xE5 SHL DUP2 MSTORE PUSH1 0x20 PUSH1 0x4 DUP3 ADD MSTORE PUSH1 0x19 PUSH1 0x24 DUP3 ADD MSTORE PUSH25 0x22A9219B99189D1030B8383937BB32903A379031B0B63632B9 PUSH1 0x39 SHL PUSH1 0x44 DUP3 ADD MSTORE PUSH1 0x64 SWAP1 REVERT JUMPDEST PUSH2 0x342E JUMP JUMPDEST POP CALLVALUE PUSH2 0x344 JUMPI PUSH1 0x40 CALLDATASIZE PUSH1 0x3 NOT ADD SLT PUSH2 0x344 JUMPI PUSH2 0x1E2E PUSH2 0x3309 JUMP JUMPDEST PUSH1 0x24 CALLDATALOAD PUSH1 0x4 DUP2 LT ISZERO PUSH2 0x644 JUMPI PUSH2 0x1E42 PUSH2 0x40D1 JUMP JUMPDEST PUSH1 0x1 PUSH1 0x1 PUSH1 0xA0 SHL SUB PUSH32 0x0 DUP2 AND SWAP3 DUP5 SWAP2 SWAP1 DUP5 EXTCODESIZE ISZERO PUSH2 0x644 JUMPI DUP3 SWAP2 PUSH1 0x44 DUP4 SWAP3 PUSH1 0x40 MLOAD SWAP5 DUP6 SWAP4 DUP5 SWAP3 PUSH4 0xAA279059 PUSH1 0xE0 SHL DUP5 MSTORE AND SWAP9 DUP10 PUSH1 0x4 DUP5 ADD MSTORE PUSH2 0x1EA5 PUSH1 0x24 DUP5 ADD DUP11 PUSH2 0x365B JUMP JUMPDEST GAS CALL DUP1 ISZERO PUSH2 0x43E JUMPI PUSH2 0x1EE9 JUMPI JUMPDEST POP POP PUSH1 0x20 PUSH32 0xD8F7BCB2C5CFFC294A0AAEF719685993D7BE95273FB8254803A1563510CCEFED SWAP2 PUSH2 0x1EE5 PUSH1 0x40 MLOAD DUP1 SWAP3 PUSH2 0x365B JUMP JUMPDEST LOG2 DUP1 RETURN JUMPDEST PUSH2 0x1EF2 SWAP1 PUSH2 0x34E2 JUMP JUMPDEST PUSH2 0x644 JUMPI DUP3 PUSH0 PUSH2 0x1EB2 JUMP JUMPDEST POP CALLVALUE PUSH2 0x344 JUMPI DUP1 PUSH1 0x3 NOT CALLDATASIZE ADD SLT PUSH2 0x344 JUMPI PUSH1 0x40 MLOAD SWAP1 DUP1 PUSH1 0x3 SLOAD SWAP2 PUSH1 0x1 DUP4 PUSH1 0x1 SHR SWAP3 PUSH1 0x1 DUP6 AND SWAP5 DUP6 ISZERO PUSH2 0x1FD0 JUMPI JUMPDEST PUSH1 0x20 SWAP6 DUP7 DUP7 LT DUP2 EQ PUSH2 0x1FBC JUMPI DUP6 DUP9 MSTORE DUP8 SWAP5 SWAP4 SWAP3 SWAP2 DUP8 SWAP1 DUP3 ISZERO PUSH2 0x1F9A JUMPI POP POP PUSH1 0x1 EQ PUSH2 0x1F5E JUMPI JUMPDEST POP POP PUSH2 0x15FF SWAP3 POP SUB DUP4 PUSH2 0x357D JUMP JUMPDEST SWAP1 DUP6 SWAP3 POP PUSH1 0x3 DUP3 MSTORE DUP3 DUP3 KECCAK256 JUMPDEST DUP6 DUP4 LT PUSH2 0x1F82 JUMPI POP POP PUSH2 0x15FF SWAP4 POP DUP3 ADD ADD PUSH0 DUP1 PUSH2 0x1F50 JUMP JUMPDEST DUP1 SLOAD DUP4 DUP10 ADD DUP6 ADD MSTORE DUP8 SWAP5 POP DUP7 SWAP4 SWAP1 SWAP3 ADD SWAP2 DUP2 ADD PUSH2 0x1F6A JUMP JUMPDEST SWAP3 POP SWAP4 POP POP PUSH2 0x15FF SWAP5 SWAP2 POP PUSH1 0xFF NOT AND DUP3 DUP5 ADD MSTORE ISZERO ISZERO PUSH1 0x5 SHL DUP3 ADD ADD PUSH0 DUP1 PUSH2 0x1F50 JUMP JUMPDEST PUSH4 0x4E487B71 PUSH1 0xE0 SHL DUP4 MSTORE PUSH1 0x22 PUSH1 0x4 MSTORE PUSH1 0x24 DUP4 REVERT JUMPDEST SWAP4 PUSH1 0x7F AND SWAP4 PUSH2 0x1F2A JUMP JUMPDEST POP CALLVALUE PUSH2 0x344 JUMPI DUP1 PUSH1 0x3 NOT CALLDATASIZE ADD SLT PUSH2 0x344 JUMPI SLOAD PUSH1 0x40 MLOAD PUSH1 0x1 PUSH1 0x1 PUSH1 0xA0 SHL SUB SWAP1 SWAP2 AND DUP2 MSTORE PUSH1 0x20 SWAP1 RETURN JUMPDEST POP CALLVALUE PUSH2 0x344 JUMPI PUSH1 0xA0 CALLDATASIZE PUSH1 0x3 NOT ADD SLT PUSH2 0x344 JUMPI PUSH1 0x1 PUSH1 0x1 PUSH1 0x40 SHL SUB PUSH1 0x4 CALLDATALOAD DUP2 DUP2 GT PUSH2 0x644 JUMPI PUSH2 0x2033 SWAP1 CALLDATASIZE SWAP1 PUSH1 0x4 ADD PUSH2 0x35F1 JUMP JUMPDEST PUSH1 0x24 SWAP2 DUP3 CALLDATALOAD DUP2 DUP2 GT PUSH2 0x6B3 JUMPI PUSH2 0x204D SWAP1 CALLDATASIZE SWAP1 PUSH1 0x4 ADD PUSH2 0x35F1 JUMP JUMPDEST SWAP3 PUSH1 0x44 CALLDATALOAD DUP3 DUP2 GT PUSH2 0x1B4F JUMPI PUSH2 0x2066 SWAP1 CALLDATASIZE SWAP1 PUSH1 0x4 ADD PUSH2 0x35F1 JUMP JUMPDEST SWAP4 PUSH1 0x64 CALLDATALOAD DUP4 DUP2 GT PUSH2 0x138B JUMPI PUSH2 0x207F SWAP1 CALLDATASIZE SWAP1 PUSH1 0x4 ADD PUSH2 0x35F1 JUMP JUMPDEST SWAP3 PUSH1 0x84 CALLDATALOAD SWAP1 DUP2 GT PUSH2 0x138B JUMPI PUSH2 0x2098 SWAP1 CALLDATASIZE SWAP1 PUSH1 0x4 ADD PUSH2 0x35F1 JUMP JUMPDEST PUSH1 0x40 MLOAD PUSH4 0xE50CEE5 PUSH1 0xE0 SHL DUP2 MSTORE CALLER PUSH1 0x4 DUP3 ADD MSTORE PUSH1 0x20 SWAP7 PUSH32 0x0 PUSH1 0x1 PUSH1 0x1 PUSH1 0xA0 SHL SUB AND SWAP6 SWAP2 DUP9 DUP2 DUP8 DUP2 DUP11 GAS STATICCALL SWAP1 DUP2 ISZERO PUSH2 0x22EE JUMPI DUP11 SWAP2 PUSH2 0x233D JUMPI JUMPDEST POP ISZERO PUSH2 0x22F9 JUMPI PUSH1 0x40 MLOAD PUSH4 0xC64B8A8F PUSH1 0xE0 SHL DUP2 MSTORE CALLER PUSH1 0x4 DUP3 ADD MSTORE DUP9 DUP2 DUP8 DUP2 DUP11 GAS STATICCALL SWAP1 DUP2 ISZERO PUSH2 0x22EE JUMPI DUP11 SWAP2 PUSH2 0x22B5 JUMPI JUMPDEST POP PUSH2 0x2272 JUMPI DUP7 MLOAD ISZERO PUSH2 0x2235 JUMPI SWAP1 DUP9 SWAP6 SWAP5 SWAP4 SWAP3 SWAP2 PUSH1 0x40 MLOAD SWAP4 PUSH2 0x213D DUP6 PUSH2 0x34B3 JUMP JUMPDEST DUP9 DUP6 MSTORE DUP10 DUP6 ADD MSTORE PUSH1 0x40 DUP5 ADD MSTORE PUSH1 0x60 DUP4 ADD MSTORE PUSH1 0x80 DUP3 ADD MSTORE PUSH1 0x1 PUSH1 0xA0 DUP3 ADD MSTORE TIMESTAMP PUSH1 0xC0 DUP3 ADD MSTORE DUP3 EXTCODESIZE ISZERO PUSH2 0xB29 JUMPI DUP4 PUSH2 0x2187 SWAP2 PUSH1 0x40 MLOAD DUP1 SWAP4 DUP2 SWAP3 PUSH4 0x283A514F PUSH1 0xE1 SHL DUP4 MSTORE CALLER PUSH1 0x4 DUP5 ADD PUSH2 0x3A85 JUMP JUMPDEST SUB DUP2 DUP4 DUP8 GAS CALL SWAP1 DUP2 ISZERO PUSH2 0x339 JUMPI DUP5 SWAP2 PUSH2 0x2221 JUMPI JUMPDEST POP POP DUP2 EXTCODESIZE ISZERO PUSH2 0x644 JUMPI PUSH1 0x1 PUSH1 0x44 DUP5 SWAP3 DUP4 PUSH1 0x40 MLOAD SWAP6 DUP7 SWAP5 DUP6 SWAP4 PUSH4 0xAA279059 PUSH1 0xE0 SHL DUP6 MSTORE CALLER PUSH1 0x4 DUP7 ADD MSTORE DUP5 ADD MSTORE GAS CALL DUP1 ISZERO PUSH2 0x43E JUMPI PUSH2 0x220D JUMPI JUMPDEST POP POP PUSH2 0xE6A PUSH32 0xECEF9454C60FAB6A60B6F2AA319263C0F711CDB927C213E76687F7853B597842 SWAP2 PUSH1 0x40 MLOAD SWAP2 DUP3 SWAP2 DUP6 DUP4 MSTORE CALLER SWAP6 DUP4 ADD SWAP1 PUSH2 0x31ED JUMP JUMPDEST PUSH2 0x2216 SWAP1 PUSH2 0x34E2 JUMP JUMPDEST PUSH2 0x644 JUMPI DUP3 PUSH0 PUSH2 0x21D3 JUMP JUMPDEST PUSH2 0x222A SWAP1 PUSH2 0x34E2 JUMP JUMPDEST PUSH2 0x644 JUMPI DUP3 PUSH0 PUSH2 0x219B JUMP JUMPDEST PUSH1 0x40 MLOAD PUSH3 0x461BCD PUSH1 0xE5 SHL DUP2 MSTORE PUSH1 0x4 DUP2 ADD DUP10 SWAP1 MSTORE PUSH1 0x16 DUP2 DUP8 ADD MSTORE PUSH22 0x109D5CDA5B995CDCC81B985B59481C995C5D5A5C9959 PUSH1 0x52 SHL PUSH1 0x44 DUP3 ADD MSTORE PUSH1 0x64 SWAP1 REVERT JUMPDEST PUSH1 0x40 MLOAD PUSH3 0x461BCD PUSH1 0xE5 SHL DUP2 MSTORE PUSH1 0x4 DUP2 ADD DUP10 SWAP1 MSTORE PUSH1 0x1C DUP2 DUP8 ADD MSTORE PUSH28 0x20B63932B0B23C903932B3B4B9BA32B932B21030B99039B2B63632B9 PUSH1 0x21 SHL PUSH1 0x44 DUP3 ADD MSTORE PUSH1 0x64 SWAP1 REVERT JUMPDEST SWAP1 POP DUP9 DUP2 DUP2 RETURNDATASIZE DUP4 GT PUSH2 0x22E7 JUMPI JUMPDEST PUSH2 0x22CC DUP2 DUP4 PUSH2 0x357D JUMP JUMPDEST DUP2 ADD SUB SLT PUSH2 0x22E3 JUMPI PUSH2 0x22DD SWAP1 PUSH2 0x3771 JUMP JUMPDEST PUSH0 PUSH2 0x211D JUMP JUMPDEST DUP10 DUP1 REVERT JUMPDEST POP RETURNDATASIZE PUSH2 0x22C2 JUMP JUMPDEST PUSH1 0x40 MLOAD RETURNDATASIZE DUP13 DUP3 RETURNDATACOPY RETURNDATASIZE SWAP1 REVERT JUMPDEST PUSH1 0x40 MLOAD PUSH3 0x461BCD PUSH1 0xE5 SHL DUP2 MSTORE PUSH1 0x4 DUP2 ADD DUP10 SWAP1 MSTORE PUSH1 0x1D DUP2 DUP8 ADD MSTORE PUSH32 0x4D75737420626520726567697374657265642075736572206669727374000000 PUSH1 0x44 DUP3 ADD MSTORE PUSH1 0x64 SWAP1 REVERT JUMPDEST SWAP1 POP DUP9 DUP2 DUP2 RETURNDATASIZE DUP4 GT PUSH2 0x236B JUMPI JUMPDEST PUSH2 0x2354 DUP2 DUP4 PUSH2 0x357D JUMP JUMPDEST DUP2 ADD SUB SLT PUSH2 0x22E3 JUMPI PUSH2 0x2365 SWAP1 PUSH2 0x3771 JUMP JUMPDEST PUSH0 PUSH2 0x20EF JUMP JUMPDEST POP RETURNDATASIZE PUSH2 0x234A JUMP JUMPDEST POP CALLVALUE PUSH2 0x344 JUMPI DUP1 PUSH1 0x3 NOT CALLDATASIZE ADD SLT PUSH2 0x344 JUMPI PUSH2 0x238B PUSH2 0x40D1 JUMP JUMPDEST PUSH0 DUP1 SLOAD PUSH1 0x1 PUSH1 0x1 PUSH1 0xA0 SHL SUB NOT DUP2 AND DUP3 SSTORE PUSH1 0x1 PUSH1 0x1 PUSH1 0xA0 SHL SUB AND PUSH0 DUP1 MLOAD PUSH1 0x20 PUSH2 0x426A DUP4 CODECOPY DUP2 MLOAD SWAP2 MSTORE DUP3 DUP1 LOG3 DUP1 RETURN JUMPDEST POP CALLVALUE PUSH2 0x344 JUMPI PUSH1 0x20 CALLDATASIZE PUSH1 0x3 NOT ADD SLT PUSH2 0x344 JUMPI PUSH1 0x1 PUSH1 0x1 PUSH1 0xA0 SHL SUB PUSH2 0x23DA PUSH2 0x3309 JUMP JUMPDEST AND DUP1 ISZERO PUSH2 0x23F7 JUMPI DUP2 PUSH1 0x40 SWAP2 PUSH1 0x20 SWAP4 MSTORE PUSH1 0x5 DUP4 MSTORE KECCAK256 SLOAD PUSH1 0x40 MLOAD SWAP1 DUP2 MSTORE RETURN JUMPDEST PUSH1 0x40 MLOAD PUSH3 0x461BCD PUSH1 0xE5 SHL DUP2 MSTORE PUSH1 0x20 PUSH1 0x4 DUP3 ADD MSTORE PUSH1 0x29 PUSH1 0x24 DUP3 ADD MSTORE PUSH32 0x4552433732313A2061646472657373207A65726F206973206E6F742061207661 PUSH1 0x44 DUP3 ADD MSTORE PUSH9 0x3634B21037BBB732B9 PUSH1 0xB9 SHL PUSH1 0x64 DUP3 ADD MSTORE PUSH1 0x84 SWAP1 REVERT JUMPDEST POP CALLVALUE PUSH2 0x344 JUMPI PUSH1 0x20 DUP1 PUSH1 0x3 NOT CALLDATASIZE ADD SLT PUSH2 0x640 JUMPI PUSH1 0x24 SWAP2 PUSH2 0x246C PUSH2 0x3309 JUMP JUMPDEST DUP2 PUSH1 0x40 MLOAD SWAP2 PUSH2 0x247A DUP4 PUSH2 0x3510 JUMP JUMPDEST PUSH1 0x60 DUP1 DUP5 MSTORE DUP6 DUP5 ADD DUP2 SWAP1 MSTORE PUSH1 0x40 DUP1 DUP6 ADD DUP3 SWAP1 MSTORE SWAP4 DUP2 ADD DUP4 SWAP1 MSTORE SWAP3 MLOAD PUSH4 0x6F77926B PUSH1 0xE0 SHL DUP2 MSTORE PUSH1 0x1 PUSH1 0x1 PUSH1 0xA0 SHL SUB SWAP2 DUP3 AND PUSH1 0x4 DUP3 ADD MSTORE SWAP6 DUP7 SWAP2 DUP3 SWAP1 PUSH32 0x0 AND GAS STATICCALL SWAP4 DUP5 ISZERO PUSH2 0x43E JUMPI DUP3 SWAP5 PUSH2 0x24FD JUMPI JUMPDEST POP POP POP PUSH2 0x311 PUSH1 0x40 MLOAD SWAP3 DUP3 DUP5 SWAP4 DUP5 MSTORE DUP4 ADD SWAP1 PUSH2 0x360F JUMP JUMPDEST SWAP1 SWAP2 SWAP3 SWAP4 POP RETURNDATASIZE DUP1 DUP5 DUP4 RETURNDATACOPY PUSH2 0x2511 DUP2 DUP4 PUSH2 0x357D JUMP JUMPDEST DUP2 ADD DUP5 DUP3 DUP3 SUB SLT PUSH2 0xB29 JUMPI DUP2 MLOAD PUSH1 0x1 PUSH1 0x1 PUSH1 0x40 SHL SUB SWAP3 DUP4 DUP3 GT PUSH2 0x1B4F JUMPI ADD SWAP2 PUSH1 0x80 DUP4 DUP4 SUB SLT PUSH2 0x6B3 JUMPI PUSH1 0x40 MLOAD SWAP5 PUSH2 0x2547 DUP7 PUSH2 0x3510 JUMP JUMPDEST DUP4 MLOAD DUP3 DUP2 GT PUSH2 0x640 JUMPI DUP4 PUSH2 0x255C SWAP2 DUP7 ADD PUSH2 0x3792 JUMP JUMPDEST DUP7 MSTORE DUP7 DUP5 ADD MLOAD DUP3 DUP2 GT PUSH2 0x640 JUMPI DUP4 PUSH2 0x2575 SWAP2 DUP7 ADD PUSH2 0x3792 JUMP JUMPDEST DUP8 DUP8 ADD MSTORE PUSH1 0x40 DUP5 ADD MLOAD SWAP2 DUP3 GT PUSH2 0x344 JUMPI POP SWAP2 PUSH2 0x2597 DUP5 SWAP3 PUSH2 0x25A2 SWAP5 DUP4 ADD PUSH2 0x3792 JUMP JUMPDEST PUSH1 0x40 DUP7 ADD MSTORE ADD PUSH2 0x3771 JUMP JUMPDEST SWAP1 DUP3 ADD MSTORE SWAP1 PUSH0 DUP1 DUP1 PUSH2 0x24E6 JUMP JUMPDEST POP CALLVALUE PUSH2 0x344 JUMPI DUP1 PUSH1 0x3 NOT CALLDATASIZE ADD SLT PUSH2 0x344 JUMPI PUSH1 0x40 MLOAD PUSH4 0x37B4779D PUSH1 0xE1 SHL DUP2 MSTORE DUP2 DUP2 PUSH1 0x4 DUP2 PUSH32 0x0 PUSH1 0x1 PUSH1 0x1 PUSH1 0xA0 SHL SUB AND GAS STATICCALL SWAP1 DUP2 ISZERO PUSH2 0x43E JUMPI DUP3 PUSH2 0x311 SWAP4 SWAP3 PUSH2 0x261E JUMPI JUMPDEST POP POP PUSH1 0x40 MLOAD SWAP2 DUP3 SWAP2 DUP3 PUSH2 0x33EA JUMP JUMPDEST PUSH2 0x263A SWAP3 POP RETURNDATASIZE DUP1 SWAP2 DUP4 RETURNDATACOPY PUSH2 0x2632 DUP2 DUP4 PUSH2 0x357D JUMP JUMPDEST DUP2 ADD SWAP1 PUSH2 0x3AA7 JUMP JUMPDEST PUSH0 DUP1 PUSH2 0x2610 JUMP JUMPDEST POP CALLVALUE PUSH2 0x344 JUMPI PUSH1 0x60 CALLDATASIZE PUSH1 0x3 NOT ADD SLT PUSH2 0x344 JUMPI PUSH1 0x4 CALLDATALOAD PUSH1 0x24 CALLDATALOAD PUSH1 0x1 PUSH1 0x1 PUSH1 0x40 SHL SUB DUP2 GT PUSH2 0x644 JUMPI PUSH2 0x2675 SWAP1 CALLDATASIZE SWAP1 PUSH1 0x4 ADD PUSH2 0x35F1 JUMP JUMPDEST PUSH1 0x44 CALLDATALOAD SWAP1 DUP2 ISZERO ISZERO DUP1 SWAP3 SUB PUSH2 0xEB0 JUMPI DUP4 SWAP2 PUSH2 0x268D PUSH2 0x40D1 JUMP JUMPDEST PUSH1 0x40 MLOAD PUSH4 0x79829693 PUSH1 0xE1 SHL DUP2 MSTORE PUSH1 0x4 DUP2 ADD DUP6 SWAP1 MSTORE PUSH32 0x0 PUSH1 0x1 PUSH1 0x1 PUSH1 0xA0 SHL SUB AND SWAP2 SWAP1 DUP5 DUP2 PUSH1 0x24 DUP2 DUP7 GAS STATICCALL DUP1 ISZERO PUSH2 0x679 JUMPI PUSH2 0x26EF SWAP2 DUP7 SWAP2 PUSH2 0x278D JUMPI JUMPDEST POP MLOAD ISZERO ISZERO PUSH2 0x3BFA JUMP JUMPDEST PUSH1 0x40 MLOAD SWAP3 PUSH2 0x26FC DUP5 PUSH2 0x34F5 JUMP JUMPDEST DUP6 DUP5 MSTORE PUSH1 0x20 DUP5 ADD MSTORE PUSH1 0x40 DUP4 ADD MSTORE DUP1 EXTCODESIZE ISZERO PUSH2 0x644 JUMPI PUSH2 0x2742 DUP4 SWAP3 SWAP2 DUP4 SWAP3 PUSH1 0x40 MLOAD SWAP5 DUP6 DUP1 SWAP5 DUP2 SWAP4 PUSH4 0x28A22B87 PUSH1 0xE0 SHL DUP4 MSTORE DUP11 PUSH1 0x4 DUP5 ADD MSTORE PUSH1 0x40 PUSH1 0x24 DUP5 ADD MSTORE PUSH1 0x44 DUP4 ADD SWAP1 PUSH2 0x367C JUMP JUMPDEST SUB SWAP3 GAS CALL DUP1 ISZERO PUSH2 0x43E JUMPI PUSH2 0x2779 JUMPI JUMPDEST POP DUP1 PUSH32 0x20611F93BB94C3DCAF404A8F60335558241AB3E3C68F6201B0E1744037220C3F SWAP2 LOG2 DUP1 RETURN JUMPDEST PUSH2 0x2782 SWAP1 PUSH2 0x34E2 JUMP JUMPDEST PUSH2 0x640 JUMPI DUP2 PUSH0 PUSH2 0x2751 JUMP JUMPDEST PUSH2 0x27A1 SWAP2 POP RETURNDATASIZE DUP1 DUP9 DUP4 RETURNDATACOPY PUSH2 0x430 DUP2 DUP4 PUSH2 0x357D JUMP JUMPDEST PUSH0 PUSH2 0x26E6 JUMP JUMPDEST POP CALLVALUE PUSH2 0x344 JUMPI PUSH1 0x20 CALLDATASIZE PUSH1 0x3 NOT ADD SLT PUSH2 0x344 JUMPI PUSH1 0x20 PUSH2 0x27C6 PUSH1 0x4 CALLDATALOAD PUSH2 0x3B6F JUMP JUMPDEST PUSH1 0x40 MLOAD PUSH1 0x1 PUSH1 0x1 PUSH1 0xA0 SHL SUB SWAP1 SWAP2 AND DUP2 MSTORE RETURN JUMPDEST POP CALLVALUE PUSH2 0x344 JUMPI PUSH1 0x20 CALLDATASIZE PUSH1 0x3 NOT ADD SLT PUSH2 0x344 JUMPI PUSH1 0x4 CALLDATALOAD PUSH2 0x27F5 PUSH2 0x40D1 JUMP JUMPDEST PUSH1 0xA DUP2 GT PUSH2 0x286D JUMPI DUP2 SWAP1 PUSH32 0x0 PUSH1 0x1 PUSH1 0x1 PUSH1 0xA0 SHL SUB AND SWAP1 DUP2 EXTCODESIZE ISZERO PUSH2 0xA6D JUMPI DUP3 SWAP2 PUSH1 0x24 DUP4 SWAP3 PUSH1 0x40 MLOAD SWAP5 DUP6 SWAP4 DUP5 SWAP3 PUSH4 0x2AAFA807 PUSH1 0xE0 SHL DUP5 MSTORE PUSH1 0x4 DUP5 ADD MSTORE GAS CALL DUP1 ISZERO PUSH2 0x43E JUMPI PUSH2 0x285D JUMPI POP RETURN JUMPDEST PUSH2 0x2866 SWAP1 PUSH2 0x34E2 JUMP JUMPDEST PUSH2 0x344 JUMPI DUP1 RETURN JUMPDEST PUSH1 0x40 MLOAD PUSH3 0x461BCD PUSH1 0xE5 SHL DUP2 MSTORE PUSH1 0x20 PUSH1 0x4 DUP3 ADD MSTORE PUSH1 0x14 PUSH1 0x24 DUP3 ADD MSTORE PUSH20 0xA6CAE4ECD2C6CA40CCCACA40E8DEDE40D0D2CED PUSH1 0x63 SHL PUSH1 0x44 DUP3 ADD MSTORE PUSH1 0x64 SWAP1 REVERT JUMPDEST POP CALLVALUE PUSH2 0x344 JUMPI DUP1 PUSH1 0x3 NOT CALLDATASIZE ADD SLT PUSH2 0x344 JUMPI PUSH1 0x40 MLOAD PUSH4 0x9B9D326D PUSH1 0xE0 SHL DUP2 MSTORE SWAP1 PUSH1 0x20 DUP3 PUSH1 0x4 DUP2 PUSH32 0x0 PUSH1 0x1 PUSH1 0x1 PUSH1 0xA0 SHL SUB AND GAS STATICCALL SWAP1 DUP2 ISZERO PUSH2 0x179E JUMPI SWAP1 PUSH2 0x2912 JUMPI JUMPDEST PUSH1 0x20 SWAP1 PUSH1 0x40 MLOAD SWAP1 DUP2 MSTORE RETURN JUMPDEST POP PUSH1 0x20 DUP2 RETURNDATASIZE PUSH1 0x20 GT PUSH2 0x293D JUMPI JUMPDEST DUP2 PUSH2 0x292C PUSH1 0x20 SWAP4 DUP4 PUSH2 0x357D JUMP JUMPDEST DUP2 ADD SUB SLT PUSH2 0xEB0 JUMPI PUSH1 0x20 SWAP1 MLOAD PUSH2 0x2907 JUMP JUMPDEST RETURNDATASIZE SWAP2 POP PUSH2 0x291F JUMP JUMPDEST POP CALLVALUE PUSH2 0xEB0 JUMPI PUSH0 CALLDATASIZE PUSH1 0x3 NOT ADD SLT PUSH2 0xEB0 JUMPI PUSH2 0x295E PUSH2 0x40D1 JUMP JUMPDEST PUSH0 SLOAD PUSH1 0x40 MLOAD PUSH4 0xC64B8A8F PUSH1 0xE0 SHL DUP2 MSTORE PUSH1 0x1 PUSH1 0x1 PUSH1 0xA0 SHL SUB SWAP2 DUP3 AND PUSH1 0x4 DUP3 ADD DUP2 SWAP1 MSTORE PUSH32 0x0 DUP4 AND SWAP4 SWAP3 SWAP2 PUSH1 0x20 SWAP2 SWAP1 DUP3 DUP2 PUSH1 0x24 DUP2 DUP10 GAS STATICCALL SWAP1 DUP2 ISZERO PUSH2 0x2B3E JUMPI PUSH0 SWAP2 PUSH2 0x2B49 JUMPI JUMPDEST POP ISZERO PUSH2 0x29C9 JUMPI DUP4 DUP1 RETURN JUMPDEST PUSH1 0x40 MLOAD SWAP2 PUSH2 0x29D6 DUP4 PUSH2 0x34B3 JUMP JUMPDEST PUSH1 0x40 MLOAD PUSH2 0x29E2 DUP2 PUSH2 0x3562 JUMP JUMPDEST PUSH1 0x10 DUP2 MSTORE PUSH16 0x21B93CB83A37A6B0B93A1020B236B4B7 PUSH1 0x81 SHL DUP3 DUP3 ADD MSTORE DUP4 MSTORE PUSH1 0x40 MLOAD PUSH2 0x2A0C DUP2 PUSH2 0x3562 JUMP JUMPDEST PUSH1 0x16 DUP2 MSTORE PUSH22 0x283630BA3337B9369020B236B4B734B9BA3930BA37B9 PUSH1 0x51 SHL DUP3 DUP3 ADD MSTORE DUP2 DUP5 ADD MSTORE PUSH20 0x61646D696E4063727970746F6D6172742E636F6D PUSH1 0x60 SHL PUSH1 0x40 MLOAD SWAP2 PUSH2 0x2A57 DUP4 PUSH2 0x3562 JUMP JUMPDEST PUSH1 0x14 DUP4 MSTORE DUP3 ADD MSTORE PUSH1 0x40 DUP4 ADD MSTORE PUSH1 0x40 MLOAD PUSH2 0x2A6F DUP2 PUSH2 0x3547 JUMP JUMPDEST PUSH0 DUP2 MSTORE PUSH1 0x60 DUP4 ADD MSTORE PUSH1 0x40 MLOAD PUSH2 0x2A83 DUP2 PUSH2 0x3547 JUMP JUMPDEST PUSH0 DUP2 MSTORE PUSH1 0x80 DUP4 ADD MSTORE PUSH1 0x1 PUSH1 0xA0 DUP4 ADD MSTORE TIMESTAMP PUSH1 0xC0 DUP4 ADD MSTORE DUP5 EXTCODESIZE ISZERO PUSH2 0xEB0 JUMPI PUSH1 0x40 MLOAD PUSH4 0x283A514F PUSH1 0xE1 SHL DUP2 MSTORE SWAP2 PUSH0 SWAP2 DUP4 SWAP2 DUP3 SWAP2 PUSH2 0x2AC1 SWAP2 SWAP1 PUSH1 0x4 DUP5 ADD PUSH2 0x3A85 JUMP JUMPDEST SUB DUP2 DUP4 DUP9 GAS CALL DUP1 ISZERO PUSH2 0x2B3E JUMPI PUSH2 0x2B2B JUMPI JUMPDEST POP SWAP2 DUP2 SWAP3 DUP3 SLOAD AND DUP2 EXTCODESIZE ISZERO PUSH2 0xA6D JUMPI DUP3 SWAP2 PUSH1 0x44 DUP4 SWAP3 PUSH1 0x40 MLOAD SWAP5 DUP6 SWAP4 DUP5 SWAP3 PUSH4 0xAA279059 PUSH1 0xE0 SHL DUP5 MSTORE PUSH1 0x4 DUP5 ADD MSTORE PUSH1 0x2 PUSH1 0x24 DUP5 ADD MSTORE GAS CALL DUP1 ISZERO PUSH2 0x43E JUMPI PUSH2 0x2B17 JUMPI JUMPDEST DUP1 DUP1 DUP4 DUP1 RETURN JUMPDEST PUSH2 0x2B20 SWAP1 PUSH2 0x34E2 JUMP JUMPDEST PUSH2 0x344 JUMPI DUP1 PUSH0 PUSH2 0x2B11 JUMP JUMPDEST PUSH2 0x2B36 SWAP2 SWAP3 POP PUSH2 0x34E2 JUMP JUMPDEST PUSH0 SWAP1 PUSH0 PUSH2 0x2AD2 JUMP JUMPDEST PUSH1 0x40 MLOAD RETURNDATASIZE PUSH0 DUP3 RETURNDATACOPY RETURNDATASIZE SWAP1 REVERT JUMPDEST SWAP1 POP DUP3 DUP2 DUP2 RETURNDATASIZE DUP4 GT PUSH2 0x2B77 JUMPI JUMPDEST PUSH2 0x2B60 DUP2 DUP4 PUSH2 0x357D JUMP JUMPDEST DUP2 ADD SUB SLT PUSH2 0xEB0 JUMPI PUSH2 0x2B71 SWAP1 PUSH2 0x3771 JUMP JUMPDEST PUSH0 PUSH2 0x29BF JUMP JUMPDEST POP RETURNDATASIZE PUSH2 0x2B56 JUMP JUMPDEST CALLVALUE PUSH2 0xEB0 JUMPI PUSH1 0x20 CALLDATASIZE PUSH1 0x3 NOT ADD SLT PUSH2 0xEB0 JUMPI PUSH1 0x24 PUSH0 PUSH2 0x2B9A PUSH2 0x3309 JUMP JUMPDEST PUSH2 0x2BA2 PUSH2 0x3960 JUMP JUMPDEST POP PUSH1 0x40 MLOAD PUSH4 0x5191E94F PUSH1 0xE1 SHL DUP2 MSTORE PUSH1 0x1 PUSH1 0x1 PUSH1 0xA0 SHL SUB SWAP2 DUP3 AND PUSH1 0x4 DUP3 ADD MSTORE SWAP3 DUP4 SWAP2 DUP3 SWAP1 PUSH32 0x0 AND GAS STATICCALL DUP1 ISZERO PUSH2 0x2B3E JUMPI PUSH2 0x311 SWAP2 PUSH0 SWAP2 PUSH2 0x2C0F JUMPI JUMPDEST POP PUSH1 0x40 MLOAD SWAP2 DUP3 SWAP2 PUSH1 0x20 DUP4 MSTORE PUSH1 0x20 DUP4 ADD SWAP1 PUSH2 0x336A JUMP JUMPDEST PUSH2 0x2C23 SWAP2 POP RETURNDATASIZE DUP1 PUSH0 DUP4 RETURNDATACOPY PUSH2 0xBC6 DUP2 DUP4 PUSH2 0x357D JUMP JUMPDEST POP DUP3 PUSH2 0x2BFA JUMP JUMPDEST CALLVALUE PUSH2 0xEB0 JUMPI PUSH2 0x1A PUSH2 0x2C3B CALLDATASIZE PUSH2 0x3335 JUMP JUMPDEST SWAP1 PUSH1 0x40 MLOAD SWAP3 PUSH2 0x2C49 DUP5 PUSH2 0x3547 JUMP JUMPDEST PUSH0 DUP5 MSTORE PUSH2 0x3D07 JUMP JUMPDEST CALLVALUE PUSH2 0xEB0 JUMPI PUSH2 0x1A PUSH2 0x2C62 CALLDATASIZE PUSH2 0x3335 JUMP JUMPDEST SWAP2 PUSH2 0x2C75 PUSH2 0x2C70 DUP5 CALLER PUSH2 0x3F01 JUMP JUMPDEST PUSH2 0x38FE JUMP JUMPDEST PUSH2 0x3FC5 JUMP JUMPDEST CALLVALUE PUSH2 0xEB0 JUMPI PUSH0 CALLDATASIZE PUSH1 0x3 NOT ADD SLT PUSH2 0xEB0 JUMPI PUSH1 0x40 MLOAD PUSH4 0x3302FFB3 PUSH1 0xE1 SHL DUP2 MSTORE PUSH1 0x20 DUP2 PUSH1 0x4 DUP2 PUSH32 0x0 PUSH1 0x1 PUSH1 0x1 PUSH1 0xA0 SHL SUB AND GAS STATICCALL DUP1 ISZERO PUSH2 0x2B3E JUMPI PUSH0 SWAP1 PUSH2 0x2912 JUMPI PUSH1 0x20 SWAP1 PUSH1 0x40 MLOAD SWAP1 DUP2 MSTORE RETURN JUMPDEST CALLVALUE PUSH2 0xEB0 JUMPI PUSH0 CALLDATASIZE PUSH1 0x3 NOT ADD SLT PUSH2 0xEB0 JUMPI PUSH1 0x40 MLOAD PUSH32 0x0 PUSH1 0x1 PUSH1 0x1 PUSH1 0xA0 SHL SUB AND DUP2 MSTORE PUSH1 0x20 SWAP1 RETURN JUMPDEST CALLVALUE PUSH2 0xEB0 JUMPI PUSH1 0x40 CALLDATASIZE PUSH1 0x3 NOT ADD SLT PUSH2 0xEB0 JUMPI PUSH2 0x2D3D PUSH2 0x3309 JUMP JUMPDEST PUSH1 0x24 CALLDATALOAD SWAP1 PUSH1 0x1 PUSH1 0x1 PUSH1 0xA0 SHL SUB DUP1 DUP1 PUSH2 0x2D54 DUP6 PUSH2 0x3B6F JUMP JUMPDEST AND SWAP3 AND SWAP2 DUP1 DUP4 EQ PUSH2 0x2E49 JUMPI DUP1 CALLER EQ SWAP1 DUP2 ISZERO PUSH2 0x2E28 JUMPI JUMPDEST POP ISZERO PUSH2 0x2DBD JUMPI PUSH0 DUP4 DUP2 MSTORE PUSH1 0x6 PUSH1 0x20 MSTORE PUSH1 0x40 SWAP1 KECCAK256 DUP1 SLOAD PUSH1 0x1 PUSH1 0x1 PUSH1 0xA0 SHL SUB NOT AND DUP4 OR SWAP1 SSTORE PUSH2 0x2D96 DUP4 PUSH2 0x3B6F JUMP JUMPDEST AND PUSH32 0x8C5BE1E5EBEC7D5BD14F71427D1E84F3DD0314C0F7B2291E5B200AC8C7C3B925 PUSH0 DUP1 LOG4 STOP JUMPDEST PUSH1 0x40 MLOAD PUSH3 0x461BCD PUSH1 0xE5 SHL DUP2 MSTORE PUSH1 0x20 PUSH1 0x4 DUP3 ADD MSTORE PUSH1 0x3D PUSH1 0x24 DUP3 ADD MSTORE PUSH32 0x4552433732313A20617070726F76652063616C6C6572206973206E6F7420746F PUSH1 0x44 DUP3 ADD MSTORE PUSH32 0x6B656E206F776E6572206F7220617070726F76656420666F7220616C6C000000 PUSH1 0x64 DUP3 ADD MSTORE PUSH1 0x84 SWAP1 REVERT JUMPDEST SWAP1 POP PUSH0 MSTORE PUSH1 0x7 PUSH1 0x20 MSTORE PUSH1 0x40 PUSH0 KECCAK256 CALLER PUSH0 MSTORE PUSH1 0x20 MSTORE PUSH1 0xFF PUSH1 0x40 PUSH0 KECCAK256 SLOAD AND DUP5 PUSH2 0x2D6A JUMP JUMPDEST PUSH1 0x40 MLOAD PUSH3 0x461BCD PUSH1 0xE5 SHL DUP2 MSTORE PUSH1 0x20 PUSH1 0x4 DUP3 ADD MSTORE PUSH1 0x21 PUSH1 0x24 DUP3 ADD MSTORE PUSH32 0x4552433732313A20617070726F76616C20746F2063757272656E74206F776E65 PUSH1 0x44 DUP3 ADD MSTORE PUSH1 0x39 PUSH1 0xF9 SHL PUSH1 0x64 DUP3 ADD MSTORE PUSH1 0x84 SWAP1 REVERT JUMPDEST CALLVALUE PUSH2 0xEB0 JUMPI PUSH1 0x20 CALLDATASIZE PUSH1 0x3 NOT ADD SLT PUSH2 0xEB0 JUMPI PUSH1 0x20 PUSH2 0x27C6 PUSH1 0x4 CALLDATALOAD PUSH2 0x38DB JUMP JUMPDEST CALLVALUE PUSH2 0xEB0 JUMPI PUSH0 CALLDATASIZE PUSH1 0x3 NOT ADD SLT PUSH2 0xEB0 JUMPI PUSH1 0x40 MLOAD PUSH0 PUSH1 0x2 SLOAD SWAP1 PUSH1 0x1 DUP3 PUSH1 0x1 SHR SWAP2 PUSH1 0x1 DUP5 AND SWAP2 DUP3 ISZERO PUSH2 0x2F83 JUMPI JUMPDEST PUSH1 0x20 SWAP5 DUP6 DUP6 LT DUP5 EQ PUSH2 0x2F6F JUMPI DUP6 DUP8 SWAP5 DUP7 DUP7 MSTORE SWAP2 DUP3 PUSH0 EQ PUSH2 0x2F4F JUMPI POP POP PUSH1 0x1 EQ PUSH2 0x2F12 JUMPI JUMPDEST POP PUSH2 0x15FF SWAP3 POP SUB DUP4 PUSH2 0x357D JUMP JUMPDEST DUP5 SWAP2 POP PUSH1 0x2 PUSH0 MSTORE DUP2 PUSH0 KECCAK256 SWAP1 PUSH0 SWAP2 JUMPDEST DUP6 DUP4 LT PUSH2 0x2F37 JUMPI POP POP PUSH2 0x15FF SWAP4 POP DUP3 ADD ADD DUP6 PUSH2 0x2F05 JUMP JUMPDEST DUP1 SLOAD DUP4 DUP10 ADD DUP6 ADD MSTORE DUP8 SWAP5 POP DUP7 SWAP4 SWAP1 SWAP3 ADD SWAP2 DUP2 ADD PUSH2 0x2F20 JUMP JUMPDEST PUSH1 0xFF NOT AND DUP6 DUP3 ADD MSTORE PUSH2 0x15FF SWAP6 ISZERO ISZERO PUSH1 0x5 SHL DUP6 ADD ADD SWAP3 POP DUP8 SWAP2 POP PUSH2 0x2F05 SWAP1 POP JUMP JUMPDEST PUSH4 0x4E487B71 PUSH1 0xE0 SHL PUSH0 MSTORE PUSH1 0x22 PUSH1 0x4 MSTORE PUSH1 0x24 PUSH0 REVERT JUMPDEST SWAP3 PUSH1 0x7F AND SWAP3 PUSH2 0x2EE1 JUMP JUMPDEST CALLVALUE PUSH2 0xEB0 JUMPI PUSH0 CALLDATASIZE PUSH1 0x3 NOT ADD SLT PUSH2 0xEB0 JUMPI PUSH1 0x40 MLOAD PUSH4 0x9B9D326D PUSH1 0xE0 SHL DUP2 MSTORE PUSH32 0x0 PUSH1 0x1 PUSH1 0x1 PUSH1 0xA0 SHL SUB AND SWAP1 PUSH1 0x20 SWAP1 DUP2 DUP2 PUSH1 0x4 DUP2 DUP7 GAS STATICCALL SWAP1 DUP2 ISZERO PUSH2 0x2B3E JUMPI PUSH0 SWAP2 PUSH2 0x3134 JUMPI JUMPDEST POP PUSH2 0x2FF8 DUP2 PUSH2 0x3700 JUMP JUMPDEST SWAP2 PUSH0 SWAP2 PUSH1 0x1 SWAP5 PUSH1 0x1 JUMPDEST DUP3 DUP2 GT ISZERO PUSH2 0x3057 JUMPI POP POP POP POP PUSH2 0x3016 DUP2 PUSH2 0x3700 JUMP JUMPDEST SWAP2 PUSH0 JUMPDEST DUP3 DUP2 LT PUSH2 0x302E JUMPI PUSH1 0x40 MLOAD DUP1 PUSH2 0x311 DUP7 DUP3 PUSH2 0x32A6 JUMP JUMPDEST DUP1 PUSH2 0x303A DUP7 SWAP3 DUP5 PUSH2 0x38B3 JUMP JUMPDEST MLOAD PUSH2 0x3045 DUP3 DUP8 PUSH2 0x38B3 JUMP JUMPDEST MSTORE PUSH2 0x3050 DUP2 DUP7 PUSH2 0x38B3 JUMP JUMPDEST POP ADD PUSH2 0x3019 JUMP JUMPDEST PUSH1 0x40 MLOAD PUSH4 0x2BD57B59 PUSH1 0xE2 SHL DUP2 MSTORE PUSH1 0x4 DUP2 ADD DUP3 SWAP1 MSTORE PUSH1 0x24 SWAP1 DUP6 DUP2 DUP4 DUP2 DUP8 GAS STATICCALL SWAP1 DUP2 ISZERO PUSH2 0x2B3E JUMPI PUSH0 SWAP2 PUSH2 0x30FF JUMPI JUMPDEST POP PUSH2 0x3098 JUMPI JUMPDEST POP PUSH2 0x3093 SWAP1 PUSH2 0x374F JUMP JUMPDEST PUSH2 0x3001 JUMP JUMPDEST PUSH0 PUSH1 0x40 MLOAD DUP1 SWAP3 PUSH4 0x2E76C56D PUSH1 0xE2 SHL DUP3 MSTORE DUP5 PUSH1 0x4 DUP4 ADD MSTORE DUP2 DUP7 GAS STATICCALL SWAP1 DUP2 ISZERO PUSH2 0x2B3E JUMPI PUSH0 SWAP2 PUSH2 0x30E5 JUMPI JUMPDEST POP PUSH2 0x120 DUP2 ADD MLOAD PUSH2 0x3089 JUMPI DUP6 PUSH2 0x30DE SWAP2 PUSH2 0x1079 PUSH2 0x3093 SWAP5 SWAP9 DUP11 PUSH2 0x38B3 JUMP JUMPDEST SWAP5 SWAP1 PUSH2 0x3089 JUMP JUMPDEST PUSH2 0x30F9 SWAP2 POP RETURNDATASIZE DUP1 PUSH0 DUP4 RETURNDATACOPY PUSH2 0x2EA DUP2 DUP4 PUSH2 0x357D JUMP JUMPDEST DUP9 PUSH2 0x30C0 JUMP JUMPDEST SWAP1 POP DUP6 DUP2 DUP2 RETURNDATASIZE DUP4 GT PUSH2 0x312D JUMPI JUMPDEST PUSH2 0x3116 DUP2 DUP4 PUSH2 0x357D JUMP JUMPDEST DUP2 ADD SUB SLT PUSH2 0xEB0 JUMPI PUSH2 0x3127 SWAP1 PUSH2 0x3771 JUMP JUMPDEST DUP10 PUSH2 0x3083 JUMP JUMPDEST POP RETURNDATASIZE PUSH2 0x310C JUMP JUMPDEST SWAP1 POP DUP2 DUP2 DUP2 RETURNDATASIZE DUP4 GT PUSH2 0x315A JUMPI JUMPDEST PUSH2 0x314B DUP2 DUP4 PUSH2 0x357D JUMP JUMPDEST DUP2 ADD SUB SLT PUSH2 0xEB0 JUMPI MLOAD DUP4 PUSH2 0x2FEE JUMP JUMPDEST POP RETURNDATASIZE PUSH2 0x3141 JUMP JUMPDEST CALLVALUE PUSH2 0xEB0 JUMPI PUSH1 0x20 CALLDATASIZE PUSH1 0x3 NOT ADD SLT PUSH2 0xEB0 JUMPI PUSH1 0x4 CALLDATALOAD SWAP1 PUSH4 0xFFFFFFFF PUSH1 0xE0 SHL DUP3 AND DUP1 SWAP3 SUB PUSH2 0xEB0 JUMPI PUSH1 0x20 SWAP2 PUSH4 0x80AC58CD PUSH1 0xE0 SHL DUP2 EQ SWAP1 DUP2 ISZERO PUSH2 0x31BB JUMPI JUMPDEST DUP2 ISZERO PUSH2 0x31AA JUMPI JUMPDEST POP ISZERO ISZERO DUP2 MSTORE RETURN JUMPDEST PUSH4 0x1FFC9A7 PUSH1 0xE0 SHL EQ SWAP1 POP DUP4 PUSH2 0x31A3 JUMP JUMPDEST PUSH4 0x5B5E139F PUSH1 0xE0 SHL DUP2 EQ SWAP2 POP PUSH2 0x319C JUMP JUMPDEST PUSH0 JUMPDEST DUP4 DUP2 LT PUSH2 0x31DD JUMPI POP POP PUSH0 SWAP2 ADD MSTORE JUMP JUMPDEST DUP2 DUP2 ADD MLOAD DUP4 DUP3 ADD MSTORE PUSH1 0x20 ADD PUSH2 0x31CE JUMP JUMPDEST SWAP1 PUSH1 0x20 SWAP2 PUSH2 0x3206 DUP2 MLOAD DUP1 SWAP3 DUP2 DUP6 MSTORE DUP6 DUP1 DUP7 ADD SWAP2 ADD PUSH2 0x31CC JUMP JUMPDEST PUSH1 0x1F ADD PUSH1 0x1F NOT AND ADD ADD SWAP1 JUMP JUMPDEST SWAP1 PUSH2 0x326D PUSH2 0x325B PUSH2 0x3249 PUSH2 0x140 DUP6 MLOAD DUP6 MSTORE PUSH1 0x1 DUP1 PUSH1 0xA0 SHL SUB PUSH1 0x20 DUP8 ADD MLOAD AND PUSH1 0x20 DUP7 ADD MSTORE PUSH1 0x40 DUP7 ADD MLOAD SWAP1 DUP1 PUSH1 0x40 DUP8 ADD MSTORE DUP6 ADD SWAP1 PUSH2 0x31ED JUMP JUMPDEST PUSH1 0x60 DUP6 ADD MLOAD DUP5 DUP3 SUB PUSH1 0x60 DUP7 ADD MSTORE PUSH2 0x31ED JUMP JUMPDEST PUSH1 0x80 DUP5 ADD MLOAD DUP4 DUP3 SUB PUSH1 0x80 DUP6 ADD MSTORE PUSH2 0x31ED JUMP JUMPDEST SWAP2 PUSH1 0xA0 DUP2 ADD MLOAD PUSH1 0xA0 DUP4 ADD MSTORE PUSH1 0xC0 DUP2 ADD MLOAD PUSH1 0xC0 DUP4 ADD MSTORE PUSH1 0xE0 DUP2 ADD MLOAD PUSH1 0xE0 DUP4 ADD MSTORE PUSH2 0x100 DUP1 DUP3 ADD MLOAD SWAP1 DUP4 ADD MSTORE PUSH2 0x120 DUP1 SWAP2 ADD MLOAD ISZERO ISZERO SWAP2 ADD MSTORE SWAP1 JUMP JUMPDEST PUSH1 0x20 DUP1 DUP3 ADD SWAP1 PUSH1 0x20 DUP4 MSTORE DUP4 MLOAD DUP1 SWAP3 MSTORE PUSH1 0x40 DUP4 ADD SWAP3 PUSH1 0x20 PUSH1 0x40 DUP5 PUSH1 0x5 SHL DUP4 ADD ADD SWAP6 ADD SWAP4 PUSH0 SWAP2 JUMPDEST DUP5 DUP4 LT PUSH2 0x32DB JUMPI POP POP POP POP POP POP SWAP1 JUMP JUMPDEST SWAP1 SWAP2 SWAP3 SWAP4 SWAP5 SWAP6 DUP5 DUP1 PUSH2 0x32F9 PUSH1 0x1 SWAP4 PUSH1 0x3F NOT DUP7 DUP3 SUB ADD DUP8 MSTORE DUP11 MLOAD PUSH2 0x3212 JUMP JUMPDEST SWAP9 ADD SWAP4 ADD SWAP4 ADD SWAP2 SWAP5 SWAP4 SWAP3 SWAP1 PUSH2 0x32CB JUMP JUMPDEST PUSH1 0x4 CALLDATALOAD SWAP1 PUSH1 0x1 PUSH1 0x1 PUSH1 0xA0 SHL SUB DUP3 AND DUP3 SUB PUSH2 0xEB0 JUMPI JUMP JUMPDEST PUSH1 0x24 CALLDATALOAD SWAP1 PUSH1 0x1 PUSH1 0x1 PUSH1 0xA0 SHL SUB DUP3 AND DUP3 SUB PUSH2 0xEB0 JUMPI JUMP JUMPDEST PUSH1 0x60 SWAP1 PUSH1 0x3 NOT ADD SLT PUSH2 0xEB0 JUMPI PUSH1 0x1 PUSH1 0x1 PUSH1 0xA0 SHL SUB SWAP1 PUSH1 0x4 CALLDATALOAD DUP3 DUP2 AND DUP2 SUB PUSH2 0xEB0 JUMPI SWAP2 PUSH1 0x24 CALLDATALOAD SWAP1 DUP2 AND DUP2 SUB PUSH2 0xEB0 JUMPI SWAP1 PUSH1 0x44 CALLDATALOAD SWAP1 JUMP JUMPDEST SWAP1 PUSH1 0xC0 DUP1 PUSH2 0x33D5 PUSH2 0x33C3 PUSH2 0x33B1 PUSH2 0x339F PUSH2 0x338D DUP9 MLOAD PUSH1 0xE0 DUP10 MSTORE PUSH1 0xE0 DUP10 ADD SWAP1 PUSH2 0x31ED JUMP JUMPDEST PUSH1 0x20 DUP10 ADD MLOAD DUP9 DUP3 SUB PUSH1 0x20 DUP11 ADD MSTORE PUSH2 0x31ED JUMP JUMPDEST PUSH1 0x40 DUP9 ADD MLOAD DUP8 DUP3 SUB PUSH1 0x40 DUP10 ADD MSTORE PUSH2 0x31ED JUMP JUMPDEST PUSH1 0x60 DUP8 ADD MLOAD DUP7 DUP3 SUB PUSH1 0x60 DUP9 ADD MSTORE PUSH2 0x31ED JUMP JUMPDEST PUSH1 0x80 DUP7 ADD MLOAD DUP6 DUP3 SUB PUSH1 0x80 DUP8 ADD MSTORE PUSH2 0x31ED JUMP JUMPDEST SWAP4 PUSH1 0xA0 DUP2 ADD MLOAD ISZERO ISZERO PUSH1 0xA0 DUP6 ADD MSTORE ADD MLOAD SWAP2 ADD MSTORE SWAP1 JUMP JUMPDEST PUSH1 0x20 SWAP1 PUSH1 0x20 PUSH1 0x40 DUP2 DUP4 ADD SWAP3 DUP3 DUP2 MSTORE DUP6 MLOAD DUP1 SWAP5 MSTORE ADD SWAP4 ADD SWAP2 PUSH0 JUMPDEST DUP3 DUP2 LT PUSH2 0x3411 JUMPI POP POP POP POP SWAP1 JUMP JUMPDEST DUP4 MLOAD PUSH1 0x1 PUSH1 0x1 PUSH1 0xA0 SHL SUB AND DUP6 MSTORE SWAP4 DUP2 ADD SWAP4 SWAP3 DUP2 ADD SWAP3 PUSH1 0x1 ADD PUSH2 0x3403 JUMP JUMPDEST CALLVALUE PUSH2 0xEB0 JUMPI PUSH0 CALLDATASIZE PUSH1 0x3 NOT ADD SLT PUSH2 0xEB0 JUMPI PUSH1 0x40 MLOAD PUSH3 0xB5AD4B PUSH1 0xE7 SHL DUP2 MSTORE PUSH0 DUP2 PUSH1 0x4 DUP2 PUSH32 0x0 PUSH1 0x1 PUSH1 0x1 PUSH1 0xA0 SHL SUB AND GAS STATICCALL DUP1 ISZERO PUSH2 0x2B3E JUMPI PUSH2 0x311 SWAP2 PUSH0 SWAP2 PUSH2 0x3499 JUMPI JUMPDEST POP PUSH1 0x40 MLOAD SWAP2 DUP3 SWAP2 DUP3 PUSH2 0x33EA JUMP JUMPDEST PUSH2 0x34AD SWAP2 POP RETURNDATASIZE DUP1 PUSH0 DUP4 RETURNDATACOPY PUSH2 0x2632 DUP2 DUP4 PUSH2 0x357D JUMP JUMPDEST PUSH0 PUSH2 0x348C JUMP JUMPDEST PUSH1 0xE0 DUP2 ADD SWAP1 DUP2 LT PUSH1 0x1 PUSH1 0x1 PUSH1 0x40 SHL SUB DUP3 GT OR PUSH2 0x34CE JUMPI PUSH1 0x40 MSTORE JUMP JUMPDEST PUSH4 0x4E487B71 PUSH1 0xE0 SHL PUSH0 MSTORE PUSH1 0x41 PUSH1 0x4 MSTORE PUSH1 0x24 PUSH0 REVERT JUMPDEST PUSH1 0x1 PUSH1 0x1 PUSH1 0x40 SHL SUB DUP2 GT PUSH2 0x34CE JUMPI PUSH1 0x40 MSTORE JUMP JUMPDEST PUSH1 0x60 DUP2 ADD SWAP1 DUP2 LT PUSH1 0x1 PUSH1 0x1 PUSH1 0x40 SHL SUB DUP3 GT OR PUSH2 0x34CE JUMPI PUSH1 0x40 MSTORE JUMP JUMPDEST PUSH1 0x80 DUP2 ADD SWAP1 DUP2 LT PUSH1 0x1 PUSH1 0x1 PUSH1 0x40 SHL SUB DUP3 GT OR PUSH2 0x34CE JUMPI PUSH1 0x40 MSTORE JUMP JUMPDEST PUSH2 0x140 DUP2 ADD SWAP1 DUP2 LT PUSH1 0x1 PUSH1 0x1 PUSH1 0x40 SHL SUB DUP3 GT OR PUSH2 0x34CE JUMPI PUSH1 0x40 MSTORE JUMP JUMPDEST PUSH1 0x20 DUP2 ADD SWAP1 DUP2 LT PUSH1 0x1 PUSH1 0x1 PUSH1 0x40 SHL SUB DUP3 GT OR PUSH2 0x34CE JUMPI PUSH1 0x40 MSTORE JUMP JUMPDEST PUSH1 0x40 DUP2 ADD SWAP1 DUP2 LT PUSH1 0x1 PUSH1 0x1 PUSH1 0x40 SHL SUB DUP3 GT OR PUSH2 0x34CE JUMPI PUSH1 0x40 MSTORE JUMP JUMPDEST PUSH1 0x1F SWAP1 SWAP2 ADD PUSH1 0x1F NOT AND DUP2 ADD SWAP1 PUSH1 0x1 PUSH1 0x1 PUSH1 0x40 SHL SUB DUP3 GT SWAP1 DUP3 LT OR PUSH2 0x34CE JUMPI PUSH1 0x40 MSTORE JUMP JUMPDEST PUSH1 0x1 PUSH1 0x1 PUSH1 0x40 SHL SUB DUP2 GT PUSH2 0x34CE JUMPI PUSH1 0x1F ADD PUSH1 0x1F NOT AND PUSH1 0x20 ADD SWAP1 JUMP JUMPDEST SWAP3 SWAP2 SWAP3 PUSH2 0x35C7 DUP3 PUSH2 0x35A0 JUMP JUMPDEST SWAP2 PUSH2 0x35D5 PUSH1 0x40 MLOAD SWAP4 DUP5 PUSH2 0x357D JUMP JUMPDEST DUP3 SWAP5 DUP2 DUP5 MSTORE DUP2 DUP4 ADD GT PUSH2 0xEB0 JUMPI DUP3 DUP2 PUSH1 0x20 SWAP4 DUP5 PUSH0 SWAP7 ADD CALLDATACOPY ADD ADD MSTORE JUMP JUMPDEST SWAP1 DUP1 PUSH1 0x1F DUP4 ADD SLT ISZERO PUSH2 0xEB0 JUMPI DUP2 PUSH1 0x20 PUSH2 0x360C SWAP4 CALLDATALOAD SWAP2 ADD PUSH2 0x35BB JUMP JUMPDEST SWAP1 JUMP JUMPDEST SWAP1 PUSH1 0x60 DUP1 PUSH2 0x3650 PUSH2 0x363E PUSH2 0x362C DUP7 MLOAD PUSH1 0x80 DUP8 MSTORE PUSH1 0x80 DUP8 ADD SWAP1 PUSH2 0x31ED JUMP JUMPDEST PUSH1 0x20 DUP8 ADD MLOAD DUP7 DUP3 SUB PUSH1 0x20 DUP9 ADD MSTORE PUSH2 0x31ED JUMP JUMPDEST PUSH1 0x40 DUP7 ADD MLOAD DUP6 DUP3 SUB PUSH1 0x40 DUP8 ADD MSTORE PUSH2 0x31ED JUMP JUMPDEST SWAP4 ADD MLOAD ISZERO ISZERO SWAP2 ADD MSTORE SWAP1 JUMP JUMPDEST SWAP1 PUSH1 0x4 DUP3 LT ISZERO PUSH2 0x3668 JUMPI MSTORE JUMP JUMPDEST PUSH4 0x4E487B71 PUSH1 0xE0 SHL PUSH0 MSTORE PUSH1 0x21 PUSH1 0x4 MSTORE PUSH1 0x24 PUSH0 REVERT JUMPDEST SWAP1 DUP2 MLOAD DUP2 MSTORE PUSH1 0x40 DUP1 PUSH2 0x3650 PUSH1 0x20 DUP6 ADD MLOAD PUSH1 0x60 PUSH1 0x20 DUP7 ADD MSTORE PUSH1 0x60 DUP6 ADD SWAP1 PUSH2 0x31ED JUMP JUMPDEST PUSH1 0x1 PUSH1 0x1 PUSH1 0x40 SHL SUB DUP2 GT PUSH2 0x34CE JUMPI PUSH1 0x5 SHL PUSH1 0x20 ADD SWAP1 JUMP JUMPDEST PUSH1 0x40 MLOAD SWAP1 PUSH2 0x36C1 DUP3 PUSH2 0x352B JUMP JUMPDEST PUSH0 PUSH2 0x120 DUP4 DUP3 DUP2 MSTORE DUP3 PUSH1 0x20 DUP3 ADD MSTORE PUSH1 0x60 PUSH1 0x40 DUP3 ADD MSTORE PUSH1 0x60 DUP1 DUP3 ADD MSTORE PUSH1 0x60 PUSH1 0x80 DUP3 ADD MSTORE DUP3 PUSH1 0xA0 DUP3 ADD MSTORE DUP3 PUSH1 0xC0 DUP3 ADD MSTORE DUP3 PUSH1 0xE0 DUP3 ADD MSTORE DUP3 PUSH2 0x100 DUP3 ADD MSTORE ADD MSTORE JUMP JUMPDEST SWAP1 PUSH2 0x370A DUP3 PUSH2 0x369D JUMP JUMPDEST PUSH2 0x3717 PUSH1 0x40 MLOAD SWAP2 DUP3 PUSH2 0x357D JUMP JUMPDEST DUP3 DUP2 MSTORE DUP1 SWAP3 PUSH2 0x3728 PUSH1 0x1F NOT SWAP2 PUSH2 0x369D JUMP JUMPDEST ADD SWAP1 PUSH0 JUMPDEST DUP3 DUP2 LT PUSH2 0x3738 JUMPI POP POP POP JUMP JUMPDEST PUSH1 0x20 SWAP1 PUSH2 0x3743 PUSH2 0x36B4 JUMP JUMPDEST DUP3 DUP3 DUP6 ADD ADD MSTORE ADD PUSH2 0x372C JUMP JUMPDEST PUSH0 NOT DUP2 EQ PUSH2 0x375D JUMPI PUSH1 0x1 ADD SWAP1 JUMP JUMPDEST PUSH4 0x4E487B71 PUSH1 0xE0 SHL PUSH0 MSTORE PUSH1 0x11 PUSH1 0x4 MSTORE PUSH1 0x24 PUSH0 REVERT JUMPDEST MLOAD SWAP1 DUP2 ISZERO ISZERO DUP3 SUB PUSH2 0xEB0 JUMPI JUMP JUMPDEST MLOAD SWAP1 PUSH1 0x1 PUSH1 0x1 PUSH1 0xA0 SHL SUB DUP3 AND DUP3 SUB PUSH2 0xEB0 JUMPI JUMP JUMPDEST DUP2 PUSH1 0x1F DUP3 ADD SLT ISZERO PUSH2 0xEB0 JUMPI DUP1 MLOAD PUSH2 0x37A8 DUP2 PUSH2 0x35A0 JUMP JUMPDEST SWAP3 PUSH2 0x37B6 PUSH1 0x40 MLOAD SWAP5 DUP6 PUSH2 0x357D JUMP JUMPDEST DUP2 DUP5 MSTORE PUSH1 0x20 DUP3 DUP5 ADD ADD GT PUSH2 0xEB0 JUMPI PUSH2 0x360C SWAP2 PUSH1 0x20 DUP1 DUP6 ADD SWAP2 ADD PUSH2 0x31CC JUMP JUMPDEST PUSH1 0x20 DUP2 DUP4 SUB SLT PUSH2 0xEB0 JUMPI DUP1 MLOAD PUSH1 0x1 PUSH1 0x1 PUSH1 0x40 SHL SUB SWAP2 DUP3 DUP3 GT PUSH2 0xEB0 JUMPI ADD SWAP1 PUSH2 0x140 DUP3 DUP5 SUB SLT PUSH2 0xEB0 JUMPI PUSH1 0x40 MLOAD SWAP3 PUSH2 0x380A DUP5 PUSH2 0x352B JUMP JUMPDEST DUP3 MLOAD DUP5 MSTORE PUSH2 0x381A PUSH1 0x20 DUP5 ADD PUSH2 0x377E JUMP JUMPDEST PUSH1 0x20 DUP6 ADD MSTORE PUSH1 0x40 DUP4 ADD MLOAD DUP3 DUP2 GT PUSH2 0xEB0 JUMPI DUP2 PUSH2 0x3837 SWAP2 DUP6 ADD PUSH2 0x3792 JUMP JUMPDEST PUSH1 0x40 DUP6 ADD MSTORE PUSH1 0x60 DUP4 ADD MLOAD DUP3 DUP2 GT PUSH2 0xEB0 JUMPI DUP2 PUSH2 0x3854 SWAP2 DUP6 ADD PUSH2 0x3792 JUMP JUMPDEST PUSH1 0x60 DUP6 ADD MSTORE PUSH1 0x80 DUP4 ADD MLOAD SWAP2 DUP3 GT PUSH2 0xEB0 JUMPI PUSH2 0x3870 SWAP2 DUP4 ADD PUSH2 0x3792 JUMP JUMPDEST PUSH1 0x80 DUP4 ADD MSTORE PUSH1 0xA0 DUP2 ADD MLOAD PUSH1 0xA0 DUP4 ADD MSTORE PUSH1 0xC0 DUP2 ADD MLOAD PUSH1 0xC0 DUP4 ADD MSTORE PUSH1 0xE0 DUP2 ADD MLOAD PUSH1 0xE0 DUP4 ADD MSTORE PUSH2 0x100 DUP1 DUP3 ADD MLOAD SWAP1 DUP4 ADD MSTORE PUSH2 0x38AC PUSH2 0x120 DUP1 SWAP3 ADD PUSH2 0x3771 JUMP JUMPDEST SWAP1 DUP3 ADD MSTORE SWAP1 JUMP JUMPDEST DUP1 MLOAD DUP3 LT ISZERO PUSH2 0x38C7 JUMPI PUSH1 0x20 SWAP2 PUSH1 0x5 SHL ADD ADD SWAP1 JUMP JUMPDEST PUSH4 0x4E487B71 PUSH1 0xE0 SHL PUSH0 MSTORE PUSH1 0x32 PUSH1 0x4 MSTORE PUSH1 0x24 PUSH0 REVERT JUMPDEST PUSH2 0x38E4 DUP2 PUSH2 0x3EDD JUMP JUMPDEST PUSH0 SWAP1 DUP2 MSTORE PUSH1 0x6 PUSH1 0x20 MSTORE PUSH1 0x40 SWAP1 KECCAK256 SLOAD PUSH1 0x1 PUSH1 0x1 PUSH1 0xA0 SHL SUB AND SWAP1 JUMP JUMPDEST ISZERO PUSH2 0x3905 JUMPI JUMP JUMPDEST PUSH1 0x40 MLOAD PUSH3 0x461BCD PUSH1 0xE5 SHL DUP2 MSTORE PUSH1 0x20 PUSH1 0x4 DUP3 ADD MSTORE PUSH1 0x2D PUSH1 0x24 DUP3 ADD MSTORE PUSH32 0x4552433732313A2063616C6C6572206973206E6F7420746F6B656E206F776E65 PUSH1 0x44 DUP3 ADD MSTORE PUSH13 0x1C881BDC88185C1C1C9BDD9959 PUSH1 0x9A SHL PUSH1 0x64 DUP3 ADD MSTORE PUSH1 0x84 SWAP1 REVERT JUMPDEST PUSH1 0x40 MLOAD SWAP1 PUSH2 0x396D DUP3 PUSH2 0x34B3 JUMP JUMPDEST PUSH0 PUSH1 0xC0 DUP4 PUSH1 0x60 DUP1 DUP3 MSTORE DUP1 PUSH1 0x20 DUP4 ADD MSTORE DUP1 PUSH1 0x40 DUP4 ADD MSTORE DUP1 DUP1 DUP4 ADD MSTORE PUSH1 0x80 DUP3 ADD MSTORE DUP3 PUSH1 0xA0 DUP3 ADD MSTORE ADD MSTORE JUMP JUMPDEST SWAP2 SWAP1 PUSH1 0x40 DUP4 DUP3 SUB SLT PUSH2 0xEB0 JUMPI DUP3 MLOAD PUSH1 0x1 PUSH1 0x1 PUSH1 0x40 SHL SUB SWAP2 SWAP1 DUP3 DUP2 GT PUSH2 0xEB0 JUMPI DUP5 ADD SWAP1 PUSH1 0xE0 DUP3 DUP3 SUB SLT PUSH2 0xEB0 JUMPI PUSH1 0x40 MLOAD SWAP2 PUSH2 0x39CF DUP4 PUSH2 0x34B3 JUMP JUMPDEST DUP1 MLOAD DUP5 DUP2 GT PUSH2 0xEB0 JUMPI DUP3 PUSH2 0x39E4 SWAP2 DUP4 ADD PUSH2 0x3792 JUMP JUMPDEST DUP4 MSTORE PUSH1 0x20 DUP2 ADD MLOAD DUP5 DUP2 GT PUSH2 0xEB0 JUMPI DUP3 PUSH2 0x39FE SWAP2 DUP4 ADD PUSH2 0x3792 JUMP JUMPDEST PUSH1 0x20 DUP5 ADD MSTORE PUSH1 0x40 DUP2 ADD MLOAD DUP5 DUP2 GT PUSH2 0xEB0 JUMPI DUP3 PUSH2 0x3A1B SWAP2 DUP4 ADD PUSH2 0x3792 JUMP JUMPDEST PUSH1 0x40 DUP5 ADD MSTORE PUSH1 0x60 DUP2 ADD MLOAD DUP5 DUP2 GT PUSH2 0xEB0 JUMPI DUP3 PUSH2 0x3A38 SWAP2 DUP4 ADD PUSH2 0x3792 JUMP JUMPDEST PUSH1 0x60 DUP5 ADD MSTORE PUSH1 0x80 DUP2 ADD MLOAD SWAP4 DUP5 GT PUSH2 0xEB0 JUMPI PUSH2 0x3A59 PUSH1 0xC0 SWAP3 PUSH1 0x20 SWAP6 DUP4 ADD PUSH2 0x3792 JUMP JUMPDEST PUSH1 0x80 DUP5 ADD MSTORE PUSH2 0x3A6A PUSH1 0xA0 DUP3 ADD PUSH2 0x3771 JUMP JUMPDEST PUSH1 0xA0 DUP5 ADD MSTORE ADD MLOAD PUSH1 0xC0 DUP3 ADD MSTORE SWAP3 ADD MLOAD PUSH1 0x4 DUP2 LT ISZERO PUSH2 0xEB0 JUMPI SWAP1 JUMP JUMPDEST PUSH1 0x1 PUSH1 0x1 PUSH1 0xA0 SHL SUB SWAP1 SWAP2 AND DUP2 MSTORE PUSH1 0x40 PUSH1 0x20 DUP3 ADD DUP2 SWAP1 MSTORE PUSH2 0x360C SWAP3 SWAP2 ADD SWAP1 PUSH2 0x336A JUMP JUMPDEST PUSH1 0x20 SWAP1 DUP2 DUP2 DUP5 SUB SLT PUSH2 0xEB0 JUMPI DUP1 MLOAD SWAP1 PUSH1 0x1 PUSH1 0x1 PUSH1 0x40 SHL SUB DUP3 GT PUSH2 0xEB0 JUMPI ADD SWAP2 DUP1 PUSH1 0x1F DUP5 ADD SLT ISZERO PUSH2 0xEB0 JUMPI DUP3 MLOAD PUSH2 0x3ADC DUP2 PUSH2 0x369D JUMP JUMPDEST SWAP4 PUSH2 0x3AEA PUSH1 0x40 MLOAD SWAP6 DUP7 PUSH2 0x357D JUMP JUMPDEST DUP2 DUP6 MSTORE DUP4 DUP1 DUP7 ADD SWAP3 PUSH1 0x5 SHL DUP3 ADD ADD SWAP3 DUP4 GT PUSH2 0xEB0 JUMPI DUP4 ADD SWAP1 JUMPDEST DUP3 DUP3 LT PUSH2 0x3B11 JUMPI POP POP POP POP SWAP1 JUMP JUMPDEST DUP4 DUP1 SWAP2 PUSH2 0x3B1D DUP5 PUSH2 0x377E JUMP JUMPDEST DUP2 MSTORE ADD SWAP2 ADD SWAP1 PUSH2 0x3B03 JUMP JUMPDEST ISZERO PUSH2 0x3B2F JUMPI JUMP JUMPDEST PUSH1 0x40 MLOAD PUSH3 0x461BCD PUSH1 0xE5 SHL DUP2 MSTORE PUSH1 0x20 PUSH1 0x4 DUP3 ADD MSTORE PUSH1 0x18 PUSH1 0x24 DUP3 ADD MSTORE PUSH24 0x115490CDCC8C4E881A5B9D985B1A59081D1BDAD95B881251 PUSH1 0x42 SHL PUSH1 0x44 DUP3 ADD MSTORE PUSH1 0x64 SWAP1 REVERT JUMPDEST PUSH0 SWAP1 DUP2 MSTORE PUSH1 0x4 PUSH1 0x20 MSTORE PUSH1 0x40 SWAP1 KECCAK256 SLOAD PUSH1 0x1 PUSH1 0x1 PUSH1 0xA0 SHL SUB AND PUSH2 0x360C DUP2 ISZERO ISZERO PUSH2 0x3B28 JUMP JUMPDEST PUSH1 0x20 DUP2 DUP4 SUB SLT PUSH2 0xEB0 JUMPI DUP1 MLOAD PUSH1 0x1 PUSH1 0x1 PUSH1 0x40 SHL SUB SWAP2 DUP3 DUP3 GT PUSH2 0xEB0 JUMPI ADD SWAP2 PUSH1 0x60 DUP4 DUP3 SUB SLT PUSH2 0xEB0 JUMPI PUSH1 0x40 MLOAD SWAP3 PUSH2 0x3BC6 DUP5 PUSH2 0x34F5 JUMP JUMPDEST DUP1 MLOAD DUP5 MSTORE PUSH1 0x20 DUP2 ADD MLOAD SWAP3 DUP4 GT PUSH2 0xEB0 JUMPI PUSH2 0x3BE7 PUSH1 0x40 SWAP3 PUSH2 0x3BF2 SWAP5 DUP4 ADD PUSH2 0x3792 JUMP JUMPDEST PUSH1 0x20 DUP6 ADD MSTORE ADD PUSH2 0x3771 JUMP JUMPDEST PUSH1 0x40 DUP3 ADD MSTORE SWAP1 JUMP JUMPDEST ISZERO PUSH2 0x3C01 JUMPI JUMP JUMPDEST PUSH1 0x40 MLOAD PUSH3 0x461BCD PUSH1 0xE5 SHL DUP2 MSTORE PUSH1 0x20 PUSH1 0x4 DUP3 ADD MSTORE PUSH1 0x17 PUSH1 0x24 DUP3 ADD MSTORE PUSH23 0x10D85D1959DBDC9E48191BD95CC81B9BDD08195E1A5CDD PUSH1 0x4A SHL PUSH1 0x44 DUP3 ADD MSTORE PUSH1 0x64 SWAP1 REVERT JUMPDEST ISZERO PUSH2 0x3C47 JUMPI JUMP JUMPDEST PUSH1 0x40 MLOAD PUSH3 0x461BCD PUSH1 0xE5 SHL DUP2 MSTORE PUSH1 0x20 PUSH1 0x4 DUP3 ADD MSTORE PUSH1 0xD PUSH1 0x24 DUP3 ADD MSTORE PUSH13 0x13985B59481C995C5D5A5C9959 PUSH1 0x9A SHL PUSH1 0x44 DUP3 ADD MSTORE PUSH1 0x64 SWAP1 REVERT JUMPDEST ISZERO PUSH2 0x3C83 JUMPI JUMP JUMPDEST PUSH1 0x40 MLOAD PUSH3 0x461BCD PUSH1 0xE5 SHL DUP2 MSTORE PUSH1 0x20 PUSH1 0x4 DUP3 ADD MSTORE PUSH1 0x1E PUSH1 0x24 DUP3 ADD MSTORE PUSH32 0x436F7374206D7573742062652067726561746572207468616E207A65726F0000 PUSH1 0x44 DUP3 ADD MSTORE PUSH1 0x64 SWAP1 REVERT JUMPDEST ISZERO PUSH2 0x3CCF JUMPI JUMP JUMPDEST PUSH1 0x40 MLOAD PUSH3 0x461BCD PUSH1 0xE5 SHL DUP2 MSTORE PUSH1 0x20 PUSH1 0x4 DUP3 ADD MSTORE PUSH1 0x10 PUSH1 0x24 DUP3 ADD MSTORE PUSH16 0x496E76616C69642063617465676F7279 PUSH1 0x80 SHL PUSH1 0x44 DUP3 ADD MSTORE PUSH1 0x64 SWAP1 REVERT JUMPDEST SWAP1 PUSH2 0x3D2B SWAP4 SWAP3 SWAP2 PUSH2 0x3D1B PUSH2 0x2C70 DUP5 CALLER PUSH2 0x3F01 JUMP JUMPDEST PUSH2 0x3D26 DUP4 DUP4 DUP4 PUSH2 0x3FC5 JUMP JUMPDEST PUSH2 0x417B JUMP JUMPDEST ISZERO PUSH2 0x3D32 JUMPI JUMP JUMPDEST PUSH1 0x40 MLOAD PUSH3 0x461BCD PUSH1 0xE5 SHL DUP2 MSTORE DUP1 PUSH2 0x3D4B PUSH1 0x4 DUP3 ADD PUSH2 0x4128 JUMP JUMPDEST SUB SWAP1 REVERT JUMPDEST ISZERO PUSH2 0x3D56 JUMPI JUMP JUMPDEST PUSH1 0x40 MLOAD PUSH3 0x461BCD PUSH1 0xE5 SHL DUP2 MSTORE PUSH1 0x20 PUSH1 0x4 DUP3 ADD MSTORE PUSH1 0x16 PUSH1 0x24 DUP3 ADD MSTORE PUSH22 0x141C9BD91D58DD08191BD95CC81B9BDD08195E1A5CDD PUSH1 0x52 SHL PUSH1 0x44 DUP3 ADD MSTORE PUSH1 0x64 SWAP1 REVERT JUMPDEST RETURNDATASIZE ISZERO PUSH2 0x3DBE JUMPI RETURNDATASIZE SWAP1 PUSH2 0x3DA5 DUP3 PUSH2 0x35A0 JUMP JUMPDEST SWAP2 PUSH2 0x3DB3 PUSH1 0x40 MLOAD SWAP4 DUP5 PUSH2 0x357D JUMP JUMPDEST DUP3 MSTORE RETURNDATASIZE PUSH0 PUSH1 0x20 DUP5 ADD RETURNDATACOPY JUMP JUMPDEST PUSH1 0x60 SWAP1 JUMP JUMPDEST SWAP1 PUSH2 0x3DCD DUP3 PUSH2 0x369D JUMP JUMPDEST PUSH1 0x40 SWAP1 PUSH2 0x3DDD PUSH1 0x40 MLOAD SWAP2 DUP3 PUSH2 0x357D JUMP JUMPDEST DUP4 DUP2 MSTORE DUP1 SWAP4 PUSH2 0x3DEE PUSH1 0x1F NOT SWAP2 PUSH2 0x369D JUMP JUMPDEST ADD SWAP2 PUSH0 JUMPDEST DUP4 DUP2 LT PUSH2 0x3DFF JUMPI POP POP POP POP JUMP JUMPDEST PUSH1 0x20 SWAP1 DUP3 MLOAD PUSH2 0x3E0D DUP2 PUSH2 0x34F5 JUMP JUMPDEST PUSH0 DUP2 MSTORE DUP3 PUSH1 0x60 DUP2 DUP4 ADD MSTORE PUSH0 DUP6 DUP4 ADD MSTORE DUP3 DUP7 ADD ADD MSTORE ADD PUSH2 0x3DF2 JUMP JUMPDEST PUSH1 0x20 SWAP1 DUP2 DUP2 DUP5 SUB SLT PUSH2 0xEB0 JUMPI DUP1 MLOAD SWAP1 PUSH1 0x1 PUSH1 0x1 PUSH1 0x40 SHL SUB DUP3 GT PUSH2 0xEB0 JUMPI ADD SWAP2 DUP1 PUSH1 0x1F DUP5 ADD SLT ISZERO PUSH2 0xEB0 JUMPI DUP3 MLOAD PUSH2 0x3E5C DUP2 PUSH2 0x369D JUMP JUMPDEST SWAP4 PUSH2 0x3E6A PUSH1 0x40 MLOAD SWAP6 DUP7 PUSH2 0x357D JUMP JUMPDEST DUP2 DUP6 MSTORE DUP4 DUP1 DUP7 ADD SWAP3 PUSH1 0x5 SHL DUP3 ADD ADD SWAP3 DUP4 GT PUSH2 0xEB0 JUMPI DUP4 ADD SWAP1 JUMPDEST DUP3 DUP3 LT PUSH2 0x3E91 JUMPI POP POP POP POP SWAP1 JUMP JUMPDEST DUP2 MLOAD DUP2 MSTORE SWAP1 DUP4 ADD SWAP1 DUP4 ADD PUSH2 0x3E83 JUMP JUMPDEST ISZERO PUSH2 0x3EA7 JUMPI JUMP JUMPDEST PUSH1 0x40 MLOAD PUSH3 0x461BCD PUSH1 0xE5 SHL DUP2 MSTORE PUSH1 0x20 PUSH1 0x4 DUP3 ADD MSTORE PUSH1 0xE PUSH1 0x24 DUP3 ADD MSTORE PUSH14 0x139BDD08185D5D1A1BDC9A5E9959 PUSH1 0x92 SHL PUSH1 0x44 DUP3 ADD MSTORE PUSH1 0x64 SWAP1 REVERT JUMPDEST PUSH0 SWAP1 DUP2 MSTORE PUSH1 0x4 PUSH1 0x20 MSTORE PUSH1 0x40 SWAP1 KECCAK256 SLOAD PUSH2 0x3EFF SWAP1 PUSH1 0x1 PUSH1 0x1 PUSH1 0xA0 SHL SUB AND ISZERO ISZERO PUSH2 0x3B28 JUMP JUMPDEST JUMP JUMPDEST SWAP1 PUSH1 0x1 PUSH1 0x1 PUSH1 0xA0 SHL SUB DUP1 DUP1 PUSH2 0x3F15 DUP5 PUSH2 0x3B6F JUMP JUMPDEST AND SWAP4 AND SWAP2 DUP4 DUP4 EQ SWAP4 DUP5 ISZERO PUSH2 0x3F48 JUMPI JUMPDEST POP DUP4 ISZERO PUSH2 0x3F32 JUMPI JUMPDEST POP POP POP SWAP1 JUMP JUMPDEST PUSH2 0x3F3E SWAP2 SWAP3 SWAP4 POP PUSH2 0x38DB JUMP JUMPDEST AND EQ PUSH0 DUP1 DUP1 PUSH2 0x3F2C JUMP JUMPDEST SWAP1 SWAP4 POP PUSH0 MSTORE PUSH1 0x7 PUSH1 0x20 MSTORE PUSH1 0x40 PUSH0 KECCAK256 DUP3 PUSH0 MSTORE PUSH1 0x20 MSTORE PUSH1 0xFF PUSH1 0x40 PUSH0 KECCAK256 SLOAD AND SWAP3 PUSH0 PUSH2 0x3F24 JUMP JUMPDEST ISZERO PUSH2 0x3F72 JUMPI JUMP JUMPDEST PUSH1 0x40 MLOAD PUSH3 0x461BCD PUSH1 0xE5 SHL DUP2 MSTORE PUSH1 0x20 PUSH1 0x4 DUP3 ADD MSTORE PUSH1 0x25 PUSH1 0x24 DUP3 ADD MSTORE PUSH32 0x4552433732313A207472616E736665722066726F6D20696E636F727265637420 PUSH1 0x44 DUP3 ADD MSTORE PUSH5 0x37BBB732B9 PUSH1 0xD9 SHL PUSH1 0x64 DUP3 ADD MSTORE PUSH1 0x84 SWAP1 REVERT JUMPDEST SWAP1 PUSH2 0x3FED SWAP2 PUSH2 0x3FD3 DUP5 PUSH2 0x3B6F JUMP JUMPDEST PUSH1 0x1 PUSH1 0x1 PUSH1 0xA0 SHL SUB SWAP4 SWAP2 DUP5 AND SWAP3 DUP5 SWAP3 SWAP1 SWAP2 DUP4 AND DUP5 EQ PUSH2 0x3F6B JUMP JUMPDEST AND SWAP2 DUP3 ISZERO PUSH2 0x4080 JUMPI DUP2 PUSH2 0x400A SWAP2 PUSH2 0x4003 DUP7 PUSH2 0x3B6F JUMP JUMPDEST AND EQ PUSH2 0x3F6B JUMP JUMPDEST DUP3 PUSH0 MSTORE PUSH1 0x6 PUSH1 0x20 MSTORE PUSH1 0x40 PUSH0 KECCAK256 PUSH1 0x1 DUP1 PUSH1 0xA0 SHL SUB NOT SWAP1 DUP2 DUP2 SLOAD AND SWAP1 SSTORE DUP2 PUSH0 MSTORE PUSH1 0x5 PUSH1 0x20 MSTORE PUSH1 0x40 PUSH0 KECCAK256 PUSH0 NOT DUP2 SLOAD ADD SWAP1 SSTORE DUP3 PUSH0 MSTORE PUSH1 0x40 PUSH0 KECCAK256 PUSH1 0x1 DUP2 SLOAD ADD SWAP1 SSTORE DUP4 PUSH0 MSTORE PUSH1 0x4 PUSH1 0x20 MSTORE DUP3 PUSH1 0x40 PUSH0 KECCAK256 SWAP2 DUP3 SLOAD AND OR SWAP1 SSTORE PUSH32 0xDDF252AD1BE2C89B69C2B068FC378DAA952BA7F163C4A11628F55A4DF523B3EF PUSH0 DUP1 LOG4 JUMP JUMPDEST PUSH1 0x40 MLOAD PUSH3 0x461BCD PUSH1 0xE5 SHL DUP2 MSTORE PUSH1 0x20 PUSH1 0x4 DUP3 ADD MSTORE PUSH1 0x24 DUP1 DUP3 ADD MSTORE PUSH32 0x4552433732313A207472616E7366657220746F20746865207A65726F20616464 PUSH1 0x44 DUP3 ADD MSTORE PUSH4 0x72657373 PUSH1 0xE0 SHL PUSH1 0x64 DUP3 ADD MSTORE PUSH1 0x84 SWAP1 REVERT JUMPDEST PUSH0 SLOAD PUSH1 0x1 PUSH1 0x1 PUSH1 0xA0 SHL SUB AND CALLER SUB PUSH2 0x40E4 JUMPI JUMP JUMPDEST PUSH1 0x64 PUSH1 0x40 MLOAD PUSH3 0x461BCD PUSH1 0xE5 SHL DUP2 MSTORE PUSH1 0x20 PUSH1 0x4 DUP3 ADD MSTORE PUSH1 0x20 PUSH1 0x24 DUP3 ADD MSTORE PUSH32 0x4F776E61626C653A2063616C6C6572206973206E6F7420746865206F776E6572 PUSH1 0x44 DUP3 ADD MSTORE REVERT JUMPDEST PUSH1 0x80 SWAP1 PUSH1 0x20 DUP2 MSTORE PUSH1 0x32 PUSH1 0x20 DUP3 ADD MSTORE PUSH32 0x4552433732313A207472616E7366657220746F206E6F6E204552433732315265 PUSH1 0x40 DUP3 ADD MSTORE PUSH18 0x31B2B4BB32B91034B6B83632B6B2B73A32B9 PUSH1 0x71 SHL PUSH1 0x60 DUP3 ADD MSTORE ADD SWAP1 JUMP JUMPDEST SWAP3 SWAP1 SWAP2 SWAP1 DUP3 EXTCODESIZE ISZERO PUSH2 0x4260 JUMPI PUSH2 0x41CD SWAP3 PUSH1 0x20 SWAP3 PUSH0 PUSH1 0x1 DUP1 PUSH1 0xA0 SHL SUB PUSH1 0x40 MLOAD DUP1 SWAP8 DUP2 SWAP7 DUP3 SWAP6 DUP5 PUSH4 0xA85BD01 PUSH1 0xE1 SHL SWAP13 DUP14 DUP7 MSTORE CALLER PUSH1 0x4 DUP8 ADD MSTORE AND PUSH1 0x24 DUP6 ADD MSTORE PUSH1 0x44 DUP5 ADD MSTORE PUSH1 0x80 PUSH1 0x64 DUP5 ADD MSTORE PUSH1 0x84 DUP4 ADD SWAP1 PUSH2 0x31ED JUMP JUMPDEST SUB SWAP4 AND GAS CALL PUSH0 SWAP2 DUP2 PUSH2 0x421B JUMPI JUMPDEST POP PUSH2 0x420D JUMPI PUSH2 0x41E7 PUSH2 0x3D94 JUMP JUMPDEST DUP1 MLOAD SWAP1 DUP2 PUSH2 0x4208 JUMPI PUSH1 0x40 MLOAD PUSH3 0x461BCD PUSH1 0xE5 SHL DUP2 MSTORE DUP1 PUSH2 0x3D4B PUSH1 0x4 DUP3 ADD PUSH2 0x4128 JUMP JUMPDEST PUSH1 0x20 ADD REVERT JUMPDEST PUSH1 0x1 PUSH1 0x1 PUSH1 0xE0 SHL SUB NOT AND EQ SWAP1 JUMP JUMPDEST SWAP1 SWAP2 POP PUSH1 0x20 DUP2 RETURNDATASIZE PUSH1 0x20 GT PUSH2 0x4258 JUMPI JUMPDEST DUP2 PUSH2 0x4237 PUSH1 0x20 SWAP4 DUP4 PUSH2 0x357D JUMP JUMPDEST DUP2 ADD SUB SLT PUSH2 0xEB0 JUMPI MLOAD PUSH1 0x1 PUSH1 0x1 PUSH1 0xE0 SHL SUB NOT DUP2 AND DUP2 SUB PUSH2 0xEB0 JUMPI SWAP1 PUSH0 PUSH2 0x41DA JUMP JUMPDEST RETURNDATASIZE SWAP2 POP PUSH2 0x422A JUMP JUMPDEST POP POP POP POP PUSH1 0x1 SWAP1 JUMP INVALID DUP12 0xE0 SMOD SWAP13 MSTORE8 AND MSIZE EQ SGT PREVRANDAO 0xCD 0x1F 0xD0 LOG4 CALLCODE DUP5 NOT BLOBHASH PUSH32 0x9722A3DAAFE3B4186F6B6457E0A164736F6C6343000818000A00000000000000 "},"methodIdentifiers":{"approve(address,uint256)":"095ea7b3","balanceOf(address)":"70a08231","changeServicePct(uint256)":"5be20959","createCategory(string)":"dc298682","createProduct(string,string,string,uint256,uint256,uint256)":"a9ab7af2","deleteCategory(uint256)":"ceca737f","deleteProduct(uint256)":"ed90c7b7","getAllCategories()":"dadd0a57","getAllProducts()":"02ee3a52","getAllRegisteredSellers()":"5ad6a580","getAllSellers()":"9b269b8f","getApproved(uint256)":"081812fc","getCategory(uint256)":"f3052d26","getMyProducts()":"fdca4ca3","getPendingVerificationUsers()":"6f68ef3a","getProduct(uint256)":"b9db15b4","getSeller(address)":"a323d29e","getSellerProducts(address)":"e6a93e16","getSellerProfile(address)":"4293e5ce","getSellerStatus(address)":"eb11c434","getTotalProducts()":"570aea8a","getTotalSales()":"2156a96c","getUser(address)":"6f77926b","grantOwnerSellerAccess()":"4e213d20","isApprovedForAll(address,address)":"e985e9c5","name()":"06fdde03","owner()":"8da5cb5b","ownerOf(uint256)":"6352211e","registerSeller(string,string,string,string,string)":"7e8555ed","registerUser(string,string,string)":"d637dcfa","renounceOwnership()":"715018a6","safeTransferFrom(address,address,uint256)":"42842e0e","safeTransferFrom(address,address,uint256,bytes)":"b88d4fde","setApprovalForAll(address,bool)":"a22cb465","storageContract()":"11ce0267","supportsInterface(bytes4)":"01ffc9a7","symbol()":"95d89b41","tokenURI(uint256)":"c87b56dd","transferFrom(address,address,uint256)":"23b872dd","transferOwnership(address)":"f2fde38b","updateCategory(uint256,string,bool)":"66224d8e","updateProduct(uint256,string,string,string,uint256,uint256,uint256)":"ec4cf85b","updateSellerStatus(address,uint8)":"97b6f393","withdrawServiceFees()":"d72e481d"}}}}}