{"contracts/CryptoMartTransactions.sol":{"CryptoMartTransactions":{"abi":[{"inputs":[{"internalType":"address","name":"_storageContract","type":"address"},{"internalType":"address","name":"_coreContract","type":"address"}],"stateMutability":"nonpayable","type":"constructor"},{"anonymous":false,"inputs":[{"indexed":true,"internalType":"address","name":"seller","type":"address"},{"indexed":false,"internalType":"uint256","name":"amount","type":"uint256"}],"name":"BalanceWithdrawn","type":"event"},{"anonymous":false,"inputs":[{"indexed":true,"internalType":"address","name":"previousOwner","type":"address"},{"indexed":true,"internalType":"address","name":"newOwner","type":"address"}],"name":"OwnershipTransferred","type":"event"},{"anonymous":false,"inputs":[{"indexed":true,"internalType":"uint256","name":"productId","type":"uint256"},{"indexed":true,"internalType":"address","name":"buyer","type":"address"},{"indexed":true,"internalType":"address","name":"seller","type":"address"}],"name":"ProductPurchased","type":"event"},{"anonymous":false,"inputs":[{"indexed":true,"internalType":"uint256","name":"productId","type":"uint256"},{"indexed":true,"internalType":"address","name":"buyer","type":"address"}],"name":"PurchaseDelivered","type":"event"},{"anonymous":false,"inputs":[{"indexed":true,"internalType":"uint256","name":"productId","type":"uint256"},{"indexed":true,"internalType":"address","name":"buyer","type":"address"},{"indexed":true,"internalType":"address","name":"seller","type":"address"},{"indexed":false,"internalType":"uint256","name":"amount","type":"uint256"},{"indexed":false,"internalType":"uint256","name":"timestamp","type":"uint256"}],"name":"PurchaseRecorded","type":"event"},{"anonymous":false,"inputs":[{"indexed":true,"internalType":"uint256","name":"productId","type":"uint256"},{"indexed":true,"internalType":"address","name":"reviewer","type":"address"},{"indexed":false,"internalType":"uint256","name":"rating","type":"uint256"}],"name":"ReviewCreated","type":"event"},{"anonymous":false,"inputs":[{"indexed":true,"internalType":"uint256","name":"productId","type":"uint256"},{"indexed":true,"internalType":"uint256","name":"reviewId","type":"uint256"}],"name":"ReviewDeleted","type":"event"},{"inputs":[{"internalType":"uint256","name":"productId","type":"uint256"}],"name":"buyProduct","outputs":[],"stateMutability":"payable","type":"function"},{"inputs":[],"name":"coreContract","outputs":[{"internalType":"address","name":"","type":"address"}],"stateMutability":"view","type":"function"},{"inputs":[{"internalType":"uint256","name":"productId","type":"uint256"},{"internalType":"uint256","name":"rating","type":"uint256"},{"internalType":"string","name":"comment","type":"string"}],"name":"createReview","outputs":[],"stateMutability":"nonpayable","type":"function"},{"inputs":[{"internalType":"uint256","name":"productId","type":"uint256"},{"internalType":"uint256","name":"reviewId","type":"uint256"}],"name":"deleteReview","outputs":[],"stateMutability":"nonpayable","type":"function"},{"inputs":[{"internalType":"address","name":"buyer","type":"address"}],"name":"getBuyerPurchaseHistory","outputs":[{"components":[{"internalType":"uint256","name":"productId","type":"uint256"},{"internalType":"address","name":"buyer","type":"address"},{"internalType":"address","name":"seller","type":"address"},{"internalType":"uint256","name":"totalAmount","type":"uint256"},{"internalType":"uint256","name":"timestamp","type":"uint256"},{"internalType":"bool","name":"isDelivered","type":"bool"}],"internalType":"struct CryptoMartStorage.PurchaseStruct[]","name":"","type":"tuple[]"}],"stateMutability":"view","type":"function"},{"inputs":[{"internalType":"uint256","name":"productId","type":"uint256"}],"name":"getReviews","outputs":[{"components":[{"internalType":"uint256","name":"reviewId","type":"uint256"},{"internalType":"address","name":"reviewer","type":"address"},{"internalType":"uint256","name":"rating","type":"uint256"},{"internalType":"string","name":"comment","type":"string"},{"internalType":"bool","name":"deleted","type":"bool"},{"internalType":"uint256","name":"timestamp","type":"uint256"}],"internalType":"struct CryptoMartStorage.ReviewStruct[]","name":"","type":"tuple[]"}],"stateMutability":"view","type":"function"},{"inputs":[{"internalType":"address","name":"seller","type":"address"}],"name":"getSellerBalance","outputs":[{"internalType":"uint256","name":"","type":"uint256"}],"stateMutability":"view","type":"function"},{"inputs":[{"internalType":"address","name":"seller","type":"address"}],"name":"getSellerPurchaseHistory","outputs":[{"components":[{"internalType":"uint256","name":"productId","type":"uint256"},{"internalType":"address","name":"buyer","type":"address"},{"internalType":"address","name":"seller","type":"address"},{"internalType":"uint256","name":"totalAmount","type":"uint256"},{"internalType":"uint256","name":"timestamp","type":"uint256"},{"internalType":"bool","name":"isDelivered","type":"bool"}],"internalType":"struct CryptoMartStorage.PurchaseStruct[]","name":"","type":"tuple[]"}],"stateMutability":"view","type":"function"},{"inputs":[{"internalType":"uint256","name":"productId","type":"uint256"},{"internalType":"address","name":"buyer","type":"address"}],"name":"markPurchaseDelivered","outputs":[],"stateMutability":"nonpayable","type":"function"},{"inputs":[],"name":"owner","outputs":[{"internalType":"address","name":"","type":"address"}],"stateMutability":"view","type":"function"},{"inputs":[],"name":"renounceOwnership","outputs":[],"stateMutability":"nonpayable","type":"function"},{"inputs":[],"name":"storageContract","outputs":[{"internalType":"contract CryptoMartStorage","name":"","type":"address"}],"stateMutability":"view","type":"function"},{"inputs":[{"internalType":"address","name":"newOwner","type":"address"}],"name":"transferOwnership","outputs":[],"stateMutability":"nonpayable","type":"function"},{"inputs":[],"name":"withdraw","outputs":[],"stateMutability":"nonpayable","type":"function"},{"stateMutability":"payable","type":"receive"}],"evm":{"bytecode":{"linkReferences":{},"object":"60c03461010357601f6119fb38819003918201601f19168301916001600160401b0383118484101761010757808492604094855283398101031261010357610052602061004b8361011b565b920161011b565b5f8054336001600160a01b0319821681178355604051946001600160a01b039390928416907f8be0079c531659141344cd1fd0a4f28419497f9722a3daafe3b4186f6b6457e09080a3600180551660805260a0526118cb908161013082396080518181816101fe015281816102a3015281816103c6015281816109d301528181610ba501528181610c1d01528181610d4c01528181610e460152818161103a01526110a8015260a051816101880152f35b5f80fd5b634e487b7160e01b5f52604160045260245ffd5b51906001600160a01b03821682036101035756fe60806040818152600480361015610020575b505050361561001e575f80fd5b005b5f925f3560e01c90816311aa5b34146110695750806311ce02671461102657806316d81b3814610dbc5780632148893f14610d0657806324d41a0314610be45780633c2575d514610b625780633ccfd60b146109a1578063715018a61461095b5780638642269e146103905780638da5cb5b146103685780639d4a225514610271578063b27e1697146101bb578063e80db5db146101735763f2fde38b03610011573461016f57602036600319011261016f576100db61121f565b906100e4611827565b6001600160a01b0391821692831561011d5750505f548260018060a01b03198216175f55165f8051602061189f8339815191525f80a380f35b906020608492519162461bcd60e51b8352820152602660248201527f4f776e61626c653a206e6577206f776e657220697320746865207a65726f206160448201526564647265737360d01b6064820152fd5b8280fd5b5050346101b757816003193601126101b757517f00000000000000000000000000000000000000000000000000000000000000006001600160a01b03168152602090f35b5080fd5b50903461016f57602036600319011261016f57826101d761121f565b82516385a3439360e01b81526001600160a01b0391821694810194909452839060249082907f0000000000000000000000000000000000000000000000000000000000000000165afa918215610267578361023e9493610242575b505051918291826112f8565b0390f35b61025f9293503d8091833e6102578183611277565b81019061153d565b905f80610232565b81513d85823e3d90fd5b508290346101b757602091826003193601126103655783516346a4237b60e01b815282359281019290925280826024817f00000000000000000000000000000000000000000000000000000000000000006001600160a01b03165afa918215610359578192610335575b5083519280840190808552835180925280868601968360051b870101940192955b8287106103095785850386f35b909192938280610325600193603f198a82030186528851611386565b96019201960195929190926102fc565b6103529192503d8084833e61034a8183611277565b810190611685565b90846102db565b508351903d90823e3d90fd5b80fd5b5050346101b757816003193601126101b757905490516001600160a01b039091168152602090f35b5090602090816003193601126107ff5782356103aa6117d1565b8151632e76c56d60e21b81528481018290526001600160a01b037f0000000000000000000000000000000000000000000000000000000000000000811692908783602481875afa92831561095157889361092d575b508451632bd57b5960e21b81528781018390528681602481885afa80156107ae5789906108f3575b6104319150611640565b6101208301516108be5760e083019283511561088c5760c081018051341061085257878201948386511633146108165780518015610803575f190181528a929190873b156107ff578a8492610120899589946104fa6104c98f8c81519b8c9a8b9a6306ad0cb960e01b8c528b01528260248b0152865160448b0152511660648901528401516101406084890152610184880190611361565b6104e560608501519160431992838a83030160a48b0152611361565b906080850151908883030160c4890152611361565b9360a083015160e48701525161010486015251610124850152610100810151610144850152015115156101648301520381838a5af180156107f5576107e1575b5050845163865d219760e01b8152868189818c895af180156107ae579087916107b8575b5050845163700f7b7360e11b815286818981885afa9081156107ae57899161077d575b5080340290348204143415171561076a576064900492833403348111610757579082918a96959493825116863b1561073f5787908b6105d18b5194859384936307c115ed60e01b85528401611787565b0381838a5af1801561073557908791610743575b5050818151168751906105f782611235565b848252338a830152888201523460608201524260808201528660a08201528282511690863b1561073f57610646908951926375573ab160e11b8452338d850152602484015260448301906112b5565b868161010481838a5af180156107355790879161071d575b50505116908551908233827f405b8e92032184041314dcddf305e0d97d13b103d3fa162eb2b1c760760bdc0a8980a434825242888301527f8fa4fb19835ecd208875d6ea2f7a57043c7a8dd31ec76d5bf7063073dfec264b873393a4806106c8575b826001805580f35b8280929181925af16106d86117a2565b50156106e6578381806106c0565b5162461bcd60e51b8152918201526013602482015272119959481d1c985b9cd9995c8819985a5b1959606a1b604482015260649150fd5b61072690611264565b61073157855f61065e565b8580fd5b88513d89823e3d90fd5b8780fd5b61074c90611264565b61073157855f6105e5565b634e487b7160e01b8a526011895260248afd5b634e487b7160e01b895260118852602489fd5b90508681813d83116107a7575b6107948183611277565b810103126107a357515f610581565b5f80fd5b503d61078a565b86513d8b823e3d90fd5b813d83116107da575b6107cb8183611277565b810103126107a357855f61055e565b503d6107c1565b6107ea90611264565b61073f57875f61053a565b87513d84823e3d90fd5b8380fd5b634e487b7160e01b8c5260118b5260248cfd5b875162461bcd60e51b8152808b018a9052601660248201527510d85b9b9bdd08189d5e481bdddb881c1c9bd91d58dd60521b6044820152606490fd5b865162461bcd60e51b8152808a018990526014602482015273125b9cdd59999a58da595b9d081c185e5b595b9d60621b6044820152606490fd5b855162461bcd60e51b8152808901889052600c60248201526b4f7574206f662073746f636b60a01b6044820152606490fd5b845162461bcd60e51b8152808801879052600f60248201526e141c9bd91d58dd0819195b195d1959608a1b6044820152606490fd5b508681813d8311610926575b6109098183611277565b810103126109225761091d61043191611431565b610427565b8880fd5b503d6108ff565b61094a9193503d808a833e6109428183611277565b81019061143e565b915f6103ff565b85513d8a823e3d90fd5b8334610365578060031936011261036557610974611827565b5f80546001600160a01b0319811682556001600160a01b03165f8051602061189f8339815191528280a380f35b50903461016f578260031936011261016f576109bb6117d1565b805163181fad3960e21b8152338382015291602091907f00000000000000000000000000000000000000000000000000000000000000006001600160a01b03168385602481845afa948515610b58578695610b29575b508415610aee578086913b156101b7578184518092636405dd4560e11b8252818381610a408c338b8401611787565b03925af18015610ae457610acc575b5080808087335af1610a5f6117a2565b5015610a975750907fddc398b321237a8d40ac914388309c2f52a08c134e4dc4ce61e32f57cb7d80f191519283523392a26001805580f35b82606492519162461bcd60e51b8352820152601160248201527015da5d1a191c985dd85b0819985a5b1959607a1b6044820152fd5b610ad590611264565b610ae057845f610a4f565b8480fd5b84513d84823e3d90fd5b5082606492519162461bcd60e51b835282015260166024820152754e6f2062616c616e636520746f20776974686472617760501b6044820152fd5b9094508381813d8311610b51575b610b418183611277565b810103126107a35751935f610a11565b503d610b37565b83513d88823e3d90fd5b50903461016f57602036600319011261016f5782610b7e61121f565b825163c258f53160e01b81526001600160a01b0391821694810194909452839060249082907f0000000000000000000000000000000000000000000000000000000000000000165afa918215610267578361023e949361024257505051918291826112f8565b50903461016f578060031936011261016f5781356024359160018060a01b0393828251916346a4237b60e01b83528201528581602481887f0000000000000000000000000000000000000000000000000000000000000000165afa918215610cfd57508591610ce3575b50845b8151811015610cdb5783610c658284611618565b51511480610cb6575b610c7a57600101610c51565b600192939450610c8c90608092611618565b5101527ffe09911b3ec9652ef94a11286713bd397f2fb090f28c62303451d8040ff62c628380a380f35b50846020610cc48385611618565b51015116331480610c6e5750848654163314610c6e565b505050505080f35b610cf791503d8087833e61034a8183611277565b5f610c4e565b513d87823e3d90fd5b509190346101b7576020928360031936011261016f5783610d2561121f565b835163181fad3960e21b81526001600160a01b0391821693810193909352829060249082907f0000000000000000000000000000000000000000000000000000000000000000165afa928315610db15792610d82575b5051908152f35b9091508281813d8311610daa575b610d9a8183611277565b810103126107a35751905f610d7b565b503d610d90565b8251903d90823e3d90fd5b5090346107a35760603660031901126107a3576024803592803592604435929091906001600160401b0384116107a357366023850112156107a3578382013590610e058261129a565b91610e1285519384611277565b808352602095368383830101116107a357815f928489930183870137840101528351632bd57b5960e21b81528381018790527f00000000000000000000000000000000000000000000000000000000000000006001600160a01b03169086818481855afa8015610fa4575f90610ff0575b610e8d9150611640565b600188101580610fe5575b15610fae578451632fb1c6b160e11b815292868486815f865af1938415610fa4575f94610f75575b50855193610ecd85611235565b84523387850152888685015260608401525f60808401524260a0840152803b156107a357865f8695610f1d8296885198899788968795638061bc9360e01b87528601528401526044830190611386565b03925af18015610f6b57610f47575b50905f8051602061187f83398151915291519384523393a380f35b5f8051602061187f83398151915292919550610f6290611264565b5f949091610f2c565b82513d5f823e3d90fd5b9093508681813d8311610f9d575b610f8d8183611277565b810103126107a35751925f610ec0565b503d610f83565b86513d5f823e3d90fd5b845162461bcd60e51b815280850187905260128184015271526174696e67206d75737420626520312d3560701b6044820152606490fd5b506005881115610e98565b508681813d831161101f575b6110068183611277565b810103126107a35761101a610e8d91611431565b610e83565b503d610ffc565b82346107a3575f3660031901126107a357517f00000000000000000000000000000000000000000000000000000000000000006001600160a01b03168152602090f35b839150346107a357816003193601126107a3576024356001600160a01b0381811694803593928690036107a357632e76c56d60e21b83528083018490527f00000000000000000000000000000000000000000000000000000000000000008216925f81602481875afa908115610fa45783916020915f91611205575b5001511633036111c2578560245f92875195869384926385a3439360e01b84528301525afa9182156111b8575f9261119c575b505f5b8251811015611192578361112f8285611618565b5151148061117a575b6111445760010161111b565b919050611152929350611618565b505b7f187090b179fb7e8c2670a325ae40d84b5ef651c9293a379ac384d99257124f4e5f80a3005b503382866111888487611618565b5101511614611138565b5050509050611154565b6111b19192503d805f833e6102578183611277565b9085611118565b84513d5f823e3d90fd5b606490602086519162461bcd60e51b8352820152601e60248201527f4f6e6c792073656c6c65722063616e206d61726b2064656c69766572656400006044820152fd5b61121991503d805f833e6109428183611277565b896110e5565b600435906001600160a01b03821682036107a357565b60c081019081106001600160401b0382111761125057604052565b634e487b7160e01b5f52604160045260245ffd5b6001600160401b03811161125057604052565b601f909101601f19168101906001600160401b0382119082101761125057604052565b6001600160401b03811161125057601f01601f191660200190565b60a08091805184526020810151600180841b0380911660208601526040820151166040850152606081015160608501526080810151608085015201511515910152565b60209060206040818301928281528551809452019301915f5b82811061131f575050505090565b909192938260c08261133460019489516112b5565b01950193929101611311565b5f5b8381106113515750505f910152565b8181015183820152602001611342565b9060209161137a81518092818552858086019101611340565b601f01601f1916010190565b908151815260018060a01b0360208301511660208201526040820151604082015260a0806113c3606085015160c0606086015260c0850190611361565b93608081015115156080850152015191015290565b51906001600160a01b03821682036107a357565b81601f820112156107a35780516114028161129a565b926114106040519485611277565b818452602082840101116107a35761142e9160208085019101611340565b90565b519081151582036107a357565b6020818303126107a35780516001600160401b03918282116107a35701906101409283838203126107a35760405193840184811083821117611250576040528251845261148d602084016113d8565b602085015260408301518281116107a357816114aa9185016113ec565b604085015260608301518281116107a357816114c79185016113ec565b606085015260808301519182116107a3576114e39183016113ec565b608083015260a081015160a083015260c081015160c083015260e081015160e0830152610100808201519083015261151f610120809201611431565b9082015290565b6001600160401b0381116112505760051b60200190565b60209081818403126107a3578051906001600160401b0382116107a3570182601f820112156107a35780519161157283611526565b9360406115826040519687611277565b848652828601918360c0809702860101948186116107a3578401925b8584106115af575050505050505090565b86848303126107a35784879184516115c681611235565b865181526115d58388016113d8565b838201526115e48688016113d8565b86820152606080880151908201526080808801519082015260a0611609818901611431565b9082015281520193019261159e565b805182101561162c5760209160051b010190565b634e487b7160e01b5f52603260045260245ffd5b1561164757565b60405162461bcd60e51b8152602060048201526016602482015275141c9bd91d58dd08191bd95cc81b9bdd08195e1a5cdd60521b6044820152606490fd5b9060209081838203126107a35782516001600160401b03938482116107a357019080601f830112156107a35781516116bc81611526565b946040906116cd6040519788611277565b828752858088019360051b860101948486116107a357868101935b8685106116fa57505050505050505090565b84518381116107a357820160c09182601f19838a0301126107a357855161172081611235565b8a83015181526117318784016113d8565b8b820152606093848401518883015260809081850151948886116107a3578d966117608d8980998501016113ec565b9085015260a092611772848301611431565b908501520151908201528152019401936116e8565b6001600160a01b039091168152602081019190915260400190565b3d156117cc573d906117b38261129a565b916117c16040519384611277565b82523d5f602084013e565b606090565b6002600154146117e2576002600155565b60405162461bcd60e51b815260206004820152601f60248201527f5265656e7472616e637947756172643a207265656e7472616e742063616c6c006044820152606490fd5b5f546001600160a01b0316330361183a57565b606460405162461bcd60e51b815260206004820152602060248201527f4f776e61626c653a2063616c6c6572206973206e6f7420746865206f776e65726044820152fdfe52604caa1710245cf3f94d9ba89ff921bb23d98741f57a258794b86f3ba8e7fc8be0079c531659141344cd1fd0a4f28419497f9722a3daafe3b4186f6b6457e0a164736f6c6343000818000a","opcodes":"PUSH1 0xC0 CALLVALUE PUSH2 0x103 JUMPI PUSH1 0x1F PUSH2 0x19FB CODESIZE DUP2 SWAP1 SUB SWAP2 DUP3 ADD PUSH1 0x1F NOT AND DUP4 ADD SWAP2 PUSH1 0x1 PUSH1 0x1 PUSH1 0x40 SHL SUB DUP4 GT DUP5 DUP5 LT OR PUSH2 0x107 JUMPI DUP1 DUP5 SWAP3 PUSH1 0x40 SWAP5 DUP6 MSTORE DUP4 CODECOPY DUP2 ADD SUB SLT PUSH2 0x103 JUMPI PUSH2 0x52 PUSH1 0x20 PUSH2 0x4B DUP4 PUSH2 0x11B JUMP JUMPDEST SWAP3 ADD PUSH2 0x11B JUMP JUMPDEST PUSH0 DUP1 SLOAD CALLER PUSH1 0x1 PUSH1 0x1 PUSH1 0xA0 SHL SUB NOT DUP3 AND DUP2 OR DUP4 SSTORE PUSH1 0x40 MLOAD SWAP5 PUSH1 0x1 PUSH1 0x1 PUSH1 0xA0 SHL SUB SWAP4 SWAP1 SWAP3 DUP5 AND SWAP1 PUSH32 0x8BE0079C531659141344CD1FD0A4F28419497F9722A3DAAFE3B4186F6B6457E0 SWAP1 DUP1 LOG3 PUSH1 0x1 DUP1 SSTORE AND PUSH1 0x80 MSTORE PUSH1 0xA0 MSTORE PUSH2 0x18CB SWAP1 DUP2 PUSH2 0x130 DUP3 CODECOPY PUSH1 0x80 MLOAD DUP2 DUP2 DUP2 PUSH2 0x1FE ADD MSTORE DUP2 DUP2 PUSH2 0x2A3 ADD MSTORE DUP2 DUP2 PUSH2 0x3C6 ADD MSTORE DUP2 DUP2 PUSH2 0x9D3 ADD MSTORE DUP2 DUP2 PUSH2 0xBA5 ADD MSTORE DUP2 DUP2 PUSH2 0xC1D ADD MSTORE DUP2 DUP2 PUSH2 0xD4C ADD MSTORE DUP2 DUP2 PUSH2 0xE46 ADD MSTORE DUP2 DUP2 PUSH2 0x103A ADD MSTORE PUSH2 0x10A8 ADD MSTORE PUSH1 0xA0 MLOAD DUP2 PUSH2 0x188 ADD MSTORE RETURN JUMPDEST PUSH0 DUP1 REVERT JUMPDEST PUSH4 0x4E487B71 PUSH1 0xE0 SHL PUSH0 MSTORE PUSH1 0x41 PUSH1 0x4 MSTORE PUSH1 0x24 PUSH0 REVERT JUMPDEST MLOAD SWAP1 PUSH1 0x1 PUSH1 0x1 PUSH1 0xA0 SHL SUB DUP3 AND DUP3 SUB PUSH2 0x103 JUMPI JUMP INVALID PUSH1 0x80 PUSH1 0x40 DUP2 DUP2 MSTORE PUSH1 0x4 DUP1 CALLDATASIZE LT ISZERO PUSH2 0x20 JUMPI JUMPDEST POP POP POP CALLDATASIZE ISZERO PUSH2 0x1E JUMPI PUSH0 DUP1 REVERT JUMPDEST STOP JUMPDEST PUSH0 SWAP3 PUSH0 CALLDATALOAD PUSH1 0xE0 SHR SWAP1 DUP2 PUSH4 0x11AA5B34 EQ PUSH2 0x1069 JUMPI POP DUP1 PUSH4 0x11CE0267 EQ PUSH2 0x1026 JUMPI DUP1 PUSH4 0x16D81B38 EQ PUSH2 0xDBC JUMPI DUP1 PUSH4 0x2148893F EQ PUSH2 0xD06 JUMPI DUP1 PUSH4 0x24D41A03 EQ PUSH2 0xBE4 JUMPI DUP1 PUSH4 0x3C2575D5 EQ PUSH2 0xB62 JUMPI DUP1 PUSH4 0x3CCFD60B EQ PUSH2 0x9A1 JUMPI DUP1 PUSH4 0x715018A6 EQ PUSH2 0x95B JUMPI DUP1 PUSH4 0x8642269E EQ PUSH2 0x390 JUMPI DUP1 PUSH4 0x8DA5CB5B EQ PUSH2 0x368 JUMPI DUP1 PUSH4 0x9D4A2255 EQ PUSH2 0x271 JUMPI DUP1 PUSH4 0xB27E1697 EQ PUSH2 0x1BB JUMPI DUP1 PUSH4 0xE80DB5DB EQ PUSH2 0x173 JUMPI PUSH4 0xF2FDE38B SUB PUSH2 0x11 JUMPI CALLVALUE PUSH2 0x16F JUMPI PUSH1 0x20 CALLDATASIZE PUSH1 0x3 NOT ADD SLT PUSH2 0x16F JUMPI PUSH2 0xDB PUSH2 0x121F JUMP JUMPDEST SWAP1 PUSH2 0xE4 PUSH2 0x1827 JUMP JUMPDEST PUSH1 0x1 PUSH1 0x1 PUSH1 0xA0 SHL SUB SWAP2 DUP3 AND SWAP3 DUP4 ISZERO PUSH2 0x11D JUMPI POP POP PUSH0 SLOAD DUP3 PUSH1 0x1 DUP1 PUSH1 0xA0 SHL SUB NOT DUP3 AND OR PUSH0 SSTORE AND PUSH0 DUP1 MLOAD PUSH1 0x20 PUSH2 0x189F DUP4 CODECOPY DUP2 MLOAD SWAP2 MSTORE PUSH0 DUP1 LOG3 DUP1 RETURN JUMPDEST SWAP1 PUSH1 0x20 PUSH1 0x84 SWAP3 MLOAD SWAP2 PUSH3 0x461BCD PUSH1 0xE5 SHL DUP4 MSTORE DUP3 ADD MSTORE PUSH1 0x26 PUSH1 0x24 DUP3 ADD MSTORE PUSH32 0x4F776E61626C653A206E6577206F776E657220697320746865207A65726F2061 PUSH1 0x44 DUP3 ADD MSTORE PUSH6 0x646472657373 PUSH1 0xD0 SHL PUSH1 0x64 DUP3 ADD MSTORE REVERT JUMPDEST DUP3 DUP1 REVERT JUMPDEST POP POP CALLVALUE PUSH2 0x1B7 JUMPI DUP2 PUSH1 0x3 NOT CALLDATASIZE ADD SLT PUSH2 0x1B7 JUMPI MLOAD PUSH32 0x0 PUSH1 0x1 PUSH1 0x1 PUSH1 0xA0 SHL SUB AND DUP2 MSTORE PUSH1 0x20 SWAP1 RETURN JUMPDEST POP DUP1 REVERT JUMPDEST POP SWAP1 CALLVALUE PUSH2 0x16F JUMPI PUSH1 0x20 CALLDATASIZE PUSH1 0x3 NOT ADD SLT PUSH2 0x16F JUMPI DUP3 PUSH2 0x1D7 PUSH2 0x121F JUMP JUMPDEST DUP3 MLOAD PUSH4 0x85A34393 PUSH1 0xE0 SHL DUP2 MSTORE PUSH1 0x1 PUSH1 0x1 PUSH1 0xA0 SHL SUB SWAP2 DUP3 AND SWAP5 DUP2 ADD SWAP5 SWAP1 SWAP5 MSTORE DUP4 SWAP1 PUSH1 0x24 SWAP1 DUP3 SWAP1 PUSH32 0x0 AND GAS STATICCALL SWAP2 DUP3 ISZERO PUSH2 0x267 JUMPI DUP4 PUSH2 0x23E SWAP5 SWAP4 PUSH2 0x242 JUMPI JUMPDEST POP POP MLOAD SWAP2 DUP3 SWAP2 DUP3 PUSH2 0x12F8 JUMP JUMPDEST SUB SWAP1 RETURN JUMPDEST PUSH2 0x25F SWAP3 SWAP4 POP RETURNDATASIZE DUP1 SWAP2 DUP4 RETURNDATACOPY PUSH2 0x257 DUP2 DUP4 PUSH2 0x1277 JUMP JUMPDEST DUP2 ADD SWAP1 PUSH2 0x153D JUMP JUMPDEST SWAP1 PUSH0 DUP1 PUSH2 0x232 JUMP JUMPDEST DUP2 MLOAD RETURNDATASIZE DUP6 DUP3 RETURNDATACOPY RETURNDATASIZE SWAP1 REVERT JUMPDEST POP DUP3 SWAP1 CALLVALUE PUSH2 0x1B7 JUMPI PUSH1 0x20 SWAP2 DUP3 PUSH1 0x3 NOT CALLDATASIZE ADD SLT PUSH2 0x365 JUMPI DUP4 MLOAD PUSH4 0x46A4237B PUSH1 0xE0 SHL DUP2 MSTORE DUP3 CALLDATALOAD SWAP3 DUP2 ADD SWAP3 SWAP1 SWAP3 MSTORE DUP1 DUP3 PUSH1 0x24 DUP2 PUSH32 0x0 PUSH1 0x1 PUSH1 0x1 PUSH1 0xA0 SHL SUB AND GAS STATICCALL SWAP2 DUP3 ISZERO PUSH2 0x359 JUMPI DUP2 SWAP3 PUSH2 0x335 JUMPI JUMPDEST POP DUP4 MLOAD SWAP3 DUP1 DUP5 ADD SWAP1 DUP1 DUP6 MSTORE DUP4 MLOAD DUP1 SWAP3 MSTORE DUP1 DUP7 DUP7 ADD SWAP7 DUP4 PUSH1 0x5 SHL DUP8 ADD ADD SWAP5 ADD SWAP3 SWAP6 JUMPDEST DUP3 DUP8 LT PUSH2 0x309 JUMPI DUP6 DUP6 SUB DUP7 RETURN JUMPDEST SWAP1 SWAP2 SWAP3 SWAP4 DUP3 DUP1 PUSH2 0x325 PUSH1 0x1 SWAP4 PUSH1 0x3F NOT DUP11 DUP3 SUB ADD DUP7 MSTORE DUP9 MLOAD PUSH2 0x1386 JUMP JUMPDEST SWAP7 ADD SWAP3 ADD SWAP7 ADD SWAP6 SWAP3 SWAP2 SWAP1 SWAP3 PUSH2 0x2FC JUMP JUMPDEST PUSH2 0x352 SWAP2 SWAP3 POP RETURNDATASIZE DUP1 DUP5 DUP4 RETURNDATACOPY PUSH2 0x34A DUP2 DUP4 PUSH2 0x1277 JUMP JUMPDEST DUP2 ADD SWAP1 PUSH2 0x1685 JUMP JUMPDEST SWAP1 DUP5 PUSH2 0x2DB JUMP JUMPDEST POP DUP4 MLOAD SWAP1 RETURNDATASIZE SWAP1 DUP3 RETURNDATACOPY RETURNDATASIZE SWAP1 REVERT JUMPDEST DUP1 REVERT JUMPDEST POP POP CALLVALUE PUSH2 0x1B7 JUMPI DUP2 PUSH1 0x3 NOT CALLDATASIZE ADD SLT PUSH2 0x1B7 JUMPI SWAP1 SLOAD SWAP1 MLOAD PUSH1 0x1 PUSH1 0x1 PUSH1 0xA0 SHL SUB SWAP1 SWAP2 AND DUP2 MSTORE PUSH1 0x20 SWAP1 RETURN JUMPDEST POP SWAP1 PUSH1 0x20 SWAP1 DUP2 PUSH1 0x3 NOT CALLDATASIZE ADD SLT PUSH2 0x7FF JUMPI DUP3 CALLDATALOAD PUSH2 0x3AA PUSH2 0x17D1 JUMP JUMPDEST DUP2 MLOAD PUSH4 0x2E76C56D PUSH1 0xE2 SHL DUP2 MSTORE DUP5 DUP2 ADD DUP3 SWAP1 MSTORE PUSH1 0x1 PUSH1 0x1 PUSH1 0xA0 SHL SUB PUSH32 0x0 DUP2 AND SWAP3 SWAP1 DUP8 DUP4 PUSH1 0x24 DUP2 DUP8 GAS STATICCALL SWAP3 DUP4 ISZERO PUSH2 0x951 JUMPI DUP9 SWAP4 PUSH2 0x92D JUMPI JUMPDEST POP DUP5 MLOAD PUSH4 0x2BD57B59 PUSH1 0xE2 SHL DUP2 MSTORE DUP8 DUP2 ADD DUP4 SWAP1 MSTORE DUP7 DUP2 PUSH1 0x24 DUP2 DUP9 GAS STATICCALL DUP1 ISZERO PUSH2 0x7AE JUMPI DUP10 SWAP1 PUSH2 0x8F3 JUMPI JUMPDEST PUSH2 0x431 SWAP2 POP PUSH2 0x1640 JUMP JUMPDEST PUSH2 0x120 DUP4 ADD MLOAD PUSH2 0x8BE JUMPI PUSH1 0xE0 DUP4 ADD SWAP3 DUP4 MLOAD ISZERO PUSH2 0x88C JUMPI PUSH1 0xC0 DUP2 ADD DUP1 MLOAD CALLVALUE LT PUSH2 0x852 JUMPI DUP8 DUP3 ADD SWAP5 DUP4 DUP7 MLOAD AND CALLER EQ PUSH2 0x816 JUMPI DUP1 MLOAD DUP1 ISZERO PUSH2 0x803 JUMPI PUSH0 NOT ADD DUP2 MSTORE DUP11 SWAP3 SWAP2 SWAP1 DUP8 EXTCODESIZE ISZERO PUSH2 0x7FF JUMPI DUP11 DUP5 SWAP3 PUSH2 0x120 DUP10 SWAP6 DUP10 SWAP5 PUSH2 0x4FA PUSH2 0x4C9 DUP16 DUP13 DUP2 MLOAD SWAP12 DUP13 SWAP11 DUP12 SWAP11 PUSH4 0x6AD0CB9 PUSH1 0xE0 SHL DUP13 MSTORE DUP12 ADD MSTORE DUP3 PUSH1 0x24 DUP12 ADD MSTORE DUP7 MLOAD PUSH1 0x44 DUP12 ADD MSTORE MLOAD AND PUSH1 0x64 DUP10 ADD MSTORE DUP5 ADD MLOAD PUSH2 0x140 PUSH1 0x84 DUP10 ADD MSTORE PUSH2 0x184 DUP9 ADD SWAP1 PUSH2 0x1361 JUMP JUMPDEST PUSH2 0x4E5 PUSH1 0x60 DUP6 ADD MLOAD SWAP2 PUSH1 0x43 NOT SWAP3 DUP4 DUP11 DUP4 SUB ADD PUSH1 0xA4 DUP12 ADD MSTORE PUSH2 0x1361 JUMP JUMPDEST SWAP1 PUSH1 0x80 DUP6 ADD MLOAD SWAP1 DUP9 DUP4 SUB ADD PUSH1 0xC4 DUP10 ADD MSTORE PUSH2 0x1361 JUMP JUMPDEST SWAP4 PUSH1 0xA0 DUP4 ADD MLOAD PUSH1 0xE4 DUP8 ADD MSTORE MLOAD PUSH2 0x104 DUP7 ADD MSTORE MLOAD PUSH2 0x124 DUP6 ADD MSTORE PUSH2 0x100 DUP2 ADD MLOAD PUSH2 0x144 DUP6 ADD MSTORE ADD MLOAD ISZERO ISZERO PUSH2 0x164 DUP4 ADD MSTORE SUB DUP2 DUP4 DUP11 GAS CALL DUP1 ISZERO PUSH2 0x7F5 JUMPI PUSH2 0x7E1 JUMPI JUMPDEST POP POP DUP5 MLOAD PUSH4 0x865D2197 PUSH1 0xE0 SHL DUP2 MSTORE DUP7 DUP2 DUP10 DUP2 DUP13 DUP10 GAS CALL DUP1 ISZERO PUSH2 0x7AE JUMPI SWAP1 DUP8 SWAP2 PUSH2 0x7B8 JUMPI JUMPDEST POP POP DUP5 MLOAD PUSH4 0x700F7B73 PUSH1 0xE1 SHL DUP2 MSTORE DUP7 DUP2 DUP10 DUP2 DUP9 GAS STATICCALL SWAP1 DUP2 ISZERO PUSH2 0x7AE JUMPI DUP10 SWAP2 PUSH2 0x77D JUMPI JUMPDEST POP DUP1 CALLVALUE MUL SWAP1 CALLVALUE DUP3 DIV EQ CALLVALUE ISZERO OR ISZERO PUSH2 0x76A JUMPI PUSH1 0x64 SWAP1 DIV SWAP3 DUP4 CALLVALUE SUB CALLVALUE DUP2 GT PUSH2 0x757 JUMPI SWAP1 DUP3 SWAP2 DUP11 SWAP7 SWAP6 SWAP5 SWAP4 DUP3 MLOAD AND DUP7 EXTCODESIZE ISZERO PUSH2 0x73F JUMPI DUP8 SWAP1 DUP12 PUSH2 0x5D1 DUP12 MLOAD SWAP5 DUP6 SWAP4 DUP5 SWAP4 PUSH4 0x7C115ED PUSH1 0xE0 SHL DUP6 MSTORE DUP5 ADD PUSH2 0x1787 JUMP JUMPDEST SUB DUP2 DUP4 DUP11 GAS CALL DUP1 ISZERO PUSH2 0x735 JUMPI SWAP1 DUP8 SWAP2 PUSH2 0x743 JUMPI JUMPDEST POP POP DUP2 DUP2 MLOAD AND DUP8 MLOAD SWAP1 PUSH2 0x5F7 DUP3 PUSH2 0x1235 JUMP JUMPDEST DUP5 DUP3 MSTORE CALLER DUP11 DUP4 ADD MSTORE DUP9 DUP3 ADD MSTORE CALLVALUE PUSH1 0x60 DUP3 ADD MSTORE TIMESTAMP PUSH1 0x80 DUP3 ADD MSTORE DUP7 PUSH1 0xA0 DUP3 ADD MSTORE DUP3 DUP3 MLOAD AND SWAP1 DUP7 EXTCODESIZE ISZERO PUSH2 0x73F JUMPI PUSH2 0x646 SWAP1 DUP10 MLOAD SWAP3 PUSH4 0x75573AB1 PUSH1 0xE1 SHL DUP5 MSTORE CALLER DUP14 DUP6 ADD MSTORE PUSH1 0x24 DUP5 ADD MSTORE PUSH1 0x44 DUP4 ADD SWAP1 PUSH2 0x12B5 JUMP JUMPDEST DUP7 DUP2 PUSH2 0x104 DUP2 DUP4 DUP11 GAS CALL DUP1 ISZERO PUSH2 0x735 JUMPI SWAP1 DUP8 SWAP2 PUSH2 0x71D JUMPI JUMPDEST POP POP MLOAD AND SWAP1 DUP6 MLOAD SWAP1 DUP3 CALLER DUP3 PUSH32 0x405B8E92032184041314DCDDF305E0D97D13B103D3FA162EB2B1C760760BDC0A DUP10 DUP1 LOG4 CALLVALUE DUP3 MSTORE TIMESTAMP DUP9 DUP4 ADD MSTORE PUSH32 0x8FA4FB19835ECD208875D6EA2F7A57043C7A8DD31EC76D5BF7063073DFEC264B DUP8 CALLER SWAP4 LOG4 DUP1 PUSH2 0x6C8 JUMPI JUMPDEST DUP3 PUSH1 0x1 DUP1 SSTORE DUP1 RETURN JUMPDEST DUP3 DUP1 SWAP3 SWAP2 DUP2 SWAP3 GAS CALL PUSH2 0x6D8 PUSH2 0x17A2 JUMP JUMPDEST POP ISZERO PUSH2 0x6E6 JUMPI DUP4 DUP2 DUP1 PUSH2 0x6C0 JUMP JUMPDEST MLOAD PUSH3 0x461BCD PUSH1 0xE5 SHL DUP2 MSTORE SWAP2 DUP3 ADD MSTORE PUSH1 0x13 PUSH1 0x24 DUP3 ADD MSTORE PUSH19 0x119959481D1C985B9CD9995C8819985A5B1959 PUSH1 0x6A SHL PUSH1 0x44 DUP3 ADD MSTORE PUSH1 0x64 SWAP2 POP REVERT JUMPDEST PUSH2 0x726 SWAP1 PUSH2 0x1264 JUMP JUMPDEST PUSH2 0x731 JUMPI DUP6 PUSH0 PUSH2 0x65E JUMP JUMPDEST DUP6 DUP1 REVERT JUMPDEST DUP9 MLOAD RETURNDATASIZE DUP10 DUP3 RETURNDATACOPY RETURNDATASIZE SWAP1 REVERT JUMPDEST DUP8 DUP1 REVERT JUMPDEST PUSH2 0x74C SWAP1 PUSH2 0x1264 JUMP JUMPDEST PUSH2 0x731 JUMPI DUP6 PUSH0 PUSH2 0x5E5 JUMP JUMPDEST PUSH4 0x4E487B71 PUSH1 0xE0 SHL DUP11 MSTORE PUSH1 0x11 DUP10 MSTORE PUSH1 0x24 DUP11 REVERT JUMPDEST PUSH4 0x4E487B71 PUSH1 0xE0 SHL DUP10 MSTORE PUSH1 0x11 DUP9 MSTORE PUSH1 0x24 DUP10 REVERT JUMPDEST SWAP1 POP DUP7 DUP2 DUP2 RETURNDATASIZE DUP4 GT PUSH2 0x7A7 JUMPI JUMPDEST PUSH2 0x794 DUP2 DUP4 PUSH2 0x1277 JUMP JUMPDEST DUP2 ADD SUB SLT PUSH2 0x7A3 JUMPI MLOAD PUSH0 PUSH2 0x581 JUMP JUMPDEST PUSH0 DUP1 REVERT JUMPDEST POP RETURNDATASIZE PUSH2 0x78A JUMP JUMPDEST DUP7 MLOAD RETURNDATASIZE DUP12 DUP3 RETURNDATACOPY RETURNDATASIZE SWAP1 REVERT JUMPDEST DUP2 RETURNDATASIZE DUP4 GT PUSH2 0x7DA JUMPI JUMPDEST PUSH2 0x7CB DUP2 DUP4 PUSH2 0x1277 JUMP JUMPDEST DUP2 ADD SUB SLT PUSH2 0x7A3 JUMPI DUP6 PUSH0 PUSH2 0x55E JUMP JUMPDEST POP RETURNDATASIZE PUSH2 0x7C1 JUMP JUMPDEST PUSH2 0x7EA SWAP1 PUSH2 0x1264 JUMP JUMPDEST PUSH2 0x73F JUMPI DUP8 PUSH0 PUSH2 0x53A JUMP JUMPDEST DUP8 MLOAD RETURNDATASIZE DUP5 DUP3 RETURNDATACOPY RETURNDATASIZE SWAP1 REVERT JUMPDEST DUP4 DUP1 REVERT JUMPDEST PUSH4 0x4E487B71 PUSH1 0xE0 SHL DUP13 MSTORE PUSH1 0x11 DUP12 MSTORE PUSH1 0x24 DUP13 REVERT JUMPDEST DUP8 MLOAD PUSH3 0x461BCD PUSH1 0xE5 SHL DUP2 MSTORE DUP1 DUP12 ADD DUP11 SWAP1 MSTORE PUSH1 0x16 PUSH1 0x24 DUP3 ADD MSTORE PUSH22 0x10D85B9B9BDD08189D5E481BDDDB881C1C9BD91D58DD PUSH1 0x52 SHL PUSH1 0x44 DUP3 ADD MSTORE PUSH1 0x64 SWAP1 REVERT JUMPDEST DUP7 MLOAD PUSH3 0x461BCD PUSH1 0xE5 SHL DUP2 MSTORE DUP1 DUP11 ADD DUP10 SWAP1 MSTORE PUSH1 0x14 PUSH1 0x24 DUP3 ADD MSTORE PUSH20 0x125B9CDD59999A58DA595B9D081C185E5B595B9D PUSH1 0x62 SHL PUSH1 0x44 DUP3 ADD MSTORE PUSH1 0x64 SWAP1 REVERT JUMPDEST DUP6 MLOAD PUSH3 0x461BCD PUSH1 0xE5 SHL DUP2 MSTORE DUP1 DUP10 ADD DUP9 SWAP1 MSTORE PUSH1 0xC PUSH1 0x24 DUP3 ADD MSTORE PUSH12 0x4F7574206F662073746F636B PUSH1 0xA0 SHL PUSH1 0x44 DUP3 ADD MSTORE PUSH1 0x64 SWAP1 REVERT JUMPDEST DUP5 MLOAD PUSH3 0x461BCD PUSH1 0xE5 SHL DUP2 MSTORE DUP1 DUP9 ADD DUP8 SWAP1 MSTORE PUSH1 0xF PUSH1 0x24 DUP3 ADD MSTORE PUSH15 0x141C9BD91D58DD0819195B195D1959 PUSH1 0x8A SHL PUSH1 0x44 DUP3 ADD MSTORE PUSH1 0x64 SWAP1 REVERT JUMPDEST POP DUP7 DUP2 DUP2 RETURNDATASIZE DUP4 GT PUSH2 0x926 JUMPI JUMPDEST PUSH2 0x909 DUP2 DUP4 PUSH2 0x1277 JUMP JUMPDEST DUP2 ADD SUB SLT PUSH2 0x922 JUMPI PUSH2 0x91D PUSH2 0x431 SWAP2 PUSH2 0x1431 JUMP JUMPDEST PUSH2 0x427 JUMP JUMPDEST DUP9 DUP1 REVERT JUMPDEST POP RETURNDATASIZE PUSH2 0x8FF JUMP JUMPDEST PUSH2 0x94A SWAP2 SWAP4 POP RETURNDATASIZE DUP1 DUP11 DUP4 RETURNDATACOPY PUSH2 0x942 DUP2 DUP4 PUSH2 0x1277 JUMP JUMPDEST DUP2 ADD SWAP1 PUSH2 0x143E JUMP JUMPDEST SWAP2 PUSH0 PUSH2 0x3FF JUMP JUMPDEST DUP6 MLOAD RETURNDATASIZE DUP11 DUP3 RETURNDATACOPY RETURNDATASIZE SWAP1 REVERT JUMPDEST DUP4 CALLVALUE PUSH2 0x365 JUMPI DUP1 PUSH1 0x3 NOT CALLDATASIZE ADD SLT PUSH2 0x365 JUMPI PUSH2 0x974 PUSH2 0x1827 JUMP JUMPDEST PUSH0 DUP1 SLOAD PUSH1 0x1 PUSH1 0x1 PUSH1 0xA0 SHL SUB NOT DUP2 AND DUP3 SSTORE PUSH1 0x1 PUSH1 0x1 PUSH1 0xA0 SHL SUB AND PUSH0 DUP1 MLOAD PUSH1 0x20 PUSH2 0x189F DUP4 CODECOPY DUP2 MLOAD SWAP2 MSTORE DUP3 DUP1 LOG3 DUP1 RETURN JUMPDEST POP SWAP1 CALLVALUE PUSH2 0x16F JUMPI DUP3 PUSH1 0x3 NOT CALLDATASIZE ADD SLT PUSH2 0x16F JUMPI PUSH2 0x9BB PUSH2 0x17D1 JUMP JUMPDEST DUP1 MLOAD PUSH4 0x181FAD39 PUSH1 0xE2 SHL DUP2 MSTORE CALLER DUP4 DUP3 ADD MSTORE SWAP2 PUSH1 0x20 SWAP2 SWAP1 PUSH32 0x0 PUSH1 0x1 PUSH1 0x1 PUSH1 0xA0 SHL SUB AND DUP4 DUP6 PUSH1 0x24 DUP2 DUP5 GAS STATICCALL SWAP5 DUP6 ISZERO PUSH2 0xB58 JUMPI DUP7 SWAP6 PUSH2 0xB29 JUMPI JUMPDEST POP DUP5 ISZERO PUSH2 0xAEE JUMPI DUP1 DUP7 SWAP2 EXTCODESIZE ISZERO PUSH2 0x1B7 JUMPI DUP2 DUP5 MLOAD DUP1 SWAP3 PUSH4 0x6405DD45 PUSH1 0xE1 SHL DUP3 MSTORE DUP2 DUP4 DUP2 PUSH2 0xA40 DUP13 CALLER DUP12 DUP5 ADD PUSH2 0x1787 JUMP JUMPDEST SUB SWAP3 GAS CALL DUP1 ISZERO PUSH2 0xAE4 JUMPI PUSH2 0xACC JUMPI JUMPDEST POP DUP1 DUP1 DUP1 DUP8 CALLER GAS CALL PUSH2 0xA5F PUSH2 0x17A2 JUMP JUMPDEST POP ISZERO PUSH2 0xA97 JUMPI POP SWAP1 PUSH32 0xDDC398B321237A8D40AC914388309C2F52A08C134E4DC4CE61E32F57CB7D80F1 SWAP2 MLOAD SWAP3 DUP4 MSTORE CALLER SWAP3 LOG2 PUSH1 0x1 DUP1 SSTORE DUP1 RETURN JUMPDEST DUP3 PUSH1 0x64 SWAP3 MLOAD SWAP2 PUSH3 0x461BCD PUSH1 0xE5 SHL DUP4 MSTORE DUP3 ADD MSTORE PUSH1 0x11 PUSH1 0x24 DUP3 ADD MSTORE PUSH17 0x15DA5D1A191C985DD85B0819985A5B1959 PUSH1 0x7A SHL PUSH1 0x44 DUP3 ADD MSTORE REVERT JUMPDEST PUSH2 0xAD5 SWAP1 PUSH2 0x1264 JUMP JUMPDEST PUSH2 0xAE0 JUMPI DUP5 PUSH0 PUSH2 0xA4F JUMP JUMPDEST DUP5 DUP1 REVERT JUMPDEST DUP5 MLOAD RETURNDATASIZE DUP5 DUP3 RETURNDATACOPY RETURNDATASIZE SWAP1 REVERT JUMPDEST POP DUP3 PUSH1 0x64 SWAP3 MLOAD SWAP2 PUSH3 0x461BCD PUSH1 0xE5 SHL DUP4 MSTORE DUP3 ADD MSTORE PUSH1 0x16 PUSH1 0x24 DUP3 ADD MSTORE PUSH22 0x4E6F2062616C616E636520746F207769746864726177 PUSH1 0x50 SHL PUSH1 0x44 DUP3 ADD MSTORE REVERT JUMPDEST SWAP1 SWAP5 POP DUP4 DUP2 DUP2 RETURNDATASIZE DUP4 GT PUSH2 0xB51 JUMPI JUMPDEST PUSH2 0xB41 DUP2 DUP4 PUSH2 0x1277 JUMP JUMPDEST DUP2 ADD SUB SLT PUSH2 0x7A3 JUMPI MLOAD SWAP4 PUSH0 PUSH2 0xA11 JUMP JUMPDEST POP RETURNDATASIZE PUSH2 0xB37 JUMP JUMPDEST DUP4 MLOAD RETURNDATASIZE DUP9 DUP3 RETURNDATACOPY RETURNDATASIZE SWAP1 REVERT JUMPDEST POP SWAP1 CALLVALUE PUSH2 0x16F JUMPI PUSH1 0x20 CALLDATASIZE PUSH1 0x3 NOT ADD SLT PUSH2 0x16F JUMPI DUP3 PUSH2 0xB7E PUSH2 0x121F JUMP JUMPDEST DUP3 MLOAD PUSH4 0xC258F531 PUSH1 0xE0 SHL DUP2 MSTORE PUSH1 0x1 PUSH1 0x1 PUSH1 0xA0 SHL SUB SWAP2 DUP3 AND SWAP5 DUP2 ADD SWAP5 SWAP1 SWAP5 MSTORE DUP4 SWAP1 PUSH1 0x24 SWAP1 DUP3 SWAP1 PUSH32 0x0 AND GAS STATICCALL SWAP2 DUP3 ISZERO PUSH2 0x267 JUMPI DUP4 PUSH2 0x23E SWAP5 SWAP4 PUSH2 0x242 JUMPI POP POP MLOAD SWAP2 DUP3 SWAP2 DUP3 PUSH2 0x12F8 JUMP JUMPDEST POP SWAP1 CALLVALUE PUSH2 0x16F JUMPI DUP1 PUSH1 0x3 NOT CALLDATASIZE ADD SLT PUSH2 0x16F JUMPI DUP2 CALLDATALOAD PUSH1 0x24 CALLDATALOAD SWAP2 PUSH1 0x1 DUP1 PUSH1 0xA0 SHL SUB SWAP4 DUP3 DUP3 MLOAD SWAP2 PUSH4 0x46A4237B PUSH1 0xE0 SHL DUP4 MSTORE DUP3 ADD MSTORE DUP6 DUP2 PUSH1 0x24 DUP2 DUP9 PUSH32 0x0 AND GAS STATICCALL SWAP2 DUP3 ISZERO PUSH2 0xCFD JUMPI POP DUP6 SWAP2 PUSH2 0xCE3 JUMPI JUMPDEST POP DUP5 JUMPDEST DUP2 MLOAD DUP2 LT ISZERO PUSH2 0xCDB JUMPI DUP4 PUSH2 0xC65 DUP3 DUP5 PUSH2 0x1618 JUMP JUMPDEST MLOAD MLOAD EQ DUP1 PUSH2 0xCB6 JUMPI JUMPDEST PUSH2 0xC7A JUMPI PUSH1 0x1 ADD PUSH2 0xC51 JUMP JUMPDEST PUSH1 0x1 SWAP3 SWAP4 SWAP5 POP PUSH2 0xC8C SWAP1 PUSH1 0x80 SWAP3 PUSH2 0x1618 JUMP JUMPDEST MLOAD ADD MSTORE PUSH32 0xFE09911B3EC9652EF94A11286713BD397F2FB090F28C62303451D8040FF62C62 DUP4 DUP1 LOG3 DUP1 RETURN JUMPDEST POP DUP5 PUSH1 0x20 PUSH2 0xCC4 DUP4 DUP6 PUSH2 0x1618 JUMP JUMPDEST MLOAD ADD MLOAD AND CALLER EQ DUP1 PUSH2 0xC6E JUMPI POP DUP5 DUP7 SLOAD AND CALLER EQ PUSH2 0xC6E JUMP JUMPDEST POP POP POP POP POP DUP1 RETURN JUMPDEST PUSH2 0xCF7 SWAP2 POP RETURNDATASIZE DUP1 DUP8 DUP4 RETURNDATACOPY PUSH2 0x34A DUP2 DUP4 PUSH2 0x1277 JUMP JUMPDEST PUSH0 PUSH2 0xC4E JUMP JUMPDEST MLOAD RETURNDATASIZE DUP8 DUP3 RETURNDATACOPY RETURNDATASIZE SWAP1 REVERT JUMPDEST POP SWAP2 SWAP1 CALLVALUE PUSH2 0x1B7 JUMPI PUSH1 0x20 SWAP3 DUP4 PUSH1 0x3 NOT CALLDATASIZE ADD SLT PUSH2 0x16F JUMPI DUP4 PUSH2 0xD25 PUSH2 0x121F JUMP JUMPDEST DUP4 MLOAD PUSH4 0x181FAD39 PUSH1 0xE2 SHL DUP2 MSTORE PUSH1 0x1 PUSH1 0x1 PUSH1 0xA0 SHL SUB SWAP2 DUP3 AND SWAP4 DUP2 ADD SWAP4 SWAP1 SWAP4 MSTORE DUP3 SWAP1 PUSH1 0x24 SWAP1 DUP3 SWAP1 PUSH32 0x0 AND GAS STATICCALL SWAP3 DUP4 ISZERO PUSH2 0xDB1 JUMPI SWAP3 PUSH2 0xD82 JUMPI JUMPDEST POP MLOAD SWAP1 DUP2 MSTORE RETURN JUMPDEST SWAP1 SWAP2 POP DUP3 DUP2 DUP2 RETURNDATASIZE DUP4 GT PUSH2 0xDAA JUMPI JUMPDEST PUSH2 0xD9A DUP2 DUP4 PUSH2 0x1277 JUMP JUMPDEST DUP2 ADD SUB SLT PUSH2 0x7A3 JUMPI MLOAD SWAP1 PUSH0 PUSH2 0xD7B JUMP JUMPDEST POP RETURNDATASIZE PUSH2 0xD90 JUMP JUMPDEST DUP3 MLOAD SWAP1 RETURNDATASIZE SWAP1 DUP3 RETURNDATACOPY RETURNDATASIZE SWAP1 REVERT JUMPDEST POP SWAP1 CALLVALUE PUSH2 0x7A3 JUMPI PUSH1 0x60 CALLDATASIZE PUSH1 0x3 NOT ADD SLT PUSH2 0x7A3 JUMPI PUSH1 0x24 DUP1 CALLDATALOAD SWAP3 DUP1 CALLDATALOAD SWAP3 PUSH1 0x44 CALLDATALOAD SWAP3 SWAP1 SWAP2 SWAP1 PUSH1 0x1 PUSH1 0x1 PUSH1 0x40 SHL SUB DUP5 GT PUSH2 0x7A3 JUMPI CALLDATASIZE PUSH1 0x23 DUP6 ADD SLT ISZERO PUSH2 0x7A3 JUMPI DUP4 DUP3 ADD CALLDATALOAD SWAP1 PUSH2 0xE05 DUP3 PUSH2 0x129A JUMP JUMPDEST SWAP2 PUSH2 0xE12 DUP6 MLOAD SWAP4 DUP5 PUSH2 0x1277 JUMP JUMPDEST DUP1 DUP4 MSTORE PUSH1 0x20 SWAP6 CALLDATASIZE DUP4 DUP4 DUP4 ADD ADD GT PUSH2 0x7A3 JUMPI DUP2 PUSH0 SWAP3 DUP5 DUP10 SWAP4 ADD DUP4 DUP8 ADD CALLDATACOPY DUP5 ADD ADD MSTORE DUP4 MLOAD PUSH4 0x2BD57B59 PUSH1 0xE2 SHL DUP2 MSTORE DUP4 DUP2 ADD DUP8 SWAP1 MSTORE PUSH32 0x0 PUSH1 0x1 PUSH1 0x1 PUSH1 0xA0 SHL SUB AND SWAP1 DUP7 DUP2 DUP5 DUP2 DUP6 GAS STATICCALL DUP1 ISZERO PUSH2 0xFA4 JUMPI PUSH0 SWAP1 PUSH2 0xFF0 JUMPI JUMPDEST PUSH2 0xE8D SWAP2 POP PUSH2 0x1640 JUMP JUMPDEST PUSH1 0x1 DUP9 LT ISZERO DUP1 PUSH2 0xFE5 JUMPI JUMPDEST ISZERO PUSH2 0xFAE JUMPI DUP5 MLOAD PUSH4 0x2FB1C6B1 PUSH1 0xE1 SHL DUP2 MSTORE SWAP3 DUP7 DUP5 DUP7 DUP2 PUSH0 DUP7 GAS CALL SWAP4 DUP5 ISZERO PUSH2 0xFA4 JUMPI PUSH0 SWAP5 PUSH2 0xF75 JUMPI JUMPDEST POP DUP6 MLOAD SWAP4 PUSH2 0xECD DUP6 PUSH2 0x1235 JUMP JUMPDEST DUP5 MSTORE CALLER DUP8 DUP6 ADD MSTORE DUP9 DUP7 DUP6 ADD MSTORE PUSH1 0x60 DUP5 ADD MSTORE PUSH0 PUSH1 0x80 DUP5 ADD MSTORE TIMESTAMP PUSH1 0xA0 DUP5 ADD MSTORE DUP1 EXTCODESIZE ISZERO PUSH2 0x7A3 JUMPI DUP7 PUSH0 DUP7 SWAP6 PUSH2 0xF1D DUP3 SWAP7 DUP9 MLOAD SWAP9 DUP10 SWAP8 DUP9 SWAP7 DUP8 SWAP6 PUSH4 0x8061BC93 PUSH1 0xE0 SHL DUP8 MSTORE DUP7 ADD MSTORE DUP5 ADD MSTORE PUSH1 0x44 DUP4 ADD SWAP1 PUSH2 0x1386 JUMP JUMPDEST SUB SWAP3 GAS CALL DUP1 ISZERO PUSH2 0xF6B JUMPI PUSH2 0xF47 JUMPI JUMPDEST POP SWAP1 PUSH0 DUP1 MLOAD PUSH1 0x20 PUSH2 0x187F DUP4 CODECOPY DUP2 MLOAD SWAP2 MSTORE SWAP2 MLOAD SWAP4 DUP5 MSTORE CALLER SWAP4 LOG3 DUP1 RETURN JUMPDEST PUSH0 DUP1 MLOAD PUSH1 0x20 PUSH2 0x187F DUP4 CODECOPY DUP2 MLOAD SWAP2 MSTORE SWAP3 SWAP2 SWAP6 POP PUSH2 0xF62 SWAP1 PUSH2 0x1264 JUMP JUMPDEST PUSH0 SWAP5 SWAP1 SWAP2 PUSH2 0xF2C JUMP JUMPDEST DUP3 MLOAD RETURNDATASIZE PUSH0 DUP3 RETURNDATACOPY RETURNDATASIZE SWAP1 REVERT JUMPDEST SWAP1 SWAP4 POP DUP7 DUP2 DUP2 RETURNDATASIZE DUP4 GT PUSH2 0xF9D JUMPI JUMPDEST PUSH2 0xF8D DUP2 DUP4 PUSH2 0x1277 JUMP JUMPDEST DUP2 ADD SUB SLT PUSH2 0x7A3 JUMPI MLOAD SWAP3 PUSH0 PUSH2 0xEC0 JUMP JUMPDEST POP RETURNDATASIZE PUSH2 0xF83 JUMP JUMPDEST DUP7 MLOAD RETURNDATASIZE PUSH0 DUP3 RETURNDATACOPY RETURNDATASIZE SWAP1 REVERT JUMPDEST DUP5 MLOAD PUSH3 0x461BCD PUSH1 0xE5 SHL DUP2 MSTORE DUP1 DUP6 ADD DUP8 SWAP1 MSTORE PUSH1 0x12 DUP2 DUP5 ADD MSTORE PUSH18 0x526174696E67206D75737420626520312D35 PUSH1 0x70 SHL PUSH1 0x44 DUP3 ADD MSTORE PUSH1 0x64 SWAP1 REVERT JUMPDEST POP PUSH1 0x5 DUP9 GT ISZERO PUSH2 0xE98 JUMP JUMPDEST POP DUP7 DUP2 DUP2 RETURNDATASIZE DUP4 GT PUSH2 0x101F JUMPI JUMPDEST PUSH2 0x1006 DUP2 DUP4 PUSH2 0x1277 JUMP JUMPDEST DUP2 ADD SUB SLT PUSH2 0x7A3 JUMPI PUSH2 0x101A PUSH2 0xE8D SWAP2 PUSH2 0x1431 JUMP JUMPDEST PUSH2 0xE83 JUMP JUMPDEST POP RETURNDATASIZE PUSH2 0xFFC JUMP JUMPDEST DUP3 CALLVALUE PUSH2 0x7A3 JUMPI PUSH0 CALLDATASIZE PUSH1 0x3 NOT ADD SLT PUSH2 0x7A3 JUMPI MLOAD PUSH32 0x0 PUSH1 0x1 PUSH1 0x1 PUSH1 0xA0 SHL SUB AND DUP2 MSTORE PUSH1 0x20 SWAP1 RETURN JUMPDEST DUP4 SWAP2 POP CALLVALUE PUSH2 0x7A3 JUMPI DUP2 PUSH1 0x3 NOT CALLDATASIZE ADD SLT PUSH2 0x7A3 JUMPI PUSH1 0x24 CALLDATALOAD PUSH1 0x1 PUSH1 0x1 PUSH1 0xA0 SHL SUB DUP2 DUP2 AND SWAP5 DUP1 CALLDATALOAD SWAP4 SWAP3 DUP7 SWAP1 SUB PUSH2 0x7A3 JUMPI PUSH4 0x2E76C56D PUSH1 0xE2 SHL DUP4 MSTORE DUP1 DUP4 ADD DUP5 SWAP1 MSTORE PUSH32 0x0 DUP3 AND SWAP3 PUSH0 DUP2 PUSH1 0x24 DUP2 DUP8 GAS STATICCALL SWAP1 DUP2 ISZERO PUSH2 0xFA4 JUMPI DUP4 SWAP2 PUSH1 0x20 SWAP2 PUSH0 SWAP2 PUSH2 0x1205 JUMPI JUMPDEST POP ADD MLOAD AND CALLER SUB PUSH2 0x11C2 JUMPI DUP6 PUSH1 0x24 PUSH0 SWAP3 DUP8 MLOAD SWAP6 DUP7 SWAP4 DUP5 SWAP3 PUSH4 0x85A34393 PUSH1 0xE0 SHL DUP5 MSTORE DUP4 ADD MSTORE GAS STATICCALL SWAP2 DUP3 ISZERO PUSH2 0x11B8 JUMPI PUSH0 SWAP3 PUSH2 0x119C JUMPI JUMPDEST POP PUSH0 JUMPDEST DUP3 MLOAD DUP2 LT ISZERO PUSH2 0x1192 JUMPI DUP4 PUSH2 0x112F DUP3 DUP6 PUSH2 0x1618 JUMP JUMPDEST MLOAD MLOAD EQ DUP1 PUSH2 0x117A JUMPI JUMPDEST PUSH2 0x1144 JUMPI PUSH1 0x1 ADD PUSH2 0x111B JUMP JUMPDEST SWAP2 SWAP1 POP PUSH2 0x1152 SWAP3 SWAP4 POP PUSH2 0x1618 JUMP JUMPDEST POP JUMPDEST PUSH32 0x187090B179FB7E8C2670A325AE40D84B5EF651C9293A379AC384D99257124F4E PUSH0 DUP1 LOG3 STOP JUMPDEST POP CALLER DUP3 DUP7 PUSH2 0x1188 DUP5 DUP8 PUSH2 0x1618 JUMP JUMPDEST MLOAD ADD MLOAD AND EQ PUSH2 0x1138 JUMP JUMPDEST POP POP POP SWAP1 POP PUSH2 0x1154 JUMP JUMPDEST PUSH2 0x11B1 SWAP2 SWAP3 POP RETURNDATASIZE DUP1 PUSH0 DUP4 RETURNDATACOPY PUSH2 0x257 DUP2 DUP4 PUSH2 0x1277 JUMP JUMPDEST SWAP1 DUP6 PUSH2 0x1118 JUMP JUMPDEST DUP5 MLOAD RETURNDATASIZE PUSH0 DUP3 RETURNDATACOPY RETURNDATASIZE SWAP1 REVERT JUMPDEST PUSH1 0x64 SWAP1 PUSH1 0x20 DUP7 MLOAD SWAP2 PUSH3 0x461BCD PUSH1 0xE5 SHL DUP4 MSTORE DUP3 ADD MSTORE PUSH1 0x1E PUSH1 0x24 DUP3 ADD MSTORE PUSH32 0x4F6E6C792073656C6C65722063616E206D61726B2064656C6976657265640000 PUSH1 0x44 DUP3 ADD MSTORE REVERT JUMPDEST PUSH2 0x1219 SWAP2 POP RETURNDATASIZE DUP1 PUSH0 DUP4 RETURNDATACOPY PUSH2 0x942 DUP2 DUP4 PUSH2 0x1277 JUMP JUMPDEST DUP10 PUSH2 0x10E5 JUMP JUMPDEST PUSH1 0x4 CALLDATALOAD SWAP1 PUSH1 0x1 PUSH1 0x1 PUSH1 0xA0 SHL SUB DUP3 AND DUP3 SUB PUSH2 0x7A3 JUMPI JUMP JUMPDEST PUSH1 0xC0 DUP2 ADD SWAP1 DUP2 LT PUSH1 0x1 PUSH1 0x1 PUSH1 0x40 SHL SUB DUP3 GT OR PUSH2 0x1250 JUMPI PUSH1 0x40 MSTORE JUMP JUMPDEST PUSH4 0x4E487B71 PUSH1 0xE0 SHL PUSH0 MSTORE PUSH1 0x41 PUSH1 0x4 MSTORE PUSH1 0x24 PUSH0 REVERT JUMPDEST PUSH1 0x1 PUSH1 0x1 PUSH1 0x40 SHL SUB DUP2 GT PUSH2 0x1250 JUMPI PUSH1 0x40 MSTORE JUMP JUMPDEST PUSH1 0x1F SWAP1 SWAP2 ADD PUSH1 0x1F NOT AND DUP2 ADD SWAP1 PUSH1 0x1 PUSH1 0x1 PUSH1 0x40 SHL SUB DUP3 GT SWAP1 DUP3 LT OR PUSH2 0x1250 JUMPI PUSH1 0x40 MSTORE JUMP JUMPDEST PUSH1 0x1 PUSH1 0x1 PUSH1 0x40 SHL SUB DUP2 GT PUSH2 0x1250 JUMPI PUSH1 0x1F ADD PUSH1 0x1F NOT AND PUSH1 0x20 ADD SWAP1 JUMP JUMPDEST PUSH1 0xA0 DUP1 SWAP2 DUP1 MLOAD DUP5 MSTORE PUSH1 0x20 DUP2 ADD MLOAD PUSH1 0x1 DUP1 DUP5 SHL SUB DUP1 SWAP2 AND PUSH1 0x20 DUP7 ADD MSTORE PUSH1 0x40 DUP3 ADD MLOAD AND PUSH1 0x40 DUP6 ADD MSTORE PUSH1 0x60 DUP2 ADD MLOAD PUSH1 0x60 DUP6 ADD MSTORE PUSH1 0x80 DUP2 ADD MLOAD PUSH1 0x80 DUP6 ADD MSTORE ADD MLOAD ISZERO ISZERO SWAP2 ADD MSTORE JUMP JUMPDEST PUSH1 0x20 SWAP1 PUSH1 0x20 PUSH1 0x40 DUP2 DUP4 ADD SWAP3 DUP3 DUP2 MSTORE DUP6 MLOAD DUP1 SWAP5 MSTORE ADD SWAP4 ADD SWAP2 PUSH0 JUMPDEST DUP3 DUP2 LT PUSH2 0x131F JUMPI POP POP POP POP SWAP1 JUMP JUMPDEST SWAP1 SWAP2 SWAP3 SWAP4 DUP3 PUSH1 0xC0 DUP3 PUSH2 0x1334 PUSH1 0x1 SWAP5 DUP10 MLOAD PUSH2 0x12B5 JUMP JUMPDEST ADD SWAP6 ADD SWAP4 SWAP3 SWAP2 ADD PUSH2 0x1311 JUMP JUMPDEST PUSH0 JUMPDEST DUP4 DUP2 LT PUSH2 0x1351 JUMPI POP POP PUSH0 SWAP2 ADD MSTORE JUMP JUMPDEST DUP2 DUP2 ADD MLOAD DUP4 DUP3 ADD MSTORE PUSH1 0x20 ADD PUSH2 0x1342 JUMP JUMPDEST SWAP1 PUSH1 0x20 SWAP2 PUSH2 0x137A DUP2 MLOAD DUP1 SWAP3 DUP2 DUP6 MSTORE DUP6 DUP1 DUP7 ADD SWAP2 ADD PUSH2 0x1340 JUMP JUMPDEST PUSH1 0x1F ADD PUSH1 0x1F NOT AND ADD ADD SWAP1 JUMP JUMPDEST SWAP1 DUP2 MLOAD DUP2 MSTORE PUSH1 0x1 DUP1 PUSH1 0xA0 SHL SUB PUSH1 0x20 DUP4 ADD MLOAD AND PUSH1 0x20 DUP3 ADD MSTORE PUSH1 0x40 DUP3 ADD MLOAD PUSH1 0x40 DUP3 ADD MSTORE PUSH1 0xA0 DUP1 PUSH2 0x13C3 PUSH1 0x60 DUP6 ADD MLOAD PUSH1 0xC0 PUSH1 0x60 DUP7 ADD MSTORE PUSH1 0xC0 DUP6 ADD SWAP1 PUSH2 0x1361 JUMP JUMPDEST SWAP4 PUSH1 0x80 DUP2 ADD MLOAD ISZERO ISZERO PUSH1 0x80 DUP6 ADD MSTORE ADD MLOAD SWAP2 ADD MSTORE SWAP1 JUMP JUMPDEST MLOAD SWAP1 PUSH1 0x1 PUSH1 0x1 PUSH1 0xA0 SHL SUB DUP3 AND DUP3 SUB PUSH2 0x7A3 JUMPI JUMP JUMPDEST DUP2 PUSH1 0x1F DUP3 ADD SLT ISZERO PUSH2 0x7A3 JUMPI DUP1 MLOAD PUSH2 0x1402 DUP2 PUSH2 0x129A JUMP JUMPDEST SWAP3 PUSH2 0x1410 PUSH1 0x40 MLOAD SWAP5 DUP6 PUSH2 0x1277 JUMP JUMPDEST DUP2 DUP5 MSTORE PUSH1 0x20 DUP3 DUP5 ADD ADD GT PUSH2 0x7A3 JUMPI PUSH2 0x142E SWAP2 PUSH1 0x20 DUP1 DUP6 ADD SWAP2 ADD PUSH2 0x1340 JUMP JUMPDEST SWAP1 JUMP JUMPDEST MLOAD SWAP1 DUP2 ISZERO ISZERO DUP3 SUB PUSH2 0x7A3 JUMPI JUMP JUMPDEST PUSH1 0x20 DUP2 DUP4 SUB SLT PUSH2 0x7A3 JUMPI DUP1 MLOAD PUSH1 0x1 PUSH1 0x1 PUSH1 0x40 SHL SUB SWAP2 DUP3 DUP3 GT PUSH2 0x7A3 JUMPI ADD SWAP1 PUSH2 0x140 SWAP3 DUP4 DUP4 DUP3 SUB SLT PUSH2 0x7A3 JUMPI PUSH1 0x40 MLOAD SWAP4 DUP5 ADD DUP5 DUP2 LT DUP4 DUP3 GT OR PUSH2 0x1250 JUMPI PUSH1 0x40 MSTORE DUP3 MLOAD DUP5 MSTORE PUSH2 0x148D PUSH1 0x20 DUP5 ADD PUSH2 0x13D8 JUMP JUMPDEST PUSH1 0x20 DUP6 ADD MSTORE PUSH1 0x40 DUP4 ADD MLOAD DUP3 DUP2 GT PUSH2 0x7A3 JUMPI DUP2 PUSH2 0x14AA SWAP2 DUP6 ADD PUSH2 0x13EC JUMP JUMPDEST PUSH1 0x40 DUP6 ADD MSTORE PUSH1 0x60 DUP4 ADD MLOAD DUP3 DUP2 GT PUSH2 0x7A3 JUMPI DUP2 PUSH2 0x14C7 SWAP2 DUP6 ADD PUSH2 0x13EC JUMP JUMPDEST PUSH1 0x60 DUP6 ADD MSTORE PUSH1 0x80 DUP4 ADD MLOAD SWAP2 DUP3 GT PUSH2 0x7A3 JUMPI PUSH2 0x14E3 SWAP2 DUP4 ADD PUSH2 0x13EC JUMP JUMPDEST PUSH1 0x80 DUP4 ADD MSTORE PUSH1 0xA0 DUP2 ADD MLOAD PUSH1 0xA0 DUP4 ADD MSTORE PUSH1 0xC0 DUP2 ADD MLOAD PUSH1 0xC0 DUP4 ADD MSTORE PUSH1 0xE0 DUP2 ADD MLOAD PUSH1 0xE0 DUP4 ADD MSTORE PUSH2 0x100 DUP1 DUP3 ADD MLOAD SWAP1 DUP4 ADD MSTORE PUSH2 0x151F PUSH2 0x120 DUP1 SWAP3 ADD PUSH2 0x1431 JUMP JUMPDEST SWAP1 DUP3 ADD MSTORE SWAP1 JUMP JUMPDEST PUSH1 0x1 PUSH1 0x1 PUSH1 0x40 SHL SUB DUP2 GT PUSH2 0x1250 JUMPI PUSH1 0x5 SHL PUSH1 0x20 ADD SWAP1 JUMP JUMPDEST PUSH1 0x20 SWAP1 DUP2 DUP2 DUP5 SUB SLT PUSH2 0x7A3 JUMPI DUP1 MLOAD SWAP1 PUSH1 0x1 PUSH1 0x1 PUSH1 0x40 SHL SUB DUP3 GT PUSH2 0x7A3 JUMPI ADD DUP3 PUSH1 0x1F DUP3 ADD SLT ISZERO PUSH2 0x7A3 JUMPI DUP1 MLOAD SWAP2 PUSH2 0x1572 DUP4 PUSH2 0x1526 JUMP JUMPDEST SWAP4 PUSH1 0x40 PUSH2 0x1582 PUSH1 0x40 MLOAD SWAP7 DUP8 PUSH2 0x1277 JUMP JUMPDEST DUP5 DUP7 MSTORE DUP3 DUP7 ADD SWAP2 DUP4 PUSH1 0xC0 DUP1 SWAP8 MUL DUP7 ADD ADD SWAP5 DUP2 DUP7 GT PUSH2 0x7A3 JUMPI DUP5 ADD SWAP3 JUMPDEST DUP6 DUP5 LT PUSH2 0x15AF JUMPI POP POP POP POP POP POP POP SWAP1 JUMP JUMPDEST DUP7 DUP5 DUP4 SUB SLT PUSH2 0x7A3 JUMPI DUP5 DUP8 SWAP2 DUP5 MLOAD PUSH2 0x15C6 DUP2 PUSH2 0x1235 JUMP JUMPDEST DUP7 MLOAD DUP2 MSTORE PUSH2 0x15D5 DUP4 DUP9 ADD PUSH2 0x13D8 JUMP JUMPDEST DUP4 DUP3 ADD MSTORE PUSH2 0x15E4 DUP7 DUP9 ADD PUSH2 0x13D8 JUMP JUMPDEST DUP7 DUP3 ADD MSTORE PUSH1 0x60 DUP1 DUP9 ADD MLOAD SWAP1 DUP3 ADD MSTORE PUSH1 0x80 DUP1 DUP9 ADD MLOAD SWAP1 DUP3 ADD MSTORE PUSH1 0xA0 PUSH2 0x1609 DUP2 DUP10 ADD PUSH2 0x1431 JUMP JUMPDEST SWAP1 DUP3 ADD MSTORE DUP2 MSTORE ADD SWAP4 ADD SWAP3 PUSH2 0x159E JUMP JUMPDEST DUP1 MLOAD DUP3 LT ISZERO PUSH2 0x162C JUMPI PUSH1 0x20 SWAP2 PUSH1 0x5 SHL ADD ADD SWAP1 JUMP JUMPDEST PUSH4 0x4E487B71 PUSH1 0xE0 SHL PUSH0 MSTORE PUSH1 0x32 PUSH1 0x4 MSTORE PUSH1 0x24 PUSH0 REVERT JUMPDEST ISZERO PUSH2 0x1647 JUMPI JUMP JUMPDEST PUSH1 0x40 MLOAD PUSH3 0x461BCD PUSH1 0xE5 SHL DUP2 MSTORE PUSH1 0x20 PUSH1 0x4 DUP3 ADD MSTORE PUSH1 0x16 PUSH1 0x24 DUP3 ADD MSTORE PUSH22 0x141C9BD91D58DD08191BD95CC81B9BDD08195E1A5CDD PUSH1 0x52 SHL PUSH1 0x44 DUP3 ADD MSTORE PUSH1 0x64 SWAP1 REVERT JUMPDEST SWAP1 PUSH1 0x20 SWAP1 DUP2 DUP4 DUP3 SUB SLT PUSH2 0x7A3 JUMPI DUP3 MLOAD PUSH1 0x1 PUSH1 0x1 PUSH1 0x40 SHL SUB SWAP4 DUP5 DUP3 GT PUSH2 0x7A3 JUMPI ADD SWAP1 DUP1 PUSH1 0x1F DUP4 ADD SLT ISZERO PUSH2 0x7A3 JUMPI DUP2 MLOAD PUSH2 0x16BC DUP2 PUSH2 0x1526 JUMP JUMPDEST SWAP5 PUSH1 0x40 SWAP1 PUSH2 0x16CD PUSH1 0x40 MLOAD SWAP8 DUP9 PUSH2 0x1277 JUMP JUMPDEST DUP3 DUP8 MSTORE DUP6 DUP1 DUP9 ADD SWAP4 PUSH1 0x5 SHL DUP7 ADD ADD SWAP5 DUP5 DUP7 GT PUSH2 0x7A3 JUMPI DUP7 DUP2 ADD SWAP4 JUMPDEST DUP7 DUP6 LT PUSH2 0x16FA JUMPI POP POP POP POP POP POP POP POP SWAP1 JUMP JUMPDEST DUP5 MLOAD DUP4 DUP2 GT PUSH2 0x7A3 JUMPI DUP3 ADD PUSH1 0xC0 SWAP2 DUP3 PUSH1 0x1F NOT DUP4 DUP11 SUB ADD SLT PUSH2 0x7A3 JUMPI DUP6 MLOAD PUSH2 0x1720 DUP2 PUSH2 0x1235 JUMP JUMPDEST DUP11 DUP4 ADD MLOAD DUP2 MSTORE PUSH2 0x1731 DUP8 DUP5 ADD PUSH2 0x13D8 JUMP JUMPDEST DUP12 DUP3 ADD MSTORE PUSH1 0x60 SWAP4 DUP5 DUP5 ADD MLOAD DUP9 DUP4 ADD MSTORE PUSH1 0x80 SWAP1 DUP2 DUP6 ADD MLOAD SWAP5 DUP9 DUP7 GT PUSH2 0x7A3 JUMPI DUP14 SWAP7 PUSH2 0x1760 DUP14 DUP10 DUP1 SWAP10 DUP6 ADD ADD PUSH2 0x13EC JUMP JUMPDEST SWAP1 DUP6 ADD MSTORE PUSH1 0xA0 SWAP3 PUSH2 0x1772 DUP5 DUP4 ADD PUSH2 0x1431 JUMP JUMPDEST SWAP1 DUP6 ADD MSTORE ADD MLOAD SWAP1 DUP3 ADD MSTORE DUP2 MSTORE ADD SWAP5 ADD SWAP4 PUSH2 0x16E8 JUMP JUMPDEST PUSH1 0x1 PUSH1 0x1 PUSH1 0xA0 SHL SUB SWAP1 SWAP2 AND DUP2 MSTORE PUSH1 0x20 DUP2 ADD SWAP2 SWAP1 SWAP2 MSTORE PUSH1 0x40 ADD SWAP1 JUMP JUMPDEST RETURNDATASIZE ISZERO PUSH2 0x17CC JUMPI RETURNDATASIZE SWAP1 PUSH2 0x17B3 DUP3 PUSH2 0x129A JUMP JUMPDEST SWAP2 PUSH2 0x17C1 PUSH1 0x40 MLOAD SWAP4 DUP5 PUSH2 0x1277 JUMP JUMPDEST DUP3 MSTORE RETURNDATASIZE PUSH0 PUSH1 0x20 DUP5 ADD RETURNDATACOPY JUMP JUMPDEST PUSH1 0x60 SWAP1 JUMP JUMPDEST PUSH1 0x2 PUSH1 0x1 SLOAD EQ PUSH2 0x17E2 JUMPI PUSH1 0x2 PUSH1 0x1 SSTORE JUMP JUMPDEST PUSH1 0x40 MLOAD PUSH3 0x461BCD PUSH1 0xE5 SHL DUP2 MSTORE PUSH1 0x20 PUSH1 0x4 DUP3 ADD MSTORE PUSH1 0x1F PUSH1 0x24 DUP3 ADD MSTORE PUSH32 0x5265656E7472616E637947756172643A207265656E7472616E742063616C6C00 PUSH1 0x44 DUP3 ADD MSTORE PUSH1 0x64 SWAP1 REVERT JUMPDEST PUSH0 SLOAD PUSH1 0x1 PUSH1 0x1 PUSH1 0xA0 SHL SUB AND CALLER SUB PUSH2 0x183A JUMPI JUMP JUMPDEST PUSH1 0x64 PUSH1 0x40 MLOAD PUSH3 0x461BCD PUSH1 0xE5 SHL DUP2 MSTORE PUSH1 0x20 PUSH1 0x4 DUP3 ADD MSTORE PUSH1 0x20 PUSH1 0x24 DUP3 ADD MSTORE PUSH32 0x4F776E61626C653A2063616C6C6572206973206E6F7420746865206F776E6572 PUSH1 0x44 DUP3 ADD MSTORE REVERT INVALID MSTORE PUSH1 0x4C 0xAA OR LT 0x24 TLOAD RETURN 0xF9 0x4D SWAP12 0xA8 SWAP16 0xF9 0x21 0xBB 0x23 0xD9 DUP8 COINBASE CREATE2 PUSH27 0x258794B86F3BA8E7FC8BE0079C531659141344CD1FD0A4F2841949 PUSH32 0x9722A3DAAFE3B4186F6B6457E0A164736F6C6343000818000A00000000000000 "},"methodIdentifiers":{"buyProduct(uint256)":"8642269e","coreContract()":"e80db5db","createReview(uint256,uint256,string)":"16d81b38","deleteReview(uint256,uint256)":"24d41a03","getBuyerPurchaseHistory(address)":"b27e1697","getReviews(uint256)":"9d4a2255","getSellerBalance(address)":"2148893f","getSellerPurchaseHistory(address)":"3c2575d5","markPurchaseDelivered(uint256,address)":"11aa5b34","owner()":"8da5cb5b","renounceOwnership()":"715018a6","storageContract()":"11ce0267","transferOwnership(address)":"f2fde38b","withdraw()":"3ccfd60b"}}}}}