{
  "_format": "hh-sol-artifact-1",
  "contractName": "CryptoMartCore",
  "sourceName": "contracts/CryptoMartCore.sol",
  "abi": [
    {
      "inputs": [
        {
          "internalType": "address",
          "name": "_storageContract",
          "type": "address"
        }
      ],
      "stateMutability": "nonpayable",
      "type": "constructor"
    },
    {
      "anonymous": false,
      "inputs": [
        {
          "indexed": true,
          "internalType": "address",
          "name": "owner",
          "type": "address"
        },
        {
          "indexed": true,
          "internalType": "address",
          "name": "approved",
          "type": "address"
        },
        {
          "indexed": true,
          "internalType": "uint256",
          "name": "tokenId",
          "type": "uint256"
        }
      ],
      "name": "Approval",
      "type": "event"
    },
    {
      "anonymous": false,
      "inputs": [
        {
          "indexed": true,
          "internalType": "address",
          "name": "owner",
          "type": "address"
        },
        {
          "indexed": true,
          "internalType": "address",
          "name": "operator",
          "type": "address"
        },
        {
          "indexed": false,
          "internalType": "bool",
          "name": "approved",
          "type": "bool"
        }
      ],
      "name": "ApprovalForAll",
      "type": "event"
    },
    {
      "anonymous": false,
      "inputs": [
        {
          "indexed": true,
          "internalType": "address",
          "name": "seller",
          "type": "address"
        },
        {
          "indexed": false,
          "internalType": "uint256",
          "name": "amount",
          "type": "uint256"
        }
      ],
      "name": "BalanceWithdrawn",
      "type": "event"
    },
    {
      "anonymous": false,
      "inputs": [
        {
          "indexed": true,
          "internalType": "uint256",
          "name": "categoryId",
          "type": "uint256"
        },
        {
          "indexed": false,
          "internalType": "string",
          "name": "name",
          "type": "string"
        }
      ],
      "name": "CategoryCreated",
      "type": "event"
    },
    {
      "anonymous": false,
      "inputs": [
        {
          "indexed": true,
          "internalType": "uint256",
          "name": "categoryId",
          "type": "uint256"
        }
      ],
      "name": "CategoryDeleted",
      "type": "event"
    },
    {
      "anonymous": false,
      "inputs": [
        {
          "indexed": true,
          "internalType": "uint256",
          "name": "categoryId",
          "type": "uint256"
        }
      ],
      "name": "CategoryUpdated",
      "type": "event"
    },
    {
      "anonymous": false,
      "inputs": [
        {
          "indexed": true,
          "internalType": "address",
          "name": "previousOwner",
          "type": "address"
        },
        {
          "indexed": true,
          "internalType": "address",
          "name": "newOwner",
          "type": "address"
        }
      ],
      "name": "OwnershipTransferred",
      "type": "event"
    },
    {
      "anonymous": false,
      "inputs": [
        {
          "indexed": true,
          "internalType": "uint256",
          "name": "productId",
          "type": "uint256"
        },
        {
          "indexed": true,
          "internalType": "address",
          "name": "seller",
          "type": "address"
        },
        {
          "indexed": false,
          "internalType": "string",
          "name": "name",
          "type": "string"
        },
        {
          "indexed": false,
          "internalType": "uint256",
          "name": "cost",
          "type": "uint256"
        }
      ],
      "name": "ProductCreated",
      "type": "event"
    },
    {
      "anonymous": false,
      "inputs": [
        {
          "indexed": true,
          "internalType": "uint256",
          "name": "productId",
          "type": "uint256"
        }
      ],
      "name": "ProductDeleted",
      "type": "event"
    },
    {
      "anonymous": false,
      "inputs": [
        {
          "indexed": true,
          "internalType": "uint256",
          "name": "productId",
          "type": "uint256"
        },
        {
          "indexed": true,
          "internalType": "address",
          "name": "buyer",
          "type": "address"
        },
        {
          "indexed": true,
          "internalType": "address",
          "name": "seller",
          "type": "address"
        }
      ],
      "name": "ProductPurchased",
      "type": "event"
    },
    {
      "anonymous": false,
      "inputs": [
        {
          "indexed": true,
          "internalType": "uint256",
          "name": "productId",
          "type": "uint256"
        }
      ],
      "name": "ProductUpdated",
      "type": "event"
    },
    {
      "anonymous": false,
      "inputs": [
        {
          "indexed": true,
          "internalType": "uint256",
          "name": "productId",
          "type": "uint256"
        },
        {
          "indexed": true,
          "internalType": "address",
          "name": "buyer",
          "type": "address"
        }
      ],
      "name": "PurchaseDelivered",
      "type": "event"
    },
    {
      "anonymous": false,
      "inputs": [
        {
          "indexed": true,
          "internalType": "uint256",
          "name": "productId",
          "type": "uint256"
        },
        {
          "indexed": true,
          "internalType": "address",
          "name": "buyer",
          "type": "address"
        },
        {
          "indexed": true,
          "internalType": "address",
          "name": "seller",
          "type": "address"
        },
        {
          "indexed": false,
          "internalType": "uint256",
          "name": "amount",
          "type": "uint256"
        },
        {
          "indexed": false,
          "internalType": "uint256",
          "name": "timestamp",
          "type": "uint256"
        }
      ],
      "name": "PurchaseRecorded",
      "type": "event"
    },
    {
      "anonymous": false,
      "inputs": [
        {
          "indexed": true,
          "internalType": "uint256",
          "name": "productId",
          "type": "uint256"
        },
        {
          "indexed": true,
          "internalType": "address",
          "name": "reviewer",
          "type": "address"
        },
        {
          "indexed": false,
          "internalType": "uint256",
          "name": "rating",
          "type": "uint256"
        }
      ],
      "name": "ReviewCreated",
      "type": "event"
    },
    {
      "anonymous": false,
      "inputs": [
        {
          "indexed": true,
          "internalType": "uint256",
          "name": "productId",
          "type": "uint256"
        },
        {
          "indexed": true,
          "internalType": "uint256",
          "name": "reviewId",
          "type": "uint256"
        }
      ],
      "name": "ReviewDeleted",
      "type": "event"
    },
    {
      "anonymous": false,
      "inputs": [
        {
          "indexed": true,
          "internalType": "address",
          "name": "seller",
          "type": "address"
        },
        {
          "indexed": false,
          "internalType": "string",
          "name": "businessName",
          "type": "string"
        }
      ],
      "name": "SellerRegistered",
      "type": "event"
    },
    {
      "anonymous": false,
      "inputs": [
        {
          "indexed": true,
          "internalType": "address",
          "name": "seller",
          "type": "address"
        },
        {
          "indexed": false,
          "internalType": "enum CryptoMartStorage.SellerStatus",
          "name": "status",
          "type": "uint8"
        }
      ],
      "name": "SellerStatusUpdated",
      "type": "event"
    },
    {
      "anonymous": false,
      "inputs": [
        {
          "indexed": true,
          "internalType": "address",
          "name": "from",
          "type": "address"
        },
        {
          "indexed": true,
          "internalType": "address",
          "name": "to",
          "type": "address"
        },
        {
          "indexed": true,
          "internalType": "uint256",
          "name": "tokenId",
          "type": "uint256"
        }
      ],
      "name": "Transfer",
      "type": "event"
    },
    {
      "anonymous": false,
      "inputs": [
        {
          "indexed": true,
          "internalType": "address",
          "name": "user",
          "type": "address"
        },
        {
          "indexed": false,
          "internalType": "string",
          "name": "name",
          "type": "string"
        }
      ],
      "name": "UserRegistered",
      "type": "event"
    },
    {
      "inputs": [
        {
          "internalType": "address",
          "name": "to",
          "type": "address"
        },
        {
          "internalType": "uint256",
          "name": "tokenId",
          "type": "uint256"
        }
      ],
      "name": "approve",
      "outputs": [],
      "stateMutability": "nonpayable",
      "type": "function"
    },
    {
      "inputs": [
        {
          "internalType": "address",
          "name": "owner",
          "type": "address"
        }
      ],
      "name": "balanceOf",
      "outputs": [
        {
          "internalType": "uint256",
          "name": "",
          "type": "uint256"
        }
      ],
      "stateMutability": "view",
      "type": "function"
    },
    {
      "inputs": [
        {
          "internalType": "uint256",
          "name": "newPct",
          "type": "uint256"
        }
      ],
      "name": "changeServicePct",
      "outputs": [],
      "stateMutability": "nonpayable",
      "type": "function"
    },
    {
      "inputs": [
        {
          "internalType": "string",
          "name": "_name",
          "type": "string"
        }
      ],
      "name": "createCategory",
      "outputs": [],
      "stateMutability": "nonpayable",
      "type": "function"
    },
    {
      "inputs": [
        {
          "internalType": "string",
          "name": "name",
          "type": "string"
        },
        {
          "internalType": "string",
          "name": "description",
          "type": "string"
        },
        {
          "internalType": "string",
          "name": "image",
          "type": "string"
        },
        {
          "internalType": "uint256",
          "name": "categoryId",
          "type": "uint256"
        },
        {
          "internalType": "uint256",
          "name": "cost",
          "type": "uint256"
        },
        {
          "internalType": "uint256",
          "name": "stock",
          "type": "uint256"
        }
      ],
      "name": "createProduct",
      "outputs": [],
      "stateMutability": "nonpayable",
      "type": "function"
    },
    {
      "inputs": [
        {
          "internalType": "uint256",
          "name": "id",
          "type": "uint256"
        }
      ],
      "name": "deleteCategory",
      "outputs": [],
      "stateMutability": "nonpayable",
      "type": "function"
    },
    {
      "inputs": [],
      "name": "getAllCategories",
      "outputs": [
        {
          "components": [
            {
              "internalType": "uint256",
              "name": "id",
              "type": "uint256"
            },
            {
              "internalType": "string",
              "name": "name",
              "type": "string"
            },
            {
              "internalType": "bool",
              "name": "isActive",
              "type": "bool"
            }
          ],
          "internalType": "struct CryptoMartStorage.CategoryStruct[]",
          "name": "",
          "type": "tuple[]"
        }
      ],
      "stateMutability": "view",
      "type": "function"
    },
    {
      "inputs": [],
      "name": "getAllProducts",
      "outputs": [
        {
          "components": [
            {
              "internalType": "uint256",
              "name": "id",
              "type": "uint256"
            },
            {
              "internalType": "address",
              "name": "seller",
              "type": "address"
            },
            {
              "internalType": "string",
              "name": "name",
              "type": "string"
            },
            {
              "internalType": "string",
              "name": "description",
              "type": "string"
            },
            {
              "internalType": "string",
              "name": "image",
              "type": "string"
            },
            {
              "internalType": "uint256",
              "name": "categoryId",
              "type": "uint256"
            },
            {
              "internalType": "uint256",
              "name": "cost",
              "type": "uint256"
            },
            {
              "internalType": "uint256",
              "name": "stock",
              "type": "uint256"
            },
            {
              "internalType": "uint256",
              "name": "timestamp",
              "type": "uint256"
            },
            {
              "internalType": "bool",
              "name": "deleted",
              "type": "bool"
            }
          ],
          "internalType": "struct CryptoMartStorage.ProductStruct[]",
          "name": "",
          "type": "tuple[]"
        }
      ],
      "stateMutability": "view",
      "type": "function"
    },
    {
      "inputs": [],
      "name": "getAllRegisteredSellers",
      "outputs": [
        {
          "internalType": "address[]",
          "name": "",
          "type": "address[]"
        }
      ],
      "stateMutability": "view",
      "type": "function"
    },
    {
      "inputs": [],
      "name": "getAllSellers",
      "outputs": [
        {
          "internalType": "address[]",
          "name": "",
          "type": "address[]"
        }
      ],
      "stateMutability": "view",
      "type": "function"
    },
    {
      "inputs": [
        {
          "internalType": "uint256",
          "name": "tokenId",
          "type": "uint256"
        }
      ],
      "name": "getApproved",
      "outputs": [
        {
          "internalType": "address",
          "name": "",
          "type": "address"
        }
      ],
      "stateMutability": "view",
      "type": "function"
    },
    {
      "inputs": [
        {
          "internalType": "uint256",
          "name": "id",
          "type": "uint256"
        }
      ],
      "name": "getCategory",
      "outputs": [
        {
          "internalType": "uint256",
          "name": "",
          "type": "uint256"
        },
        {
          "internalType": "string",
          "name": "",
          "type": "string"
        },
        {
          "internalType": "bool",
          "name": "",
          "type": "bool"
        },
        {
          "internalType": "uint256[]",
          "name": "",
          "type": "uint256[]"
        }
      ],
      "stateMutability": "view",
      "type": "function"
    },
    {
      "inputs": [],
      "name": "getMyProducts",
      "outputs": [
        {
          "components": [
            {
              "internalType": "uint256",
              "name": "id",
              "type": "uint256"
            },
            {
              "internalType": "address",
              "name": "seller",
              "type": "address"
            },
            {
              "internalType": "string",
              "name": "name",
              "type": "string"
            },
            {
              "internalType": "string",
              "name": "description",
              "type": "string"
            },
            {
              "internalType": "string",
              "name": "image",
              "type": "string"
            },
            {
              "internalType": "uint256",
              "name": "categoryId",
              "type": "uint256"
            },
            {
              "internalType": "uint256",
              "name": "cost",
              "type": "uint256"
            },
            {
              "internalType": "uint256",
              "name": "stock",
              "type": "uint256"
            },
            {
              "internalType": "uint256",
              "name": "timestamp",
              "type": "uint256"
            },
            {
              "internalType": "bool",
              "name": "deleted",
              "type": "bool"
            }
          ],
          "internalType": "struct CryptoMartStorage.ProductStruct[]",
          "name": "",
          "type": "tuple[]"
        }
      ],
      "stateMutability": "view",
      "type": "function"
    },
    {
      "inputs": [],
      "name": "getPendingVerificationUsers",
      "outputs": [
        {
          "internalType": "address[]",
          "name": "",
          "type": "address[]"
        }
      ],
      "stateMutability": "view",
      "type": "function"
    },
    {
      "inputs": [
        {
          "internalType": "uint256",
          "name": "productId",
          "type": "uint256"
        }
      ],
      "name": "getProduct",
      "outputs": [
        {
          "components": [
            {
              "internalType": "uint256",
              "name": "id",
              "type": "uint256"
            },
            {
              "internalType": "address",
              "name": "seller",
              "type": "address"
            },
            {
              "internalType": "string",
              "name": "name",
              "type": "string"
            },
            {
              "internalType": "string",
              "name": "description",
              "type": "string"
            },
            {
              "internalType": "string",
              "name": "image",
              "type": "string"
            },
            {
              "internalType": "uint256",
              "name": "categoryId",
              "type": "uint256"
            },
            {
              "internalType": "uint256",
              "name": "cost",
              "type": "uint256"
            },
            {
              "internalType": "uint256",
              "name": "stock",
              "type": "uint256"
            },
            {
              "internalType": "uint256",
              "name": "timestamp",
              "type": "uint256"
            },
            {
              "internalType": "bool",
              "name": "deleted",
              "type": "bool"
            }
          ],
          "internalType": "struct CryptoMartStorage.ProductStruct",
          "name": "",
          "type": "tuple"
        }
      ],
      "stateMutability": "view",
      "type": "function"
    },
    {
      "inputs": [
        {
          "internalType": "address",
          "name": "seller",
          "type": "address"
        }
      ],
      "name": "getSeller",
      "outputs": [
        {
          "components": [
            {
              "internalType": "string",
              "name": "businessName",
              "type": "string"
            },
            {
              "internalType": "string",
              "name": "description",
              "type": "string"
            },
            {
              "internalType": "string",
              "name": "email",
              "type": "string"
            },
            {
              "internalType": "string",
              "name": "phone",
              "type": "string"
            },
            {
              "internalType": "string",
              "name": "logo",
              "type": "string"
            },
            {
              "internalType": "bool",
              "name": "isRegistered",
              "type": "bool"
            },
            {
              "internalType": "uint256",
              "name": "registeredAt",
              "type": "uint256"
            }
          ],
          "internalType": "struct CryptoMartStorage.SellerProfile",
          "name": "",
          "type": "tuple"
        },
        {
          "internalType": "enum CryptoMartStorage.SellerStatus",
          "name": "",
          "type": "uint8"
        }
      ],
      "stateMutability": "view",
      "type": "function"
    },
    {
      "inputs": [
        {
          "internalType": "address",
          "name": "seller",
          "type": "address"
        }
      ],
      "name": "getSellerProducts",
      "outputs": [
        {
          "components": [
            {
              "internalType": "uint256",
              "name": "id",
              "type": "uint256"
            },
            {
              "internalType": "address",
              "name": "seller",
              "type": "address"
            },
            {
              "internalType": "string",
              "name": "name",
              "type": "string"
            },
            {
              "internalType": "string",
              "name": "description",
              "type": "string"
            },
            {
              "internalType": "string",
              "name": "image",
              "type": "string"
            },
            {
              "internalType": "uint256",
              "name": "categoryId",
              "type": "uint256"
            },
            {
              "internalType": "uint256",
              "name": "cost",
              "type": "uint256"
            },
            {
              "internalType": "uint256",
              "name": "stock",
              "type": "uint256"
            },
            {
              "internalType": "uint256",
              "name": "timestamp",
              "type": "uint256"
            },
            {
              "internalType": "bool",
              "name": "deleted",
              "type": "bool"
            }
          ],
          "internalType": "struct CryptoMartStorage.ProductStruct[]",
          "name": "",
          "type": "tuple[]"
        }
      ],
      "stateMutability": "view",
      "type": "function"
    },
    {
      "inputs": [
        {
          "internalType": "address",
          "name": "seller",
          "type": "address"
        }
      ],
      "name": "getSellerProfile",
      "outputs": [
        {
          "components": [
            {
              "internalType": "string",
              "name": "businessName",
              "type": "string"
            },
            {
              "internalType": "string",
              "name": "description",
              "type": "string"
            },
            {
              "internalType": "string",
              "name": "email",
              "type": "string"
            },
            {
              "internalType": "string",
              "name": "phone",
              "type": "string"
            },
            {
              "internalType": "string",
              "name": "logo",
              "type": "string"
            },
            {
              "internalType": "bool",
              "name": "isRegistered",
              "type": "bool"
            },
            {
              "internalType": "uint256",
              "name": "registeredAt",
              "type": "uint256"
            }
          ],
          "internalType": "struct CryptoMartStorage.SellerProfile",
          "name": "",
          "type": "tuple"
        }
      ],
      "stateMutability": "view",
      "type": "function"
    },
    {
      "inputs": [
        {
          "internalType": "address",
          "name": "seller",
          "type": "address"
        }
      ],
      "name": "getSellerStatus",
      "outputs": [
        {
          "internalType": "enum CryptoMartStorage.SellerStatus",
          "name": "",
          "type": "uint8"
        }
      ],
      "stateMutability": "view",
      "type": "function"
    },
    {
      "inputs": [],
      "name": "getTotalProducts",
      "outputs": [
        {
          "internalType": "uint256",
          "name": "",
          "type": "uint256"
        }
      ],
      "stateMutability": "view",
      "type": "function"
    },
    {
      "inputs": [],
      "name": "getTotalSales",
      "outputs": [
        {
          "internalType": "uint256",
          "name": "",
          "type": "uint256"
        }
      ],
      "stateMutability": "view",
      "type": "function"
    },
    {
      "inputs": [
        {
          "internalType": "address",
          "name": "user",
          "type": "address"
        }
      ],
      "name": "getUser",
      "outputs": [
        {
          "components": [
            {
              "internalType": "string",
              "name": "name",
              "type": "string"
            },
            {
              "internalType": "string",
              "name": "email",
              "type": "string"
            },
            {
              "internalType": "string",
              "name": "avatar",
              "type": "string"
            },
            {
              "internalType": "bool",
              "name": "isRegistered",
              "type": "bool"
            }
          ],
          "internalType": "struct CryptoMartStorage.UserProfile",
          "name": "",
          "type": "tuple"
        }
      ],
      "stateMutability": "view",
      "type": "function"
    },
    {
      "inputs": [],
      "name": "grantOwnerSellerAccess",
      "outputs": [],
      "stateMutability": "nonpayable",
      "type": "function"
    },
    {
      "inputs": [
        {
          "internalType": "address",
          "name": "owner",
          "type": "address"
        },
        {
          "internalType": "address",
          "name": "operator",
          "type": "address"
        }
      ],
      "name": "isApprovedForAll",
      "outputs": [
        {
          "internalType": "bool",
          "name": "",
          "type": "bool"
        }
      ],
      "stateMutability": "view",
      "type": "function"
    },
    {
      "inputs": [],
      "name": "name",
      "outputs": [
        {
          "internalType": "string",
          "name": "",
          "type": "string"
        }
      ],
      "stateMutability": "view",
      "type": "function"
    },
    {
      "inputs": [],
      "name": "owner",
      "outputs": [
        {
          "internalType": "address",
          "name": "",
          "type": "address"
        }
      ],
      "stateMutability": "view",
      "type": "function"
    },
    {
      "inputs": [
        {
          "internalType": "uint256",
          "name": "tokenId",
          "type": "uint256"
        }
      ],
      "name": "ownerOf",
      "outputs": [
        {
          "internalType": "address",
          "name": "",
          "type": "address"
        }
      ],
      "stateMutability": "view",
      "type": "function"
    },
    {
      "inputs": [
        {
          "internalType": "string",
          "name": "businessName",
          "type": "string"
        },
        {
          "internalType": "string",
          "name": "description",
          "type": "string"
        },
        {
          "internalType": "string",
          "name": "email",
          "type": "string"
        },
        {
          "internalType": "string",
          "name": "phone",
          "type": "string"
        },
        {
          "internalType": "string",
          "name": "logo",
          "type": "string"
        }
      ],
      "name": "registerSeller",
      "outputs": [],
      "stateMutability": "nonpayable",
      "type": "function"
    },
    {
      "inputs": [
        {
          "internalType": "string",
          "name": "name",
          "type": "string"
        },
        {
          "internalType": "string",
          "name": "email",
          "type": "string"
        },
        {
          "internalType": "string",
          "name": "avatar",
          "type": "string"
        }
      ],
      "name": "registerUser",
      "outputs": [],
      "stateMutability": "nonpayable",
      "type": "function"
    },
    {
      "inputs": [],
      "name": "renounceOwnership",
      "outputs": [],
      "stateMutability": "nonpayable",
      "type": "function"
    },
    {
      "inputs": [
        {
          "internalType": "address",
          "name": "from",
          "type": "address"
        },
        {
          "internalType": "address",
          "name": "to",
          "type": "address"
        },
        {
          "internalType": "uint256",
          "name": "tokenId",
          "type": "uint256"
        }
      ],
      "name": "safeTransferFrom",
      "outputs": [],
      "stateMutability": "nonpayable",
      "type": "function"
    },
    {
      "inputs": [
        {
          "internalType": "address",
          "name": "from",
          "type": "address"
        },
        {
          "internalType": "address",
          "name": "to",
          "type": "address"
        },
        {
          "internalType": "uint256",
          "name": "tokenId",
          "type": "uint256"
        },
        {
          "internalType": "bytes",
          "name": "data",
          "type": "bytes"
        }
      ],
      "name": "safeTransferFrom",
      "outputs": [],
      "stateMutability": "nonpayable",
      "type": "function"
    },
    {
      "inputs": [
        {
          "internalType": "address",
          "name": "operator",
          "type": "address"
        },
        {
          "internalType": "bool",
          "name": "approved",
          "type": "bool"
        }
      ],
      "name": "setApprovalForAll",
      "outputs": [],
      "stateMutability": "nonpayable",
      "type": "function"
    },
    {
      "inputs": [],
      "name": "storageContract",
      "outputs": [
        {
          "internalType": "contract CryptoMartStorage",
          "name": "",
          "type": "address"
        }
      ],
      "stateMutability": "view",
      "type": "function"
    },
    {
      "inputs": [
        {
          "internalType": "bytes4",
          "name": "interfaceId",
          "type": "bytes4"
        }
      ],
      "name": "supportsInterface",
      "outputs": [
        {
          "internalType": "bool",
          "name": "",
          "type": "bool"
        }
      ],
      "stateMutability": "view",
      "type": "function"
    },
    {
      "inputs": [],
      "name": "symbol",
      "outputs": [
        {
          "internalType": "string",
          "name": "",
          "type": "string"
        }
      ],
      "stateMutability": "view",
      "type": "function"
    },
    {
      "inputs": [
        {
          "internalType": "uint256",
          "name": "tokenId",
          "type": "uint256"
        }
      ],
      "name": "tokenURI",
      "outputs": [
        {
          "internalType": "string",
          "name": "",
          "type": "string"
        }
      ],
      "stateMutability": "view",
      "type": "function"
    },
    {
      "inputs": [
        {
          "internalType": "address",
          "name": "from",
          "type": "address"
        },
        {
          "internalType": "address",
          "name": "to",
          "type": "address"
        },
        {
          "internalType": "uint256",
          "name": "tokenId",
          "type": "uint256"
        }
      ],
      "name": "transferFrom",
      "outputs": [],
      "stateMutability": "nonpayable",
      "type": "function"
    },
    {
      "inputs": [
        {
          "internalType": "address",
          "name": "newOwner",
          "type": "address"
        }
      ],
      "name": "transferOwnership",
      "outputs": [],
      "stateMutability": "nonpayable",
      "type": "function"
    },
    {
      "inputs": [
        {
          "internalType": "uint256",
          "name": "id",
          "type": "uint256"
        },
        {
          "internalType": "string",
          "name": "name",
          "type": "string"
        },
        {
          "internalType": "bool",
          "name": "isActive",
          "type": "bool"
        }
      ],
      "name": "updateCategory",
      "outputs": [],
      "stateMutability": "nonpayable",
      "type": "function"
    },
    {
      "inputs": [
        {
          "internalType": "address",
          "name": "seller",
          "type": "address"
        },
        {
          "internalType": "enum CryptoMartStorage.SellerStatus",
          "name": "status",
          "type": "uint8"
        }
      ],
      "name": "updateSellerStatus",
      "outputs": [],
      "stateMutability": "nonpayable",
      "type": "function"
    },
    {
      "inputs": [],
      "name": "withdrawServiceFees",
      "outputs": [],
      "stateMutability": "nonpayable",
      "type": "function"
    },
    {
      "stateMutability": "payable",
      "type": "receive"
    }
  ],
  "bytecode": "0x60a0346200040757601f90601f196001600160401b03620040a238819003858101841685018381118682101762000326578592829160405283396020948591810103126200040757516001600160a01b038082169590918690036200040757620000686200040b565b91600a83526910dc9e5c1d1bd3585c9d60b21b86840152620000896200040b565b600581526410d350549560da1b878201525f8054336001600160a01b0319821681178355929316907f8be0079c531659141344cd1fd0a4f28419497f9722a3daafe3b4186f6b6457e09080a36001928380558051908582116200032657600254908582811c92168015620003fc575b8983101462000307578185849311620003a8575b50889085831160011462000346575f926200033a575b50505f19600383901b1c191690841b176002555b8051938411620003265760039586548481811c911680156200031b575b828210146200030757838111620002bf575b50809285116001146200025b5750839450908392915f946200024f575b50501b915f1990841b1c19161790555b608052604051613c7690816200042c823960805181818161021f015281816103670152818161052e015281816106320152818161075a015281816108f701528181610bdf01528181610d9e015281816110dc015281816112f401528181611772015281816118ee01528181611b5601528181611f51015281816120710152818161213f0152818161229f0152818161236b015281816124280152818161267001528181612757015281816127b501528181612a740152612f330152f35b015192505f8062000182565b929484908116875f52845f20945f905b88838310620002a457505050106200028c575b505050811b01905562000192565b01515f1983861b60f8161c191690555f80806200027e565b8587015188559096019594850194879350908101906200026b565b875f52815f208480880160051c820192848910620002fd575b0160051c019085905b828110620002f157505062000165565b5f8155018590620002e1565b92508192620002d8565b634e487b7160e01b5f52602260045260245ffd5b90607f169062000153565b634e487b7160e01b5f52604160045260245ffd5b015190505f8062000122565b90888794169160025f528a5f20925f5b8c82821062000391575050841162000378575b505050811b0160025562000136565b01515f1960f88460031b161c191690555f808062000369565b8385015186558a9790950194938401930162000356565b90915060025f52885f208580850160051c8201928b8610620003f2575b918891869594930160051c01915b828110620003e35750506200010c565b5f8155859450889101620003d3565b92508192620003c5565b91607f1691620000f8565b5f80fd5b60408051919082016001600160401b03811183821017620003265760405256fe60806040818152600480361015610020575b505050361561001e575f80fd5b005b5f925f3560e01c90816301ffc9a714612c445750806302ee3a5214612a5457806306fdde0314612972578063081812fc14612953578063095ea7b3146127e457806311ce0267146127a15780632156a96c1461273057806323b872dd1461270757806342842e0e146126df5780634293e5ce146126255780634e213d20146123ec578063570aea8a146123435780635ad6a580146118af5780635be20959146122725780636352211e1461224157806366224d8e146120de5780636f68ef3a1461204b5780636f77926b14611eef57806370a0823114611e59578063715018a614611e135780637e8555ed14611aab5780638da5cb5b14611a8357806395d89b411461199857806397b6f393146118b45780639b269b8f146118af578063a22cb465146117e8578063a323d29e14611727578063a9ab7af21461126f578063b88d4fde1461120c578063b9db15b4146110a8578063c87b56dd14610e9f57838163ceca737f14610d6b57508063d637dcfa14610b67578063d72e481d14610aab578063dadd0a57146108d5578063dc29868214610708578063e6a93e16146105f5578063e985e9c5146105a7578063eb11c434146104eb578063f2fde38b1461043d578063f3052d26146103365763fdca4ca303610011573461033257826003193601126103325781516373549f0b60e11b81523382820152916024917f00000000000000000000000000000000000000000000000000000000000000006001600160a01b03169085858581855afa948515610328578695610304575b5061026885516131ed565b93865b86518110156102f35761027e81886133a0565b51855190632e76c56d60e21b82528482015288818481885afa9081156102e95790600192918a916102c7575b506102b582896133a0565b526102c081886133a0565b500161026b565b6102e391503d808c833e6102db818361306a565b8101906132c1565b5f6102aa565b86513d8b823e3d90fd5b8451806103008882612d88565b0390f35b6103219195503d8088833e610319818361306a565b810190613844565b935f61025d565b83513d88823e3d90fd5b8280fd5b5091903461043957602080600319360112610332578151637982969360e11b815284359481019490945282846024817f00000000000000000000000000000000000000000000000000000000000000006001600160a01b03165afa93841561042d578394610409575b509091835192808386015195015115156103c9825196879687526080868801526080870190612ccf565b918501528381036060850152826060519182815201926080925b8281106103f257505050500390f35b8351855286955093810193928101926001016103e3565b6104269194503d8085833e61041e818361306a565b81019061367e565b925f61039f565b505051903d90823e3d90fd5b5080fd5b503461033257602036600319011261033257610457612deb565b90610460613ab1565b6001600160a01b039182169283156104995750505f548260018060a01b03198216175f55165f80516020613c4a8339815191525f80a380f35b906020608492519162461bcd60e51b8352820152602660248201527f4f776e61626c653a206e6577206f776e657220697320746865207a65726f206160448201526564647265737360d01b6064820152fd5b5090346103325760203660031901126103325782610507612deb565b8251635191e94f60e11b81526001600160a01b0391821694810194909452839060249082907f0000000000000000000000000000000000000000000000000000000000000000165afa91821561059d578360209493610571575b505061056f90518092613148565bf35b61056f92935090610593913d8091833e61058b818361306a565b810190613483565b905091905f610561565b81513d85823e3d90fd5b5050346104395780600319360112610439576020916105c4612deb565b826105cd612e01565b9260018060a01b038093168152600786522091165f52825260ff815f20541690519015158152f35b50346103325760203660031901126103325761060f612deb565b82516373549f0b60e11b81526001600160a01b03918216838201529260249290917f0000000000000000000000000000000000000000000000000000000000000000169085858581855afa9485156103285786956106ec575b5061067385516131ed565b93865b86518110156102f35761068981886133a0565b51855190632e76c56d60e21b82528482015288818481885afa9081156102e95790600192918a916106d2575b506106c082896133a0565b526106cb81886133a0565b5001610676565b6106e691503d808c833e6102db818361306a565b5f6106b5565b6107019195503d8088833e610319818361306a565b935f610668565b509034610332576020806003193601126108555782356001600160401b0381116108475761073990369085016130de565b90610742613ab1565b81511561089a578251630602566360e11b81529385907f00000000000000000000000000000000000000000000000000000000000000006001600160a01b0316908387828186865af1968715610890578397610859575b5085516107a581612fe2565b8781528585820152600187820152823b15610855576107e892888580948a51968795869485936328a22b8760e01b85528401528c60248401526044830190613169565b03925af1801561084b57610833575b505061082d7f11c167cc9b439f0ad8bec5588159f1b06b813bc38d50c867a41b23b077be2c1a9351928284938452830190612ccf565b0390a280f35b61083c90612fcf565b61084757845f6107f7565b8480fd5b85513d84823e3d90fd5b8380fd5b84809298508194503d8311610889575b610873818361306a565b8101031261088557869151955f610799565b5f80fd5b503d610869565b86513d85823e3d90fd5b8360649184519162461bcd60e51b8352820152601660248201527510d85d1959dbdc9e481b985b59481c995c5d5a5c995960521b6044820152fd5b508234610aa85780600319360112610aa8578251620d893f60e61b81526020927f00000000000000000000000000000000000000000000000000000000000000006001600160a01b0316929184818381875afa908115610890578391610a7b575b50610940816137e0565b93839260015b838111156109eb575050505061095b816137e0565b92825b8281106109c15750505083519280840190808552835180925280868601968360051b870101940192955b8287106109955785850386f35b9091929382806109b1600193603f198a82030186528851613169565b9601920196019592919092610988565b806109ce600192846133a0565b516109d982886133a0565b526109e481876133a0565b500161095e565b8851637982969360e11b81528281018290528681602481875afa908115610a71578791610a57575b5089810151610a2c575b50610a279061323c565b610946565b85610a5091610a3f610a2794988b6133a0565b52610a4a818a6133a0565b5061323c565b9490610a1d565b610a6b91503d8089833e61041e818361306a565b8a610a13565b8a513d89823e3d90fd5b90508481813d8311610aa1575b610a92818361306a565b81010312610885575186610936565b503d610a88565b80fd5b509034610332578260031936011261033257610ac5613ab1565b478015610b2e57835484918291829182916001600160a01b03165af1610ae96137b1565b5015610af3578280f35b906020606492519162461bcd60e51b83528201526015602482015274119959481dda5d1a191c985dd85b0819985a5b1959605a1b6044820152fd5b815162461bcd60e51b815260208185015260136024820152724e6f206665657320746f20776974686472617760681b6044820152606490fd5b509034610332576060366003190112610332576001600160401b0390823582811161084757610b9990369085016130de565b91602435818111610d6757610bb190369086016130de565b90604435908111610d6757610bc990369086016130de565b8251630e50cee560e01b815233818701526020957f00000000000000000000000000000000000000000000000000000000000000006001600160a01b031693909290918781602481885afa9081156102e9578991610d2e575b50610cf1579087939291610c388751151561372d565b855191610c4483612ffd565b878352888301528582015260016060820152823b1561085557610c8b9284928387518096819582946359dd665f60e01b845233908401528a602484015260448301906130fc565b03925af18015610ce757610cd3575b50507f48cac28ad4dc618e15f4c2dd5e97751182f166de97b25618318b2112aa951a2f9161082d91519182918583523395830190612ccf565b610cdc90612fcf565b61085557835f610c9a565b83513d84823e3d90fd5b845162461bcd60e51b81528084018890526017602482015276155cd95c88185b1c9958591e481c9959da5cdd195c9959604a1b6044820152606490fd5b90508781813d8311610d60575b610d45818361306a565b81010312610d5c57610d569061325e565b5f610c22565b8880fd5b503d610d3b565b8580fd5b9190503461043957602036600319011261043957803592610d8a613ab1565b8051637982969360e11b81528083018590527f00000000000000000000000000000000000000000000000000000000000000006001600160a01b031692908481602481875afa908115610e95578591610e7b575b50610deb815115156136e7565b8483820152833b1561084757610e2593868680948651978895869485936328a22b8760e01b85528401528860248401526044830190613169565b03925af1908115610e725750610e5e575b50807f510c8243d59e6c99aa1a4cf786d70d3e2e425109eb3870cc957ccb326a11ea9791a280f35b610e6790612fcf565b61043957815f610e36565b513d84823e3d90fd5b610e8f91503d8087833e61041e818361306a565b5f610dde565b83513d87823e3d90fd5b50346103325760209081600319360112610855578192938135610ec1816138bd565b855192610ecd84613034565b828452821561108c57829190819072184f03e93ff9f4daa797ed6e38ed64bf6a1f0160401b828181101561107f575b508790506904ee2d6d415b85acef8160201b80851015611071575b5050662386f26fc1000080841015611062575b506305f5e10080841015611053575b5061271080841015611045575b50506064821015611035575b600a8092101561102b575b602190889360019281610f8b6001869401610f83610f7a8261308d565b9951998a61306a565b80895261308d565b878b019890601f1901368a3750860101905b610ff6575b5050505092610fd992610fe5926103009588519583610fca8895518092888089019101612cae565b84019151809386840190612cae565b0103808452018261306a565b925b51928284938452830190612ccf565b5f19019083906f181899199a1a9b1b9c1cb0b131b232b360811b8282061a83530491821561102657919082610f9d565b610fa2565b9160010191610f5d565b9190606460029104910191610f52565b930192909104905f80610f46565b6008919493049201925f610f39565b6010919493049201925f610f2a565b94019390920491865f610f17565b8a95500492505f80610efc565b5050505050610300825161109f81613034565b5f815292610fe7565b50903461033257602091826003193601126108555780356110c76131a1565b508251632bd57b5960e21b81528083018290527f00000000000000000000000000000000000000000000000000000000000000006001600160a01b031692908581602481875afa9081156112025787916111c9575b501561118d57906024869285519485938492632e76c56d60e21b84528301525afa938415611182578094611160575b50506103009051928284938452830190612cf4565b6103009294509061117a913d8091833e6102db818361306a565b92905f61114b565b8251903d90823e3d90fd5b835162461bcd60e51b81529081018590526016602482015275141c9bd91d58dd08191bd95cc81b9bdd08195e1a5cdd60521b6044820152606490fd5b90508581813d83116111fb575b6111e0818361306a565b810103126111f7576111f19061325e565b5f61111c565b8680fd5b503d6111d6565b85513d89823e3d90fd5b83823461043957608036600319011261043957611227612deb565b61122f612e01565b906064356001600160401b03811161084757366023820112156108475761126c93816024611262933693013591016130a8565b9160443591613769565b80f35b50346103325760c0366003190112610332576001600160401b03918135838111610847576112a090369084016130de565b9060249384358181116111f7576112ba90369086016130de565b946044918235908111611723576112d490369087016130de565b835163c64b8a8f60e01b81523381880152602097919660843594606435937f00000000000000000000000000000000000000000000000000000000000000006001600160a01b0316939192918b818881885afa9081156116a4578d916116ea575b50156116ae578751635191e94f60e11b815233838201528c818881885afa9081156116a4578d91611688575b50828110156116765760020361163c5761137d8951151561372d565b86156115fc578751637982969360e11b81528281018690528c818881885afa908d82156115f15790818b936115d6575b50500151156115a35787516309b4daef60e21b8152998c969594939291908c8c84818b895af19b8c1561159957889c611566575b508951916113ee83613018565b8c83528d33908401528b8b840152606083015260808201528460a08201528760c082015260a43560e08201524261010082015286610120820152833b156111f75786611458918c8b5193849283926306ad0cb960e01b8452878401528d8b84015287830190612cf4565b038183885af1801561154857908791611552575b5050823b15610d67578751631294b01d60e01b815233828201528581018b90528681848183885af1801561154857908791611534575b5050823b15610d6757858a9381958a51978896879563184c5e5360e31b87528601528401525af1801561152a57611516575b50506115097f5f25c590b5c7f62ed4186adca32d3118caef07e5020c6cc8268d4136df2cfef893835193808552840190612ccf565b948201528033940390a380f35b61151f90612fcf565b610d6757855f6114d4565b84513d84823e3d90fd5b61153d90612fcf565b610d6757855f6114a2565b89513d89823e3d90fd5b61155b90612fcf565b610d6757855f61146c565b8d80929d508199503d8311611592575b611580818361306a565b81010312610885578c96519a5f6113e1565b503d611576565b8a513d8a823e3d90fd5b506f496e76616c69642063617465676f727960801b6064926010878d8b519562461bcd60e51b8752860152840152820152fd5b6115ea92503d8091833e61041e818361306a565b5f8e6113ad565b8a51903d90823e3d90fd5b507f436f7374206d7573742062652067726561746572207468616e207a65726f0000606492601e878d8b519562461bcd60e51b8752860152840152820152fd5b507626bab9ba103132903b32b934b334b2b21039b2b63632b960491b6064926017878d8b519562461bcd60e51b8752860152840152820152fd5b634e487b7160e01b8d5260218352868dfd5b61169c91503d808f833e61058b818361306a565b90505f611361565b89513d8f823e3d90fd5b507826bab9ba103132903932b3b4b9ba32b932b21039b2b63632b960391b6064926019878d8b519562461bcd60e51b8752860152840152820152fd5b90508b81813d831161171c575b611701818361306a565b81010312611718576117129061325e565b5f611335565b8c80fd5b503d6116f7565b8780fd5b50346103325760203660031901126103325782611742612deb565b61174a61344d565b508351635191e94f60e11b81526001600160a01b0391821693810193909352829060249082907f0000000000000000000000000000000000000000000000000000000000000000165afa90811561042d578380926117c6575b50506103006117bb8351948486958652850190612e4c565b916020840190613148565b9091506117de9293503d8091833e61058b818361306a565b9190915f806117a3565b509034610332578060031936011261033257611802612deb565b9060243591821515809303610885576001600160a01b03169233841461187157503384526007602052808420835f52602052805f2060ff1981541660ff8416179055519081527f17307eab39ab6107e8899845ad3d59bd9653f200f220920489ca2b5937696c3160203392a380f35b6020606492519162461bcd60e51b8352820152601960248201527822a9219b99189d1030b8383937bb32903a379031b0b63632b960391b6044820152fd5b612f10565b5090346103325780600319360112610332576118ce612deb565b90836024359284841015610439576118e4613ab1565b6001600160a01b037f000000000000000000000000000000000000000000000000000000000000000081169190823b156108555760448492838751958694859363aa27905960e01b855216809b840152611941602484018b613148565b5af18015610ce757611984575b50507fd8f7bcb2c5cffc294a0aaef719685993d7be95273fb8254803a1563510ccefed91611980602092518092613148565ba280f35b61198d90612fcf565b61085557835f61194e565b509134610aa85780600319360112610aa857815191816003549260018460011c9160018616958615611a79575b6020968785108114611a66578899509688969785829a5291825f14611a3f575050600114611a01575b5050506103009291610fe791038561306a565b9190869350600383528383205b828410611a275750505082010181610fe76103006119ee565b8054848a018601528895508794909301928101611a0e565b60ff19168782015293151560051b86019093019350849250610fe7915061030090506119ee565b634e487b7160e01b835260228a52602483fd5b92607f16926119c5565b505034610439578160031936011261043957905490516001600160a01b039091168152602090f35b509190346104395760a0366003190112610439576001600160401b0390833582811161085557611ade90369086016130de565b906024948535848111610d6757611af890369083016130de565b906044358581116111f757611b1090369083016130de565b9660643586811161172357611b2890369084016130de565b9560843590811161172357611b4090369084016130de565b8451630e50cee560e01b815233848201526020977f00000000000000000000000000000000000000000000000000000000000000006001600160a01b0316959291898186818a5afa908115611d92578b91611dde575b5015611d9c57865163c64b8a8f60e01b81523386820152898186818a5afa908115611d92578b91611d59575b50611d1857875115611cdd57899a8798999a975193611be085612fa0565b8a85528b8501528884015260608301526080820152600160a08201524260c0820152833b156108475784611c279187518093819263283a514f60e11b835233888401613572565b038183885af18015611cd357908591611cbf575b5050823b156108555760448492836001958851968795869463aa27905960e01b865233908601528401525af18015610ce757611cab575b50507fecef9454c60fab6a60b6f2aa319263c0f711cdb927c213e76687f7853b5978429161082d91519182918583523395830190612ccf565b611cb490612fcf565b61085557835f611c72565b611cc890612fcf565b61085557835f611c3b565b86513d87823e3d90fd5b865162461bcd60e51b81528086018a905260168186015275109d5cda5b995cdcc81b985b59481c995c5d5a5c995960521b6044820152606490fd5b865162461bcd60e51b81528086018a9052601c818601527b20b63932b0b23c903932b3b4b9ba32b932b21030b99039b2b63632b960211b6044820152606490fd5b90508981813d8311611d8b575b611d70818361306a565b81010312611d8757611d819061325e565b5f611bc2565b8a80fd5b503d611d66565b88513d8d823e3d90fd5b865162461bcd60e51b81528086018a9052601d818601527f4d757374206265207265676973746572656420757365722066697273740000006044820152606490fd5b90508981813d8311611e0c575b611df5818361306a565b81010312611d8757611e069061325e565b5f611b96565b503d611deb565b8334610aa85780600319360112610aa857611e2c613ab1565b5f80546001600160a01b0319811682556001600160a01b03165f80516020613c4a8339815191528280a380f35b50829034610439576020366003190112610439576001600160a01b03611e7d612deb565b16908115611e9a5760208480858581526005845220549051908152f35b608490602085519162461bcd60e51b8352820152602960248201527f4552433732313a2061646472657373207a65726f206973206e6f7420612076616044820152683634b21037bbb732b960b91b6064820152fd5b509190346104395760209182600319360112610aa857611f0d612deb565b81835191611f1a83612ffd565b8160608481809652818982015281888201520152602460018060a01b0391828751998a948593636f77926b60e01b855216908301527f0000000000000000000000000000000000000000000000000000000000000000165afa948515610ce7578295611f97575b50505061030090519282849384528301906130fc565b90919294503d8084833e611fab818361306a565b810184828203126108555781516001600160401b0392838211610d6757019160808383031261084757865194611fe086612ffd565b83518281116104395783611ff591860161327f565b865286840151828111610439578361200e91860161327f565b8787015287840151918211610aa85750928261203461203e93610300979684960161327f565b888601520161325e565b9082015292905f80611f81565b50903461033257826003193601126103325780516337b4779d60e11b81529183908390817f00000000000000000000000000000000000000000000000000000000000000006001600160a01b03165afa91821561059d578361030094936120b9575b50505191829182612ecc565b6120d69293503d8091833e6120ce818361306a565b810190613594565b905f806120ad565b509034610332576060366003190112610332578135916024356001600160401b0381116108475761211290369083016130de565b916044359182151580930361088557859361212b613ab1565b8251637982969360e11b81528281018790527f00000000000000000000000000000000000000000000000000000000000000006001600160a01b031694908681602481895afa908115611202579061218d918891612227575b505115156136e7565b83519161219983612fe2565b878352602083015283820152833b15610847576121da93868680948651978895869485936328a22b8760e01b85528401528860248401526044830190613169565b03925af1908115610e725750612213575b50807f20611f93bb94c3dcaf404a8f60335558241ab3e3c68f6201b0e1744037220c3f91a280f35b61221c90612fcf565b61043957815f6121eb565b61223b91503d808a833e61041e818361306a565b5f612184565b509134610aa8576020366003190112610aa857506122616020923561365c565b90516001600160a01b039091168152f35b5082903461043957602036600319011261043957803590612291613ab1565b600a821161230957919283927f00000000000000000000000000000000000000000000000000000000000000006001600160a01b031692833b1561084757602485928385519687948593632aafa80760e01b85528401525af1908115610e7257506122f95750f35b61230290612fcf565b610aa85780f35b606490602085519162461bcd60e51b835282015260146024820152730a6cae4ecd2c6ca40cccaca40e8dede40d0d2ced60631b6044820152fd5b509190346104395781600319360112610439578051639b9d326d60e01b8152926020908490817f00000000000000000000000000000000000000000000000000000000000000006001600160a01b03165afa9182156123e157916123ac575b6020925051908152f35b90506020823d6020116123d9575b816123c76020938361306a565b810103126108855760209151906123a2565b3d91506123ba565b9051903d90823e3d90fd5b50919034610885575f36600319011261088557612407613ab1565b5f54815163c64b8a8f60e01b81526001600160a01b039182168582018190527f00000000000000000000000000000000000000000000000000000000000000008316939291602091908281602481895afa90811561261b575f916125e6575b5015612470578580f35b83519161247c83612fa0565b84516124878161304f565b601081526f21b93cb83a37a6b0b93a1020b236b4b760811b82820152835284516124b08161304f565b6016815275283630ba3337b9369020b236b4b734b9ba3930ba37b960511b82820152818401527361646d696e4063727970746f6d6172742e636f6d60601b8551916124fa8361304f565b6014835282015284830152835161251081613034565b5f81526060830152835161252381613034565b5f81526080830152600160a08301524260c0830152843b1561088557835163283a514f60e11b8152915f918391829161255f91908b8401613572565b038183885af180156125dc576125c9575b50938394845416833b156108475760448592838551968794859363aa27905960e01b8552840152600260248401525af1908115610e7257506125b5575b808080808580f35b6125be90612fcf565b610aa857805f6125ad565b6125d4919450612fcf565b5f925f612570565b83513d5f823e3d90fd5b90508281813d8311612614575b6125fd818361306a565b810103126108855761260e9061325e565b5f612466565b503d6125f3565b85513d5f823e3d90fd5b5034610885576020366003190112610885575f612640612deb565b61264861344d565b508351635191e94f60e11b81526001600160a01b0391821693810193909352829060249082907f0000000000000000000000000000000000000000000000000000000000000000165afa9081156126d55791610300925f926126b8575b5051918291602083526020830190612e4c565b6126cd9192503d805f833e61058b818361306a565b5090836126a5565b82513d5f823e3d90fd5b82346108855761001e906126f236612e17565b919251926126ff84613034565b5f8452613769565b346108855761001e61271836612e17565b9161272b61272684336138e1565b6133eb565b6139a5565b509034610885575f366003190112610885578051633302ffb360e11b8152916020908390817f00000000000000000000000000000000000000000000000000000000000000006001600160a01b03165afa908115612798575f916123ac576020925051908152f35b513d5f823e3d90fd5b8234610885575f36600319011261088557517f00000000000000000000000000000000000000000000000000000000000000006001600160a01b03168152602090f35b50346108855781600319360112610885576127fd612deb565b6024359290916001600160a01b03919082806128188761365c565b16941693808514612906578033149081156128e7575b501561287f57505f84815260066020522080546001600160a01b031916831790556128588361365c565b167f8c5be1e5ebec7d5bd14f71427d1e84f3dd0314c0f7b2291e5b200ac8c7c3b9255f80a4005b6020608492519162461bcd60e51b8352820152603d60248201527f4552433732313a20617070726f76652063616c6c6572206973206e6f7420746f60448201527f6b656e206f776e6572206f7220617070726f76656420666f7220616c6c0000006064820152fd5b90505f526007602052815f20335f5260205260ff825f2054168661282e565b506020608492519162461bcd60e51b8352820152602160248201527f4552433732313a20617070726f76616c20746f2063757272656e74206f776e656044820152603960f91b6064820152fd5b50903461088557602036600319011261088557612261602092356133c8565b509034610885575f366003190112610885578051905f906002549160018360011c9060018516948515612a4a575b6020958684108114612a3757838852879493929187908215612a155750506001146129d8575b50506103009291610fe791038561306a565b9085925060025f52825f20915f925b8284106129fd5750505082010181610fe76129c6565b8054848a0186015288955087949093019281016129e7565b60ff19168682015292151560051b85019092019250839150610fe790506129c6565b602289634e487b7160e01b5f525260245ffd5b91607f16916129a0565b509034610885575f366003190112610885578051639b9d326d60e01b81527f00000000000000000000000000000000000000000000000000000000000000006001600160a01b0316919060209081818681875afa9081156125dc575f91612c17575b50612ac0816131ed565b935f9260019660015b84811115612b1f575050505050612adf816131ed565b925f5b828110612af6578351806103008782612d88565b80612b028792846133a0565b51612b0d82886133a0565b52612b1881876133a0565b5001612ae2565b8651632bd57b5960e21b815282810182905260249084818381895afa908115612c0d575f91612bd8575b50612b5e575b50612b599061323c565b612ac9565b5f88518092632e76c56d60e21b8252848683015281885afa908115612bce575f91612bb4575b50610120810151612b4f5786612bad91612ba2612b5994998c6133a0565b52610a4a818b6133a0565b9590612b4f565b612bc891503d805f833e6102db818361306a565b8a612b84565b88513d5f823e3d90fd5b90508481813d8311612c06575b612bef818361306a565b8101031261088557612c009061325e565b8b612b49565b503d612be5565b89513d5f823e3d90fd5b90508181813d8311612c3d575b612c2e818361306a565b81010312610885575185612ab6565b503d612c24565b823461088557602036600319011261088557359063ffffffff60e01b8216809203610885576020916380ac58cd60e01b8114908115612c9d575b8115612c8c575b5015158152f35b6301ffc9a760e01b14905083612c85565b635b5e139f60e01b81149150612c7e565b5f5b838110612cbf5750505f910152565b8181015183820152602001612cb0565b90602091612ce881518092818552858086019101612cae565b601f01601f1916010190565b90612d4f612d3d612d2b6101408551855260018060a01b036020870151166020860152604086015190806040870152850190612ccf565b60608501518482036060860152612ccf565b60808401518382036080850152612ccf565b9160a081015160a083015260c081015160c083015260e081015160e0830152610100808201519083015261012080910151151591015290565b6020808201906020835283518092526040830192602060408460051b8301019501935f915b848310612dbd5750505050505090565b9091929394958480612ddb600193603f198682030187528a51612cf4565b9801930193019194939290612dad565b600435906001600160a01b038216820361088557565b602435906001600160a01b038216820361088557565b6060906003190112610885576001600160a01b0390600435828116810361088557916024359081168103610885579060443590565b9060c080612eb7612ea5612e93612e81612e6f885160e0895260e0890190612ccf565b602089015188820360208a0152612ccf565b60408801518782036040890152612ccf565b60608701518682036060880152612ccf565b60808601518582036080870152612ccf565b9360a0810151151560a0850152015191015290565b60209060206040818301928281528551809452019301915f5b828110612ef3575050505090565b83516001600160a01b031685529381019392810192600101612ee5565b34610885575f3660031901126108855760405162b5ad4b60e71b81525f816004817f00000000000000000000000000000000000000000000000000000000000000006001600160a01b03165afa8015612f9557610300915f91612f7b575b5060405191829182612ecc565b612f8f91503d805f833e6120ce818361306a565b5f612f6e565b6040513d5f823e3d90fd5b60e081019081106001600160401b03821117612fbb57604052565b634e487b7160e01b5f52604160045260245ffd5b6001600160401b038111612fbb57604052565b606081019081106001600160401b03821117612fbb57604052565b608081019081106001600160401b03821117612fbb57604052565b61014081019081106001600160401b03821117612fbb57604052565b602081019081106001600160401b03821117612fbb57604052565b604081019081106001600160401b03821117612fbb57604052565b601f909101601f19168101906001600160401b03821190821017612fbb57604052565b6001600160401b038111612fbb57601f01601f191660200190565b9291926130b48261308d565b916130c2604051938461306a565b829481845281830111610885578281602093845f960137010152565b9080601f83011215610885578160206130f9933591016130a8565b90565b9060608061313d61312b6131198651608087526080870190612ccf565b60208701518682036020880152612ccf565b60408601518582036040870152612ccf565b930151151591015290565b9060048210156131555752565b634e487b7160e01b5f52602160045260245ffd5b908151815260408061313d6020850151606060208601526060850190612ccf565b6001600160401b038111612fbb5760051b60200190565b604051906131ae82613018565b5f6101208382815282602082015260606040820152606080820152606060808201528260a08201528260c08201528260e0820152826101008201520152565b906131f78261318a565b613204604051918261306a565b8281528092613215601f199161318a565b01905f5b82811061322557505050565b6020906132306131a1565b82828501015201613219565b5f19811461324a5760010190565b634e487b7160e01b5f52601160045260245ffd5b5190811515820361088557565b51906001600160a01b038216820361088557565b81601f820112156108855780516132958161308d565b926132a3604051948561306a565b81845260208284010111610885576130f99160208085019101612cae565b6020818303126108855780516001600160401b03918282116108855701906101408284031261088557604051926132f784613018565b825184526133076020840161326b565b60208501526040830151828111610885578161332491850161327f565b60408501526060830151828111610885578161334191850161327f565b606085015260808301519182116108855761335d91830161327f565b608083015260a081015160a083015260c081015160c083015260e081015160e0830152610100808201519083015261339961012080920161325e565b9082015290565b80518210156133b45760209160051b010190565b634e487b7160e01b5f52603260045260245ffd5b6133d1816138bd565b5f908152600660205260409020546001600160a01b031690565b156133f257565b60405162461bcd60e51b815260206004820152602d60248201527f4552433732313a2063616c6c6572206973206e6f7420746f6b656e206f776e6560448201526c1c881bdc88185c1c1c9bdd9959609a1b6064820152608490fd5b6040519061345a82612fa0565b5f60c0836060808252806020830152806040830152808083015260808201528260a08201520152565b91906040838203126108855782516001600160401b0391908281116108855784019060e08282031261088557604051916134bc83612fa0565b805184811161088557826134d191830161327f565b8352602081015184811161088557826134eb91830161327f565b60208401526040810151848111610885578261350891830161327f565b60408401526060810151848111610885578261352591830161327f565b606084015260808101519384116108855761354660c092602095830161327f565b608084015261355760a0820161325e565b60a0840152015160c082015292015160048110156108855790565b6001600160a01b0390911681526040602082018190526130f992910190612e4c565b6020908181840312610885578051906001600160401b03821161088557019180601f840112156108855782516135c98161318a565b936135d7604051958661306a565b818552838086019260051b820101928311610885578301905b8282106135fe575050505090565b83809161360a8461326b565b8152019101906135f0565b1561361c57565b60405162461bcd60e51b8152602060048201526018602482015277115490cdcc8c4e881a5b9d985b1a59081d1bdad95b88125160421b6044820152606490fd5b5f908152600460205260409020546001600160a01b03166130f9811515613615565b6020818303126108855780516001600160401b039182821161088557019160608382031261088557604051926136b384612fe2565b805184526020810151928311610885576136d46040926136df94830161327f565b60208501520161325e565b604082015290565b156136ee57565b60405162461bcd60e51b815260206004820152601760248201527610d85d1959dbdc9e48191bd95cc81b9bdd08195e1a5cdd604a1b6044820152606490fd5b1561373457565b60405162461bcd60e51b815260206004820152600d60248201526c13985b59481c995c5d5a5c9959609a1b6044820152606490fd5b9061378d93929161377d61272684336138e1565b6137888383836139a5565b613b5b565b1561379457565b60405162461bcd60e51b8152806137ad60048201613b08565b0390fd5b3d156137db573d906137c28261308d565b916137d0604051938461306a565b82523d5f602084013e565b606090565b906137ea8261318a565b6040906137fa604051918261306a565b838152809361380b601f199161318a565b01915f5b83811061381c5750505050565b602090825161382a81612fe2565b5f8152826060818301525f8583015282860101520161380f565b6020908181840312610885578051906001600160401b03821161088557019180601f840112156108855782516138798161318a565b93613887604051958661306a565b818552838086019260051b820101928311610885578301905b8282106138ae575050505090565b815181529083019083016138a0565b5f908152600460205260409020546138df906001600160a01b03161515613615565b565b906001600160a01b0380806138f58461365c565b16931691838314938415613928575b508315613912575b50505090565b61391e919293506133c8565b16145f808061390c565b9093505f52600760205260405f20825f5260205260ff60405f205416925f613904565b1561395257565b60405162461bcd60e51b815260206004820152602560248201527f4552433732313a207472616e736665722066726f6d20696e636f72726563742060448201526437bbb732b960d91b6064820152608490fd5b906139cd916139b38461365c565b6001600160a01b039391841692849290918316841461394b565b16918215613a6057816139ea916139e38661365c565b161461394b565b825f52600660205260405f2060018060a01b031990818154169055815f52600560205260405f205f198154019055825f5260405f2060018154019055835f5260046020528260405f20918254161790557fddf252ad1be2c89b69c2b068fc378daa952ba7f163c4a11628f55a4df523b3ef5f80a4565b60405162461bcd60e51b8152602060048201526024808201527f4552433732313a207472616e7366657220746f20746865207a65726f206164646044820152637265737360e01b6064820152608490fd5b5f546001600160a01b03163303613ac457565b606460405162461bcd60e51b815260206004820152602060248201527f4f776e61626c653a2063616c6c6572206973206e6f7420746865206f776e65726044820152fd5b60809060208152603260208201527f4552433732313a207472616e7366657220746f206e6f6e20455243373231526560408201527131b2b4bb32b91034b6b83632b6b2b73a32b960711b60608201520190565b92909190823b15613c4057613bad926020925f60018060a01b0360405180978196829584630a85bd0160e11b9c8d86523360048701521660248501526044840152608060648401526084830190612ccf565b0393165af15f9181613bfb575b50613bed57613bc76137b1565b80519081613be85760405162461bcd60e51b8152806137ad60048201613b08565b602001fd5b6001600160e01b0319161490565b9091506020813d602011613c38575b81613c176020938361306a565b8101031261088557516001600160e01b03198116810361088557905f613bba565b3d9150613c0a565b5050505060019056fe8be0079c531659141344cd1fd0a4f28419497f9722a3daafe3b4186f6b6457e0a164736f6c6343000818000a",
  "linkReferences": {},
  "deployedLinkReferences": {}
}