{
  "_format": "hh-sol-artifact-1",
  "contractName": "CryptoMartRegistry",
  "sourceName": "contracts/CryptoMartRegistry.sol",
  "abi": [
    {
      "inputs": [],
      "stateMutability": "nonpayable",
      "type": "constructor"
    },
    {
      "anonymous": false,
      "inputs": [
        {
          "indexed": false,
          "internalType": "uint8",
          "name": "contractType",
          "type": "uint8"
        },
        {
          "indexed": false,
          "internalType": "address",
          "name": "oldAddress",
          "type": "address"
        },
        {
          "indexed": false,
          "internalType": "address",
          "name": "newAddress",
          "type": "address"
        }
      ],
      "name": "ContractUpgraded",
      "type": "event"
    },
    {
      "anonymous": false,
      "inputs": [
        {
          "indexed": true,
          "internalType": "address",
          "name": "previousOwner",
          "type": "address"
        },
        {
          "indexed": true,
          "internalType": "address",
          "name": "newOwner",
          "type": "address"
        }
      ],
      "name": "OwnershipTransferred",
      "type": "event"
    },
    {
      "anonymous": false,
      "inputs": [
        {
          "indexed": true,
          "internalType": "address",
          "name": "storage_",
          "type": "address"
        },
        {
          "indexed": true,
          "internalType": "address",
          "name": "core",
          "type": "address"
        },
        {
          "indexed": true,
          "internalType": "address",
          "name": "transactions",
          "type": "address"
        },
        {
          "indexed": false,
          "internalType": "uint256",
          "name": "timestamp",
          "type": "uint256"
        }
      ],
      "name": "SystemConfigured",
      "type": "event"
    },
    {
      "inputs": [
        {
          "internalType": "address",
          "name": "_storage",
          "type": "address"
        },
        {
          "internalType": "address",
          "name": "_core",
          "type": "address"
        },
        {
          "internalType": "address",
          "name": "_transactions",
          "type": "address"
        }
      ],
      "name": "configureSystem",
      "outputs": [],
      "stateMutability": "nonpayable",
      "type": "function"
    },
    {
      "inputs": [],
      "name": "coreContract",
      "outputs": [
        {
          "internalType": "address",
          "name": "",
          "type": "address"
        }
      ],
      "stateMutability": "view",
      "type": "function"
    },
    {
      "inputs": [],
      "name": "deploymentTimestamp",
      "outputs": [
        {
          "internalType": "uint256",
          "name": "",
          "type": "uint256"
        }
      ],
      "stateMutability": "view",
      "type": "function"
    },
    {
      "inputs": [],
      "name": "getContractAddresses",
      "outputs": [
        {
          "internalType": "address",
          "name": "storage_",
          "type": "address"
        },
        {
          "internalType": "address",
          "name": "core",
          "type": "address"
        },
        {
          "internalType": "address",
          "name": "transactions",
          "type": "address"
        }
      ],
      "stateMutability": "view",
      "type": "function"
    },
    {
      "inputs": [],
      "name": "isConfigured",
      "outputs": [
        {
          "internalType": "bool",
          "name": "",
          "type": "bool"
        }
      ],
      "stateMutability": "view",
      "type": "function"
    },
    {
      "inputs": [],
      "name": "owner",
      "outputs": [
        {
          "internalType": "address",
          "name": "",
          "type": "address"
        }
      ],
      "stateMutability": "view",
      "type": "function"
    },
    {
      "inputs": [],
      "name": "renounceOwnership",
      "outputs": [],
      "stateMutability": "nonpayable",
      "type": "function"
    },
    {
      "inputs": [],
      "name": "storageContract",
      "outputs": [
        {
          "internalType": "address",
          "name": "",
          "type": "address"
        }
      ],
      "stateMutability": "view",
      "type": "function"
    },
    {
      "inputs": [],
      "name": "transactionsContract",
      "outputs": [
        {
          "internalType": "address",
          "name": "",
          "type": "address"
        }
      ],
      "stateMutability": "view",
      "type": "function"
    },
    {
      "inputs": [
        {
          "internalType": "address",
          "name": "newOwner",
          "type": "address"
        }
      ],
      "name": "transferOwnership",
      "outputs": [],
      "stateMutability": "nonpayable",
      "type": "function"
    },
    {
      "inputs": [
        {
          "internalType": "uint8",
          "name": "contractType",
          "type": "uint8"
        },
        {
          "internalType": "address",
          "name": "newAddress",
          "type": "address"
        }
      ],
      "name": "updateContract",
      "outputs": [],
      "stateMutability": "nonpayable",
      "type": "function"
    }
  ],
  "bytecode": "0x60808060405234610067575f8054336001600160a01b0319821681178355916001600160a01b03909116907f8be0079c531659141344cd1fd0a4f28419497f9722a3daafe3b4186f6b6457e09080a36003805460ff60a01b1916905561070a908161006c8239f35b5f80fdfe604060808152600480361015610013575f80fd5b5f3560e01c806310779dda1461042f57806311ce026714610407578063715018a6146103c35780638da5cb5b1461039c578063953874d214610350578063bfc12c0514610333578063d3a057c81461030d578063e17f94c0146102e5578063e80db5db146102bd578063f0b2c40e146101445763f2fde38b14610094575f80fd5b34610140576020366003190112610140576100ad6105f6565b906100b6610666565b6001600160a01b039182169283156100ee5750505f548260018060a01b03198216175f55165f805160206106de8339815191525f80a3005b906020608492519162461bcd60e51b8352820152602660248201527f4f776e61626c653a206e6577206f776e657220697320746865207a65726f206160448201526564647265737360d01b6064820152fd5b5f80fd5b503461014057816003193601126101405780359060ff82168092036101405761016b61060c565b610173610666565b60035461018560ff8260a01c16610622565b6001600160a01b0391821692831561028857846101dc575050600180546001600160a01b0319811684179091555f805160206106be833981519152946060949392909181165b8251948552166020840152820152a1005b60018503610217575050600280546001600160a01b0319811684179091555f805160206106be833981519152946060949392909181166101cb565b6002850361024d57506001600160a01b0319811683176003555f805160206106be833981519152946060949392909181166101cb565b606490602087519162461bcd60e51b83528201526015602482015274496e76616c696420636f6e7472616374207479706560581b6044820152fd5b606490602087519162461bcd60e51b8352820152600f60248201526e496e76616c6964206164647265737360881b6044820152fd5b8234610140575f3660031901126101405760025490516001600160a01b039091168152602090f35b8234610140575f3660031901126101405760035490516001600160a01b039091168152602090f35b8234610140575f3660031901126101405760209060ff60035460a01c1690519015158152f35b509034610140575f36600319011261014057602091549051908152f35b8234610140575f366003190112610140576060906003549061037760ff8360a01c16610622565b60015460025482516001600160a01b0392831681529082166020820152921690820152f35b8234610140575f366003190112610140575f5490516001600160a01b039091168152602090f35b34610140575f366003190112610140576103db610666565b5f80546001600160a01b0319811682556001600160a01b03165f805160206106de8339815191528280a3005b8234610140575f3660031901126101405760015490516001600160a01b039091168152602090f35b5090346101405760603660031901126101405761044a6105f6565b9061045361060c565b906044359360018060a01b0380861680960361014057610471610666565b6003549460ff8660a01c166105b757811693841561057a57169384156105405785156104fe57600180546001600160a01b0319908116861790915560028054909116861790556001600160a81b0319168517600160a01b17600355429081905590519081527f5290d34137701b8ef281da7d6bc57513f66e019328559211169d3ce6808c12ab90602090a4005b506020606492519162461bcd60e51b8352820152601c60248201527b496e76616c6964207472616e73616374696f6e73206164647265737360201b6044820152fd5b506020606492519162461bcd60e51b83528201526014602482015273496e76616c696420636f7265206164647265737360601b6044820152fd5b835162461bcd60e51b81526020818501526017602482015276496e76616c69642073746f72616765206164647265737360481b6044820152606490fd5b835162461bcd60e51b8152602081850152601960248201527814de5cdd195b48185b1c9958591e4818dbdb999a59dd5c9959603a1b6044820152606490fd5b600435906001600160a01b038216820361014057565b602435906001600160a01b038216820361014057565b1561062957565b60405162461bcd60e51b815260206004820152601560248201527414de5cdd195b481b9bdd0818dbdb999a59dd5c9959605a1b6044820152606490fd5b5f546001600160a01b0316330361067957565b606460405162461bcd60e51b815260206004820152602060248201527f4f776e61626c653a2063616c6c6572206973206e6f7420746865206f776e65726044820152fdfe23567ab4c98f6e22d2bd3a6e75caa90db4ab9e9b71d3cd77e661b01004a99b0e8be0079c531659141344cd1fd0a4f28419497f9722a3daafe3b4186f6b6457e0a164736f6c6343000818000a",
  "linkReferences": {},
  "deployedLinkReferences": {}
}