{
  "_format": "hh-sol-artifact-1",
  "contractName": "HemShop",
  "sourceName": "contracts/HemShop.sol",
  "abi": [
    {
      "inputs": [
        {
          "internalType": "uint256",
          "name": "_pct",
          "type": "uint256"
        }
      ],
      "stateMutability": "nonpayable",
      "type": "constructor"
    },
    {
      "anonymous": false,
      "inputs": [
        {
          "indexed": false,
          "internalType": "address",
          "name": "admin",
          "type": "address"
        },
        {
          "indexed": false,
          "internalType": "address",
          "name": "impersonatedAccount",
          "type": "address"
        }
      ],
      "name": "AdminImpersonationChanged",
      "type": "event"
    },
    {
      "anonymous": false,
      "inputs": [
        {
          "indexed": true,
          "internalType": "address",
          "name": "owner",
          "type": "address"
        },
        {
          "indexed": true,
          "internalType": "address",
          "name": "approved",
          "type": "address"
        },
        {
          "indexed": true,
          "internalType": "uint256",
          "name": "tokenId",
          "type": "uint256"
        }
      ],
      "name": "Approval",
      "type": "event"
    },
    {
      "anonymous": false,
      "inputs": [
        {
          "indexed": true,
          "internalType": "address",
          "name": "owner",
          "type": "address"
        },
        {
          "indexed": true,
          "internalType": "address",
          "name": "operator",
          "type": "address"
        },
        {
          "indexed": false,
          "internalType": "bool",
          "name": "approved",
          "type": "bool"
        }
      ],
      "name": "ApprovalForAll",
      "type": "event"
    },
    {
      "anonymous": false,
      "inputs": [
        {
          "indexed": true,
          "internalType": "address",
          "name": "seller",
          "type": "address"
        },
        {
          "indexed": false,
          "internalType": "uint256",
          "name": "newBalance",
          "type": "uint256"
        }
      ],
      "name": "BalanceUpdated",
      "type": "event"
    },
    {
      "anonymous": false,
      "inputs": [
        {
          "indexed": true,
          "internalType": "uint256",
          "name": "id",
          "type": "uint256"
        },
        {
          "indexed": false,
          "internalType": "string",
          "name": "name",
          "type": "string"
        }
      ],
      "name": "CategoryCreated",
      "type": "event"
    },
    {
      "anonymous": false,
      "inputs": [
        {
          "indexed": true,
          "internalType": "uint256",
          "name": "id",
          "type": "uint256"
        },
        {
          "indexed": false,
          "internalType": "string",
          "name": "name",
          "type": "string"
        },
        {
          "indexed": false,
          "internalType": "bool",
          "name": "isActive",
          "type": "bool"
        }
      ],
      "name": "CategoryUpdated",
      "type": "event"
    },
    {
      "anonymous": false,
      "inputs": [
        {
          "indexed": true,
          "internalType": "uint256",
          "name": "productId",
          "type": "uint256"
        },
        {
          "indexed": true,
          "internalType": "address",
          "name": "buyer",
          "type": "address"
        },
        {
          "indexed": false,
          "internalType": "bool",
          "name": "isDelivered",
          "type": "bool"
        }
      ],
      "name": "DeliveryStatusUpdated",
      "type": "event"
    },
    {
      "anonymous": false,
      "inputs": [
        {
          "indexed": true,
          "internalType": "address",
          "name": "previousOwner",
          "type": "address"
        },
        {
          "indexed": true,
          "internalType": "address",
          "name": "newOwner",
          "type": "address"
        }
      ],
      "name": "OwnershipTransferred",
      "type": "event"
    },
    {
      "anonymous": false,
      "inputs": [
        {
          "indexed": true,
          "internalType": "uint256",
          "name": "productId",
          "type": "uint256"
        },
        {
          "indexed": true,
          "internalType": "address",
          "name": "buyer",
          "type": "address"
        },
        {
          "indexed": true,
          "internalType": "address",
          "name": "seller",
          "type": "address"
        },
        {
          "indexed": false,
          "internalType": "uint256",
          "name": "price",
          "type": "uint256"
        },
        {
          "indexed": false,
          "internalType": "uint256",
          "name": "timestamp",
          "type": "uint256"
        }
      ],
      "name": "ProductPurchased",
      "type": "event"
    },
    {
      "anonymous": false,
      "inputs": [
        {
          "indexed": true,
          "internalType": "uint256",
          "name": "productId",
          "type": "uint256"
        },
        {
          "indexed": true,
          "internalType": "address",
          "name": "buyer",
          "type": "address"
        },
        {
          "indexed": true,
          "internalType": "address",
          "name": "seller",
          "type": "address"
        },
        {
          "indexed": false,
          "internalType": "uint256",
          "name": "totalAmount",
          "type": "uint256"
        },
        {
          "indexed": false,
          "internalType": "uint256",
          "name": "basePrice",
          "type": "uint256"
        },
        {
          "indexed": false,
          "internalType": "uint256",
          "name": "timestamp",
          "type": "uint256"
        }
      ],
      "name": "PurchaseRecorded",
      "type": "event"
    },
    {
      "anonymous": false,
      "inputs": [
        {
          "indexed": true,
          "internalType": "address",
          "name": "seller",
          "type": "address"
        },
        {
          "indexed": false,
          "internalType": "uint256",
          "name": "timestamp",
          "type": "uint256"
        }
      ],
      "name": "SellerRegistered",
      "type": "event"
    },
    {
      "anonymous": false,
      "inputs": [
        {
          "indexed": true,
          "internalType": "address",
          "name": "seller",
          "type": "address"
        },
        {
          "indexed": false,
          "internalType": "enum HemShop.SellerStatus",
          "name": "status",
          "type": "uint8"
        }
      ],
      "name": "SellerStatusUpdated",
      "type": "event"
    },
    {
      "anonymous": false,
      "inputs": [
        {
          "indexed": true,
          "internalType": "uint256",
          "name": "id",
          "type": "uint256"
        },
        {
          "indexed": true,
          "internalType": "uint256",
          "name": "parentId",
          "type": "uint256"
        },
        {
          "indexed": false,
          "internalType": "string",
          "name": "name",
          "type": "string"
        }
      ],
      "name": "SubCategoryCreated",
      "type": "event"
    },
    {
      "anonymous": false,
      "inputs": [
        {
          "indexed": true,
          "internalType": "uint256",
          "name": "id",
          "type": "uint256"
        },
        {
          "indexed": false,
          "internalType": "string",
          "name": "name",
          "type": "string"
        },
        {
          "indexed": false,
          "internalType": "bool",
          "name": "isActive",
          "type": "bool"
        }
      ],
      "name": "SubCategoryUpdated",
      "type": "event"
    },
    {
      "anonymous": false,
      "inputs": [
        {
          "indexed": true,
          "internalType": "address",
          "name": "from",
          "type": "address"
        },
        {
          "indexed": true,
          "internalType": "address",
          "name": "to",
          "type": "address"
        },
        {
          "indexed": true,
          "internalType": "uint256",
          "name": "tokenId",
          "type": "uint256"
        }
      ],
      "name": "Transfer",
      "type": "event"
    },
    {
      "anonymous": false,
      "inputs": [
        {
          "indexed": true,
          "internalType": "address",
          "name": "user",
          "type": "address"
        },
        {
          "indexed": false,
          "internalType": "string",
          "name": "name",
          "type": "string"
        }
      ],
      "name": "UserRegistered",
      "type": "event"
    },
    {
      "inputs": [
        {
          "internalType": "address",
          "name": "",
          "type": "address"
        }
      ],
      "name": "adminImpersonating",
      "outputs": [
        {
          "internalType": "address",
          "name": "",
          "type": "address"
        }
      ],
      "stateMutability": "view",
      "type": "function"
    },
    {
      "inputs": [
        {
          "internalType": "address",
          "name": "to",
          "type": "address"
        },
        {
          "internalType": "uint256",
          "name": "tokenId",
          "type": "uint256"
        }
      ],
      "name": "approve",
      "outputs": [],
      "stateMutability": "nonpayable",
      "type": "function"
    },
    {
      "inputs": [
        {
          "internalType": "address",
          "name": "owner",
          "type": "address"
        }
      ],
      "name": "balanceOf",
      "outputs": [
        {
          "internalType": "uint256",
          "name": "",
          "type": "uint256"
        }
      ],
      "stateMutability": "view",
      "type": "function"
    },
    {
      "inputs": [
        {
          "internalType": "uint256",
          "name": "productId",
          "type": "uint256"
        },
        {
          "components": [
            {
              "internalType": "string",
              "name": "fullName",
              "type": "string"
            },
            {
              "internalType": "string",
              "name": "streetAddress",
              "type": "string"
            },
            {
              "internalType": "string",
              "name": "city",
              "type": "string"
            },
            {
              "internalType": "string",
              "name": "state",
              "type": "string"
            },
            {
              "internalType": "string",
              "name": "country",
              "type": "string"
            },
            {
              "internalType": "string",
              "name": "postalCode",
              "type": "string"
            },
            {
              "internalType": "string",
              "name": "phone",
              "type": "string"
            },
            {
              "internalType": "string",
              "name": "email",
              "type": "string"
            }
          ],
          "internalType": "struct HemShop.ShippingDetails",
          "name": "shippingDetails",
          "type": "tuple"
        },
        {
          "internalType": "string",
          "name": "selectedColor",
          "type": "string"
        },
        {
          "internalType": "string",
          "name": "selectedSize",
          "type": "string"
        },
        {
          "internalType": "uint256",
          "name": "quantity",
          "type": "uint256"
        }
      ],
      "name": "buyProduct",
      "outputs": [],
      "stateMutability": "payable",
      "type": "function"
    },
    {
      "inputs": [
        {
          "internalType": "address",
          "name": "",
          "type": "address"
        },
        {
          "internalType": "uint256",
          "name": "",
          "type": "uint256"
        }
      ],
      "name": "buyerPurchaseHistory",
      "outputs": [
        {
          "internalType": "uint256",
          "name": "productId",
          "type": "uint256"
        },
        {
          "internalType": "uint256",
          "name": "totalAmount",
          "type": "uint256"
        },
        {
          "internalType": "uint256",
          "name": "basePrice",
          "type": "uint256"
        },
        {
          "internalType": "uint256",
          "name": "timestamp",
          "type": "uint256"
        },
        {
          "internalType": "uint256",
          "name": "lastUpdated",
          "type": "uint256"
        },
        {
          "internalType": "address",
          "name": "buyer",
          "type": "address"
        },
        {
          "internalType": "address",
          "name": "seller",
          "type": "address"
        },
        {
          "internalType": "bool",
          "name": "isDelivered",
          "type": "bool"
        },
        {
          "components": [
            {
              "internalType": "string",
              "name": "fullName",
              "type": "string"
            },
            {
              "internalType": "string",
              "name": "streetAddress",
              "type": "string"
            },
            {
              "internalType": "string",
              "name": "city",
              "type": "string"
            },
            {
              "internalType": "string",
              "name": "state",
              "type": "string"
            },
            {
              "internalType": "string",
              "name": "country",
              "type": "string"
            },
            {
              "internalType": "string",
              "name": "postalCode",
              "type": "string"
            },
            {
              "internalType": "string",
              "name": "phone",
              "type": "string"
            },
            {
              "internalType": "string",
              "name": "email",
              "type": "string"
            }
          ],
          "internalType": "struct HemShop.ShippingDetails",
          "name": "shippingDetails",
          "type": "tuple"
        },
        {
          "components": [
            {
              "internalType": "string",
              "name": "name",
              "type": "string"
            },
            {
              "internalType": "string[]",
              "name": "images",
              "type": "string[]"
            },
            {
              "internalType": "string",
              "name": "selectedColor",
              "type": "string"
            },
            {
              "internalType": "string",
              "name": "selectedSize",
              "type": "string"
            },
            {
              "internalType": "uint256",
              "name": "quantity",
              "type": "uint256"
            },
            {
              "internalType": "string",
              "name": "category",
              "type": "string"
            },
            {
              "internalType": "string",
              "name": "description",
              "type": "string"
            }
          ],
          "internalType": "struct HemShop.OrderDetails",
          "name": "orderDetails",
          "type": "tuple"
        }
      ],
      "stateMutability": "view",
      "type": "function"
    },
    {
      "inputs": [
        {
          "internalType": "uint256",
          "name": "newPct",
          "type": "uint256"
        }
      ],
      "name": "changeServicePct",
      "outputs": [],
      "stateMutability": "nonpayable",
      "type": "function"
    },
    {
      "inputs": [
        {
          "internalType": "string",
          "name": "_name",
          "type": "string"
        }
      ],
      "name": "createCategory",
      "outputs": [],
      "stateMutability": "nonpayable",
      "type": "function"
    },
    {
      "inputs": [
        {
          "components": [
            {
              "internalType": "string",
              "name": "name",
              "type": "string"
            },
            {
              "internalType": "string",
              "name": "description",
              "type": "string"
            },
            {
              "internalType": "uint256",
              "name": "price",
              "type": "uint256"
            },
            {
              "internalType": "uint256",
              "name": "stock",
              "type": "uint256"
            },
            {
              "internalType": "string[]",
              "name": "colors",
              "type": "string[]"
            },
            {
              "internalType": "string[]",
              "name": "sizes",
              "type": "string[]"
            },
            {
              "internalType": "string[]",
              "name": "images",
              "type": "string[]"
            },
            {
              "internalType": "uint256",
              "name": "categoryId",
              "type": "uint256"
            },
            {
              "internalType": "uint256",
              "name": "subCategoryId",
              "type": "uint256"
            },
            {
              "internalType": "uint256",
              "name": "weight",
              "type": "uint256"
            },
            {
              "internalType": "string",
              "name": "model",
              "type": "string"
            },
            {
              "internalType": "string",
              "name": "brand",
              "type": "string"
            },
            {
              "internalType": "uint256",
              "name": "sku",
              "type": "uint256"
            }
          ],
          "internalType": "struct HemShop.ProductInput",
          "name": "input",
          "type": "tuple"
        }
      ],
      "name": "createProduct",
      "outputs": [],
      "stateMutability": "nonpayable",
      "type": "function"
    },
    {
      "inputs": [
        {
          "internalType": "uint256",
          "name": "productId",
          "type": "uint256"
        },
        {
          "internalType": "uint256",
          "name": "rating",
          "type": "uint256"
        },
        {
          "internalType": "string",
          "name": "comment",
          "type": "string"
        }
      ],
      "name": "createReview",
      "outputs": [],
      "stateMutability": "nonpayable",
      "type": "function"
    },
    {
      "inputs": [
        {
          "internalType": "uint256",
          "name": "parentId",
          "type": "uint256"
        },
        {
          "internalType": "string[]",
          "name": "names",
          "type": "string[]"
        }
      ],
      "name": "createSubCategoriesBulk",
      "outputs": [],
      "stateMutability": "nonpayable",
      "type": "function"
    },
    {
      "inputs": [
        {
          "internalType": "uint256",
          "name": "_parentId",
          "type": "uint256"
        },
        {
          "internalType": "string",
          "name": "_name",
          "type": "string"
        }
      ],
      "name": "createSubCategory",
      "outputs": [],
      "stateMutability": "nonpayable",
      "type": "function"
    },
    {
      "inputs": [
        {
          "internalType": "uint256",
          "name": "_id",
          "type": "uint256"
        }
      ],
      "name": "deleteCategory",
      "outputs": [],
      "stateMutability": "nonpayable",
      "type": "function"
    },
    {
      "inputs": [
        {
          "internalType": "uint256",
          "name": "productId",
          "type": "uint256"
        }
      ],
      "name": "deleteProduct",
      "outputs": [],
      "stateMutability": "nonpayable",
      "type": "function"
    },
    {
      "inputs": [
        {
          "internalType": "uint256",
          "name": "productId",
          "type": "uint256"
        },
        {
          "internalType": "uint256",
          "name": "reviewId",
          "type": "uint256"
        }
      ],
      "name": "deleteReview",
      "outputs": [],
      "stateMutability": "nonpayable",
      "type": "function"
    },
    {
      "inputs": [
        {
          "internalType": "uint256",
          "name": "_id",
          "type": "uint256"
        }
      ],
      "name": "deleteSubCategory",
      "outputs": [],
      "stateMutability": "nonpayable",
      "type": "function"
    },
    {
      "inputs": [],
      "name": "getAllCategories",
      "outputs": [
        {
          "internalType": "uint256[]",
          "name": "ids",
          "type": "uint256[]"
        },
        {
          "internalType": "string[]",
          "name": "names",
          "type": "string[]"
        },
        {
          "internalType": "bool[]",
          "name": "activeStates",
          "type": "bool[]"
        },
        {
          "internalType": "uint256[][]",
          "name": "subCategoryIdArrays",
          "type": "uint256[][]"
        }
      ],
      "stateMutability": "view",
      "type": "function"
    },
    {
      "inputs": [],
      "name": "getAllProducts",
      "outputs": [
        {
          "components": [
            {
              "internalType": "uint256",
              "name": "id",
              "type": "uint256"
            },
            {
              "internalType": "address",
              "name": "seller",
              "type": "address"
            },
            {
              "internalType": "string",
              "name": "name",
              "type": "string"
            },
            {
              "internalType": "string",
              "name": "description",
              "type": "string"
            },
            {
              "internalType": "uint256",
              "name": "price",
              "type": "uint256"
            },
            {
              "internalType": "uint256",
              "name": "stock",
              "type": "uint256"
            },
            {
              "internalType": "string[]",
              "name": "colors",
              "type": "string[]"
            },
            {
              "internalType": "string[]",
              "name": "sizes",
              "type": "string[]"
            },
            {
              "internalType": "string[]",
              "name": "images",
              "type": "string[]"
            },
            {
              "internalType": "string",
              "name": "category",
              "type": "string"
            },
            {
              "internalType": "string",
              "name": "subCategory",
              "type": "string"
            },
            {
              "internalType": "uint256",
              "name": "weight",
              "type": "uint256"
            },
            {
              "internalType": "string",
              "name": "model",
              "type": "string"
            },
            {
              "internalType": "string",
              "name": "brand",
              "type": "string"
            },
            {
              "internalType": "uint256",
              "name": "sku",
              "type": "uint256"
            },
            {
              "internalType": "bool",
              "name": "soldout",
              "type": "bool"
            },
            {
              "internalType": "bool",
              "name": "wishlist",
              "type": "bool"
            },
            {
              "internalType": "bool",
              "name": "deleted",
              "type": "bool"
            },
            {
              "components": [
                {
                  "internalType": "uint256",
                  "name": "reviewId",
                  "type": "uint256"
                },
                {
                  "internalType": "address",
                  "name": "reviewer",
                  "type": "address"
                },
                {
                  "internalType": "uint256",
                  "name": "rating",
                  "type": "uint256"
                },
                {
                  "internalType": "string",
                  "name": "comment",
                  "type": "string"
                },
                {
                  "internalType": "bool",
                  "name": "deleted",
                  "type": "bool"
                },
                {
                  "internalType": "uint256",
                  "name": "timestamp",
                  "type": "uint256"
                }
              ],
              "internalType": "struct HemShop.ReviewStruct[]",
              "name": "reviews",
              "type": "tuple[]"
            }
          ],
          "internalType": "struct HemShop.ProductStruct[]",
          "name": "",
          "type": "tuple[]"
        }
      ],
      "stateMutability": "view",
      "type": "function"
    },
    {
      "inputs": [],
      "name": "getAllRegisteredSellers",
      "outputs": [
        {
          "internalType": "address[]",
          "name": "",
          "type": "address[]"
        }
      ],
      "stateMutability": "view",
      "type": "function"
    },
    {
      "inputs": [
        {
          "internalType": "uint256",
          "name": "tokenId",
          "type": "uint256"
        }
      ],
      "name": "getApproved",
      "outputs": [
        {
          "internalType": "address",
          "name": "",
          "type": "address"
        }
      ],
      "stateMutability": "view",
      "type": "function"
    },
    {
      "inputs": [
        {
          "internalType": "address",
          "name": "buyer",
          "type": "address"
        }
      ],
      "name": "getBuyerPurchaseHistory",
      "outputs": [
        {
          "components": [
            {
              "internalType": "uint256",
              "name": "productId",
              "type": "uint256"
            },
            {
              "internalType": "uint256",
              "name": "totalAmount",
              "type": "uint256"
            },
            {
              "internalType": "uint256",
              "name": "basePrice",
              "type": "uint256"
            },
            {
              "internalType": "uint256",
              "name": "timestamp",
              "type": "uint256"
            },
            {
              "internalType": "uint256",
              "name": "lastUpdated",
              "type": "uint256"
            },
            {
              "internalType": "address",
              "name": "buyer",
              "type": "address"
            },
            {
              "internalType": "address",
              "name": "seller",
              "type": "address"
            },
            {
              "internalType": "bool",
              "name": "isDelivered",
              "type": "bool"
            },
            {
              "components": [
                {
                  "internalType": "string",
                  "name": "fullName",
                  "type": "string"
                },
                {
                  "internalType": "string",
                  "name": "streetAddress",
                  "type": "string"
                },
                {
                  "internalType": "string",
                  "name": "city",
                  "type": "string"
                },
                {
                  "internalType": "string",
                  "name": "state",
                  "type": "string"
                },
                {
                  "internalType": "string",
                  "name": "country",
                  "type": "string"
                },
                {
                  "internalType": "string",
                  "name": "postalCode",
                  "type": "string"
                },
                {
                  "internalType": "string",
                  "name": "phone",
                  "type": "string"
                },
                {
                  "internalType": "string",
                  "name": "email",
                  "type": "string"
                }
              ],
              "internalType": "struct HemShop.ShippingDetails",
              "name": "shippingDetails",
              "type": "tuple"
            },
            {
              "components": [
                {
                  "internalType": "string",
                  "name": "name",
                  "type": "string"
                },
                {
                  "internalType": "string[]",
                  "name": "images",
                  "type": "string[]"
                },
                {
                  "internalType": "string",
                  "name": "selectedColor",
                  "type": "string"
                },
                {
                  "internalType": "string",
                  "name": "selectedSize",
                  "type": "string"
                },
                {
                  "internalType": "uint256",
                  "name": "quantity",
                  "type": "uint256"
                },
                {
                  "internalType": "string",
                  "name": "category",
                  "type": "string"
                },
                {
                  "internalType": "string",
                  "name": "description",
                  "type": "string"
                }
              ],
              "internalType": "struct HemShop.OrderDetails",
              "name": "orderDetails",
              "type": "tuple"
            }
          ],
          "internalType": "struct HemShop.PurchaseHistoryStruct[]",
          "name": "",
          "type": "tuple[]"
        }
      ],
      "stateMutability": "view",
      "type": "function"
    },
    {
      "inputs": [
        {
          "internalType": "uint256",
          "name": "_id",
          "type": "uint256"
        }
      ],
      "name": "getCategory",
      "outputs": [
        {
          "internalType": "uint256",
          "name": "id",
          "type": "uint256"
        },
        {
          "internalType": "string",
          "name": "name",
          "type": "string"
        },
        {
          "internalType": "bool",
          "name": "isActive",
          "type": "bool"
        },
        {
          "internalType": "uint256[]",
          "name": "subCategoryIds",
          "type": "uint256[]"
        }
      ],
      "stateMutability": "view",
      "type": "function"
    },
    {
      "inputs": [],
      "name": "getMyProducts",
      "outputs": [
        {
          "components": [
            {
              "internalType": "uint256",
              "name": "id",
              "type": "uint256"
            },
            {
              "internalType": "address",
              "name": "seller",
              "type": "address"
            },
            {
              "internalType": "string",
              "name": "name",
              "type": "string"
            },
            {
              "internalType": "string",
              "name": "description",
              "type": "string"
            },
            {
              "internalType": "uint256",
              "name": "price",
              "type": "uint256"
            },
            {
              "internalType": "uint256",
              "name": "stock",
              "type": "uint256"
            },
            {
              "internalType": "string[]",
              "name": "colors",
              "type": "string[]"
            },
            {
              "internalType": "string[]",
              "name": "sizes",
              "type": "string[]"
            },
            {
              "internalType": "string[]",
              "name": "images",
              "type": "string[]"
            },
            {
              "internalType": "string",
              "name": "category",
              "type": "string"
            },
            {
              "internalType": "string",
              "name": "subCategory",
              "type": "string"
            },
            {
              "internalType": "uint256",
              "name": "weight",
              "type": "uint256"
            },
            {
              "internalType": "string",
              "name": "model",
              "type": "string"
            },
            {
              "internalType": "string",
              "name": "brand",
              "type": "string"
            },
            {
              "internalType": "uint256",
              "name": "sku",
              "type": "uint256"
            },
            {
              "internalType": "bool",
              "name": "soldout",
              "type": "bool"
            },
            {
              "internalType": "bool",
              "name": "wishlist",
              "type": "bool"
            },
            {
              "internalType": "bool",
              "name": "deleted",
              "type": "bool"
            },
            {
              "components": [
                {
                  "internalType": "uint256",
                  "name": "reviewId",
                  "type": "uint256"
                },
                {
                  "internalType": "address",
                  "name": "reviewer",
                  "type": "address"
                },
                {
                  "internalType": "uint256",
                  "name": "rating",
                  "type": "uint256"
                },
                {
                  "internalType": "string",
                  "name": "comment",
                  "type": "string"
                },
                {
                  "internalType": "bool",
                  "name": "deleted",
                  "type": "bool"
                },
                {
                  "internalType": "uint256",
                  "name": "timestamp",
                  "type": "uint256"
                }
              ],
              "internalType": "struct HemShop.ReviewStruct[]",
              "name": "reviews",
              "type": "tuple[]"
            }
          ],
          "internalType": "struct HemShop.ProductStruct[]",
          "name": "",
          "type": "tuple[]"
        }
      ],
      "stateMutability": "view",
      "type": "function"
    },
    {
      "inputs": [
        {
          "internalType": "uint256",
          "name": "productId",
          "type": "uint256"
        }
      ],
      "name": "getProduct",
      "outputs": [
        {
          "components": [
            {
              "internalType": "uint256",
              "name": "id",
              "type": "uint256"
            },
            {
              "internalType": "address",
              "name": "seller",
              "type": "address"
            },
            {
              "internalType": "string",
              "name": "name",
              "type": "string"
            },
            {
              "internalType": "string",
              "name": "description",
              "type": "string"
            },
            {
              "internalType": "uint256",
              "name": "price",
              "type": "uint256"
            },
            {
              "internalType": "uint256",
              "name": "stock",
              "type": "uint256"
            },
            {
              "internalType": "string[]",
              "name": "colors",
              "type": "string[]"
            },
            {
              "internalType": "string[]",
              "name": "sizes",
              "type": "string[]"
            },
            {
              "internalType": "string[]",
              "name": "images",
              "type": "string[]"
            },
            {
              "internalType": "string",
              "name": "category",
              "type": "string"
            },
            {
              "internalType": "string",
              "name": "subCategory",
              "type": "string"
            },
            {
              "internalType": "uint256",
              "name": "weight",
              "type": "uint256"
            },
            {
              "internalType": "string",
              "name": "model",
              "type": "string"
            },
            {
              "internalType": "string",
              "name": "brand",
              "type": "string"
            },
            {
              "internalType": "uint256",
              "name": "sku",
              "type": "uint256"
            },
            {
              "internalType": "bool",
              "name": "soldout",
              "type": "bool"
            },
            {
              "internalType": "bool",
              "name": "wishlist",
              "type": "bool"
            },
            {
              "internalType": "bool",
              "name": "deleted",
              "type": "bool"
            },
            {
              "components": [
                {
                  "internalType": "uint256",
                  "name": "reviewId",
                  "type": "uint256"
                },
                {
                  "internalType": "address",
                  "name": "reviewer",
                  "type": "address"
                },
                {
                  "internalType": "uint256",
                  "name": "rating",
                  "type": "uint256"
                },
                {
                  "internalType": "string",
                  "name": "comment",
                  "type": "string"
                },
                {
                  "internalType": "bool",
                  "name": "deleted",
                  "type": "bool"
                },
                {
                  "internalType": "uint256",
                  "name": "timestamp",
                  "type": "uint256"
                }
              ],
              "internalType": "struct HemShop.ReviewStruct[]",
              "name": "reviews",
              "type": "tuple[]"
            }
          ],
          "internalType": "struct HemShop.ProductStruct",
          "name": "",
          "type": "tuple"
        }
      ],
      "stateMutability": "view",
      "type": "function"
    },
    {
      "inputs": [
        {
          "internalType": "string",
          "name": "categoryName",
          "type": "string"
        }
      ],
      "name": "getProductsByCategory",
      "outputs": [
        {
          "components": [
            {
              "internalType": "uint256",
              "name": "id",
              "type": "uint256"
            },
            {
              "internalType": "address",
              "name": "seller",
              "type": "address"
            },
            {
              "internalType": "string",
              "name": "name",
              "type": "string"
            },
            {
              "internalType": "string",
              "name": "description",
              "type": "string"
            },
            {
              "internalType": "uint256",
              "name": "price",
              "type": "uint256"
            },
            {
              "internalType": "uint256",
              "name": "stock",
              "type": "uint256"
            },
            {
              "internalType": "string[]",
              "name": "colors",
              "type": "string[]"
            },
            {
              "internalType": "string[]",
              "name": "sizes",
              "type": "string[]"
            },
            {
              "internalType": "string[]",
              "name": "images",
              "type": "string[]"
            },
            {
              "internalType": "string",
              "name": "category",
              "type": "string"
            },
            {
              "internalType": "string",
              "name": "subCategory",
              "type": "string"
            },
            {
              "internalType": "uint256",
              "name": "weight",
              "type": "uint256"
            },
            {
              "internalType": "string",
              "name": "model",
              "type": "string"
            },
            {
              "internalType": "string",
              "name": "brand",
              "type": "string"
            },
            {
              "internalType": "uint256",
              "name": "sku",
              "type": "uint256"
            },
            {
              "internalType": "bool",
              "name": "soldout",
              "type": "bool"
            },
            {
              "internalType": "bool",
              "name": "wishlist",
              "type": "bool"
            },
            {
              "internalType": "bool",
              "name": "deleted",
              "type": "bool"
            },
            {
              "components": [
                {
                  "internalType": "uint256",
                  "name": "reviewId",
                  "type": "uint256"
                },
                {
                  "internalType": "address",
                  "name": "reviewer",
                  "type": "address"
                },
                {
                  "internalType": "uint256",
                  "name": "rating",
                  "type": "uint256"
                },
                {
                  "internalType": "string",
                  "name": "comment",
                  "type": "string"
                },
                {
                  "internalType": "bool",
                  "name": "deleted",
                  "type": "bool"
                },
                {
                  "internalType": "uint256",
                  "name": "timestamp",
                  "type": "uint256"
                }
              ],
              "internalType": "struct HemShop.ReviewStruct[]",
              "name": "reviews",
              "type": "tuple[]"
            }
          ],
          "internalType": "struct HemShop.ProductStruct[]",
          "name": "",
          "type": "tuple[]"
        }
      ],
      "stateMutability": "view",
      "type": "function"
    },
    {
      "inputs": [
        {
          "internalType": "uint256",
          "name": "productId",
          "type": "uint256"
        }
      ],
      "name": "getReviews",
      "outputs": [
        {
          "components": [
            {
              "internalType": "uint256",
              "name": "reviewId",
              "type": "uint256"
            },
            {
              "internalType": "address",
              "name": "reviewer",
              "type": "address"
            },
            {
              "internalType": "uint256",
              "name": "rating",
              "type": "uint256"
            },
            {
              "internalType": "string",
              "name": "comment",
              "type": "string"
            },
            {
              "internalType": "bool",
              "name": "deleted",
              "type": "bool"
            },
            {
              "internalType": "uint256",
              "name": "timestamp",
              "type": "uint256"
            }
          ],
          "internalType": "struct HemShop.ReviewStruct[]",
          "name": "",
          "type": "tuple[]"
        }
      ],
      "stateMutability": "view",
      "type": "function"
    },
    {
      "inputs": [
        {
          "internalType": "address",
          "name": "seller",
          "type": "address"
        }
      ],
      "name": "getSeller",
      "outputs": [
        {
          "components": [
            {
              "internalType": "string",
              "name": "businessName",
              "type": "string"
            },
            {
              "internalType": "string",
              "name": "description",
              "type": "string"
            },
            {
              "internalType": "string",
              "name": "email",
              "type": "string"
            },
            {
              "internalType": "string",
              "name": "phone",
              "type": "string"
            },
            {
              "internalType": "string",
              "name": "logo",
              "type": "string"
            },
            {
              "internalType": "uint256",
              "name": "registeredAt",
              "type": "uint256"
            },
            {
              "internalType": "bool",
              "name": "termsAccepted",
              "type": "bool"
            }
          ],
          "internalType": "struct HemShop.SellerProfile",
          "name": "profile",
          "type": "tuple"
        },
        {
          "internalType": "enum HemShop.SellerStatus",
          "name": "status",
          "type": "uint8"
        },
        {
          "internalType": "uint256",
          "name": "balance",
          "type": "uint256"
        },
        {
          "internalType": "uint256[]",
          "name": "productIds",
          "type": "uint256[]"
        }
      ],
      "stateMutability": "view",
      "type": "function"
    },
    {
      "inputs": [
        {
          "internalType": "address",
          "name": "seller",
          "type": "address"
        }
      ],
      "name": "getSellerBalance",
      "outputs": [
        {
          "internalType": "uint256",
          "name": "",
          "type": "uint256"
        }
      ],
      "stateMutability": "view",
      "type": "function"
    },
    {
      "inputs": [
        {
          "internalType": "address",
          "name": "seller",
          "type": "address"
        }
      ],
      "name": "getSellerProducts",
      "outputs": [
        {
          "components": [
            {
              "internalType": "uint256",
              "name": "id",
              "type": "uint256"
            },
            {
              "internalType": "address",
              "name": "seller",
              "type": "address"
            },
            {
              "internalType": "string",
              "name": "name",
              "type": "string"
            },
            {
              "internalType": "string",
              "name": "description",
              "type": "string"
            },
            {
              "internalType": "uint256",
              "name": "price",
              "type": "uint256"
            },
            {
              "internalType": "uint256",
              "name": "stock",
              "type": "uint256"
            },
            {
              "internalType": "string[]",
              "name": "colors",
              "type": "string[]"
            },
            {
              "internalType": "string[]",
              "name": "sizes",
              "type": "string[]"
            },
            {
              "internalType": "string[]",
              "name": "images",
              "type": "string[]"
            },
            {
              "internalType": "string",
              "name": "category",
              "type": "string"
            },
            {
              "internalType": "string",
              "name": "subCategory",
              "type": "string"
            },
            {
              "internalType": "uint256",
              "name": "weight",
              "type": "uint256"
            },
            {
              "internalType": "string",
              "name": "model",
              "type": "string"
            },
            {
              "internalType": "string",
              "name": "brand",
              "type": "string"
            },
            {
              "internalType": "uint256",
              "name": "sku",
              "type": "uint256"
            },
            {
              "internalType": "bool",
              "name": "soldout",
              "type": "bool"
            },
            {
              "internalType": "bool",
              "name": "wishlist",
              "type": "bool"
            },
            {
              "internalType": "bool",
              "name": "deleted",
              "type": "bool"
            },
            {
              "components": [
                {
                  "internalType": "uint256",
                  "name": "reviewId",
                  "type": "uint256"
                },
                {
                  "internalType": "address",
                  "name": "reviewer",
                  "type": "address"
                },
                {
                  "internalType": "uint256",
                  "name": "rating",
                  "type": "uint256"
                },
                {
                  "internalType": "string",
                  "name": "comment",
                  "type": "string"
                },
                {
                  "internalType": "bool",
                  "name": "deleted",
                  "type": "bool"
                },
                {
                  "internalType": "uint256",
                  "name": "timestamp",
                  "type": "uint256"
                }
              ],
              "internalType": "struct HemShop.ReviewStruct[]",
              "name": "reviews",
              "type": "tuple[]"
            }
          ],
          "internalType": "struct HemShop.ProductStruct[]",
          "name": "",
          "type": "tuple[]"
        }
      ],
      "stateMutability": "view",
      "type": "function"
    },
    {
      "inputs": [
        {
          "internalType": "address",
          "name": "seller",
          "type": "address"
        }
      ],
      "name": "getSellerProfile",
      "outputs": [
        {
          "components": [
            {
              "internalType": "string",
              "name": "businessName",
              "type": "string"
            },
            {
              "internalType": "string",
              "name": "description",
              "type": "string"
            },
            {
              "internalType": "string",
              "name": "email",
              "type": "string"
            },
            {
              "internalType": "string",
              "name": "phone",
              "type": "string"
            },
            {
              "internalType": "string",
              "name": "logo",
              "type": "string"
            },
            {
              "internalType": "uint256",
              "name": "registeredAt",
              "type": "uint256"
            },
            {
              "internalType": "bool",
              "name": "termsAccepted",
              "type": "bool"
            }
          ],
          "internalType": "struct HemShop.SellerProfile",
          "name": "",
          "type": "tuple"
        }
      ],
      "stateMutability": "view",
      "type": "function"
    },
    {
      "inputs": [
        {
          "internalType": "address",
          "name": "seller",
          "type": "address"
        }
      ],
      "name": "getSellerPurchaseHistory",
      "outputs": [
        {
          "components": [
            {
              "internalType": "uint256",
              "name": "productId",
              "type": "uint256"
            },
            {
              "internalType": "uint256",
              "name": "totalAmount",
              "type": "uint256"
            },
            {
              "internalType": "uint256",
              "name": "basePrice",
              "type": "uint256"
            },
            {
              "internalType": "uint256",
              "name": "timestamp",
              "type": "uint256"
            },
            {
              "internalType": "uint256",
              "name": "lastUpdated",
              "type": "uint256"
            },
            {
              "internalType": "address",
              "name": "buyer",
              "type": "address"
            },
            {
              "internalType": "address",
              "name": "seller",
              "type": "address"
            },
            {
              "internalType": "bool",
              "name": "isDelivered",
              "type": "bool"
            },
            {
              "components": [
                {
                  "internalType": "string",
                  "name": "fullName",
                  "type": "string"
                },
                {
                  "internalType": "string",
                  "name": "streetAddress",
                  "type": "string"
                },
                {
                  "internalType": "string",
                  "name": "city",
                  "type": "string"
                },
                {
                  "internalType": "string",
                  "name": "state",
                  "type": "string"
                },
                {
                  "internalType": "string",
                  "name": "country",
                  "type": "string"
                },
                {
                  "internalType": "string",
                  "name": "postalCode",
                  "type": "string"
                },
                {
                  "internalType": "string",
                  "name": "phone",
                  "type": "string"
                },
                {
                  "internalType": "string",
                  "name": "email",
                  "type": "string"
                }
              ],
              "internalType": "struct HemShop.ShippingDetails",
              "name": "shippingDetails",
              "type": "tuple"
            },
            {
              "components": [
                {
                  "internalType": "string",
                  "name": "name",
                  "type": "string"
                },
                {
                  "internalType": "string[]",
                  "name": "images",
                  "type": "string[]"
                },
                {
                  "internalType": "string",
                  "name": "selectedColor",
                  "type": "string"
                },
                {
                  "internalType": "string",
                  "name": "selectedSize",
                  "type": "string"
                },
                {
                  "internalType": "uint256",
                  "name": "quantity",
                  "type": "uint256"
                },
                {
                  "internalType": "string",
                  "name": "category",
                  "type": "string"
                },
                {
                  "internalType": "string",
                  "name": "description",
                  "type": "string"
                }
              ],
              "internalType": "struct HemShop.OrderDetails",
              "name": "orderDetails",
              "type": "tuple"
            }
          ],
          "internalType": "struct HemShop.PurchaseHistoryStruct[]",
          "name": "",
          "type": "tuple[]"
        }
      ],
      "stateMutability": "view",
      "type": "function"
    },
    {
      "inputs": [
        {
          "internalType": "address",
          "name": "seller",
          "type": "address"
        }
      ],
      "name": "getSellerStatus",
      "outputs": [
        {
          "internalType": "enum HemShop.SellerStatus",
          "name": "",
          "type": "uint8"
        }
      ],
      "stateMutability": "view",
      "type": "function"
    },
    {
      "inputs": [
        {
          "internalType": "uint256",
          "name": "_id",
          "type": "uint256"
        }
      ],
      "name": "getSubCategory",
      "outputs": [
        {
          "internalType": "uint256",
          "name": "id",
          "type": "uint256"
        },
        {
          "internalType": "string",
          "name": "name",
          "type": "string"
        },
        {
          "internalType": "uint256",
          "name": "parentCategoryId",
          "type": "uint256"
        },
        {
          "internalType": "bool",
          "name": "isActive",
          "type": "bool"
        }
      ],
      "stateMutability": "view",
      "type": "function"
    },
    {
      "inputs": [
        {
          "internalType": "address",
          "name": "user",
          "type": "address"
        }
      ],
      "name": "getUser",
      "outputs": [
        {
          "internalType": "bool",
          "name": "isRegistered",
          "type": "bool"
        },
        {
          "components": [
            {
              "internalType": "string",
              "name": "name",
              "type": "string"
            },
            {
              "internalType": "string",
              "name": "email",
              "type": "string"
            },
            {
              "internalType": "string",
              "name": "avatar",
              "type": "string"
            },
            {
              "internalType": "uint256",
              "name": "registeredAt",
              "type": "uint256"
            },
            {
              "internalType": "bool",
              "name": "isActive",
              "type": "bool"
            }
          ],
          "internalType": "struct HemShop.UserProfile",
          "name": "profile",
          "type": "tuple"
        },
        {
          "internalType": "bool",
          "name": "isUserSeller",
          "type": "bool"
        },
        {
          "internalType": "enum HemShop.SellerStatus",
          "name": "sellerState",
          "type": "uint8"
        }
      ],
      "stateMutability": "view",
      "type": "function"
    },
    {
      "inputs": [
        {
          "internalType": "address",
          "name": "account",
          "type": "address"
        }
      ],
      "name": "impersonateAccount",
      "outputs": [],
      "stateMutability": "nonpayable",
      "type": "function"
    },
    {
      "inputs": [
        {
          "internalType": "address",
          "name": "owner",
          "type": "address"
        },
        {
          "internalType": "address",
          "name": "operator",
          "type": "address"
        }
      ],
      "name": "isApprovedForAll",
      "outputs": [
        {
          "internalType": "bool",
          "name": "",
          "type": "bool"
        }
      ],
      "stateMutability": "view",
      "type": "function"
    },
    {
      "inputs": [
        {
          "internalType": "uint256",
          "name": "productId",
          "type": "uint256"
        },
        {
          "internalType": "address",
          "name": "buyer",
          "type": "address"
        }
      ],
      "name": "markPurchaseDelivered",
      "outputs": [],
      "stateMutability": "nonpayable",
      "type": "function"
    },
    {
      "inputs": [],
      "name": "name",
      "outputs": [
        {
          "internalType": "string",
          "name": "",
          "type": "string"
        }
      ],
      "stateMutability": "view",
      "type": "function"
    },
    {
      "inputs": [],
      "name": "owner",
      "outputs": [
        {
          "internalType": "address",
          "name": "",
          "type": "address"
        }
      ],
      "stateMutability": "view",
      "type": "function"
    },
    {
      "inputs": [
        {
          "internalType": "uint256",
          "name": "tokenId",
          "type": "uint256"
        }
      ],
      "name": "ownerOf",
      "outputs": [
        {
          "internalType": "address",
          "name": "",
          "type": "address"
        }
      ],
      "stateMutability": "view",
      "type": "function"
    },
    {
      "inputs": [
        {
          "internalType": "uint256",
          "name": "",
          "type": "uint256"
        }
      ],
      "name": "productExists",
      "outputs": [
        {
          "internalType": "bool",
          "name": "",
          "type": "bool"
        }
      ],
      "stateMutability": "view",
      "type": "function"
    },
    {
      "inputs": [
        {
          "internalType": "uint256",
          "name": "",
          "type": "uint256"
        }
      ],
      "name": "products",
      "outputs": [
        {
          "internalType": "uint256",
          "name": "id",
          "type": "uint256"
        },
        {
          "internalType": "address",
          "name": "seller",
          "type": "address"
        },
        {
          "internalType": "string",
          "name": "name",
          "type": "string"
        },
        {
          "internalType": "string",
          "name": "description",
          "type": "string"
        },
        {
          "internalType": "uint256",
          "name": "price",
          "type": "uint256"
        },
        {
          "internalType": "uint256",
          "name": "stock",
          "type": "uint256"
        },
        {
          "internalType": "string",
          "name": "category",
          "type": "string"
        },
        {
          "internalType": "string",
          "name": "subCategory",
          "type": "string"
        },
        {
          "internalType": "uint256",
          "name": "weight",
          "type": "uint256"
        },
        {
          "internalType": "string",
          "name": "model",
          "type": "string"
        },
        {
          "internalType": "string",
          "name": "brand",
          "type": "string"
        },
        {
          "internalType": "uint256",
          "name": "sku",
          "type": "uint256"
        },
        {
          "internalType": "bool",
          "name": "soldout",
          "type": "bool"
        },
        {
          "internalType": "bool",
          "name": "wishlist",
          "type": "bool"
        },
        {
          "internalType": "bool",
          "name": "deleted",
          "type": "bool"
        }
      ],
      "stateMutability": "view",
      "type": "function"
    },
    {
      "inputs": [
        {
          "internalType": "string",
          "name": "businessName",
          "type": "string"
        },
        {
          "internalType": "string",
          "name": "description",
          "type": "string"
        },
        {
          "internalType": "string",
          "name": "email",
          "type": "string"
        },
        {
          "internalType": "string",
          "name": "phone",
          "type": "string"
        },
        {
          "internalType": "string",
          "name": "logo",
          "type": "string"
        }
      ],
      "name": "registerSeller",
      "outputs": [],
      "stateMutability": "nonpayable",
      "type": "function"
    },
    {
      "inputs": [
        {
          "internalType": "string",
          "name": "name",
          "type": "string"
        },
        {
          "internalType": "string",
          "name": "email",
          "type": "string"
        },
        {
          "internalType": "string",
          "name": "avatar",
          "type": "string"
        }
      ],
      "name": "registerUser",
      "outputs": [],
      "stateMutability": "nonpayable",
      "type": "function"
    },
    {
      "inputs": [
        {
          "internalType": "address",
          "name": "",
          "type": "address"
        }
      ],
      "name": "registeredSellers",
      "outputs": [
        {
          "internalType": "bool",
          "name": "",
          "type": "bool"
        }
      ],
      "stateMutability": "view",
      "type": "function"
    },
    {
      "inputs": [
        {
          "internalType": "address",
          "name": "",
          "type": "address"
        }
      ],
      "name": "registeredUsers",
      "outputs": [
        {
          "internalType": "bool",
          "name": "",
          "type": "bool"
        }
      ],
      "stateMutability": "view",
      "type": "function"
    },
    {
      "inputs": [],
      "name": "renounceOwnership",
      "outputs": [],
      "stateMutability": "nonpayable",
      "type": "function"
    },
    {
      "inputs": [
        {
          "internalType": "uint256",
          "name": "",
          "type": "uint256"
        }
      ],
      "name": "reviewExists",
      "outputs": [
        {
          "internalType": "bool",
          "name": "",
          "type": "bool"
        }
      ],
      "stateMutability": "view",
      "type": "function"
    },
    {
      "inputs": [
        {
          "internalType": "address",
          "name": "from",
          "type": "address"
        },
        {
          "internalType": "address",
          "name": "to",
          "type": "address"
        },
        {
          "internalType": "uint256",
          "name": "tokenId",
          "type": "uint256"
        }
      ],
      "name": "safeTransferFrom",
      "outputs": [],
      "stateMutability": "nonpayable",
      "type": "function"
    },
    {
      "inputs": [
        {
          "internalType": "address",
          "name": "from",
          "type": "address"
        },
        {
          "internalType": "address",
          "name": "to",
          "type": "address"
        },
        {
          "internalType": "uint256",
          "name": "tokenId",
          "type": "uint256"
        },
        {
          "internalType": "bytes",
          "name": "data",
          "type": "bytes"
        }
      ],
      "name": "safeTransferFrom",
      "outputs": [],
      "stateMutability": "nonpayable",
      "type": "function"
    },
    {
      "inputs": [
        {
          "internalType": "address",
          "name": "",
          "type": "address"
        }
      ],
      "name": "sellerBalances",
      "outputs": [
        {
          "internalType": "uint256",
          "name": "",
          "type": "uint256"
        }
      ],
      "stateMutability": "view",
      "type": "function"
    },
    {
      "inputs": [
        {
          "internalType": "address",
          "name": "",
          "type": "address"
        },
        {
          "internalType": "uint256",
          "name": "",
          "type": "uint256"
        }
      ],
      "name": "sellerProducts",
      "outputs": [
        {
          "internalType": "uint256",
          "name": "",
          "type": "uint256"
        }
      ],
      "stateMutability": "view",
      "type": "function"
    },
    {
      "inputs": [
        {
          "internalType": "address",
          "name": "",
          "type": "address"
        }
      ],
      "name": "sellerProfiles",
      "outputs": [
        {
          "internalType": "string",
          "name": "businessName",
          "type": "string"
        },
        {
          "internalType": "string",
          "name": "description",
          "type": "string"
        },
        {
          "internalType": "string",
          "name": "email",
          "type": "string"
        },
        {
          "internalType": "string",
          "name": "phone",
          "type": "string"
        },
        {
          "internalType": "string",
          "name": "logo",
          "type": "string"
        },
        {
          "internalType": "uint256",
          "name": "registeredAt",
          "type": "uint256"
        },
        {
          "internalType": "bool",
          "name": "termsAccepted",
          "type": "bool"
        }
      ],
      "stateMutability": "view",
      "type": "function"
    },
    {
      "inputs": [
        {
          "internalType": "address",
          "name": "",
          "type": "address"
        },
        {
          "internalType": "uint256",
          "name": "",
          "type": "uint256"
        }
      ],
      "name": "sellerPurchaseHistory",
      "outputs": [
        {
          "internalType": "uint256",
          "name": "productId",
          "type": "uint256"
        },
        {
          "internalType": "uint256",
          "name": "totalAmount",
          "type": "uint256"
        },
        {
          "internalType": "uint256",
          "name": "basePrice",
          "type": "uint256"
        },
        {
          "internalType": "uint256",
          "name": "timestamp",
          "type": "uint256"
        },
        {
          "internalType": "uint256",
          "name": "lastUpdated",
          "type": "uint256"
        },
        {
          "internalType": "address",
          "name": "buyer",
          "type": "address"
        },
        {
          "internalType": "address",
          "name": "seller",
          "type": "address"
        },
        {
          "internalType": "bool",
          "name": "isDelivered",
          "type": "bool"
        },
        {
          "components": [
            {
              "internalType": "string",
              "name": "fullName",
              "type": "string"
            },
            {
              "internalType": "string",
              "name": "streetAddress",
              "type": "string"
            },
            {
              "internalType": "string",
              "name": "city",
              "type": "string"
            },
            {
              "internalType": "string",
              "name": "state",
              "type": "string"
            },
            {
              "internalType": "string",
              "name": "country",
              "type": "string"
            },
            {
              "internalType": "string",
              "name": "postalCode",
              "type": "string"
            },
            {
              "internalType": "string",
              "name": "phone",
              "type": "string"
            },
            {
              "internalType": "string",
              "name": "email",
              "type": "string"
            }
          ],
          "internalType": "struct HemShop.ShippingDetails",
          "name": "shippingDetails",
          "type": "tuple"
        },
        {
          "components": [
            {
              "internalType": "string",
              "name": "name",
              "type": "string"
            },
            {
              "internalType": "string[]",
              "name": "images",
              "type": "string[]"
            },
            {
              "internalType": "string",
              "name": "selectedColor",
              "type": "string"
            },
            {
              "internalType": "string",
              "name": "selectedSize",
              "type": "string"
            },
            {
              "internalType": "uint256",
              "name": "quantity",
              "type": "uint256"
            },
            {
              "internalType": "string",
              "name": "category",
              "type": "string"
            },
            {
              "internalType": "string",
              "name": "description",
              "type": "string"
            }
          ],
          "internalType": "struct HemShop.OrderDetails",
          "name": "orderDetails",
          "type": "tuple"
        }
      ],
      "stateMutability": "view",
      "type": "function"
    },
    {
      "inputs": [
        {
          "internalType": "address",
          "name": "",
          "type": "address"
        }
      ],
      "name": "sellerStatus",
      "outputs": [
        {
          "internalType": "enum HemShop.SellerStatus",
          "name": "",
          "type": "uint8"
        }
      ],
      "stateMutability": "view",
      "type": "function"
    },
    {
      "inputs": [],
      "name": "servicePct",
      "outputs": [
        {
          "internalType": "uint256",
          "name": "",
          "type": "uint256"
        }
      ],
      "stateMutability": "view",
      "type": "function"
    },
    {
      "inputs": [
        {
          "internalType": "address",
          "name": "operator",
          "type": "address"
        },
        {
          "internalType": "bool",
          "name": "approved",
          "type": "bool"
        }
      ],
      "name": "setApprovalForAll",
      "outputs": [],
      "stateMutability": "nonpayable",
      "type": "function"
    },
    {
      "inputs": [],
      "name": "stopImpersonating",
      "outputs": [],
      "stateMutability": "nonpayable",
      "type": "function"
    },
    {
      "inputs": [
        {
          "internalType": "bytes4",
          "name": "interfaceId",
          "type": "bytes4"
        }
      ],
      "name": "supportsInterface",
      "outputs": [
        {
          "internalType": "bool",
          "name": "",
          "type": "bool"
        }
      ],
      "stateMutability": "view",
      "type": "function"
    },
    {
      "inputs": [],
      "name": "symbol",
      "outputs": [
        {
          "internalType": "string",
          "name": "",
          "type": "string"
        }
      ],
      "stateMutability": "view",
      "type": "function"
    },
    {
      "inputs": [
        {
          "internalType": "uint256",
          "name": "tokenId",
          "type": "uint256"
        }
      ],
      "name": "tokenURI",
      "outputs": [
        {
          "internalType": "string",
          "name": "",
          "type": "string"
        }
      ],
      "stateMutability": "view",
      "type": "function"
    },
    {
      "inputs": [
        {
          "internalType": "address",
          "name": "from",
          "type": "address"
        },
        {
          "internalType": "address",
          "name": "to",
          "type": "address"
        },
        {
          "internalType": "uint256",
          "name": "tokenId",
          "type": "uint256"
        }
      ],
      "name": "transferFrom",
      "outputs": [],
      "stateMutability": "nonpayable",
      "type": "function"
    },
    {
      "inputs": [
        {
          "internalType": "address",
          "name": "newOwner",
          "type": "address"
        }
      ],
      "name": "transferOwnership",
      "outputs": [],
      "stateMutability": "nonpayable",
      "type": "function"
    },
    {
      "inputs": [
        {
          "internalType": "uint256",
          "name": "_id",
          "type": "uint256"
        },
        {
          "internalType": "string",
          "name": "_name",
          "type": "string"
        },
        {
          "internalType": "bool",
          "name": "_isActive",
          "type": "bool"
        }
      ],
      "name": "updateCategory",
      "outputs": [],
      "stateMutability": "nonpayable",
      "type": "function"
    },
    {
      "inputs": [
        {
          "internalType": "uint256",
          "name": "productId",
          "type": "uint256"
        },
        {
          "components": [
            {
              "internalType": "string",
              "name": "name",
              "type": "string"
            },
            {
              "internalType": "string",
              "name": "description",
              "type": "string"
            },
            {
              "internalType": "uint256",
              "name": "price",
              "type": "uint256"
            },
            {
              "internalType": "uint256",
              "name": "stock",
              "type": "uint256"
            },
            {
              "internalType": "string[]",
              "name": "colors",
              "type": "string[]"
            },
            {
              "internalType": "string[]",
              "name": "sizes",
              "type": "string[]"
            },
            {
              "internalType": "string[]",
              "name": "images",
              "type": "string[]"
            },
            {
              "internalType": "uint256",
              "name": "categoryId",
              "type": "uint256"
            },
            {
              "internalType": "uint256",
              "name": "subCategoryId",
              "type": "uint256"
            },
            {
              "internalType": "uint256",
              "name": "weight",
              "type": "uint256"
            },
            {
              "internalType": "string",
              "name": "model",
              "type": "string"
            },
            {
              "internalType": "string",
              "name": "brand",
              "type": "string"
            },
            {
              "internalType": "uint256",
              "name": "sku",
              "type": "uint256"
            }
          ],
          "internalType": "struct HemShop.ProductInput",
          "name": "input",
          "type": "tuple"
        }
      ],
      "name": "updateProduct",
      "outputs": [],
      "stateMutability": "nonpayable",
      "type": "function"
    },
    {
      "inputs": [
        {
          "internalType": "address",
          "name": "seller",
          "type": "address"
        },
        {
          "internalType": "enum HemShop.SellerStatus",
          "name": "newStatus",
          "type": "uint8"
        }
      ],
      "name": "updateSellerStatus",
      "outputs": [],
      "stateMutability": "nonpayable",
      "type": "function"
    },
    {
      "inputs": [
        {
          "internalType": "uint256",
          "name": "_id",
          "type": "uint256"
        },
        {
          "internalType": "string",
          "name": "_name",
          "type": "string"
        },
        {
          "internalType": "bool",
          "name": "_isActive",
          "type": "bool"
        }
      ],
      "name": "updateSubCategory",
      "outputs": [],
      "stateMutability": "nonpayable",
      "type": "function"
    },
    {
      "inputs": [
        {
          "internalType": "address",
          "name": "",
          "type": "address"
        }
      ],
      "name": "userProfiles",
      "outputs": [
        {
          "internalType": "string",
          "name": "name",
          "type": "string"
        },
        {
          "internalType": "string",
          "name": "email",
          "type": "string"
        },
        {
          "internalType": "string",
          "name": "avatar",
          "type": "string"
        },
        {
          "internalType": "uint256",
          "name": "registeredAt",
          "type": "uint256"
        },
        {
          "internalType": "bool",
          "name": "isActive",
          "type": "bool"
        }
      ],
      "stateMutability": "view",
      "type": "function"
    },
    {
      "inputs": [
        {
          "internalType": "uint256",
          "name": "",
          "type": "uint256"
        }
      ],
      "name": "usersList",
      "outputs": [
        {
          "internalType": "address",
          "name": "",
          "type": "address"
        }
      ],
      "stateMutability": "view",
      "type": "function"
    },
    {
      "inputs": [],
      "name": "withdraw",
      "outputs": [],
      "stateMutability": "nonpayable",
      "type": "function"
    }
  ],
  "bytecode": "0x6080346200037757601f90601f196001600160401b0362009d863881900385810184168501838111868210176200037c57859282916040528339602094859181010312620003775751936200005362000392565b926007845266048656d53686f760cc1b858501526200007162000392565b60038082526204873760ec1b8783015260008054336001600160a01b031982168117835592989394919392906001600160a01b03167f8be0079c531659141344cd1fd0a4f28419497f9722a3daafe3b4186f6b6457e08580a360019687805580519087821162000363576002548981811c9116801562000358575b858210146200034457908188849311620002f0575b5084908883116001146200028e57869262000282575b5050600019828b1b1c191690881b176002555b83519586116200026e5787548781811c9116801562000263575b838210146200024f5785811162000207575b5081948611600114620001a25750509183949184939462000196575b50501b9160001990841b1c19161790555b600d556040516199d39081620003b38239f35b01519250388062000172565b8783528183209493928692918316915b88838310620001ec5750505010620001d3575b505050811b01905562000183565b015160001983861b60f8161c19169055388080620001c5565b858701518855909601959485019487935090810190620001b2565b8884528284208680890160051c820192858a1062000245575b0160051c019088905b8281106200023957505062000156565b85815501889062000229565b9250819262000220565b634e487b7160e01b84526022600452602484fd5b90607f169062000144565b634e487b7160e01b83526041600452602483fd5b01519050388062000117565b90848b9416916002885286882092885b88828210620002d95750508411620002c0575b505050811b016002556200012a565b0151600019838d1b60f8161c19169055388080620002b1565b8385015186558e979095019493840193016200029e565b909150600286528486208880850160051c8201928786106200033a575b918c91869594930160051c01915b8281106200032b57505062000101565b8881558594508c91016200031b565b925081926200030d565b634e487b7160e01b86526022600452602486fd5b90607f1690620000ec565b634e487b7160e01b85526041600452602485fd5b600080fd5b634e487b7160e01b600052604160045260246000fd5b60408051919082016001600160401b038111838210176200037c5760405256fe608080604052600436101561001357600080fd5b60003560e01c908162d64e7614616bf65750806301ffc9a714616b8857806302ee3a521461690657806306fdde0314616860578063081812fc14616842578063095ea7b3146166c85780630e50cee51461668957806311aa5b34146166655780631385fd92146165fc57806316d81b381461641357806317e98548146163855780632053fba614615e455780632148893f1461543e57806323b872dd14615e1c57806324d41a0314615bf5578063317a082714615a80578063332d56d7146159bf5780633c2575d5146158bb5780633ccfd60b1461577b57806342842e0e146157425780634293e5ce1461564057806345de84db146155fe578063502aa3b5146155a35780635ad6a580146154db5780635be2095914615478578063607eb4e41461543e5780636352211e1461540e57806366224d8e1461528a5780636f2c8599146151df5780636f77926b1461505c57806370a0823114614fc5578063715018a614614f6c5780637acc0b2014614dad5780637d3978db14614b5f5780637e8555ed14614397578063868a5461146139945780638da5cb5b1461396b5780638f38cc7b146136455780639196dfcb1461352b57806395d89b411461344957806397b6f393146132f95780639d4a22551461315a5780639fa44dbf14613112578063a22cb46514613037578063a22fb38714612f71578063a323d29e14612e1e578063af55ed6414612ded578063b27e169714612ce9578063b88d4fde14612c8a578063b95a062814612c4f578063b9db15b414612a35578063c1302b34146129dd578063c64b8a8f1461299e578063c87b56dd1461292e578063ceca737f14612894578063d2bc9d78146125c5578063d637dcfa14612107578063dadd0a5714611e07578063dc29868214611bda578063e01ef6e614611bbc578063e40971e514610cb2578063e585cb2c14610c0f578063e6a93e1614610938578063e985e9c5146108e2578063eb11c434146108b0578063ed90c7b714610773578063f2fde38b146106af578063f3052d26146105ef5763fdca4ca31461031557600080fd5b346105ea5760003660031901126105ea5760088054600060015b8281111561058957506103419061861c565b9060009260015b82811115610362576040518061035e8682616eb0565b0390f35b8060005260206015815260018060a01b03903382600160406000200154161480610573575b61039c575b50506103979061860d565b610348565b6040600097939720604051926103b184616f3e565b81548452600182015416828401526040516103da816103d38160028601617182565b0382617019565b60408401526040516103f3816103d38160038601617182565b606084015260048101546080840152600581015460a084015260069061041a8282016175cd565b60c085015261042b600782016175cd565b60e085015261043b8682016175cd565b610100850152604051610455816103d38160098601617182565b61012085015260405161046f816103d381600a8601617182565b610140850152600b810154610160850152604051610494816103d381600c8601617182565b6101808501526040516104ae816103d381600d8601617182565b6101a0850152600e8101546101c0850152600f81015460ff80821615156101e087015281881c81161515610200870152601091821c16151561022086015201805491906104fa836175b6565b936105086040519586617019565b8385526000918252808220918186015b8582106105575750505050505091816103979361024061054f94015261053e828861866c565b52610549818761866c565b5061860d565b94903861038c565b8483600192610565876185ac565b815201940191019092610518565b5060ff600f6040600020015460101c1615610387565b6000818152601560205260409020600101546001600160a01b03163314806105d4575b6105bf575b6105ba9061860d565b61032f565b906105cc6105ba9161860d565b9190506105b1565b5060ff600f6040600020015460101c16156105ac565b600080fd5b346105ea5760203660031901126105ea576004356000526018602052604060002060405161061c81616fad565b8154815261035e6040519161063f836106388160018801617182565b0384617019565b60208101928352610663600360ff60028701541695604084019615158752016187ea565b906060810191825261067781511515618732565b51925193511515905161069c6040519586958652608060208701526080860190616c23565b9160408501528382036060850152617731565b346105ea5760203660031901126105ea576106c8616f12565b6106d0617765565b6001600160a01b0390811690811561071f57600054826001600160601b0360a01b821617600055167f8be0079c531659141344cd1fd0a4f28419497f9722a3daafe3b4186f6b6457e0600080a3005b60405162461bcd60e51b815260206004820152602660248201527f4f776e61626c653a206e6577206f776e657220697320746865207a65726f206160448201526564647265737360d01b6064820152608490fd5b346105ea576020806003193601126105ea576004359081600052601781526107a260ff6040600020541661844e565b6000828152601582526040902060010154336001600160a01b03918216149081156108a2575b501561084e57816000526015815260ff600f6040600020015460101c1661080a5760009182526015905260409020600f01805462ff0000191662010000179055005b6064906040519062461bcd60e51b82526004820152601a60248201527f50726f6475637420697320616c72656164792064656c657465640000000000006044820152fd5b6084906040519062461bcd60e51b82526004820152602760248201527f4f6e6c792070726f647563742073656c6c6572206f72206f776e65722063616e6044820152662064656c65746560c81b6064820152fd5b6000541633149050836107c8565b346105ea5760203660031901126105ea5760206108d36108ce616f12565b617dc9565b6108e060405180926174a9565bf35b346105ea5760403660031901126105ea576108fb616f12565b610903616f28565b9060018060a01b03809116600052600760205260406000209116600052602052602060ff604060002054166040519015158152f35b346105ea5760203660031901126105ea57610951616f12565b600854600060015b82811115610bab575061096b9061861c565b9160009060015b83811115610988576040518061035e8782616eb0565b6000818152601560205260409020600101546001600160a01b0383811691161480610b95575b6109c1575b6109bc9061860d565b610972565b916040600020604051906109d482616f3e565b8054825260018101546001600160a01b031660208301526040516109ff816103d38160028601617182565b6040830152604051610a18816103d38160038601617182565b606083015260048101546080830152600581015460a0830152610a3d600682016175cd565b60c0830152610a4e600782016175cd565b60e0830152610a5f600882016175cd565b610100830152604051610a79816103d38160098601617182565b610120830152604051610a93816103d381600a8601617182565b610140830152600b810154610160830152604051610ab8816103d381600c8601617182565b610180830152604051610ad2816103d381600d8601617182565b6101a0830152600e8101546101c0830152600f8101549060ff80831615156101e0850152808360081c161515610200850152601092831c16151561022084015201805490610b1f826175b6565b91610b2d6040519384617019565b808352602083019160005260206000206000925b828410610b7757505050506102408201526109bc91610b6f91610b64828961866c565b52610549818861866c565b9290506109b3565b60066020600192610b87856185ac565b815201920193019290610b41565b5060ff600f6040600020015460101c16156109ae565b6000818152601560205260409020600101546001600160a01b0385811691161480610bf9575b610be4575b610bdf9061860d565b610959565b90610bf1610bdf9161860d565b919050610bd6565b5060ff600f6040600020015460101c1615610bd1565b346105ea5760403660031901126105ea57610c28616f12565b6001600160a01b039081166000908152601c602052604090208054602435908110156105ea57610c57916174ce565b509061035e825460018401549360028101549160038201549060048301548660058501541690600685015493610c9b600f610c94600789016174ea565b9701617632565b966040519a8b9a60ff8860a01c169716958b6176cd565b346105ea576003196020368201126105ea576001600160401b03600435116105ea576101a090600435360301126105ea5733600052601260205260ff604060002054166004811015611ba6576002148015611b92575b15611b4e57610d27610d1e600480350180617e3d565b90501515617cad565b610d47610d3e602460043501600435600401617e3d565b90501515617e6f565b610d58604460043501351515617ebb565b610d69606460043501351515617f07565b610d89610d80608460043501600435600401617f53565b90501515617f88565b60e4600435013515611afe57610104600435013515611aab57610db461012460043501351515617fcd565b610dc661018460043501351515618019565b610de6610ddd60c460043501600435600401617f53565b90501515618065565b610e086005610dff60c460043501600435600401617f53565b905011156180aa565b60016008540180600855610e1a6180f6565b81815233602082015290610e3c610e35600480350180617e3d565b3691617055565b6040830152610e58610e35602460043501600435600401617e3d565b60608301526044600435013560808301526064600435013560a0830152610e93610e8c608460043501600435600401617f53565b3691618182565b60c0830152610eaf610e8c60a460043501600435600401617f53565b60e0830152610ecb610e8c60c460043501600435600401617f53565b61010083015260e4600435013560005260186020526103d3610efa600160406000200160405192838092617182565b610120830152610104600435013560005260196020526103d3610f2a600160406000200160405192838092617182565b610140830152610f48610e3561014460043501600435600401617e3d565b610180830152610f66610e3561016460043501600435600401617e3d565b6101a083015260043561012481013561016084015261018401356101c08301523315611a6757600081815260046020526040902054610fb1906001600160a01b031615155b15618402565b600081815260046020526040902054610fd4906001600160a01b03161515610fab565b3360005260056020526040600020600181540190558060005260046020526040600020336001600160601b0360a01b825416179055803360007fddf252ad1be2c89b69c2b068fc378daa952ba7f163c4a11628f55a4df523b3ef8180a46015602052604060002090825182556001820160018060a01b036020850151166001600160601b0360a01b82541617905560408301519283516001600160401b0381116114d157611092816110896002870154617148565b60028701617d07565b6020601f82116001146119f85781929394956000926119ed575b50508160011b916000199060031b1c19161760028401555b60608101519283516001600160401b0381116114d1576110f4816110eb6003850154617148565b60038501617d07565b6020601f821160011461197e578192939495600092611973575b50508160011b916000199060031b1c19161760038201555b6080820151600482015560a082015160058201556006810160c083015160208151916111528385618250565b01916000526020600020916000905b82821061189657505050506007810160e083015160208151916111848385618250565b01916000526020600020916000905b8282106117b957505050506008810161010083015160208151916111b78385618250565b01916000526020600020916000905b8282106116d657505050506101208201519283516001600160401b0381116114d157611202816111f96009860154617148565b60098601617d07565b6020601f821160011461166757819293949560009261165c575b50508160011b916000199060031b1c19161760098301555b6101408301519283516001600160401b0381116114d1576112658161125c600a870154617148565b600a8701617d07565b6020601f82116001146115ed5781929394956000926115e2575b50508160011b916000199060031b1c191617600a8401555b610160810151600b8401556101808101519283516001600160401b0381116114d1576112d3816112ca600c850154617148565b600c8501617d07565b6020601f8211600114611573578192939495600092611568575b50508160011b916000199060031b1c191617600c8201555b6101a08201518051906001600160401b0382116114d1576113368261132d600d860154617148565b600d8601617d07565b602090601f83116001146114f257918061024094926010946000926114e7575b50508160011b916000199060031b1c191617600d8201555b6101c0840151600e820155600f810161139a6101e08601511515829060ff801983541691151516179055565b6102008501511515815461ff0062ff00006102208901511515871b169260081b169062ffff001916171790550191015190815191600160401b83116114d157815483835580841061144e575b506020019060005260206000206000915b8383106114305761142e858060005260176020526040600020600160ff1982541617905533600052601660205260406000206183cb565b005b60066020826114426001945186618299565b019201920191906113f7565b806006029060068204036114bb57836006026006810485036114bb5783600052602060002091820191015b81811061148657506113e6565b8060006006925560006001820155600060028201556114a760038201618204565b600060048201556000600582015501611479565b634e487b7160e01b600052601160045260246000fd5b634e487b7160e01b600052604160045260246000fd5b015190508780611356565b90600d840160005260206000209160005b601f1985168110611550575092610240949260019260109583601f19811610611537575b505050811b01600d82015561136e565b015160001960f88460031b161c19169055878080611527565b91926020600181928685015181550194019201611503565b0151905085806112ed565b600c830160005260206000209060005b601f19841681106115ca575060019394959683601f198116106115b1575b505050811b01600c820155611305565b015160001960f88460031b161c191690558580806115a1565b9091602060018192858b015181550193019101611583565b01519050858061127f565b600a850160005260206000209060005b601f1984168110611644575060019394959683601f1981161061162b575b505050811b01600a840155611297565b015160001960f88460031b161c1916905585808061161b565b9091602060018192858b0151815501930191016115fd565b01519050858061121c565b6009840160005260206000209060005b601f19841681106116be575060019394959683601f198116106116a5575b505050811b016009830155611234565b015160001960f88460031b161c19169055858080611695565b9091602060018192858b015181550193019101611677565b80518051906001600160401b0382116114d1576116fd826116f78854617148565b88617d07565b602090601f831160011461174957928260019493602093869560009261173e575b5050600019600383901b1c191690841b1787555b019401910190926111c6565b015190508c8061171e565b908660005260206000209160005b601f19851681106117a1575083602093600196938796938794601f19811610611788575b505050811b018755611732565b015160001960f88460031b161c191690558c808061177b565b91926020600181928685015181550194019201611757565b80518051906001600160401b0382116114d1576117da826116f78854617148565b602090601f831160011461182657928260019493602093869560009261181b575b5050600019600383901b1c191690841b1787555b01940191019092611193565b015190508c806117fb565b908660005260206000209160005b601f198516811061187e575083602093600196938796938794601f19811610611865575b505050811b01875561180f565b015160001960f88460031b161c191690558c8080611858565b91926020600181928685015181550194019201611834565b80518051906001600160401b0382116114d1576118b7826116f78854617148565b602090601f83116001146119035792826001949360209386956000926118f8575b5050600019600383901b1c191690841b1787555b01940191019092611161565b015190508c806118d8565b908660005260206000209160005b601f198516811061195b575083602093600196938796938794601f19811610611942575b505050811b0187556118ec565b015160001960f88460031b161c191690558c8080611935565b91926020600181928685015181550194019201611911565b01519050858061110e565b6003830160005260206000209060005b601f19841681106119d5575060019394959683601f198116106119bc575b505050811b016003820155611126565b015160001960f88460031b161c191690558580806119ac565b9091602060018192858b01518155019301910161198e565b0151905085806110ac565b6002850160005260206000209060005b601f1984168110611a4f575060019394959683601f19811610611a36575b505050811b0160028401556110c4565b015160001960f88460031b161c19169055858080611a26565b9091602060018192858b015181550193019101611a08565b606460405162461bcd60e51b815260206004820152602060248201527f4552433732313a206d696e7420746f20746865207a65726f20616464726573736044820152fd5b60405162461bcd60e51b815260206004820152602560248201527f53756243617465676f7279204944206d75737420626520677265617465722074604482015264068616e20360dc1b6064820152608490fd5b60405162461bcd60e51b815260206004820152602260248201527f43617465676f7279204944206d7573742062652067726561746572207468616e604482015261020360f41b6064820152608490fd5b606460405162461bcd60e51b815260206004820152602060248201527f4d7573742062652076657269666965642073656c6c6572206f72206f776e65726044820152fd5b506000546001600160a01b03163314610d08565b634e487b7160e01b600052602160045260246000fd5b346105ea5760003660031901126105ea576020600d54604051908152f35b346105ea576020806003193601126105ea576001600160401b036004358181116105ea57611c0c90369060040161708c565b90611c15617765565b611c2182511515618680565b611c2c600b5461860d565b9081600b55604051611c3d81616ffe565b60008152604051611c4d81616fad565b8381528581018581526040820190600195868352606084019485526000526018885260406000209251835585830190518051908682116114d157611c9b82611c958554617148565b85617d07565b8990601f8311600114611d96579180611ce694926003979694600092611d8b575b505060001982881b1c191690891b1790555b511515600283019060ff801983541691151516179055565b01905180519283116114d157600160401b83116114d15785908254848455808510611d6e575b5001906000528460002060005b838110611d5d57600b546040518881527f11c167cc9b439f0ad8bec5588159f1b06b813bc38d50c867a41b23b077be2c1a9080611d58818c018b616c23565b0390a2005b825182820155918601918401611d19565b611d85908460005285846000209182019101617cf0565b87611d0c565b015190508c80611cbc565b889291601f19831691856000528c600020928d6000905b828210611df0575050916003989795939185611ce698969410611dd8575b505050811b019055611cce565b0151600019838a1b60f8161c191690558c8080611dcb565b8385015186558d979095019493840193018e611dad565b346105ea5760003660031901126105ea57600b54611e24816175b6565b611e316040519182617019565b818152601f19611e40836175b6565b01366020830137611e50826175b6565b91611e5e6040519384617019565b808352611e7a601f19611e70836175b6565b0160208501618839565b611e83816175b6565b92611e916040519485617019565b818452601f19611ea0836175b6565b01366020860137611eb0826175b6565b90611ebe6040519283617019565b828252611eca836175b6565b92611edd6020840194601f190185618839565b60015b81811115612019575050611eff60405194608086526080860190617731565b8481036020860152815180825260208201916020808360051b8301019401926000915b838310611fec57505050505083810360408501526020808651928381520195019060005b818110611fd457505050828403606084015251808452602084019060208160051b86010192916000905b828210611f7d5785850386f35b90919293601f19878203018252845190602080835192838152019201906000905b808210611fbc57505050602080600192960192019201909291611f70565b90919260208060019286518152019401920190611f9e565b82511515875260209687019690920191600101611f46565b909192939460208061200a600193601f198682030187528951616c23565b97019301930191939290611f22565b80600052601860205260406000209061206c60036040519361203a85616fad565b80548552604051612052816103d38160018601617182565b602086015260ff60028201541615156040860152016187ea565b60608301528151612087575b612082915061860d565b611ee0565b806000198101116114bb5760608261208293516120a860001985018b61866c565b5260208101516120bc60001985018861866c565b526120cb60001984018761866c565b50604081015115156120e160001985018c61866c565b5201516120f260001983018761866c565b5261210160001982018661866c565b50612078565b346105ea5760603660031901126105ea576004356001600160401b0381116105ea5761213790369060040161708c565b6024356001600160401b0381116105ea5761215690369060040161708c565b906044356001600160401b0381116105ea5761217690369060040161708c565b91612182331515617c6f565b33600052601460205260ff60406000205416612580576121a482511515617cad565b80511561254357604051926121b884616fc8565b8284526020840191825260408401524260608401526001608084015233600052601060205260406000209083518051906001600160401b0382116114d157819061220c826122068754617148565b87617d07565b602090601f83116001146124d7576000926124cc575b50508160011b916000199060031b1c19161782555b519283516001600160401b0381116114d1576122638161225a6001860154617148565b60018601617d07565b6020601f821160011461245d578192939495600092612452575b50508160011b916000199060031b1c19161760018301555b6002820160408201518051906001600160401b0382116114d1576122bd82611c958554617148565b602090601f83116001146123e05792826080936123179796936004966000926123d5575b50508160011b916000199060031b1c19161790555b606081015160038501550151151591019060ff801983541691151516179055565b3360005260146020526040600020600160ff19825416179055600f54600160401b8110156114d1576001810180600f558110156123bf57600f6000527f8d1108e10bcb7c27dddfc02ed9d693a074039d026cf4ea4240b40f7d581ac80201336001600160601b0360a01b8254161790557f48cac28ad4dc618e15f4c2dd5e97751182f166de97b25618318b2112aa951a2f6040516020815280611d5833946020830190616c23565b634e487b7160e01b600052603260045260246000fd5b0151905089806122e1565b90601f198316918460005260206000209260005b81811061243a575093612317979693600496936001938360809810612421575b505050811b0190556122f6565b015160001960f88460031b161c19169055898080612414565b929360206001819287860151815501950193016123f4565b01519050858061227d565b6001840160005260206000209060005b601f19841681106124b4575060019394959683601f1981161061249b575b505050811b016001830155612295565b015160001960f88460031b161c1916905585808061248b565b9091602060018192858b01518155019301910161246d565b015190508680612222565b9250846000526020600020906000935b601f1984168510612528576001945083601f1981161061250f575b505050811b018255612237565b015160001960f88460031b161c19169055868080612502565b818101518355602094850194600190930192909101906124e7565b60405162461bcd60e51b8152602060048201526015602482015274456d61696c2063616e6e6f7420626520656d70747960581b6044820152606490fd5b60405162461bcd60e51b815260206004820152601760248201527f5573657220616c726561647920726567697374657265640000000000000000006044820152606490fd5b346105ea5760403660031901126105ea576024356001600160401b0381116105ea57366023820112156105ea576001600160401b038160040135116105ea57366024826004013560051b830101116105ea57600435600052601860205260ff600260406000200154161561284f5760005b8160040135811061264357005b61264e600c5461860d565b80600c5561268061266783856004013560248701618717565b91906040519261267684616fad565b8484523691617055565b9160208201928352600435604083015260016060830152600052601960205260406000209181518355518051906001600160401b0382116114d1576126d5826126cc6001870154617148565b60018701617d07565b602090601f83116001146127d15761275393836127c1979694612739946060946000926127c6575b50508160011b916000199060031b1c19161760018501555b604081015160028501550151151560038093019060ff801983541691151516179055565b6004356000526018602052604060002001600c54906183cb565b7f5a8a989e12f3ce7cf805b73156a361da5d8369f0c37173209308910b322117ac600c5461278983866004013560248801618717565b9290836040519160208352816020840152604083013760006040858301015260408160043595601f80199101168101030190a361860d565b612636565b015190508a806126fd565b906001850160005260206000209160005b601f198516811061283757509360018461273994606094612753986127c19b9a98601f1981161061281e575b505050811b016001850155612715565b015160001960f88460031b161c191690558a808061280e565b919260206001819286850151815501940192016127e2565b60405162461bcd60e51b815260206004820152601a60248201527f506172656e742063617465676f7279206e6f74206163746976650000000000006044820152606490fd5b346105ea5760203660031901126105ea576004356128b0617765565b8060005260186020526128c96040600020541515618732565b806000526018602052600260406000200160ff1981541690557f79d3150b1760cd391f5006c9543aea088e4c9060f3e582ea0a948dc6649b25da6129226001604060002001604051918291604083526040830190617182565b600060208301520390a2005b346105ea5760203660031901126105ea57612968612963600435600052600460205260018060a01b0360406000205416151590565b6177bd565b600060405161297681616ffe565b5261035e60405161298681616ffe565b60008152604051918291602083526020830190616c23565b346105ea5760203660031901126105ea576001600160a01b036129bf616f12565b166000526013602052602060ff604060002054166040519015158152f35b346105ea5760403660031901126105ea576129f6616f12565b6001600160a01b03166000908152601660205260409020805460243591908210156105ea57602091612a27916174b6565b90546040519160031b1c8152f35b346105ea576020806003193601126105ea57600435612a526180f6565b508060005260158252612a7360ff600f6040600020015460101c1615618493565b8060005260178252612a8c60ff6040600020541661844e565b6000526015815260406000209060405191612aa683616f3e565b805483526001808201546001600160a01b031683850152604051612ad1816103d38160028701617182565b6040850152604051612aea816103d38160038701617182565b606085015260048201546080850152600582015460a08501526010600692612b138482016175cd565b60c0870152612b24600782016175cd565b60e0870152612b35600882016175cd565b610100870152604051612b4f816103d38160098601617182565b610120870152604051612b69816103d381600a8601617182565b610140870152600b810154610160870152604051612b8e816103d381600c8601617182565b610180870152604051612ba8816103d381600d8601617182565b6101a0870152600e8101546101c087015260ff600f82015481811615156101e0890152818160081c161515610200890152831c1615156102208701520191825490612bf2826175b6565b93612c006040519586617019565b8285526000908152858120868087015b858410612c32576102408a018890526040518281528061035e8185018d616d60565b86918591612c3f856185ac565b8152019201920191908790612c10565b346105ea5760203660031901126105ea5760206001600160a01b0380612c73616f12565b16600052601e825260406000205416604051908152f35b346105ea5760803660031901126105ea57612ca3616f12565b612cab616f28565b606435916001600160401b0383116105ea57366023840112156105ea57612cdf61142e933690602481600401359101617055565b91604435916178cc565b346105ea576020806003193601126105ea576001600160a01b039081612d0d616f12565b16600052601b81526040600020805490612d26826175b6565b92612d346040519485617019565b82845260009182528082208185015b848410612d58576040518061035e8882617348565b601683600192604051612d6a81616f91565b85548152848601548382015260028601546040820152600386015460608201526004860154608082015260ff8b60058801541660a090818401526006880154908d821660c08501521c16151560e0820152612dc7600787016174ea565b610100820152612dd9600f8701617632565b610120820152815201920193019290612d43565b346105ea5760203660031901126105ea576004356000526017602052602060ff604060002054166040519015158152f35b346105ea576020806003193601126105ea57612f569061035e612e3f616f12565b612e47617d4e565b5060018060a01b0316918260005260138152612e6a60ff60406000205416617d85565b826000526011815260406000209260ff600660405195612e8987616f76565b604051612e9a816103d38185617182565b8752604051612eb0816103d38160018601617182565b85880152604051612ec8816103d38160028601617182565b6040880152604051612ee1816103d38160038601617182565b6060880152604051612efa816103d38160048601617182565b6080880152600581015460a0880152015416151560c08501526000526012815260ff60406000205416601a825260406000205460168352612f5f612f4160406000206187ea565b92604051978897608089526080890190617429565b948701906174a9565b60408501528382036060850152617731565b346105ea5760203660031901126105ea57612f8a616f12565b612f92617765565b6001600160a01b03168015612ff25760407f32b449308c94e824ccedd9877932cd82f89a481c06c4643a0cb2914454a8c5829133600052601e60205281600020816001600160601b0360a01b8254161790558151903382526020820152a1005b60405162461bcd60e51b815260206004820152601760248201527f496e76616c6964206163636f756e7420616464726573730000000000000000006044820152606490fd5b346105ea5760403660031901126105ea57613050616f12565b60243590811515908183036105ea576001600160a01b0316913383146130cd5761309f9033600052600760205260406000208460005260205260406000209060ff801983541691151516179055565b6040519081527f17307eab39ab6107e8899845ad3d59bd9653f200f220920489ca2b5937696c3160203392a3005b60405162461bcd60e51b815260206004820152601960248201527f4552433732313a20617070726f766520746f2063616c6c6572000000000000006044820152606490fd5b346105ea5760403660031901126105ea5761312b616f12565b6001600160a01b039081166000908152601b602052604090208054602435908110156105ea57610c57916174ce565b346105ea576020806003193601126105ea57600435908160005260159182825260ff90600f604060002001549061319783601093841c1615618493565b80600052601784526131af836040600020541661844e565b60009460005b82600052818652836040600020015481101561320b578460046131de8387604060002001618894565b50015416156131f6575b6131f19061860d565b6131b5565b956132036131f19161860d565b9690506131e8565b50909293613218866175b6565b956132266040519788617019565b808752613235601f19916175b6565b018160005b8281106132e35750505060009360005b8160005283835284604060002001548110156132d0578660046132738388604060002001618894565b500154161561328b575b6132869061860d565b61324a565b946132c861328691836000528585526132b36132ad8989604060002001618894565b506185ac565b6132bd828c61866c565b52610549818b61866c565b95905061327d565b6040518381528061035e8186018b616cbf565b6132eb618863565b82828b01015201829061323a565b346105ea5760403660031901126105ea57613312616f12565b6024359060048210156105ea57613327617765565b60018060a01b031690816000526020906013825261334c60ff60406000205416617d85565b801561340457826000526012825260ff604060002054166004811015611ba65781146133bf57907fd8f7bcb2c5cffc294a0aaef719685993d7be95273fb8254803a1563510ccefed918360005260128252604060002060ff1981541660ff83161790556133bc60405180926174a9565ba2005b60405162461bcd60e51b815260048101839052601e60248201527f53656c6c657220616c72656164792068617320746869732073746174757300006044820152606490fd5b60405162461bcd60e51b815260048101839052601f60248201527f43616e6e6f74207365742073746174757320746f20556e7665726966696564006044820152606490fd5b346105ea5760003660031901126105ea57604051600060035461346b81617148565b8084529060019081811690811561350457506001146134a9575b61035e8461349581860382617019565b604051918291602083526020830190616c23565b6003600090815292507fc2575a0e9e593c00f959f8c92f12db2869c3395a3b0502d05e2516446f71f85b5b8284106134ec57505050810160200161349582613485565b805460208587018101919091529093019281016134d4565b60ff191660208087019190915292151560051b850190920192506134959150839050613485565b346105ea5760203660031901126105ea576001600160a01b0361354c616f12565b1660005260116020526135fc6040600020604051906135768261356f8184617182565b0383617019565b60405161358a816103d38160018601617182565b6136346040516135a1816103d38160028801617182565b6136266040516135b8816103d38160038a01617182565b613618604051936135d7856135d08160048c01617182565b0386617019565b61360a60ff600660058b01549a015416976040519b8c9b60e08d5260e08d0190616c23565b908b820360208d0152616c23565b9089820360408b0152616c23565b908782036060890152616c23565b908582036080870152616c23565b9160a0840152151560c08301520390f35b346105ea5760203660031901126105ea576004356001600160401b0381116105ea5761367590369060040161708c565b600854600060015b828111156138e9575061368f9061861c565b90600160005b828211156136ab576040518061035e8682616eb0565b816000526015806020526009906103d36136d18360406000200160405192838092617182565b602081519101208751602089012014806138cb575b6136fd575b5050906136f79061860d565b90613695565b8360005260205260406000206103d36137bb6040519361371c85616f3e565b8354855260018401546001600160a01b03166020860152604051613747816103d38160028901617182565b6040860152604051613760816103d38160038901617182565b606086015260048401546080860152600584015460a0860152613785600685016175cd565b60c0860152613796600785016175cd565b60e08601526137a7600885016175cd565b610100860152604051928380928601617182565b6101208301526040516137d5816103d381600a8601617182565b610140830152600b8101546101608301526040516137fa816103d381600c8601617182565b610180830152604051613814816103d381600d8601617182565b6101a0830152600e8101546101c0830152600f8101549060ff80831615156101e0850152808360081c161515610200850152601092831c16151561022084015201805490613861826175b6565b9161386f6040519384617019565b808352602083019160005260206000206000925b8284106138ad57505050506102408201526136f7916138a69161053e828861866c565b90866136eb565b600660206001926138bd856185ac565b815201920193019290613883565b50836000528060205260ff600f6040600020015460101c16156136e6565b806000526015806020526103d361390d600960406000200160405192838092617182565b602081519101208551602087012014908161394c575b50613937575b6139329061860d565b61367d565b906139446139329161860d565b919050613929565b90508160005260205260ff600f6040600020015460101c161585613923565b346105ea5760003660031901126105ea576000546040516001600160a01b039091168152602090f35b346105ea576003196040368201126105ea576001600160401b03602435116105ea576101a090602435360301126105ea576004356000908152601560205260409020600101546001600160a01b03163303614341576004356000526017602052613a0560ff6040600020541661844e565b6004356000526015602052613a2860ff600f6040600020015460101c1615618493565b613a3a610d1e60046024350180617e3d565b613a50610d3e6024803501602435600401617e3d565b613a61604460243501351515617ebb565b613a72606460243501351515617f07565b613a89610d80608460243501602435600401617f53565b613aa0610ddd60c460243501602435600401617f53565b613ab96005610dff60c460243501602435600401617f53565b60e46024350135156142fc576101046024350135156142b757613ae461012460243501351515617fcd565b613af661018460243501351515618019565b613b0560046024350180617e3d565b60043560005260156020526002604060002001906001600160401b0381116114d157613b3b81613b358454617148565b84617d07565b600092601f821160011461424e5792819293600092614243575b50508160011b916000199060031b1c19161790555b613b7d6024803501602435600401617e3d565b60043560005260156020526003604060002001906001600160401b0381116114d157613bad81613b358454617148565b600092601f82116001146141da57928192936000926141cf575b50508160011b916000199060031b1c19161790555b60043560005260156020526044602435013560046040600020015560646024350135600560406000200155613c1b608460243501602435600401617f53565b600660406000200191613c2e8284618250565b60009283526020832090805b8385106140ec57613c5560a460243501602435600401617f53565b6004356000526015602052600760406000200191613c738284618250565b60009283526020832090805b83851061400957613c9a60c460243501602435600401617f53565b6004356000526015602052600860406000200191613cb88284618250565b60009283526020832090805b838510613f265760e460243501356000526018602052613cfd6001604060002001600435600052601560205260096040600020016184d4565b61010460243501356000526019602052613d3060016040600020016004356000526015602052600a6040600020016184d4565b613d4561014460243501602435600401617e3d565b6004356000526015602052600c604060002001906001600160401b0381116114d157613d7581613b358454617148565b600092601f8211600114613ebd5792819293600092613eb2575b50508160011b916000199060031b1c19161790555b613db961016460243501602435600401617e3d565b6004356000526015602052600d604060002001906001600160401b0381116114d157613de981613b358454617148565b6000601f8211600114613e4d57819293600092613e42575b50508160011b916000199060031b1c19161790555b6004356000908152601560205260409020602435610124810135600b8301556101840135600e90910155005b013590508380613e01565b601f198216938360005260206000209160005b868110613e9a5750836001959610613e80575b505050811b019055613e16565b0135600019600384901b60f8161c19169055838080613e73565b90926020600181928686013581550194019101613e60565b013590508380613d8f565b826000526020600020906000945b601f1984168610613f0e57600194955083601f19811610613ef4575b505050811b019055613da4565b0135600019600384901b60f8161c19169055838080613ee7565b91602060018192858501358155019301950194613ecb565b613f308183617e3d565b906001600160401b0382116114d157613f4d826122068754617148565b600090601f8311600114613f99579282600194936020938695600092613f8e575b5050600019600383901b1c191690841b1786555b01930194019391613cc4565b013590508a80613f6e565b8560005260206000209160005b601f1985168110613ff1575083602093600196938796938794601f19811610613fd7575b505050811b018655613f82565b0135600019600384901b60f8161c191690558a8080613fca565b90926020600181928686013581550194019101613fa6565b6140138183617e3d565b906001600160401b0382116114d157614030826122068754617148565b600090601f831160011461407c579282600194936020938695600092614071575b5050600019600383901b1c191690841b1786555b01930194019391613c7f565b013590508a80614051565b8560005260206000209160005b601f19851681106140d4575083602093600196938796938794601f198116106140ba575b505050811b018655614065565b0135600019600384901b60f8161c191690558a80806140ad565b90926020600181928686013581550194019101614089565b6140f68183617e3d565b906001600160401b0382116114d157614113826122068754617148565b600090601f831160011461415f579282600194936020938695600092614154575b5050600019600383901b1c191690841b1786555b01930194019391613c3a565b013590508a80614134565b8560005260206000209160005b601f19851681106141b7575083602093600196938796938794601f1981161061419d575b505050811b018655614148565b0135600019600384901b60f8161c191690558a8080614190565b9092602060018192868601358155019401910161416c565b013590508380613bc7565b826000526020600020906000945b601f198416861061422b57600194955083601f19811610614211575b505050811b019055613bdc565b0135600019600384901b60f8161c19169055838080614204565b916020600181928585013581550193019501946141e8565b013590508380613b55565b826000526020600020906000945b601f198416861061429f57600194955083601f19811610614285575b505050811b019055613b6a565b0135600019600384901b60f8161c19169055838080614278565b9160206001819285850135815501930195019461425c565b60405162461bcd60e51b815260206004820152601c60248201527f5375622d63617465676f72792063616e6e6f7420626520656d707479000000006044820152606490fd5b60405162461bcd60e51b815260206004820152601860248201527f43617465676f72792063616e6e6f7420626520656d70747900000000000000006044820152606490fd5b60405162461bcd60e51b815260206004820152602860248201527f4f6e6c79207468652073656c6c65722063616e20757064617465207468656972604482015267081c1c9bd91d58dd60c21b6064820152608490fd5b346105ea5760a03660031901126105ea576004356001600160401b0381116105ea576143c790369060040161708c565b60249081356001600160401b0381116105ea576143e890369060040161708c565b6044356001600160401b0381116105ea5761440790369060040161708c565b6064356001600160401b0381116105ea5761442690369060040161708c565b906084356001600160401b0381116105ea5761444690369060040161708c565b92614452331515617c6f565b33600052601360205260ff60406000205416614b1b57845115614ade57815115614aa957825115614a74576040519461448a86616f76565b855260208501526040840152606083015260808201524260a0820152600160c082015233600052601160205260406000209080519283516001600160401b038111614a5f576144e3816144dd8654617148565b86617d07565b6020601f82116001146149f65781929394956000926149eb575b50508160011b916000199060031b1c19161783555b60208201519283516001600160401b0381116149d657614542816145396001850154617148565b60018501617d07565b6020601f821160011461496757819293949560009261495c575b50508160011b916000199060031b1c19161760018201555b60408301519283516001600160401b038111614947576145a48161459b6002860154617148565b60028601617d07565b6020601f82116001146148d85781929394956000926148cd575b50508160011b916000199060031b1c19161760028301555b6003820160608201518051906001600160401b038211614847578190614600826144dd8654617148565b602090601f83116001146148675760009261485c575b50508160011b916000199060031b1c19161790555b6004820160808201518051906001600160401b0382116148475761465382611c958554617148565b602090601f83116001146147d557928260c0936146ad9796936006966000926147ca575b50508160011b916000199060031b1c19161790555b60a081015160058501550151151591019060ff801983541691151516179055565b336000526013602052604060002060ff1990600182825416179055601260205260016040600020918254161790556146e433619966565b15614745575b6040514281527fa1a1a78ff3033d5ee8393372052aeb2a16bbb347a29f3780370e9506c109e37260203392a2604051600181527fd8f7bcb2c5cffc294a0aaef719685993d7be95273fb8254803a1563510ccefed60203392a2005b600e5490600160401b8210156147b6576001820180600e558210156147a25750600e6000527fbb7b4a454dc3493923482f07822329ed19e8244eff582cc204f8554c3620c3fd0180546001600160a01b03191633179055806146ea565b634e487b7160e01b60009081526032600452fd5b634e487b7160e01b60009081526041600452fd5b015190508980614677565b90601f198316918460005260206000209260005b81811061482f5750936146ad979693600696936001938360c09810614816575b505050811b01905561468c565b015160001960f88460031b161c19169055898080614809565b929360206001819287860151815501950193016147e9565b85634e487b7160e01b60005260416004526000fd5b015190508680614616565b6000858152602081209350601f198516905b8181106148b5575090846001959493921061489c575b505050811b01905561462b565b015160001960f88460031b161c1916905586808061488f565b92936020600181928786015181550195019301614879565b0151905085806145be565b6002840160005260206000209060005b601f198416811061492f575060019394959683601f19811610614916575b505050811b0160028301556145d6565b015160001960f88460031b161c19169055858080614906565b9091602060018192858b0151815501930191016148e8565b83634e487b7160e01b60005260416004526000fd5b01519050858061455c565b6001830160005260206000209060005b601f19841681106149be575060019394959683601f198116106149a5575b505050811b016001820155614574565b015160001960f88460031b161c19169055858080614995565b9091602060018192858b015181550193019101614977565b82634e487b7160e01b60005260416004526000fd5b0151905085806144fd565b8460005260206000209060005b601f1984168110614a47575060019394959683601f19811610614a2e575b505050811b018355614512565b015160001960f88460031b161c19169055858080614a21565b9091602060018192858b015181550193019101614a03565b50634e487b7160e01b60009081526041600452fd5b60405162461bcd60e51b815260206004820152600e818801526d141a1bdb99481c995c5d5a5c995960921b6044820152606490fd5b60405162461bcd60e51b815260206004820152600e818801526d115b585a5b081c995c5d5a5c995960921b6044820152606490fd5b60405162461bcd60e51b81526020600482015260168188015275109d5cda5b995cdcc81b985b59481c995c5d5a5c995960521b6044820152606490fd5b60405162461bcd60e51b815260206004820152601c818801527f416c726561647920726567697374657265642061732073656c6c6572000000006044820152606490fd5b346105ea5760403660031901126105ea576001600160401b036004356024358281116105ea57614b9390369060040161708c565b614b9b617765565b816000526020906018825260406000205415614d6857614bbd815115156186cc565b614bc8600c5461860d565b80600c5560405190614bd982616fad565b808252838201838152604083019086825260608401926001908185526000526019875260406000209451855580850191518051998a116114d157614c218a611c958554617148565b8790601f8b11600114614cd95799808060039694614c95999896947f5a8a989e12f3ce7cf805b73156a361da5d8369f0c37173209308910b322117ac9c9d9e600094614cce575b50501b9160001990871b1c19161790555b51600284015551151591019060ff801983541691151516179055565b8360005260188352614cb16003604060002001600c54906183cb565b600c5492614cc9604051928284938452830190616c23565b0390a3005b015192508e80614c68565b9990601f1982169a84600052896000209b60005b818110614d5357509b60039694928492614c959a9997957f5a8a989e12f3ce7cf805b73156a361da5d8369f0c37173209308910b322117ac9d9e9f10614d3b575b505050811b019055614c79565b015160001983891b60f8161c191690558c8080614d2e565b838301518e559c85019c928b01928b01614ced565b60405162461bcd60e51b815260048101839052601e60248201527f506172656e742063617465676f727920646f6573206e6f7420657869737400006044820152606490fd5b346105ea5760203660031901126105ea57600435600052601560205260406000208054600160a01b600190036001830154169160405180806002840190614df391617182565b03614dfe9082617019565b60405180614e0f8160038601617182565b03614e1a9082617019565b600483015460058401549060405180806009880190614e3891617182565b03614e439082617019565b6040519081614e5581600a8a01617182565b03614e609083617019565b600b87015492604051948580600c8b0190614e7a91617182565b03614e859087617019565b6040519687614e9781600d8d01617182565b03614ea29089617019565b600e8a015499600f0154986040519c8d9c8d5260208d01528b6101e06040819201528c01614ecf91616c23565b8b810360608d0152614ee091616c23565b9160808b015260a08a015288810360c08a0152614efc91616c23565b87810360e0890152614f0d91616c23565b90610100870152858103610120870152614f2691616c23565b848103610140860152614f3891616c23565b9161016084015260ff811615156101808401528060081c60ff1615156101a084015260101c60ff1615156101c08301520390f35b346105ea5760003660031901126105ea57614f85617765565b600080546001600160a01b0319811682556001600160a01b03167f8be0079c531659141344cd1fd0a4f28419497f9722a3daafe3b4186f6b6457e08280a3005b346105ea5760203660031901126105ea576001600160a01b03614fe6616f12565b1680156150055760005260056020526020604060002054604051908152f35b60405162461bcd60e51b815260206004820152602960248201527f4552433732313a2061646472657373207a65726f206973206e6f7420612076616044820152683634b21037bbb732b960b91b6064820152608490fd5b346105ea576020806003193601126105ea57615076616f12565b6040519061508382616fc8565b6000608060609384815284868201528460408201528285820152015260018060a01b031690816000526014835260ff604060002054169160108452604060002091604051916150d183616fc8565b6040516150e2816103d38188617182565b8352604051906150f98261356f8160018901617182565b86840191825260405191615114836106388160028a01617182565b6040850192835260ff6004600388015497868801988952015416916080860192151583526000526013885260ff6040600020541692836000146151d7576012895260ff60406000205416955b604051998a9915158a52890160809052516080890160a09052610120890161518791616c23565b9151607f1992838a82030160a08b01526151a091616c23565b9051918882030160c08901526151b591616c23565b945160e087015251151561010086015215156040850152830161035e916174a9565b600095615160565b346105ea5760203660031901126105ea576004356000526019602052604060002060405161520c81616fad565b81548152604051906152258261356f8160018701617182565b6020810191825260ff600360028501549460408401958652015416906060810191151582526152568151151561879e565b51915192519051151561527b6040519485948552608060208601526080850190616c23565b91604084015260608301520390f35b346105ea5761529836617109565b6152a3929192617765565b81600052602092601884526152be6040600020541515618732565b6152ca81511515618680565b8260005260188452600193846040600020018251956001600160401b0387116114d1576152fb87613b358454617148565b82601f88116001146153875796808060189594937f79d3150b1760cd391f5006c9543aea088e4c9060f3e582ea0a948dc6649b25da999a60009361537c575b501b916000199060031b1c19161790555b856000525261536d8260026040600020019060ff801983541691151516179055565b611d586040519283928361877e565b88015192508b61533a565b96601f1981169783600052846000209860005b8181106153f957509882916018969594937f79d3150b1760cd391f5006c9543aea088e4c9060f3e582ea0a948dc6649b25da9a9b106153e0575b5050811b01905561534b565b87015160001960f88460031b161c1916905589806153d4565b878301518b559984019991860191860161539a565b346105ea5760203660031901126105ea57602061542c600435617809565b6040516001600160a01b039091168152f35b346105ea5760203660031901126105ea576001600160a01b0361545f616f12565b16600052601a6020526020604060002054604051908152f35b346105ea5760203660031901126105ea57600435615494617765565b606481116154a157600d55005b60405162461bcd60e51b8152602060048201526012602482015271496e76616c69642070657263656e7461676560701b6044820152606490fd5b346105ea5760003660031901126105ea5760405180600e5480835260208093018091600e6000527fbb7b4a454dc3493923482f07822329ed19e8244eff582cc204f8554c3620c3fd9060005b8682821061558657868661553d82880383617019565b604051928392818401908285525180915260408401929160005b82811061556657505050500390f35b83516001600160a01b031685528695509381019392810192600101615557565b83546001600160a01b031685529093019260019283019201615527565b346105ea5760203660031901126105ea57600435600f548110156105ea57600f6000527f8d1108e10bcb7c27dddfc02ed9d693a074039d026cf4ea4240b40f7d581ac80201546040516001600160a01b039091168152602090f35b346105ea5760203660031901126105ea576001600160a01b0361561f616f12565b166000526012602052602060ff604060002054166108e060405180926174a9565b346105ea576020806003193601126105ea5761565a616f12565b615662617d4e565b506001600160a01b031660008181526013835260409020546156869060ff16617d85565b6000526011815260406000209060ff6006604051936156a485616f76565b6040516156b5816103d38185617182565b85526040516156cb816103d38160018601617182565b848601526040516156e3816103d38160028601617182565b60408601526040516156fc816103d38160038601617182565b6060860152604051615715816103d38160048601617182565b6080860152600581015460a0860152015416151560c083015261035e604051928284938452830190617429565b346105ea57615750366170d4565b6040519160208301938385106001600160401b038611176114d15761142e94604052600084526178cc565b346105ea5760003660031901126105ea576157946188b0565b3360005260206013815260ff60406000205416156158775733600052601a815260406000205490811561583a5761582e615834926157e160646157d9600d54846181f1565b048092618856565b9233600052601a8152600060408120557f8ad64a0ac7700dd8425ab0499f107cb6e2cd1581d803c5b8c1c79dcb8190b1af60405191600083523392a26000546001600160a01b0316619900565b33619900565b60018055005b6064906040519062461bcd60e51b8252600482015260166024820152754e6f2062616c616e636520746f20776974686472617760501b6044820152fd5b6064906040519062461bcd60e51b82526004820152601b60248201527f4d757374206265206120726567697374657265642073656c6c657200000000006044820152fd5b346105ea576020806003193601126105ea576001600160a01b0390816158df616f12565b16600052601c815260406000208054906158f8826175b6565b926159066040519485617019565b82845260009182528082208185015b84841061592a576040518061035e8882617348565b60168360019260405161593c81616f91565b85548152848601548382015260028601546040820152600386015460608201526004860154608082015260ff8b60058801541660a090818401526006880154908d821660c08501521c16151560e0820152615999600787016174ea565b6101008201526159ab600f8701617632565b610120820152815201920193019290615915565b346105ea5760203660031901126105ea576001600160a01b036159e0616f12565b166000526010602052615a53604060002060405190615a038261356f8184617182565b604051615a17816103d38160018601617182565b615a6f604051615a2e816103d38160028801617182565b615a6160ff60046003870154960154169360405197889760a0895260a0890190616c23565b908782036020890152616c23565b908582036040870152616c23565b916060840152151560808301520390f35b346105ea57615a8e36617109565b615a99929192617765565b8160005260209260198452615ab4604060002054151561879e565b615ac0815115156186cc565b8260005260198452600193846040600020018251956001600160401b0387116114d157615af187613b358454617148565b82601f8811600114615b6e5796808060199594937f4cfca6396923c3eee68be58aa35fd6623ae5d67bb552da5e1de2e0d5854166dc999a600093615b63575b501b916000199060031b1c19161790555b856000525261536d8260036040600020019060ff801983541691151516179055565b88015192508b615b30565b96601f1981169783600052846000209860005b818110615be057509882916019969594937f4cfca6396923c3eee68be58aa35fd6623ae5d67bb552da5e1de2e0d5854166dc9a9b10615bc7575b5050811b019055615b41565b87015160001960f88460031b161c191690558980615bbb565b878301518b5599840199918601918601615b81565b346105ea5760403660031901126105ea57602480356004356000805b8260005260156020908082526010918260406000200154841015615e105786615c408585604060002001618894565b505414615c5857505050615c539061860d565b615c11565b919350919394600052601d815260ff94856040600020541615615dd65780600052828252615c8c8585604060002001618894565b50600190810154909690336001600160a01b0391821614908115615dc8575b5015615d7357816000528383526004615cca8787604060002001618894565b50015416615d365791615ceb93916004959360005252604060002001618894565b5001805460ff1916821790555b15615cff57005b60649060106040519162461bcd60e51b8352602060048401528201526f14995d9a595dc81b9bdd08199bdd5b9960821b6044820152fd5b60405162461bcd60e51b8152600481018390526016818901527514995d9a595dc8185b1c9958591e4819195b195d195960521b6044820152606490fd5b60405162461bcd60e51b8152600481018490526028818a01527f4f6e6c79207265766965776572206f72206f776e65722063616e2064656c6574604482015267652072657669657760c01b6064820152608490fd5b600054163314905089615cab565b50606491866040519262461bcd60e51b845260048401528201527414995d9a595dc8191bd95cc81b9bdd08195e1a5cdd605a1b6044820152fd5b50505050915050615cf8565b346105ea5761142e615e2d366170d4565b91615e40615e3b8433617967565b61786a565b617a2f565b60031960a0368201126105ea576001600160401b03602435116105ea5761010090602435360301126105ea576044356001600160401b0381116105ea57615e909036906004016170a7565b906064356001600160401b0381116105ea57615eb09036906004016170a7565b91615eb96188b0565b600435600052601760205260ff604060002054161561634c576004356000526015602052604060002093600f8501549360ff8560101c166163075760058601549460843586106162cd57600487015495615f15608435886181f1565b341061629157615f289060843590618856565b8060058901551561627f575b5060018601546001600160a01b031694615f5190608435906181f1565b9360405192615f5f84616f5a565b6001600160401b0360243560040135116105ea57615f89366004602435810135602435010161708c565b84526001600160401b03602480350135116105ea57615fb4366004602480350135602435010161708c565b60208501526001600160401b0360446024350135116105ea57615fe23660243560448101350160040161708c565b6040850152606460243501356001600160401b0381116105ea5761600e9060043691602435010161708c565b6060850152608460243501356001600160401b0381116105ea5761603a9060043691602435010161708c565b608085015260a460243501356001600160401b0381116105ea576160669060043691602435010161708c565b60a085015260c460243501356001600160401b0381116105ea576160929060043691602435010161708c565b60c08501526001600160401b0360e46024350135116105ea576160e76003926160df6161df97616167946160d336600460e46024350135602435010161708c565b60e08a01523691617055565b943691617055565b60043560005260156020526040600020906040519461610586616f76565b604051616119816103d38160028801617182565b8652616127600884016175cd565b6020870152604086015260608501526084356080850152604051616152816103d38160098601617182565b60a08501526103d36040518094819301617182565b60c08201526040519161617983616f91565b60043583523460208401528460408401524260608401524260808401523360a08401528560c0840152600060e084015261010083015261012082015233600052601b6020526161cc816040600020618906565b83600052601c6020526040600020618906565b81600052601a60205260406000208054903482018092116114bb575560405190348252602082015242604082015233907f45280c7ac9cec77edd454e39e1641a3e22619146cf074a4239beee86a7c07edc606060043592a46001808060a01b039101541660405134815242602082015233907fbe6177108f4df43c5d7be79cb219c969fc97915bbdb4b56d14d391dcdcc16060604060043592a460018055005b60ff1916600117600f87015586615f34565b60405162461bcd60e51b8152602060048201526014602482015273125b9cdd59999a58da595b9d081c185e5b595b9d60621b6044820152606490fd5b60405162461bcd60e51b8152602060048201526012602482015271496e73756666696369656e742073746f636b60701b6044820152606490fd5b60405162461bcd60e51b815260206004820152601860248201527f50726f6475637420686173206265656e2064656c6574656400000000000000006044820152606490fd5b60405162461bcd60e51b8152602060048201526011602482015270141c9bd91d58dd081b9bdd08199bdd5b99607a1b6044820152606490fd5b346105ea5760203660031901126105ea576004356163a1617765565b8060005260196020526163ba604060002054151561879e565b806000526019602052600360406000200160ff1981541690557f4cfca6396923c3eee68be58aa35fd6623ae5d67bb552da5e1de2e0d5854166dc6129226001604060002001604051918291604083526040830190617182565b346105ea5760603660031901126105ea57602480356004356044356001600160401b0381116105ea5761644a90369060040161708c565b90806000526020916015835260018060a01b036001604060002001541633146165a9578315158061659e575b1561655a578051156165165790601592916001600a54019081600a5561649a618863565b958287523385880152604087015260608601524260a0860152600052601d82526040600020600160ff198254161790556000525260106040600020018054600160401b811015614947576164f391600182018155618894565b6165015761142e9250618299565b82634e487b7160e01b60005260006004526000fd5b60405162461bcd60e51b8152600481018490526017818701527f436f6d6d656e742063616e6e6f7420626520656d7074790000000000000000006044820152606490fd5b60405162461bcd60e51b815260048101849052601e818701527f526174696e67206d757374206265206265747765656e203120616e64203500006044820152606490fd5b506005841115616476565b60405162461bcd60e51b8152600481018490526026818701527f53656c6c65722063616e6e6f7420726576696577207468656972206f776e20706044820152651c9bd91d58dd60d21b6064820152608490fd5b346105ea5760003660031901126105ea57616615617765565b33600052601e60205260406000206001600160601b0360a01b81541690557f32b449308c94e824ccedd9877932cd82f89a481c06c4643a0cb2914454a8c5826040805133815260006020820152a1005b346105ea5760403660031901126105ea5761142e616681616f28565b600435619532565b346105ea5760203660031901126105ea576001600160a01b036166aa616f12565b166000526014602052602060ff604060002054166040519015158152f35b346105ea5760403660031901126105ea576166e1616f12565b602435906001600160a01b0380806166f885617809565b169216918083146167f3578033149081156167ce575b501561676357600083815260066020526040902080546001600160a01b0319168317905561673b83617809565b167f8c5be1e5ebec7d5bd14f71427d1e84f3dd0314c0f7b2291e5b200ac8c7c3b925600080a4005b60405162461bcd60e51b815260206004820152603d60248201527f4552433732313a20617070726f76652063616c6c6572206973206e6f7420746f60448201527f6b656e206f776e6572206f7220617070726f76656420666f7220616c6c0000006064820152608490fd5b9050600052600760205260406000203360005260205260ff604060002054168461670e565b60405162461bcd60e51b815260206004820152602160248201527f4552433732313a20617070726f76616c20746f2063757272656e74206f776e656044820152603960f91b6064820152608490fd5b346105ea5760203660031901126105ea57602061542c60043561782c565b346105ea5760003660031901126105ea57604051600060025461688281617148565b8084529060019081811690811561350457506001146168ab5761035e8461349581860382617019565b6002600090815292507f405787fa12a823e0f2b7631cc41b3ba8828b3321ca811111fa75cd3aa3bb5ace5b8284106168ee57505050810160200161349582613485565b805460208587018101919091529093019281016168d6565b346105ea5760003660031901126105ea5760088054600060015b82811115616b4757506169329061861c565b9060009260015b8281111561694f576040518061035e8682616eb0565b8060005260206015815260ff90600f806040600020015483601091821c1615616985575b505050506169809061860d565b616939565b60406000999599206040519461699a86616f3e565b8154865260018201546001600160a01b0316858701526040516169c4816103d38160028701617182565b60408701526040516169dd816103d38160038701617182565b606087015260048201546080870152600582015460a0870152600693616a048584016175cd565b60c0880152616a15600784016175cd565b60e0880152616a258984016175cd565b610100880152604051616a3f816103d38160098801617182565b610120880152604051616a59816103d381600a8801617182565b610140880152600b830154610160880152604051616a7e816103d381600c8801617182565b610180880152604051616a98816103d381600d8801617182565b6101a0880152600e8301546101c088015282015481811615156101e088015281818a1c161515610200880152831c1615156102208601520190815491616add836175b6565b93616aeb6040519586617019565b8385526000918252808220918186015b858210616b2b57505050505050918161698093610240616b2194015261053e828861866c565b9490868080616973565b8483600192616b39876185ac565b815201940191019092616afb565b80600052601560205260ff600f6040600020015460101c1615616b73575b616b6e9061860d565b616920565b90616b80616b6e9161860d565b919050616b65565b346105ea5760203660031901126105ea5760043563ffffffff60e01b81168091036105ea576020906380ac58cd60e01b8114908115616be5575b8115616bd4575b506040519015158152f35b6301ffc9a760e01b14905082616bc9565b635b5e139f60e01b81149150616bc2565b346105ea5760203660031901126105ea57602090600435600052601d825260ff6040600020541615158152f35b919082519283825260005b848110616c4f575050826000602080949584010152601f8019910116010190565b602081830181015184830182015201616c2e565b908082519081815260208091019281808460051b8301019501936000915b848310616c915750505050505090565b9091929394958480616caf600193601f198682030187528a51616c23565b9801930193019194939290616c81565b908082519081815260208091019281808460051b8301019501936000915b848310616ced5750505050505090565b9091929394958480600192601f1985820301865289519081518152848060a01b0383830151168382015260408083015190820152616d3a6060808401519060c08091850152830190616c23565b9160808082015115159083015260a0809101519101529801930193019194939290616cdd565b90616ead918051825260018060a01b036020820151166020830152616e67616e53616e34616e20616e0c616df8616de6616dc0616dae60408a015160408c61026091829101528c0190616c23565b60608a01518b820360608d0152616c23565b608089015160808b015260a089015160a08b015260c08901518a820360c08c0152616c63565b60e088015189820360e08b0152616c63565b6101008088015190898303908a0152616c63565b610120808701519088830390890152616c23565b610140808601519087830390880152616c23565b6101608085015190860152610180808501519086830390870152616c23565b6101a0808401519085830390860152616c23565b916101c080830151908201526101e08083015115159082015261020080830151151590820152610220808301511515908201526102408092015191818403910152616cbf565b90565b602080820190808352835180925260408301928160408460051b8301019501936000915b848310616ee45750505050505090565b9091929394958480616f02600193603f198682030187528a51616d60565b9801930193019194939290616ed4565b600435906001600160a01b03821682036105ea57565b602435906001600160a01b03821682036105ea57565b61026081019081106001600160401b038211176114d157604052565b61010081019081106001600160401b038211176114d157604052565b60e081019081106001600160401b038211176114d157604052565b61014081019081106001600160401b038211176114d157604052565b608081019081106001600160401b038211176114d157604052565b60a081019081106001600160401b038211176114d157604052565b60c081019081106001600160401b038211176114d157604052565b602081019081106001600160401b038211176114d157604052565b90601f801991011681019081106001600160401b038211176114d157604052565b6001600160401b0381116114d157601f01601f191660200190565b9291926170618261703a565b9161706f6040519384617019565b8294818452818301116105ea578281602093846000960137010152565b9080601f830112156105ea57816020616ead93359101617055565b9181601f840112156105ea578235916001600160401b0383116105ea57602083818601950101116105ea57565b60609060031901126105ea576001600160a01b039060043582811681036105ea579160243590811681036105ea579060443590565b9060606003198301126105ea5760043591602435906001600160401b0382116105ea576171389160040161708c565b9060443580151581036105ea5790565b90600182811c92168015617178575b602083101461716257565b634e487b7160e01b600052602260045260246000fd5b91607f1691617157565b906000929180549161719383617148565b9182825260019384811690816000146171f557506001146171b5575b50505050565b90919394506000526020928360002092846000945b8386106171e15750505050010190388080806171af565b8054858701830152940193859082016171ca565b9294505050602093945060ff191683830152151560051b010190388080806171af565b616ead9160e06172af61729d61728b6172796172676172556172438951610100808b528a0190616c23565b60208a015189820360208b0152616c23565b604089015188820360408a0152616c23565b60608801518782036060890152616c23565b60808701518682036080880152616c23565b60a086015185820360a0870152616c23565b60c085015184820360c0860152616c23565b9201519060e0818403910152616c23565b616ead9160c061733761731b6173096172f76172e5875160e0885260e0880190616c23565b60208801518782036020890152616c63565b60408701518682036040880152616c23565b60608601518582036060870152616c23565b6080850151608085015260a085015184820360a0860152616c23565b9201519060c0818403910152616c23565b602080820190808352835180925260409283810182858560051b8401019601946000925b85841061737d575050505050505090565b909192939495968580617418600193603f198682030188528b5180518252838101518483015287810151888301526060808201519083015260808082015190830152858060a01b0360a08181840151169084015260c09081830151169083015260e08082015115159083015261740461010080830151906101408091860152840190617218565b9161012080920151918184039101526172c0565b99019401940192959493919061736c565b9060c08061749461748261747061745e61744c885160e0895260e0890190616c23565b602089015188820360208a0152616c23565b60408801518782036040890152616c23565b60608701518682036060880152616c23565b60808601518582036080870152616c23565b9360a081015160a08501520151151591015290565b906004821015611ba65752565b80548210156123bf5760005260206000200190600090565b80548210156123bf576000526016602060002091020190600090565b90600760e06040936175b285519161750183616f5a565b61063883978051617516816103d38187617182565b8552805161752b816103d38160018801617182565b60208601528051617543816103d38160028801617182565b81860152805161755a816103d38160038801617182565b60608601528051617572816103d38160048801617182565b6080860152805161758a816103d38160058801617182565b60a086015280516175a2816103d38160068801617182565b60c0860152518096819301617182565b0152565b6001600160401b0381116114d15760051b60200190565b9081546175d9816175b6565b926040936175e985519182617019565b828152809460208092019260005281600020906000935b85851061760f57505050505050565b60018481928451617624816103d3818a617182565b815201930194019391617600565b90600660c06040936175b285519161764983616f76565b6106388397805161765e816103d38187617182565b855261766c600184016175cd565b60208601528051617684816103d38160028801617182565b81860152805161769b816103d38160038801617182565b60608601526004830154608086015280516176bd816103d38160058801617182565b60a0860152518096819301617182565b9895939092616ead9a98959261772298948b5260208b015260408a01526060890152608088015260018060a01b0380921660a08801521660c0860152151560e085015261014080610100860152840190617218565b916101208184039101526172c0565b90815180825260208080930193019160005b828110617751575050505090565b835185529381019392810192600101617743565b6000546001600160a01b0316330361777957565b606460405162461bcd60e51b815260206004820152602060248201527f4f776e61626c653a2063616c6c6572206973206e6f7420746865206f776e65726044820152fd5b156177c457565b60405162461bcd60e51b815260206004820152601860248201527f4552433732313a20696e76616c696420746f6b656e20494400000000000000006044820152606490fd5b6000908152600460205260409020546001600160a01b0316616ead8115156177bd565b60008181526004602052604090205461784f906001600160a01b031615156177bd565b6000908152600660205260409020546001600160a01b031690565b1561787157565b60405162461bcd60e51b815260206004820152602d60248201527f4552433732313a2063616c6c6572206973206e6f7420746f6b656e206f776e6560448201526c1c881bdc88185c1c1c9bdd9959609a1b6064820152608490fd5b906178f09392916178e0615e3b8433617967565b6178eb838383617a2f565b617b70565b156178f757565b60405162461bcd60e51b81528061791060048201617914565b0390fd5b60809060208152603260208201527f4552433732313a207472616e7366657220746f206e6f6e20455243373231526560408201527131b2b4bb32b91034b6b83632b6b2b73a32b960711b60608201520190565b906001600160a01b03808061797b84617809565b169316918383149384156179ae575b508315617998575b50505090565b6179a49192935061782c565b1614388080617992565b909350600052600760205260406000208260005260205260ff60406000205416923861798a565b156179dc57565b60405162461bcd60e51b815260206004820152602560248201527f4552433732313a207472616e736665722066726f6d20696e636f72726563742060448201526437bbb732b960d91b6064820152608490fd5b90617a5791617a3d84617809565b6001600160a01b03939184169284929091831684146179d5565b16918215617aef5781617a7491617a6d86617809565b16146179d5565b7fddf252ad1be2c89b69c2b068fc378daa952ba7f163c4a11628f55a4df523b3ef60008481526006602052604081206001600160601b0360a01b9081815416905583825260056020526040822060001981540190558482526040822060018154019055858252600460205284604083209182541617905580a4565b60405162461bcd60e51b8152602060048201526024808201527f4552433732313a207472616e7366657220746f20746865207a65726f206164646044820152637265737360e01b6064820152608490fd5b3d15617b6b573d90617b518261703a565b91617b5f6040519384617019565b82523d6000602084013e565b606090565b91926000929190813b15617c6557602091617bc69185604051958680958194630a85bd0160e11b9b8c845233600485015260018060a01b0380951660248501526044840152608060648401526084830190616c23565b0393165af190829082617c16575b5050617c0857617be2617b40565b80519081617c035760405162461bcd60e51b81528061791060048201617914565b602001fd5b6001600160e01b0319161490565b909192506020813d8211617c5d575b81617c3260209383617019565b81010312617c595751906001600160e01b031982168203617c565750903880617bd4565b80fd5b5080fd5b3d9150617c25565b5050505050600190565b15617c7657565b60405162461bcd60e51b815260206004820152600f60248201526e496e76616c6964206164647265737360881b6044820152606490fd5b15617cb457565b60405162461bcd60e51b81526020600482015260146024820152734e616d652063616e6e6f7420626520656d70747960601b6044820152606490fd5b818110617cfb575050565b60008155600101617cf0565b9190601f8111617d1657505050565b617d42926000526020600020906020601f840160051c83019310617d44575b601f0160051c0190617cf0565b565b9091508190617d35565b60405190617d5b82616f76565b600060c0836060808252806020830152806040830152808083015260808201528260a08201520152565b15617d8c57565b60405162461bcd60e51b815260206004820152601560248201527414d95b1b195c881b9bdd081c9959da5cdd195c9959605a1b6044820152606490fd5b6001600160a01b03908116908115617dff57600054168114617df957600052601260205260ff6040600020541690565b50600290565b60405162461bcd60e51b8152602060048201526016602482015275496e76616c69642073656c6c6572206164647265737360501b6044820152606490fd5b903590601e19813603018212156105ea57018035906001600160401b0382116105ea576020019181360383136105ea57565b15617e7657565b60405162461bcd60e51b815260206004820152601b60248201527f4465736372697074696f6e2063616e6e6f7420626520656d70747900000000006044820152606490fd5b15617ec257565b60405162461bcd60e51b815260206004820152601c60248201527f5072696365206d7573742062652067726561746572207468616e2030000000006044820152606490fd5b15617f0e57565b60405162461bcd60e51b815260206004820152601c60248201527f53746f636b206d7573742062652067726561746572207468616e2030000000006044820152606490fd5b903590601e19813603018212156105ea57018035906001600160401b0382116105ea57602001918160051b360383136105ea57565b15617f8f57565b60405162461bcd60e51b8152602060048201526016602482015275436f6c6f72732063616e6e6f7420626520656d70747960501b6044820152606490fd5b15617fd457565b60405162461bcd60e51b815260206004820152601d60248201527f576569676874206d7573742062652067726561746572207468616e20300000006044820152606490fd5b1561802057565b60405162461bcd60e51b815260206004820152601a60248201527f534b55206d7573742062652067726561746572207468616e20300000000000006044820152606490fd5b1561806c57565b60405162461bcd60e51b8152602060048201526016602482015275496d616765732063616e6e6f7420626520656d70747960501b6044820152606490fd5b156180b157565b60405162461bcd60e51b815260206004820152601c60248201527f496d616765732063616e6e6f74206265206d6f7265207468616e2035000000006044820152606490fd5b6040519061810382616f3e565b8161024060009182815282602082015260609283604083015283808301528060808301528060a08301528360c08301528360e08301528361010083015283610120830152836101408301528061016083015283610180830152836101a0830152806101c0830152806101e0830152806102008301526102208201520152565b9291909261818f846175b6565b9161819d6040519384617019565b829480845260208094019060051b8301928284116105ea5780915b8483106181c757505050505050565b82356001600160401b0381116105ea5786916181e6868493860161708c565b8152019201916181b8565b818102929181159184041417156114bb57565b61820e8154617148565b9081618218575050565b81601f6000931160011461822a575055565b8183526020832061824691601f0160051c810190600101617cf0565b8160208120915555565b90600160401b81116114d15781549181815582821061826e57505050565b600052602060002091820191015b818110618287575050565b80618293600192618204565b0161827c565b908051825560019081830160209060018060a01b0382840151166001600160601b0360a01b8254161790556040820151600285015560038401906060830151938451916001600160401b0383116114d1576182f8836144dd8654617148565b80601f841160011461835c57509180809260a0969594600598600094618351575b50501b916000199060031b1c19161790555b61834a60808201511515600486019060ff801983541691151516179055565b0151910155565b015192503880618319565b91939495601f1984168660005283600020936000905b8282106183b4575050916005979593918560a09896941061839b575b505050811b01905561832b565b015160001960f88460031b161c1916905538808061838e565b808886978294978701518155019601940190618372565b8054600160401b8110156114d1576183e8916001820181556174b6565b819291549060031b600019811b9283911b16911916179055565b1561840957565b60405162461bcd60e51b815260206004820152601c60248201527f4552433732313a20746f6b656e20616c7265616479206d696e746564000000006044820152606490fd5b1561845557565b60405162461bcd60e51b8152602060048201526016602482015275141c9bd91d58dd08191bd95cc81b9bdd08195e1a5cdd60521b6044820152606490fd5b1561849a57565b60405162461bcd60e51b8152602060048201526012602482015271141c9bd91d58dd081a5cc819195b195d195960721b6044820152606490fd5b908082146185a8576184e68154617148565b906001600160401b0382116114d1578190618505826144dd8654617148565b600090601f831160011461853c57600092618531575b50508160011b916000199060031b1c1916179055565b01549050388061851b565b81526020808220858352818320935090601f1985169083905b82821061858f575050908460019594939210618576575b505050811b019055565b015460001960f88460031b161c1916905538808061856c565b8495819295850154815560018091019601940190618555565b5050565b906040516185b981616fe3565b60a06005829480548452600180841b036001820154166020850152600281015460408501526040516185f2816103d38160038601617182565b606085015260ff600482015416151560808501520154910152565b60001981146114bb5760010190565b90618626826175b6565b6186336040519182617019565b8281528092618644601f19916175b6565b019060005b82811061865557505050565b6020906186606180f6565b82828501015201618649565b80518210156123bf5760209160051b010190565b1561868757565b60405162461bcd60e51b815260206004820152601d60248201527f43617465676f7279206e616d652063616e6e6f7420626520656d7074790000006044820152606490fd5b156186d357565b606460405162461bcd60e51b815260206004820152602060248201527f53756263617465676f7279206e616d652063616e6e6f7420626520656d7074796044820152fd5b908210156123bf5761872e9160051b810190617e3d565b9091565b1561873957565b60405162461bcd60e51b815260206004820152601760248201527f43617465676f727920646f6573206e6f742065786973740000000000000000006044820152606490fd5b90618796602091949394604084526040840190616c23565b931515910152565b156187a557565b60405162461bcd60e51b815260206004820152601a60248201527f53756263617465676f727920646f6573206e6f742065786973740000000000006044820152606490fd5b9060405191828154918282526020928383019160005283600020936000905b82821061881f57505050617d4292500383617019565b855484526001958601958895509381019390910190618809565b60005b82811061884857505050565b60608282015260200161883c565b919082039182116114bb57565b6040519061887082616fe3565b600060a0838281528260208201528260408201526060808201528260808201520152565b80548210156123bf576000526006602060002091020190600090565b6002600154146188c1576002600155565b60405162461bcd60e51b815260206004820152601f60248201527f5265656e7472616e637947756172643a207265656e7472616e742063616c6c006044820152606490fd5b8054600160401b8110156114d1576189259060019283820181556174ce565b6194c25782518155602090818401518382015560408401516002820155606084015190600391828201556080850151600490818301556005820160018060a01b03908160a0890151166001600160601b0360a01b825416179055600683019060c08801511681549060ff60a01b60e08a0151151560a01b16916affffffffffffffffffffff60a81b16171790556007820193610100870151928351938451966001600160401b0397888111618ebd576189e281613b358454617148565b8085601f988983116001146194575760009261944c575b5050600019828a1b1c1916908a1b1790555b60088201838201518051908982116191e9578190618a2d826144dd8654617148565b86908983116001146193e1576000926193d6575b5050600019828a1b1c1916908a1b1790555b6009820160408201518051908982116191e9578190618a76826144dd8654617148565b869089831160011461936b57600092619360575b5050600019828a1b1c1916908a1b1790555b600a820160608201518051908982116191e9578190618abf826144dd8654617148565b86908983116001146192f5576000926192ea575b5050600019828a1b1c1916908a1b1790555b600b820160808201518051908982116191e9578190618b08826144dd8654617148565b869089831160011461927f57600092619274575b5050600019828a1b1c1916908a1b1790555b600c820160a08201518051908982116191e9578190618b51826144dd8654617148565b8690898311600114619209576000926191fe575b5050600019828a1b1c1916908a1b1790555b600d820160c08201518051908982116191e9578190618b9a826144dd8654617148565b869089831160011461917e57600092619173575b5050600019828a1b1c1916908a1b1790555b60e001518051600e830191888211618ebd578190618be2826144dd8654617148565b859088831160011461911157600092619106575b505060001982891b1c191690891b1790555b610120600f8201980151978851805190888211618ebd578190618c2f826144dd8654617148565b85908883116001146190a457600092619099575b505060001982891b1c191690891b1790555b60108101828901519083825192618c6c8484618250565b0190600052836000206000915b838310618fac5750505050601181016040890151805190888211618ebd578190618ca7826144dd8654617148565b8590888311600114618f4a57600092618f3f575b505060001982891b1c191690891b1790555b601281016060890151805190888211618ebd578190618cf0826144dd8654617148565b8590888311600114618edd57600092618ed2575b505060001982891b1c191690891b1790555b608088015160138201556014810160a0890151805190888211618ebd57618d4182611c958554617148565b8490878311600114618e505791806015949260c09694600092618e45575b5050600019828b1b1c1916908b1b1790555b01970151918251958611618e305750618d9485618d8e8954617148565b89617d07565b80928511600114618dca5750938394918492600095618dbf575b50501b92600019911b1c1916179055565b015193503880618dae565b92919084601f1981168860005285600020956000905b89838310618e165750505010618dfc575b50505050811b019055565b01519060f884600019921b161c1916905538808080618df1565b858701518955909701969485019488935090810190618de0565b604190634e487b7160e01b6000525260246000fd5b015190503880618d5f565b8a9291601f1983169185600052876000209260005b89828210618ea75750509160c09795939185601598969410618e8f575b505050811b019055618d71565b0151600019838d1b60f8161c19169055388080618e82565b8385015186558f97909501949384019301618e65565b604186634e487b7160e01b6000525260246000fd5b015190503880618d04565b908b9350601f1983169185600052876000209260005b89828210618f295750508411618f11575b505050811b019055618d16565b0151600019838b1b60f8161c19169055388080618f04565b8385015186558f97909501949384019301618ef3565b015190503880618cbb565b908b9350601f1983169185600052876000209260005b89828210618f965750508411618f7e575b505050811b019055618ccd565b0151600019838b1b60f8161c19169055388080618f71565b8385015186558f97909501949384019301618f60565b80519081518b8111619084578c9181618fca8a936116f78854617148565b82948c821160011461900b5784958291600092619000575b5050600019828f1b1c191690841b1785555b01920192019190618c79565b015190503880618fe2565b8d9587600052846000209160005b601f198516811061906057509683929187988895601f19811610619046575b50505050811b018555618ff4565b01519060f884600019921b161c19169055388e8180619038565b949750929585928285979397015181550194019201928f9491928e96938c95619019565b604189634e487b7160e01b6000525260246000fd5b015190503880618c43565b908b9350601f1983169185600052876000209260005b898282106190f057505084116190d8575b505050811b019055618c55565b0151600019838b1b60f8161c191690553880806190cb565b8385015186558f979095019493840193016190ba565b015190503880618bf6565b908b9350601f1983169185600052876000209260005b8982821061915d5750508411619145575b505050811b019055618c08565b0151600019838b1b60f8161c19169055388080619138565b8385015186558f97909501949384019301619127565b015190503880618bae565b908c9350601f1983169185600052886000209260005b8a8282106191ca57505084116191b2575b505050811b019055618bc0565b0151600019838c1b60f8161c191690553880806191a5565b91929395968291958786015181550195019301908e9594939291619194565b604187634e487b7160e01b6000525260246000fd5b015190503880618b65565b908c9350601f1983169185600052886000209260005b8a828210619255575050841161923d575b505050811b019055618b77565b0151600019838c1b60f8161c19169055388080619230565b91929395968291958786015181550195019301908e959493929161921f565b015190503880618b1c565b908c9350601f1983169185600052886000209260005b8a8282106192cb57505084116192b3575b505050811b019055618b2e565b0151600019838c1b60f8161c191690553880806192a6565b91929395968291958786015181550195019301908e9594939291619295565b015190503880618ad3565b908c9350601f1983169185600052886000209260005b8a8282106193415750508411619329575b505050811b019055618ae5565b0151600019838c1b60f8161c1916905538808061931c565b91929395968291958786015181550195019301908e959493929161930b565b015190503880618a8a565b908c9350601f1983169185600052886000209260005b8a8282106193b7575050841161939f575b505050811b019055618a9c565b0151600019838c1b60f8161c19169055388080619392565b91929395968291958786015181550195019301908e9594939291619381565b015190503880618a41565b908c9350601f1983169185600052886000209260005b8a82821061942d5750508411619415575b505050811b019055618a53565b0151600019838c1b60f8161c19169055388080619408565b91929395968291958786015181550195019301908e95949392916193f7565b0151905038806189f9565b908c9350601f1983169185600052886000209260005b8a8282106194a3575050841161948b575b505050811b019055618a0b565b0151600019838c1b60f8161c1916905538808061947e565b91929395968291958786015181550195019301908e959493929161946d565b634e487b7160e01b600052600060045260246000fd5b156194df57565b60405162461bcd60e51b815260206004820152602560248201527f4f6e6c792076657269666965642073656c6c6572206f72206f776e657220616c6044820152641b1bddd95960da1b6064820152608490fd5b6000805490939291906001600160a01b03908116331461961557338552601e602052604085205481169081156195bf57818652601260205260ff60408720541660048110156195ab5791617d429596916002619599941492831561959e575b5050506194d8565b61961d565b5416149050388080619591565b634e487b7160e01b87526021600452602487fd5b9050601260205260ff60408620541660048110156196015794619599916002617d429697149182156195f3575b50506194d8565b9091505416331438806195ec565b634e487b7160e01b86526021600452602486fd5b50617d429293505b600091825b60018060a01b0380831680600052601b602081815260409283600020548610156198f3578761965487866000206174ce565b50541461966e5750505050506196699061860d565b619622565b80919293949697985060005282825261968a85856000206174ce565b509560ff60068098015460a01c166198b1578160005283835280876196b288886000206174ce565b5001541633149081156198a3575b501561984c57906196da94939291600052526000206174ce565b5001805460ff60a01b1916600160a01b17905560015b1561981257816000526020916015835260018060a01b039260019384936040828682600020015416866000905b619751575b50507ff9dc8543b583e01f592678422369b2777e3649761f5808ae432cb1c24ca9438c949550519586521693a3565b81600052601c808752836000205482101561980c578761977483866000206174ce565b505414806197e7575b619791575061978b9061860d565b8761971d565b7ff9dc8543b583e01f592678422369b2777e3649761f5808ae432cb1c24ca9438c979850906197cb916006936000528752836000206174ce565b5001805460ff60a01b1916600160a01b17905586959438619722565b50826000528087528560056197ff84876000206174ce565b500154168686161461977d565b50619722565b60405162461bcd60e51b8152602060048201526012602482015271141d5c98da185cd9481b9bdd08199bdd5b9960721b6044820152606490fd5b835162461bcd60e51b815260048101839052602a60248201527f4f6e6c792073656c6c6572206f72206f776e65722063616e206d61726b2061736044820152690819195b1a5d995c995960b21b6064820152608490fd5b6000541633149050386196c0565b6064838587519162461bcd60e51b8352600483015260248201527f416c7265616479206d61726b65642061732064656c69766572656400000000006044820152fd5b50505050505090916196f0565b6000918291829182916001600160a01b031661991d811515617c6f565b5af1619927617b40565b501561992f57565b60405162461bcd60e51b815260206004820152600f60248201526e151c985b9cd9995c8819985a5b1959608a1b6044820152606490fd5b6000908190600e8054925b83811061997f575050505090565b8185527fbb7b4a454dc3493923482f07822329ed19e8244eff582cc204f8554c3620c3fd8101546001600160a01b03848116911614617c65576199c19061860d565b61997156fea164736f6c6343000811000a",
  "linkReferences": {},
  "deployedLinkReferences": {}
}