{
  "_format": "hh-sol-artifact-1",
  "contractName": "HemShop",
  "sourceName": "contracts/HemShop.sol",
  "abi": [
    {
      "inputs": [
        {
          "internalType": "uint256",
          "name": "_pct",
          "type": "uint256"
        }
      ],
      "stateMutability": "nonpayable",
      "type": "constructor"
    },
    {
      "anonymous": false,
      "inputs": [
        {
          "indexed": false,
          "internalType": "address",
          "name": "admin",
          "type": "address"
        },
        {
          "indexed": false,
          "internalType": "address",
          "name": "impersonatedAccount",
          "type": "address"
        }
      ],
      "name": "AdminImpersonationChanged",
      "type": "event"
    },
    {
      "anonymous": false,
      "inputs": [
        {
          "indexed": true,
          "internalType": "address",
          "name": "owner",
          "type": "address"
        },
        {
          "indexed": true,
          "internalType": "address",
          "name": "approved",
          "type": "address"
        },
        {
          "indexed": true,
          "internalType": "uint256",
          "name": "tokenId",
          "type": "uint256"
        }
      ],
      "name": "Approval",
      "type": "event"
    },
    {
      "anonymous": false,
      "inputs": [
        {
          "indexed": true,
          "internalType": "address",
          "name": "owner",
          "type": "address"
        },
        {
          "indexed": true,
          "internalType": "address",
          "name": "operator",
          "type": "address"
        },
        {
          "indexed": false,
          "internalType": "bool",
          "name": "approved",
          "type": "bool"
        }
      ],
      "name": "ApprovalForAll",
      "type": "event"
    },
    {
      "anonymous": false,
      "inputs": [
        {
          "indexed": true,
          "internalType": "address",
          "name": "seller",
          "type": "address"
        },
        {
          "indexed": false,
          "internalType": "uint256",
          "name": "newBalance",
          "type": "uint256"
        }
      ],
      "name": "BalanceUpdated",
      "type": "event"
    },
    {
      "anonymous": false,
      "inputs": [
        {
          "indexed": true,
          "internalType": "uint256",
          "name": "id",
          "type": "uint256"
        },
        {
          "indexed": false,
          "internalType": "string",
          "name": "name",
          "type": "string"
        }
      ],
      "name": "CategoryCreated",
      "type": "event"
    },
    {
      "anonymous": false,
      "inputs": [
        {
          "indexed": true,
          "internalType": "uint256",
          "name": "id",
          "type": "uint256"
        },
        {
          "indexed": false,
          "internalType": "string",
          "name": "name",
          "type": "string"
        },
        {
          "indexed": false,
          "internalType": "bool",
          "name": "isActive",
          "type": "bool"
        }
      ],
      "name": "CategoryUpdated",
      "type": "event"
    },
    {
      "anonymous": false,
      "inputs": [
        {
          "indexed": true,
          "internalType": "uint256",
          "name": "productId",
          "type": "uint256"
        },
        {
          "indexed": true,
          "internalType": "address",
          "name": "buyer",
          "type": "address"
        },
        {
          "indexed": false,
          "internalType": "bool",
          "name": "isDelivered",
          "type": "bool"
        }
      ],
      "name": "DeliveryStatusUpdated",
      "type": "event"
    },
    {
      "anonymous": false,
      "inputs": [
        {
          "indexed": true,
          "internalType": "address",
          "name": "previousOwner",
          "type": "address"
        },
        {
          "indexed": true,
          "internalType": "address",
          "name": "newOwner",
          "type": "address"
        }
      ],
      "name": "OwnershipTransferred",
      "type": "event"
    },
    {
      "anonymous": false,
      "inputs": [
        {
          "indexed": true,
          "internalType": "uint256",
          "name": "productId",
          "type": "uint256"
        },
        {
          "indexed": true,
          "internalType": "address",
          "name": "buyer",
          "type": "address"
        },
        {
          "indexed": true,
          "internalType": "address",
          "name": "seller",
          "type": "address"
        },
        {
          "indexed": false,
          "internalType": "uint256",
          "name": "price",
          "type": "uint256"
        },
        {
          "indexed": false,
          "internalType": "uint256",
          "name": "timestamp",
          "type": "uint256"
        }
      ],
      "name": "ProductPurchased",
      "type": "event"
    },
    {
      "anonymous": false,
      "inputs": [
        {
          "indexed": true,
          "internalType": "uint256",
          "name": "productId",
          "type": "uint256"
        },
        {
          "indexed": true,
          "internalType": "address",
          "name": "buyer",
          "type": "address"
        },
        {
          "indexed": true,
          "internalType": "address",
          "name": "seller",
          "type": "address"
        },
        {
          "indexed": false,
          "internalType": "uint256",
          "name": "totalAmount",
          "type": "uint256"
        },
        {
          "indexed": false,
          "internalType": "uint256",
          "name": "basePrice",
          "type": "uint256"
        },
        {
          "indexed": false,
          "internalType": "uint256",
          "name": "timestamp",
          "type": "uint256"
        }
      ],
      "name": "PurchaseRecorded",
      "type": "event"
    },
    {
      "anonymous": false,
      "inputs": [
        {
          "indexed": true,
          "internalType": "address",
          "name": "seller",
          "type": "address"
        },
        {
          "indexed": false,
          "internalType": "uint256",
          "name": "timestamp",
          "type": "uint256"
        }
      ],
      "name": "SellerRegistered",
      "type": "event"
    },
    {
      "anonymous": false,
      "inputs": [
        {
          "indexed": true,
          "internalType": "address",
          "name": "seller",
          "type": "address"
        },
        {
          "indexed": false,
          "internalType": "enum HemShop.SellerStatus",
          "name": "status",
          "type": "uint8"
        }
      ],
      "name": "SellerStatusUpdated",
      "type": "event"
    },
    {
      "anonymous": false,
      "inputs": [
        {
          "indexed": true,
          "internalType": "uint256",
          "name": "id",
          "type": "uint256"
        },
        {
          "indexed": true,
          "internalType": "uint256",
          "name": "parentId",
          "type": "uint256"
        },
        {
          "indexed": false,
          "internalType": "string",
          "name": "name",
          "type": "string"
        }
      ],
      "name": "SubCategoryCreated",
      "type": "event"
    },
    {
      "anonymous": false,
      "inputs": [
        {
          "indexed": true,
          "internalType": "uint256",
          "name": "id",
          "type": "uint256"
        },
        {
          "indexed": false,
          "internalType": "string",
          "name": "name",
          "type": "string"
        },
        {
          "indexed": false,
          "internalType": "bool",
          "name": "isActive",
          "type": "bool"
        }
      ],
      "name": "SubCategoryUpdated",
      "type": "event"
    },
    {
      "anonymous": false,
      "inputs": [
        {
          "indexed": true,
          "internalType": "address",
          "name": "from",
          "type": "address"
        },
        {
          "indexed": true,
          "internalType": "address",
          "name": "to",
          "type": "address"
        },
        {
          "indexed": true,
          "internalType": "uint256",
          "name": "tokenId",
          "type": "uint256"
        }
      ],
      "name": "Transfer",
      "type": "event"
    },
    {
      "anonymous": false,
      "inputs": [
        {
          "indexed": true,
          "internalType": "address",
          "name": "user",
          "type": "address"
        },
        {
          "indexed": false,
          "internalType": "string",
          "name": "name",
          "type": "string"
        }
      ],
      "name": "UserRegistered",
      "type": "event"
    },
    {
      "inputs": [
        {
          "internalType": "address",
          "name": "",
          "type": "address"
        }
      ],
      "name": "adminImpersonating",
      "outputs": [
        {
          "internalType": "address",
          "name": "",
          "type": "address"
        }
      ],
      "stateMutability": "view",
      "type": "function"
    },
    {
      "inputs": [
        {
          "internalType": "address",
          "name": "to",
          "type": "address"
        },
        {
          "internalType": "uint256",
          "name": "tokenId",
          "type": "uint256"
        }
      ],
      "name": "approve",
      "outputs": [],
      "stateMutability": "nonpayable",
      "type": "function"
    },
    {
      "inputs": [
        {
          "internalType": "address",
          "name": "owner",
          "type": "address"
        }
      ],
      "name": "balanceOf",
      "outputs": [
        {
          "internalType": "uint256",
          "name": "",
          "type": "uint256"
        }
      ],
      "stateMutability": "view",
      "type": "function"
    },
    {
      "inputs": [
        {
          "internalType": "uint256",
          "name": "productId",
          "type": "uint256"
        },
        {
          "components": [
            {
              "internalType": "string",
              "name": "fullName",
              "type": "string"
            },
            {
              "internalType": "string",
              "name": "streetAddress",
              "type": "string"
            },
            {
              "internalType": "string",
              "name": "city",
              "type": "string"
            },
            {
              "internalType": "string",
              "name": "state",
              "type": "string"
            },
            {
              "internalType": "string",
              "name": "country",
              "type": "string"
            },
            {
              "internalType": "string",
              "name": "postalCode",
              "type": "string"
            },
            {
              "internalType": "string",
              "name": "phone",
              "type": "string"
            },
            {
              "internalType": "string",
              "name": "email",
              "type": "string"
            }
          ],
          "internalType": "struct HemShop.ShippingDetails",
          "name": "shippingDetails",
          "type": "tuple"
        },
        {
          "internalType": "string",
          "name": "selectedColor",
          "type": "string"
        },
        {
          "internalType": "string",
          "name": "selectedSize",
          "type": "string"
        },
        {
          "internalType": "uint256",
          "name": "quantity",
          "type": "uint256"
        }
      ],
      "name": "buyProduct",
      "outputs": [],
      "stateMutability": "payable",
      "type": "function"
    },
    {
      "inputs": [
        {
          "internalType": "address",
          "name": "",
          "type": "address"
        },
        {
          "internalType": "uint256",
          "name": "",
          "type": "uint256"
        }
      ],
      "name": "buyerPurchaseHistory",
      "outputs": [
        {
          "internalType": "uint256",
          "name": "productId",
          "type": "uint256"
        },
        {
          "internalType": "uint256",
          "name": "totalAmount",
          "type": "uint256"
        },
        {
          "internalType": "uint256",
          "name": "basePrice",
          "type": "uint256"
        },
        {
          "internalType": "uint256",
          "name": "timestamp",
          "type": "uint256"
        },
        {
          "internalType": "uint256",
          "name": "lastUpdated",
          "type": "uint256"
        },
        {
          "internalType": "address",
          "name": "buyer",
          "type": "address"
        },
        {
          "internalType": "address",
          "name": "seller",
          "type": "address"
        },
        {
          "internalType": "bool",
          "name": "isDelivered",
          "type": "bool"
        },
        {
          "components": [
            {
              "internalType": "string",
              "name": "fullName",
              "type": "string"
            },
            {
              "internalType": "string",
              "name": "streetAddress",
              "type": "string"
            },
            {
              "internalType": "string",
              "name": "city",
              "type": "string"
            },
            {
              "internalType": "string",
              "name": "state",
              "type": "string"
            },
            {
              "internalType": "string",
              "name": "country",
              "type": "string"
            },
            {
              "internalType": "string",
              "name": "postalCode",
              "type": "string"
            },
            {
              "internalType": "string",
              "name": "phone",
              "type": "string"
            },
            {
              "internalType": "string",
              "name": "email",
              "type": "string"
            }
          ],
          "internalType": "struct HemShop.ShippingDetails",
          "name": "shippingDetails",
          "type": "tuple"
        },
        {
          "components": [
            {
              "internalType": "string",
              "name": "name",
              "type": "string"
            },
            {
              "internalType": "string[]",
              "name": "images",
              "type": "string[]"
            },
            {
              "internalType": "string",
              "name": "selectedColor",
              "type": "string"
            },
            {
              "internalType": "string",
              "name": "selectedSize",
              "type": "string"
            },
            {
              "internalType": "uint256",
              "name": "quantity",
              "type": "uint256"
            },
            {
              "internalType": "string",
              "name": "category",
              "type": "string"
            },
            {
              "internalType": "string",
              "name": "description",
              "type": "string"
            }
          ],
          "internalType": "struct HemShop.OrderDetails",
          "name": "orderDetails",
          "type": "tuple"
        }
      ],
      "stateMutability": "view",
      "type": "function"
    },
    {
      "inputs": [
        {
          "internalType": "uint256",
          "name": "newPct",
          "type": "uint256"
        }
      ],
      "name": "changeServicePct",
      "outputs": [],
      "stateMutability": "nonpayable",
      "type": "function"
    },
    {
      "inputs": [
        {
          "internalType": "string",
          "name": "_name",
          "type": "string"
        }
      ],
      "name": "createCategory",
      "outputs": [],
      "stateMutability": "nonpayable",
      "type": "function"
    },
    {
      "inputs": [
        {
          "components": [
            {
              "internalType": "string",
              "name": "name",
              "type": "string"
            },
            {
              "internalType": "string",
              "name": "description",
              "type": "string"
            },
            {
              "internalType": "uint256",
              "name": "price",
              "type": "uint256"
            },
            {
              "internalType": "uint256",
              "name": "stock",
              "type": "uint256"
            },
            {
              "internalType": "string[]",
              "name": "colors",
              "type": "string[]"
            },
            {
              "internalType": "string[]",
              "name": "sizes",
              "type": "string[]"
            },
            {
              "internalType": "string[]",
              "name": "images",
              "type": "string[]"
            },
            {
              "internalType": "uint256",
              "name": "categoryId",
              "type": "uint256"
            },
            {
              "internalType": "uint256",
              "name": "subCategoryId",
              "type": "uint256"
            },
            {
              "internalType": "uint256",
              "name": "weight",
              "type": "uint256"
            },
            {
              "internalType": "string",
              "name": "model",
              "type": "string"
            },
            {
              "internalType": "string",
              "name": "brand",
              "type": "string"
            },
            {
              "internalType": "uint256",
              "name": "sku",
              "type": "uint256"
            }
          ],
          "internalType": "struct HemShop.ProductInput",
          "name": "input",
          "type": "tuple"
        }
      ],
      "name": "createProduct",
      "outputs": [],
      "stateMutability": "nonpayable",
      "type": "function"
    },
    {
      "inputs": [
        {
          "internalType": "uint256",
          "name": "productId",
          "type": "uint256"
        },
        {
          "internalType": "uint256",
          "name": "rating",
          "type": "uint256"
        },
        {
          "internalType": "string",
          "name": "comment",
          "type": "string"
        }
      ],
      "name": "createReview",
      "outputs": [],
      "stateMutability": "nonpayable",
      "type": "function"
    },
    {
      "inputs": [
        {
          "internalType": "uint256",
          "name": "parentId",
          "type": "uint256"
        },
        {
          "internalType": "string[]",
          "name": "names",
          "type": "string[]"
        }
      ],
      "name": "createSubCategoriesBulk",
      "outputs": [],
      "stateMutability": "nonpayable",
      "type": "function"
    },
    {
      "inputs": [
        {
          "internalType": "uint256",
          "name": "_parentId",
          "type": "uint256"
        },
        {
          "internalType": "string",
          "name": "_name",
          "type": "string"
        }
      ],
      "name": "createSubCategory",
      "outputs": [],
      "stateMutability": "nonpayable",
      "type": "function"
    },
    {
      "inputs": [
        {
          "internalType": "uint256",
          "name": "_id",
          "type": "uint256"
        }
      ],
      "name": "deleteCategory",
      "outputs": [],
      "stateMutability": "nonpayable",
      "type": "function"
    },
    {
      "inputs": [
        {
          "internalType": "uint256",
          "name": "productId",
          "type": "uint256"
        }
      ],
      "name": "deleteProduct",
      "outputs": [],
      "stateMutability": "nonpayable",
      "type": "function"
    },
    {
      "inputs": [
        {
          "internalType": "uint256",
          "name": "productId",
          "type": "uint256"
        },
        {
          "internalType": "uint256",
          "name": "reviewId",
          "type": "uint256"
        }
      ],
      "name": "deleteReview",
      "outputs": [],
      "stateMutability": "nonpayable",
      "type": "function"
    },
    {
      "inputs": [
        {
          "internalType": "uint256",
          "name": "_id",
          "type": "uint256"
        }
      ],
      "name": "deleteSubCategory",
      "outputs": [],
      "stateMutability": "nonpayable",
      "type": "function"
    },
    {
      "inputs": [],
      "name": "getAllCategories",
      "outputs": [
        {
          "internalType": "uint256[]",
          "name": "ids",
          "type": "uint256[]"
        },
        {
          "internalType": "string[]",
          "name": "names",
          "type": "string[]"
        },
        {
          "internalType": "bool[]",
          "name": "activeStates",
          "type": "bool[]"
        },
        {
          "internalType": "uint256[][]",
          "name": "subCategoryIdArrays",
          "type": "uint256[][]"
        }
      ],
      "stateMutability": "view",
      "type": "function"
    },
    {
      "inputs": [],
      "name": "getAllProducts",
      "outputs": [
        {
          "components": [
            {
              "internalType": "uint256",
              "name": "id",
              "type": "uint256"
            },
            {
              "internalType": "address",
              "name": "seller",
              "type": "address"
            },
            {
              "internalType": "string",
              "name": "name",
              "type": "string"
            },
            {
              "internalType": "string",
              "name": "description",
              "type": "string"
            },
            {
              "internalType": "uint256",
              "name": "price",
              "type": "uint256"
            },
            {
              "internalType": "uint256",
              "name": "stock",
              "type": "uint256"
            },
            {
              "internalType": "string[]",
              "name": "colors",
              "type": "string[]"
            },
            {
              "internalType": "string[]",
              "name": "sizes",
              "type": "string[]"
            },
            {
              "internalType": "string[]",
              "name": "images",
              "type": "string[]"
            },
            {
              "internalType": "string",
              "name": "category",
              "type": "string"
            },
            {
              "internalType": "string",
              "name": "subCategory",
              "type": "string"
            },
            {
              "internalType": "uint256",
              "name": "weight",
              "type": "uint256"
            },
            {
              "internalType": "string",
              "name": "model",
              "type": "string"
            },
            {
              "internalType": "string",
              "name": "brand",
              "type": "string"
            },
            {
              "internalType": "uint256",
              "name": "sku",
              "type": "uint256"
            },
            {
              "internalType": "bool",
              "name": "soldout",
              "type": "bool"
            },
            {
              "internalType": "bool",
              "name": "wishlist",
              "type": "bool"
            },
            {
              "internalType": "bool",
              "name": "deleted",
              "type": "bool"
            },
            {
              "components": [
                {
                  "internalType": "uint256",
                  "name": "reviewId",
                  "type": "uint256"
                },
                {
                  "internalType": "address",
                  "name": "reviewer",
                  "type": "address"
                },
                {
                  "internalType": "uint256",
                  "name": "rating",
                  "type": "uint256"
                },
                {
                  "internalType": "string",
                  "name": "comment",
                  "type": "string"
                },
                {
                  "internalType": "bool",
                  "name": "deleted",
                  "type": "bool"
                },
                {
                  "internalType": "uint256",
                  "name": "timestamp",
                  "type": "uint256"
                }
              ],
              "internalType": "struct HemShop.ReviewStruct[]",
              "name": "reviews",
              "type": "tuple[]"
            }
          ],
          "internalType": "struct HemShop.ProductStruct[]",
          "name": "",
          "type": "tuple[]"
        }
      ],
      "stateMutability": "view",
      "type": "function"
    },
    {
      "inputs": [],
      "name": "getAllRegisteredSellers",
      "outputs": [
        {
          "internalType": "address[]",
          "name": "",
          "type": "address[]"
        }
      ],
      "stateMutability": "view",
      "type": "function"
    },
    {
      "inputs": [
        {
          "internalType": "uint256",
          "name": "tokenId",
          "type": "uint256"
        }
      ],
      "name": "getApproved",
      "outputs": [
        {
          "internalType": "address",
          "name": "",
          "type": "address"
        }
      ],
      "stateMutability": "view",
      "type": "function"
    },
    {
      "inputs": [
        {
          "internalType": "address",
          "name": "buyer",
          "type": "address"
        }
      ],
      "name": "getBuyerPurchaseHistory",
      "outputs": [
        {
          "components": [
            {
              "internalType": "uint256",
              "name": "productId",
              "type": "uint256"
            },
            {
              "internalType": "uint256",
              "name": "totalAmount",
              "type": "uint256"
            },
            {
              "internalType": "uint256",
              "name": "basePrice",
              "type": "uint256"
            },
            {
              "internalType": "uint256",
              "name": "timestamp",
              "type": "uint256"
            },
            {
              "internalType": "uint256",
              "name": "lastUpdated",
              "type": "uint256"
            },
            {
              "internalType": "address",
              "name": "buyer",
              "type": "address"
            },
            {
              "internalType": "address",
              "name": "seller",
              "type": "address"
            },
            {
              "internalType": "bool",
              "name": "isDelivered",
              "type": "bool"
            },
            {
              "components": [
                {
                  "internalType": "string",
                  "name": "fullName",
                  "type": "string"
                },
                {
                  "internalType": "string",
                  "name": "streetAddress",
                  "type": "string"
                },
                {
                  "internalType": "string",
                  "name": "city",
                  "type": "string"
                },
                {
                  "internalType": "string",
                  "name": "state",
                  "type": "string"
                },
                {
                  "internalType": "string",
                  "name": "country",
                  "type": "string"
                },
                {
                  "internalType": "string",
                  "name": "postalCode",
                  "type": "string"
                },
                {
                  "internalType": "string",
                  "name": "phone",
                  "type": "string"
                },
                {
                  "internalType": "string",
                  "name": "email",
                  "type": "string"
                }
              ],
              "internalType": "struct HemShop.ShippingDetails",
              "name": "shippingDetails",
              "type": "tuple"
            },
            {
              "components": [
                {
                  "internalType": "string",
                  "name": "name",
                  "type": "string"
                },
                {
                  "internalType": "string[]",
                  "name": "images",
                  "type": "string[]"
                },
                {
                  "internalType": "string",
                  "name": "selectedColor",
                  "type": "string"
                },
                {
                  "internalType": "string",
                  "name": "selectedSize",
                  "type": "string"
                },
                {
                  "internalType": "uint256",
                  "name": "quantity",
                  "type": "uint256"
                },
                {
                  "internalType": "string",
                  "name": "category",
                  "type": "string"
                },
                {
                  "internalType": "string",
                  "name": "description",
                  "type": "string"
                }
              ],
              "internalType": "struct HemShop.OrderDetails",
              "name": "orderDetails",
              "type": "tuple"
            }
          ],
          "internalType": "struct HemShop.PurchaseHistoryStruct[]",
          "name": "",
          "type": "tuple[]"
        }
      ],
      "stateMutability": "view",
      "type": "function"
    },
    {
      "inputs": [
        {
          "internalType": "uint256",
          "name": "_id",
          "type": "uint256"
        }
      ],
      "name": "getCategory",
      "outputs": [
        {
          "internalType": "uint256",
          "name": "id",
          "type": "uint256"
        },
        {
          "internalType": "string",
          "name": "name",
          "type": "string"
        },
        {
          "internalType": "bool",
          "name": "isActive",
          "type": "bool"
        },
        {
          "internalType": "uint256[]",
          "name": "subCategoryIds",
          "type": "uint256[]"
        }
      ],
      "stateMutability": "view",
      "type": "function"
    },
    {
      "inputs": [],
      "name": "getMyProducts",
      "outputs": [
        {
          "components": [
            {
              "internalType": "uint256",
              "name": "id",
              "type": "uint256"
            },
            {
              "internalType": "address",
              "name": "seller",
              "type": "address"
            },
            {
              "internalType": "string",
              "name": "name",
              "type": "string"
            },
            {
              "internalType": "string",
              "name": "description",
              "type": "string"
            },
            {
              "internalType": "uint256",
              "name": "price",
              "type": "uint256"
            },
            {
              "internalType": "uint256",
              "name": "stock",
              "type": "uint256"
            },
            {
              "internalType": "string[]",
              "name": "colors",
              "type": "string[]"
            },
            {
              "internalType": "string[]",
              "name": "sizes",
              "type": "string[]"
            },
            {
              "internalType": "string[]",
              "name": "images",
              "type": "string[]"
            },
            {
              "internalType": "string",
              "name": "category",
              "type": "string"
            },
            {
              "internalType": "string",
              "name": "subCategory",
              "type": "string"
            },
            {
              "internalType": "uint256",
              "name": "weight",
              "type": "uint256"
            },
            {
              "internalType": "string",
              "name": "model",
              "type": "string"
            },
            {
              "internalType": "string",
              "name": "brand",
              "type": "string"
            },
            {
              "internalType": "uint256",
              "name": "sku",
              "type": "uint256"
            },
            {
              "internalType": "bool",
              "name": "soldout",
              "type": "bool"
            },
            {
              "internalType": "bool",
              "name": "wishlist",
              "type": "bool"
            },
            {
              "internalType": "bool",
              "name": "deleted",
              "type": "bool"
            },
            {
              "components": [
                {
                  "internalType": "uint256",
                  "name": "reviewId",
                  "type": "uint256"
                },
                {
                  "internalType": "address",
                  "name": "reviewer",
                  "type": "address"
                },
                {
                  "internalType": "uint256",
                  "name": "rating",
                  "type": "uint256"
                },
                {
                  "internalType": "string",
                  "name": "comment",
                  "type": "string"
                },
                {
                  "internalType": "bool",
                  "name": "deleted",
                  "type": "bool"
                },
                {
                  "internalType": "uint256",
                  "name": "timestamp",
                  "type": "uint256"
                }
              ],
              "internalType": "struct HemShop.ReviewStruct[]",
              "name": "reviews",
              "type": "tuple[]"
            }
          ],
          "internalType": "struct HemShop.ProductStruct[]",
          "name": "",
          "type": "tuple[]"
        }
      ],
      "stateMutability": "view",
      "type": "function"
    },
    {
      "inputs": [
        {
          "internalType": "uint256",
          "name": "productId",
          "type": "uint256"
        }
      ],
      "name": "getProduct",
      "outputs": [
        {
          "components": [
            {
              "internalType": "uint256",
              "name": "id",
              "type": "uint256"
            },
            {
              "internalType": "address",
              "name": "seller",
              "type": "address"
            },
            {
              "internalType": "string",
              "name": "name",
              "type": "string"
            },
            {
              "internalType": "string",
              "name": "description",
              "type": "string"
            },
            {
              "internalType": "uint256",
              "name": "price",
              "type": "uint256"
            },
            {
              "internalType": "uint256",
              "name": "stock",
              "type": "uint256"
            },
            {
              "internalType": "string[]",
              "name": "colors",
              "type": "string[]"
            },
            {
              "internalType": "string[]",
              "name": "sizes",
              "type": "string[]"
            },
            {
              "internalType": "string[]",
              "name": "images",
              "type": "string[]"
            },
            {
              "internalType": "string",
              "name": "category",
              "type": "string"
            },
            {
              "internalType": "string",
              "name": "subCategory",
              "type": "string"
            },
            {
              "internalType": "uint256",
              "name": "weight",
              "type": "uint256"
            },
            {
              "internalType": "string",
              "name": "model",
              "type": "string"
            },
            {
              "internalType": "string",
              "name": "brand",
              "type": "string"
            },
            {
              "internalType": "uint256",
              "name": "sku",
              "type": "uint256"
            },
            {
              "internalType": "bool",
              "name": "soldout",
              "type": "bool"
            },
            {
              "internalType": "bool",
              "name": "wishlist",
              "type": "bool"
            },
            {
              "internalType": "bool",
              "name": "deleted",
              "type": "bool"
            },
            {
              "components": [
                {
                  "internalType": "uint256",
                  "name": "reviewId",
                  "type": "uint256"
                },
                {
                  "internalType": "address",
                  "name": "reviewer",
                  "type": "address"
                },
                {
                  "internalType": "uint256",
                  "name": "rating",
                  "type": "uint256"
                },
                {
                  "internalType": "string",
                  "name": "comment",
                  "type": "string"
                },
                {
                  "internalType": "bool",
                  "name": "deleted",
                  "type": "bool"
                },
                {
                  "internalType": "uint256",
                  "name": "timestamp",
                  "type": "uint256"
                }
              ],
              "internalType": "struct HemShop.ReviewStruct[]",
              "name": "reviews",
              "type": "tuple[]"
            }
          ],
          "internalType": "struct HemShop.ProductStruct",
          "name": "",
          "type": "tuple"
        }
      ],
      "stateMutability": "view",
      "type": "function"
    },
    {
      "inputs": [
        {
          "internalType": "string",
          "name": "categoryName",
          "type": "string"
        }
      ],
      "name": "getProductsByCategory",
      "outputs": [
        {
          "components": [
            {
              "internalType": "uint256",
              "name": "id",
              "type": "uint256"
            },
            {
              "internalType": "address",
              "name": "seller",
              "type": "address"
            },
            {
              "internalType": "string",
              "name": "name",
              "type": "string"
            },
            {
              "internalType": "string",
              "name": "description",
              "type": "string"
            },
            {
              "internalType": "uint256",
              "name": "price",
              "type": "uint256"
            },
            {
              "internalType": "uint256",
              "name": "stock",
              "type": "uint256"
            },
            {
              "internalType": "string[]",
              "name": "colors",
              "type": "string[]"
            },
            {
              "internalType": "string[]",
              "name": "sizes",
              "type": "string[]"
            },
            {
              "internalType": "string[]",
              "name": "images",
              "type": "string[]"
            },
            {
              "internalType": "string",
              "name": "category",
              "type": "string"
            },
            {
              "internalType": "string",
              "name": "subCategory",
              "type": "string"
            },
            {
              "internalType": "uint256",
              "name": "weight",
              "type": "uint256"
            },
            {
              "internalType": "string",
              "name": "model",
              "type": "string"
            },
            {
              "internalType": "string",
              "name": "brand",
              "type": "string"
            },
            {
              "internalType": "uint256",
              "name": "sku",
              "type": "uint256"
            },
            {
              "internalType": "bool",
              "name": "soldout",
              "type": "bool"
            },
            {
              "internalType": "bool",
              "name": "wishlist",
              "type": "bool"
            },
            {
              "internalType": "bool",
              "name": "deleted",
              "type": "bool"
            },
            {
              "components": [
                {
                  "internalType": "uint256",
                  "name": "reviewId",
                  "type": "uint256"
                },
                {
                  "internalType": "address",
                  "name": "reviewer",
                  "type": "address"
                },
                {
                  "internalType": "uint256",
                  "name": "rating",
                  "type": "uint256"
                },
                {
                  "internalType": "string",
                  "name": "comment",
                  "type": "string"
                },
                {
                  "internalType": "bool",
                  "name": "deleted",
                  "type": "bool"
                },
                {
                  "internalType": "uint256",
                  "name": "timestamp",
                  "type": "uint256"
                }
              ],
              "internalType": "struct HemShop.ReviewStruct[]",
              "name": "reviews",
              "type": "tuple[]"
            }
          ],
          "internalType": "struct HemShop.ProductStruct[]",
          "name": "",
          "type": "tuple[]"
        }
      ],
      "stateMutability": "view",
      "type": "function"
    },
    {
      "inputs": [
        {
          "internalType": "uint256",
          "name": "productId",
          "type": "uint256"
        }
      ],
      "name": "getReviews",
      "outputs": [
        {
          "components": [
            {
              "internalType": "uint256",
              "name": "reviewId",
              "type": "uint256"
            },
            {
              "internalType": "address",
              "name": "reviewer",
              "type": "address"
            },
            {
              "internalType": "uint256",
              "name": "rating",
              "type": "uint256"
            },
            {
              "internalType": "string",
              "name": "comment",
              "type": "string"
            },
            {
              "internalType": "bool",
              "name": "deleted",
              "type": "bool"
            },
            {
              "internalType": "uint256",
              "name": "timestamp",
              "type": "uint256"
            }
          ],
          "internalType": "struct HemShop.ReviewStruct[]",
          "name": "",
          "type": "tuple[]"
        }
      ],
      "stateMutability": "view",
      "type": "function"
    },
    {
      "inputs": [
        {
          "internalType": "address",
          "name": "seller",
          "type": "address"
        }
      ],
      "name": "getSeller",
      "outputs": [
        {
          "components": [
            {
              "internalType": "string",
              "name": "businessName",
              "type": "string"
            },
            {
              "internalType": "string",
              "name": "description",
              "type": "string"
            },
            {
              "internalType": "string",
              "name": "email",
              "type": "string"
            },
            {
              "internalType": "string",
              "name": "phone",
              "type": "string"
            },
            {
              "internalType": "string",
              "name": "logo",
              "type": "string"
            },
            {
              "internalType": "uint256",
              "name": "registeredAt",
              "type": "uint256"
            },
            {
              "internalType": "bool",
              "name": "termsAccepted",
              "type": "bool"
            }
          ],
          "internalType": "struct HemShop.SellerProfile",
          "name": "profile",
          "type": "tuple"
        },
        {
          "internalType": "enum HemShop.SellerStatus",
          "name": "status",
          "type": "uint8"
        },
        {
          "internalType": "uint256",
          "name": "balance",
          "type": "uint256"
        },
        {
          "internalType": "uint256[]",
          "name": "productIds",
          "type": "uint256[]"
        }
      ],
      "stateMutability": "view",
      "type": "function"
    },
    {
      "inputs": [
        {
          "internalType": "address",
          "name": "seller",
          "type": "address"
        }
      ],
      "name": "getSellerBalance",
      "outputs": [
        {
          "internalType": "uint256",
          "name": "",
          "type": "uint256"
        }
      ],
      "stateMutability": "view",
      "type": "function"
    },
    {
      "inputs": [
        {
          "internalType": "address",
          "name": "seller",
          "type": "address"
        }
      ],
      "name": "getSellerProducts",
      "outputs": [
        {
          "components": [
            {
              "internalType": "uint256",
              "name": "id",
              "type": "uint256"
            },
            {
              "internalType": "address",
              "name": "seller",
              "type": "address"
            },
            {
              "internalType": "string",
              "name": "name",
              "type": "string"
            },
            {
              "internalType": "string",
              "name": "description",
              "type": "string"
            },
            {
              "internalType": "uint256",
              "name": "price",
              "type": "uint256"
            },
            {
              "internalType": "uint256",
              "name": "stock",
              "type": "uint256"
            },
            {
              "internalType": "string[]",
              "name": "colors",
              "type": "string[]"
            },
            {
              "internalType": "string[]",
              "name": "sizes",
              "type": "string[]"
            },
            {
              "internalType": "string[]",
              "name": "images",
              "type": "string[]"
            },
            {
              "internalType": "string",
              "name": "category",
              "type": "string"
            },
            {
              "internalType": "string",
              "name": "subCategory",
              "type": "string"
            },
            {
              "internalType": "uint256",
              "name": "weight",
              "type": "uint256"
            },
            {
              "internalType": "string",
              "name": "model",
              "type": "string"
            },
            {
              "internalType": "string",
              "name": "brand",
              "type": "string"
            },
            {
              "internalType": "uint256",
              "name": "sku",
              "type": "uint256"
            },
            {
              "internalType": "bool",
              "name": "soldout",
              "type": "bool"
            },
            {
              "internalType": "bool",
              "name": "wishlist",
              "type": "bool"
            },
            {
              "internalType": "bool",
              "name": "deleted",
              "type": "bool"
            },
            {
              "components": [
                {
                  "internalType": "uint256",
                  "name": "reviewId",
                  "type": "uint256"
                },
                {
                  "internalType": "address",
                  "name": "reviewer",
                  "type": "address"
                },
                {
                  "internalType": "uint256",
                  "name": "rating",
                  "type": "uint256"
                },
                {
                  "internalType": "string",
                  "name": "comment",
                  "type": "string"
                },
                {
                  "internalType": "bool",
                  "name": "deleted",
                  "type": "bool"
                },
                {
                  "internalType": "uint256",
                  "name": "timestamp",
                  "type": "uint256"
                }
              ],
              "internalType": "struct HemShop.ReviewStruct[]",
              "name": "reviews",
              "type": "tuple[]"
            }
          ],
          "internalType": "struct HemShop.ProductStruct[]",
          "name": "",
          "type": "tuple[]"
        }
      ],
      "stateMutability": "view",
      "type": "function"
    },
    {
      "inputs": [
        {
          "internalType": "address",
          "name": "seller",
          "type": "address"
        }
      ],
      "name": "getSellerProfile",
      "outputs": [
        {
          "components": [
            {
              "internalType": "string",
              "name": "businessName",
              "type": "string"
            },
            {
              "internalType": "string",
              "name": "description",
              "type": "string"
            },
            {
              "internalType": "string",
              "name": "email",
              "type": "string"
            },
            {
              "internalType": "string",
              "name": "phone",
              "type": "string"
            },
            {
              "internalType": "string",
              "name": "logo",
              "type": "string"
            },
            {
              "internalType": "uint256",
              "name": "registeredAt",
              "type": "uint256"
            },
            {
              "internalType": "bool",
              "name": "termsAccepted",
              "type": "bool"
            }
          ],
          "internalType": "struct HemShop.SellerProfile",
          "name": "",
          "type": "tuple"
        }
      ],
      "stateMutability": "view",
      "type": "function"
    },
    {
      "inputs": [
        {
          "internalType": "address",
          "name": "seller",
          "type": "address"
        }
      ],
      "name": "getSellerPurchaseHistory",
      "outputs": [
        {
          "components": [
            {
              "internalType": "uint256",
              "name": "productId",
              "type": "uint256"
            },
            {
              "internalType": "uint256",
              "name": "totalAmount",
              "type": "uint256"
            },
            {
              "internalType": "uint256",
              "name": "basePrice",
              "type": "uint256"
            },
            {
              "internalType": "uint256",
              "name": "timestamp",
              "type": "uint256"
            },
            {
              "internalType": "uint256",
              "name": "lastUpdated",
              "type": "uint256"
            },
            {
              "internalType": "address",
              "name": "buyer",
              "type": "address"
            },
            {
              "internalType": "address",
              "name": "seller",
              "type": "address"
            },
            {
              "internalType": "bool",
              "name": "isDelivered",
              "type": "bool"
            },
            {
              "components": [
                {
                  "internalType": "string",
                  "name": "fullName",
                  "type": "string"
                },
                {
                  "internalType": "string",
                  "name": "streetAddress",
                  "type": "string"
                },
                {
                  "internalType": "string",
                  "name": "city",
                  "type": "string"
                },
                {
                  "internalType": "string",
                  "name": "state",
                  "type": "string"
                },
                {
                  "internalType": "string",
                  "name": "country",
                  "type": "string"
                },
                {
                  "internalType": "string",
                  "name": "postalCode",
                  "type": "string"
                },
                {
                  "internalType": "string",
                  "name": "phone",
                  "type": "string"
                },
                {
                  "internalType": "string",
                  "name": "email",
                  "type": "string"
                }
              ],
              "internalType": "struct HemShop.ShippingDetails",
              "name": "shippingDetails",
              "type": "tuple"
            },
            {
              "components": [
                {
                  "internalType": "string",
                  "name": "name",
                  "type": "string"
                },
                {
                  "internalType": "string[]",
                  "name": "images",
                  "type": "string[]"
                },
                {
                  "internalType": "string",
                  "name": "selectedColor",
                  "type": "string"
                },
                {
                  "internalType": "string",
                  "name": "selectedSize",
                  "type": "string"
                },
                {
                  "internalType": "uint256",
                  "name": "quantity",
                  "type": "uint256"
                },
                {
                  "internalType": "string",
                  "name": "category",
                  "type": "string"
                },
                {
                  "internalType": "string",
                  "name": "description",
                  "type": "string"
                }
              ],
              "internalType": "struct HemShop.OrderDetails",
              "name": "orderDetails",
              "type": "tuple"
            }
          ],
          "internalType": "struct HemShop.PurchaseHistoryStruct[]",
          "name": "",
          "type": "tuple[]"
        }
      ],
      "stateMutability": "view",
      "type": "function"
    },
    {
      "inputs": [
        {
          "internalType": "address",
          "name": "seller",
          "type": "address"
        }
      ],
      "name": "getSellerStatus",
      "outputs": [
        {
          "internalType": "enum HemShop.SellerStatus",
          "name": "",
          "type": "uint8"
        }
      ],
      "stateMutability": "view",
      "type": "function"
    },
    {
      "inputs": [
        {
          "internalType": "uint256",
          "name": "_id",
          "type": "uint256"
        }
      ],
      "name": "getSubCategory",
      "outputs": [
        {
          "internalType": "uint256",
          "name": "id",
          "type": "uint256"
        },
        {
          "internalType": "string",
          "name": "name",
          "type": "string"
        },
        {
          "internalType": "uint256",
          "name": "parentCategoryId",
          "type": "uint256"
        },
        {
          "internalType": "bool",
          "name": "isActive",
          "type": "bool"
        }
      ],
      "stateMutability": "view",
      "type": "function"
    },
    {
      "inputs": [
        {
          "internalType": "address",
          "name": "user",
          "type": "address"
        }
      ],
      "name": "getUser",
      "outputs": [
        {
          "internalType": "bool",
          "name": "isRegistered",
          "type": "bool"
        },
        {
          "components": [
            {
              "internalType": "string",
              "name": "name",
              "type": "string"
            },
            {
              "internalType": "string",
              "name": "email",
              "type": "string"
            },
            {
              "internalType": "string",
              "name": "avatar",
              "type": "string"
            },
            {
              "internalType": "uint256",
              "name": "registeredAt",
              "type": "uint256"
            },
            {
              "internalType": "bool",
              "name": "isActive",
              "type": "bool"
            }
          ],
          "internalType": "struct HemShop.UserProfile",
          "name": "profile",
          "type": "tuple"
        },
        {
          "internalType": "bool",
          "name": "isUserSeller",
          "type": "bool"
        },
        {
          "internalType": "enum HemShop.SellerStatus",
          "name": "sellerState",
          "type": "uint8"
        }
      ],
      "stateMutability": "view",
      "type": "function"
    },
    {
      "inputs": [
        {
          "internalType": "address",
          "name": "account",
          "type": "address"
        }
      ],
      "name": "impersonateAccount",
      "outputs": [],
      "stateMutability": "nonpayable",
      "type": "function"
    },
    {
      "inputs": [
        {
          "internalType": "address",
          "name": "owner",
          "type": "address"
        },
        {
          "internalType": "address",
          "name": "operator",
          "type": "address"
        }
      ],
      "name": "isApprovedForAll",
      "outputs": [
        {
          "internalType": "bool",
          "name": "",
          "type": "bool"
        }
      ],
      "stateMutability": "view",
      "type": "function"
    },
    {
      "inputs": [
        {
          "internalType": "uint256",
          "name": "productId",
          "type": "uint256"
        },
        {
          "internalType": "address",
          "name": "buyer",
          "type": "address"
        }
      ],
      "name": "markPurchaseDelivered",
      "outputs": [],
      "stateMutability": "nonpayable",
      "type": "function"
    },
    {
      "inputs": [],
      "name": "name",
      "outputs": [
        {
          "internalType": "string",
          "name": "",
          "type": "string"
        }
      ],
      "stateMutability": "view",
      "type": "function"
    },
    {
      "inputs": [],
      "name": "owner",
      "outputs": [
        {
          "internalType": "address",
          "name": "",
          "type": "address"
        }
      ],
      "stateMutability": "view",
      "type": "function"
    },
    {
      "inputs": [
        {
          "internalType": "uint256",
          "name": "tokenId",
          "type": "uint256"
        }
      ],
      "name": "ownerOf",
      "outputs": [
        {
          "internalType": "address",
          "name": "",
          "type": "address"
        }
      ],
      "stateMutability": "view",
      "type": "function"
    },
    {
      "inputs": [
        {
          "internalType": "uint256",
          "name": "",
          "type": "uint256"
        }
      ],
      "name": "productExists",
      "outputs": [
        {
          "internalType": "bool",
          "name": "",
          "type": "bool"
        }
      ],
      "stateMutability": "view",
      "type": "function"
    },
    {
      "inputs": [
        {
          "internalType": "uint256",
          "name": "",
          "type": "uint256"
        }
      ],
      "name": "products",
      "outputs": [
        {
          "internalType": "uint256",
          "name": "id",
          "type": "uint256"
        },
        {
          "internalType": "address",
          "name": "seller",
          "type": "address"
        },
        {
          "internalType": "string",
          "name": "name",
          "type": "string"
        },
        {
          "internalType": "string",
          "name": "description",
          "type": "string"
        },
        {
          "internalType": "uint256",
          "name": "price",
          "type": "uint256"
        },
        {
          "internalType": "uint256",
          "name": "stock",
          "type": "uint256"
        },
        {
          "internalType": "string",
          "name": "category",
          "type": "string"
        },
        {
          "internalType": "string",
          "name": "subCategory",
          "type": "string"
        },
        {
          "internalType": "uint256",
          "name": "weight",
          "type": "uint256"
        },
        {
          "internalType": "string",
          "name": "model",
          "type": "string"
        },
        {
          "internalType": "string",
          "name": "brand",
          "type": "string"
        },
        {
          "internalType": "uint256",
          "name": "sku",
          "type": "uint256"
        },
        {
          "internalType": "bool",
          "name": "soldout",
          "type": "bool"
        },
        {
          "internalType": "bool",
          "name": "wishlist",
          "type": "bool"
        },
        {
          "internalType": "bool",
          "name": "deleted",
          "type": "bool"
        }
      ],
      "stateMutability": "view",
      "type": "function"
    },
    {
      "inputs": [
        {
          "internalType": "string",
          "name": "businessName",
          "type": "string"
        },
        {
          "internalType": "string",
          "name": "description",
          "type": "string"
        },
        {
          "internalType": "string",
          "name": "email",
          "type": "string"
        },
        {
          "internalType": "string",
          "name": "phone",
          "type": "string"
        },
        {
          "internalType": "string",
          "name": "logo",
          "type": "string"
        }
      ],
      "name": "registerSeller",
      "outputs": [],
      "stateMutability": "nonpayable",
      "type": "function"
    },
    {
      "inputs": [
        {
          "internalType": "string",
          "name": "name",
          "type": "string"
        },
        {
          "internalType": "string",
          "name": "email",
          "type": "string"
        },
        {
          "internalType": "string",
          "name": "avatar",
          "type": "string"
        }
      ],
      "name": "registerUser",
      "outputs": [],
      "stateMutability": "nonpayable",
      "type": "function"
    },
    {
      "inputs": [
        {
          "internalType": "address",
          "name": "",
          "type": "address"
        }
      ],
      "name": "registeredSellers",
      "outputs": [
        {
          "internalType": "bool",
          "name": "",
          "type": "bool"
        }
      ],
      "stateMutability": "view",
      "type": "function"
    },
    {
      "inputs": [
        {
          "internalType": "address",
          "name": "",
          "type": "address"
        }
      ],
      "name": "registeredUsers",
      "outputs": [
        {
          "internalType": "bool",
          "name": "",
          "type": "bool"
        }
      ],
      "stateMutability": "view",
      "type": "function"
    },
    {
      "inputs": [],
      "name": "renounceOwnership",
      "outputs": [],
      "stateMutability": "nonpayable",
      "type": "function"
    },
    {
      "inputs": [
        {
          "internalType": "uint256",
          "name": "",
          "type": "uint256"
        }
      ],
      "name": "reviewExists",
      "outputs": [
        {
          "internalType": "bool",
          "name": "",
          "type": "bool"
        }
      ],
      "stateMutability": "view",
      "type": "function"
    },
    {
      "inputs": [
        {
          "internalType": "address",
          "name": "from",
          "type": "address"
        },
        {
          "internalType": "address",
          "name": "to",
          "type": "address"
        },
        {
          "internalType": "uint256",
          "name": "tokenId",
          "type": "uint256"
        }
      ],
      "name": "safeTransferFrom",
      "outputs": [],
      "stateMutability": "nonpayable",
      "type": "function"
    },
    {
      "inputs": [
        {
          "internalType": "address",
          "name": "from",
          "type": "address"
        },
        {
          "internalType": "address",
          "name": "to",
          "type": "address"
        },
        {
          "internalType": "uint256",
          "name": "tokenId",
          "type": "uint256"
        },
        {
          "internalType": "bytes",
          "name": "data",
          "type": "bytes"
        }
      ],
      "name": "safeTransferFrom",
      "outputs": [],
      "stateMutability": "nonpayable",
      "type": "function"
    },
    {
      "inputs": [
        {
          "internalType": "address",
          "name": "",
          "type": "address"
        }
      ],
      "name": "sellerBalances",
      "outputs": [
        {
          "internalType": "uint256",
          "name": "",
          "type": "uint256"
        }
      ],
      "stateMutability": "view",
      "type": "function"
    },
    {
      "inputs": [
        {
          "internalType": "address",
          "name": "",
          "type": "address"
        },
        {
          "internalType": "uint256",
          "name": "",
          "type": "uint256"
        }
      ],
      "name": "sellerProducts",
      "outputs": [
        {
          "internalType": "uint256",
          "name": "",
          "type": "uint256"
        }
      ],
      "stateMutability": "view",
      "type": "function"
    },
    {
      "inputs": [
        {
          "internalType": "address",
          "name": "",
          "type": "address"
        }
      ],
      "name": "sellerProfiles",
      "outputs": [
        {
          "internalType": "string",
          "name": "businessName",
          "type": "string"
        },
        {
          "internalType": "string",
          "name": "description",
          "type": "string"
        },
        {
          "internalType": "string",
          "name": "email",
          "type": "string"
        },
        {
          "internalType": "string",
          "name": "phone",
          "type": "string"
        },
        {
          "internalType": "string",
          "name": "logo",
          "type": "string"
        },
        {
          "internalType": "uint256",
          "name": "registeredAt",
          "type": "uint256"
        },
        {
          "internalType": "bool",
          "name": "termsAccepted",
          "type": "bool"
        }
      ],
      "stateMutability": "view",
      "type": "function"
    },
    {
      "inputs": [
        {
          "internalType": "address",
          "name": "",
          "type": "address"
        },
        {
          "internalType": "uint256",
          "name": "",
          "type": "uint256"
        }
      ],
      "name": "sellerPurchaseHistory",
      "outputs": [
        {
          "internalType": "uint256",
          "name": "productId",
          "type": "uint256"
        },
        {
          "internalType": "uint256",
          "name": "totalAmount",
          "type": "uint256"
        },
        {
          "internalType": "uint256",
          "name": "basePrice",
          "type": "uint256"
        },
        {
          "internalType": "uint256",
          "name": "timestamp",
          "type": "uint256"
        },
        {
          "internalType": "uint256",
          "name": "lastUpdated",
          "type": "uint256"
        },
        {
          "internalType": "address",
          "name": "buyer",
          "type": "address"
        },
        {
          "internalType": "address",
          "name": "seller",
          "type": "address"
        },
        {
          "internalType": "bool",
          "name": "isDelivered",
          "type": "bool"
        },
        {
          "components": [
            {
              "internalType": "string",
              "name": "fullName",
              "type": "string"
            },
            {
              "internalType": "string",
              "name": "streetAddress",
              "type": "string"
            },
            {
              "internalType": "string",
              "name": "city",
              "type": "string"
            },
            {
              "internalType": "string",
              "name": "state",
              "type": "string"
            },
            {
              "internalType": "string",
              "name": "country",
              "type": "string"
            },
            {
              "internalType": "string",
              "name": "postalCode",
              "type": "string"
            },
            {
              "internalType": "string",
              "name": "phone",
              "type": "string"
            },
            {
              "internalType": "string",
              "name": "email",
              "type": "string"
            }
          ],
          "internalType": "struct HemShop.ShippingDetails",
          "name": "shippingDetails",
          "type": "tuple"
        },
        {
          "components": [
            {
              "internalType": "string",
              "name": "name",
              "type": "string"
            },
            {
              "internalType": "string[]",
              "name": "images",
              "type": "string[]"
            },
            {
              "internalType": "string",
              "name": "selectedColor",
              "type": "string"
            },
            {
              "internalType": "string",
              "name": "selectedSize",
              "type": "string"
            },
            {
              "internalType": "uint256",
              "name": "quantity",
              "type": "uint256"
            },
            {
              "internalType": "string",
              "name": "category",
              "type": "string"
            },
            {
              "internalType": "string",
              "name": "description",
              "type": "string"
            }
          ],
          "internalType": "struct HemShop.OrderDetails",
          "name": "orderDetails",
          "type": "tuple"
        }
      ],
      "stateMutability": "view",
      "type": "function"
    },
    {
      "inputs": [
        {
          "internalType": "address",
          "name": "",
          "type": "address"
        }
      ],
      "name": "sellerStatus",
      "outputs": [
        {
          "internalType": "enum HemShop.SellerStatus",
          "name": "",
          "type": "uint8"
        }
      ],
      "stateMutability": "view",
      "type": "function"
    },
    {
      "inputs": [],
      "name": "servicePct",
      "outputs": [
        {
          "internalType": "uint256",
          "name": "",
          "type": "uint256"
        }
      ],
      "stateMutability": "view",
      "type": "function"
    },
    {
      "inputs": [
        {
          "internalType": "address",
          "name": "operator",
          "type": "address"
        },
        {
          "internalType": "bool",
          "name": "approved",
          "type": "bool"
        }
      ],
      "name": "setApprovalForAll",
      "outputs": [],
      "stateMutability": "nonpayable",
      "type": "function"
    },
    {
      "inputs": [],
      "name": "stopImpersonating",
      "outputs": [],
      "stateMutability": "nonpayable",
      "type": "function"
    },
    {
      "inputs": [
        {
          "internalType": "bytes4",
          "name": "interfaceId",
          "type": "bytes4"
        }
      ],
      "name": "supportsInterface",
      "outputs": [
        {
          "internalType": "bool",
          "name": "",
          "type": "bool"
        }
      ],
      "stateMutability": "view",
      "type": "function"
    },
    {
      "inputs": [],
      "name": "symbol",
      "outputs": [
        {
          "internalType": "string",
          "name": "",
          "type": "string"
        }
      ],
      "stateMutability": "view",
      "type": "function"
    },
    {
      "inputs": [
        {
          "internalType": "uint256",
          "name": "tokenId",
          "type": "uint256"
        }
      ],
      "name": "tokenURI",
      "outputs": [
        {
          "internalType": "string",
          "name": "",
          "type": "string"
        }
      ],
      "stateMutability": "view",
      "type": "function"
    },
    {
      "inputs": [
        {
          "internalType": "address",
          "name": "from",
          "type": "address"
        },
        {
          "internalType": "address",
          "name": "to",
          "type": "address"
        },
        {
          "internalType": "uint256",
          "name": "tokenId",
          "type": "uint256"
        }
      ],
      "name": "transferFrom",
      "outputs": [],
      "stateMutability": "nonpayable",
      "type": "function"
    },
    {
      "inputs": [
        {
          "internalType": "address",
          "name": "newOwner",
          "type": "address"
        }
      ],
      "name": "transferOwnership",
      "outputs": [],
      "stateMutability": "nonpayable",
      "type": "function"
    },
    {
      "inputs": [
        {
          "internalType": "uint256",
          "name": "_id",
          "type": "uint256"
        },
        {
          "internalType": "string",
          "name": "_name",
          "type": "string"
        },
        {
          "internalType": "bool",
          "name": "_isActive",
          "type": "bool"
        }
      ],
      "name": "updateCategory",
      "outputs": [],
      "stateMutability": "nonpayable",
      "type": "function"
    },
    {
      "inputs": [
        {
          "internalType": "uint256",
          "name": "productId",
          "type": "uint256"
        },
        {
          "components": [
            {
              "internalType": "string",
              "name": "name",
              "type": "string"
            },
            {
              "internalType": "string",
              "name": "description",
              "type": "string"
            },
            {
              "internalType": "uint256",
              "name": "price",
              "type": "uint256"
            },
            {
              "internalType": "uint256",
              "name": "stock",
              "type": "uint256"
            },
            {
              "internalType": "string[]",
              "name": "colors",
              "type": "string[]"
            },
            {
              "internalType": "string[]",
              "name": "sizes",
              "type": "string[]"
            },
            {
              "internalType": "string[]",
              "name": "images",
              "type": "string[]"
            },
            {
              "internalType": "uint256",
              "name": "categoryId",
              "type": "uint256"
            },
            {
              "internalType": "uint256",
              "name": "subCategoryId",
              "type": "uint256"
            },
            {
              "internalType": "uint256",
              "name": "weight",
              "type": "uint256"
            },
            {
              "internalType": "string",
              "name": "model",
              "type": "string"
            },
            {
              "internalType": "string",
              "name": "brand",
              "type": "string"
            },
            {
              "internalType": "uint256",
              "name": "sku",
              "type": "uint256"
            }
          ],
          "internalType": "struct HemShop.ProductInput",
          "name": "input",
          "type": "tuple"
        }
      ],
      "name": "updateProduct",
      "outputs": [],
      "stateMutability": "nonpayable",
      "type": "function"
    },
    {
      "inputs": [
        {
          "internalType": "address",
          "name": "seller",
          "type": "address"
        },
        {
          "internalType": "enum HemShop.SellerStatus",
          "name": "newStatus",
          "type": "uint8"
        }
      ],
      "name": "updateSellerStatus",
      "outputs": [],
      "stateMutability": "nonpayable",
      "type": "function"
    },
    {
      "inputs": [
        {
          "internalType": "uint256",
          "name": "_id",
          "type": "uint256"
        },
        {
          "internalType": "string",
          "name": "_name",
          "type": "string"
        },
        {
          "internalType": "bool",
          "name": "_isActive",
          "type": "bool"
        }
      ],
      "name": "updateSubCategory",
      "outputs": [],
      "stateMutability": "nonpayable",
      "type": "function"
    },
    {
      "inputs": [
        {
          "internalType": "address",
          "name": "",
          "type": "address"
        }
      ],
      "name": "userProfiles",
      "outputs": [
        {
          "internalType": "string",
          "name": "name",
          "type": "string"
        },
        {
          "internalType": "string",
          "name": "email",
          "type": "string"
        },
        {
          "internalType": "string",
          "name": "avatar",
          "type": "string"
        },
        {
          "internalType": "uint256",
          "name": "registeredAt",
          "type": "uint256"
        },
        {
          "internalType": "bool",
          "name": "isActive",
          "type": "bool"
        }
      ],
      "stateMutability": "view",
      "type": "function"
    },
    {
      "inputs": [
        {
          "internalType": "uint256",
          "name": "",
          "type": "uint256"
        }
      ],
      "name": "usersList",
      "outputs": [
        {
          "internalType": "address",
          "name": "",
          "type": "address"
        }
      ],
      "stateMutability": "view",
      "type": "function"
    },
    {
      "inputs": [],
      "name": "withdraw",
      "outputs": [],
      "stateMutability": "nonpayable",
      "type": "function"
    }
  ],
  "bytecode": "0x6080346200034a57601f90601f196001600160401b03620094f93881900385810184168501838111868210176200026c578592829160405283396020948591810103126200034a575193620000536200034e565b90600a82526910dc9e5c1d1bd3585c9d60b21b85830152620000746200034e565b600280825261434d60f01b878301525f8054336001600160a01b0319821681178355916001600160a01b03909116907f8be0079c531659141344cd1fd0a4f28419497f9722a3daafe3b4186f6b6457e09080a36001938480558051908682116200026c578254908682811c921680156200033f575b8a8310146200024d578186849311620002ec575b5089908683116001146200028c575f9262000280575b50505f19600383901b1c191690851b1790555b80519384116200026c5760039586548481811c9116801562000261575b828210146200024d5783811162000205575b5080928511600114620001a15750839450908392915f9462000195575b50501b915f1990841b1c19161790555b600d5560405161918a90816200036f8239f35b015192505f8062000172565b929484908116875f52845f20945f905b88838310620001ea5750505010620001d2575b505050811b01905562000182565b01515f1983861b60f8161c191690555f8080620001c4565b858701518855909601959485019487935090810190620001b1565b875f52815f208480880160051c82019284891062000243575b0160051c019085905b8281106200023757505062000155565b5f815501859062000227565b925081926200021e565b634e487b7160e01b5f52602260045260245ffd5b90607f169062000143565b634e487b7160e01b5f52604160045260245ffd5b015190505f8062000113565b908988941691855f528b5f20925f5b8d828210620002d55750508411620002bc575b505050811b01905562000126565b01515f1960f88460031b161c191690555f8080620002ae565b8385015186558b979095019493840193016200029b565b909150835f52895f208680850160051c8201928c861062000335575b918991869594930160051c01915b82811062000326575050620000fd565b5f815585945089910162000316565b9250819262000308565b91607f1691620000e9565b5f80fd5b60408051919082016001600160401b038111838210176200026c5760405256fe6080806040526004361015610012575f80fd5b5f3560e01c908162d64e76146165135750806301ffc9a7146164a557806302ee3a521461623257806306fdde03146161a7578063081812fc14616189578063095ea7b3146160155780630e50cee514615fd857806311aa5b3414615fb45780631385fd9214615f6557806316d81b3814615d8b57806317e9854814615d185780632053fba6146157f25780632148893f14614e9357806323b872dd146157c957806324d41a03146155b5578063317a082714615489578063332d56d7146153ca5780633c2575d5146152c95780633ccfd60b1461519457806342842e0e1461516d5780634293e5ce1461506e57806345de84db1461502e578063502aa3b514614fd45780635ad6a58014614f2e5780635be2095914614ecb578063607eb4e414614e935780636352211e14614e6357806366224d8e14614d1c5780636f2c859914614c735780636f77926b14614af957806370a0823114614a64578063715018a614614a205780637acc0b20146148625780637d3978db1461465b5780637e8555ed14613f49578063868a5461146136025780638da5cb5b146135db5780638f38cc7b146132c45780639196dfcb146131ac57806395d89b41146130ec57806397b6f39314612fb55780639d4a225514612e3b5780639fa44dbf14612df4578063a22cb46514612d2d578063a22fb38714612c85578063a323d29e14612b3a578063af55ed6414612b0b578063b27e169714612a0a578063b88d4fde146129ab578063b95a062814612972578063b9db15b41461275e578063c1302b3414612707578063c64b8a8f146126ca578063c87b56dd14612672578063ceca737f146125f4578063d2bc9d781461236f578063d637dcfa14611f45578063dadd0a5714611c53578063dc29868214611a50578063e01ef6e614611a33578063e40971e514610c52578063e585cb2c14610bb0578063e6a93e16146108fd578063e985e9c5146108ab578063eb11c43414610879578063ed90c7b714610746578063f2fde38b1461069b578063f3052d26146105dd5763fdca4ca314610312575f80fd5b346105d9575f3660031901126105d957600880545f60015b82811115610579575061033c90617122565b905f9260015b8281111561035c576040518061035886826167c8565b0390f35b5f81815260156020908152604090912060018101546001600160a01b0316919033831480610567575b61039b575b5050506103969061708a565b610342565b604097939751926103ab84616857565b81548452828401526040516103ce816103c78160028601616a9a565b0382616932565b60408401526040516103e7816103c78160038601616a9a565b606084015260048101546080840152600581015460a084015260069061040e828201616ef2565b60c085015261041f60078201616ef2565b60e085015261042f868201616ef2565b610100850152604051610449816103c78160098601616a9a565b610120850152604051610463816103c781600a8601616a9a565b610140850152600b810154610160850152604051610488816103c781600c8601616a9a565b6101808501526040516104a2816103c781600d8601616a9a565b6101a0850152600e8101546101c0850152600f81015460ff80821615156101e087015281881c81161515610200870152601091821c16151561022086015201805491906104ee83616edb565b936104fc6040519586616932565b8385525f918252808220918186015b85821061054b575050505050509181610396936102406105429401526105318288617171565b5261053c8187617171565b5061708a565b94905f8061038a565b848360019261055987617185565b81520194019101909261050b565b5060ff600f82015460101c1615610385565b5f81815260156020526040902060018101546001600160a01b0316331490816105c6575b506105b1575b6105ac9061708a565b61032a565b906105be6105ac9161708a565b9190506105a3565b60ff9150600f015460101c16155f61059d565b5f80fd5b346105d95760203660031901126105d9576004355f52601860205260405f20604051610608816168c6565b815481526103586040519161062b836106248160018801616a9a565b0384616932565b6020810192835261064f600360ff6002870154169560408401961515875201617fa5565b9060608101918252610663815115156179c8565b519251935115159051610688604051958695865260806020870152608086019061653e565b9160408501528382036060850152617057565b346105d95760203660031901126105d9576106b461682b565b6106bc618152565b6001600160a01b039081169081156106f2575f548260018060a01b03198216175f55165f805160206190de8339815191525f80a3005b60405162461bcd60e51b815260206004820152602660248201527f4f776e61626c653a206e6577206f776e657220697320746865207a65726f206160448201526564647265737360d01b6064820152608490fd5b346105d9576020806003193601126105d95760043590815f526017815261077360ff60405f205416617acc565b5f828152601582526040902060010154336001600160a01b039182161490811561086c575b501561081857815f526015815260ff600f60405f20015460101c166107d7575f9182526015905260409020600f01805462ff0000191662010000179055005b6064906040519062461bcd60e51b82526004820152601a602482015279141c9bd91d58dd081a5cc8185b1c9958591e4819195b195d195960321b6044820152fd5b6084906040519062461bcd60e51b82526004820152602760248201527f4f6e6c792070726f647563742073656c6c6572206f72206f776e65722063616e6044820152662064656c65746560c81b6064820152fd5b5f54163314905083610798565b346105d95760203660031901126105d957602061089c61089761682b565b6180e1565b6108a96040518092616dc0565bf35b346105d95760403660031901126105d9576108c461682b565b6108cc616841565b9060018060a01b038091165f52600760205260405f2091165f52602052602060ff60405f2054166040519015158152f35b346105d95760203660031901126105d95761091661682b565b6008545f60015b82811115610b4d575061092f90617122565b9060015f5b8282111561094a576040518061035886826167c8565b5f82815260156020526040902060018101546001600160a01b0390811691908716821480610b3b575b61098a575b5050906109849061708a565b90610934565b6040519161099783616857565b8154835260208301526040516109b4816103c78160028601616a9a565b60408301526040516109cd816103c78160038601616a9a565b606083015260048101546080830152600581015460a08301526109f260068201616ef2565b60c0830152610a0360078201616ef2565b60e0830152610a1460088201616ef2565b610100830152604051610a2e816103c78160098601616a9a565b610120830152604051610a48816103c781600a8601616a9a565b610140830152600b810154610160830152604051610a6d816103c781600c8601616a9a565b610180830152604051610a87816103c781600d8601616a9a565b6101a0830152600e8101546101c0830152600f8101549060ff80831615156101e0850152808360081c161515610200850152601092831c16151561022084015201805490610ad482616edb565b91610ae26040519384616932565b80835260208301915f5260205f205f925b828410610b1d575050505061024082015261098491610b16916105318288617171565b9086610978565b60066020600192610b2d85617185565b815201920193019290610af3565b5060ff600f82015460101c1615610973565b5f81815260156020526040902060018101546001600160a01b038681169116149081610b9d575b50610b88575b610b839061708a565b61091d565b90610b95610b839161708a565b919050610b7a565b60ff9150600f015460101c161585610b74565b346105d95760403660031901126105d957610bc961682b565b6001600160a01b039081165f908152601c602052604090208054602435908110156105d957610bf791616df6565b5090610358825460018401549360028101549160038201549060048301548660058501541690600685015493610c3b600f610c3460078901616e0f565b9701616f56565b966040519a8b9a60ff8860a01c169716958b616ff1565b346105d9576003196020368201126105d9576001600160401b03600435116105d9576101a090600435360301126105d957335f52601260205260ff60405f2054166004811015611a1f576002148015611a0c575b156119c857610cc5610cbc600480350180617b52565b90501515617b84565b610ce5610cdc602460043501600435600401617b52565b90501515617bc7565b610cf6604460043501351515617c11565b610d07606460043501351515617c5c565b610d27610d1e608460043501600435600401617ca7565b90501515617cdc565b60e46004350135156119785761010460043501351561192557610d5261012460043501351515617db1565b610d6461018460043501351515617dfd565b610d84610d7b60c460043501600435600401617ca7565b90501515617d21565b610da66005610d9d60c460043501600435600401617ca7565b90501115617d66565b60016008540180600855610db8617098565b81815233602082015290610dda610dd3600480350180617b52565b3691616970565b6040830152610df6610dd3602460043501600435600401617b52565b60608301526044600435013560808301526064600435013560a0830152610e31610e2a608460043501600435600401617ca7565b3691618072565b60c0830152610e4d610e2a60a460043501600435600401617ca7565b60e0830152610e69610e2a60c460043501600435600401617ca7565b61010083015260e460043501355f5260186020526103c7610e96600160405f200160405192838092616a9a565b61012083015261010460043501355f5260196020526103c7610ec4600160405f200160405192838092616a9a565b610140830152610ee2610dd361014460043501600435600401617b52565b610180830152610f00610dd361016460043501600435600401617b52565b6101a083015260043561012481013561016084015261018401356101c083015233156118e157610f38610f3282618f7c565b15618f31565b610f44610f3282618f7c565b335f52600560205260405f2060018154019055805f52600460205260405f203360018060a01b031982541617905580335f5f8051602061911e8339815191528180a4601560205260405f2090825182556001820160018060a01b0360208501511660018060a01b0319825416179055604083015192835160018060401b0381116113ce57610fe281610fd96002870154616a62565b60028701617633565b6020601f8211600114611876578190611006939495965f9261145f575b5050617676565b60028401555b606081015180519093906001600160401b0381116113ce5761103e816110356003850154616a62565b60038501617633565b6020601f821160011461180b578190611061939495965f9261145f575050617676565b60038201555b6080820151600482015560a082015160058201556006810160c083015160208151916110938385617e8e565b01915f5260205f20915f905b82821061174657505050506007810160e083015160208151916110c28385617e8e565b01915f5260205f20915f905b82821061168157505050506008810161010083015160208151916110f28385617e8e565b01915f5260205f20915f905b8282106115ab575050505061012082015180519093906001600160401b0381116113ce5761113c816111336009860154616a62565b60098601617633565b6020601f821160011461154057819061115f939495965f9261145f575050617676565b60098301555b61014083015180519093906001600160401b0381116113ce576111988161118f600a870154616a62565b600a8701617633565b6020601f82116001146114d55781906111bb939495965f9261145f575050617676565b600a8401555b610160810151600b84015561018081015180519093906001600160401b0381116113ce576111ff816111f6600c850154616a62565b600c8501617633565b6020601f821160011461146a578190611222939495965f9261145f575050617676565b600c8201555b6101a08201518051906001600160401b0382116113ce5761125982611250600d860154616a62565b600d8601617633565b602090601f83116001146113ed57826010936102409593611281935f926113e2575050617676565b600d8201555b6101c0840151600e820155600f81016112a76101e08601511515826175f3565b6102008501511515815461ff0062ff00006102208901511515871b169260081b169062ffff001916171790550191015190815191600160401b83116113ce578154838355808410611354575b50602001905f5260205f205f915b8383106113365761133485805f52601760205260405f20600160ff19825416179055335f52601660205260405f20617a5a565b005b60066020826113486001945186617688565b01920192019190611301565b806006029060068204036113ba57836006026006810485036113ba57835f5260205f2091820191015b81811061138a57506112f3565b805f600692555f60018201555f60028201556113a860038201617e46565b5f60048201555f60058201550161137d565b634e487b7160e01b5f52601160045260245ffd5b634e487b7160e01b5f52604160045260245ffd5b015190508880610fff565b90600d84015f5260205f20915f5b601f1985168110611447575092610240949260019260109583601f1981161061142f575b505050811b01600d820155611287565b01515f1960f88460031b161c1916905587808061141f565b919260206001819286850151815501940192016113fb565b015190508680610fff565b600c83015f5260205f20905f5b601f19841681106114bd575060019394959683601f198116106114a5575b505050811b01600c820155611228565b01515f1960f88460031b161c19169055858080611495565b9091602060018192858b015181550193019101611477565b600a85015f5260205f20905f5b601f1984168110611528575060019394959683601f19811610611510575b505050811b01600a8401556111c1565b01515f1960f88460031b161c19169055858080611500565b9091602060018192858b0151815501930191016114e2565b600984015f5260205f20905f5b601f1984168110611593575060019394959683601f1981161061157b575b505050811b016009830155611165565b01515f1960f88460031b161c1916905585808061156b565b9091602060018192858b01518155019301910161154d565b80518051906001600160401b0382116113ce576115d2826115cc8854616a62565b88617633565b602090601f831160011461161557926115fb836001959460209487965f9261160a575050617676565b87555b019401910190926110fe565b015190508d80610fff565b90865f5260205f20915f5b601f1985168110611669575083602093600196938796938794601f19811610611651575b505050811b0187556115fe565b01515f1960f88460031b161c191690558c8080611644565b91926020600181928685015181550194019201611620565b80518051906001600160401b0382116113ce576116a2826115cc8854616a62565b602090601f83116001146116da57926116cb836001959460209487965f9261160a575050617676565b87555b019401910190926110ce565b90865f5260205f20915f5b601f198516811061172e575083602093600196938796938794601f19811610611716575b505050811b0187556116ce565b01515f1960f88460031b161c191690558c8080611709565b919260206001819286850151815501940192016116e5565b80518051906001600160401b0382116113ce57611767826115cc8854616a62565b602090601f831160011461179f5792611790836001959460209487965f9261160a575050617676565b87555b0194019101909261109f565b90865f5260205f20915f5b601f19851681106117f3575083602093600196938796938794601f198116106117db575b505050811b018755611793565b01515f1960f88460031b161c191690558c80806117ce565b919260206001819286850151815501940192016117aa565b600383015f5260205f20905f5b601f198416811061185e575060019394959683601f19811610611846575b505050811b016003820155611067565b01515f1960f88460031b161c19169055858080611836565b9091602060018192858b015181550193019101611818565b600285015f5260205f20905f5b601f19841681106118c9575060019394959683601f198116106118b1575b505050811b01600284015561100c565b01515f1960f88460031b161c191690558580806118a1565b9091602060018192858b015181550193019101611883565b606460405162461bcd60e51b815260206004820152602060248201527f4552433732313a206d696e7420746f20746865207a65726f20616464726573736044820152fd5b60405162461bcd60e51b815260206004820152602560248201527f53756243617465676f7279204944206d75737420626520677265617465722074604482015264068616e20360dc1b6064820152608490fd5b60405162461bcd60e51b815260206004820152602260248201527f43617465676f7279204944206d7573742062652067726561746572207468616e604482015261020360f41b6064820152608490fd5b606460405162461bcd60e51b815260206004820152602060248201527f4d7573742062652076657269666965642073656c6c6572206f72206f776e65726044820152fd5b505f546001600160a01b03163314610ca6565b634e487b7160e01b5f52602160045260245ffd5b346105d9575f3660031901126105d9576020600d54604051908152f35b346105d9576020806003193601126105d9576001600160401b036004358181116105d957611a829036906004016169a6565b90611a8b618152565b611a9782511515617a0e565b611aa2600b5461708a565b9081600b55604051611ab381616917565b5f8152604051611ac2816168c6565b8381528581018581526040820190600195868352606084019485525f526018885260405f209251835585830190518051908682116113ce57611b0e82611b088554616a62565b85617633565b8990601f8311600114611be657826003969593611b469593611b37935f9261160a575050617676565b90555b511515600283016175f3565b01905180519283116113ce57600160401b83116113ce5785908254848455808510611bcb575b5001905f52845f205f5b838110611bba57600b546040518881527f11c167cc9b439f0ad8bec5588159f1b06b813bc38d50c867a41b23b077be2c1a9080611bb5818c018b61653e565b0390a2005b825182820155918601918401611b76565b611be090845f5285845f20918201910161761d565b87611b6c565b889291601f19831691855f528c5f20928d5f905b828210611c3c575050916003989795939185611b4698969410611c25575b505050811b019055611b3a565b01515f19838a1b60f8161c191690558c8080611c18565b8385015186558d979095019493840193018e611bfa565b346105d9575f3660031901126105d957600b54611c6f81616edb565b611c7c6040519182616932565b818152611c8882616edb565b601f1901366020830137611c9b82616edb565b91611ca96040519384616932565b808352611cc5611cb882616edb565b601f190160208501618056565b611cce81616edb565b92611cdc6040519485616932565b818452611ce882616edb565b601f1901366020860137611cfb82616edb565b90611d096040519283616932565b828252611d1583616edb565b92611d286020840194601f190185618056565b60015b81811115611e60575050611d4a60405194608086526080860190617057565b8481036020860152815180825260208201916020808360051b8301019401925f915b838310611e335750505050508381036040850152602080865192838152019501905f5b818110611e1b57505050828403606084015251808452602084019060208160051b86010192915f905b828210611dc55785850386f35b90919293601f19878203018252845190602080835192838152019201905f905b808210611e0357505050602080600192960192019201909291611db8565b90919260208060019286518152019401920190611de5565b82511515875260209687019690920191600101611d8f565b9091929394602080611e51600193601f19868203018752895161653e565b97019301930191939290611d6c565b805f52601860205260405f2090611eb1600360405193611e7f856168c6565b80548552604051611e97816103c78160018601616a9a565b602086015260ff6002820154161515604086015201617fa5565b60608301528151611ecc575b611ec7915061708a565b611d2b565b805f198101116113ba57606082611ec79351611eeb5f1985018b617171565b526020810151611efe5f19850188617171565b52611f0c5f19840187617171565b5060408101511515611f215f1985018c617171565b520151611f315f19830187617171565b52611f3f5f19820186617171565b50611ebd565b346105d95760603660031901126105d9576001600160401b036004358181116105d957611f769036906004016169a6565b602480358381116105d957611f8f9036906004016169a6565b906044358481116105d957611fa89036906004016169a6565b611fb3331515617a8e565b335f526020946014865260ff60405f20541661233157611fd585511515617b84565b8351156122f55760405191611fe9836168e1565b8583528683019485526040830190815260608301904282526080840192600196878552335f5260108a5260405f209551805183811161228257612036816120308a54616a62565b8a617633565b8b8c601f831160011461229557508190612057935f9261160a575050617676565b86555b878601905180518381116122825761207681611b088554616a62565b8b8c601f831160011461222257508190612097935f9261160a575050617676565b90555b600285019151805191821161220f576120b782611b088554616a62565b8990601f83116001146121a05782600495936120f4989795936120e1935f9261160a575050617676565b90555b51600384015551151591016175f3565b335f9081526014855260409020805460ff191683179055600f5491600160401b83101561218c57820180600f5582101561217957507f48cac28ad4dc618e15f4c2dd5e97751182f166de97b25618318b2112aa951a2f91611bb591600f5f52845f20013360018060a01b0319825416179055604051918291858352339583019061653e565b634e487b7160e01b5f9081526032600452fd5b50634e487b7160e01b5f9081526041600452fd5b889291601f19831691855f528c5f20928d5f905b8282106121f857505091600497959391856120f49b9a989694106121e0575b505050811b0190556120e4565b01515f1960f88460031b161c191690558c80806121d3565b8385015186558d979095019493840193018e6121b4565b86634e487b7160e01b5f5260416004525ffd5b908b93601f198416865f52835f20935f905b8282106122695750508411612251575b505050811b01905561209a565b01515f1960f88460031b161c191690558c8080612244565b8484015186558f97909501949384019390810190612234565b88634e487b7160e01b5f5260416004525ffd5b908b93601f1984168b5f52835f20935f905b8282106122dc57505084116122c4575b505050811b01865561205a565b01515f1960f88460031b161c191690558c80806122b7565b8484015186558f979095019493840193908101906122a7565b60405162461bcd60e51b81526004810187905260158185015274456d61696c2063616e6e6f7420626520656d70747960581b6044820152606490fd5b60405162461bcd60e51b81526004810187905260178185015276155cd95c88185b1c9958591e481c9959da5cdd195c9959604a1b6044820152606490fd5b346105d95760403660031901126105d9576024356001600160401b038082116105d957366023830112156105d957808260040135116105d957366024836004013560051b840101116105d9576004355f52601860205260ff600260405f20015416156125b2575f905b826004013582106123e557005b612423916123f4600c5461708a565b80600c5561240a8286600401356024880161803b565b949060405195612419876168c6565b8387523691616970565b90602085019182526004356040860152600160608601525f52601960205260405f209084518255519384518481116113ce5761246f816124666001860154616a62565b60018601617633565b6020601f821160011461253b579260609261249d836124bc946124d49760019a9b5f92612530575050617676565b878301555b6040810151600283015560039384910151151591016175f3565b6004355f52601860205260405f2001600c5490617a5a565b5f8051602061913e833981519152600c546124f78387600401356024890161803b565b929083604051916020835281602084015260408301375f6040858301015260408160043595601f80199101168101030190a301906123d8565b015190508c80610fff565b95600184015f5260205f20905f5b601f198416811061259a5750926001836124d4969382999a6060976124bc97601f19811610612582575b505050811b01878301556124a2565b01515f1960f88460031b161c191690558b8080612573565b81890151835560209889019860019093019201612549565b60405162461bcd60e51b815260206004820152601a602482015279506172656e742063617465676f7279206e6f742061637469766560301b6044820152606490fd5b346105d95760203660031901126105d957600435612610618152565b805f52601860205261262760405f205415156179c8565b805f5260186020525f805160206190be83398151915261266760405f206002810160ff198154169055604051918291604083526001604084019101616a9a565b5f60208301520390a2005b346105d95760203660031901126105d957612696612691600435618f7c565b61795f565b5f6040516126a381616917565b526103586040516126b381616917565b5f815260405191829160208352602083019061653e565b346105d95760203660031901126105d9576001600160a01b036126eb61682b565b165f526013602052602060ff60405f2054166040519015158152f35b346105d95760403660031901126105d95761272061682b565b6001600160a01b03165f908152601660205260409020805460243591908210156105d95760209161275091616dcd565b90546040519160031b1c8152f35b346105d9576020806003193601126105d95760043561277b617098565b50805f526015825261279a60ff600f60405f20015460101c1615617b11565b805f52601782526127b160ff60405f205416617acc565b5f526015815260405f2090604051916127c983616857565b805483526001808201546001600160a01b0316838501526040516127f4816103c78160028701616a9a565b604085015260405161280d816103c78160038701616a9a565b606085015260048201546080850152600582015460a0850152601060069261283760068201616ef2565b60c087015261284860078201616ef2565b60e087015261285960088201616ef2565b610100870152604051612873816103c78160098601616a9a565b61012087015260405161288d816103c781600a8601616a9a565b610140870152600b8101546101608701526040516128b2816103c781600c8601616a9a565b6101808701526040516128cc816103c781600d8601616a9a565b6101a0870152600e8101546101c087015260ff600f82015481811615156101e0890152818160081c161515610200890152831c161515610220870152019182549061291682616edb565b936129246040519586616932565b8285525f908152858120868087015b858410612955576102408a01889052604051828152806103588185018d616678565b8691859161296285617185565b8152019201920191908790612933565b346105d95760203660031901126105d95760206001600160a01b038061299661682b565b165f52601e825260405f205416604051908152f35b346105d95760803660031901126105d9576129c461682b565b6129cc616841565b606435916001600160401b0383116105d957366023840112156105d957612a00611334933690602481600401359101616970565b9160443591617ff3565b346105d9576020806003193601126105d9576001600160a01b039081612a2e61682b565b165f52601b815260405f20805490612a4582616edb565b92612a536040519485616932565b8284525f9182528082208185015b848410612a7657604051806103588882616c5c565b601683600192604051612a88816168aa565b85548152848601548382015260028601546040820152600386015460608201526004860154608082015260ff8b60058801541660a090818401526006880154908d821660c08501521c16151560e0820152612ae560078701616e0f565b610100820152612af7600f8701616f56565b610120820152815201920193019290612a61565b346105d95760203660031901126105d9576004355f526017602052602060ff60405f2054166040519015158152f35b346105d9576020806003193601126105d957612c6a90610358612b5b61682b565b612b636178e5565b5060018060a01b031691825f5260138152612b8460ff60405f20541661791b565b825f526011815260405f209260ff600660405195612ba18761688f565b604051612bb2816103c78185616a9a565b8752604051612bc8816103c78160018601616a9a565b85880152604051612be0816103c78160028601616a9a565b6040880152604051612bf9816103c78160038601616a9a565b6060880152604051612c12816103c78160048601616a9a565b6080880152600581015460a0880152015416151560c08501525f526012815260ff60405f205416601a825260405f205460168352612c73612c5560405f20617fa5565b92604051978897608089526080890190616d40565b94870190616dc0565b60408501528382036060850152617057565b346105d95760203660031901126105d957612c9e61682b565b612ca6618152565b6001600160a01b03168015612cee5760405f8051602061907e83398151915291335f52601e602052815f208160018060a01b03198254161790558151903382526020820152a1005b60405162461bcd60e51b8152602060048201526017602482015276496e76616c6964206163636f756e74206164647265737360481b6044820152606490fd5b346105d95760403660031901126105d957612d4661682b565b60243590811515908183036105d9576001600160a01b031691338314612db357612d8590335f52600760205260405f20845f5260205260405f206175f3565b6040519081527f17307eab39ab6107e8899845ad3d59bd9653f200f220920489ca2b5937696c3160203392a3005b60405162461bcd60e51b815260206004820152601960248201527822a9219b99189d1030b8383937bb32903a379031b0b63632b960391b6044820152606490fd5b346105d95760403660031901126105d957612e0d61682b565b6001600160a01b039081165f908152601b602052604090208054602435908110156105d957610bf791616df6565b346105d9576020806003193601126105d957600435805f526015906015835260ff600f60405f20015491612e7760ff60109460101c1615617b11565b805f5260178552612e8e60ff60405f205416617acc565b5f925f5b825f528587528160405f20018054821015612eda576004612eb4838793617604565b5001541615612ec6575b600101612e92565b93612ed260019161708a565b949050612ebe565b50508486612ee786616edb565b95612ef56040519788616932565b808752612f04601f1991616edb565b01815f5b828110612f9f575050505f935f5b815f528383528460405f20018054821015612f8c576004612f38838a93617604565b5001541615612f4a575b600101612f16565b94612f84600191835f52858552612f6f612f69898960405f2001617604565b50617185565b612f79828c617171565b5261053c818b617171565b959050612f42565b604051848152806103588187018c6165d8565b612fa76175c3565b82828b010152018290612f08565b346105d95760403660031901126105d957612fce61682b565b6024359060048210156105d957612fe3618152565b60018060a01b031690815f526020906013825261300660ff60405f20541661791b565b80156130a757825f526012825260ff60405f2054166004811015611a1f57811461306257905f805160206190fe83398151915291835f526012825260405f2060ff1981541660ff831617905561305f6040518092616dc0565ba2005b60405162461bcd60e51b815260048101839052601e60248201527f53656c6c657220616c72656164792068617320746869732073746174757300006044820152606490fd5b60405162461bcd60e51b815260048101839052601f60248201527f43616e6e6f74207365742073746174757320746f20556e7665726966696564006044820152606490fd5b346105d9575f3660031901126105d9576040516003545f8261310d83616a62565b91828252602093600190856001821691825f1461318c57505060011461314f575b5061313b92500383616932565b61035860405192828493845283019061653e565b84915060035f52815f20905f915b85831061317457505061313b93508201018561312e565b8054838901850152879450869390920191810161315d565b60ff19168582015261313b95151560051b850101925087915061312e9050565b346105d95760203660031901126105d9576001600160a01b036131cd61682b565b165f52601160205261327b60405f20604051906131f5826131ee8184616a9a565b0383616932565b604051613209816103c78160018601616a9a565b6132b3604051613220816103c78160028801616a9a565b6132a5604051613237816103c78160038a01616a9a565b613297604051936132568561324f8160048c01616a9a565b0386616932565b61328960ff600660058b01549a015416976040519b8c9b60e08d5260e08d019061653e565b908b820360208d015261653e565b9089820360408b015261653e565b90878203606089015261653e565b90858203608087015261653e565b9160a0840152151560c08301520390f35b346105d95760203660031901126105d9576004356001600160401b0381116105d9576132f49036906004016169a6565b6008545f60015b8281111561355d575061330d90617122565b9060015f5b82821115613328576040518061035886826167c8565b815f526015806020526009906103c761334c8360405f200160405192838092616a9a565b60208151910120875160208901201480613541575b613378575b5050906133729061708a565b90613312565b835f5260205260405f206103c76134346040519361339585616857565b8354855260018401546001600160a01b031660208601526040516133c0816103c78160028901616a9a565b60408601526040516133d9816103c78160038901616a9a565b606086015260048401546080860152600584015460a08601526133fe60068501616ef2565b60c086015261340f60078501616ef2565b60e086015261342060088501616ef2565b610100860152604051928380928601616a9a565b61012083015260405161344e816103c781600a8601616a9a565b610140830152600b810154610160830152604051613473816103c781600c8601616a9a565b61018083015260405161348d816103c781600d8601616a9a565b6101a0830152600e8101546101c0830152600f8101549060ff80831615156101e0850152808360081c161515610200850152601092831c161515610220840152018054906134da82616edb565b916134e86040519384616932565b80835260208301915f5260205f205f925b82841061352357505050506102408201526133729161351c916105318288617171565b9086613366565b6006602060019261353385617185565b8152019201930192906134f9565b50835f528060205260ff600f60405f20015460101c1615613361565b805f526015806020526103c761357f600960405f200160405192838092616a9a565b60208151910120855160208701201490816135be575b506135a9575b6135a49061708a565b6132fb565b906135b66135a49161708a565b91905061359b565b9050815f5260205260ff600f60405f20015460101c161585613595565b346105d9575f3660031901126105d9575f546040516001600160a01b039091168152602090f35b346105d9576003196040368201126105d9576001600160401b03602435116105d9576101a090602435360301126105d9576004355f908152601560205260409020600101546001600160a01b03163303613ef3576004355f52601760205261367060ff60405f205416617acc565b6004355f52601560205261369160ff600f60405f20015460101c1615617b11565b6136a3610cbc60046024350180617b52565b6136b9610cdc6024803501602435600401617b52565b6136ca604460243501351515617c11565b6136db606460243501351515617c5c565b6136f2610d1e608460243501602435600401617ca7565b613709610d7b60c460243501602435600401617ca7565b6137226005610d9d60c460243501602435600401617ca7565b60e4602435013515613eb357610104602435013515613e6f5761374d61012460243501351515617db1565b61375f61018460243501351515617dfd565b61376e60046024350180617b52565b6004355f908152601560205260409020600201906001600160401b0381116113ce576137a48161379e8454616a62565b84617633565b5f92601f8211600114613e0a576137c5929382915f92613a69575050617676565b90555b6137db6024803501602435600401617b52565b6004355f908152601560205260409020600301906001600160401b0381116113ce5761380b8161379e8454616a62565b5f92601f8211600114613da55761382c929382915f92613a69575050617676565b90555b6004355f52601560205260405f20604460243501356004820155606460243501356005820155600661386b608460243501602435600401617ca7565b919092019161387a8284617e8e565b5f9283526020832090805b838510613cdb576138a060a460243501602435600401617ca7565b6004355f526015602052600760405f2001916138bc8284617e8e565b5f9283526020832090805b838510613c11576138e260c460243501602435600401617ca7565b6004355f526015602052600860405f2001916138fe8284617e8e565b5f9283526020832090805b838510613b365760e460243501355f52601860205261393e600160405f20016004355f526015602052600960405f2001617ed5565b61010460243501355f52601960205261396d600160405f20016004355f526015602052600a60405f2001617ed5565b61398261014460243501602435600401617b52565b6004355f908152601560205260409020600c01906001600160401b0381116113ce576139b28161379e8454616a62565b5f601f8211600114613ad55781906139d293945f92613a69575050617676565b90555b6139ea61016460243501602435600401617b52565b6004355f908152601560205260409020600d01906001600160401b0381116113ce57613a1a8161379e8454616a62565b5f601f8211600114613a74578190613a3a93945f92613a69575050617676565b90555b6004355f52601560205260405f206101246024350135600b820155600e61018460243501359101555f80f35b013590508480610fff565b601f19821693835f5260205f20915f5b868110613abd5750836001959610613aa4575b505050811b019055613a3d565b01355f19600384901b60f8161c19169055838080613a97565b90926020600181928686013581550194019101613a84565b601f19821693835f5260205f20915f5b868110613b1e5750836001959610613b05575b505050811b0190556139d5565b01355f19600384901b60f8161c19169055838080613af8565b90926020600181928686013581550194019101613ae5565b613b408183617b52565b906001600160401b0382116113ce57613b6382613b5d8754616a62565b87617633565b5f90601f8311600114613ba55792613b8b836001959460209487965f92613b9a575050617676565b86555b01930194019391613909565b013590508b80610fff565b855f5260205f20915f5b601f1985168110613bf9575083602093600196938796938794601f19811610613be0575b505050811b018655613b8e565b01355f19600384901b60f8161c191690558a8080613bd3565b90926020600181928686013581550194019101613baf565b613c1b8183617b52565b906001600160401b0382116113ce57613c3882613b5d8754616a62565b5f90601f8311600114613c6f5792613c60836001959460209487965f92613b9a575050617676565b86555b019301940193916138c7565b855f5260205f20915f5b601f1985168110613cc3575083602093600196938796938794601f19811610613caa575b505050811b018655613c63565b01355f19600384901b60f8161c191690558a8080613c9d565b90926020600181928686013581550194019101613c79565b613ce58183617b52565b906001600160401b0382116113ce57613d0282613b5d8754616a62565b5f90601f8311600114613d395792613d2a836001959460209487965f92613b9a575050617676565b86555b01930194019391613885565b855f5260205f20915f5b601f1985168110613d8d575083602093600196938796938794601f19811610613d74575b505050811b018655613d2d565b01355f19600384901b60f8161c191690558a8080613d67565b90926020600181928686013581550194019101613d43565b825f5260205f20905f945b601f1984168610613df257600194955083601f19811610613dd9575b505050811b01905561382f565b01355f19600384901b60f8161c19169055838080613dcc565b91602060018192858501358155019301950194613db0565b825f5260205f20905f945b601f1984168610613e5757600194955083601f19811610613e3e575b505050811b0190556137c8565b01355f19600384901b60f8161c19169055838080613e31565b91602060018192858501358155019301950194613e15565b60405162461bcd60e51b815260206004820152601c60248201527b5375622d63617465676f72792063616e6e6f7420626520656d70747960201b6044820152606490fd5b60405162461bcd60e51b815260206004820152601860248201527743617465676f72792063616e6e6f7420626520656d70747960401b6044820152606490fd5b60405162461bcd60e51b815260206004820152602860248201527f4f6e6c79207468652073656c6c65722063616e20757064617465207468656972604482015267081c1c9bd91d58dd60c21b6064820152608490fd5b346105d95760a03660031901126105d9576004356001600160401b0381116105d957613f799036906004016169a6565b60249081356001600160401b0381116105d957613f9a9036906004016169a6565b6044356001600160401b0381116105d957613fb99036906004016169a6565b6064356001600160401b0381116105d957613fd89036906004016169a6565b906084356001600160401b0381116105d957613ff89036906004016169a6565b92614004331515617a8e565b335f52601360205260ff60405f205416614618578451156145db578151156145a657825115614571576040519461403a8661688f565b855260208501526040840152606083015260808201524260a0820152600160c0820152335f52601160205260405f2090805192835160018060401b03811161218c576140908161408a8654616a62565b86617633565b6020601f821160011461450c5781906140b3939495965f9261145f575050617676565b83555b602082015180519093906001600160401b0381116144f9576140e8816140df6001850154616a62565b60018501617633565b6020601f821160011461448e57819061410b939495965f9261145f575050617676565b60018201555b604083015180519093906001600160401b03811161447b576141438161413a6002860154616a62565b60028601617633565b6020601f8211600114614410578190614166939495965f9261145f575050617676565b60028301555b6060810151805160038401916001600160401b03821161438e5761419482611b088554616a62565b602090601f83116001146143ac576141b592915f91836143a1575050617676565b90555b6080810151805160048401916001600160401b03821161438e576141e082611b088554616a62565b602090601f8311600114614320579261420c8360c0946142249897946006975f92614315575050617676565b90555b60a081015160058501550151151591016175f3565b335f52601360205260405f2060ff19906001828254161790556012602052600160405f209182541617905561425833618e99565b156142a6575b6040514281527fa1a1a78ff3033d5ee8393372052aeb2a16bbb347a29f3780370e9506c109e37260203392a2604051600181525f805160206190fe83398151915260203392a2005b600e5490600160401b821015614302576001820180600e558210156121795750600e5f527fbb7b4a454dc3493923482f07822329ed19e8244eff582cc204f8554c3620c3fd0180546001600160a01b031916331790558061425e565b634e487b7160e01b5f9081526041600452fd5b015190508a80610fff565b90601f19831691845f5260205f20925f5b818110614376575093614224979693600696936001938360c0981061435e575b505050811b01905561420f565b01515f1960f88460031b161c19169055898080614351565b92936020600181928786015181550195019301614331565b85634e487b7160e01b5f5260416004525ffd5b015190508780610fff565b90601f19831691845f5260205f20925f5b8181106143f857509084600195949392106143e0575b505050811b0190556141b8565b01515f1960f88460031b161c191690558680806143d3565b929360206001819287860151815501950193016143bd565b600284015f5260205f20905f5b601f1984168110614463575060019394959683601f1981161061444b575b505050811b01600283015561416c565b01515f1960f88460031b161c1916905585808061443b565b9091602060018192858b01518155019301910161441d565b83634e487b7160e01b5f5260416004525ffd5b600183015f5260205f20905f5b601f19841681106144e1575060019394959683601f198116106144c9575b505050811b016001820155614111565b01515f1960f88460031b161c191690558580806144b9565b9091602060018192858b01518155019301910161449b565b82634e487b7160e01b5f5260416004525ffd5b845f5260205f20905f5b601f1984168110614559575060019394959683601f19811610614541575b505050811b0183556140b6565b01515f1960f88460031b161c19169055858080614534565b9091602060018192858b015181550193019101614516565b60405162461bcd60e51b815260206004820152600e818801526d141a1bdb99481c995c5d5a5c995960921b6044820152606490fd5b60405162461bcd60e51b815260206004820152600e818801526d115b585a5b081c995c5d5a5c995960921b6044820152606490fd5b60405162461bcd60e51b81526020600482015260168188015275109d5cda5b995cdcc81b985b59481c995c5d5a5c995960521b6044820152606490fd5b60405162461bcd60e51b815260206004820152601c818801527b20b63932b0b23c903932b3b4b9ba32b932b21030b99039b2b63632b960211b6044820152606490fd5b346105d95760403660031901126105d9576001600160401b036004356024358281116105d95761468f9036906004016169a6565b614697618152565b815f526020906018825260405f20541561481d576146b78151151561787a565b6146c2600c5461708a565b9384600c55604051906146d4826168c6565b85825283820183815260408301908682526060840192600198600185525f526019875260405f20945185556001850191519889519182116113ce5761471d82611b088554616a62565b8790601f83116001146147a2575091614758826003959361476b9897955f8051602061913e8339815191529b9c9d5f9261160a575050617676565b90555b51600284015551151591016175f3565b835f5260188352614785600360405f2001600c5490617a5a565b600c549261479d60405192828493845283019061653e565b0390a3005b99601f198316845f52895f209b5f905b828210614806575050925f8051602061913e833981519152999a9b61476b989795936001938360039997106147ef575b505050811b01905561475b565b01515f1983891b60f8161c191690558c80806147e2565b848401518e559c8d019c938b0193908b01906147b2565b60405162461bcd60e51b815260048101839052601e60248201527f506172656e742063617465676f727920646f6573206e6f7420657869737400006044820152606490fd5b346105d95760203660031901126105d9576004355f52601560205260405f208054600160a01b6001900360018301541691604051808060028401906148a691616a9a565b036148b19082616932565b604051806148c28160038601616a9a565b036148cd9082616932565b6004830154600584015490604051808060098801906148eb91616a9a565b036148f69082616932565b604051908161490881600a8a01616a9a565b036149139083616932565b600b87015492604051948580600c8b019061492d91616a9a565b036149389087616932565b604051968761494a81600d8d01616a9a565b036149559089616932565b600e8a015499600f0154986040519c8d9c8d6101e092839282526020820152604001528c016149839161653e565b8b810360608d01526149949161653e565b9160808b015260a08a015288810360c08a01526149b09161653e565b87810360e08901526149c19161653e565b906101008701528581036101208701526149da9161653e565b8481036101408601526149ec9161653e565b9161016084015260ff811615156101808401528060081c60ff1615156101a084015260101c60ff1615156101c08301520390f35b346105d9575f3660031901126105d957614a38618152565b5f80546001600160a01b0319811682556001600160a01b03165f805160206190de8339815191528280a3005b346105d95760203660031901126105d9576001600160a01b03614a8561682b565b168015614aa2575f526005602052602060405f2054604051908152f35b60405162461bcd60e51b815260206004820152602960248201527f4552433732313a2061646472657373207a65726f206973206e6f7420612076616044820152683634b21037bbb732b960b91b6064820152608490fd5b346105d9576020806003193601126105d957614b1361682b565b60405190614b20826168e1565b5f608060609384815284868201528460408201528285820152015260018060a01b031690815f526014835260ff60405f205416916010845260405f209160405191614b6a836168e1565b604051614b7b816103c78188616a9a565b835260405190614b92826131ee8160018901616a9a565b86840191825260405191614bad836106248160028a01616a9a565b6040850192835260ff6004600388015497868801988952015416916080860192151583525f526013885260ff60405f20541692835f14614c6c576012895260ff60405f205416955b604051998a9915158a52890160809052516080890160a090526101208901614c1c9161653e565b9151607f1992838a82030160a08b0152614c359161653e565b9051918882030160c0890152614c4a9161653e565b945160e087015251151561010086015215156040850152830161035891616dc0565b5f95614bf5565b346105d95760203660031901126105d9576004355f52601960205260405f20604051614c9e816168c6565b8154815260405190614cb7826131ee8160018701616a9a565b6020810191825260ff60036002850154946040840195865201541690606081019115158252614ce8815115156177af565b519151925190511515614d0d604051948594855260806020860152608085019061653e565b91604084015260608301520390f35b346105d957614d2a36616a23565b614d35929192618152565b815f5260209260188452614d4e60405f205415156179c8565b614d5a81511515617a0e565b5f838152601885526040902081516001918201916001600160401b0382116113ce57614d8a82611b088554616a62565b8690601f8311600114614def575091614dbe825f805160206190be8339815191529798936018955f91614de4575b50617676565b90555b855f5252614dd582600260405f20016175f3565b611bb5604051928392836178c5565b90508601518a614db8565b90601f198316845f52885f20925f905b828210614e4c5750509260189492600192825f805160206190be8339815191529a9b9610614e34575b5050811b019055614dc1565b8701515f1960f88460031b161c191690558980614e28565b87840151855593840193928a0192908a0190614dff565b346105d95760203660031901126105d9576020614e816004356179a6565b6040516001600160a01b039091168152f35b346105d95760203660031901126105d9576001600160a01b03614eb461682b565b165f52601a602052602060405f2054604051908152f35b346105d95760203660031901126105d957600435614ee7618152565b60648111614ef457600d55005b60405162461bcd60e51b8152602060048201526012602482015271496e76616c69642070657263656e7461676560701b6044820152606490fd5b346105d9575f3660031901126105d95760405180600e5480835260208093018091600e5f52845f20905f5b86828210614fb7578686614f6f82880383616932565b60405192839281840190828552518091526040840192915f5b828110614f9757505050500390f35b83516001600160a01b031685528695509381019392810192600101614f88565b83546001600160a01b031685529093019260019283019201614f59565b346105d95760203660031901126105d957600435600f548110156105d957600f5f527f8d1108e10bcb7c27dddfc02ed9d693a074039d026cf4ea4240b40f7d581ac80201546040516001600160a01b039091168152602090f35b346105d95760203660031901126105d9576001600160a01b0361504f61682b565b165f526012602052602060ff60405f2054166108a96040518092616dc0565b346105d9576020806003193601126105d95761508861682b565b6150906178e5565b506001600160a01b03165f8181526013835260409020546150b39060ff1661791b565b5f526011815260405f209060ff6006604051936150cf8561688f565b6040516150e0816103c78185616a9a565b85526040516150f6816103c78160018601616a9a565b8486015260405161510e816103c78160028601616a9a565b6040860152604051615127816103c78160038601616a9a565b6060860152604051615140816103c78160048601616a9a565b6080860152600581015460a0860152015416151560c0830152610358604051928284938452830190616d40565b346105d95761133461517e366169ee565b906040519261518c84616917565b5f8452617ff3565b346105d9575f3660031901126105d9576151ac6181a9565b335f5260206013815260ff60405f2054161561528757335f52601a815260405f205490811561524a5761523e615244926151f560646151ed600d54846177f8565b04809261780b565b92335f52601a81525f60408120557f8ad64a0ac7700dd8425ab0499f107cb6e2cd1581d803c5b8c1c79dcb8190b1af604051915f83523392a25f546001600160a01b0316618e34565b33618e34565b60018055005b6064906040519062461bcd60e51b8252600482015260166024820152754e6f2062616c616e636520746f20776974686472617760501b6044820152fd5b6064906040519062461bcd60e51b82526004820152601b60248201527a26bab9ba1031329030903932b3b4b9ba32b932b21039b2b63632b960291b6044820152fd5b346105d9576020806003193601126105d9576001600160a01b0390816152ed61682b565b165f52601c815260405f2080549061530482616edb565b926153126040519485616932565b8284525f9182528082208185015b84841061533557604051806103588882616c5c565b601683600192604051615347816168aa565b85548152848601548382015260028601546040820152600386015460608201526004860154608082015260ff8b60058801541660a090818401526006880154908d821660c08501521c16151560e08201526153a460078701616e0f565b6101008201526153b6600f8701616f56565b610120820152815201920193019290615320565b346105d95760203660031901126105d9576001600160a01b036153eb61682b565b165f52601060205261545c60405f206040519061540c826131ee8184616a9a565b604051615420816103c78160018601616a9a565b615478604051615437816103c78160028801616a9a565b61546a60ff60046003870154960154169360405197889760a0895260a089019061653e565b90878203602089015261653e565b90858203604087015261653e565b916060840152151560808301520390f35b346105d95761549736616a23565b6154a2929192618152565b815f52602092601984526154bb60405f205415156177af565b6154c78151151561787a565b5f838152601985526040902081516001918201916001600160401b0382116113ce576154f782611b088554616a62565b8690601f831160011461554157509161552a825f8051602061915e8339815191529798936019955f91614de45750617676565b90555b855f5252614dd582600360405f20016175f3565b90601f198316845f52885f20925f905b82821061559e5750509260199492600192825f8051602061915e8339815191529a9b9610615586575b5050811b01905561552d565b8701515f1960f88460031b161c19169055898061557a565b87840151855593840193928a0192908a0190615551565b346105d95760403660031901126105d957602480355f600435815b815f5260156020908082526010918260405f200180548510156157bb576155f8858992617604565b50541461560a575050506001016155d0565b929590939194505f52601d825260ff958660405f2054161561578157815f5283835261563b868660405f2001617604565b50600190810154909790336001600160a01b0391821614908115615774575b501561571f57825f528484526004615677888860405f2001617604565b500154166156e35750916156979391600495935f525260405f2001617604565b5001805460ff1916821790555b156156ab57005b60405162461bcd60e51b815260206004820152601060248201526f14995d9a595dc81b9bdd08199bdd5b9960821b6044820152606490fd5b8260166064926040519262461bcd60e51b845260048401528201527514995d9a595dc8185b1c9958591e4819195b195d195960521b6044820152fd5b60405162461bcd60e51b8152600481018590526028818401527f4f6e6c79207265766965776572206f72206f776e65722063616e2064656c6574604482015267652072657669657760c01b6064820152608490fd5b5f5416331490508961565a565b60649391506040519262461bcd60e51b845260048401528201527414995d9a595dc8191bd95cc81b9bdd08195e1a5cdd605a1b6044820152fd5b5050505050509150506156a4565b346105d9576113346157da366169ee565b916157ed6157e88433618c48565b617818565b618d0c565b60031960a0368201126105d9576001600160401b03602435116105d95761010090602435360301126105d9576044356001600160401b0381116105d95761583d9036906004016169c1565b6064356001600160401b0381116105d95761585c9036906004016169c1565b91906158666181a9565b6004355f52601760205260ff60405f20541615615cdf576004355f52601560205260405f2093600f8501549360ff8560101c16615c9f576005860154946084358610615c65576004870154956158be608435886177f8565b3410615c29576158d1906084359061780b565b80600589015515615c17575b5060018601546001600160a01b0316946158fa90608435906177f8565b936040519261590884616873565b600460243501356001600160401b0381116105d95761592f906004369160243501016169a6565b84526001600160401b03602480350135116105d95761595a36600460248035013560243501016169a6565b6020850152602435604401356001600160401b0381116105d957615986906004369160243501016169a6565b6040850152602435606401356001600160401b0381116105d9576159b2906004369160243501016169a6565b6060850152602435608401356001600160401b0381116105d9576159de906004369160243501016169a6565b608085015260243560a401356001600160401b0381116105d957615a0a906004369160243501016169a6565b60a085015260243560c401356001600160401b0381116105d957615a36906004369160243501016169a6565b60c085015260243560e40135916001600160401b0383116105d957615b7995615a80615b0693615a8893615a746003976004369160243501016169a6565b60e08a01523691616970565b943691616970565b6004355f52601560205260405f209060405194615aa48661688f565b604051615ab8816103c78160028801616a9a565b8652615ac660088401616ef2565b6020870152604086015260608501526084356080850152604051615af1816103c78160098601616a9a565b60a08501526103c76040518094819301616a9a565b60c082015260405191615b18836168aa565b60043583523460208401528460408401524260608401524260808401523360a08401528560c08401525f60e0840152610100830152610120820152335f52601b602052615b688160405f206181ff565b835f52601c60205260405f206181ff565b815f52601a60205260405f208054903482018092116113ba575560405190348252602082015242604082015233907f45280c7ac9cec77edd454e39e1641a3e22619146cf074a4239beee86a7c07edc606060043592a46001808060a01b039101541660405134815242602082015233907fbe6177108f4df43c5d7be79cb219c969fc97915bbdb4b56d14d391dcdcc16060604060043592a460018055005b60ff1916600117600f870155866158dd565b60405162461bcd60e51b8152602060048201526014602482015273125b9cdd59999a58da595b9d081c185e5b595b9d60621b6044820152606490fd5b60405162461bcd60e51b8152602060048201526012602482015271496e73756666696369656e742073746f636b60701b6044820152606490fd5b60405162461bcd60e51b8152602060048201526018602482015277141c9bd91d58dd081a185cc81899595b8819195b195d195960421b6044820152606490fd5b60405162461bcd60e51b8152602060048201526011602482015270141c9bd91d58dd081b9bdd08199bdd5b99607a1b6044820152606490fd5b346105d95760203660031901126105d957600435615d34618152565b805f526019602052615d4b60405f205415156177af565b805f5260196020525f8051602061915e83398151915261266760405f206003810160ff198154169055604051918291604083526001604084019101616a9a565b346105d95760603660031901126105d957602480356004356044356001600160401b0381116105d957615dc29036906004016169a6565b90805f526020916015835260018060a01b03600160405f200154163314615f125783151580615f07575b15615ec357805115615e855790601592916001600a54019081600a55615e106175c3565b958287523385880152604087015260608601524260a08601525f52601d825260405f20600160ff198254161790555f5252601060405f20018054600160401b81101561447b57615e6591600182018155617604565b615e73576113349250617688565b82634e487b7160e01b5f525f6004525ffd5b60405162461bcd60e51b81526004810184905260178187015276436f6d6d656e742063616e6e6f7420626520656d70747960481b6044820152606490fd5b60405162461bcd60e51b815260048101849052601e818701527f526174696e67206d757374206265206265747765656e203120616e64203500006044820152606490fd5b506005841115615dec565b60405162461bcd60e51b8152600481018490526026818701527f53656c6c65722063616e6e6f7420726576696577207468656972206f776e20706044820152651c9bd91d58dd60d21b6064820152608490fd5b346105d9575f3660031901126105d957615f7d618152565b335f52601e60205260405f2060018060a01b031981541690555f8051602061907e833981519152604080513381525f6020820152a1005b346105d95760403660031901126105d957611334615fd0616841565b600435617266565b346105d95760203660031901126105d9576001600160a01b03615ff961682b565b165f526014602052602060ff60405f2054166040519015158152f35b346105d95760403660031901126105d95761602e61682b565b602435906001600160a01b038080616045856179a6565b1692169180831461613a57803314908115616119575b50156160ae575f83815260066020526040902080546001600160a01b03191683179055616087836179a6565b167f8c5be1e5ebec7d5bd14f71427d1e84f3dd0314c0f7b2291e5b200ac8c7c3b9255f80a4005b60405162461bcd60e51b815260206004820152603d60248201527f4552433732313a20617070726f76652063616c6c6572206973206e6f7420746f60448201527f6b656e206f776e6572206f7220617070726f76656420666f7220616c6c0000006064820152608490fd5b90505f52600760205260405f20335f5260205260ff60405f2054168461605b565b60405162461bcd60e51b815260206004820152602160248201527f4552433732313a20617070726f76616c20746f2063757272656e74206f776e656044820152603960f91b6064820152608490fd5b346105d95760203660031901126105d9576020614e816004356171e6565b346105d9575f3660031901126105d9576040516002545f826161c883616a62565b91828252602093600190856001821691825f1461318c5750506001146161f5575061313b92500383616932565b84915060025f52815f20905f915b85831061621a57505061313b93508201018561312e565b80548389018501528794508693909201918101616203565b346105d9575f3660031901126105d957600880545f60015b82811115616466575061625c90617122565b905f9260015b82811115616278576040518061035886826167c8565b805f5260206015815260405f2090600f82015460ff926010908483831c1615806162b1575b5050505050506162ac9061708a565b616262565b60409a969a51956162c187616857565b8254875260018301546001600160a01b0316868801526040516162eb816103c78160028801616a9a565b6040880152604051616304816103c78160038801616a9a565b606088015260048301546080880152600583015460a088015260069461632b868501616ef2565b60c089015261633c60078501616ef2565b60e089015261634c8a8501616ef2565b610100890152604051616366816103c78160098901616a9a565b610120890152604051616380816103c781600a8901616a9a565b610140890152600b8401546101608901526040516163a5816103c781600c8901616a9a565b6101808901526040516163bf816103c781600d8901616a9a565b6101a0890152600e8401546101c089015281811615156101e0890152891c1615156102008701521561022086015201908154916163fb83616edb565b936164096040519586616932565b8385525f918252808220918186015b85821061644a5750505050505091816162ac9361024061643e9401526105318288617171565b9490868080808061629d565b848360019261645887617185565b815201940191019092616418565b805f52601560205260ff600f60405f20015460101c1615616490575b61648b9061708a565b61624a565b9061649d61648b9161708a565b919050616482565b346105d95760203660031901126105d95760043563ffffffff60e01b81168091036105d9576020906380ac58cd60e01b8114908115616502575b81156164f1575b506040519015158152f35b6301ffc9a760e01b149050826164e6565b635b5e139f60e01b811491506164df565b346105d95760203660031901126105d9576020906004355f52601d825260ff60405f20541615158152f35b91908251928382525f5b848110616568575050825f602080949584010152601f8019910116010190565b602081830181015184830182015201616548565b90808251908181526020809101926020808460051b8301019501935f915b8483106165aa5750505050505090565b90919293949584806165c8600193601f198682030187528a5161653e565b980193019301919493929061659a565b908082519081815260208091019281808460051b8301019501935f915b8483106166055750505050505090565b9091929394958480600192601f1985820301865289519061665260c083518352868060a01b038585015116858401526040808501519084015260609080828601519285015283019061653e565b9160808082015115159083015260a08091015191015298019301930191949392906165f5565b906167c59161677f61676b61674c6167386167246167106166fe6166d86166c68a60408b816102609282849351865260018060a01b03602082015116602087015201519301528c019061653e565b60608a01518b820360608d015261653e565b608089015160808b015260a089015160a08b015260c08901518a820360c08c015261657c565b60e088015189820360e08b015261657c565b6101008088015190898303908a015261657c565b61012080870151908883039089015261653e565b61014080860151908783039088015261653e565b610160808501519086015261018080850151908683039087015261653e565b6101a080840151908583039086015261653e565b916101c080830151908201526101e080830151151590820152610200808301511515908201526102208083015115159082015261024080920151918184039101526165d8565b90565b6020808201906020835283518092526040830192602060408460051b8301019501935f915b8483106167fd5750505050505090565b909192939495848061681b600193603f198682030187528a51616678565b98019301930191949392906167ed565b600435906001600160a01b03821682036105d957565b602435906001600160a01b03821682036105d957565b61026081019081106001600160401b038211176113ce57604052565b61010081019081106001600160401b038211176113ce57604052565b60e081019081106001600160401b038211176113ce57604052565b61014081019081106001600160401b038211176113ce57604052565b608081019081106001600160401b038211176113ce57604052565b60a081019081106001600160401b038211176113ce57604052565b60c081019081106001600160401b038211176113ce57604052565b602081019081106001600160401b038211176113ce57604052565b601f909101601f19168101906001600160401b038211908210176113ce57604052565b6001600160401b0381116113ce57601f01601f191660200190565b92919261697c82616955565b9161698a6040519384616932565b8294818452818301116105d9578281602093845f960137010152565b9080601f830112156105d9578160206167c593359101616970565b9181601f840112156105d9578235916001600160401b0383116105d957602083818601950101116105d957565b60609060031901126105d9576001600160a01b039060043582811681036105d9579160243590811681036105d9579060443590565b9060606003198301126105d95760043591602435906001600160401b0382116105d957616a52916004016169a6565b9060443580151581036105d95790565b90600182811c92168015616a90575b6020831014616a7c57565b634e487b7160e01b5f52602260045260245ffd5b91607f1691616a71565b80545f9392616aa882616a62565b918282526020936001916001811690815f14616b0c5750600114616ace575b5050505050565b90939495505f92919252835f2092845f945b838610616af857505050500101905f80808080616ac7565b805485870183015294019385908201616ae0565b60ff19168685015250505090151560051b010191505f80808080616ac7565b6167c59160e0616bc3616bb1616b9f616b8d616b7b616b69616b576101008a5190808b528a019061653e565b60208a015189820360208b015261653e565b604089015188820360408a015261653e565b6060880151878203606089015261653e565b6080870151868203608088015261653e565b60a086015185820360a087015261653e565b60c085015184820360c086015261653e565b9201519060e081840391015261653e565b6167c59160c0616c4b616c2f616c1d616c0b616bf9875160e0885260e088019061653e565b6020880151878203602089015261657c565b6040870151868203604088015261653e565b6060860151858203606087015261653e565b6080850151608085015260a085015184820360a086015261653e565b9201519060c081840391015261653e565b6020808201908083528351809252604092604081018260408560051b8401019601945f925b858410616c92575050505050505090565b909192939495968580616d2f600193603f198682030188528b51616d1b610140825184528583015186850152898301518a850152606080840151908501526080808401519085015260a08084015190898060a01b038092169086015260c09081850151169085015260e08084015115159085015261010090808285015192860152840190616b2b565b916101208092015191818403910152616bd4565b990194019401929594939190616c81565b9060c080616dab616d99616d87616d75616d63885160e0895260e089019061653e565b602089015188820360208a015261653e565b6040880151878203604089015261653e565b6060870151868203606088015261653e565b6080860151858203608087015261653e565b9360a081015160a08501520151151591015290565b906004821015611a1f5752565b8054821015616de2575f5260205f2001905f90565b634e487b7160e01b5f52603260045260245ffd5b8054821015616de2575f52601660205f20910201905f90565b90600760e0604093616ed7855191616e2683616873565b61062483978051616e3b816103c78187616a9a565b85528051616e50816103c78160018801616a9a565b60208601528051616e68816103c78160028801616a9a565b818601528051616e7f816103c78160038801616a9a565b60608601528051616e97816103c78160048801616a9a565b60808601528051616eaf816103c78160058801616a9a565b60a08601528051616ec7816103c78160068801616a9a565b60c0860152518096819301616a9a565b0152565b6001600160401b0381116113ce5760051b60200190565b908154616efe81616edb565b92604093616f0f6040519182616932565b82815280946020809201925f5260205f20905f935b858510616f3357505050505050565b60018481928451616f48816103c7818a616a9a565b815201930194019391616f24565b90600660c0604093616ed7855191616f6d8361688f565b61062483978051616f82816103c78187616a9a565b8552616f9060018401616ef2565b60208601528051616fa8816103c78160028801616a9a565b818601528051616fbf816103c78160038801616a9a565b6060860152600483015460808601528051616fe1816103c78160058801616a9a565b60a0860152518096819301616a9a565b989592936167c59a98946170489893969296610140978c5260208c015260408b015260608a0152608089015260018060a01b0380921660a08901521660c0870152151560e086015280610100860152840190616b2b565b91610120818403910152616bd4565b9081518082526020808093019301915f5b828110617076575050505090565b835185529381019392810192600101617068565b5f1981146113ba5760010190565b604051906170a582616857565b815f81525f602082015261024060609182604082015282808201525f60808201525f60a08201528260c08201528260e08201528261010082015282610120820152826101408201525f61016082015282610180820152826101a08201525f6101c08201525f6101e08201525f6102008201525f6102208201520152565b9061712c82616edb565b6171396040519182616932565b828152809261714a601f1991616edb565b01905f5b82811061715a57505050565b602090617165617098565b8282850101520161714e565b8051821015616de25760209160051b010190565b90604051617192816168fc565b60a06005829480548452600180841b036001820154166020850152600281015460408501526040516171cb816103c78160038601616a9a565b606085015260ff600482015416151560808501520154910152565b6171f261269182618f7c565b5f908152600660205260409020546001600160a01b031690565b1561721357565b60405162461bcd60e51b815260206004820152602560248201527f4f6e6c792076657269666965642073656c6c6572206f72206f776e657220616c6044820152641b1bddd95960da1b6064820152608490fd5b5f546001600160a01b039291908316331461731a57335f908152601e602052604090205483169283156172dc57835f52601260205260ff60405f205416906004821015611a1f576172cc9460026172c793149182156172ce575b505061720c565b617320565b565b9091505f5416145f806172c0565b9250601260205260ff60405f2054166004811015611a1f576172cc9360026172c7921490811561730d575b5061720c565b90505f541633145f617307565b6172cc92505b905f915f5b60018060a01b03808416805f52601b6020818152604092835f2080548710156175b557617353878992616df6565b505414617367575050505050600101617325565b8091929394969798505f5282825261738185855f20616df6565b509560ff60068098015460a01c1661757557815f5283835280876173a788885f20616df6565b500154163314908115617567575b501561751057906173cd949392915f52525f20616df6565b5001805460ff60a01b1916600160a01b17905560015b156174d657805f526020601560205260018060a01b036001604082600160405f20015416825f905b617434575b505050505f8051602061909e833981519152915060209060405194600186521693a3565b815f52601c80875287845f2080548410156174ce578361745391616df6565b505414806174ab575b617469575083018361740b565b6020959450926006935f8051602061909e8339815191529761748f945f52525f20616df6565b5001805460ff60a01b1916600160a01b179055905f8080617410565b50825f528087528560056174c184875f20616df6565b50015416868a161461745c565b505050617410565b60405162461bcd60e51b8152602060048201526012602482015271141d5c98da185cd9481b9bdd08199bdd5b9960721b6044820152606490fd5b835162461bcd60e51b815260048101839052602a60248201527f4f6e6c792073656c6c6572206f72206f776e65722063616e206d61726b2061736044820152690819195b1a5d995c995960b21b6064820152608490fd5b905033905f5416145f6173b5565b6064838587519162461bcd60e51b8352600483015260248201527a105b1c9958591e481b585c9ad95908185cc819195b1a5d995c9959602a1b6044820152fd5b5050505050505090916173e3565b604051906175d0826168fc565b5f60a0838281528260208201528260408201526060808201528260808201520152565b9060ff801983541691151516179055565b8054821015616de2575f52600660205f20910201905f90565b818110617628575050565b5f815560010161761d565b9190601f811161764257505050565b6172cc925f5260205f20906020601f840160051c8301931061766c575b601f0160051c019061761d565b909150819061765f565b8160011b915f199060031b1c19161790565b81518155602080830151600180840180546001600160a01b0319166001600160a01b0393909316929092179091556040840151600284015560608401518051939493600386019390929091906001600160401b0384116113ce576176f084613b5d8754616a62565b602092601f8511600114617742575050826005959360a0959361771a935f92617737575050617676565b90555b61773060808201511515600486016175f3565b0151910155565b015190505f80610fff565b5f86815260208120949392601f19871692905b838310617798575050509260019285926005989660a0989610617780575b505050811b01905561771d565b01515f1960f88460031b161c191690555f8080617773565b848601518755958601959481019491810191617755565b156177b657565b60405162461bcd60e51b815260206004820152601a60248201527914dd5898d85d1959dbdc9e48191bd95cc81b9bdd08195e1a5cdd60321b6044820152606490fd5b818102929181159184041417156113ba57565b919082039182116113ba57565b1561781f57565b60405162461bcd60e51b815260206004820152602d60248201527f4552433732313a2063616c6c6572206973206e6f7420746f6b656e206f776e6560448201526c1c881bdc88185c1c1c9bdd9959609a1b6064820152608490fd5b1561788157565b606460405162461bcd60e51b815260206004820152602060248201527f53756263617465676f7279206e616d652063616e6e6f7420626520656d7074796044820152fd5b906178dd60209194939460408452604084019061653e565b931515910152565b604051906178f28261688f565b5f60c0836060808252806020830152806040830152808083015260808201528260a08201520152565b1561792257565b60405162461bcd60e51b815260206004820152601560248201527414d95b1b195c881b9bdd081c9959da5cdd195c9959605a1b6044820152606490fd5b1561796657565b60405162461bcd60e51b8152602060048201526018602482015277115490cdcc8c4e881a5b9d985b1a59081d1bdad95b88125160421b6044820152606490fd5b5f908152600460205260409020546001600160a01b03166167c581151561795f565b156179cf57565b60405162461bcd60e51b815260206004820152601760248201527610d85d1959dbdc9e48191bd95cc81b9bdd08195e1a5cdd604a1b6044820152606490fd5b15617a1557565b60405162461bcd60e51b815260206004820152601d60248201527f43617465676f7279206e616d652063616e6e6f7420626520656d7074790000006044820152606490fd5b8054600160401b8110156113ce57617a7791600182018155616dcd565b819291549060031b91821b915f19901b1916179055565b15617a9557565b60405162461bcd60e51b815260206004820152600f60248201526e496e76616c6964206164647265737360881b6044820152606490fd5b15617ad357565b60405162461bcd60e51b8152602060048201526016602482015275141c9bd91d58dd08191bd95cc81b9bdd08195e1a5cdd60521b6044820152606490fd5b15617b1857565b60405162461bcd60e51b8152602060048201526012602482015271141c9bd91d58dd081a5cc819195b195d195960721b6044820152606490fd5b903590601e19813603018212156105d957018035906001600160401b0382116105d9576020019181360383136105d957565b15617b8b57565b60405162461bcd60e51b81526020600482015260146024820152734e616d652063616e6e6f7420626520656d70747960601b6044820152606490fd5b15617bce57565b60405162461bcd60e51b815260206004820152601b60248201527a4465736372697074696f6e2063616e6e6f7420626520656d70747960281b6044820152606490fd5b15617c1857565b60405162461bcd60e51b815260206004820152601c60248201527b05072696365206d7573742062652067726561746572207468616e20360241b6044820152606490fd5b15617c6357565b60405162461bcd60e51b815260206004820152601c60248201527b053746f636b206d7573742062652067726561746572207468616e20360241b6044820152606490fd5b903590601e19813603018212156105d957018035906001600160401b0382116105d957602001918160051b360383136105d957565b15617ce357565b60405162461bcd60e51b8152602060048201526016602482015275436f6c6f72732063616e6e6f7420626520656d70747960501b6044820152606490fd5b15617d2857565b60405162461bcd60e51b8152602060048201526016602482015275496d616765732063616e6e6f7420626520656d70747960501b6044820152606490fd5b15617d6d57565b60405162461bcd60e51b815260206004820152601c60248201527b496d616765732063616e6e6f74206265206d6f7265207468616e203560201b6044820152606490fd5b15617db857565b60405162461bcd60e51b815260206004820152601d60248201527f576569676874206d7573742062652067726561746572207468616e20300000006044820152606490fd5b15617e0457565b60405162461bcd60e51b815260206004820152601a6024820152790534b55206d7573742062652067726561746572207468616e20360341b6044820152606490fd5b617e508154616a62565b9081617e5a575050565b81601f5f9311600114617e6b575055565b908083918252617e8a601f60208420940160051c84016001850161761d565b5555565b90600160401b81116113ce57815491818155828210617eac57505050565b5f5260205f2091820191015b818110617ec3575050565b80617ecf600192617e46565b01617eb8565b90808214617fa157617ee78154616a62565b906001600160401b0382116113ce57617f0482611b088554616a62565b5f90601f8311600114617f3357617f2492915f9183617f28575050617676565b9055565b015490505f80610fff565b90601f198316915f5260209160205f2090855f5260205f20935f905b828210617f88575050908460019594939210617f70575b505050811b019055565b01545f1960f88460031b161c191690555f8080617f66565b8495819295850154815560018091019601940190617f4f565b5050565b90604051918281549182825260209260208301915f5260205f20935f905b828210617fd9575050506172cc92500383616932565b855484526001958601958895509381019390910190617fc3565b906180179392916180076157e88433618c48565b618012838383618d0c565b618f98565b1561801e57565b60405162461bcd60e51b81528061803760048201618ede565b0390fd5b90821015616de2576180529160051b810190617b52565b9091565b5f5b82811061806457505050565b606082820152602001618058565b9291909261807f84616edb565b9161808d6040519384616932565b829480845260208094019060051b8301928284116105d95780915b8483106180b757505050505050565b82356001600160401b0381116105d95786916180d686849386016169a6565b8152019201916180a8565b6001600160a01b03908116908115618114575f5416811461810e575f52601260205260ff60405f20541690565b50600290565b60405162461bcd60e51b8152602060048201526016602482015275496e76616c69642073656c6c6572206164647265737360501b6044820152606490fd5b5f546001600160a01b0316330361816557565b606460405162461bcd60e51b815260206004820152602060248201527f4f776e61626c653a2063616c6c6572206973206e6f7420746865206f776e65726044820152fd5b6002600154146181ba576002600155565b60405162461bcd60e51b815260206004820152601f60248201527f5265656e7472616e637947756172643a207265656e7472616e742063616c6c006044820152606490fd5b8054600160401b8110156113ce5761821e906001928382018155616df6565b919091618c35578251825560208084015182840155604084015160028401556060840151600380850191909155608085015160048086019190915560a0808701516005870180546001600160a01b0319166001600160a01b0392831617905560c088015160068801805460e08b01516001600160a81b0319909116929093169190911791151590921b60ff60a01b161790556101008601518051805190966001600160401b039693959394929091600783019088811161874d576182e68161379e8454616a62565b85601f9a8b8311600114618bd85761830792915f9183617737575050617676565b90555b60088201848201518051908982116189f45761832a82611b088554616a62565b86908b8311600114618b7b5761834992915f9183617737575050617676565b90555b6009820160408201518051908982116189f45761836d82611b088554616a62565b86908b8311600114618b1e5761838c92915f9183617737575050617676565b90555b600a820160608201518051908982116189f4576183b082611b088554616a62565b86908b8311600114618ac1576183cf92915f9183617737575050617676565b90555b600b820160808201518051908982116189f4576183f382611b088554616a62565b86908b8311600114618a645761841292915f9183617737575050617676565b90555b600c820160a08201518051908982116189f45761843682611b088554616a62565b86908b8311600114618a075761845592915f9183617737575050617676565b90555b600d820160c08201518051908982116189f45761847982611b088554616a62565b86908b83116001146189975761849892915f9183617737575050617676565b90555b60e001518051600e83019188821161874d576184bb82611b088554616a62565b85908a831160011461893a576184da92915f9183617737575050617676565b90555b610120600f820198015197885180519088821161874d5761850282611b088554616a62565b85908a83116001146188dd5761852192915f9183617737575050617676565b90555b6010810183890151908482519261853b8484617e8e565b01905f52845f205f915b83831061881a575050505060118101604089015180519088821161874d5761857182611b088554616a62565b85908a83116001146187bd5761859092915f9183617737575050617676565b90555b60128101606089015180519088821161874d576185b482611b088554616a62565b85908a8311600114618760576185d392915f9183617737575050617676565b90555b608088015160138201556014810160a089015180519088821161874d5761860182611b088554616a62565b85908a83116001146186e4578260c0959360159593618627935f92617737575050617676565b90555b019701519384519586116186d1575061864d856186478954616a62565b89617633565b8195851160011461866e57505050617f249282915f92617737575050617676565b9194909284601f198116885f52855f20955f905b898383106186b7575050501061869e575b50505050811b019055565b01519060f8845f19921b161c191690555f808080618693565b858701518955909701969485019488935090810190618682565b604190634e487b7160e01b5f525260245ffd5b879291601f19831691855f52885f20925f5b8a8282106187375750509160c09795939185601598969410618720575b505050811b01905561862a565b01515f19838a1b60f8161c191690555f8080618713565b8385015186558c979095019493840193016186f6565b604188634e487b7160e01b5f525260245ffd5b879291601f19831691855f52885f20925f5b8a8282106187a75750508411618790575b505050811b0190556185d6565b01515f1983881b60f8161c191690555f8080618783565b8385015186558c97909501949384019301618772565b879291601f19831691855f52885f20925f5b8a82821061880457505084116187ed575b505050811b019055618593565b01515f1983881b60f8161c191690555f80806187e0565b8385015186558c979095019493840193016187cf565b80518051908b82116188ca578c92828a9261883a8d956186478954616a62565b83958211600114618869579080859661885a935f92617737575050617676565b85555b01920192019190618545565b94601f19821690875f52845f20915f5b8181106188b3575090869784889594931061889c575b505050811b01855561885d565b01515f19838e1b60f8161c191690555f808061888f565b8289015184558f978f979401939283019201618879565b60418b634e487b7160e01b5f525260245ffd5b879291601f19831691855f52885f20925f5b8a828210618924575050841161890d575b505050811b019055618524565b01515f1983881b60f8161c191690555f8080618900565b8385015186558c979095019493840193016188ef565b879291601f19831691855f52885f20925f5b8a828210618981575050841161896a575b505050811b0190556184dd565b01515f1983881b60f8161c191690555f808061895d565b8385015186558c9790950194938401930161894c565b889291601f19831691855f52895f20925f5b8b8282106189de57505084116189c7575b505050811b01905561849b565b01515f1983891b60f8161c191690555f80806189ba565b8385015186558d979095019493840193016189a9565b604189634e487b7160e01b5f525260245ffd5b889291601f19831691855f52895f20925f5b8b828210618a4e5750508411618a37575b505050811b019055618458565b01515f1983891b60f8161c191690555f8080618a2a565b8385015186558d97909501949384019301618a19565b889291601f19831691855f52895f20925f5b8b828210618aab5750508411618a94575b505050811b019055618415565b01515f1983891b60f8161c191690555f8080618a87565b8385015186558d97909501949384019301618a76565b889291601f19831691855f52895f20925f5b8b828210618b085750508411618af1575b505050811b0190556183d2565b01515f1983891b60f8161c191690555f8080618ae4565b8385015186558d97909501949384019301618ad3565b889291601f19831691855f52895f20925f5b8b828210618b655750508411618b4e575b505050811b01905561838f565b01515f1983891b60f8161c191690555f8080618b41565b8385015186558d97909501949384019301618b30565b889291601f19831691855f52895f20925f5b8b828210618bc25750508411618bab575b505050811b01905561834c565b01515f1983891b60f8161c191690555f8080618b9e565b8385015186558d97909501949384019301618b8d565b889291601f19831691855f52895f20925f5b8b828210618c1f5750508411618c08575b505050811b01905561830a565b01515f1983891b60f8161c191690555f8080618bfb565b8385015186558d97909501949384019301618bea565b634e487b7160e01b5f525f60045260245ffd5b906001600160a01b038080618c5c846179a6565b16931691838314938415618c8f575b508315618c79575b50505090565b618c85919293506171e6565b16145f8080618c73565b9093505f52600760205260405f20825f5260205260ff60405f205416925f618c6b565b15618cb957565b60405162461bcd60e51b815260206004820152602560248201527f4552433732313a207472616e736665722066726f6d20696e636f72726563742060448201526437bbb732b960d91b6064820152608490fd5b90618d3491618d1a846179a6565b6001600160a01b0393918416928492909183168414618cb2565b16918215618db45781618d5191618d4a866179a6565b1614618cb2565b825f52600660205260405f2060018060a01b031990818154169055815f52600560205260405f205f198154019055825f5260405f2060018154019055835f5260046020528260405f20918254161790555f8051602061911e8339815191525f80a4565b60405162461bcd60e51b8152602060048201526024808201527f4552433732313a207472616e7366657220746f20746865207a65726f206164646044820152637265737360e01b6064820152608490fd5b3d15618e2f573d90618e1682616955565b91618e246040519384616932565b82523d5f602084013e565b606090565b5f918291829182916001600160a01b0316618e50811515617a8e565b5af1618e5a618e05565b5015618e6257565b60405162461bcd60e51b815260206004820152600f60248201526e151c985b9cd9995c8819985a5b1959608a1b6044820152606490fd5b5f90600e8054925b838110618eb057505050505f90565b5f828152602090208101546001600160a01b03848116911614618ed557600101618ea1565b50505050600190565b60809060208152603260208201527f4552433732313a207472616e7366657220746f206e6f6e20455243373231526560408201527131b2b4bb32b91034b6b83632b6b2b73a32b960711b60608201520190565b15618f3857565b60405162461bcd60e51b815260206004820152601c60248201527b115490cdcc8c4e881d1bdad95b88185b1c9958591e481b5a5b9d195960221b6044820152606490fd5b5f908152600460205260409020546001600160a01b0316151590565b92909190823b15618ed557618fea926020925f60018060a01b0360405180978196829584630a85bd0160e11b9c8d8652336004870152166024850152604484015260806064840152608483019061653e565b0393165af15f9181619038575b5061902a57619004618e05565b805190816190255760405162461bcd60e51b81528061803760048201618ede565b602001fd5b6001600160e01b0319161490565b9091506020813d602011619075575b8161905460209383616932565b810103126105d957516001600160e01b0319811681036105d957905f618ff7565b3d915061904756fe32b449308c94e824ccedd9877932cd82f89a481c06c4643a0cb2914454a8c582f9dc8543b583e01f592678422369b2777e3649761f5808ae432cb1c24ca9438c79d3150b1760cd391f5006c9543aea088e4c9060f3e582ea0a948dc6649b25da8be0079c531659141344cd1fd0a4f28419497f9722a3daafe3b4186f6b6457e0d8f7bcb2c5cffc294a0aaef719685993d7be95273fb8254803a1563510ccefedddf252ad1be2c89b69c2b068fc378daa952ba7f163c4a11628f55a4df523b3ef5a8a989e12f3ce7cf805b73156a361da5d8369f0c37173209308910b322117ac4cfca6396923c3eee68be58aa35fd6623ae5d67bb552da5e1de2e0d5854166dca164736f6c6343000818000a",
  "linkReferences": {},
  "deployedLinkReferences": {}
}