{
  "_format": "hh-sol-artifact-1",
  "contractName": "CryptoMartFactory",
  "sourceName": "contracts/CryptoMartFactory.sol",
  "abi": [
    {
      "inputs": [],
      "stateMutability": "nonpayable",
      "type": "constructor"
    },
    {
      "anonymous": false,
      "inputs": [
        {
          "indexed": false,
          "internalType": "string",
          "name": "contractType",
          "type": "string"
        },
        {
          "indexed": false,
          "internalType": "address",
          "name": "oldAddress",
          "type": "address"
        },
        {
          "indexed": false,
          "internalType": "address",
          "name": "newAddress",
          "type": "address"
        }
      ],
      "name": "ContractUpgraded",
      "type": "event"
    },
    {
      "anonymous": false,
      "inputs": [
        {
          "indexed": true,
          "internalType": "address",
          "name": "storage_",
          "type": "address"
        },
        {
          "indexed": true,
          "internalType": "address",
          "name": "core",
          "type": "address"
        },
        {
          "indexed": true,
          "internalType": "address",
          "name": "transactions",
          "type": "address"
        },
        {
          "indexed": false,
          "internalType": "uint256",
          "name": "timestamp",
          "type": "uint256"
        }
      ],
      "name": "CryptoMartDeployed",
      "type": "event"
    },
    {
      "anonymous": false,
      "inputs": [
        {
          "indexed": true,
          "internalType": "address",
          "name": "previousOwner",
          "type": "address"
        },
        {
          "indexed": true,
          "internalType": "address",
          "name": "newOwner",
          "type": "address"
        }
      ],
      "name": "OwnershipTransferred",
      "type": "event"
    },
    {
      "inputs": [
        {
          "internalType": "uint256",
          "name": "newPct",
          "type": "uint256"
        }
      ],
      "name": "changeServiceFee",
      "outputs": [],
      "stateMutability": "nonpayable",
      "type": "function"
    },
    {
      "inputs": [],
      "name": "coreContract",
      "outputs": [
        {
          "internalType": "contract CryptoMartCore",
          "name": "",
          "type": "address"
        }
      ],
      "stateMutability": "view",
      "type": "function"
    },
    {
      "inputs": [
        {
          "internalType": "uint256",
          "name": "servicePct",
          "type": "uint256"
        }
      ],
      "name": "deployFullSystem",
      "outputs": [],
      "stateMutability": "nonpayable",
      "type": "function"
    },
    {
      "inputs": [],
      "name": "deploymentTimestamp",
      "outputs": [
        {
          "internalType": "uint256",
          "name": "",
          "type": "uint256"
        }
      ],
      "stateMutability": "view",
      "type": "function"
    },
    {
      "inputs": [],
      "name": "emergencyPause",
      "outputs": [],
      "stateMutability": "nonpayable",
      "type": "function"
    },
    {
      "inputs": [],
      "name": "getContractAddresses",
      "outputs": [
        {
          "internalType": "address",
          "name": "storage_",
          "type": "address"
        },
        {
          "internalType": "address",
          "name": "core",
          "type": "address"
        },
        {
          "internalType": "address",
          "name": "transactions",
          "type": "address"
        }
      ],
      "stateMutability": "view",
      "type": "function"
    },
    {
      "inputs": [],
      "name": "getDeploymentInfo",
      "outputs": [
        {
          "internalType": "bool",
          "name": "deployed",
          "type": "bool"
        },
        {
          "internalType": "uint256",
          "name": "timestamp",
          "type": "uint256"
        },
        {
          "internalType": "string",
          "name": "version",
          "type": "string"
        }
      ],
      "stateMutability": "view",
      "type": "function"
    },
    {
      "inputs": [],
      "name": "getSystemStats",
      "outputs": [
        {
          "internalType": "uint256",
          "name": "totalProducts",
          "type": "uint256"
        },
        {
          "internalType": "uint256",
          "name": "totalSales",
          "type": "uint256"
        },
        {
          "internalType": "uint256",
          "name": "totalCategories",
          "type": "uint256"
        },
        {
          "internalType": "uint256",
          "name": "serviceFee",
          "type": "uint256"
        }
      ],
      "stateMutability": "view",
      "type": "function"
    },
    {
      "inputs": [],
      "name": "isDeployed",
      "outputs": [
        {
          "internalType": "bool",
          "name": "",
          "type": "bool"
        }
      ],
      "stateMutability": "view",
      "type": "function"
    },
    {
      "inputs": [],
      "name": "owner",
      "outputs": [
        {
          "internalType": "address",
          "name": "",
          "type": "address"
        }
      ],
      "stateMutability": "view",
      "type": "function"
    },
    {
      "inputs": [],
      "name": "renounceOwnership",
      "outputs": [],
      "stateMutability": "nonpayable",
      "type": "function"
    },
    {
      "inputs": [],
      "name": "resumeFromPause",
      "outputs": [],
      "stateMutability": "nonpayable",
      "type": "function"
    },
    {
      "inputs": [],
      "name": "storageContract",
      "outputs": [
        {
          "internalType": "contract CryptoMartStorage",
          "name": "",
          "type": "address"
        }
      ],
      "stateMutability": "view",
      "type": "function"
    },
    {
      "inputs": [],
      "name": "transactionsContract",
      "outputs": [
        {
          "internalType": "contract CryptoMartTransactions",
          "name": "",
          "type": "address"
        }
      ],
      "stateMutability": "view",
      "type": "function"
    },
    {
      "inputs": [
        {
          "internalType": "address",
          "name": "newOwner",
          "type": "address"
        }
      ],
      "name": "transferOwnership",
      "outputs": [],
      "stateMutability": "nonpayable",
      "type": "function"
    },
    {
      "inputs": [
        {
          "internalType": "address",
          "name": "newCoreContract",
          "type": "address"
        }
      ],
      "name": "upgradeCoreContract",
      "outputs": [],
      "stateMutability": "nonpayable",
      "type": "function"
    },
    {
      "inputs": [
        {
          "internalType": "address",
          "name": "newTransactionsContract",
          "type": "address"
        }
      ],
      "name": "upgradeTransactionsContract",
      "outputs": [],
      "stateMutability": "nonpayable",
      "type": "function"
    },
    {
      "inputs": [],
      "name": "withdrawServiceFees",
      "outputs": [],
      "stateMutability": "nonpayable",
      "type": "function"
    },
    {
      "stateMutability": "payable",
      "type": "receive"
    }
  ],
  "bytecode": "0x60808060405234610067575f8054336001600160a01b0319821681178355916001600160a01b03909116907f8be0079c531659141344cd1fd0a4f28419497f9722a3daafe3b4186f6b6457e09080a36003805460ff60a01b1916905561a3de908161006c8239f35b5f80fdfe608060408181526004908136101562000023575b505050361562000021575f80fd5b005b5f925f3560e01c90816311ce02671462001014575080632c98e25d1462000f3d5783816351858e271462000e6857508063715018a61462000e1d57806374d8d8d21462000a505780637f2d7b2f14620008e25780638a1a866714620007815780638da5cb5b1462000757578063953874d21462000719578063aeefffad1462000658578063bfc12c051462000638578063c52046de146200060f578063d1ce59a7146200042e578063d3e256bf146200035b578063d72e481d146200021e578063e17f94c014620001f3578063e80db5db14620001c45763f2fde38b03620000135734620001c0576020366003190112620001c0576001600160a01b03823581811693919290849003620001bc576200013b62001107565b83156200016a5750505f548260018060a01b03198216175f55165f805160206200a3928339815191525f80a380f35b906020608492519162461bcd60e51b8352820152602660248201527f4f776e61626c653a206e6577206f776e657220697320746865207a65726f206160448201526564647265737360d01b6064820152fd5b8480fd5b8280fd5b838234620001ef5781600319360112620001ef5760025490516001600160a01b039091168152602090f35b5080fd5b838234620001ef5781600319360112620001ef5760035490516001600160a01b039091168152602090f35b5034620001c05782600319360112620001c0576200023b62001107565b6200024e60ff60035460a01c1662001039565b60025483906001600160a01b03908116803b15620001c0578280918686518094819363d72e481d60e01b83525af18015620003515790839162000339575b5050478062000299578280f35b8280929181928254165af13d1562000333573d6001600160401b0381116200032057825190620002d4601f8201601f191660200183620010a4565b81528460203d92013e5b15620002eb578281808280f35b906020606492519162461bcd60e51b8352820152600f60248201526e151c985b9cd9995c8819985a5b1959608a1b6044820152fd5b604184634e487b7160e01b5f525260245ffd5b620002de565b62000344906200107c565b620001ef57815f6200028c565b84513d85823e3d90fd5b50919034620001ef576020366003190112620001ef578035906200037e62001107565b6200039160ff60035460a01c1662001039565b600a8211620003fc5792829360018060a01b036002541692833b15620001bc57602485928385519687948593635be2095960e01b85528401525af1908115620003f35750620003dd5750f35b620003e8906200107c565b620003f05780f35b80fd5b513d84823e3d90fd5b606490602085519162461bcd60e51b8352820152600c60248201526b08ccaca40e8dede40d0d2ced60a31b6044820152fd5b508234620003f05780600319360112620003f0576200045560ff60035460a01c1662001039565b6001548251639b9d326d60e01b8152926001600160a01b0390911690602080858781865afa94851562000605578495620005d0575b508151633302ffb360e11b81529080828881875afa918215620005c657859262000591575b508251620d893f60e61b81529381858981845afa9485156200058757869562000552575b50819084519889809263700f7b7360e11b82525afa9485156200054757946200050d575b6080965082519586528501528301526060820152f35b80945086813d83116200053f575b620005278183620010a4565b810103126200053b576080955193620004f7565b5f80fd5b503d6200051b565b8351903d90823e3d90fd5b9094508181813d83116200057f575b6200056d8183620010a4565b810103126200053b57519381620004d3565b503d62000561565b84513d88823e3d90fd5b9080925081813d8311620005be575b620005ac8183620010a4565b810103126200053b57519087620004af565b503d620005a0565b83513d87823e3d90fd5b9080955081813d8311620005fd575b620005eb8183620010a4565b810103126200053b575193866200048a565b503d620005df565b82513d86823e3d90fd5b838234620001ef5781600319360112620001ef5760209060ff60035460a01c1690519015158152f35b509034620001c05782600319360112620001c05760209250549051908152f35b509134620003f05780600319360112620003f05760ff60035460a01c16928254908051938185019085821060018060401b03831117620007065750819295939152600584526060602092640312e302e360dc1b60208701528051968795151586526020860152840152835191826060850152815b838110620006ee57505060808094508284010152601f80199101168101030190f35b808601820151878201608001528694508101620006cc565b604190634e487b7160e01b5f525260245ffd5b838234620001ef5781600319360112620001ef5760609060018060a01b03806001541691816002541691600354169181519384526020840152820152f35b838234620001ef5781600319360112620001ef57905490516001600160a01b039091168152602090f35b509034620001c0576020366003190112620001c05780356001600160a01b0381811691829003620001bc57620007b662001107565b620007c960ff60035460a01c1662001039565b620007d6821515620010c8565b848160025416918060015416803b15620001c057828091602489518094819363e6b165ed60e01b8352898c8401525af1908115620008d8578391620008c0575b505060015416803b15620001ef5781809160248851809481936398eaa4a760e01b8352898b8401525af18015620008b65762000898575b5092828560a0935f805160206200a3b283398151915295600180871b0319600254161760025581519360608552606085015263436f726560e01b60808501526020840152820152a180f35b620008a790949392946200107c565b620001bc579091845f6200084d565b86513d84823e3d90fd5b620008cb906200107c565b620001ef57815f62000816565b87513d85823e3d90fd5b509034620001c0576020366003190112620001c0576001600160a01b0381358181169391928591859003620001ef576200091b62001107565b836003546200093060ff8260a01c1662001039565b6200093d871515620010c8565b16938060015416803b1562000a2057838091602487518094819363e6b165ed60e01b83528b898401525af1801562000a465790849162000a2e575b50506001541690813b15620001c057856024849283875195869485936398eaa4a760e01b85528401525af1801562000a245762000a04575b505f805160206200a3b283398151915260a084868581600180861b0319600354161760035580519260608452600c60608501526b5472616e73616374696f6e7360a01b60808501526020840152820152a180f35b62000a12909392936200107c565b62000a205790835f620009b0565b8380fd5b83513d84823e3d90fd5b62000a39906200107c565b620001c057825f62000978565b85513d86823e3d90fd5b5034620001c0576020918260031936011262000a2057803562000a7262001107565b60039360ff855460a01c1662000de157600a821162000da85783516001600160401b039261376280830191908583118484101762000d95579183918593620052028439815203019087f09283156200058757600180546001600160a01b03198082166001600160a01b03978816908117845588519396919391926140a28084019291908584118585101762000d7857918d8994928694620011608639161781520301908af0801562000d8b578616906002549180848416176002558787541692895193611a2e808601948686109086111762000d78578b94928694928f92620089648739845216178782015203019089f0801562000d6e578516908754161786558684845416856002541690803b15620001c05782809160248a51809481936398eaa4a760e01b978884528a8401525af1801562000d1c5790839162000d56575b5050858554169086895416823b1562000a205760248492838b5195869485938452898401525af1801562000cfa5762000d3e575b5084845416803b15620001ef57865182816024818363f2fde38b60e01b96878352308a8401525af1801562000d1c5790839162000d26575b50508560025416803b15620001c05782809160248a5180948193878352308a8401525af1801562000d1c5790839162000d04575b50508588541690813b15620001c0578291602483928a519485938492835230898401525af1801562000cfa57908693929162000cd9575b5050927f1d64078387d93c1043a09e9e13d28f145139c5295428537e00e5f6628896f75893875497600160a01b60ff60a01b198a1617905542905554169280600254169451954287521694a480f35b62000ce7919293506200107c565b62000cf6578390875f62000c8a565b8680fd5b87513d84823e3d90fd5b62000d0f906200107c565b620001ef57815f62000c53565b88513d85823e3d90fd5b62000d31906200107c565b620001ef57815f62000c1f565b62000d49906200107c565b62000cf657865f62000be7565b62000d61906200107c565b620001ef57815f62000bb3565b86513d8a823e3d90fd5b634e487b7160e01b8e526041885260248efd5b87513d8b823e3d90fd5b634e487b7160e01b8a526041875260248afd5b9050606492519162461bcd60e51b835282015260146024820152730a6cae4ecd2c6ca40cccaca40e8dede40d0d2ced60631b6044820152fd5b9050606492519162461bcd60e51b8352820152601760248201527614de5cdd195b48185b1c9958591e4819195c1b1bde5959604a1b6044820152fd5b8334620003f05780600319360112620003f05762000e3a62001107565b5f80546001600160a01b0319811682556001600160a01b03165f805160206200a3928339815191528280a380f35b8084843462000f39578260031936011262000f395762000e8762001107565b62000e9a60ff60035460a01c1662001039565b6001546002546001600160a01b0393908416918416803b1562000f1d57858091602486518094819363e6b165ed60e01b98898452888401525af18015620005875790869162000f21575b505060015460035485169416803b1562000f1d578592836024928651978895869485528401525af1908115620003f35750620003dd5750f35b8580fd5b62000f2c906200107c565b620001bc57848762000ee4565b5050fd5b508290346200053b575f3660031901126200053b5762000f5c62001107565b62000f6f60ff60035460a01c1662001039565b6001546002546001600160a01b03908116949092918316803b156200053b575f809160248551809481936398eaa4a760e01b9b8c8452888401525af180156200100a5762000ff4575b509383948360015416936003541693803b1562000f1d578592836024928651978895869485528401525af1908115620003f35750620003dd5750f35b620010019194506200107c565b5f928562000fb8565b83513d5f823e3d90fd5b346200053b575f3660031901126200053b576001546001600160a01b03168152602090f35b156200104157565b60405162461bcd60e51b815260206004820152601360248201527214de5cdd195b481b9bdd0819195c1b1bde5959606a1b6044820152606490fd5b6001600160401b0381116200109057604052565b634e487b7160e01b5f52604160045260245ffd5b601f909101601f19168101906001600160401b038211908210176200109057604052565b15620010d057565b60405162461bcd60e51b815260206004820152600f60248201526e496e76616c6964206164647265737360881b6044820152606490fd5b5f546001600160a01b031633036200111b57565b606460405162461bcd60e51b815260206004820152602060248201527f4f776e61626c653a2063616c6c6572206973206e6f7420746865206f776e65726044820152fdfe60a0346200040757601f90601f196001600160401b03620040a238819003858101841685018381118682101762000326578592829160405283396020948591810103126200040757516001600160a01b038082169590918690036200040757620000686200040b565b91600a83526910dc9e5c1d1bd3585c9d60b21b86840152620000896200040b565b600581526410d350549560da1b878201525f8054336001600160a01b0319821681178355929316907f8be0079c531659141344cd1fd0a4f28419497f9722a3daafe3b4186f6b6457e09080a36001928380558051908582116200032657600254908582811c92168015620003fc575b8983101462000307578185849311620003a8575b50889085831160011462000346575f926200033a575b50505f19600383901b1c191690841b176002555b8051938411620003265760039586548481811c911680156200031b575b828210146200030757838111620002bf575b50809285116001146200025b5750839450908392915f946200024f575b50501b915f1990841b1c19161790555b608052604051613c7690816200042c823960805181818161021f015281816103670152818161052e015281816106320152818161075a015281816108f701528181610bdf01528181610d9e015281816110dc015281816112f401528181611772015281816118ee01528181611b5601528181611f51015281816120710152818161213f0152818161229f0152818161236b015281816124280152818161267001528181612757015281816127b501528181612a740152612f330152f35b015192505f8062000182565b929484908116875f52845f20945f905b88838310620002a457505050106200028c575b505050811b01905562000192565b01515f1983861b60f8161c191690555f80806200027e565b8587015188559096019594850194879350908101906200026b565b875f52815f208480880160051c820192848910620002fd575b0160051c019085905b828110620002f157505062000165565b5f8155018590620002e1565b92508192620002d8565b634e487b7160e01b5f52602260045260245ffd5b90607f169062000153565b634e487b7160e01b5f52604160045260245ffd5b015190505f8062000122565b90888794169160025f528a5f20925f5b8c82821062000391575050841162000378575b505050811b0160025562000136565b01515f1960f88460031b161c191690555f808062000369565b8385015186558a9790950194938401930162000356565b90915060025f52885f208580850160051c8201928b8610620003f2575b918891869594930160051c01915b828110620003e35750506200010c565b5f8155859450889101620003d3565b92508192620003c5565b91607f1691620000f8565b5f80fd5b60408051919082016001600160401b03811183821017620003265760405256fe60806040818152600480361015610020575b505050361561001e575f80fd5b005b5f925f3560e01c90816301ffc9a714612c445750806302ee3a5214612a5457806306fdde0314612972578063081812fc14612953578063095ea7b3146127e457806311ce0267146127a15780632156a96c1461273057806323b872dd1461270757806342842e0e146126df5780634293e5ce146126255780634e213d20146123ec578063570aea8a146123435780635ad6a580146118af5780635be20959146122725780636352211e1461224157806366224d8e146120de5780636f68ef3a1461204b5780636f77926b14611eef57806370a0823114611e59578063715018a614611e135780637e8555ed14611aab5780638da5cb5b14611a8357806395d89b411461199857806397b6f393146118b45780639b269b8f146118af578063a22cb465146117e8578063a323d29e14611727578063a9ab7af21461126f578063b88d4fde1461120c578063b9db15b4146110a8578063c87b56dd14610e9f57838163ceca737f14610d6b57508063d637dcfa14610b67578063d72e481d14610aab578063dadd0a57146108d5578063dc29868214610708578063e6a93e16146105f5578063e985e9c5146105a7578063eb11c434146104eb578063f2fde38b1461043d578063f3052d26146103365763fdca4ca303610011573461033257826003193601126103325781516373549f0b60e11b81523382820152916024917f00000000000000000000000000000000000000000000000000000000000000006001600160a01b03169085858581855afa948515610328578695610304575b5061026885516131ed565b93865b86518110156102f35761027e81886133a0565b51855190632e76c56d60e21b82528482015288818481885afa9081156102e95790600192918a916102c7575b506102b582896133a0565b526102c081886133a0565b500161026b565b6102e391503d808c833e6102db818361306a565b8101906132c1565b5f6102aa565b86513d8b823e3d90fd5b8451806103008882612d88565b0390f35b6103219195503d8088833e610319818361306a565b810190613844565b935f61025d565b83513d88823e3d90fd5b8280fd5b5091903461043957602080600319360112610332578151637982969360e11b815284359481019490945282846024817f00000000000000000000000000000000000000000000000000000000000000006001600160a01b03165afa93841561042d578394610409575b509091835192808386015195015115156103c9825196879687526080868801526080870190612ccf565b918501528381036060850152826060519182815201926080925b8281106103f257505050500390f35b8351855286955093810193928101926001016103e3565b6104269194503d8085833e61041e818361306a565b81019061367e565b925f61039f565b505051903d90823e3d90fd5b5080fd5b503461033257602036600319011261033257610457612deb565b90610460613ab1565b6001600160a01b039182169283156104995750505f548260018060a01b03198216175f55165f80516020613c4a8339815191525f80a380f35b906020608492519162461bcd60e51b8352820152602660248201527f4f776e61626c653a206e6577206f776e657220697320746865207a65726f206160448201526564647265737360d01b6064820152fd5b5090346103325760203660031901126103325782610507612deb565b8251635191e94f60e11b81526001600160a01b0391821694810194909452839060249082907f0000000000000000000000000000000000000000000000000000000000000000165afa91821561059d578360209493610571575b505061056f90518092613148565bf35b61056f92935090610593913d8091833e61058b818361306a565b810190613483565b905091905f610561565b81513d85823e3d90fd5b5050346104395780600319360112610439576020916105c4612deb565b826105cd612e01565b9260018060a01b038093168152600786522091165f52825260ff815f20541690519015158152f35b50346103325760203660031901126103325761060f612deb565b82516373549f0b60e11b81526001600160a01b03918216838201529260249290917f0000000000000000000000000000000000000000000000000000000000000000169085858581855afa9485156103285786956106ec575b5061067385516131ed565b93865b86518110156102f35761068981886133a0565b51855190632e76c56d60e21b82528482015288818481885afa9081156102e95790600192918a916106d2575b506106c082896133a0565b526106cb81886133a0565b5001610676565b6106e691503d808c833e6102db818361306a565b5f6106b5565b6107019195503d8088833e610319818361306a565b935f610668565b509034610332576020806003193601126108555782356001600160401b0381116108475761073990369085016130de565b90610742613ab1565b81511561089a578251630602566360e11b81529385907f00000000000000000000000000000000000000000000000000000000000000006001600160a01b0316908387828186865af1968715610890578397610859575b5085516107a581612fe2565b8781528585820152600187820152823b15610855576107e892888580948a51968795869485936328a22b8760e01b85528401528c60248401526044830190613169565b03925af1801561084b57610833575b505061082d7f11c167cc9b439f0ad8bec5588159f1b06b813bc38d50c867a41b23b077be2c1a9351928284938452830190612ccf565b0390a280f35b61083c90612fcf565b61084757845f6107f7565b8480fd5b85513d84823e3d90fd5b8380fd5b84809298508194503d8311610889575b610873818361306a565b8101031261088557869151955f610799565b5f80fd5b503d610869565b86513d85823e3d90fd5b8360649184519162461bcd60e51b8352820152601660248201527510d85d1959dbdc9e481b985b59481c995c5d5a5c995960521b6044820152fd5b508234610aa85780600319360112610aa8578251620d893f60e61b81526020927f00000000000000000000000000000000000000000000000000000000000000006001600160a01b0316929184818381875afa908115610890578391610a7b575b50610940816137e0565b93839260015b838111156109eb575050505061095b816137e0565b92825b8281106109c15750505083519280840190808552835180925280868601968360051b870101940192955b8287106109955785850386f35b9091929382806109b1600193603f198a82030186528851613169565b9601920196019592919092610988565b806109ce600192846133a0565b516109d982886133a0565b526109e481876133a0565b500161095e565b8851637982969360e11b81528281018290528681602481875afa908115610a71578791610a57575b5089810151610a2c575b50610a279061323c565b610946565b85610a5091610a3f610a2794988b6133a0565b52610a4a818a6133a0565b5061323c565b9490610a1d565b610a6b91503d8089833e61041e818361306a565b8a610a13565b8a513d89823e3d90fd5b90508481813d8311610aa1575b610a92818361306a565b81010312610885575186610936565b503d610a88565b80fd5b509034610332578260031936011261033257610ac5613ab1565b478015610b2e57835484918291829182916001600160a01b03165af1610ae96137b1565b5015610af3578280f35b906020606492519162461bcd60e51b83528201526015602482015274119959481dda5d1a191c985dd85b0819985a5b1959605a1b6044820152fd5b815162461bcd60e51b815260208185015260136024820152724e6f206665657320746f20776974686472617760681b6044820152606490fd5b509034610332576060366003190112610332576001600160401b0390823582811161084757610b9990369085016130de565b91602435818111610d6757610bb190369086016130de565b90604435908111610d6757610bc990369086016130de565b8251630e50cee560e01b815233818701526020957f00000000000000000000000000000000000000000000000000000000000000006001600160a01b031693909290918781602481885afa9081156102e9578991610d2e575b50610cf1579087939291610c388751151561372d565b855191610c4483612ffd565b878352888301528582015260016060820152823b1561085557610c8b9284928387518096819582946359dd665f60e01b845233908401528a602484015260448301906130fc565b03925af18015610ce757610cd3575b50507f48cac28ad4dc618e15f4c2dd5e97751182f166de97b25618318b2112aa951a2f9161082d91519182918583523395830190612ccf565b610cdc90612fcf565b61085557835f610c9a565b83513d84823e3d90fd5b845162461bcd60e51b81528084018890526017602482015276155cd95c88185b1c9958591e481c9959da5cdd195c9959604a1b6044820152606490fd5b90508781813d8311610d60575b610d45818361306a565b81010312610d5c57610d569061325e565b5f610c22565b8880fd5b503d610d3b565b8580fd5b9190503461043957602036600319011261043957803592610d8a613ab1565b8051637982969360e11b81528083018590527f00000000000000000000000000000000000000000000000000000000000000006001600160a01b031692908481602481875afa908115610e95578591610e7b575b50610deb815115156136e7565b8483820152833b1561084757610e2593868680948651978895869485936328a22b8760e01b85528401528860248401526044830190613169565b03925af1908115610e725750610e5e575b50807f510c8243d59e6c99aa1a4cf786d70d3e2e425109eb3870cc957ccb326a11ea9791a280f35b610e6790612fcf565b61043957815f610e36565b513d84823e3d90fd5b610e8f91503d8087833e61041e818361306a565b5f610dde565b83513d87823e3d90fd5b50346103325760209081600319360112610855578192938135610ec1816138bd565b855192610ecd84613034565b828452821561108c57829190819072184f03e93ff9f4daa797ed6e38ed64bf6a1f0160401b828181101561107f575b508790506904ee2d6d415b85acef8160201b80851015611071575b5050662386f26fc1000080841015611062575b506305f5e10080841015611053575b5061271080841015611045575b50506064821015611035575b600a8092101561102b575b602190889360019281610f8b6001869401610f83610f7a8261308d565b9951998a61306a565b80895261308d565b878b019890601f1901368a3750860101905b610ff6575b5050505092610fd992610fe5926103009588519583610fca8895518092888089019101612cae565b84019151809386840190612cae565b0103808452018261306a565b925b51928284938452830190612ccf565b5f19019083906f181899199a1a9b1b9c1cb0b131b232b360811b8282061a83530491821561102657919082610f9d565b610fa2565b9160010191610f5d565b9190606460029104910191610f52565b930192909104905f80610f46565b6008919493049201925f610f39565b6010919493049201925f610f2a565b94019390920491865f610f17565b8a95500492505f80610efc565b5050505050610300825161109f81613034565b5f815292610fe7565b50903461033257602091826003193601126108555780356110c76131a1565b508251632bd57b5960e21b81528083018290527f00000000000000000000000000000000000000000000000000000000000000006001600160a01b031692908581602481875afa9081156112025787916111c9575b501561118d57906024869285519485938492632e76c56d60e21b84528301525afa938415611182578094611160575b50506103009051928284938452830190612cf4565b6103009294509061117a913d8091833e6102db818361306a565b92905f61114b565b8251903d90823e3d90fd5b835162461bcd60e51b81529081018590526016602482015275141c9bd91d58dd08191bd95cc81b9bdd08195e1a5cdd60521b6044820152606490fd5b90508581813d83116111fb575b6111e0818361306a565b810103126111f7576111f19061325e565b5f61111c565b8680fd5b503d6111d6565b85513d89823e3d90fd5b83823461043957608036600319011261043957611227612deb565b61122f612e01565b906064356001600160401b03811161084757366023820112156108475761126c93816024611262933693013591016130a8565b9160443591613769565b80f35b50346103325760c0366003190112610332576001600160401b03918135838111610847576112a090369084016130de565b9060249384358181116111f7576112ba90369086016130de565b946044918235908111611723576112d490369087016130de565b835163c64b8a8f60e01b81523381880152602097919660843594606435937f00000000000000000000000000000000000000000000000000000000000000006001600160a01b0316939192918b818881885afa9081156116a4578d916116ea575b50156116ae578751635191e94f60e11b815233838201528c818881885afa9081156116a4578d91611688575b50828110156116765760020361163c5761137d8951151561372d565b86156115fc578751637982969360e11b81528281018690528c818881885afa908d82156115f15790818b936115d6575b50500151156115a35787516309b4daef60e21b8152998c969594939291908c8c84818b895af19b8c1561159957889c611566575b508951916113ee83613018565b8c83528d33908401528b8b840152606083015260808201528460a08201528760c082015260a43560e08201524261010082015286610120820152833b156111f75786611458918c8b5193849283926306ad0cb960e01b8452878401528d8b84015287830190612cf4565b038183885af1801561154857908791611552575b5050823b15610d67578751631294b01d60e01b815233828201528581018b90528681848183885af1801561154857908791611534575b5050823b15610d6757858a9381958a51978896879563184c5e5360e31b87528601528401525af1801561152a57611516575b50506115097f5f25c590b5c7f62ed4186adca32d3118caef07e5020c6cc8268d4136df2cfef893835193808552840190612ccf565b948201528033940390a380f35b61151f90612fcf565b610d6757855f6114d4565b84513d84823e3d90fd5b61153d90612fcf565b610d6757855f6114a2565b89513d89823e3d90fd5b61155b90612fcf565b610d6757855f61146c565b8d80929d508199503d8311611592575b611580818361306a565b81010312610885578c96519a5f6113e1565b503d611576565b8a513d8a823e3d90fd5b506f496e76616c69642063617465676f727960801b6064926010878d8b519562461bcd60e51b8752860152840152820152fd5b6115ea92503d8091833e61041e818361306a565b5f8e6113ad565b8a51903d90823e3d90fd5b507f436f7374206d7573742062652067726561746572207468616e207a65726f0000606492601e878d8b519562461bcd60e51b8752860152840152820152fd5b507626bab9ba103132903b32b934b334b2b21039b2b63632b960491b6064926017878d8b519562461bcd60e51b8752860152840152820152fd5b634e487b7160e01b8d5260218352868dfd5b61169c91503d808f833e61058b818361306a565b90505f611361565b89513d8f823e3d90fd5b507826bab9ba103132903932b3b4b9ba32b932b21039b2b63632b960391b6064926019878d8b519562461bcd60e51b8752860152840152820152fd5b90508b81813d831161171c575b611701818361306a565b81010312611718576117129061325e565b5f611335565b8c80fd5b503d6116f7565b8780fd5b50346103325760203660031901126103325782611742612deb565b61174a61344d565b508351635191e94f60e11b81526001600160a01b0391821693810193909352829060249082907f0000000000000000000000000000000000000000000000000000000000000000165afa90811561042d578380926117c6575b50506103006117bb8351948486958652850190612e4c565b916020840190613148565b9091506117de9293503d8091833e61058b818361306a565b9190915f806117a3565b509034610332578060031936011261033257611802612deb565b9060243591821515809303610885576001600160a01b03169233841461187157503384526007602052808420835f52602052805f2060ff1981541660ff8416179055519081527f17307eab39ab6107e8899845ad3d59bd9653f200f220920489ca2b5937696c3160203392a380f35b6020606492519162461bcd60e51b8352820152601960248201527822a9219b99189d1030b8383937bb32903a379031b0b63632b960391b6044820152fd5b612f10565b5090346103325780600319360112610332576118ce612deb565b90836024359284841015610439576118e4613ab1565b6001600160a01b037f000000000000000000000000000000000000000000000000000000000000000081169190823b156108555760448492838751958694859363aa27905960e01b855216809b840152611941602484018b613148565b5af18015610ce757611984575b50507fd8f7bcb2c5cffc294a0aaef719685993d7be95273fb8254803a1563510ccefed91611980602092518092613148565ba280f35b61198d90612fcf565b61085557835f61194e565b509134610aa85780600319360112610aa857815191816003549260018460011c9160018616958615611a79575b6020968785108114611a66578899509688969785829a5291825f14611a3f575050600114611a01575b5050506103009291610fe791038561306a565b9190869350600383528383205b828410611a275750505082010181610fe76103006119ee565b8054848a018601528895508794909301928101611a0e565b60ff19168782015293151560051b86019093019350849250610fe7915061030090506119ee565b634e487b7160e01b835260228a52602483fd5b92607f16926119c5565b505034610439578160031936011261043957905490516001600160a01b039091168152602090f35b509190346104395760a0366003190112610439576001600160401b0390833582811161085557611ade90369086016130de565b906024948535848111610d6757611af890369083016130de565b906044358581116111f757611b1090369083016130de565b9660643586811161172357611b2890369084016130de565b9560843590811161172357611b4090369084016130de565b8451630e50cee560e01b815233848201526020977f00000000000000000000000000000000000000000000000000000000000000006001600160a01b0316959291898186818a5afa908115611d92578b91611dde575b5015611d9c57865163c64b8a8f60e01b81523386820152898186818a5afa908115611d92578b91611d59575b50611d1857875115611cdd57899a8798999a975193611be085612fa0565b8a85528b8501528884015260608301526080820152600160a08201524260c0820152833b156108475784611c279187518093819263283a514f60e11b835233888401613572565b038183885af18015611cd357908591611cbf575b5050823b156108555760448492836001958851968795869463aa27905960e01b865233908601528401525af18015610ce757611cab575b50507fecef9454c60fab6a60b6f2aa319263c0f711cdb927c213e76687f7853b5978429161082d91519182918583523395830190612ccf565b611cb490612fcf565b61085557835f611c72565b611cc890612fcf565b61085557835f611c3b565b86513d87823e3d90fd5b865162461bcd60e51b81528086018a905260168186015275109d5cda5b995cdcc81b985b59481c995c5d5a5c995960521b6044820152606490fd5b865162461bcd60e51b81528086018a9052601c818601527b20b63932b0b23c903932b3b4b9ba32b932b21030b99039b2b63632b960211b6044820152606490fd5b90508981813d8311611d8b575b611d70818361306a565b81010312611d8757611d819061325e565b5f611bc2565b8a80fd5b503d611d66565b88513d8d823e3d90fd5b865162461bcd60e51b81528086018a9052601d818601527f4d757374206265207265676973746572656420757365722066697273740000006044820152606490fd5b90508981813d8311611e0c575b611df5818361306a565b81010312611d8757611e069061325e565b5f611b96565b503d611deb565b8334610aa85780600319360112610aa857611e2c613ab1565b5f80546001600160a01b0319811682556001600160a01b03165f80516020613c4a8339815191528280a380f35b50829034610439576020366003190112610439576001600160a01b03611e7d612deb565b16908115611e9a5760208480858581526005845220549051908152f35b608490602085519162461bcd60e51b8352820152602960248201527f4552433732313a2061646472657373207a65726f206973206e6f7420612076616044820152683634b21037bbb732b960b91b6064820152fd5b509190346104395760209182600319360112610aa857611f0d612deb565b81835191611f1a83612ffd565b8160608481809652818982015281888201520152602460018060a01b0391828751998a948593636f77926b60e01b855216908301527f0000000000000000000000000000000000000000000000000000000000000000165afa948515610ce7578295611f97575b50505061030090519282849384528301906130fc565b90919294503d8084833e611fab818361306a565b810184828203126108555781516001600160401b0392838211610d6757019160808383031261084757865194611fe086612ffd565b83518281116104395783611ff591860161327f565b865286840151828111610439578361200e91860161327f565b8787015287840151918211610aa85750928261203461203e93610300979684960161327f565b888601520161325e565b9082015292905f80611f81565b50903461033257826003193601126103325780516337b4779d60e11b81529183908390817f00000000000000000000000000000000000000000000000000000000000000006001600160a01b03165afa91821561059d578361030094936120b9575b50505191829182612ecc565b6120d69293503d8091833e6120ce818361306a565b810190613594565b905f806120ad565b509034610332576060366003190112610332578135916024356001600160401b0381116108475761211290369083016130de565b916044359182151580930361088557859361212b613ab1565b8251637982969360e11b81528281018790527f00000000000000000000000000000000000000000000000000000000000000006001600160a01b031694908681602481895afa908115611202579061218d918891612227575b505115156136e7565b83519161219983612fe2565b878352602083015283820152833b15610847576121da93868680948651978895869485936328a22b8760e01b85528401528860248401526044830190613169565b03925af1908115610e725750612213575b50807f20611f93bb94c3dcaf404a8f60335558241ab3e3c68f6201b0e1744037220c3f91a280f35b61221c90612fcf565b61043957815f6121eb565b61223b91503d808a833e61041e818361306a565b5f612184565b509134610aa8576020366003190112610aa857506122616020923561365c565b90516001600160a01b039091168152f35b5082903461043957602036600319011261043957803590612291613ab1565b600a821161230957919283927f00000000000000000000000000000000000000000000000000000000000000006001600160a01b031692833b1561084757602485928385519687948593632aafa80760e01b85528401525af1908115610e7257506122f95750f35b61230290612fcf565b610aa85780f35b606490602085519162461bcd60e51b835282015260146024820152730a6cae4ecd2c6ca40cccaca40e8dede40d0d2ced60631b6044820152fd5b509190346104395781600319360112610439578051639b9d326d60e01b8152926020908490817f00000000000000000000000000000000000000000000000000000000000000006001600160a01b03165afa9182156123e157916123ac575b6020925051908152f35b90506020823d6020116123d9575b816123c76020938361306a565b810103126108855760209151906123a2565b3d91506123ba565b9051903d90823e3d90fd5b50919034610885575f36600319011261088557612407613ab1565b5f54815163c64b8a8f60e01b81526001600160a01b039182168582018190527f00000000000000000000000000000000000000000000000000000000000000008316939291602091908281602481895afa90811561261b575f916125e6575b5015612470578580f35b83519161247c83612fa0565b84516124878161304f565b601081526f21b93cb83a37a6b0b93a1020b236b4b760811b82820152835284516124b08161304f565b6016815275283630ba3337b9369020b236b4b734b9ba3930ba37b960511b82820152818401527361646d696e4063727970746f6d6172742e636f6d60601b8551916124fa8361304f565b6014835282015284830152835161251081613034565b5f81526060830152835161252381613034565b5f81526080830152600160a08301524260c0830152843b1561088557835163283a514f60e11b8152915f918391829161255f91908b8401613572565b038183885af180156125dc576125c9575b50938394845416833b156108475760448592838551968794859363aa27905960e01b8552840152600260248401525af1908115610e7257506125b5575b808080808580f35b6125be90612fcf565b610aa857805f6125ad565b6125d4919450612fcf565b5f925f612570565b83513d5f823e3d90fd5b90508281813d8311612614575b6125fd818361306a565b810103126108855761260e9061325e565b5f612466565b503d6125f3565b85513d5f823e3d90fd5b5034610885576020366003190112610885575f612640612deb565b61264861344d565b508351635191e94f60e11b81526001600160a01b0391821693810193909352829060249082907f0000000000000000000000000000000000000000000000000000000000000000165afa9081156126d55791610300925f926126b8575b5051918291602083526020830190612e4c565b6126cd9192503d805f833e61058b818361306a565b5090836126a5565b82513d5f823e3d90fd5b82346108855761001e906126f236612e17565b919251926126ff84613034565b5f8452613769565b346108855761001e61271836612e17565b9161272b61272684336138e1565b6133eb565b6139a5565b509034610885575f366003190112610885578051633302ffb360e11b8152916020908390817f00000000000000000000000000000000000000000000000000000000000000006001600160a01b03165afa908115612798575f916123ac576020925051908152f35b513d5f823e3d90fd5b8234610885575f36600319011261088557517f00000000000000000000000000000000000000000000000000000000000000006001600160a01b03168152602090f35b50346108855781600319360112610885576127fd612deb565b6024359290916001600160a01b03919082806128188761365c565b16941693808514612906578033149081156128e7575b501561287f57505f84815260066020522080546001600160a01b031916831790556128588361365c565b167f8c5be1e5ebec7d5bd14f71427d1e84f3dd0314c0f7b2291e5b200ac8c7c3b9255f80a4005b6020608492519162461bcd60e51b8352820152603d60248201527f4552433732313a20617070726f76652063616c6c6572206973206e6f7420746f60448201527f6b656e206f776e6572206f7220617070726f76656420666f7220616c6c0000006064820152fd5b90505f526007602052815f20335f5260205260ff825f2054168661282e565b506020608492519162461bcd60e51b8352820152602160248201527f4552433732313a20617070726f76616c20746f2063757272656e74206f776e656044820152603960f91b6064820152fd5b50903461088557602036600319011261088557612261602092356133c8565b509034610885575f366003190112610885578051905f906002549160018360011c9060018516948515612a4a575b6020958684108114612a3757838852879493929187908215612a155750506001146129d8575b50506103009291610fe791038561306a565b9085925060025f52825f20915f925b8284106129fd5750505082010181610fe76129c6565b8054848a0186015288955087949093019281016129e7565b60ff19168682015292151560051b85019092019250839150610fe790506129c6565b602289634e487b7160e01b5f525260245ffd5b91607f16916129a0565b509034610885575f366003190112610885578051639b9d326d60e01b81527f00000000000000000000000000000000000000000000000000000000000000006001600160a01b0316919060209081818681875afa9081156125dc575f91612c17575b50612ac0816131ed565b935f9260019660015b84811115612b1f575050505050612adf816131ed565b925f5b828110612af6578351806103008782612d88565b80612b028792846133a0565b51612b0d82886133a0565b52612b1881876133a0565b5001612ae2565b8651632bd57b5960e21b815282810182905260249084818381895afa908115612c0d575f91612bd8575b50612b5e575b50612b599061323c565b612ac9565b5f88518092632e76c56d60e21b8252848683015281885afa908115612bce575f91612bb4575b50610120810151612b4f5786612bad91612ba2612b5994998c6133a0565b52610a4a818b6133a0565b9590612b4f565b612bc891503d805f833e6102db818361306a565b8a612b84565b88513d5f823e3d90fd5b90508481813d8311612c06575b612bef818361306a565b8101031261088557612c009061325e565b8b612b49565b503d612be5565b89513d5f823e3d90fd5b90508181813d8311612c3d575b612c2e818361306a565b81010312610885575185612ab6565b503d612c24565b823461088557602036600319011261088557359063ffffffff60e01b8216809203610885576020916380ac58cd60e01b8114908115612c9d575b8115612c8c575b5015158152f35b6301ffc9a760e01b14905083612c85565b635b5e139f60e01b81149150612c7e565b5f5b838110612cbf5750505f910152565b8181015183820152602001612cb0565b90602091612ce881518092818552858086019101612cae565b601f01601f1916010190565b90612d4f612d3d612d2b6101408551855260018060a01b036020870151166020860152604086015190806040870152850190612ccf565b60608501518482036060860152612ccf565b60808401518382036080850152612ccf565b9160a081015160a083015260c081015160c083015260e081015160e0830152610100808201519083015261012080910151151591015290565b6020808201906020835283518092526040830192602060408460051b8301019501935f915b848310612dbd5750505050505090565b9091929394958480612ddb600193603f198682030187528a51612cf4565b9801930193019194939290612dad565b600435906001600160a01b038216820361088557565b602435906001600160a01b038216820361088557565b6060906003190112610885576001600160a01b0390600435828116810361088557916024359081168103610885579060443590565b9060c080612eb7612ea5612e93612e81612e6f885160e0895260e0890190612ccf565b602089015188820360208a0152612ccf565b60408801518782036040890152612ccf565b60608701518682036060880152612ccf565b60808601518582036080870152612ccf565b9360a0810151151560a0850152015191015290565b60209060206040818301928281528551809452019301915f5b828110612ef3575050505090565b83516001600160a01b031685529381019392810192600101612ee5565b34610885575f3660031901126108855760405162b5ad4b60e71b81525f816004817f00000000000000000000000000000000000000000000000000000000000000006001600160a01b03165afa8015612f9557610300915f91612f7b575b5060405191829182612ecc565b612f8f91503d805f833e6120ce818361306a565b5f612f6e565b6040513d5f823e3d90fd5b60e081019081106001600160401b03821117612fbb57604052565b634e487b7160e01b5f52604160045260245ffd5b6001600160401b038111612fbb57604052565b606081019081106001600160401b03821117612fbb57604052565b608081019081106001600160401b03821117612fbb57604052565b61014081019081106001600160401b03821117612fbb57604052565b602081019081106001600160401b03821117612fbb57604052565b604081019081106001600160401b03821117612fbb57604052565b601f909101601f19168101906001600160401b03821190821017612fbb57604052565b6001600160401b038111612fbb57601f01601f191660200190565b9291926130b48261308d565b916130c2604051938461306a565b829481845281830111610885578281602093845f960137010152565b9080601f83011215610885578160206130f9933591016130a8565b90565b9060608061313d61312b6131198651608087526080870190612ccf565b60208701518682036020880152612ccf565b60408601518582036040870152612ccf565b930151151591015290565b9060048210156131555752565b634e487b7160e01b5f52602160045260245ffd5b908151815260408061313d6020850151606060208601526060850190612ccf565b6001600160401b038111612fbb5760051b60200190565b604051906131ae82613018565b5f6101208382815282602082015260606040820152606080820152606060808201528260a08201528260c08201528260e0820152826101008201520152565b906131f78261318a565b613204604051918261306a565b8281528092613215601f199161318a565b01905f5b82811061322557505050565b6020906132306131a1565b82828501015201613219565b5f19811461324a5760010190565b634e487b7160e01b5f52601160045260245ffd5b5190811515820361088557565b51906001600160a01b038216820361088557565b81601f820112156108855780516132958161308d565b926132a3604051948561306a565b81845260208284010111610885576130f99160208085019101612cae565b6020818303126108855780516001600160401b03918282116108855701906101408284031261088557604051926132f784613018565b825184526133076020840161326b565b60208501526040830151828111610885578161332491850161327f565b60408501526060830151828111610885578161334191850161327f565b606085015260808301519182116108855761335d91830161327f565b608083015260a081015160a083015260c081015160c083015260e081015160e0830152610100808201519083015261339961012080920161325e565b9082015290565b80518210156133b45760209160051b010190565b634e487b7160e01b5f52603260045260245ffd5b6133d1816138bd565b5f908152600660205260409020546001600160a01b031690565b156133f257565b60405162461bcd60e51b815260206004820152602d60248201527f4552433732313a2063616c6c6572206973206e6f7420746f6b656e206f776e6560448201526c1c881bdc88185c1c1c9bdd9959609a1b6064820152608490fd5b6040519061345a82612fa0565b5f60c0836060808252806020830152806040830152808083015260808201528260a08201520152565b91906040838203126108855782516001600160401b0391908281116108855784019060e08282031261088557604051916134bc83612fa0565b805184811161088557826134d191830161327f565b8352602081015184811161088557826134eb91830161327f565b60208401526040810151848111610885578261350891830161327f565b60408401526060810151848111610885578261352591830161327f565b606084015260808101519384116108855761354660c092602095830161327f565b608084015261355760a0820161325e565b60a0840152015160c082015292015160048110156108855790565b6001600160a01b0390911681526040602082018190526130f992910190612e4c565b6020908181840312610885578051906001600160401b03821161088557019180601f840112156108855782516135c98161318a565b936135d7604051958661306a565b818552838086019260051b820101928311610885578301905b8282106135fe575050505090565b83809161360a8461326b565b8152019101906135f0565b1561361c57565b60405162461bcd60e51b8152602060048201526018602482015277115490cdcc8c4e881a5b9d985b1a59081d1bdad95b88125160421b6044820152606490fd5b5f908152600460205260409020546001600160a01b03166130f9811515613615565b6020818303126108855780516001600160401b039182821161088557019160608382031261088557604051926136b384612fe2565b805184526020810151928311610885576136d46040926136df94830161327f565b60208501520161325e565b604082015290565b156136ee57565b60405162461bcd60e51b815260206004820152601760248201527610d85d1959dbdc9e48191bd95cc81b9bdd08195e1a5cdd604a1b6044820152606490fd5b1561373457565b60405162461bcd60e51b815260206004820152600d60248201526c13985b59481c995c5d5a5c9959609a1b6044820152606490fd5b9061378d93929161377d61272684336138e1565b6137888383836139a5565b613b5b565b1561379457565b60405162461bcd60e51b8152806137ad60048201613b08565b0390fd5b3d156137db573d906137c28261308d565b916137d0604051938461306a565b82523d5f602084013e565b606090565b906137ea8261318a565b6040906137fa604051918261306a565b838152809361380b601f199161318a565b01915f5b83811061381c5750505050565b602090825161382a81612fe2565b5f8152826060818301525f8583015282860101520161380f565b6020908181840312610885578051906001600160401b03821161088557019180601f840112156108855782516138798161318a565b93613887604051958661306a565b818552838086019260051b820101928311610885578301905b8282106138ae575050505090565b815181529083019083016138a0565b5f908152600460205260409020546138df906001600160a01b03161515613615565b565b906001600160a01b0380806138f58461365c565b16931691838314938415613928575b508315613912575b50505090565b61391e919293506133c8565b16145f808061390c565b9093505f52600760205260405f20825f5260205260ff60405f205416925f613904565b1561395257565b60405162461bcd60e51b815260206004820152602560248201527f4552433732313a207472616e736665722066726f6d20696e636f72726563742060448201526437bbb732b960d91b6064820152608490fd5b906139cd916139b38461365c565b6001600160a01b039391841692849290918316841461394b565b16918215613a6057816139ea916139e38661365c565b161461394b565b825f52600660205260405f2060018060a01b031990818154169055815f52600560205260405f205f198154019055825f5260405f2060018154019055835f5260046020528260405f20918254161790557fddf252ad1be2c89b69c2b068fc378daa952ba7f163c4a11628f55a4df523b3ef5f80a4565b60405162461bcd60e51b8152602060048201526024808201527f4552433732313a207472616e7366657220746f20746865207a65726f206164646044820152637265737360e01b6064820152608490fd5b5f546001600160a01b03163303613ac457565b606460405162461bcd60e51b815260206004820152602060248201527f4f776e61626c653a2063616c6c6572206973206e6f7420746865206f776e65726044820152fd5b60809060208152603260208201527f4552433732313a207472616e7366657220746f206e6f6e20455243373231526560408201527131b2b4bb32b91034b6b83632b6b2b73a32b960711b60608201520190565b92909190823b15613c4057613bad926020925f60018060a01b0360405180978196829584630a85bd0160e11b9c8d86523360048701521660248501526044840152608060648401526084830190612ccf565b0393165af15f9181613bfb575b50613bed57613bc76137b1565b80519081613be85760405162461bcd60e51b8152806137ad60048201613b08565b602001fd5b6001600160e01b0319161490565b9091506020813d602011613c38575b81613c176020938361306a565b8101031261088557516001600160e01b03198116810361088557905f613bba565b3d9150613c0a565b5050505060019056fe8be0079c531659141344cd1fd0a4f28419497f9722a3daafe3b4186f6b6457e0a164736f6c6343000818000a6080346100af57601f6200376238819003918201601f19168301916001600160401b038311848410176100b3578084926020946040528339810103126100af57515f8054336001600160a01b0319821681178355604051939290916001600160a01b0316907f8be0079c531659141344cd1fd0a4f28419497f9722a3daafe3b4186f6b6457e09080a3600555335f52601760205260405f20600160ff1982541617905561369a9081620000c88239f35b5f80fd5b634e487b7160e01b5f52604160045260245ffdfe6080806040526004361015610012575f80fd5b5f3560e01c90816303624fc0146131305750806305a2c9cf146130ee57806306ad0cb914612bc957806307c115ed14612b555780630c04acc614612af95780630e50cee514612abc5780631294b01d14612a2357806326d36bbc146129c757806328a22b87146127ea5780632aafa8071461279e578063332d56d71461270057806345de84db146126be57806346a4237b1461255c5780634f1c441e14612515578063502aa3b5146124ce5780635074a29e14611d5d578063540f1c3c14611d3357806359dd665f146118475780635ad6a580146117da5780635f638d621461177e578063607eb4e4146117465780636605ff66146117295780636f68ef3a1461169d5780636f77926b146115a8578063715018a6146115645780637acc0b20146114885780638061bc931461120f57806385a3439314611146578063865d2197146110ea5780638da5cb5b146110c35780639196dfcb14610fe157806398eaa4a714610f9d5780639b9d326d14610f805780639fa44dbf14610f39578063a323d29e14610daf578063aa27905914610c01578063af55ed6414610bd2578063b9db15b414610a30578063c1302b34146109d9578063c258f53114610910578063c262f298146108be578063c64b8a8f14610881578063c6cdbe5e14610824578063c80bba8a1461074d578063d5b9221b14610710578063e01ef6e6146106f3578063e2367890146106d6578063e585cb2c14610626578063e6a93e1614610578578063e6b165ed14610537578063eaae75621461044e578063f2943dce146103ba578063f2fde38b1461030f5763f3052d261461026e575f80fd5b3461030b5760208060031936011261030b575f6040805161028e81613193565b82815260608482015201526004355f52600f815260405f20604051906102b382613193565b805482526102fe60ff60026102ca600185016132e6565b9386860194855201541691604084019215158352604051948594818652519085015251606060408501526080840190613388565b9051151560608301520390f35b5f80fd5b3461030b57602036600319011261030b57610328613222565b6103306135d6565b6001600160a01b03908116908115610366575f548260018060a01b03198216175f55165f8051602061364e8339815191525f80a3005b60405162461bcd60e51b815260206004820152602660248201527f4f776e61626c653a206e6577206f776e657220697320746865207a65726f206160448201526564647265737360d01b6064820152608490fd5b3461030b576103c8366134c4565b905f52601260205260405f2090815481101561030b576103e7916134ab565b50805460018060a01b0360018301541691600281015461043d61040c600384016132e6565b600560ff6004860154169401549260405196879687526020870152604086015260c0606086015260c0850190613388565b911515608084015260a08301520390f35b3461030b5761010036600319011261030b57610468613222565b6001600160a01b036024358181169081900361030b5760c036604319011261030b5760405191610497836131ae565b6044358352606435818116810361030b576020840152608435818116810361030b57604084015260a435606084015260c435608084015260e43593841515850361030b576105299460a0850152335f52601760205260ff60405f205416801561052b575b610504906134da565b165f5260106020526105198260405f2061354d565b5f52601160205260405f2061354d565b005b505f54821633146104fb565b3461030b57602036600319011261030b57610550613222565b6105586135d6565b6001600160a01b03165f908152601760205260409020805460ff19169055005b3461030b5760208060031936011261030b576001600160a01b0361059a613222565b165f526007815260405f20604051908183825491828152019081925f52845f20905f5b868282106106125786866105d3828803836131ff565b60405192839281840190828552518091526040840192915f5b8281106105fb57505050500390f35b8351855286955093810193928101926001016105ec565b8354855290930192600192830192016105bd565b3461030b57604036600319011261030b5761063f613222565b6001600160a01b039081165f90815260116020526040902080546024359081101561030b5761066d916134ab565b5080546001820154600283015460038401546004850154600590950154604080519586526001600160a01b03948816851660208701529290961692909216908301526060820152608081019190915260ff91909116151560a08201528060c081010390f35b0390f35b3461030b575f36600319011261030b576020600354604051908152f35b3461030b575f36600319011261030b576020600554604051908152f35b3461030b57602036600319011261030b576001600160a01b03610731613222565b165f526017602052602060ff60405f2054166040519015158152f35b3461030b57604036600319011261030b57610766613222565b60243590335f52601760205260ff60405f2054168015610811575b61078a906134da565b6001600160a01b03165f818152600e602052604090205482116107d5575f52600e60205260405f2080549182039182116107c15755005b634e487b7160e01b5f52601160045260245ffd5b60405162461bcd60e51b8152602060048201526014602482015273496e73756666696369656e742062616c616e636560601b6044820152606490fd5b505f546001600160a01b03163314610781565b3461030b57602036600319011261030b576004355f52600f60205260405f20805460ff6002610855600185016132e6565b930154166108756040519384938452606060208501526060840190613388565b90151560408301520390f35b3461030b57602036600319011261030b576001600160a01b036108a2613222565b165f52600c602052602060ff60405f2054166040519015158152f35b3461030b576108cc366134c4565b90335f52601760205260ff60405f20541680156108fd575b6108ed906134da565b5f52601360205260405f20555f80f35b505f546001600160a01b031633146108e4565b3461030b5760208060031936011261030b576001600160a01b039081610934613222565b165f526011815260405f2080549061094b82613536565b9261095960405194856131ff565b8284525f9182528082208185015b84841061097c57604051806106d2888261342b565b60068360019260405161098e816131ae565b855481528a8587015416838201528a6002870154166040820152600386015460608201526004860154608082015260ff600587015416151560a0820152815201920193019290610967565b3461030b57604036600319011261030b576109f2613222565b6001600160a01b03165f9081526007602052604090208054602435919082101561030b57602091610a2291613162565b90546040519160031b1c8152f35b3461030b57602036600319011261030b575f610120604051610a5181613177565b82815282602082015260606040820152606080820152606060808201528260a08201528260c08201528260e08201528261010082015201526004355f52600660205260405f2060ff600960405192610aa884613177565b8054845260018101546001600160a01b03166020850152610acb600282016132e6565b6040850152610adc600382016132e6565b6060850152610aed600482016132e6565b6080850152600581015460a0850152600681015460c0850152600781015460e0850152600881015461010085015201541615156101208201526040518091602082528051602083015260018060a01b0360208201511660408301526040810151610120610b9c610b6b61014093846060880152610160870190613388565b610b87606086015191601f1992838983030160808a0152613388565b906080860151908783030160a0880152613388565b9260a081015160c086015260c081015160e086015260e08101516101008601526101008101518286015201511515908301520390f35b3461030b57602036600319011261030b576004355f526008602052602060ff60405f2054166040519015158152f35b3461030b57604036600319011261030b57610c1a613222565b60249060243591600483101561030b57335f52601760205260ff60405f2054168015610d9c575b610c4a906134da565b60018060a01b039081831692835f52600d60205260405f2060ff1981541660ff871617905560019460018114610d5e575b6002915014610c8657005b83925f945b610c9157005b60168054908187101561052957849183610caa8961314a565b949054600395861b1c1614610cc6575050508380950194610c8b565b9392509450945f1992838101908111610d4b5790610cf785610cea610d159461314a565b9054908a1b1c169161314a565b90919060018060a01b038084549260031b9316831b921b1916179055565b8354908115610d3857500192610d2a8461314a565b81939154921b1b1916905555005b634e487b7160e01b5f9081526031600452fd5b82634e487b7160e01b5f5260116004525ffd5b601654600160401b811015610d8857600292610cf7826001610d83940160165561314a565b610c7b565b634e487b7160e01b5f52604160045260245ffd5b505f546001600160a01b03163314610c41565b3461030b5760208060031936011261030b57610dc9613222565b9060405191610dd7836131c9565b6060928381528383820152836040820152838082015283608082015260a081015f905260c0015f9052600160a01b60019003165f52600b815260405f20600d825260405f205460ff1660405192610e2d846131c9565b610e36836132e6565b8452610e44600184016132e6565b84820190815294610e57600285016132e6565b6040860190815290610e6b600386016132e6565b868201908152610e7d600487016132e6565b9060808801918252600587015460ff169660a089019715158852600601549360c08901948552604051998a9960408b525160408b0160e090526101208b01610ec491613388565b905190603f1995868c830301908c0152610edd91613388565b905190848a82030160808b0152610ef391613388565b905190838982030160a08a0152610f0991613388565b9051918782030160c0880152610f1e91613388565b9351151560e08601525161010085015283016106d2916133c6565b3461030b57604036600319011261030b57610f52613222565b6001600160a01b039081165f90815260106020526040902080546024359081101561030b5761066d916134ab565b3461030b575f36600319011261030b576020600154604051908152f35b3461030b57602036600319011261030b57610fb6613222565b610fbe6135d6565b6001600160a01b03165f908152601760205260409020805460ff19166001179055005b3461030b57602036600319011261030b576001600160a01b03611002613222565b165f52600b60205261107a60405f2061101a816132e6565b90611027600182016132e6565b6110b2611036600284016132e6565b6110a4611045600386016132e6565b611096611054600488016132e6565b93611088600660ff60058b015416990154976040519b8c9b60e08d5260e08d0190613388565b908b820360208d0152613388565b9089820360408b0152613388565b908782036060890152613388565b908582036080870152613388565b91151560a084015260c08301520390f35b3461030b575f36600319011261030b575f546040516001600160a01b039091168152602090f35b3461030b575f36600319011261030b57335f52601760205260ff60405f2054168015611133575b61111a906134da565b6020611127600254613528565b80600255604051908152f35b505f546001600160a01b03163314611111565b3461030b5760208060031936011261030b576001600160a01b03908161116a613222565b165f526010815260405f2080549061118182613536565b9261118f60405194856131ff565b8284525f9182528082208185015b8484106111b257604051806106d2888261342b565b6006836001926040516111c4816131ae565b855481528a8587015416838201528a6002870154166040820152600386015460608201526004860154608082015260ff600587015416151560a082015281520192019301929061119d565b3461030b5760031960403682011261030b57602435906001600160401b039081831161030b5760c090833603011261030b576040519161124e836131ae565b8060040135835261126160248201613238565b91602092838501908152604085019160448401358352606484013581811161030b57611293906004369187010161324c565b91606087019283526112a7608486016132a1565b936080880194855260a460a089019601358652335f526017875260ff60405f2054168015611475575b6112d9906134da565b6004355f526012875260405f20918254600160401b811015610d88576113069060019485820181556134ab565b999099611462575189555182890180546001600160a01b0319166001600160a01b0392909216919091179055516002880155915180519095600388019391928311610d885761135584546132ae565b601f811161141c575b5080601f84116001146113ae57509180809261139d9695946005995f946113a3575b50501b915f199060031b1c19161790555b51151560048501613517565b51910155005b015192508a80611380565b9193949596601f198416865f52835f20935f905b82821061140557505091600598979593918561139d989694106113ed575b505050811b019055611391565b01515f1960f88460031b161c191690558880806113e0565b8088869782949787015181550196019401906113c2565b845f52815f20601f850160051c810191838610611458575b601f0160051c019083905b82811061144d57505061135e565b5f815501839061143f565b9091508190611434565b634e487b7160e01b5f525f60045260245ffd5b505f546001600160a01b031633146112d0565b3461030b57602036600319011261030b576004355f52600660205260405f20604081549160018060a01b036001820154166114c5600283016132e6565b916114d2600382016132e6565b926114df600483016132e6565b9361154260058401549561153460068601549361152660078801549660ff600960088b01549a015416998c519d8e9d8e6101409384938252602082015201528c0190613388565b908a820360608c0152613388565b9088820360808a0152613388565b9460a087015260c086015260e085015261010084015215156101208301520390f35b3461030b575f36600319011261030b5761157c6135d6565b5f80546001600160a01b0319811682556001600160a01b03165f8051602061364e8339815191528280a3005b3461030b5760208060031936011261030b576080906115c5613222565b90604051916115d3836131e4565b5f606084818096528185820152816040820152015260018060a01b03165f526009815261169060405f206040519361160a856131e4565b611613826132e6565b8552611621600183016132e6565b9084860191825261168061166a60ff600361163e600288016132e6565b9660408b01978852015416968389019715158852604051998a99828b5251918a015260a0890190613388565b925192601f1993848983030160408a0152613388565b9251918684030190860152613388565b9051151560808301520390f35b3461030b575f36600319011261030b57604051601680548083525f918252602080840193927fd833147d7dc355ba459fc788f669e58cfaf9dc25ddcd0702e87d69c7b512428992915b828210611709576106d2856116fd818903826131ff565b604051918291826133e7565b83546001600160a01b0316865294850194600193840193909101906116e6565b3461030b575f36600319011261030b576020600254604051908152f35b3461030b57602036600319011261030b576001600160a01b03611767613222565b165f52600e602052602060405f2054604051908152f35b3461030b575f36600319011261030b57335f52601760205260ff60405f20541680156117c7575b6117ae906134da565b60206117bb600354613528565b80600355604051908152f35b505f546001600160a01b031633146117a5565b3461030b575f36600319011261030b57604051601480548083525f918252602080840193925f8051602061366e83398151915292915b828210611827576106d2856116fd818903826131ff565b83546001600160a01b031686529485019460019384019390910190611810565b3461030b5760031960403682011261030b57611861613222565b90602435906001600160401b03821161030b57608090823603011261030b576040519161188d836131e4565b60048201356001600160401b03811161030b576118b0906004369185010161324c565b835260248201356001600160401b03811161030b576118d5906004369185010161324c565b602084019081529160448101356001600160401b03811161030b57611911916119066064926004369184010161324c565b6040870152016132a1565b6060840152335f52601760205260ff60405f2054168015611d20575b611936906134da565b6001600160a01b03165f8181526009602052604090208351805192939192906001600160401b038211610d8857819061196f85546132ae565b601f8111611cd0575b50602090601f8311600114611c6c575f92611c61575b50508160011b915f199060031b1c19161782555b5180519093906001600160401b038111610d88576119c360018401546132ae565b601f8111611c19575b506020601f8211600114611bae5781929394955f92611ba3575b50508160011b915f199060031b1c19161760018301555b6040810151805160028401916001600160401b038211610d8857611a2183546132ae565b601f8111611b5e575b50602090601f8311600114611af1579282606093611a6c9796936003965f92611ae6575b50508160011b915f1990871b1c19161790555b015115159101613517565b805f52600a60205260405f20805460ff811615611a8557005b60ff19166001179055601554600160401b811015610d88576001810180601555811015611ad25760155f525f8051602061362e8339815191520180546001600160a01b0319169091179055005b634e487b7160e01b5f52603260045260245ffd5b015190508980611a4e565b90601f19831691845f5260205f20925f5b818110611b46575093611a6c979693600396936001938360609810611b2f575b505050811b019055611a61565b01515f1983891b60f8161c19169055898080611b22565b92936020600181928786015181550195019301611b02565b835f5260205f20601f840160051c81019160208510611b99575b601f0160051c01905b818110611b8e5750611a2a565b5f8155600101611b81565b9091508190611b78565b0151905085806119e6565b600184015f5260205f20905f5b601f1984168110611c01575060019394959683601f19811610611be9575b505050811b0160018301556119fd565b01515f1960f88460031b161c19169055858080611bd9565b9091602060018192858b015181550193019101611bbb565b600184015f5260205f20601f830160051c81019160208410611c57575b601f0160051c01905b818110611c4c57506119cc565b5f8155600101611c3f565b9091508190611c36565b01519050868061198e565b5f868152602081209350601f198516905b818110611cb85750908460019594939210611ca0575b505050811b0182556119a2565b01515f1960f88460031b161c19169055868080611c93565b92936020600181928786015181550195019301611c7d565b909150845f5260205f20601f840160051c81019160208510611d16575b90601f859493920160051c01905b818110611d085750611978565b5f8155849350600101611cfb565b9091508190611ced565b505f546001600160a01b0316331461192d565b3461030b57602036600319011261030b576004355f526013602052602060405f2054604051908152f35b3461030b5760031960403682011261030b57611d77613222565b90602435906001600160401b03821161030b5760e090823603011261030b5760405191611da3836131c9565b60048201356001600160401b03811161030b57611dc6906004369185010161324c565b835260248201356001600160401b03811161030b57611deb906004369185010161324c565b602084019081529160448101356001600160401b03811161030b57611e16906004369184010161324c565b604085015260648101356001600160401b03811161030b57611e3e906004369184010161324c565b60608501526084810135906001600160401b03821161030b57611e6960c4926004369184010161324c565b6080860152611e7a60a482016132a1565b60a0860152013560c0840152335f52601760205260ff60405f20541680156124bb575b611ea6906134da565b6001600160a01b03165f818152600b6020526040902083518051929491939192906001600160401b038211610d88578190611ee186546132ae565b601f811161246b575b50602090601f8311600114612403575f926123f8575b50508160011b915f199060031b1c19161783555b5180519093906001600160401b038111610d8857611f3560018501546132ae565b601f81116123b4575b506020601f82116001146123495781929394955f9261233e575b50508160011b915f199060031b1c19161760018401555b604082015180519093906001600160401b038111610d8857611f9460028301546132ae565b601f81116122fa575b506020601f821160011461228f5781929394955f92612284575b50508160011b915f199060031b1c19161760028201555b606083015180519093906001600160401b038111610d8857611ff360038401546132ae565b601f811161223c575b506020601f82116001146121d15781929394955f926121c6575b50508160011b915f199060031b1c19161760038301555b6080810151805160048401916001600160401b038211610d885761205183546132ae565b601f8111612181575b50602090601f831160011461211757918060c09492600696945f9261210c575b50508160011b915f199060031b1c19161790555b6120a160a0820151151560058601613517565b0151910155805f52600c60205260405f20805460ff8116156120bf57005b60ff19166001179055601454600160401b811015610d88576001810180601455811015611ad25760145f525f8051602061366e8339815191520180546001600160a01b0319169091179055005b01519050888061207a565b90601f19831691845f5260205f20925f5b81811061216957509260019285926006989660c0989610612151575b505050811b01905561208e565b01515f1960f88460031b161c19169055888080612144565b92936020600181928786015181550195019301612128565b835f5260205f20601f840160051c810191602085106121bc575b601f0160051c01905b8181106121b1575061205a565b5f81556001016121a4565b909150819061219b565b015190508580612016565b600384015f5260205f20905f5b601f1984168110612224575060019394959683601f1981161061220c575b505050811b01600383015561202d565b01515f1960f88460031b161c191690558580806121fc565b9091602060018192858b0151815501930191016121de565b600384015f5260205f20601f830160051c8101916020841061227a575b601f0160051c01905b81811061226f5750611ffc565b5f8155600101612262565b9091508190612259565b015190508580611fb7565b600283015f5260205f20905f5b601f19841681106122e2575060019394959683601f198116106122ca575b505050811b016002820155611fce565b01515f1960f88460031b161c191690558580806122ba565b9091602060018192858b01518155019301910161229c565b600283015f5260205f20601f830160051c810160208410612337575b601f830160051c8201811061232c575050611f9d565b5f8155600101612316565b5080612316565b015190508580611f58565b600185015f5260205f20905f5b601f198416811061239c575060019394959683601f19811610612384575b505050811b016001840155611f6f565b01515f1960f88460031b161c19169055858080612374565b9091602060018192858b015181550193019101612356565b600185015f5260205f20601f830160051c8101602084106123f1575b601f830160051c820181106123e6575050611f3e565b5f81556001016123d0565b50806123d0565b015190508680611f00565b9250855f5260205f20905f935b601f1984168510612450576001945083601f19811610612438575b505050811b018355611f14565b01515f1960f88460031b161c1916905586808061242b565b81810151835560209485019460019093019290910190612410565b909150855f5260205f20601f840160051c810191602085106124b1575b90601f859493920160051c01905b8181106124a35750611eea565b5f8155849350600101612496565b9091508190612488565b505f546001600160a01b03163314611e9d565b3461030b57602036600319011261030b5760043560155481101561030b5760155f525f8051602061362e83398151915201546040516001600160a01b039091168152602090f35b3461030b57602036600319011261030b5760043560145481101561030b5760145f525f8051602061366e83398151915201546040516001600160a01b039091168152602090f35b3461030b5760208060031936011261030b576004355f526012815260405f209081549161258883613536565b9261259660405194856131ff565b80845282840180925f52835f205f915b8383106126515750505050604051918083019381845251809452604083019360408160051b85010192915f955b8287106125e05785850386f35b909192938280600192603f1989820301855287519061262b60c083518352868060a01b0385850151168584015260408401516040840152606090808286015192850152830190613388565b9160808082015115159083015260a08091015191015296019201960195929190926125d3565b600686600192604099989951612666816131ae565b85548152848060a01b038587015416838201526002860154604082015261268f600387016132e6565b606082015260ff60048701541615156080820152600586015460a08201528152019201920191909594956125a6565b3461030b57602036600319011261030b576001600160a01b036126df613222565b165f52600d602052602060ff60405f2054166126fe60405180926133c6565bf35b3461030b57602036600319011261030b576001600160a01b03612721613222565b165f52600960205261277660405f20612739816132e6565b90612792612749600183016132e6565b9161278460ff600361275d600285016132e6565b9301541693604051968796608088526080880190613388565b908682036020880152613388565b908482036040860152613388565b90151560608301520390f35b3461030b57602036600319011261030b57335f52601760205260ff60405f20541680156127d7575b6127cf906134da565b600435600555005b505f546001600160a01b031633146127c6565b3461030b5760031960403682011261030b576001600160401b03906024359082821161030b57606090823603011261030b576040519061282982613193565b80600401358252602481013583811161030b5761284c906004369184010161324c565b6128606044602093848601938452016132a1565b9160408401928352335f526017815260ff60405f20541680156129b4575b612887906134da565b6004355f52600f815260405f209351845560019081850192518051968711610d88576128b384546132ae565b601f811161296e575b5081601f88116001146129045750958060029594938193610529995f946128f9575b50501b915f199060031b1c19161790555b5115159101613517565b0151925089806128de565b9190601f198816855f52835f20935f905b8282106129575750509160029695949391896105299a941061293f575b505050811b0190556128ef565b01515f1960f88460031b161c19169055878080612932565b808786978294978701518155019601940190612915565b845f52825f20601f890160051c810191848a106129aa575b601f0160051c019084905b82811061299f5750506128bc565b5f8155018490612991565b9091508190612986565b505f546001600160a01b0316331461287e565b3461030b575f36600319011261030b57335f52601760205260ff60405f2054168015612a10575b6129f7906134da565b6020612a04600154613528565b80600155604051908152f35b505f546001600160a01b031633146129ee565b3461030b57604036600319011261030b57612a3c613222565b335f52601760205260ff60405f2054168015612aa9575b612a5c906134da565b6001600160a01b03165f9081526007602052604090208054600160401b811015610d8857612a8f91600182018155613162565b81545f1960039290921b91821b191660243590911b179055005b505f546001600160a01b03163314612a53565b3461030b57602036600319011261030b576001600160a01b03612add613222565b165f52600a602052602060ff60405f2054166040519015158152f35b3461030b575f36600319011261030b57335f52601760205260ff60405f2054168015612b42575b612b29906134da565b6020612b36600454613528565b80600455604051908152f35b505f546001600160a01b03163314612b20565b3461030b57604036600319011261030b57612b6e613222565b335f52601760205260ff60405f2054168015612bb6575b612b8e906134da565b6001600160a01b03165f908152600e6020526040902080546024358101919082106107c15755005b505f546001600160a01b03163314612b85565b3461030b5760031960403682011261030b57602435906001600160401b03821161030b5761014090823603011261030b5760405190612c0782613177565b80600401358252612c1a60248201613238565b602083019081529060448101356001600160401b03811161030b57612c45906004369184010161324c565b604084019081529060648101356001600160401b03811161030b57612c70906004369184010161324c565b606085015260848101356001600160401b03811161030b57612cd491612c9f610124926004369184010161324c565b608087015260a481013560a087015260c481013560c087015260e481013560e0870152610104810135610100870152016132a1565b610120840152335f52601760205260ff60405f20541680156130db575b612cfa906134da565b6004355f9081526006602052604090208351815591516001830180546001600160a01b0319166001600160a01b03929092169190911790555180519092906001600160401b038111610d8857612d5360028401546132ae565b601f8111613097575b506020601f821160011461302d57819293945f92613022575b50508160011b915f199060031b1c19161760028301555b606081015180519092906001600160401b038111610d8857612db160038301546132ae565b601f8111612fde575b506020601f8211600114612f7457819293945f92612f69575b50508160011b915f199060031b1c19161760038201555b60808201518051906001600160401b038211610d8857612e0d60048401546132ae565b601f8111612f21575b50602090601f8311600114612eac57938260099361012093612e84975f92612ea1575b50508160011b915f199060031b1c19161760048501555b60a0810151600585015560c0810151600685015560e081015160078501556101008101516008850155015115159101613517565b6004355f908152600860205260409020805460ff19166001179055005b015190508780612e39565b90600484015f5260205f20915f5b601f1985168110612f0957508361012093612e849793600193600997601f19811610612ef1575b505050811b016004850155612e50565b01515f1960f88460031b161c19169055878080612ee1565b91926020600181928685015181550194019201612eba565b600484015f5260205f20601f840160051c81019160208510612f5f575b601f0160051c01905b818110612f545750612e16565b5f8155600101612f47565b9091508190612f3e565b015190508480612dd3565b600383015f5260205f20905f5b601f1984168110612fc65750600193949583601f19811610612fae575b505050811b016003820155612dea565b01515f1960f88460031b161c19169055848080612f9e565b9091602060018192858a015181550193019101612f81565b600383015f5260205f20601f830160051c81016020841061301b575b601f830160051c82018110613010575050612dba565b5f8155600101612ffa565b5080612ffa565b015190508480612d75565b600284015f5260205f20905f5b601f198416811061307f5750600193949583601f19811610613067575b505050811b016002830155612d8c565b01515f1960f88460031b161c19169055848080613057565b9091602060018192858a01518155019301910161303a565b600284015f5260205f20601f830160051c8101602084106130d4575b601f830160051c820181106130c9575050612d5c565b5f81556001016130b3565b50806130b3565b505f546001600160a01b03163314612cf1565b3461030b57602036600319011261030b5760043560165481101561030b5761311760209161314a565b905460405160039290921b1c6001600160a01b03168152f35b3461030b575f36600319011261030b576020906004548152f35b601654811015611ad25760165f5260205f2001905f90565b8054821015611ad2575f5260205f2001905f90565b61014081019081106001600160401b03821117610d8857604052565b606081019081106001600160401b03821117610d8857604052565b60c081019081106001600160401b03821117610d8857604052565b60e081019081106001600160401b03821117610d8857604052565b608081019081106001600160401b03821117610d8857604052565b601f909101601f19168101906001600160401b03821190821017610d8857604052565b600435906001600160a01b038216820361030b57565b35906001600160a01b038216820361030b57565b81601f8201121561030b578035906001600160401b038211610d885760405192613280601f8401601f1916602001856131ff565b8284526020838301011161030b57815f926020809301838601378301015290565b3590811515820361030b57565b90600182811c921680156132dc575b60208310146132c857565b634e487b7160e01b5f52602260045260245ffd5b91607f16916132bd565b9060405191825f82546132f8816132ae565b908184526020946001916001811690815f146133665750600114613328575b505050613326925003836131ff565b565b5f90815285812095935091905b81831061334e57505061332693508201015f8080613317565b85548884018501529485019487945091830191613335565b9250505061332694925060ff191682840152151560051b8201015f8080613317565b91908251928382525f5b8481106133b2575050825f602080949584010152601f8019910116010190565b602081830181015184830182015201613392565b9060048210156133d35752565b634e487b7160e01b5f52602160045260245ffd5b60209060206040818301928281528551809452019301915f5b82811061340e575050505090565b83516001600160a01b031685529381019392810192600101613400565b60208082019080835283518092528060408094019401925f905b83821061345457505050505090565b845180518752808401516001600160a01b0390811688860152818301511687830152606080820151908801526080808201519088015260a09081015115159087015260c09095019493820193600190910190613445565b8054821015611ad2575f52600660205f20910201905f90565b604090600319011261030b576004359060243590565b156134e157565b60405162461bcd60e51b815260206004820152600e60248201526d139bdd08185d5d1a1bdc9a5e995960921b6044820152606490fd5b9060ff801983541691151516179055565b5f1981146107c15760010190565b6001600160401b038111610d885760051b60200190565b8054600160401b811015610d885761356a916001820181556134ab565b611462578151815560208201516001820180546001600160a01b039283166001600160a01b0319918216179091556040840151600284018054919093169116179055606082015160038201556080820151600482015560a0909101516133269190151590600501613517565b5f546001600160a01b031633036135e957565b606460405162461bcd60e51b815260206004820152602060248201527f4f776e61626c653a2063616c6c6572206973206e6f7420746865206f776e65726044820152fdfe55f448fdea98c4d29eb340757ef0a66cd03dbb9538908a6a81d96026b71ec4758be0079c531659141344cd1fd0a4f28419497f9722a3daafe3b4186f6b6457e0ce6d7b5282bd9a3661ae061feed1dbda4e52ab073b1f9285be6e155d9c38d4eca164736f6c6343000818000a60c03461010a57601f611a2e38819003918201601f19168301916001600160401b0383118484101761010e57808492604094855283398101031261010a57610052602061004b83610122565b9201610122565b5f8054336001600160a01b0319821681178355604051946001600160a01b039390928416907f8be0079c531659141344cd1fd0a4f28419497f9722a3daafe3b4186f6b6457e09080a3600180551660805260a0526118f7908161013782396080518181816101fe015281816102a3015281816103c701528181610a0301528181610bd101528181610c4901528181610d7801528181610e720152818161106601526110d4015260a05181818161018801526106d80152f35b5f80fd5b634e487b7160e01b5f52604160045260245ffd5b51906001600160a01b038216820361010a5756fe60806040818152600480361015610020575b505050361561001e575f80fd5b005b5f925f3560e01c90816311aa5b34146110955750806311ce02671461105257806316d81b3814610de85780632148893f14610d3257806324d41a0314610c105780633c2575d514610b8e5780633ccfd60b146109d1578063715018a61461098b5780638642269e146103905780638da5cb5b146103685780639d4a225514610271578063b27e1697146101bb578063e80db5db146101735763f2fde38b03610011573461016f57602036600319011261016f576100db61124b565b906100e4611853565b6001600160a01b0391821692831561011d5750505f548260018060a01b03198216175f55165f805160206118cb8339815191525f80a380f35b906020608492519162461bcd60e51b8352820152602660248201527f4f776e61626c653a206e6577206f776e657220697320746865207a65726f206160448201526564647265737360d01b6064820152fd5b8280fd5b5050346101b757816003193601126101b757517f00000000000000000000000000000000000000000000000000000000000000006001600160a01b03168152602090f35b5080fd5b50903461016f57602036600319011261016f57826101d761124b565b82516385a3439360e01b81526001600160a01b0391821694810194909452839060249082907f0000000000000000000000000000000000000000000000000000000000000000165afa918215610267578361023e9493610242575b50505191829182611324565b0390f35b61025f9293503d8091833e61025781836112a3565b810190611569565b905f80610232565b81513d85823e3d90fd5b508290346101b757602091826003193601126103655783516346a4237b60e01b815282359281019290925280826024817f00000000000000000000000000000000000000000000000000000000000000006001600160a01b03165afa918215610359578192610335575b5083519280840190808552835180925280868601968360051b870101940192955b8287106103095785850386f35b909192938280610325600193603f198a820301865288516113b2565b96019201960195929190926102fc565b6103529192503d8084833e61034a81836112a3565b8101906116b1565b90846102db565b508351903d90823e3d90fd5b80fd5b5050346101b757816003193601126101b757905490516001600160a01b039091168152602090f35b50829060208060031936011261016f578135906103ab6117fd565b8451632e76c56d60e21b81528381018390526001600160a01b037f0000000000000000000000000000000000000000000000000000000000000000811696602494909290878287818c5afa91821561098157889261095d575b508351632bd57b5960e21b8152878101829052858188818d5afa801561095357899061091d575b610435915061166c565b61012082019182516108e95760e08101928351156108b85760c08201908151341061087f57878301928684511633146108445785518015610832575f190186528c3b1561082e578c858d8d8b9682968f96898e81519b8c9a8b998a986306ad0cb960e01b8a52890152870152825160448701528c5116606486015281015160848501610140905261018485016104ca9161138d565b606082015160431991828782030160a48801526104e69161138d565b6080830151918682030160c48701526104fe9161138d565b9260a082015160e4860152519c6101049d8e86015251610124850152610100015161014484015251151561016483015203925af180156107e757908a9161081a575b50868b8a88518094819363865d219760e01b83525af180156107e7579087916107f1575b50855163700f7b7360e11b815290818a818e5afa9081156107e7578a916107b6575b508034029034820414341517156107a45760649004928334039a348c11610792578a9b86849c98999a9b9c5116823b1561076c5788908d6105d88c5194859384936307c115ed60e01b855284016117b3565b038183865af1801561078857908891610770575b5050858351168851906105fe82611261565b858252338b830152898201523460608201524260808201528760a08201528684511692823b1561076c578c8980946106548f958e5198899788966375573ab160e11b8852339088015286015260448501906112e1565b5af18015610762578592918791610745575b50505116908551908233827f405b8e92032184041314dcddf305e0d97d13b103d3fa162eb2b1c760760bdc0a8980a434825242888301527f8fa4fb19835ecd208875d6ea2f7a57043c7a8dd31ec76d5bf7063073dfec264b873393a4806106d0575b826001805580f35b8280929181927f0000000000000000000000000000000000000000000000000000000000000000165af16107026117ce565b5015610710578481806106c8565b5162461bcd60e51b81529283015260139082015272119959481d1c985b9cd9995c8819985a5b1959606a1b6044820152606490fd5b61075191929350611290565b61075e578390858c610666565b8480fd5b87513d88823e3d90fd5b8880fd5b61077990611290565b61078457868d6105ec565b8680fd5b89513d8a823e3d90fd5b634e487b7160e01b8b5260118a52888bfd5b634e487b7160e01b8a5260118952878afd5b90508681813d83116107e0575b6107cd81836112a3565b810103126107dc57518b610586565b5f80fd5b503d6107c3565b86513d8c823e3d90fd5b813d8311610813575b61080481836112a3565b810103126107dc57858b610564565b503d6107fa565b61082390611290565b61076c57888b610540565b8b80fd5b634e487b7160e01b8d5260118c528a8dfd5b875162461bcd60e51b8152808c018a90526016818c01527510d85b9b9bdd08189d5e481bdddb881c1c9bd91d58dd60521b6044820152606490fd5b865162461bcd60e51b8152808b018990526014818b015273125b9cdd59999a58da595b9d081c185e5b595b9d60621b6044820152606490fd5b855162461bcd60e51b8152808a01889052600c818a01526b4f7574206f662073746f636b60a01b6044820152606490fd5b845162461bcd60e51b8152808901879052600f818901526e141c9bd91d58dd0819195b195d1959608a1b6044820152606490fd5b508581813d831161094c575b61093381836112a3565b8101031261076c576109476104359161145d565b61042b565b503d610929565b85513d8b823e3d90fd5b61097a9192503d808a833e61097281836112a3565b81019061146a565b9089610404565b84513d8a823e3d90fd5b83346103655780600319360112610365576109a4611853565b5f80546001600160a01b0319811682556001600160a01b03165f805160206118cb8339815191528280a380f35b50903461016f578260031936011261016f576109eb6117fd565b805163181fad3960e21b8152338382015291602091907f00000000000000000000000000000000000000000000000000000000000000006001600160a01b03168385602481845afa948515610b84578695610b55575b508415610b1a578086913b156101b7578184518092636405dd4560e11b8252818381610a708c338b84016117b3565b03925af18015610b1057610afc575b5080808087335af1610a8f6117ce565b5015610ac75750907fddc398b321237a8d40ac914388309c2f52a08c134e4dc4ce61e32f57cb7d80f191519283523392a26001805580f35b82606492519162461bcd60e51b8352820152601160248201527015da5d1a191c985dd85b0819985a5b1959607a1b6044820152fd5b610b0590611290565b61075e57845f610a7f565b84513d84823e3d90fd5b5082606492519162461bcd60e51b835282015260166024820152754e6f2062616c616e636520746f20776974686472617760501b6044820152fd5b9094508381813d8311610b7d575b610b6d81836112a3565b810103126107dc5751935f610a41565b503d610b63565b83513d88823e3d90fd5b50903461016f57602036600319011261016f5782610baa61124b565b825163c258f53160e01b81526001600160a01b0391821694810194909452839060249082907f0000000000000000000000000000000000000000000000000000000000000000165afa918215610267578361023e94936102425750505191829182611324565b50903461016f578060031936011261016f5781356024359160018060a01b0393828251916346a4237b60e01b83528201528581602481887f0000000000000000000000000000000000000000000000000000000000000000165afa918215610d2957508591610d0f575b50845b8151811015610d075783610c918284611644565b51511480610ce2575b610ca657600101610c7d565b600192939450610cb890608092611644565b5101527ffe09911b3ec9652ef94a11286713bd397f2fb090f28c62303451d8040ff62c628380a380f35b50846020610cf08385611644565b51015116331480610c9a5750848654163314610c9a565b505050505080f35b610d2391503d8087833e61034a81836112a3565b5f610c7a565b513d87823e3d90fd5b509190346101b7576020928360031936011261016f5783610d5161124b565b835163181fad3960e21b81526001600160a01b0391821693810193909352829060249082907f0000000000000000000000000000000000000000000000000000000000000000165afa928315610ddd5792610dae575b5051908152f35b9091508281813d8311610dd6575b610dc681836112a3565b810103126107dc5751905f610da7565b503d610dbc565b8251903d90823e3d90fd5b5090346107dc5760603660031901126107dc576024803592803592604435929091906001600160401b0384116107dc57366023850112156107dc578382013590610e31826112c6565b91610e3e855193846112a3565b808352602095368383830101116107dc57815f928489930183870137840101528351632bd57b5960e21b81528381018790527f00000000000000000000000000000000000000000000000000000000000000006001600160a01b03169086818481855afa8015610fd0575f9061101c575b610eb9915061166c565b600188101580611011575b15610fda578451632fb1c6b160e11b815292868486815f865af1938415610fd0575f94610fa1575b50855193610ef985611261565b84523387850152888685015260608401525f60808401524260a0840152803b156107dc57865f8695610f498296885198899788968795638061bc9360e01b875286015284015260448301906113b2565b03925af18015610f9757610f73575b50905f805160206118ab83398151915291519384523393a380f35b5f805160206118ab83398151915292919550610f8e90611290565b5f949091610f58565b82513d5f823e3d90fd5b9093508681813d8311610fc9575b610fb981836112a3565b810103126107dc5751925f610eec565b503d610faf565b86513d5f823e3d90fd5b845162461bcd60e51b815280850187905260128184015271526174696e67206d75737420626520312d3560701b6044820152606490fd5b506005881115610ec4565b508681813d831161104b575b61103281836112a3565b810103126107dc57611046610eb99161145d565b610eaf565b503d611028565b82346107dc575f3660031901126107dc57517f00000000000000000000000000000000000000000000000000000000000000006001600160a01b03168152602090f35b839150346107dc57816003193601126107dc576024356001600160a01b0381811694803593928690036107dc57632e76c56d60e21b83528083018490527f00000000000000000000000000000000000000000000000000000000000000008216925f81602481875afa908115610fd05783916020915f91611231575b5001511633036111ee578560245f92875195869384926385a3439360e01b84528301525afa9182156111e4575f926111c8575b505f5b82518110156111be578361115b8285611644565b515114806111a6575b61117057600101611147565b91905061117e929350611644565b505b7f187090b179fb7e8c2670a325ae40d84b5ef651c9293a379ac384d99257124f4e5f80a3005b503382866111b48487611644565b5101511614611164565b5050509050611180565b6111dd9192503d805f833e61025781836112a3565b9085611144565b84513d5f823e3d90fd5b606490602086519162461bcd60e51b8352820152601e60248201527f4f6e6c792073656c6c65722063616e206d61726b2064656c69766572656400006044820152fd5b61124591503d805f833e61097281836112a3565b89611111565b600435906001600160a01b03821682036107dc57565b60c081019081106001600160401b0382111761127c57604052565b634e487b7160e01b5f52604160045260245ffd5b6001600160401b03811161127c57604052565b601f909101601f19168101906001600160401b0382119082101761127c57604052565b6001600160401b03811161127c57601f01601f191660200190565b60a08091805184526020810151600180841b0380911660208601526040820151166040850152606081015160608501526080810151608085015201511515910152565b60209060206040818301928281528551809452019301915f5b82811061134b575050505090565b909192938260c08261136060019489516112e1565b0195019392910161133d565b5f5b83811061137d5750505f910152565b818101518382015260200161136e565b906020916113a68151809281855285808601910161136c565b601f01601f1916010190565b908151815260018060a01b0360208301511660208201526040820151604082015260a0806113ef606085015160c0606086015260c085019061138d565b93608081015115156080850152015191015290565b51906001600160a01b03821682036107dc57565b81601f820112156107dc57805161142e816112c6565b9261143c60405194856112a3565b818452602082840101116107dc5761145a916020808501910161136c565b90565b519081151582036107dc57565b6020818303126107dc5780516001600160401b03918282116107dc5701906101409283838203126107dc576040519384018481108382111761127c57604052825184526114b960208401611404565b602085015260408301518281116107dc57816114d6918501611418565b604085015260608301518281116107dc57816114f3918501611418565b606085015260808301519182116107dc5761150f918301611418565b608083015260a081015160a083015260c081015160c083015260e081015160e0830152610100808201519083015261154b61012080920161145d565b9082015290565b6001600160401b03811161127c5760051b60200190565b60209081818403126107dc578051906001600160401b0382116107dc570182601f820112156107dc5780519161159e83611552565b9360406115ae60405196876112a3565b848652828601918360c0809702860101948186116107dc578401925b8584106115db575050505050505090565b86848303126107dc5784879184516115f281611261565b86518152611601838801611404565b83820152611610868801611404565b86820152606080880151908201526080808801519082015260a061163581890161145d565b908201528152019301926115ca565b80518210156116585760209160051b010190565b634e487b7160e01b5f52603260045260245ffd5b1561167357565b60405162461bcd60e51b8152602060048201526016602482015275141c9bd91d58dd08191bd95cc81b9bdd08195e1a5cdd60521b6044820152606490fd5b9060209081838203126107dc5782516001600160401b03938482116107dc57019080601f830112156107dc5781516116e881611552565b946040906116f960405197886112a3565b828752858088019360051b860101948486116107dc57868101935b86851061172657505050505050505090565b84518381116107dc57820160c09182601f19838a0301126107dc57855161174c81611261565b8a830151815261175d878401611404565b8b820152606093848401518883015260809081850151948886116107dc578d9661178c8d898099850101611418565b9085015260a09261179e84830161145d565b90850152015190820152815201940193611714565b6001600160a01b039091168152602081019190915260400190565b3d156117f8573d906117df826112c6565b916117ed60405193846112a3565b82523d5f602084013e565b606090565b60026001541461180e576002600155565b60405162461bcd60e51b815260206004820152601f60248201527f5265656e7472616e637947756172643a207265656e7472616e742063616c6c006044820152606490fd5b5f546001600160a01b0316330361186657565b606460405162461bcd60e51b815260206004820152602060248201527f4f776e61626c653a2063616c6c6572206973206e6f7420746865206f776e65726044820152fdfe52604caa1710245cf3f94d9ba89ff921bb23d98741f57a258794b86f3ba8e7fc8be0079c531659141344cd1fd0a4f28419497f9722a3daafe3b4186f6b6457e0a164736f6c6343000818000a8be0079c531659141344cd1fd0a4f28419497f9722a3daafe3b4186f6b6457e00441abf574021357ac657a1ea4fbfa96c4c3f39a68bc29c9d793d337c0e86fada164736f6c6343000818000a",
  "linkReferences": {},
  "deployedLinkReferences": {}
}