{
  "_format": "hh-sol-artifact-1",
  "contractName": "CryptoMart",
  "sourceName": "contracts/CryptoMartProxy.sol",
  "abi": [
    {
      "inputs": [
        {
          "internalType": "address payable",
          "name": "_factory",
          "type": "address"
        }
      ],
      "stateMutability": "nonpayable",
      "type": "constructor"
    },
    {
      "anonymous": false,
      "inputs": [
        {
          "indexed": true,
          "internalType": "address",
          "name": "seller",
          "type": "address"
        },
        {
          "indexed": false,
          "internalType": "uint256",
          "name": "amount",
          "type": "uint256"
        }
      ],
      "name": "BalanceWithdrawn",
      "type": "event"
    },
    {
      "anonymous": false,
      "inputs": [
        {
          "indexed": true,
          "internalType": "uint256",
          "name": "categoryId",
          "type": "uint256"
        },
        {
          "indexed": false,
          "internalType": "string",
          "name": "name",
          "type": "string"
        }
      ],
      "name": "CategoryCreated",
      "type": "event"
    },
    {
      "anonymous": false,
      "inputs": [
        {
          "indexed": true,
          "internalType": "uint256",
          "name": "productId",
          "type": "uint256"
        },
        {
          "indexed": true,
          "internalType": "address",
          "name": "seller",
          "type": "address"
        },
        {
          "indexed": false,
          "internalType": "string",
          "name": "name",
          "type": "string"
        },
        {
          "indexed": false,
          "internalType": "uint256",
          "name": "cost",
          "type": "uint256"
        }
      ],
      "name": "ProductCreated",
      "type": "event"
    },
    {
      "anonymous": false,
      "inputs": [
        {
          "indexed": true,
          "internalType": "uint256",
          "name": "productId",
          "type": "uint256"
        }
      ],
      "name": "ProductDeleted",
      "type": "event"
    },
    {
      "anonymous": false,
      "inputs": [
        {
          "indexed": true,
          "internalType": "uint256",
          "name": "productId",
          "type": "uint256"
        },
        {
          "indexed": true,
          "internalType": "address",
          "name": "buyer",
          "type": "address"
        },
        {
          "indexed": true,
          "internalType": "address",
          "name": "seller",
          "type": "address"
        }
      ],
      "name": "ProductPurchased",
      "type": "event"
    },
    {
      "anonymous": false,
      "inputs": [
        {
          "indexed": true,
          "internalType": "uint256",
          "name": "productId",
          "type": "uint256"
        }
      ],
      "name": "ProductUpdated",
      "type": "event"
    },
    {
      "anonymous": false,
      "inputs": [
        {
          "indexed": true,
          "internalType": "uint256",
          "name": "productId",
          "type": "uint256"
        },
        {
          "indexed": true,
          "internalType": "address",
          "name": "reviewer",
          "type": "address"
        },
        {
          "indexed": false,
          "internalType": "uint256",
          "name": "rating",
          "type": "uint256"
        }
      ],
      "name": "ReviewCreated",
      "type": "event"
    },
    {
      "anonymous": false,
      "inputs": [
        {
          "indexed": true,
          "internalType": "address",
          "name": "seller",
          "type": "address"
        },
        {
          "indexed": false,
          "internalType": "string",
          "name": "businessName",
          "type": "string"
        }
      ],
      "name": "SellerRegistered",
      "type": "event"
    },
    {
      "anonymous": false,
      "inputs": [
        {
          "indexed": true,
          "internalType": "address",
          "name": "user",
          "type": "address"
        },
        {
          "indexed": false,
          "internalType": "string",
          "name": "name",
          "type": "string"
        }
      ],
      "name": "UserRegistered",
      "type": "event"
    },
    {
      "inputs": [
        {
          "internalType": "uint256",
          "name": "productId",
          "type": "uint256"
        }
      ],
      "name": "buyProduct",
      "outputs": [],
      "stateMutability": "payable",
      "type": "function"
    },
    {
      "inputs": [
        {
          "internalType": "uint256",
          "name": "newPct",
          "type": "uint256"
        }
      ],
      "name": "changeServicePct",
      "outputs": [],
      "stateMutability": "nonpayable",
      "type": "function"
    },
    {
      "inputs": [],
      "name": "coreContract",
      "outputs": [
        {
          "internalType": "contract CryptoMartCore",
          "name": "",
          "type": "address"
        }
      ],
      "stateMutability": "view",
      "type": "function"
    },
    {
      "inputs": [
        {
          "internalType": "string",
          "name": "name",
          "type": "string"
        }
      ],
      "name": "createCategory",
      "outputs": [],
      "stateMutability": "nonpayable",
      "type": "function"
    },
    {
      "inputs": [
        {
          "internalType": "string",
          "name": "name",
          "type": "string"
        },
        {
          "internalType": "string",
          "name": "description",
          "type": "string"
        },
        {
          "internalType": "string",
          "name": "image",
          "type": "string"
        },
        {
          "internalType": "uint256",
          "name": "categoryId",
          "type": "uint256"
        },
        {
          "internalType": "uint256",
          "name": "cost",
          "type": "uint256"
        },
        {
          "internalType": "uint256",
          "name": "stock",
          "type": "uint256"
        }
      ],
      "name": "createProduct",
      "outputs": [],
      "stateMutability": "nonpayable",
      "type": "function"
    },
    {
      "inputs": [
        {
          "internalType": "uint256",
          "name": "productId",
          "type": "uint256"
        },
        {
          "internalType": "uint256",
          "name": "rating",
          "type": "uint256"
        },
        {
          "internalType": "string",
          "name": "comment",
          "type": "string"
        }
      ],
      "name": "createReview",
      "outputs": [],
      "stateMutability": "nonpayable",
      "type": "function"
    },
    {
      "inputs": [
        {
          "internalType": "uint256",
          "name": "",
          "type": "uint256"
        },
        {
          "internalType": "string[]",
          "name": "names",
          "type": "string[]"
        }
      ],
      "name": "createSubCategoriesBulk",
      "outputs": [],
      "stateMutability": "nonpayable",
      "type": "function"
    },
    {
      "inputs": [
        {
          "internalType": "uint256",
          "name": "",
          "type": "uint256"
        },
        {
          "internalType": "string",
          "name": "name",
          "type": "string"
        }
      ],
      "name": "createSubCategory",
      "outputs": [],
      "stateMutability": "nonpayable",
      "type": "function"
    },
    {
      "inputs": [
        {
          "internalType": "uint256",
          "name": "id",
          "type": "uint256"
        }
      ],
      "name": "deleteCategory",
      "outputs": [],
      "stateMutability": "nonpayable",
      "type": "function"
    },
    {
      "inputs": [
        {
          "internalType": "uint256",
          "name": "",
          "type": "uint256"
        }
      ],
      "name": "deleteProduct",
      "outputs": [],
      "stateMutability": "pure",
      "type": "function"
    },
    {
      "inputs": [
        {
          "internalType": "uint256",
          "name": "productId",
          "type": "uint256"
        },
        {
          "internalType": "uint256",
          "name": "reviewId",
          "type": "uint256"
        }
      ],
      "name": "deleteReview",
      "outputs": [],
      "stateMutability": "nonpayable",
      "type": "function"
    },
    {
      "inputs": [
        {
          "internalType": "uint256",
          "name": "id",
          "type": "uint256"
        }
      ],
      "name": "deleteSubCategory",
      "outputs": [],
      "stateMutability": "nonpayable",
      "type": "function"
    },
    {
      "inputs": [],
      "name": "factory",
      "outputs": [
        {
          "internalType": "contract CryptoMartFactory",
          "name": "",
          "type": "address"
        }
      ],
      "stateMutability": "view",
      "type": "function"
    },
    {
      "inputs": [],
      "name": "getAllCategories",
      "outputs": [
        {
          "components": [
            {
              "internalType": "uint256",
              "name": "id",
              "type": "uint256"
            },
            {
              "internalType": "string",
              "name": "name",
              "type": "string"
            },
            {
              "internalType": "bool",
              "name": "isActive",
              "type": "bool"
            }
          ],
          "internalType": "struct CryptoMartStorage.CategoryStruct[]",
          "name": "",
          "type": "tuple[]"
        }
      ],
      "stateMutability": "view",
      "type": "function"
    },
    {
      "inputs": [],
      "name": "getAllProducts",
      "outputs": [
        {
          "components": [
            {
              "internalType": "uint256",
              "name": "id",
              "type": "uint256"
            },
            {
              "internalType": "address",
              "name": "seller",
              "type": "address"
            },
            {
              "internalType": "string",
              "name": "name",
              "type": "string"
            },
            {
              "internalType": "string",
              "name": "description",
              "type": "string"
            },
            {
              "internalType": "string",
              "name": "image",
              "type": "string"
            },
            {
              "internalType": "uint256",
              "name": "categoryId",
              "type": "uint256"
            },
            {
              "internalType": "uint256",
              "name": "cost",
              "type": "uint256"
            },
            {
              "internalType": "uint256",
              "name": "stock",
              "type": "uint256"
            },
            {
              "internalType": "uint256",
              "name": "timestamp",
              "type": "uint256"
            },
            {
              "internalType": "bool",
              "name": "deleted",
              "type": "bool"
            }
          ],
          "internalType": "struct CryptoMartStorage.ProductStruct[]",
          "name": "",
          "type": "tuple[]"
        }
      ],
      "stateMutability": "view",
      "type": "function"
    },
    {
      "inputs": [],
      "name": "getAllRegisteredSellers",
      "outputs": [
        {
          "internalType": "address[]",
          "name": "",
          "type": "address[]"
        }
      ],
      "stateMutability": "view",
      "type": "function"
    },
    {
      "inputs": [],
      "name": "getAllSellers",
      "outputs": [
        {
          "internalType": "address[]",
          "name": "",
          "type": "address[]"
        }
      ],
      "stateMutability": "view",
      "type": "function"
    },
    {
      "inputs": [
        {
          "internalType": "address",
          "name": "buyer",
          "type": "address"
        }
      ],
      "name": "getBuyerPurchaseHistory",
      "outputs": [
        {
          "components": [
            {
              "internalType": "uint256",
              "name": "productId",
              "type": "uint256"
            },
            {
              "internalType": "address",
              "name": "buyer",
              "type": "address"
            },
            {
              "internalType": "address",
              "name": "seller",
              "type": "address"
            },
            {
              "internalType": "uint256",
              "name": "totalAmount",
              "type": "uint256"
            },
            {
              "internalType": "uint256",
              "name": "timestamp",
              "type": "uint256"
            },
            {
              "internalType": "bool",
              "name": "isDelivered",
              "type": "bool"
            }
          ],
          "internalType": "struct CryptoMartStorage.PurchaseStruct[]",
          "name": "",
          "type": "tuple[]"
        }
      ],
      "stateMutability": "view",
      "type": "function"
    },
    {
      "inputs": [
        {
          "internalType": "uint256",
          "name": "id",
          "type": "uint256"
        }
      ],
      "name": "getCategory",
      "outputs": [
        {
          "internalType": "uint256",
          "name": "",
          "type": "uint256"
        },
        {
          "internalType": "string",
          "name": "",
          "type": "string"
        },
        {
          "internalType": "bool",
          "name": "",
          "type": "bool"
        },
        {
          "internalType": "uint256[]",
          "name": "",
          "type": "uint256[]"
        }
      ],
      "stateMutability": "view",
      "type": "function"
    },
    {
      "inputs": [],
      "name": "getFactoryInfo",
      "outputs": [
        {
          "internalType": "address",
          "name": "factoryAddress",
          "type": "address"
        },
        {
          "internalType": "bool",
          "name": "isDeployed",
          "type": "bool"
        },
        {
          "internalType": "uint256",
          "name": "deploymentTime",
          "type": "uint256"
        },
        {
          "internalType": "string",
          "name": "version",
          "type": "string"
        }
      ],
      "stateMutability": "view",
      "type": "function"
    },
    {
      "inputs": [],
      "name": "getMyProducts",
      "outputs": [
        {
          "components": [
            {
              "internalType": "uint256",
              "name": "id",
              "type": "uint256"
            },
            {
              "internalType": "address",
              "name": "seller",
              "type": "address"
            },
            {
              "internalType": "string",
              "name": "name",
              "type": "string"
            },
            {
              "internalType": "string",
              "name": "description",
              "type": "string"
            },
            {
              "internalType": "string",
              "name": "image",
              "type": "string"
            },
            {
              "internalType": "uint256",
              "name": "categoryId",
              "type": "uint256"
            },
            {
              "internalType": "uint256",
              "name": "cost",
              "type": "uint256"
            },
            {
              "internalType": "uint256",
              "name": "stock",
              "type": "uint256"
            },
            {
              "internalType": "uint256",
              "name": "timestamp",
              "type": "uint256"
            },
            {
              "internalType": "bool",
              "name": "deleted",
              "type": "bool"
            }
          ],
          "internalType": "struct CryptoMartStorage.ProductStruct[]",
          "name": "",
          "type": "tuple[]"
        }
      ],
      "stateMutability": "view",
      "type": "function"
    },
    {
      "inputs": [],
      "name": "getPendingVerificationUsers",
      "outputs": [
        {
          "internalType": "address[]",
          "name": "",
          "type": "address[]"
        }
      ],
      "stateMutability": "view",
      "type": "function"
    },
    {
      "inputs": [
        {
          "internalType": "uint256",
          "name": "productId",
          "type": "uint256"
        }
      ],
      "name": "getProduct",
      "outputs": [
        {
          "components": [
            {
              "internalType": "uint256",
              "name": "id",
              "type": "uint256"
            },
            {
              "internalType": "address",
              "name": "seller",
              "type": "address"
            },
            {
              "internalType": "string",
              "name": "name",
              "type": "string"
            },
            {
              "internalType": "string",
              "name": "description",
              "type": "string"
            },
            {
              "internalType": "string",
              "name": "image",
              "type": "string"
            },
            {
              "internalType": "uint256",
              "name": "categoryId",
              "type": "uint256"
            },
            {
              "internalType": "uint256",
              "name": "cost",
              "type": "uint256"
            },
            {
              "internalType": "uint256",
              "name": "stock",
              "type": "uint256"
            },
            {
              "internalType": "uint256",
              "name": "timestamp",
              "type": "uint256"
            },
            {
              "internalType": "bool",
              "name": "deleted",
              "type": "bool"
            }
          ],
          "internalType": "struct CryptoMartStorage.ProductStruct",
          "name": "",
          "type": "tuple"
        }
      ],
      "stateMutability": "view",
      "type": "function"
    },
    {
      "inputs": [
        {
          "internalType": "uint256",
          "name": "categoryId",
          "type": "uint256"
        }
      ],
      "name": "getProductsByCategory",
      "outputs": [
        {
          "components": [
            {
              "internalType": "uint256",
              "name": "id",
              "type": "uint256"
            },
            {
              "internalType": "address",
              "name": "seller",
              "type": "address"
            },
            {
              "internalType": "string",
              "name": "name",
              "type": "string"
            },
            {
              "internalType": "string",
              "name": "description",
              "type": "string"
            },
            {
              "internalType": "string",
              "name": "image",
              "type": "string"
            },
            {
              "internalType": "uint256",
              "name": "categoryId",
              "type": "uint256"
            },
            {
              "internalType": "uint256",
              "name": "cost",
              "type": "uint256"
            },
            {
              "internalType": "uint256",
              "name": "stock",
              "type": "uint256"
            },
            {
              "internalType": "uint256",
              "name": "timestamp",
              "type": "uint256"
            },
            {
              "internalType": "bool",
              "name": "deleted",
              "type": "bool"
            }
          ],
          "internalType": "struct CryptoMartStorage.ProductStruct[]",
          "name": "",
          "type": "tuple[]"
        }
      ],
      "stateMutability": "view",
      "type": "function"
    },
    {
      "inputs": [
        {
          "internalType": "uint256",
          "name": "productId",
          "type": "uint256"
        }
      ],
      "name": "getReviews",
      "outputs": [
        {
          "components": [
            {
              "internalType": "uint256",
              "name": "reviewId",
              "type": "uint256"
            },
            {
              "internalType": "address",
              "name": "reviewer",
              "type": "address"
            },
            {
              "internalType": "uint256",
              "name": "rating",
              "type": "uint256"
            },
            {
              "internalType": "string",
              "name": "comment",
              "type": "string"
            },
            {
              "internalType": "bool",
              "name": "deleted",
              "type": "bool"
            },
            {
              "internalType": "uint256",
              "name": "timestamp",
              "type": "uint256"
            }
          ],
          "internalType": "struct CryptoMartStorage.ReviewStruct[]",
          "name": "",
          "type": "tuple[]"
        }
      ],
      "stateMutability": "view",
      "type": "function"
    },
    {
      "inputs": [
        {
          "internalType": "address",
          "name": "seller",
          "type": "address"
        }
      ],
      "name": "getSeller",
      "outputs": [
        {
          "components": [
            {
              "internalType": "string",
              "name": "businessName",
              "type": "string"
            },
            {
              "internalType": "string",
              "name": "description",
              "type": "string"
            },
            {
              "internalType": "string",
              "name": "email",
              "type": "string"
            },
            {
              "internalType": "string",
              "name": "phone",
              "type": "string"
            },
            {
              "internalType": "string",
              "name": "logo",
              "type": "string"
            },
            {
              "internalType": "bool",
              "name": "isRegistered",
              "type": "bool"
            },
            {
              "internalType": "uint256",
              "name": "registeredAt",
              "type": "uint256"
            }
          ],
          "internalType": "struct CryptoMartStorage.SellerProfile",
          "name": "",
          "type": "tuple"
        },
        {
          "internalType": "enum CryptoMartStorage.SellerStatus",
          "name": "",
          "type": "uint8"
        }
      ],
      "stateMutability": "view",
      "type": "function"
    },
    {
      "inputs": [
        {
          "internalType": "address",
          "name": "seller",
          "type": "address"
        }
      ],
      "name": "getSellerBalance",
      "outputs": [
        {
          "internalType": "uint256",
          "name": "",
          "type": "uint256"
        }
      ],
      "stateMutability": "view",
      "type": "function"
    },
    {
      "inputs": [
        {
          "internalType": "address",
          "name": "seller",
          "type": "address"
        }
      ],
      "name": "getSellerProducts",
      "outputs": [
        {
          "components": [
            {
              "internalType": "uint256",
              "name": "id",
              "type": "uint256"
            },
            {
              "internalType": "address",
              "name": "seller",
              "type": "address"
            },
            {
              "internalType": "string",
              "name": "name",
              "type": "string"
            },
            {
              "internalType": "string",
              "name": "description",
              "type": "string"
            },
            {
              "internalType": "string",
              "name": "image",
              "type": "string"
            },
            {
              "internalType": "uint256",
              "name": "categoryId",
              "type": "uint256"
            },
            {
              "internalType": "uint256",
              "name": "cost",
              "type": "uint256"
            },
            {
              "internalType": "uint256",
              "name": "stock",
              "type": "uint256"
            },
            {
              "internalType": "uint256",
              "name": "timestamp",
              "type": "uint256"
            },
            {
              "internalType": "bool",
              "name": "deleted",
              "type": "bool"
            }
          ],
          "internalType": "struct CryptoMartStorage.ProductStruct[]",
          "name": "",
          "type": "tuple[]"
        }
      ],
      "stateMutability": "view",
      "type": "function"
    },
    {
      "inputs": [
        {
          "internalType": "address",
          "name": "seller",
          "type": "address"
        }
      ],
      "name": "getSellerProfile",
      "outputs": [
        {
          "components": [
            {
              "internalType": "string",
              "name": "businessName",
              "type": "string"
            },
            {
              "internalType": "string",
              "name": "description",
              "type": "string"
            },
            {
              "internalType": "string",
              "name": "email",
              "type": "string"
            },
            {
              "internalType": "string",
              "name": "phone",
              "type": "string"
            },
            {
              "internalType": "string",
              "name": "logo",
              "type": "string"
            },
            {
              "internalType": "bool",
              "name": "isRegistered",
              "type": "bool"
            },
            {
              "internalType": "uint256",
              "name": "registeredAt",
              "type": "uint256"
            }
          ],
          "internalType": "struct CryptoMartStorage.SellerProfile",
          "name": "",
          "type": "tuple"
        }
      ],
      "stateMutability": "view",
      "type": "function"
    },
    {
      "inputs": [
        {
          "internalType": "address",
          "name": "seller",
          "type": "address"
        }
      ],
      "name": "getSellerPurchaseHistory",
      "outputs": [
        {
          "components": [
            {
              "internalType": "uint256",
              "name": "productId",
              "type": "uint256"
            },
            {
              "internalType": "address",
              "name": "buyer",
              "type": "address"
            },
            {
              "internalType": "address",
              "name": "seller",
              "type": "address"
            },
            {
              "internalType": "uint256",
              "name": "totalAmount",
              "type": "uint256"
            },
            {
              "internalType": "uint256",
              "name": "timestamp",
              "type": "uint256"
            },
            {
              "internalType": "bool",
              "name": "isDelivered",
              "type": "bool"
            }
          ],
          "internalType": "struct CryptoMartStorage.PurchaseStruct[]",
          "name": "",
          "type": "tuple[]"
        }
      ],
      "stateMutability": "view",
      "type": "function"
    },
    {
      "inputs": [
        {
          "internalType": "address",
          "name": "seller",
          "type": "address"
        }
      ],
      "name": "getSellerStatus",
      "outputs": [
        {
          "internalType": "enum CryptoMartStorage.SellerStatus",
          "name": "",
          "type": "uint8"
        }
      ],
      "stateMutability": "view",
      "type": "function"
    },
    {
      "inputs": [
        {
          "internalType": "uint256",
          "name": "",
          "type": "uint256"
        }
      ],
      "name": "getSubCategories",
      "outputs": [
        {
          "internalType": "uint256[]",
          "name": "",
          "type": "uint256[]"
        }
      ],
      "stateMutability": "pure",
      "type": "function"
    },
    {
      "inputs": [
        {
          "internalType": "uint256",
          "name": "id",
          "type": "uint256"
        }
      ],
      "name": "getSubCategory",
      "outputs": [
        {
          "internalType": "uint256",
          "name": "",
          "type": "uint256"
        },
        {
          "internalType": "string",
          "name": "",
          "type": "string"
        },
        {
          "internalType": "uint256",
          "name": "",
          "type": "uint256"
        },
        {
          "internalType": "bool",
          "name": "",
          "type": "bool"
        }
      ],
      "stateMutability": "view",
      "type": "function"
    },
    {
      "inputs": [],
      "name": "getSystemStats",
      "outputs": [
        {
          "internalType": "uint256",
          "name": "totalProducts",
          "type": "uint256"
        },
        {
          "internalType": "uint256",
          "name": "totalSales",
          "type": "uint256"
        },
        {
          "internalType": "uint256",
          "name": "totalCategories",
          "type": "uint256"
        },
        {
          "internalType": "uint256",
          "name": "serviceFee",
          "type": "uint256"
        }
      ],
      "stateMutability": "view",
      "type": "function"
    },
    {
      "inputs": [],
      "name": "getTotalProducts",
      "outputs": [
        {
          "internalType": "uint256",
          "name": "",
          "type": "uint256"
        }
      ],
      "stateMutability": "view",
      "type": "function"
    },
    {
      "inputs": [],
      "name": "getTotalSales",
      "outputs": [
        {
          "internalType": "uint256",
          "name": "",
          "type": "uint256"
        }
      ],
      "stateMutability": "view",
      "type": "function"
    },
    {
      "inputs": [
        {
          "internalType": "address",
          "name": "user",
          "type": "address"
        }
      ],
      "name": "getUser",
      "outputs": [
        {
          "components": [
            {
              "internalType": "string",
              "name": "name",
              "type": "string"
            },
            {
              "internalType": "string",
              "name": "email",
              "type": "string"
            },
            {
              "internalType": "string",
              "name": "avatar",
              "type": "string"
            },
            {
              "internalType": "bool",
              "name": "isRegistered",
              "type": "bool"
            }
          ],
          "internalType": "struct CryptoMartStorage.UserProfile",
          "name": "",
          "type": "tuple"
        }
      ],
      "stateMutability": "view",
      "type": "function"
    },
    {
      "inputs": [],
      "name": "grantOwnerSellerAccess",
      "outputs": [],
      "stateMutability": "nonpayable",
      "type": "function"
    },
    {
      "inputs": [
        {
          "internalType": "uint256",
          "name": "productId",
          "type": "uint256"
        },
        {
          "internalType": "address",
          "name": "buyer",
          "type": "address"
        }
      ],
      "name": "markPurchaseDelivered",
      "outputs": [],
      "stateMutability": "nonpayable",
      "type": "function"
    },
    {
      "inputs": [],
      "name": "owner",
      "outputs": [
        {
          "internalType": "address",
          "name": "",
          "type": "address"
        }
      ],
      "stateMutability": "view",
      "type": "function"
    },
    {
      "inputs": [],
      "name": "refreshContractReferences",
      "outputs": [],
      "stateMutability": "nonpayable",
      "type": "function"
    },
    {
      "inputs": [
        {
          "internalType": "string",
          "name": "businessName",
          "type": "string"
        },
        {
          "internalType": "string",
          "name": "description",
          "type": "string"
        },
        {
          "internalType": "string",
          "name": "email",
          "type": "string"
        },
        {
          "internalType": "string",
          "name": "phone",
          "type": "string"
        },
        {
          "internalType": "string",
          "name": "logo",
          "type": "string"
        }
      ],
      "name": "registerSeller",
      "outputs": [],
      "stateMutability": "nonpayable",
      "type": "function"
    },
    {
      "inputs": [
        {
          "internalType": "string",
          "name": "name",
          "type": "string"
        },
        {
          "internalType": "string",
          "name": "email",
          "type": "string"
        },
        {
          "internalType": "string",
          "name": "avatar",
          "type": "string"
        }
      ],
      "name": "registerUser",
      "outputs": [],
      "stateMutability": "nonpayable",
      "type": "function"
    },
    {
      "inputs": [
        {
          "internalType": "address",
          "name": "seller",
          "type": "address"
        }
      ],
      "name": "registeredSellers",
      "outputs": [
        {
          "internalType": "bool",
          "name": "",
          "type": "bool"
        }
      ],
      "stateMutability": "view",
      "type": "function"
    },
    {
      "inputs": [
        {
          "internalType": "address",
          "name": "user",
          "type": "address"
        }
      ],
      "name": "registeredUsers",
      "outputs": [
        {
          "internalType": "bool",
          "name": "",
          "type": "bool"
        }
      ],
      "stateMutability": "view",
      "type": "function"
    },
    {
      "inputs": [],
      "name": "servicePct",
      "outputs": [
        {
          "internalType": "uint256",
          "name": "",
          "type": "uint256"
        }
      ],
      "stateMutability": "view",
      "type": "function"
    },
    {
      "inputs": [],
      "name": "storageContract",
      "outputs": [
        {
          "internalType": "contract CryptoMartStorage",
          "name": "",
          "type": "address"
        }
      ],
      "stateMutability": "view",
      "type": "function"
    },
    {
      "inputs": [],
      "name": "transactionsContract",
      "outputs": [
        {
          "internalType": "contract CryptoMartTransactions",
          "name": "",
          "type": "address"
        }
      ],
      "stateMutability": "view",
      "type": "function"
    },
    {
      "inputs": [
        {
          "internalType": "uint256",
          "name": "id",
          "type": "uint256"
        },
        {
          "internalType": "string",
          "name": "name",
          "type": "string"
        },
        {
          "internalType": "bool",
          "name": "isActive",
          "type": "bool"
        }
      ],
      "name": "updateCategory",
      "outputs": [],
      "stateMutability": "nonpayable",
      "type": "function"
    },
    {
      "inputs": [
        {
          "internalType": "uint256",
          "name": "",
          "type": "uint256"
        },
        {
          "internalType": "string",
          "name": "",
          "type": "string"
        },
        {
          "internalType": "string",
          "name": "",
          "type": "string"
        },
        {
          "internalType": "string",
          "name": "",
          "type": "string"
        },
        {
          "internalType": "uint256",
          "name": "",
          "type": "uint256"
        },
        {
          "internalType": "uint256",
          "name": "",
          "type": "uint256"
        },
        {
          "internalType": "uint256",
          "name": "",
          "type": "uint256"
        }
      ],
      "name": "updateProduct",
      "outputs": [],
      "stateMutability": "pure",
      "type": "function"
    },
    {
      "inputs": [
        {
          "internalType": "address",
          "name": "seller",
          "type": "address"
        },
        {
          "internalType": "enum CryptoMartStorage.SellerStatus",
          "name": "status",
          "type": "uint8"
        }
      ],
      "name": "updateSellerStatus",
      "outputs": [],
      "stateMutability": "nonpayable",
      "type": "function"
    },
    {
      "inputs": [
        {
          "internalType": "uint256",
          "name": "id",
          "type": "uint256"
        },
        {
          "internalType": "string",
          "name": "name",
          "type": "string"
        },
        {
          "internalType": "bool",
          "name": "isActive",
          "type": "bool"
        }
      ],
      "name": "updateSubCategory",
      "outputs": [],
      "stateMutability": "nonpayable",
      "type": "function"
    },
    {
      "inputs": [],
      "name": "withdraw",
      "outputs": [],
      "stateMutability": "nonpayable",
      "type": "function"
    },
    {
      "inputs": [],
      "name": "withdrawServiceFees",
      "outputs": [],
      "stateMutability": "nonpayable",
      "type": "function"
    }
  ],
  "bytecode": "0x60a08060405234620001385760208162003035803803809162000023828562000150565b8339810103126200013857516001600160a01b0380821691829003620001385760608260049360805260405193848092634a9c3a6960e11b82525afa801562000145575f925f905f92620000de575b5082908160018060a01b03199516855f5416175f551683600154161760015516906002541617600255604051612e9790816200019e823960805181818161094d01528181610c6d01528181610dde015281816114990152818161173201528181611b0a0152611deb0152f35b935050506060823d6060116200013c575b81620000fe6060938362000150565b810103126200013857620001128262000188565b816200012f6040620001276020870162000188565b950162000188565b91939062000072565b5f80fd5b3d9150620000ef565b6040513d5f823e3d90fd5b601f909101601f19168101906001600160401b038211908210176200017457604052565b634e487b7160e01b5f52604160045260245ffd5b51906001600160a01b0382168203620001385756fe6080604081815260049081361015610015575f80fd5b5f925f3560e01c90816302ee3a521461233a5750806304a6f276146121ba5780630e50cee51461211a57806311aa5b341461209e57806311ce0267146120765783816316d81b3814611fe45750806317e9854814610d1e5780632148893f14611f575780632156a96c14611f0b5783816324d41a0314611eae575080632c7ea0b214611dbb578063317a082714611aef5780633c2575d514611d58578381633ccfd60b14611d0b575080634293e5ce14611c50578381634e213d2014611c0357508063570aea8a14611bb75780635ad6a58014611b68578381635be2095914611af45750806366224d8e14611aef5780636f2c859914611a505780636f68ef3a14611a005780636f77926b14611876578063782be8dd146117105780637d3978db146116df5780637e8555ed14611565578381638642269e14611515575080638da5cb5b146114675783816397b6f393146113ef575080639b269b8f146113795780639d4a22551461115c578063a323d29e1461107a57838163a9ab7af214610fa457508063b27e169714610f1b578063b9db15b414610e68578063c0403e2714610e0d578063c45a015514610dc9578063c64b8a8f14610d23578063ceca737f14610d1e578063d1ce59a714610c46578063d2bc9d7814610b01578063d637dcfa146109c557838163d72e481d1461093857508063dadd0a571461073b578063dc29868214610700578063e01ef6e614610670578063e17f94c014610647578063e6a93e16146105e4578063e80db5db146105bb578063eb11c43414610508578063ec4cf85b14610443578063ed90c7b7146103d3578063f3052d261461030c5763fdca4ca314610285575f80fd5b34610308578260031936011261030857600154815163fdca4ca360e01b815292849184919082906001600160a01b03165afa9182156102fe57836102d594936102d9575b50505191829182612489565b0390f35b6102f69293503d8091833e6102ee8183612596565b8101906129fc565b905f806102c9565b81513d85823e3d90fd5b8280fd5b5091346103d05760203660031901126103d0576001548351637982969360e11b81528335938101939093528190839060249082906001600160a01b03165afa9081156103c55780918193828092610395575b5050846103816102d59495965196879687526080602088015260808701906123d0565b92151590850152838203606085015261287e565b915091506102d593506103ba92503d8091833e6103b28183612596565b810190612d88565b91939091905f61035e565b8351903d90823e3d90fd5b80fd5b5091346103d05760203660031901126103d057506020608492519162461bcd60e51b8352820152603160248201527f44656c6574652070726f64756374206e6f7420696d706c656d656e7465642069604482015270371036b7b23ab630b9103b32b939b4b7b760791b6064820152fd5b5091346103d05760e03660031901126103d0576001600160401b03906024358281116105045761047690369085016125d4565b506044358281116105045761048e90369085016125d4565b506064359182116103d057506084926104ac602092369085016125d4565b505162461bcd60e51b815291820152603160248201527f5570646174652070726f64756374206e6f7420696d706c656d656e7465642069604482015270371036b7b23ab630b9103b32b939b4b7b760791b6064820152fd5b5080fd5b508290346105045760209283600319360112610308576105266124ec565b6001548351633ac4710d60e21b81526001600160a01b03928316848201529491869186916024918391165afa9384156105af578194610571575b50505061056f9051809261285d565bf35b90919293508481813d83116105a8575b61058b8183612596565b810103126105045751918210156103d057509061056f8480610560565b503d610581565b508251903d90823e3d90fd5b83823461050457816003193601126105045760015490516001600160a01b039091168152602090f35b503461030857602036600319011261030857826105ff6124ec565b60015483516373549f0b60e11b81526001600160a01b039283169581019590955284916024918391165afa9182156102fe57836102d594936102d95750505191829182612489565b83823461050457816003193601126105045760025490516001600160a01b039091168152602090f35b508290346105045781600319360112610504578154815163700f7b7360e11b81529360209185919082906001600160a01b03165afa9182156106f557916106bc575b6020925051908152f35b90506020823d6020116106ed575b816106d760209383612596565b810103126106e95760209151906106b2565b5f80fd5b3d91506106ca565b9051903d90823e3d90fd5b5050346105045760203660031901126105045780356001600160401b0381116103085761073891610733913691016125d4565b612e2e565b80f35b5091346103d057806003193601126103d057600190828160018060a01b036001541686519586809263dadd0a5760e01b82525afa93841561092e578294610803575b50508392919351938493602080860191818752855180935280870182828560051b8a0101970195915b8483106107b35788880389f35b9193959750919384808298603f198c82030186528a519085806107e7606085518552868601519080888701528501906123d0565b93015115159101529901930193019092889796949295936107a6565b909193503d8085833e6108168183612596565b810191602091828185031261092a5780516001600160401b039182821161092657019184601f8401121561092257825191610850836128b1565b9561085d8a519788612596565b838752858088019460051b8601019481861161091e57868101945b86861061088f575050505050505050915f8061077d565b855184811161091a578201606080601f198387030112610916578d519181830183811088821117610903578f52808b01518352808f01518781116108ff578f908c9593836108e68a896108f095819a9801016128dc565b8786015201612921565b90820152815201950194610878565b8e80fd5b604189634e487b7160e01b5f525260245ffd5b8c80fd5b8b80fd5b8980fd5b8680fd5b8780fd5b8580fd5b85513d84823e3d90fd5b808484346109c157826003193601126109c1577f00000000000000000000000000000000000000000000000000000000000000006001600160a01b031691823b156109bc57815163d72e481d60e01b81529284918491829084905af19081156109b357506109a35750f35b6109ac90612502565b6103d05780f35b513d84823e3d90fd5b505050fd5b5050fd5b50346103085782600319606036820112610504576001600160401b03938035858111610afd576109f890369083016125d4565b94602435818111610af957610a1090369084016125d4565b90604435908111610af957610a2890369084016125d4565b9260018060a01b036001541690813b1561092a57858094610a8d606093610a6e98610a7e8d988d519b8c9a8b998a98636b1bee7d60e11b8a5289015260648801906123d0565b90848783030160248801526123d0565b918483030160448501526123d0565b03925af18015610aef57610adb575b50507f48cac28ad4dc618e15f4c2dd5e97751182f166de97b25618318b2112aa951a2f90516020815280610ad5339460208301906123d0565b0390a280f35b610ae490612502565b61030857825f610a9c565b83513d84823e3d90fd5b8480fd5b8380fd5b5090346103085781600319360112610308576024803592906001600160401b0380851161092a573660238601121561092a578484013590610b41826128b1565b91610b4e85519384612596565b8083526020966024602085019260051b8201019236841161091e579089959493929160248201925b848410610c12575050505050825b8151811015610c0e576001546001600160a01b0316610ba38284612a91565b5190803b1561092a57610bd49186918a838b8b5196879586948593636e14c34160e11b85528401528b8301906123d0565b03925af18015610c0457908591610bf0575b5050600101610b84565b610bf990612502565b610afd57835f610be6565b86513d87823e3d90fd5b8380f35b9091928094959697503582811161091a578a91610c3583928a36918801016125d4565b815201930191908a96959493610b76565b509034610308578260031936011261030857815163d1ce59a760e01b8152906080908290817f00000000000000000000000000000000000000000000000000000000000000006001600160a01b03165afa908115610d125783928485928694610cc3575b5060809550815194855260208501528301526060820152f35b9350509250506080813d608011610d0a575b81610ce260809383612596565b810103126103085760809250805160208201519260608184015193015191939291925f610caa565b3d9150610cd5565b505051903d90823e3d90fd5b61261a565b5082903461050457602092836003193601126103085783610d426124ec565b8454845163c64b8a8f60e01b81526001600160a01b039283169481019490945283916024918391165afa928315610dbe578093610d84575b5050519015158152f35b909192508382813d8311610db7575b610d9d8183612596565b810103126103d05750610daf90612921565b908380610d7a565b503d610d93565b8251903d90823e3d90fd5b838234610504578160031936011261050457517f00000000000000000000000000000000000000000000000000000000000000006001600160a01b03168152602090f35b5082903461050457602036600319011261050457805191602083016001600160401b03811184821017610e55576102d59450825282525191829160208352602083019061287e565b604185634e487b7160e01b5f525260245ffd5b5082903461050457602036600319011261050457610e84612adb565b506001548151632e76c56d60e21b81528435948101949094528290849060249082906001600160a01b03165afa9182156106f5578092610ed4575b8151602080825281906102d5908201866123f5565b9091503d8082853e610ee68185612596565b830192602081850312610504578051916001600160401b0383116103d0575092610f14916102d5940161292e565b9083610ebf565b50346103085760203660031901126103085782610f366124ec565b600254835163b27e169760e01b81526001600160a01b039283169581019590955284916024918391165afa9182156102fe57836102d59493610f7f575b50505191829182612719565b610f9c9293503d8091833e610f948183612596565b810190612b27565b905f80610f73565b808484346109c15760031960c0368201126109bc576001600160401b0390833582811161092a57610fd890369086016125d4565b9060243583811161092257610ff090369087016125d4565b926044359081116109225761100890369087016125d4565b6001546001600160a01b03169190823b1561092657610a6e9661104f60c0938a9793610a7e89958b519c8d9a8b998a986354d5bd7960e11b8a5289015260c48801906123d0565b6064356064830152608435608483015260a43560a483015203925af19081156109b357506109a35750f35b509034610308576020366003190112610308576110956124ec565b9061109e612c02565b506001548351635191e94f60e11b81526001600160a01b039384168382015292859184916024918391165afa91821561114f578480936110fd575b5050506102d56110f28351948486958652850190612799565b91602084019061285d565b91945091503d8082843e6111118184612596565b820183838203126105045782516001600160401b0381116103085760209161113a918501612c38565b920151938410156103d05750915f80806110d9565b50505051903d90823e3d90fd5b509190346105045760209283600319360112610308576002548151639d4a225560e01b81528335938101939093526001600160a01b03949084908490602490829089165afa92831561136f57849361124e575b5092908051938085019181865284518093528086019082818560051b890101960194975b8489106111e05787870388f35b9091929394958480600192603f198b820301875289519061122660c0835183528785850151168584015288840151898401526060908082860151928501528301906123d0565b9160808082015115159083015260a080910151910152980194019801979190949392946111d3565b9092503d8085833e6112608183612596565b81018382820312610af95781516001600160401b0392838211610922570181601f8201121561092a578051611294816128b1565b936112a186519586612596565b818552868086019260051b8401019284841161136b57878101925b8484106112d057505050505050915f6111af565b835183811161136757820160c09081601f19828a03011261091a578951916112f783612544565b8b82015183526113088b83016128c8565b8c840152606091828101518c8501526080928382015188811161136357918e9694929161133c8d89809997958501016128dc565b9085015260a09261134e848301612921565b908501520151908201528152019301926112bc565b8f80fd5b8a80fd5b8880fd5b82513d86823e3d90fd5b50346103085782600319360112610308576001548151639b269b8f60e01b815292849184919082906001600160a01b03165afa9182156102fe57836102d594936113ca575b50505191829182612819565b6113e79293503d8091833e6113df8183612596565b810190612d07565b905f806113be565b808484346109c157806003193601126109c15761140a6124ec565b6024359083821015610af9576001546001600160a01b039190821690813b15610922578660449261145682968851998a9788966397b6f39360e01b88521690860152602485019061285d565b5af19081156109b357506109a35750f35b508290346105045781600319360112610504578051638da5cb5b60e01b8152926001600160a01b0391906020908590817f000000000000000000000000000000000000000000000000000000000000000086165afa9283156106f55780936114d6575b50602093505191168152f35b9092506020843d60201161150d575b816114f260209383612596565b810103126103d057506115066020936128c8565b91846114ca565b3d91506114e5565b80848460203660031901126109c1576002546001600160a01b031691823b156109bc5783906024835180958193634321134f60e11b835280359083015234905af19081156109b357506109a35750f35b5034610308578260031960a036820112610504576001600160401b038435818111610afd5761159790369087016125d4565b94602435828111610af9576115af90369083016125d4565b9060443583811161092a576115c790369083016125d4565b93606435848111610922576115df90369084016125d4565b93608435908111610922576115f790369084016125d4565b9360018060a01b036001541692833b156109265787958a9387938b51998a9889978896637e8555ed60e01b8852870160a0905260a48701611637916123d0565b8487820301602488015261164a916123d0565b8386820301604487015261165d916123d0565b82858203016064860152611670916123d0565b90838203016084840152611683916123d0565b03925af18015610aef576116cb575b50507fecef9454c60fab6a60b6f2aa319263c0f711cdb927c213e76687f7853b59784290516020815280610ad5339460208301906123d0565b6116d490612502565b61030857825f611692565b503461030857366003190112610504576024356001600160401b0381116103085761073891610733913691016125d4565b508290346105045781600319360112610504578051636290236f60e11b8152917f00000000000000000000000000000000000000000000000000000000000000006001600160a01b0316916020919082858781875afa94851561186b578295611834575b50805163bfc12c0560e01b815283818881885afa928315610dbe5792611805575b508051928382016001600160401b038111858210176117f2576102d5959697508252600e84526d0466163746f72792076312e302e360941b81850152815196879687521515908601528401526080606084015260808301906123d0565b604188634e487b7160e01b5f525260245ffd5b9091508281813d831161182d575b61181d8183612596565b810103126106e957519086611795565b503d611813565b9094508281813d8311611864575b61184c8183612596565b810103126105045761185d90612921565b9386611774565b503d611842565b5051903d90823e3d90fd5b5091903461050457602091826003193601126103d0576118946124ec565b90808551926118a284612529565b81606085818097528189820152818a8201520152602460018060a01b0391826001541689519788948593636f77926b60e01b855216908301525afa9283156119f4578193611947575b5050611939845194848695865261192761191086516080848a015260a08901906123d0565b9186015191601f19928389830301858a01526123d0565b918501519086830301848701526123d0565b910151151560808301520390f35b909192503d8083833e61195a8183612596565b810184828203126103085781516001600160401b0392838211610af9570191608083830312610afd5786519361198f85612529565b835182811161050457836119a49186016128dc565b85528684015182811161050457836119bd9186016128dc565b87860152878401519182116103d05750916119de85926119e89483016128dc565b8785015201612921565b82820152905f806118eb565b508451903d90823e3d90fd5b503461030857826003193601126103085760015481516337b4779d60e11b815292849184919082906001600160a01b03165afa9182156102fe57836102d594936113ca5750505191829182612819565b50829034610504576020366003190112610504576001548151637982969360e11b81528435948101949094528290849060249082906001600160a01b03165afa801561186b578280948192611acb575b50611abc835195869586526080602087015260808601906123d0565b92840152151560608301520390f35b91509250611ae49193503d8084833e6103b28183612596565b509093919285611aa0565b61267e565b808484346109c15760203660031901126109c1577f00000000000000000000000000000000000000000000000000000000000000006001600160a01b031691823b156109bc578392602484928451958693849263d3e256bf60e01b84528035908401525af19081156109b357506109a35750f35b5034610308578260031936011261030857600154815162b5ad4b60e71b815292849184919082906001600160a01b03165afa9182156102fe57836102d594936113ca5750505191829182612819565b508290346105045781600319360112610504576001548151632b85754560e11b81529360209185919082906001600160a01b03165afa9182156106f557916106bc576020925051908152f35b808484346109c157826003193601126109c1576001546001600160a01b031691823b156109bc57815163027109e960e51b81529284918491829084905af19081156109b357506109a35750f35b508290346105045760203660031901126105045781611c6d6124ec565b611c75612c02565b506001548351632149f2e760e11b81526001600160a01b039283169681019690965285916024918391165afa9182156106f5578092611cc4575b8151602080825281906102d590820186612799565b9091503d8082853e611cd68185612596565b830192602081850312610504578051916001600160401b0383116103d0575092611d04916102d59401612c38565b9083611caf565b808484346109c157826003193601126109c1576002546001600160a01b031691823b156109bc578151633ccfd60b60e01b81529284918491829084905af19081156109b357506109a35750f35b50346103085760203660031901126103085782611d736124ec565b6002548351633c2575d560e01b81526001600160a01b039283169581019590955284916024918391165afa9182156102fe57836102d59493610f7f5750505191829182612719565b50346103085782600319360112610308578051634a9c3a6960e11b8152916001600160a01b0391906060908490817f000000000000000000000000000000000000000000000000000000000000000086165afa908115611ea557849385918693611e4d575b505082908160018060a01b0319951685875416178655168360015416176001551690600254161760025580f35b92509350506060833d606011611e9d575b81611e6b60609383612596565b81010312610afd5781611e94611e80856128c8565b92611e8d602087016128c8565b95016128c8565b9193905f611e20565b3d9150611e5e565b513d85823e3d90fd5b808484346109c157806003193601126109c1576002546001600160a01b031691823b156109bc57839260448492845195869384926324d41a0360e01b845280359084015260243560248401525af19081156109b357506109a35750f35b508290346105045781600319360112610504576001548151630855aa5b60e21b81529360209185919082906001600160a01b03165afa9182156106f557916106bc576020925051908152f35b5082903461050457602092836003193601126103085783611f766124ec565b6002548451632148893f60e01b81526001600160a01b039283169481019490945283916024918391165afa928315610dbe5792611fb5575b5051908152f35b9091508281813d8311611fdd575b611fcd8183612596565b810103126106e957519083611fae565b503d611fc3565b808484346109c15760603660031901126109c1576044356001600160401b0381116109bc5761201690369084016125d4565b6002546001600160a01b03169290833b15610af9576120639385928385518097819582946302db036760e31b845280359084015260243560248401526060604484015260648301906123d0565b03925af19081156109b357506109a35750f35b838234610504578160031936011261050457905490516001600160a01b039091168152602090f35b50346106e957806003193601126106e9576024356001600160a01b0381811693918490036106e9576002541692833b156106e95760445f92838551968794859363046a96cd60e21b855280359085015260248401525af19081156121115750612105575080f35b61210f9150612502565b005b513d5f823e3d90fd5b5090346106e957602091826003193601126106e957826121386124ec565b5f548351630e50cee560e01b81526001600160a01b039283169581019590955284916024918391165afa9182156121b0575f92612179575b50519015158152f35b9091508281813d83116121a9575b6121918183612596565b810103126106e9576121a290612921565b9083612170565b503d612187565b50513d5f823e3d90fd5b50346106e95760209060206003193601126106e9576001805482516301771d2960e11b81529194803592915f91839182906001600160a01b03165afa908115612330575f91612316575b505f938585815b6122d7575b505061221b856128b1565b9461222885519687612596565b808652612237601f19916128b1565b015f5b8181106122c1575050505f91855f905b61225c575b8451806102d58882612489565b82518110156122bc579086828260a06122788796859998612a91565b5101511461228b575b019091929361224a565b936122b69061229a8686612a91565b516122a5828b612a91565b526122b0818a612a91565b50612ab9565b93612281565b61224f565b82906122cb612adb565b82828a0101520161223a565b8351811015612311578460a06122ed8387612a91565b510151146122fe575b81018161220b565b956123098291612ab9565b9690506122f6565b612210565b61232a91503d805f833e6102ee8183612596565b85612204565b83513d5f823e3d90fd5b905082346106e9575f3660031901126106e9576001546301771d2960e11b83525f91839182906001600160a01b03165afa9081156123a557916102d5925f92612389575b505191829182612489565b61239e9192503d805f833e6102ee8183612596565b908361237e565b82513d5f823e3d90fd5b5f5b8381106123c05750505f910152565b81810151838201526020016123b1565b906020916123e9815180928185528580860191016123af565b601f01601f1916010190565b9061245061243e61242c6101408551855260018060a01b0360208701511660208601526040860151908060408701528501906123d0565b606085015184820360608601526123d0565b608084015183820360808501526123d0565b9160a081015160a083015260c081015160c083015260e081015160e0830152610100808201519083015261012080910151151591015290565b6020808201906020835283518092526040830192602060408460051b8301019501935f915b8483106124be5750505050505090565b90919293949584806124dc600193603f198682030187528a516123f5565b98019301930191949392906124ae565b600435906001600160a01b03821682036106e957565b6001600160401b03811161251557604052565b634e487b7160e01b5f52604160045260245ffd5b608081019081106001600160401b0382111761251557604052565b60c081019081106001600160401b0382111761251557604052565b61014081019081106001600160401b0382111761251557604052565b60e081019081106001600160401b0382111761251557604052565b601f909101601f19168101906001600160401b0382119082101761251557604052565b6001600160401b03811161251557601f01601f191660200190565b81601f820112156106e9578035906125eb826125b9565b926125f96040519485612596565b828452602083830101116106e957815f926020809301838601378301015290565b346106e95760203660031901126106e9576001546001600160a01b0316803b156106e9575f809160246040518094819363ceca737f60e01b835260043560048401525af180156126735761266a57005b61210f90612502565b6040513d5f823e3d90fd5b346106e95760603660031901126106e9576024356001600160401b0381116106e9576126ae9036906004016125d4565b604435908115158092036106e9576001546001600160a01b031690813b156106e9575f91612703918360405180968195829463331126c760e11b845260043560048501526060602485015260648401906123d0565b90604483015203925af180156126735761266a57005b60208082019080835283518092528060408094019401925f905b83821061274257505050505090565b845180518752808401516001600160a01b0390811688860152818301511687830152606080820151908801526080808201519088015260a09081015115159087015260c09095019493820193600190910190612733565b9060c0806128046127f26127e06127ce6127bc885160e0895260e08901906123d0565b602089015188820360208a01526123d0565b604088015187820360408901526123d0565b606087015186820360608801526123d0565b608086015185820360808701526123d0565b9360a0810151151560a0850152015191015290565b60209060206040818301928281528551809452019301915f5b828110612840575050505090565b83516001600160a01b031685529381019392810192600101612832565b90600482101561286a5752565b634e487b7160e01b5f52602160045260245ffd5b9081518082526020808093019301915f5b82811061289d575050505090565b83518552938101939281019260010161288f565b6001600160401b0381116125155760051b60200190565b51906001600160a01b03821682036106e957565b81601f820112156106e95780516128f2816125b9565b926129006040519485612596565b818452602082840101116106e95761291e91602080850191016123af565b90565b519081151582036106e957565b919091610140818403126106e957604051906129498261255f565b81938151835261295b602083016128c8565b602084015260408201516001600160401b0391908281116106e957816129829185016128dc565b604085015260608301518281116106e9578161299f9185016128dc565b606085015260808301519182116106e9576129bb9183016128dc565b608083015260a081015160a083015260c081015160c083015260e081015160e083015261010080820151908301526129f7610120809201612921565b910152565b9060209081838203126106e95782516001600160401b03938482116106e9570181601f820112156106e9578051612a32816128b1565b94612a406040519687612596565b818652848087019260051b840101938085116106e957858401925b858410612a6c575050505050505090565b83518381116106e9578791612a86848480948a010161292e565b815201930192612a5b565b8051821015612aa55760209160051b010190565b634e487b7160e01b5f52603260045260245ffd5b5f198114612ac75760010190565b634e487b7160e01b5f52601160045260245ffd5b60405190612ae88261255f565b5f6101208382815282602082015260606040820152606080820152606060808201528260a08201528260c08201528260e0820152826101008201520152565b60209081818403126106e9578051906001600160401b0382116106e9570182601f820112156106e957805191612b5c836128b1565b936040612b6c6040519687612596565b848652828601918360c0809702860101948186116106e9578401925b858410612b99575050505050505090565b86848303126106e9578487918451612bb081612544565b86518152612bbf8388016128c8565b83820152612bce8688016128c8565b86820152606080880151908201526080808801519082015260a0612bf3818901612921565b90820152815201930192612b88565b60405190612c0f8261257b565b5f60c0836060808252806020830152806040830152808083015260808201528260a08201520152565b91909160e0818403126106e95760405190612c528261257b565b8051919384926001600160401b0392908381116106e95782612c759183016128dc565b845260208101518381116106e95782612c8f9183016128dc565b602085015260408101518381116106e95782612cac9183016128dc565b604085015260608101518381116106e95782612cc99183016128dc565b606085015260808101519283116106e957612cea60c09392849383016128dc565b6080850152612cfb60a08201612921565b60a08501520151910152565b60209081818403126106e9578051906001600160401b0382116106e957019180601f840112156106e9578251612d3c816128b1565b93612d4a6040519586612596565b818552838086019260051b8201019283116106e9578301905b828210612d71575050505090565b838091612d7d846128c8565b815201910190612d63565b6080818303126106e957805192602092838301519360018060401b03948581116106e95782612db89186016128dc565b94612dc560408601612921565b9460608101519182116106e957019180601f840112156106e9578251612dea816128b1565b93612df86040519586612596565b818552838086019260051b8201019283116106e9578301905b828210612e1f575050505090565b81518152908301908301612e11565b6001546001600160a01b0316803b156106e957604051636e14c34160e11b815260206004820152915f918391829084908290612e6e9060248301906123d0565b03925af1801561267357612e7f5750565b612e8890612502565b56fea164736f6c6343000818000a",
  "linkReferences": {},
  "deployedLinkReferences": {}
}