{
  "_format": "hh-sol-artifact-1",
  "contractName": "CryptoMart",
  "sourceName": "contracts/CryptoMartProxy.sol",
  "abi": [
    {
      "inputs": [
        {
          "internalType": "address",
          "name": "_registry",
          "type": "address"
        }
      ],
      "stateMutability": "nonpayable",
      "type": "constructor"
    },
    {
      "anonymous": false,
      "inputs": [
        {
          "indexed": true,
          "internalType": "address",
          "name": "seller",
          "type": "address"
        },
        {
          "indexed": false,
          "internalType": "uint256",
          "name": "amount",
          "type": "uint256"
        }
      ],
      "name": "BalanceWithdrawn",
      "type": "event"
    },
    {
      "anonymous": false,
      "inputs": [
        {
          "indexed": true,
          "internalType": "uint256",
          "name": "categoryId",
          "type": "uint256"
        },
        {
          "indexed": false,
          "internalType": "string",
          "name": "name",
          "type": "string"
        }
      ],
      "name": "CategoryCreated",
      "type": "event"
    },
    {
      "anonymous": false,
      "inputs": [
        {
          "indexed": true,
          "internalType": "uint256",
          "name": "productId",
          "type": "uint256"
        },
        {
          "indexed": true,
          "internalType": "address",
          "name": "seller",
          "type": "address"
        },
        {
          "indexed": false,
          "internalType": "string",
          "name": "name",
          "type": "string"
        },
        {
          "indexed": false,
          "internalType": "uint256",
          "name": "cost",
          "type": "uint256"
        }
      ],
      "name": "ProductCreated",
      "type": "event"
    },
    {
      "anonymous": false,
      "inputs": [
        {
          "indexed": true,
          "internalType": "uint256",
          "name": "productId",
          "type": "uint256"
        }
      ],
      "name": "ProductDeleted",
      "type": "event"
    },
    {
      "anonymous": false,
      "inputs": [
        {
          "indexed": true,
          "internalType": "uint256",
          "name": "productId",
          "type": "uint256"
        },
        {
          "indexed": true,
          "internalType": "address",
          "name": "buyer",
          "type": "address"
        },
        {
          "indexed": true,
          "internalType": "address",
          "name": "seller",
          "type": "address"
        }
      ],
      "name": "ProductPurchased",
      "type": "event"
    },
    {
      "anonymous": false,
      "inputs": [
        {
          "indexed": true,
          "internalType": "uint256",
          "name": "productId",
          "type": "uint256"
        }
      ],
      "name": "ProductUpdated",
      "type": "event"
    },
    {
      "anonymous": false,
      "inputs": [
        {
          "indexed": true,
          "internalType": "uint256",
          "name": "productId",
          "type": "uint256"
        },
        {
          "indexed": true,
          "internalType": "address",
          "name": "reviewer",
          "type": "address"
        },
        {
          "indexed": false,
          "internalType": "uint256",
          "name": "rating",
          "type": "uint256"
        }
      ],
      "name": "ReviewCreated",
      "type": "event"
    },
    {
      "anonymous": false,
      "inputs": [
        {
          "indexed": true,
          "internalType": "address",
          "name": "seller",
          "type": "address"
        },
        {
          "indexed": false,
          "internalType": "string",
          "name": "businessName",
          "type": "string"
        }
      ],
      "name": "SellerRegistered",
      "type": "event"
    },
    {
      "anonymous": false,
      "inputs": [
        {
          "indexed": true,
          "internalType": "address",
          "name": "user",
          "type": "address"
        },
        {
          "indexed": false,
          "internalType": "string",
          "name": "name",
          "type": "string"
        }
      ],
      "name": "UserRegistered",
      "type": "event"
    },
    {
      "inputs": [
        {
          "internalType": "uint256",
          "name": "productId",
          "type": "uint256"
        }
      ],
      "name": "buyProduct",
      "outputs": [],
      "stateMutability": "payable",
      "type": "function"
    },
    {
      "inputs": [
        {
          "internalType": "uint256",
          "name": "newPct",
          "type": "uint256"
        }
      ],
      "name": "changeServicePct",
      "outputs": [],
      "stateMutability": "nonpayable",
      "type": "function"
    },
    {
      "inputs": [],
      "name": "coreContract",
      "outputs": [
        {
          "internalType": "contract CryptoMartCore",
          "name": "",
          "type": "address"
        }
      ],
      "stateMutability": "view",
      "type": "function"
    },
    {
      "inputs": [
        {
          "internalType": "string",
          "name": "name",
          "type": "string"
        }
      ],
      "name": "createCategory",
      "outputs": [],
      "stateMutability": "nonpayable",
      "type": "function"
    },
    {
      "inputs": [
        {
          "internalType": "string",
          "name": "name",
          "type": "string"
        },
        {
          "internalType": "string",
          "name": "description",
          "type": "string"
        },
        {
          "internalType": "string",
          "name": "image",
          "type": "string"
        },
        {
          "internalType": "uint256",
          "name": "categoryId",
          "type": "uint256"
        },
        {
          "internalType": "uint256",
          "name": "cost",
          "type": "uint256"
        },
        {
          "internalType": "uint256",
          "name": "stock",
          "type": "uint256"
        }
      ],
      "name": "createProduct",
      "outputs": [],
      "stateMutability": "nonpayable",
      "type": "function"
    },
    {
      "inputs": [
        {
          "internalType": "uint256",
          "name": "productId",
          "type": "uint256"
        },
        {
          "internalType": "uint256",
          "name": "rating",
          "type": "uint256"
        },
        {
          "internalType": "string",
          "name": "comment",
          "type": "string"
        }
      ],
      "name": "createReview",
      "outputs": [],
      "stateMutability": "nonpayable",
      "type": "function"
    },
    {
      "inputs": [
        {
          "internalType": "uint256",
          "name": "",
          "type": "uint256"
        },
        {
          "internalType": "string[]",
          "name": "names",
          "type": "string[]"
        }
      ],
      "name": "createSubCategoriesBulk",
      "outputs": [],
      "stateMutability": "nonpayable",
      "type": "function"
    },
    {
      "inputs": [
        {
          "internalType": "uint256",
          "name": "",
          "type": "uint256"
        },
        {
          "internalType": "string",
          "name": "name",
          "type": "string"
        }
      ],
      "name": "createSubCategory",
      "outputs": [],
      "stateMutability": "nonpayable",
      "type": "function"
    },
    {
      "inputs": [
        {
          "internalType": "uint256",
          "name": "id",
          "type": "uint256"
        }
      ],
      "name": "deleteCategory",
      "outputs": [],
      "stateMutability": "nonpayable",
      "type": "function"
    },
    {
      "inputs": [
        {
          "internalType": "uint256",
          "name": "productId",
          "type": "uint256"
        }
      ],
      "name": "deleteProduct",
      "outputs": [],
      "stateMutability": "nonpayable",
      "type": "function"
    },
    {
      "inputs": [
        {
          "internalType": "uint256",
          "name": "productId",
          "type": "uint256"
        },
        {
          "internalType": "uint256",
          "name": "reviewId",
          "type": "uint256"
        }
      ],
      "name": "deleteReview",
      "outputs": [],
      "stateMutability": "nonpayable",
      "type": "function"
    },
    {
      "inputs": [
        {
          "internalType": "uint256",
          "name": "id",
          "type": "uint256"
        }
      ],
      "name": "deleteSubCategory",
      "outputs": [],
      "stateMutability": "nonpayable",
      "type": "function"
    },
    {
      "inputs": [],
      "name": "getAllCategories",
      "outputs": [
        {
          "components": [
            {
              "internalType": "uint256",
              "name": "id",
              "type": "uint256"
            },
            {
              "internalType": "string",
              "name": "name",
              "type": "string"
            },
            {
              "internalType": "bool",
              "name": "isActive",
              "type": "bool"
            }
          ],
          "internalType": "struct CryptoMartStorage.CategoryStruct[]",
          "name": "",
          "type": "tuple[]"
        }
      ],
      "stateMutability": "view",
      "type": "function"
    },
    {
      "inputs": [],
      "name": "getAllProducts",
      "outputs": [
        {
          "components": [
            {
              "internalType": "uint256",
              "name": "id",
              "type": "uint256"
            },
            {
              "internalType": "address",
              "name": "seller",
              "type": "address"
            },
            {
              "internalType": "string",
              "name": "name",
              "type": "string"
            },
            {
              "internalType": "string",
              "name": "description",
              "type": "string"
            },
            {
              "internalType": "string",
              "name": "image",
              "type": "string"
            },
            {
              "internalType": "uint256",
              "name": "categoryId",
              "type": "uint256"
            },
            {
              "internalType": "uint256",
              "name": "cost",
              "type": "uint256"
            },
            {
              "internalType": "uint256",
              "name": "stock",
              "type": "uint256"
            },
            {
              "internalType": "uint256",
              "name": "timestamp",
              "type": "uint256"
            },
            {
              "internalType": "bool",
              "name": "deleted",
              "type": "bool"
            }
          ],
          "internalType": "struct CryptoMartStorage.ProductStruct[]",
          "name": "",
          "type": "tuple[]"
        }
      ],
      "stateMutability": "view",
      "type": "function"
    },
    {
      "inputs": [],
      "name": "getAllRegisteredSellers",
      "outputs": [
        {
          "internalType": "address[]",
          "name": "",
          "type": "address[]"
        }
      ],
      "stateMutability": "view",
      "type": "function"
    },
    {
      "inputs": [],
      "name": "getAllSellers",
      "outputs": [
        {
          "internalType": "address[]",
          "name": "",
          "type": "address[]"
        }
      ],
      "stateMutability": "view",
      "type": "function"
    },
    {
      "inputs": [
        {
          "internalType": "address",
          "name": "buyer",
          "type": "address"
        }
      ],
      "name": "getBuyerPurchaseHistory",
      "outputs": [
        {
          "components": [
            {
              "internalType": "uint256",
              "name": "productId",
              "type": "uint256"
            },
            {
              "internalType": "address",
              "name": "buyer",
              "type": "address"
            },
            {
              "internalType": "address",
              "name": "seller",
              "type": "address"
            },
            {
              "internalType": "uint256",
              "name": "totalAmount",
              "type": "uint256"
            },
            {
              "internalType": "uint256",
              "name": "timestamp",
              "type": "uint256"
            },
            {
              "internalType": "bool",
              "name": "isDelivered",
              "type": "bool"
            }
          ],
          "internalType": "struct CryptoMartStorage.PurchaseStruct[]",
          "name": "",
          "type": "tuple[]"
        }
      ],
      "stateMutability": "view",
      "type": "function"
    },
    {
      "inputs": [
        {
          "internalType": "uint256",
          "name": "id",
          "type": "uint256"
        }
      ],
      "name": "getCategory",
      "outputs": [
        {
          "internalType": "uint256",
          "name": "",
          "type": "uint256"
        },
        {
          "internalType": "string",
          "name": "",
          "type": "string"
        },
        {
          "internalType": "bool",
          "name": "",
          "type": "bool"
        },
        {
          "internalType": "uint256[]",
          "name": "",
          "type": "uint256[]"
        }
      ],
      "stateMutability": "view",
      "type": "function"
    },
    {
      "inputs": [],
      "name": "getMyProducts",
      "outputs": [
        {
          "components": [
            {
              "internalType": "uint256",
              "name": "id",
              "type": "uint256"
            },
            {
              "internalType": "address",
              "name": "seller",
              "type": "address"
            },
            {
              "internalType": "string",
              "name": "name",
              "type": "string"
            },
            {
              "internalType": "string",
              "name": "description",
              "type": "string"
            },
            {
              "internalType": "string",
              "name": "image",
              "type": "string"
            },
            {
              "internalType": "uint256",
              "name": "categoryId",
              "type": "uint256"
            },
            {
              "internalType": "uint256",
              "name": "cost",
              "type": "uint256"
            },
            {
              "internalType": "uint256",
              "name": "stock",
              "type": "uint256"
            },
            {
              "internalType": "uint256",
              "name": "timestamp",
              "type": "uint256"
            },
            {
              "internalType": "bool",
              "name": "deleted",
              "type": "bool"
            }
          ],
          "internalType": "struct CryptoMartStorage.ProductStruct[]",
          "name": "",
          "type": "tuple[]"
        }
      ],
      "stateMutability": "view",
      "type": "function"
    },
    {
      "inputs": [],
      "name": "getPendingVerificationUsers",
      "outputs": [
        {
          "internalType": "address[]",
          "name": "",
          "type": "address[]"
        }
      ],
      "stateMutability": "view",
      "type": "function"
    },
    {
      "inputs": [
        {
          "internalType": "uint256",
          "name": "productId",
          "type": "uint256"
        }
      ],
      "name": "getProduct",
      "outputs": [
        {
          "components": [
            {
              "internalType": "uint256",
              "name": "id",
              "type": "uint256"
            },
            {
              "internalType": "address",
              "name": "seller",
              "type": "address"
            },
            {
              "internalType": "string",
              "name": "name",
              "type": "string"
            },
            {
              "internalType": "string",
              "name": "description",
              "type": "string"
            },
            {
              "internalType": "string",
              "name": "image",
              "type": "string"
            },
            {
              "internalType": "uint256",
              "name": "categoryId",
              "type": "uint256"
            },
            {
              "internalType": "uint256",
              "name": "cost",
              "type": "uint256"
            },
            {
              "internalType": "uint256",
              "name": "stock",
              "type": "uint256"
            },
            {
              "internalType": "uint256",
              "name": "timestamp",
              "type": "uint256"
            },
            {
              "internalType": "bool",
              "name": "deleted",
              "type": "bool"
            }
          ],
          "internalType": "struct CryptoMartStorage.ProductStruct",
          "name": "",
          "type": "tuple"
        }
      ],
      "stateMutability": "view",
      "type": "function"
    },
    {
      "inputs": [
        {
          "internalType": "uint256",
          "name": "categoryId",
          "type": "uint256"
        }
      ],
      "name": "getProductsByCategory",
      "outputs": [
        {
          "components": [
            {
              "internalType": "uint256",
              "name": "id",
              "type": "uint256"
            },
            {
              "internalType": "address",
              "name": "seller",
              "type": "address"
            },
            {
              "internalType": "string",
              "name": "name",
              "type": "string"
            },
            {
              "internalType": "string",
              "name": "description",
              "type": "string"
            },
            {
              "internalType": "string",
              "name": "image",
              "type": "string"
            },
            {
              "internalType": "uint256",
              "name": "categoryId",
              "type": "uint256"
            },
            {
              "internalType": "uint256",
              "name": "cost",
              "type": "uint256"
            },
            {
              "internalType": "uint256",
              "name": "stock",
              "type": "uint256"
            },
            {
              "internalType": "uint256",
              "name": "timestamp",
              "type": "uint256"
            },
            {
              "internalType": "bool",
              "name": "deleted",
              "type": "bool"
            }
          ],
          "internalType": "struct CryptoMartStorage.ProductStruct[]",
          "name": "",
          "type": "tuple[]"
        }
      ],
      "stateMutability": "view",
      "type": "function"
    },
    {
      "inputs": [],
      "name": "getRegistryInfo",
      "outputs": [
        {
          "internalType": "address",
          "name": "registryAddress",
          "type": "address"
        },
        {
          "internalType": "bool",
          "name": "isConfigured",
          "type": "bool"
        },
        {
          "internalType": "uint256",
          "name": "deploymentTime",
          "type": "uint256"
        },
        {
          "internalType": "string",
          "name": "version",
          "type": "string"
        }
      ],
      "stateMutability": "view",
      "type": "function"
    },
    {
      "inputs": [
        {
          "internalType": "uint256",
          "name": "productId",
          "type": "uint256"
        }
      ],
      "name": "getReviews",
      "outputs": [
        {
          "components": [
            {
              "internalType": "uint256",
              "name": "reviewId",
              "type": "uint256"
            },
            {
              "internalType": "address",
              "name": "reviewer",
              "type": "address"
            },
            {
              "internalType": "uint256",
              "name": "rating",
              "type": "uint256"
            },
            {
              "internalType": "string",
              "name": "comment",
              "type": "string"
            },
            {
              "internalType": "bool",
              "name": "deleted",
              "type": "bool"
            },
            {
              "internalType": "uint256",
              "name": "timestamp",
              "type": "uint256"
            }
          ],
          "internalType": "struct CryptoMartStorage.ReviewStruct[]",
          "name": "",
          "type": "tuple[]"
        }
      ],
      "stateMutability": "view",
      "type": "function"
    },
    {
      "inputs": [
        {
          "internalType": "address",
          "name": "seller",
          "type": "address"
        }
      ],
      "name": "getSeller",
      "outputs": [
        {
          "components": [
            {
              "internalType": "string",
              "name": "businessName",
              "type": "string"
            },
            {
              "internalType": "string",
              "name": "description",
              "type": "string"
            },
            {
              "internalType": "string",
              "name": "email",
              "type": "string"
            },
            {
              "internalType": "string",
              "name": "phone",
              "type": "string"
            },
            {
              "internalType": "string",
              "name": "logo",
              "type": "string"
            },
            {
              "internalType": "bool",
              "name": "isRegistered",
              "type": "bool"
            },
            {
              "internalType": "uint256",
              "name": "registeredAt",
              "type": "uint256"
            }
          ],
          "internalType": "struct CryptoMartStorage.SellerProfile",
          "name": "",
          "type": "tuple"
        },
        {
          "internalType": "enum CryptoMartStorage.SellerStatus",
          "name": "",
          "type": "uint8"
        }
      ],
      "stateMutability": "view",
      "type": "function"
    },
    {
      "inputs": [
        {
          "internalType": "address",
          "name": "seller",
          "type": "address"
        }
      ],
      "name": "getSellerBalance",
      "outputs": [
        {
          "internalType": "uint256",
          "name": "",
          "type": "uint256"
        }
      ],
      "stateMutability": "view",
      "type": "function"
    },
    {
      "inputs": [
        {
          "internalType": "address",
          "name": "seller",
          "type": "address"
        }
      ],
      "name": "getSellerProducts",
      "outputs": [
        {
          "components": [
            {
              "internalType": "uint256",
              "name": "id",
              "type": "uint256"
            },
            {
              "internalType": "address",
              "name": "seller",
              "type": "address"
            },
            {
              "internalType": "string",
              "name": "name",
              "type": "string"
            },
            {
              "internalType": "string",
              "name": "description",
              "type": "string"
            },
            {
              "internalType": "string",
              "name": "image",
              "type": "string"
            },
            {
              "internalType": "uint256",
              "name": "categoryId",
              "type": "uint256"
            },
            {
              "internalType": "uint256",
              "name": "cost",
              "type": "uint256"
            },
            {
              "internalType": "uint256",
              "name": "stock",
              "type": "uint256"
            },
            {
              "internalType": "uint256",
              "name": "timestamp",
              "type": "uint256"
            },
            {
              "internalType": "bool",
              "name": "deleted",
              "type": "bool"
            }
          ],
          "internalType": "struct CryptoMartStorage.ProductStruct[]",
          "name": "",
          "type": "tuple[]"
        }
      ],
      "stateMutability": "view",
      "type": "function"
    },
    {
      "inputs": [
        {
          "internalType": "address",
          "name": "seller",
          "type": "address"
        }
      ],
      "name": "getSellerProfile",
      "outputs": [
        {
          "components": [
            {
              "internalType": "string",
              "name": "businessName",
              "type": "string"
            },
            {
              "internalType": "string",
              "name": "description",
              "type": "string"
            },
            {
              "internalType": "string",
              "name": "email",
              "type": "string"
            },
            {
              "internalType": "string",
              "name": "phone",
              "type": "string"
            },
            {
              "internalType": "string",
              "name": "logo",
              "type": "string"
            },
            {
              "internalType": "bool",
              "name": "isRegistered",
              "type": "bool"
            },
            {
              "internalType": "uint256",
              "name": "registeredAt",
              "type": "uint256"
            }
          ],
          "internalType": "struct CryptoMartStorage.SellerProfile",
          "name": "",
          "type": "tuple"
        }
      ],
      "stateMutability": "view",
      "type": "function"
    },
    {
      "inputs": [
        {
          "internalType": "address",
          "name": "seller",
          "type": "address"
        }
      ],
      "name": "getSellerPurchaseHistory",
      "outputs": [
        {
          "components": [
            {
              "internalType": "uint256",
              "name": "productId",
              "type": "uint256"
            },
            {
              "internalType": "address",
              "name": "buyer",
              "type": "address"
            },
            {
              "internalType": "address",
              "name": "seller",
              "type": "address"
            },
            {
              "internalType": "uint256",
              "name": "totalAmount",
              "type": "uint256"
            },
            {
              "internalType": "uint256",
              "name": "timestamp",
              "type": "uint256"
            },
            {
              "internalType": "bool",
              "name": "isDelivered",
              "type": "bool"
            }
          ],
          "internalType": "struct CryptoMartStorage.PurchaseStruct[]",
          "name": "",
          "type": "tuple[]"
        }
      ],
      "stateMutability": "view",
      "type": "function"
    },
    {
      "inputs": [
        {
          "internalType": "address",
          "name": "seller",
          "type": "address"
        }
      ],
      "name": "getSellerStatus",
      "outputs": [
        {
          "internalType": "enum CryptoMartStorage.SellerStatus",
          "name": "",
          "type": "uint8"
        }
      ],
      "stateMutability": "view",
      "type": "function"
    },
    {
      "inputs": [
        {
          "internalType": "uint256",
          "name": "",
          "type": "uint256"
        }
      ],
      "name": "getSubCategories",
      "outputs": [
        {
          "internalType": "uint256[]",
          "name": "",
          "type": "uint256[]"
        }
      ],
      "stateMutability": "pure",
      "type": "function"
    },
    {
      "inputs": [
        {
          "internalType": "uint256",
          "name": "id",
          "type": "uint256"
        }
      ],
      "name": "getSubCategory",
      "outputs": [
        {
          "internalType": "uint256",
          "name": "",
          "type": "uint256"
        },
        {
          "internalType": "string",
          "name": "",
          "type": "string"
        },
        {
          "internalType": "uint256",
          "name": "",
          "type": "uint256"
        },
        {
          "internalType": "bool",
          "name": "",
          "type": "bool"
        }
      ],
      "stateMutability": "view",
      "type": "function"
    },
    {
      "inputs": [],
      "name": "getSystemStats",
      "outputs": [
        {
          "internalType": "uint256",
          "name": "totalProducts",
          "type": "uint256"
        },
        {
          "internalType": "uint256",
          "name": "totalSales",
          "type": "uint256"
        },
        {
          "internalType": "uint256",
          "name": "totalCategories",
          "type": "uint256"
        },
        {
          "internalType": "uint256",
          "name": "serviceFee",
          "type": "uint256"
        }
      ],
      "stateMutability": "view",
      "type": "function"
    },
    {
      "inputs": [],
      "name": "getTotalProducts",
      "outputs": [
        {
          "internalType": "uint256",
          "name": "",
          "type": "uint256"
        }
      ],
      "stateMutability": "view",
      "type": "function"
    },
    {
      "inputs": [],
      "name": "getTotalSales",
      "outputs": [
        {
          "internalType": "uint256",
          "name": "",
          "type": "uint256"
        }
      ],
      "stateMutability": "view",
      "type": "function"
    },
    {
      "inputs": [
        {
          "internalType": "address",
          "name": "user",
          "type": "address"
        }
      ],
      "name": "getUser",
      "outputs": [
        {
          "components": [
            {
              "internalType": "string",
              "name": "name",
              "type": "string"
            },
            {
              "internalType": "string",
              "name": "email",
              "type": "string"
            },
            {
              "internalType": "string",
              "name": "avatar",
              "type": "string"
            },
            {
              "internalType": "bool",
              "name": "isRegistered",
              "type": "bool"
            }
          ],
          "internalType": "struct CryptoMartStorage.UserProfile",
          "name": "",
          "type": "tuple"
        }
      ],
      "stateMutability": "view",
      "type": "function"
    },
    {
      "inputs": [],
      "name": "grantOwnerSellerAccess",
      "outputs": [],
      "stateMutability": "nonpayable",
      "type": "function"
    },
    {
      "inputs": [
        {
          "internalType": "uint256",
          "name": "productId",
          "type": "uint256"
        },
        {
          "internalType": "address",
          "name": "buyer",
          "type": "address"
        }
      ],
      "name": "markPurchaseDelivered",
      "outputs": [],
      "stateMutability": "nonpayable",
      "type": "function"
    },
    {
      "inputs": [],
      "name": "owner",
      "outputs": [
        {
          "internalType": "address",
          "name": "",
          "type": "address"
        }
      ],
      "stateMutability": "view",
      "type": "function"
    },
    {
      "inputs": [],
      "name": "refreshContractReferences",
      "outputs": [],
      "stateMutability": "nonpayable",
      "type": "function"
    },
    {
      "inputs": [
        {
          "internalType": "string",
          "name": "businessName",
          "type": "string"
        },
        {
          "internalType": "string",
          "name": "description",
          "type": "string"
        },
        {
          "internalType": "string",
          "name": "email",
          "type": "string"
        },
        {
          "internalType": "string",
          "name": "phone",
          "type": "string"
        },
        {
          "internalType": "string",
          "name": "logo",
          "type": "string"
        }
      ],
      "name": "registerSeller",
      "outputs": [],
      "stateMutability": "nonpayable",
      "type": "function"
    },
    {
      "inputs": [
        {
          "internalType": "string",
          "name": "name",
          "type": "string"
        },
        {
          "internalType": "string",
          "name": "email",
          "type": "string"
        },
        {
          "internalType": "string",
          "name": "avatar",
          "type": "string"
        }
      ],
      "name": "registerUser",
      "outputs": [],
      "stateMutability": "nonpayable",
      "type": "function"
    },
    {
      "inputs": [
        {
          "internalType": "address",
          "name": "seller",
          "type": "address"
        }
      ],
      "name": "registeredSellers",
      "outputs": [
        {
          "internalType": "bool",
          "name": "",
          "type": "bool"
        }
      ],
      "stateMutability": "view",
      "type": "function"
    },
    {
      "inputs": [
        {
          "internalType": "address",
          "name": "user",
          "type": "address"
        }
      ],
      "name": "registeredUsers",
      "outputs": [
        {
          "internalType": "bool",
          "name": "",
          "type": "bool"
        }
      ],
      "stateMutability": "view",
      "type": "function"
    },
    {
      "inputs": [],
      "name": "registry",
      "outputs": [
        {
          "internalType": "contract CryptoMartRegistry",
          "name": "",
          "type": "address"
        }
      ],
      "stateMutability": "view",
      "type": "function"
    },
    {
      "inputs": [],
      "name": "servicePct",
      "outputs": [
        {
          "internalType": "uint256",
          "name": "",
          "type": "uint256"
        }
      ],
      "stateMutability": "view",
      "type": "function"
    },
    {
      "inputs": [],
      "name": "storageContract",
      "outputs": [
        {
          "internalType": "contract CryptoMartStorage",
          "name": "",
          "type": "address"
        }
      ],
      "stateMutability": "view",
      "type": "function"
    },
    {
      "inputs": [],
      "name": "transactionsContract",
      "outputs": [
        {
          "internalType": "contract CryptoMartTransactions",
          "name": "",
          "type": "address"
        }
      ],
      "stateMutability": "view",
      "type": "function"
    },
    {
      "inputs": [
        {
          "internalType": "uint256",
          "name": "id",
          "type": "uint256"
        },
        {
          "internalType": "string",
          "name": "name",
          "type": "string"
        },
        {
          "internalType": "bool",
          "name": "isActive",
          "type": "bool"
        }
      ],
      "name": "updateCategory",
      "outputs": [],
      "stateMutability": "nonpayable",
      "type": "function"
    },
    {
      "inputs": [
        {
          "internalType": "uint256",
          "name": "productId",
          "type": "uint256"
        },
        {
          "internalType": "string",
          "name": "name",
          "type": "string"
        },
        {
          "internalType": "string",
          "name": "description",
          "type": "string"
        },
        {
          "internalType": "string",
          "name": "image",
          "type": "string"
        },
        {
          "internalType": "uint256",
          "name": "categoryId",
          "type": "uint256"
        },
        {
          "internalType": "uint256",
          "name": "cost",
          "type": "uint256"
        },
        {
          "internalType": "uint256",
          "name": "stock",
          "type": "uint256"
        }
      ],
      "name": "updateProduct",
      "outputs": [],
      "stateMutability": "nonpayable",
      "type": "function"
    },
    {
      "inputs": [
        {
          "internalType": "address",
          "name": "seller",
          "type": "address"
        },
        {
          "internalType": "enum CryptoMartStorage.SellerStatus",
          "name": "status",
          "type": "uint8"
        }
      ],
      "name": "updateSellerStatus",
      "outputs": [],
      "stateMutability": "nonpayable",
      "type": "function"
    },
    {
      "inputs": [
        {
          "internalType": "uint256",
          "name": "id",
          "type": "uint256"
        },
        {
          "internalType": "string",
          "name": "name",
          "type": "string"
        },
        {
          "internalType": "bool",
          "name": "isActive",
          "type": "bool"
        }
      ],
      "name": "updateSubCategory",
      "outputs": [],
      "stateMutability": "nonpayable",
      "type": "function"
    },
    {
      "inputs": [],
      "name": "withdraw",
      "outputs": [],
      "stateMutability": "nonpayable",
      "type": "function"
    },
    {
      "inputs": [],
      "name": "withdrawServiceFees",
      "outputs": [],
      "stateMutability": "nonpayable",
      "type": "function"
    }
  ],
  "bytecode": "0x60a080604052346200012657602081620030f880380380916200002382856200013e565b83398101031262000126576004906001600160a01b039060609082906200004a9062000176565b168060805260405193848092634a9c3a6960e11b82525afa801562000133575f925f905f92620000cc575b5082908160018060a01b03199516855f5416175f551683600154161760015516906002541617600255604051612f6c90816200018c8239608051818181611548015281816117d401528181611d640152611f7f0152f35b935050506060823d6060116200012a575b81620000ec606093836200013e565b810103126200012657620001008262000176565b816200011d6040620001156020870162000176565b950162000176565b91939062000075565b5f80fd5b3d9150620000dd565b6040513d5f823e3d90fd5b601f909101601f19168101906001600160401b038211908210176200016257604052565b634e487b7160e01b5f52604160045260245ffd5b51906001600160a01b0382168203620001265756fe6080604081815260049081361015610015575f80fd5b5f925f3560e01c90816302ee3a521461240f5750806304a6f2761461228f5780630e50cee5146121ef57806311aa5b341461217357806311ce02671461214b5783816316d81b38146120b95750806317e9854814610e1e57806318bb35bd14611f5d5780632148893f14611ed05780632156a96c14611e845783816324d41a0314611e27575080632c7ea0b214611d34578063317a082714611a875780633c2575d514611cd1578381633ccfd60b14611c84575080634293e5ce14611bc9578381634e213d2014611b7c57508063570aea8a14611b305780635ad6a58014611ae1578381635be2095914611a8c5750806366224d8e14611a875780636f2c8599146119dd5780636f68ef3a1461198d5780636f77926b146118035780637b103999146117bf5780637d3978db1461178e5780637e8555ed14611614578381638642269e146115c4575080638da5cb5b146115165783816397b6f3931461149e575080639b269b8f146114285780639d4a22551461120b578063a323d29e1461113657838163a9ab7af21461106057508063b27e169714610fd7578063b9db15b414610f24578063c0403e2714610ec9578063c64b8a8f14610e23578063ceca737f14610e1e578063d1ce59a714610cc4578063d2bc9d7814610b7f578063d637dcfa14610a4757838163d72e481d146109e257508063dadd0a57146107f1578063dc298682146107b6578063e01ef6e614610726578063e17f94c0146106fd578063e6a93e161461069a578063e80db5db14610671578063eb11c434146105be57838163ec4cf85b14610478578163ed90c7b7146103d557508063f3052d261461030e5763fdca4ca314610287575f80fd5b3461030a578260031936011261030a57600154815163fdca4ca360e01b815292849184919082906001600160a01b03165afa91821561030057836102d794936102db575b5050519182918261255e565b0390f35b6102f89293503d8091833e6102f0818361266b565b810190612ad1565b905f806102cb565b81513d85823e3d90fd5b8280fd5b5091346103d25760203660031901126103d2576001548351637982969360e11b81528335938101939093528190839060249082906001600160a01b03165afa9081156103c75780918193828092610397575b5050846103836102d79495965196879687526080602088015260808701906124a5565b921515908501528382036060850152612953565b915091506102d793506103bc92503d8091833e6103b4818361266b565b810190612e5d565b91939091905f610360565b8351903d90823e3d90fd5b80fd5b82818534610467576020366003190112610467576001548135936001600160a01b0390911691823b15610474578460248592838551968794859363ed90c7b760e01b85528401525af190811561046b5750610453575b50807fc341cf326465fe622f86c468249e8c0cb03ed23ba376a6a34863a1374ac7d76991a280f35b61045c906125d7565b61046757818361042b565b5080fd5b513d84823e3d90fd5b8380fd5b82818534610467576003199260e03685011261030a578135936001600160401b03906024358281116105ba576104b190369086016126a9565b906044358381116105b6576104c990369087016126a9565b926064359081116105b6576104e190369087016126a9565b6001546001600160a01b03169190823b156105b25761052e9661054d8a938a979361053e89958b519c8d9a8b998a9863ec4cf85b60e01b8a5289015260e0602489015260e48801906124a5565b90848783030160448801526124a5565b918483030160648501526124a5565b608435608483015260a43560a483015260c43560c483015203925af190811561046b575061059e575b50807feca6714fcf568fb34cf9db4a414cb0cc48e93c5d4e1ba0582a46ea3704cf24d591a280f35b6105a7906125d7565b610467578183610576565b8780fd5b8680fd5b8580fd5b50829034610467576020928360031936011261030a576105dc6125c1565b6001548351633ac4710d60e21b81526001600160a01b03928316848201529491869186916024918391165afa938415610665578194610627575b50505061062590518092612932565bf35b90919293508481813d831161065e575b610641818361266b565b810103126104675751918210156103d25750906106258480610616565b503d610637565b508251903d90823e3d90fd5b83823461046757816003193601126104675760015490516001600160a01b039091168152602090f35b503461030a57602036600319011261030a57826106b56125c1565b60015483516373549f0b60e11b81526001600160a01b039283169581019590955284916024918391165afa91821561030057836102d794936102db575050519182918261255e565b83823461046757816003193601126104675760025490516001600160a01b039091168152602090f35b508290346104675781600319360112610467578154815163700f7b7360e11b81529360209185919082906001600160a01b03165afa9182156107ab5791610772575b6020925051908152f35b90506020823d6020116107a3575b8161078d6020938361266b565b8101031261079f576020915190610768565b5f80fd5b3d9150610780565b9051903d90823e3d90fd5b5050346104675760203660031901126104675780356001600160401b03811161030a576107ee916107e9913691016126a9565b612f03565b80f35b5091346103d257806003193601126103d257600190828160018060a01b036001541686519586809263dadd0a5760e01b82525afa9384156109d85782946108b9575b50508392919351938493602080860191818752855180935280870182828560051b8a0101970195915b8483106108695788880389f35b9193959750919384808298603f198c82030186528a5190858061089d606085518552868601519080888701528501906124a5565b930151151591015299019301930190928897969492959361085c565b909193503d8085833e6108cc818361266b565b81019160209182818503126105ba5780516001600160401b03918282116105b257019184601f840112156105b65782519161090683612986565b956109138a51978861266b565b838752858088019460051b860101948186116109d457868101945b868610610945575050505050505050915f80610833565b85518481116109d0578201606080601f1983870301126109cc578d5191818301838110888211176109b9578f52808b01518352808f01518781116109b5578f908c95938361099c8a896109a695819a9801016129b1565b87860152016129f6565b9082015281520195019461092e565b8e80fd5b604189634e487b7160e01b5f525260245ffd5b8c80fd5b8b80fd5b8980fd5b85513d84823e3d90fd5b80848434610a435782600319360112610a435782546001600160a01b031691823b15610a3e57815163d72e481d60e01b81529284918491829084905af190811561046b5750610a2e5750f35b610a37906125d7565b6103d25780f35b505050fd5b5050fd5b503461030a5782600319606036820112610467576001600160401b0393803585811161047457610a7a90369083016126a9565b94602435818111610b7b57610a9290369084016126a9565b90604435908111610b7b57610aaa90369084016126a9565b9260018060a01b036001541690813b156105ba57858094610b0f606093610af098610b008d988d519b8c9a8b998a98636b1bee7d60e11b8a5289015260648801906124a5565b90848783030160248801526124a5565b918483030160448501526124a5565b03925af18015610b7157610b5d575b50507f48cac28ad4dc618e15f4c2dd5e97751182f166de97b25618318b2112aa951a2f90516020815280610b57339460208301906124a5565b0390a280f35b610b66906125d7565b61030a57825f610b1e565b83513d84823e3d90fd5b8480fd5b50903461030a578160031936011261030a576024803592906001600160401b038085116105ba57366023860112156105ba578484013590610bbf82612986565b91610bcc8551938461266b565b8083526020966024602085019260051b820101923684116109d4579089959493929160248201925b848410610c90575050505050825b8151811015610c8c576001546001600160a01b0316610c218284612b66565b5190803b156105ba57610c529186918a838b8b5196879586948593636e14c34160e11b85528401528b8301906124a5565b03925af18015610c8257908591610c6e575b5050600101610c02565b610c77906125d7565b61047457835f610c64565b86513d87823e3d90fd5b8380f35b909192809495969750358281116109d0578a91610cb383928a36918801016126a9565b815201930191908a96959493610bf4565b508290346104675781600319360112610467576001548151632b85754560e11b81529260209290916001600160a01b0390811684868881845afa958615610ddd57908792918597610dea575b508590845193848092630855aa5b60e21b82525afa918215610ddd579085918593610dac575b5084541683519788809263700f7b7360e11b82525afa938415610da0578394610d70575b6080965082519586528501528301526060820152f35b80945086813d8311610d99575b610d87818361266b565b8101031261079f576080955193610d5a565b503d610d7d565b505051903d90823e3d90fd5b8281939294503d8311610dd6575b610dc4818361266b565b8101031261079f578490519188610d36565b503d610dba565b50505051903d90823e3d90fd5b86809298508194503d8311610e17575b610e04818361266b565b8101031261079f57848792519690610d10565b503d610dfa565b6126ef565b50829034610467576020928360031936011261030a5783610e426125c1565b8454845163c64b8a8f60e01b81526001600160a01b039283169481019490945283916024918391165afa928315610ebe578093610e84575b5050519015158152f35b909192508382813d8311610eb7575b610e9d818361266b565b810103126103d25750610eaf906129f6565b908380610e7a565b503d610e93565b8251903d90823e3d90fd5b5082903461046757602036600319011261046757805191602083016001600160401b03811184821017610f11576102d794508252825251918291602083526020830190612953565b604185634e487b7160e01b5f525260245ffd5b5082903461046757602036600319011261046757610f40612bb0565b506001548151632e76c56d60e21b81528435948101949094528290849060249082906001600160a01b03165afa9182156107ab578092610f90575b8151602080825281906102d7908201866124ca565b9091503d8082853e610fa2818561266b565b830192602081850312610467578051916001600160401b0383116103d2575092610fd0916102d79401612a03565b9083610f7b565b503461030a57602036600319011261030a5782610ff26125c1565b600254835163b27e169760e01b81526001600160a01b039283169581019590955284916024918391165afa91821561030057836102d7949361103b575b505051918291826127ee565b6110589293503d8091833e611050818361266b565b810190612bfc565b905f8061102f565b80848434610a435760031960c036820112610a3e576001600160401b039083358281116105ba5761109490369086016126a9565b906024358381116105b6576110ac90369087016126a9565b926044359081116105b6576110c490369087016126a9565b6001546001600160a01b03169190823b156105b257610af09661110b60c0938a9793610b0089958b519c8d9a8b998a986354d5bd7960e11b8a5289015260c48801906124a5565b6064356064830152608435608483015260a43560a483015203925af190811561046b5750610a2e5750f35b50903461030a57602036600319011261030a576111516125c1565b9061115a612cd7565b506001548351635191e94f60e11b81526001600160a01b039384168382015292859184916024918391165afa918215610ddd578480936111b9575b5050506102d76111ae835194848695865285019061286e565b916020840190612932565b91945091503d8082843e6111cd818461266b565b820183838203126104675782516001600160401b03811161030a576020916111f6918501612d0d565b920151938410156103d25750915f8080611195565b50919034610467576020928360031936011261030a576002548151639d4a225560e01b81528335938101939093526001600160a01b03949084908490602490829089165afa92831561141e5784936112fd575b5092908051938085019181865284518093528086019082818560051b890101960194975b84891061128f5787870388f35b9091929394958480600192603f198b82030187528951906112d560c0835183528785850151168584015288840151898401526060908082860151928501528301906124a5565b9160808082015115159083015260a08091015191015298019401980197919094939294611282565b9092503d8085833e61130f818361266b565b81018382820312610b7b5781516001600160401b03928382116105b6570181601f820112156105ba57805161134381612986565b936113508651958661266b565b818552868086019260051b8401019284841161141a57878101925b84841061137f57505050505050915f61125e565b835183811161141657820160c09081601f19828a0301126109d0578951916113a683612619565b8b82015183526113b78b830161299d565b8c840152606091828101518c8501526080928382015188811161141257918e969492916113eb8d89809997958501016129b1565b9085015260a0926113fd8483016129f6565b9085015201519082015281520193019261136b565b8f80fd5b8a80fd5b8880fd5b82513d86823e3d90fd5b503461030a578260031936011261030a576001548151639b269b8f60e01b815292849184919082906001600160a01b03165afa91821561030057836102d79493611479575b505051918291826128ee565b6114969293503d8091833e61148e818361266b565b810190612ddc565b905f8061146d565b80848434610a435780600319360112610a43576114b96125c1565b6024359083821015610b7b576001546001600160a01b039190821690813b156105b6578660449261150582968851998a9788966397b6f39360e01b885216908601526024850190612932565b5af190811561046b5750610a2e5750f35b508290346104675781600319360112610467578051638da5cb5b60e01b8152926001600160a01b0391906020908590817f000000000000000000000000000000000000000000000000000000000000000086165afa9283156107ab578093611585575b50602093505191168152f35b9092506020843d6020116115bc575b816115a16020938361266b565b810103126103d257506115b560209361299d565b9184611579565b3d9150611594565b8084846020366003190112610a43576002546001600160a01b031691823b15610a3e5783906024835180958193634321134f60e11b835280359083015234905af190811561046b5750610a2e5750f35b503461030a578260031960a036820112610467576001600160401b0384358181116104745761164690369087016126a9565b94602435828111610b7b5761165e90369083016126a9565b906044358381116105ba5761167690369083016126a9565b936064358481116105b65761168e90369084016126a9565b936084359081116105b6576116a690369084016126a9565b9360018060a01b036001541692833b156105b25787958a9387938b51998a9889978896637e8555ed60e01b8852870160a0905260a487016116e6916124a5565b848782030160248801526116f9916124a5565b8386820301604487015261170c916124a5565b8285820301606486015261171f916124a5565b90838203016084840152611732916124a5565b03925af18015610b715761177a575b50507fecef9454c60fab6a60b6f2aa319263c0f711cdb927c213e76687f7853b59784290516020815280610b57339460208301906124a5565b611783906125d7565b61030a57825f611741565b503461030a57366003190112610467576024356001600160401b03811161030a576107ee916107e9913691016126a9565b838234610467578160031936011261046757517f00000000000000000000000000000000000000000000000000000000000000006001600160a01b03168152602090f35b5091903461046757602091826003193601126103d2576118216125c1565b908085519261182f846125fe565b81606085818097528189820152818a8201520152602460018060a01b0391826001541689519788948593636f77926b60e01b855216908301525afa9283156119815781936118d4575b50506118c684519484869586526118b461189d86516080848a015260a08901906124a5565b9186015191601f19928389830301858a01526124a5565b918501519086830301848701526124a5565b910151151560808301520390f35b909192503d8083833e6118e7818361266b565b8101848282031261030a5781516001600160401b0392838211610b7b5701916080838303126104745786519361191c856125fe565b835182811161046757836119319186016129b1565b855286840151828111610467578361194a9186016129b1565b87860152878401519182116103d257509161196b85926119759483016129b1565b87850152016129f6565b82820152905f80611878565b508451903d90823e3d90fd5b503461030a578260031936011261030a5760015481516337b4779d60e11b815292849184919082906001600160a01b03165afa91821561030057836102d7949361147957505051918291826128ee565b50829034610467576020366003190112610467576001548151637982969360e11b81528435948101949094528290849060249082906001600160a01b03165afa8015611a7c578280948192611a58575b50611a49835195869586526080602087015260808601906124a5565b92840152151560608301520390f35b91509250611a719193503d8084833e6103b4818361266b565b509093919285611a2d565b5051903d90823e3d90fd5b612753565b80848434610a43576020366003190112610a435782546001600160a01b031691823b15610a3e5783926024849284519586938492632aafa80760e01b84528035908401525af190811561046b5750610a2e5750f35b503461030a578260031936011261030a57600154815162b5ad4b60e71b815292849184919082906001600160a01b03165afa91821561030057836102d7949361147957505051918291826128ee565b508290346104675781600319360112610467576001548151632b85754560e11b81529360209185919082906001600160a01b03165afa9182156107ab5791610772576020925051908152f35b80848434610a435782600319360112610a43576001546001600160a01b031691823b15610a3e57815163027109e960e51b81529284918491829084905af190811561046b5750610a2e5750f35b508290346104675760203660031901126104675781611be66125c1565b611bee612cd7565b506001548351632149f2e760e11b81526001600160a01b039283169681019690965285916024918391165afa9182156107ab578092611c3d575b8151602080825281906102d79082018661286e565b9091503d8082853e611c4f818561266b565b830192602081850312610467578051916001600160401b0383116103d2575092611c7d916102d79401612d0d565b9083611c28565b80848434610a435782600319360112610a43576002546001600160a01b031691823b15610a3e578151633ccfd60b60e01b81529284918491829084905af190811561046b5750610a2e5750f35b503461030a57602036600319011261030a5782611cec6125c1565b6002548351633c2575d560e01b81526001600160a01b039283169581019590955284916024918391165afa91821561030057836102d7949361103b57505051918291826127ee565b503461030a578260031936011261030a578051634a9c3a6960e11b8152916001600160a01b0391906060908490817f000000000000000000000000000000000000000000000000000000000000000086165afa908115611e1e57849385918693611dc6575b505082908160018060a01b0319951685875416178655168360015416176001551690600254161760025580f35b92509350506060833d606011611e16575b81611de46060938361266b565b810103126104745781611e0d611df98561299d565b92611e066020870161299d565b950161299d565b9193905f611d99565b3d9150611dd7565b513d85823e3d90fd5b80848434610a435780600319360112610a43576002546001600160a01b031691823b15610a3e57839260448492845195869384926324d41a0360e01b845280359084015260243560248401525af190811561046b5750610a2e5750f35b508290346104675781600319360112610467576001548151630855aa5b60e21b81529360209185919082906001600160a01b03165afa9182156107ab5791610772576020925051908152f35b50829034610467576020928360031936011261030a5783611eef6125c1565b6002548451632148893f60e01b81526001600160a01b039283169481019490945283916024918391165afa928315610ebe5792611f2e575b5051908152f35b9091508281813d8311611f56575b611f46818361266b565b8101031261079f57519083611f27565b503d611f3c565b508290346104675781600319360112610467578051631a740af960e31b8152917f00000000000000000000000000000000000000000000000000000000000000006001600160a01b0316916020919082858781875afa948515611a7c578295612082575b50805163bfc12c0560e01b815283818881885afa928315610ebe5792612053575b508051928382016001600160401b03811185821017612040576102d7959697508252600f84526e052656769737472792076312e302e3608c1b81850152815196879687521515908601528401526080606084015260808301906124a5565b604188634e487b7160e01b5f525260245ffd5b9091508281813d831161207b575b61206b818361266b565b8101031261079f57519086611fe2565b503d612061565b9094508281813d83116120b2575b61209a818361266b565b81010312610467576120ab906129f6565b9386611fc1565b503d612090565b80848434610a43576060366003190112610a43576044356001600160401b038111610a3e576120eb90369084016126a9565b6002546001600160a01b03169290833b15610b7b576121389385928385518097819582946302db036760e31b845280359084015260243560248401526060604484015260648301906124a5565b03925af190811561046b5750610a2e5750f35b838234610467578160031936011261046757905490516001600160a01b039091168152602090f35b503461079f578060031936011261079f576024356001600160a01b03818116939184900361079f576002541692833b1561079f5760445f92838551968794859363046a96cd60e21b855280359085015260248401525af19081156121e657506121da575080f35b6121e491506125d7565b005b513d5f823e3d90fd5b50903461079f576020918260031936011261079f578261220d6125c1565b5f548351630e50cee560e01b81526001600160a01b039283169581019590955284916024918391165afa918215612285575f9261224e575b50519015158152f35b9091508281813d831161227e575b612266818361266b565b8101031261079f57612277906129f6565b9083612245565b503d61225c565b50513d5f823e3d90fd5b503461079f57602090602060031936011261079f576001805482516301771d2960e11b81529194803592915f91839182906001600160a01b03165afa908115612405575f916123eb575b505f938585815b6123ac575b50506122f085612986565b946122fd8551968761266b565b80865261230c601f1991612986565b015f5b818110612396575050505f91855f905b612331575b8451806102d7888261255e565b8251811015612391579086828260a061234d8796859998612b66565b51015114612360575b019091929361231f565b9361238b9061236f8686612b66565b5161237a828b612b66565b52612385818a612b66565b50612b8e565b93612356565b612324565b82906123a0612bb0565b82828a0101520161230f565b83518110156123e6578460a06123c28387612b66565b510151146123d3575b8101816122e0565b956123de8291612b8e565b9690506123cb565b6122e5565b6123ff91503d805f833e6102f0818361266b565b856122d9565b83513d5f823e3d90fd5b9050823461079f575f36600319011261079f576001546301771d2960e11b83525f91839182906001600160a01b03165afa90811561247a57916102d7925f9261245e575b50519182918261255e565b6124739192503d805f833e6102f0818361266b565b9083612453565b82513d5f823e3d90fd5b5f5b8381106124955750505f910152565b8181015183820152602001612486565b906020916124be81518092818552858086019101612484565b601f01601f1916010190565b906125256125136125016101408551855260018060a01b0360208701511660208601526040860151908060408701528501906124a5565b606085015184820360608601526124a5565b608084015183820360808501526124a5565b9160a081015160a083015260c081015160c083015260e081015160e0830152610100808201519083015261012080910151151591015290565b6020808201906020835283518092526040830192602060408460051b8301019501935f915b8483106125935750505050505090565b90919293949584806125b1600193603f198682030187528a516124ca565b9801930193019194939290612583565b600435906001600160a01b038216820361079f57565b6001600160401b0381116125ea57604052565b634e487b7160e01b5f52604160045260245ffd5b608081019081106001600160401b038211176125ea57604052565b60c081019081106001600160401b038211176125ea57604052565b61014081019081106001600160401b038211176125ea57604052565b60e081019081106001600160401b038211176125ea57604052565b601f909101601f19168101906001600160401b038211908210176125ea57604052565b6001600160401b0381116125ea57601f01601f191660200190565b81601f8201121561079f578035906126c08261268e565b926126ce604051948561266b565b8284526020838301011161079f57815f926020809301838601378301015290565b3461079f57602036600319011261079f576001546001600160a01b0316803b1561079f575f809160246040518094819363ceca737f60e01b835260043560048401525af180156127485761273f57005b6121e4906125d7565b6040513d5f823e3d90fd5b3461079f57606036600319011261079f576024356001600160401b03811161079f576127839036906004016126a9565b6044359081151580920361079f576001546001600160a01b031690813b1561079f575f916127d8918360405180968195829463331126c760e11b845260043560048501526060602485015260648401906124a5565b90604483015203925af180156127485761273f57005b60208082019080835283518092528060408094019401925f905b83821061281757505050505090565b845180518752808401516001600160a01b0390811688860152818301511687830152606080820151908801526080808201519088015260a09081015115159087015260c09095019493820193600190910190612808565b9060c0806128d96128c76128b56128a3612891885160e0895260e08901906124a5565b602089015188820360208a01526124a5565b604088015187820360408901526124a5565b606087015186820360608801526124a5565b608086015185820360808701526124a5565b9360a0810151151560a0850152015191015290565b60209060206040818301928281528551809452019301915f5b828110612915575050505090565b83516001600160a01b031685529381019392810192600101612907565b90600482101561293f5752565b634e487b7160e01b5f52602160045260245ffd5b9081518082526020808093019301915f5b828110612972575050505090565b835185529381019392810192600101612964565b6001600160401b0381116125ea5760051b60200190565b51906001600160a01b038216820361079f57565b81601f8201121561079f5780516129c78161268e565b926129d5604051948561266b565b8184526020828401011161079f576129f39160208085019101612484565b90565b5190811515820361079f57565b9190916101408184031261079f5760405190612a1e82612634565b819381518352612a306020830161299d565b602084015260408201516001600160401b03919082811161079f5781612a579185016129b1565b6040850152606083015182811161079f5781612a749185016129b1565b6060850152608083015191821161079f57612a909183016129b1565b608083015260a081015160a083015260c081015160c083015260e081015160e08301526101008082015190830152612acc6101208092016129f6565b910152565b90602090818382031261079f5782516001600160401b039384821161079f570181601f8201121561079f578051612b0781612986565b94612b15604051968761266b565b818652848087019260051b8401019380851161079f57858401925b858410612b41575050505050505090565b835183811161079f578791612b5b848480948a0101612a03565b815201930192612b30565b8051821015612b7a5760209160051b010190565b634e487b7160e01b5f52603260045260245ffd5b5f198114612b9c5760010190565b634e487b7160e01b5f52601160045260245ffd5b60405190612bbd82612634565b5f6101208382815282602082015260606040820152606080820152606060808201528260a08201528260c08201528260e0820152826101008201520152565b602090818184031261079f578051906001600160401b03821161079f570182601f8201121561079f57805191612c3183612986565b936040612c41604051968761266b565b848652828601918360c08097028601019481861161079f578401925b858410612c6e575050505050505090565b868483031261079f578487918451612c8581612619565b86518152612c9483880161299d565b83820152612ca386880161299d565b86820152606080880151908201526080808801519082015260a0612cc88189016129f6565b90820152815201930192612c5d565b60405190612ce482612650565b5f60c0836060808252806020830152806040830152808083015260808201528260a08201520152565b91909160e08184031261079f5760405190612d2782612650565b8051919384926001600160401b03929083811161079f5782612d4a9183016129b1565b8452602081015183811161079f5782612d649183016129b1565b6020850152604081015183811161079f5782612d819183016129b1565b6040850152606081015183811161079f5782612d9e9183016129b1565b6060850152608081015192831161079f57612dbf60c09392849383016129b1565b6080850152612dd060a082016129f6565b60a08501520151910152565b602090818184031261079f578051906001600160401b03821161079f57019180601f8401121561079f578251612e1181612986565b93612e1f604051958661266b565b818552838086019260051b82010192831161079f578301905b828210612e46575050505090565b838091612e528461299d565b815201910190612e38565b60808183031261079f57805192602092838301519360018060401b039485811161079f5782612e8d9186016129b1565b94612e9a604086016129f6565b94606081015191821161079f57019180601f8401121561079f578251612ebf81612986565b93612ecd604051958661266b565b818552838086019260051b82010192831161079f578301905b828210612ef4575050505090565b81518152908301908301612ee6565b6001546001600160a01b0316803b1561079f57604051636e14c34160e11b815260206004820152915f918391829084908290612f439060248301906124a5565b03925af1801561274857612f545750565b612f5d906125d7565b56fea164736f6c6343000818000a",
  "linkReferences": {},
  "deployedLinkReferences": {}
}