{
  "_format": "hh-sol-artifact-1",
  "contractName": "CryptoMart",
  "sourceName": "contracts/CryptoMartProxy.sol",
  "abi": [
    {
      "inputs": [
        {
          "internalType": "address",
          "name": "_registry",
          "type": "address"
        }
      ],
      "stateMutability": "nonpayable",
      "type": "constructor"
    },
    {
      "anonymous": false,
      "inputs": [
        {
          "indexed": true,
          "internalType": "address",
          "name": "seller",
          "type": "address"
        },
        {
          "indexed": false,
          "internalType": "uint256",
          "name": "amount",
          "type": "uint256"
        }
      ],
      "name": "BalanceWithdrawn",
      "type": "event"
    },
    {
      "anonymous": false,
      "inputs": [
        {
          "indexed": true,
          "internalType": "uint256",
          "name": "categoryId",
          "type": "uint256"
        },
        {
          "indexed": false,
          "internalType": "string",
          "name": "name",
          "type": "string"
        }
      ],
      "name": "CategoryCreated",
      "type": "event"
    },
    {
      "anonymous": false,
      "inputs": [
        {
          "indexed": true,
          "internalType": "address",
          "name": "previousOwner",
          "type": "address"
        },
        {
          "indexed": true,
          "internalType": "address",
          "name": "newOwner",
          "type": "address"
        }
      ],
      "name": "OwnershipTransferred",
      "type": "event"
    },
    {
      "anonymous": false,
      "inputs": [
        {
          "indexed": true,
          "internalType": "uint256",
          "name": "productId",
          "type": "uint256"
        },
        {
          "indexed": true,
          "internalType": "address",
          "name": "seller",
          "type": "address"
        },
        {
          "indexed": false,
          "internalType": "string",
          "name": "name",
          "type": "string"
        },
        {
          "indexed": false,
          "internalType": "uint256",
          "name": "cost",
          "type": "uint256"
        }
      ],
      "name": "ProductCreated",
      "type": "event"
    },
    {
      "anonymous": false,
      "inputs": [
        {
          "indexed": true,
          "internalType": "uint256",
          "name": "productId",
          "type": "uint256"
        }
      ],
      "name": "ProductDeleted",
      "type": "event"
    },
    {
      "anonymous": false,
      "inputs": [
        {
          "indexed": true,
          "internalType": "uint256",
          "name": "productId",
          "type": "uint256"
        },
        {
          "indexed": true,
          "internalType": "address",
          "name": "buyer",
          "type": "address"
        },
        {
          "indexed": true,
          "internalType": "address",
          "name": "seller",
          "type": "address"
        }
      ],
      "name": "ProductPurchased",
      "type": "event"
    },
    {
      "anonymous": false,
      "inputs": [
        {
          "indexed": true,
          "internalType": "uint256",
          "name": "productId",
          "type": "uint256"
        }
      ],
      "name": "ProductUpdated",
      "type": "event"
    },
    {
      "anonymous": false,
      "inputs": [
        {
          "indexed": true,
          "internalType": "uint256",
          "name": "productId",
          "type": "uint256"
        },
        {
          "indexed": true,
          "internalType": "address",
          "name": "reviewer",
          "type": "address"
        },
        {
          "indexed": false,
          "internalType": "uint256",
          "name": "rating",
          "type": "uint256"
        }
      ],
      "name": "ReviewCreated",
      "type": "event"
    },
    {
      "anonymous": false,
      "inputs": [
        {
          "indexed": true,
          "internalType": "address",
          "name": "seller",
          "type": "address"
        },
        {
          "indexed": false,
          "internalType": "string",
          "name": "businessName",
          "type": "string"
        }
      ],
      "name": "SellerRegistered",
      "type": "event"
    },
    {
      "anonymous": false,
      "inputs": [
        {
          "indexed": true,
          "internalType": "address",
          "name": "user",
          "type": "address"
        },
        {
          "indexed": false,
          "internalType": "string",
          "name": "name",
          "type": "string"
        }
      ],
      "name": "UserRegistered",
      "type": "event"
    },
    {
      "inputs": [
        {
          "internalType": "uint256",
          "name": "productId",
          "type": "uint256"
        }
      ],
      "name": "buyProduct",
      "outputs": [],
      "stateMutability": "payable",
      "type": "function"
    },
    {
      "inputs": [
        {
          "internalType": "uint256",
          "name": "newPct",
          "type": "uint256"
        }
      ],
      "name": "changeServicePct",
      "outputs": [],
      "stateMutability": "nonpayable",
      "type": "function"
    },
    {
      "inputs": [],
      "name": "coreContract",
      "outputs": [
        {
          "internalType": "contract CryptoMartCore",
          "name": "",
          "type": "address"
        }
      ],
      "stateMutability": "view",
      "type": "function"
    },
    {
      "inputs": [
        {
          "internalType": "string",
          "name": "name",
          "type": "string"
        }
      ],
      "name": "createCategory",
      "outputs": [],
      "stateMutability": "nonpayable",
      "type": "function"
    },
    {
      "inputs": [
        {
          "internalType": "string",
          "name": "name",
          "type": "string"
        },
        {
          "internalType": "string",
          "name": "description",
          "type": "string"
        },
        {
          "internalType": "string",
          "name": "image",
          "type": "string"
        },
        {
          "internalType": "uint256",
          "name": "categoryId",
          "type": "uint256"
        },
        {
          "internalType": "uint256",
          "name": "cost",
          "type": "uint256"
        },
        {
          "internalType": "uint256",
          "name": "stock",
          "type": "uint256"
        }
      ],
      "name": "createProduct",
      "outputs": [],
      "stateMutability": "nonpayable",
      "type": "function"
    },
    {
      "inputs": [
        {
          "internalType": "uint256",
          "name": "productId",
          "type": "uint256"
        },
        {
          "internalType": "uint256",
          "name": "rating",
          "type": "uint256"
        },
        {
          "internalType": "string",
          "name": "comment",
          "type": "string"
        }
      ],
      "name": "createReview",
      "outputs": [],
      "stateMutability": "nonpayable",
      "type": "function"
    },
    {
      "inputs": [
        {
          "internalType": "uint256",
          "name": "",
          "type": "uint256"
        },
        {
          "internalType": "string[]",
          "name": "names",
          "type": "string[]"
        }
      ],
      "name": "createSubCategoriesBulk",
      "outputs": [],
      "stateMutability": "nonpayable",
      "type": "function"
    },
    {
      "inputs": [
        {
          "internalType": "uint256",
          "name": "",
          "type": "uint256"
        },
        {
          "internalType": "string",
          "name": "name",
          "type": "string"
        }
      ],
      "name": "createSubCategory",
      "outputs": [],
      "stateMutability": "nonpayable",
      "type": "function"
    },
    {
      "inputs": [
        {
          "internalType": "uint256",
          "name": "id",
          "type": "uint256"
        }
      ],
      "name": "deleteCategory",
      "outputs": [],
      "stateMutability": "nonpayable",
      "type": "function"
    },
    {
      "inputs": [
        {
          "internalType": "uint256",
          "name": "productId",
          "type": "uint256"
        }
      ],
      "name": "deleteProduct",
      "outputs": [],
      "stateMutability": "nonpayable",
      "type": "function"
    },
    {
      "inputs": [
        {
          "internalType": "uint256",
          "name": "productId",
          "type": "uint256"
        },
        {
          "internalType": "uint256",
          "name": "reviewId",
          "type": "uint256"
        }
      ],
      "name": "deleteReview",
      "outputs": [],
      "stateMutability": "nonpayable",
      "type": "function"
    },
    {
      "inputs": [
        {
          "internalType": "uint256",
          "name": "id",
          "type": "uint256"
        }
      ],
      "name": "deleteSubCategory",
      "outputs": [],
      "stateMutability": "nonpayable",
      "type": "function"
    },
    {
      "inputs": [],
      "name": "getAllCategories",
      "outputs": [
        {
          "components": [
            {
              "internalType": "uint256",
              "name": "id",
              "type": "uint256"
            },
            {
              "internalType": "string",
              "name": "name",
              "type": "string"
            },
            {
              "internalType": "bool",
              "name": "isActive",
              "type": "bool"
            }
          ],
          "internalType": "struct CryptoMartStorage.CategoryStruct[]",
          "name": "",
          "type": "tuple[]"
        }
      ],
      "stateMutability": "view",
      "type": "function"
    },
    {
      "inputs": [],
      "name": "getAllProducts",
      "outputs": [
        {
          "components": [
            {
              "internalType": "uint256",
              "name": "id",
              "type": "uint256"
            },
            {
              "internalType": "address",
              "name": "seller",
              "type": "address"
            },
            {
              "internalType": "string",
              "name": "name",
              "type": "string"
            },
            {
              "internalType": "string",
              "name": "description",
              "type": "string"
            },
            {
              "internalType": "string",
              "name": "image",
              "type": "string"
            },
            {
              "internalType": "uint256",
              "name": "categoryId",
              "type": "uint256"
            },
            {
              "internalType": "uint256",
              "name": "cost",
              "type": "uint256"
            },
            {
              "internalType": "uint256",
              "name": "stock",
              "type": "uint256"
            },
            {
              "internalType": "uint256",
              "name": "timestamp",
              "type": "uint256"
            },
            {
              "internalType": "bool",
              "name": "deleted",
              "type": "bool"
            }
          ],
          "internalType": "struct CryptoMartStorage.ProductStruct[]",
          "name": "",
          "type": "tuple[]"
        }
      ],
      "stateMutability": "view",
      "type": "function"
    },
    {
      "inputs": [],
      "name": "getAllRegisteredSellers",
      "outputs": [
        {
          "internalType": "address[]",
          "name": "",
          "type": "address[]"
        }
      ],
      "stateMutability": "view",
      "type": "function"
    },
    {
      "inputs": [],
      "name": "getAllSellers",
      "outputs": [
        {
          "internalType": "address[]",
          "name": "",
          "type": "address[]"
        }
      ],
      "stateMutability": "view",
      "type": "function"
    },
    {
      "inputs": [
        {
          "internalType": "address",
          "name": "buyer",
          "type": "address"
        }
      ],
      "name": "getBuyerPurchaseHistory",
      "outputs": [
        {
          "components": [
            {
              "internalType": "uint256",
              "name": "productId",
              "type": "uint256"
            },
            {
              "internalType": "address",
              "name": "buyer",
              "type": "address"
            },
            {
              "internalType": "address",
              "name": "seller",
              "type": "address"
            },
            {
              "internalType": "uint256",
              "name": "totalAmount",
              "type": "uint256"
            },
            {
              "internalType": "uint256",
              "name": "timestamp",
              "type": "uint256"
            },
            {
              "internalType": "bool",
              "name": "isDelivered",
              "type": "bool"
            }
          ],
          "internalType": "struct CryptoMartStorage.PurchaseStruct[]",
          "name": "",
          "type": "tuple[]"
        }
      ],
      "stateMutability": "view",
      "type": "function"
    },
    {
      "inputs": [
        {
          "internalType": "uint256",
          "name": "id",
          "type": "uint256"
        }
      ],
      "name": "getCategory",
      "outputs": [
        {
          "internalType": "uint256",
          "name": "",
          "type": "uint256"
        },
        {
          "internalType": "string",
          "name": "",
          "type": "string"
        },
        {
          "internalType": "bool",
          "name": "",
          "type": "bool"
        },
        {
          "internalType": "uint256[]",
          "name": "",
          "type": "uint256[]"
        }
      ],
      "stateMutability": "view",
      "type": "function"
    },
    {
      "inputs": [],
      "name": "getMyProducts",
      "outputs": [
        {
          "components": [
            {
              "internalType": "uint256",
              "name": "id",
              "type": "uint256"
            },
            {
              "internalType": "address",
              "name": "seller",
              "type": "address"
            },
            {
              "internalType": "string",
              "name": "name",
              "type": "string"
            },
            {
              "internalType": "string",
              "name": "description",
              "type": "string"
            },
            {
              "internalType": "string",
              "name": "image",
              "type": "string"
            },
            {
              "internalType": "uint256",
              "name": "categoryId",
              "type": "uint256"
            },
            {
              "internalType": "uint256",
              "name": "cost",
              "type": "uint256"
            },
            {
              "internalType": "uint256",
              "name": "stock",
              "type": "uint256"
            },
            {
              "internalType": "uint256",
              "name": "timestamp",
              "type": "uint256"
            },
            {
              "internalType": "bool",
              "name": "deleted",
              "type": "bool"
            }
          ],
          "internalType": "struct CryptoMartStorage.ProductStruct[]",
          "name": "",
          "type": "tuple[]"
        }
      ],
      "stateMutability": "view",
      "type": "function"
    },
    {
      "inputs": [],
      "name": "getPendingVerificationUsers",
      "outputs": [
        {
          "internalType": "address[]",
          "name": "",
          "type": "address[]"
        }
      ],
      "stateMutability": "view",
      "type": "function"
    },
    {
      "inputs": [
        {
          "internalType": "uint256",
          "name": "productId",
          "type": "uint256"
        }
      ],
      "name": "getProduct",
      "outputs": [
        {
          "components": [
            {
              "internalType": "uint256",
              "name": "id",
              "type": "uint256"
            },
            {
              "internalType": "address",
              "name": "seller",
              "type": "address"
            },
            {
              "internalType": "string",
              "name": "name",
              "type": "string"
            },
            {
              "internalType": "string",
              "name": "description",
              "type": "string"
            },
            {
              "internalType": "string",
              "name": "image",
              "type": "string"
            },
            {
              "internalType": "uint256",
              "name": "categoryId",
              "type": "uint256"
            },
            {
              "internalType": "uint256",
              "name": "cost",
              "type": "uint256"
            },
            {
              "internalType": "uint256",
              "name": "stock",
              "type": "uint256"
            },
            {
              "internalType": "uint256",
              "name": "timestamp",
              "type": "uint256"
            },
            {
              "internalType": "bool",
              "name": "deleted",
              "type": "bool"
            }
          ],
          "internalType": "struct CryptoMartStorage.ProductStruct",
          "name": "",
          "type": "tuple"
        }
      ],
      "stateMutability": "view",
      "type": "function"
    },
    {
      "inputs": [
        {
          "internalType": "uint256",
          "name": "categoryId",
          "type": "uint256"
        }
      ],
      "name": "getProductsByCategory",
      "outputs": [
        {
          "components": [
            {
              "internalType": "uint256",
              "name": "id",
              "type": "uint256"
            },
            {
              "internalType": "address",
              "name": "seller",
              "type": "address"
            },
            {
              "internalType": "string",
              "name": "name",
              "type": "string"
            },
            {
              "internalType": "string",
              "name": "description",
              "type": "string"
            },
            {
              "internalType": "string",
              "name": "image",
              "type": "string"
            },
            {
              "internalType": "uint256",
              "name": "categoryId",
              "type": "uint256"
            },
            {
              "internalType": "uint256",
              "name": "cost",
              "type": "uint256"
            },
            {
              "internalType": "uint256",
              "name": "stock",
              "type": "uint256"
            },
            {
              "internalType": "uint256",
              "name": "timestamp",
              "type": "uint256"
            },
            {
              "internalType": "bool",
              "name": "deleted",
              "type": "bool"
            }
          ],
          "internalType": "struct CryptoMartStorage.ProductStruct[]",
          "name": "",
          "type": "tuple[]"
        }
      ],
      "stateMutability": "view",
      "type": "function"
    },
    {
      "inputs": [],
      "name": "getRegistryInfo",
      "outputs": [
        {
          "internalType": "address",
          "name": "registryAddress",
          "type": "address"
        },
        {
          "internalType": "bool",
          "name": "isConfigured",
          "type": "bool"
        },
        {
          "internalType": "uint256",
          "name": "deploymentTime",
          "type": "uint256"
        },
        {
          "internalType": "string",
          "name": "version",
          "type": "string"
        }
      ],
      "stateMutability": "view",
      "type": "function"
    },
    {
      "inputs": [
        {
          "internalType": "uint256",
          "name": "productId",
          "type": "uint256"
        }
      ],
      "name": "getReviews",
      "outputs": [
        {
          "components": [
            {
              "internalType": "uint256",
              "name": "reviewId",
              "type": "uint256"
            },
            {
              "internalType": "address",
              "name": "reviewer",
              "type": "address"
            },
            {
              "internalType": "uint256",
              "name": "rating",
              "type": "uint256"
            },
            {
              "internalType": "string",
              "name": "comment",
              "type": "string"
            },
            {
              "internalType": "bool",
              "name": "deleted",
              "type": "bool"
            },
            {
              "internalType": "uint256",
              "name": "timestamp",
              "type": "uint256"
            }
          ],
          "internalType": "struct CryptoMartStorage.ReviewStruct[]",
          "name": "",
          "type": "tuple[]"
        }
      ],
      "stateMutability": "view",
      "type": "function"
    },
    {
      "inputs": [
        {
          "internalType": "address",
          "name": "seller",
          "type": "address"
        }
      ],
      "name": "getSeller",
      "outputs": [
        {
          "components": [
            {
              "internalType": "string",
              "name": "businessName",
              "type": "string"
            },
            {
              "internalType": "string",
              "name": "description",
              "type": "string"
            },
            {
              "internalType": "string",
              "name": "email",
              "type": "string"
            },
            {
              "internalType": "string",
              "name": "phone",
              "type": "string"
            },
            {
              "internalType": "string",
              "name": "logo",
              "type": "string"
            },
            {
              "internalType": "bool",
              "name": "isRegistered",
              "type": "bool"
            },
            {
              "internalType": "uint256",
              "name": "registeredAt",
              "type": "uint256"
            }
          ],
          "internalType": "struct CryptoMartStorage.SellerProfile",
          "name": "",
          "type": "tuple"
        },
        {
          "internalType": "enum CryptoMartStorage.SellerStatus",
          "name": "",
          "type": "uint8"
        }
      ],
      "stateMutability": "view",
      "type": "function"
    },
    {
      "inputs": [
        {
          "internalType": "address",
          "name": "seller",
          "type": "address"
        }
      ],
      "name": "getSellerBalance",
      "outputs": [
        {
          "internalType": "uint256",
          "name": "",
          "type": "uint256"
        }
      ],
      "stateMutability": "view",
      "type": "function"
    },
    {
      "inputs": [
        {
          "internalType": "address",
          "name": "seller",
          "type": "address"
        }
      ],
      "name": "getSellerProducts",
      "outputs": [
        {
          "components": [
            {
              "internalType": "uint256",
              "name": "id",
              "type": "uint256"
            },
            {
              "internalType": "address",
              "name": "seller",
              "type": "address"
            },
            {
              "internalType": "string",
              "name": "name",
              "type": "string"
            },
            {
              "internalType": "string",
              "name": "description",
              "type": "string"
            },
            {
              "internalType": "string",
              "name": "image",
              "type": "string"
            },
            {
              "internalType": "uint256",
              "name": "categoryId",
              "type": "uint256"
            },
            {
              "internalType": "uint256",
              "name": "cost",
              "type": "uint256"
            },
            {
              "internalType": "uint256",
              "name": "stock",
              "type": "uint256"
            },
            {
              "internalType": "uint256",
              "name": "timestamp",
              "type": "uint256"
            },
            {
              "internalType": "bool",
              "name": "deleted",
              "type": "bool"
            }
          ],
          "internalType": "struct CryptoMartStorage.ProductStruct[]",
          "name": "",
          "type": "tuple[]"
        }
      ],
      "stateMutability": "view",
      "type": "function"
    },
    {
      "inputs": [
        {
          "internalType": "address",
          "name": "seller",
          "type": "address"
        }
      ],
      "name": "getSellerProfile",
      "outputs": [
        {
          "components": [
            {
              "internalType": "string",
              "name": "businessName",
              "type": "string"
            },
            {
              "internalType": "string",
              "name": "description",
              "type": "string"
            },
            {
              "internalType": "string",
              "name": "email",
              "type": "string"
            },
            {
              "internalType": "string",
              "name": "phone",
              "type": "string"
            },
            {
              "internalType": "string",
              "name": "logo",
              "type": "string"
            },
            {
              "internalType": "bool",
              "name": "isRegistered",
              "type": "bool"
            },
            {
              "internalType": "uint256",
              "name": "registeredAt",
              "type": "uint256"
            }
          ],
          "internalType": "struct CryptoMartStorage.SellerProfile",
          "name": "",
          "type": "tuple"
        }
      ],
      "stateMutability": "view",
      "type": "function"
    },
    {
      "inputs": [
        {
          "internalType": "address",
          "name": "seller",
          "type": "address"
        }
      ],
      "name": "getSellerPurchaseHistory",
      "outputs": [
        {
          "components": [
            {
              "internalType": "uint256",
              "name": "productId",
              "type": "uint256"
            },
            {
              "internalType": "address",
              "name": "buyer",
              "type": "address"
            },
            {
              "internalType": "address",
              "name": "seller",
              "type": "address"
            },
            {
              "internalType": "uint256",
              "name": "totalAmount",
              "type": "uint256"
            },
            {
              "internalType": "uint256",
              "name": "timestamp",
              "type": "uint256"
            },
            {
              "internalType": "bool",
              "name": "isDelivered",
              "type": "bool"
            }
          ],
          "internalType": "struct CryptoMartStorage.PurchaseStruct[]",
          "name": "",
          "type": "tuple[]"
        }
      ],
      "stateMutability": "view",
      "type": "function"
    },
    {
      "inputs": [
        {
          "internalType": "address",
          "name": "seller",
          "type": "address"
        }
      ],
      "name": "getSellerStatus",
      "outputs": [
        {
          "internalType": "enum CryptoMartStorage.SellerStatus",
          "name": "",
          "type": "uint8"
        }
      ],
      "stateMutability": "view",
      "type": "function"
    },
    {
      "inputs": [
        {
          "internalType": "uint256",
          "name": "",
          "type": "uint256"
        }
      ],
      "name": "getSubCategories",
      "outputs": [
        {
          "internalType": "uint256[]",
          "name": "",
          "type": "uint256[]"
        }
      ],
      "stateMutability": "pure",
      "type": "function"
    },
    {
      "inputs": [
        {
          "internalType": "uint256",
          "name": "id",
          "type": "uint256"
        }
      ],
      "name": "getSubCategory",
      "outputs": [
        {
          "internalType": "uint256",
          "name": "",
          "type": "uint256"
        },
        {
          "internalType": "string",
          "name": "",
          "type": "string"
        },
        {
          "internalType": "uint256",
          "name": "",
          "type": "uint256"
        },
        {
          "internalType": "bool",
          "name": "",
          "type": "bool"
        }
      ],
      "stateMutability": "view",
      "type": "function"
    },
    {
      "inputs": [],
      "name": "getSystemStats",
      "outputs": [
        {
          "internalType": "uint256",
          "name": "totalProducts",
          "type": "uint256"
        },
        {
          "internalType": "uint256",
          "name": "totalSales",
          "type": "uint256"
        },
        {
          "internalType": "uint256",
          "name": "totalCategories",
          "type": "uint256"
        },
        {
          "internalType": "uint256",
          "name": "serviceFee",
          "type": "uint256"
        }
      ],
      "stateMutability": "view",
      "type": "function"
    },
    {
      "inputs": [],
      "name": "getTotalProducts",
      "outputs": [
        {
          "internalType": "uint256",
          "name": "",
          "type": "uint256"
        }
      ],
      "stateMutability": "view",
      "type": "function"
    },
    {
      "inputs": [],
      "name": "getTotalSales",
      "outputs": [
        {
          "internalType": "uint256",
          "name": "",
          "type": "uint256"
        }
      ],
      "stateMutability": "view",
      "type": "function"
    },
    {
      "inputs": [
        {
          "internalType": "address",
          "name": "user",
          "type": "address"
        }
      ],
      "name": "getUser",
      "outputs": [
        {
          "components": [
            {
              "internalType": "string",
              "name": "name",
              "type": "string"
            },
            {
              "internalType": "string",
              "name": "email",
              "type": "string"
            },
            {
              "internalType": "string",
              "name": "avatar",
              "type": "string"
            },
            {
              "internalType": "bool",
              "name": "isRegistered",
              "type": "bool"
            }
          ],
          "internalType": "struct CryptoMartStorage.UserProfile",
          "name": "",
          "type": "tuple"
        }
      ],
      "stateMutability": "view",
      "type": "function"
    },
    {
      "inputs": [],
      "name": "grantOwnerSellerAccess",
      "outputs": [],
      "stateMutability": "nonpayable",
      "type": "function"
    },
    {
      "inputs": [
        {
          "internalType": "uint256",
          "name": "productId",
          "type": "uint256"
        },
        {
          "internalType": "address",
          "name": "buyer",
          "type": "address"
        }
      ],
      "name": "markPurchaseDelivered",
      "outputs": [],
      "stateMutability": "nonpayable",
      "type": "function"
    },
    {
      "inputs": [],
      "name": "owner",
      "outputs": [
        {
          "internalType": "address",
          "name": "",
          "type": "address"
        }
      ],
      "stateMutability": "view",
      "type": "function"
    },
    {
      "inputs": [],
      "name": "refreshContractReferences",
      "outputs": [],
      "stateMutability": "nonpayable",
      "type": "function"
    },
    {
      "inputs": [
        {
          "internalType": "string",
          "name": "businessName",
          "type": "string"
        },
        {
          "internalType": "string",
          "name": "description",
          "type": "string"
        },
        {
          "internalType": "string",
          "name": "email",
          "type": "string"
        },
        {
          "internalType": "string",
          "name": "phone",
          "type": "string"
        },
        {
          "internalType": "string",
          "name": "logo",
          "type": "string"
        }
      ],
      "name": "registerSeller",
      "outputs": [],
      "stateMutability": "nonpayable",
      "type": "function"
    },
    {
      "inputs": [
        {
          "internalType": "string",
          "name": "name",
          "type": "string"
        },
        {
          "internalType": "string",
          "name": "email",
          "type": "string"
        },
        {
          "internalType": "string",
          "name": "avatar",
          "type": "string"
        }
      ],
      "name": "registerUser",
      "outputs": [],
      "stateMutability": "nonpayable",
      "type": "function"
    },
    {
      "inputs": [
        {
          "internalType": "address",
          "name": "seller",
          "type": "address"
        }
      ],
      "name": "registeredSellers",
      "outputs": [
        {
          "internalType": "bool",
          "name": "",
          "type": "bool"
        }
      ],
      "stateMutability": "view",
      "type": "function"
    },
    {
      "inputs": [
        {
          "internalType": "address",
          "name": "user",
          "type": "address"
        }
      ],
      "name": "registeredUsers",
      "outputs": [
        {
          "internalType": "bool",
          "name": "",
          "type": "bool"
        }
      ],
      "stateMutability": "view",
      "type": "function"
    },
    {
      "inputs": [],
      "name": "registry",
      "outputs": [
        {
          "internalType": "contract CryptoMartRegistry",
          "name": "",
          "type": "address"
        }
      ],
      "stateMutability": "view",
      "type": "function"
    },
    {
      "inputs": [],
      "name": "renounceOwnership",
      "outputs": [],
      "stateMutability": "nonpayable",
      "type": "function"
    },
    {
      "inputs": [],
      "name": "servicePct",
      "outputs": [
        {
          "internalType": "uint256",
          "name": "",
          "type": "uint256"
        }
      ],
      "stateMutability": "view",
      "type": "function"
    },
    {
      "inputs": [],
      "name": "storageContract",
      "outputs": [
        {
          "internalType": "contract CryptoMartStorage",
          "name": "",
          "type": "address"
        }
      ],
      "stateMutability": "view",
      "type": "function"
    },
    {
      "inputs": [],
      "name": "transactionsContract",
      "outputs": [
        {
          "internalType": "contract CryptoMartTransactions",
          "name": "",
          "type": "address"
        }
      ],
      "stateMutability": "view",
      "type": "function"
    },
    {
      "inputs": [
        {
          "internalType": "address",
          "name": "newOwner",
          "type": "address"
        }
      ],
      "name": "transferOwnership",
      "outputs": [],
      "stateMutability": "nonpayable",
      "type": "function"
    },
    {
      "inputs": [
        {
          "internalType": "uint256",
          "name": "id",
          "type": "uint256"
        },
        {
          "internalType": "string",
          "name": "name",
          "type": "string"
        },
        {
          "internalType": "bool",
          "name": "isActive",
          "type": "bool"
        }
      ],
      "name": "updateCategory",
      "outputs": [],
      "stateMutability": "nonpayable",
      "type": "function"
    },
    {
      "inputs": [
        {
          "internalType": "uint256",
          "name": "productId",
          "type": "uint256"
        },
        {
          "internalType": "string",
          "name": "name",
          "type": "string"
        },
        {
          "internalType": "string",
          "name": "description",
          "type": "string"
        },
        {
          "internalType": "string",
          "name": "image",
          "type": "string"
        },
        {
          "internalType": "uint256",
          "name": "categoryId",
          "type": "uint256"
        },
        {
          "internalType": "uint256",
          "name": "cost",
          "type": "uint256"
        },
        {
          "internalType": "uint256",
          "name": "stock",
          "type": "uint256"
        }
      ],
      "name": "updateProduct",
      "outputs": [],
      "stateMutability": "nonpayable",
      "type": "function"
    },
    {
      "inputs": [
        {
          "internalType": "address",
          "name": "seller",
          "type": "address"
        },
        {
          "internalType": "enum CryptoMartStorage.SellerStatus",
          "name": "status",
          "type": "uint8"
        }
      ],
      "name": "updateSellerStatus",
      "outputs": [],
      "stateMutability": "nonpayable",
      "type": "function"
    },
    {
      "inputs": [
        {
          "internalType": "uint256",
          "name": "id",
          "type": "uint256"
        },
        {
          "internalType": "string",
          "name": "name",
          "type": "string"
        },
        {
          "internalType": "bool",
          "name": "isActive",
          "type": "bool"
        }
      ],
      "name": "updateSubCategory",
      "outputs": [],
      "stateMutability": "nonpayable",
      "type": "function"
    },
    {
      "inputs": [],
      "name": "withdraw",
      "outputs": [],
      "stateMutability": "nonpayable",
      "type": "function"
    },
    {
      "inputs": [],
      "name": "withdrawServiceFees",
      "outputs": [],
      "stateMutability": "nonpayable",
      "type": "function"
    }
  ],
  "bytecode": "0x60a0806040523462000137576020816200356d80380380916200002382856200014f565b83398101031262000137576200003b60049162000187565b62000046336200019c565b6001600160a01b03908116608081905260609062000064336200019c565b604051634a9c3a6960e11b815293849182905afa801562000144575f925f905f92620000dd575b5082908160018060a01b03199516856001541617600155168360025416176002551690600354161760035560405161338a9081620001e38239608051818181611b850152818161216401526123810152f35b935050506060823d6060116200013b575b81620000fd606093836200014f565b810103126200013757620001118262000187565b816200012e6040620001266020870162000187565b950162000187565b9193906200008b565b5f80fd5b3d9150620000ee565b6040513d5f823e3d90fd5b601f909101601f19168101906001600160401b038211908210176200017357604052565b634e487b7160e01b5f52604160045260245ffd5b51906001600160a01b03821682036200013757565b5f80546001600160a01b039283166001600160a01b03198216811783559216907f8be0079c531659141344cd1fd0a4f28419497f9722a3daafe3b4186f6b6457e09080a356fe6080604081815260049081361015610015575f80fd5b5f925f3560e01c90816302ee3a52146127e35750806304a6f276146126805780630e50cee5146125df57806311aa5b341461256357806311ce02671461253a5783816316d81b38146124bb5750806317e9854814610fd957806318bb35bd1461235f5780632148893f146122d25780632156a96c146122865783816324d41a0314612229575080632c7ea0b214612134578063317a082714611e7e5780633c2575d5146120d1578381633ccfd60b14612084575080634293e5ce14611fc9578381634e213d2014611f7457508063570aea8a14611f285780635ad6a58014611ed9578381635be2095914611e835750806366224d8e14611e7e5780636f2c859914611dd45780636f68ef3a14611d845780636f77926b14611bfa578063715018a614611bb45780637b10399914611b70578381637d3978db14611ae6575080637e8555ed14611962578381638642269e14611912575080638da5cb5b146118ea5783816397b6f3931461186a575080639b269b8f146117f45780639d4a2255146115df578063a323d29e1461153b578063a9ab7af21461121c578063b27e169714611193578063b9db15b4146110e0578063c0403e2714611085578063c64b8a8f14610fde578063ceca737f14610fd9578063d1ce59a714610e7e578063d2bc9d7814610d2d578063d637dcfa14610c1857838163d72e481d14610bb257508063dadd0a57146109c8578063dc2986821461087c578063e01ef6e6146107eb578063e17f94c0146107c2578063e6a93e161461075f578063e80db5db14610736578063eb11c4341461068357838163ec4cf85b1461053d578163ed90c7b71461049a57508063f2fde38b146103eb578063f3052d26146103245763fdca4ca31461029d575f80fd5b34610320578260031936011261032057600254815163fdca4ca360e01b815292849184919082906001600160a01b03165afa91821561031657836102ed94936102f1575b50505191829182612928565b0390f35b61030e9293503d8091833e6103068183612a35565b810190612e9b565b905f806102e1565b81513d85823e3d90fd5b8280fd5b5091346103e85760203660031901126103e8576002548351637982969360e11b81528335938101939093528190839060249082906001600160a01b03165afa9081156103dd57809181938280926103ad575b5050846103996102ed94959651968796875260806020880152608087019061286f565b921515908501528382036060850152612d1d565b915091506102ed93506103d292503d8091833e6103ca8183612a35565b810190613227565b91939091905f610376565b8351903d90823e3d90fd5b80fd5b5090346103205760203660031901126103205761040661298b565b9061040f613306565b6001600160a01b039182169283156104485750505f548260018060a01b03198216175f55165f8051602061335e8339815191525f80a380f35b906020608492519162461bcd60e51b8352820152602660248201527f4f776e61626c653a206e6577206f776e657220697320746865207a65726f206160448201526564647265737360d01b6064820152fd5b8281853461052c57602036600319011261052c576002548135936001600160a01b0390911691823b15610539578460248592838551968794859363ed90c7b760e01b85528401525af19081156105305750610518575b50807fc341cf326465fe622f86c468249e8c0cb03ed23ba376a6a34863a1374ac7d76991a280f35b610521906129a1565b61052c5781836104f0565b5080fd5b513d84823e3d90fd5b8380fd5b8281853461052c576003199260e036850112610320578135936001600160401b039060243582811161067f576105769036908601612a73565b9060443583811161067b5761058e9036908701612a73565b9260643590811161067b576105a69036908701612a73565b6002546001600160a01b03169190823b15610677576105f3966106128a938a979361060389958b519c8d9a8b998a9863ec4cf85b60e01b8a5289015260e0602489015260e488019061286f565b908487830301604488015261286f565b9184830301606485015261286f565b608435608483015260a43560a483015260c43560c483015203925af19081156105305750610663575b50807feca6714fcf568fb34cf9db4a414cb0cc48e93c5d4e1ba0582a46ea3704cf24d591a280f35b61066c906129a1565b61052c57818361063b565b8780fd5b8680fd5b8580fd5b5082903461052c5760209283600319360112610320576106a161298b565b6002548351633ac4710d60e21b81526001600160a01b03928316848201529491869186916024918391165afa93841561072a5781946106ec575b5050506106ea90518092612cfc565bf35b90919293508481813d8311610723575b6107068183612a35565b8101031261052c5751918210156103e85750906106ea84806106db565b503d6106fc565b508251903d90823e3d90fd5b83823461052c578160031936011261052c5760025490516001600160a01b039091168152602090f35b5034610320576020366003190112610320578261077a61298b565b60025483516373549f0b60e11b81526001600160a01b039283169581019590955284916024918391165afa91821561031657836102ed94936102f15750505191829182612928565b83823461052c578160031936011261052c5760035490516001600160a01b039091168152602090f35b5082903461052c578160031936011261052c57600154815163700f7b7360e11b81529360209185919082906001600160a01b03165afa9182156108715791610838575b6020925051908152f35b90506020823d602011610869575b8161085360209383612a35565b8101031261086557602091519061082e565b5f80fd5b3d9150610846565b9051903d90823e3d90fd5b509034610320576020806003193601126105395781356001600160401b0381116109c4576108ad9036908401612a73565b906108b6613306565b6002546001600160a01b0390811690813b1561067b57868087518094636e14c34160e11b825286898301528183816108f1602482018c61286f565b03925af19283156109b857849361099f575b505060015416855194858092620d893f60e61b82525afa928315610995578593610964575b5061095e7f11c167cc9b439f0ad8bec5588159f1b06b813bc38d50c867a41b23b077be2c1a93945192828493845283019061286f565b0390a280f35b92508083813d831161098e575b61097b8183612a35565b810103126108655791519161095e610928565b503d610971565b84513d87823e3d90fd5b6109ab919293506129a1565b61067f578190865f610903565b508651903d90823e3d90fd5b8480fd5b5091903461052c578160031936011261052c57600254835163dadd0a5760e01b8152919083908390839082906001600160a01b03165afa918215610ba8578392610a8a575b5050825191602080840190808552835180925285850181878460051b880101950193965b838810610a3e5786860387f35b90919293948380600192603f198a82030186528851908580610a716060855185528686015190808887015285019061286f565b9301511515910152970193019701969093929193610a31565b9091503d8084833e610a9c8183612a35565b81019160209182818503126109c45780516001600160401b039182821161067b57019184601f8401121561067f57825191610ad683612d50565b95610ae389519788612a35565b838752858088019460051b86010194818611610ba457868101945b868610610b145750505050505050505f80610a0d565b8551848111610ba0578201606080601f198387030112610b9c578c519181830183811088821117610b89578e528a81015183528d810151878111610b8557610b768f919383610b6c8f9896898c91819a980101612d7b565b8786015201612dc0565b90820152815201950194610afe565b8d80fd5b604189634e487b7160e01b5f525260245ffd5b8b80fd5b8a80fd5b8880fd5b84513d85823e3d90fd5b80848434610c145782600319360112610c14576001546001600160a01b031691823b15610c0f57815163d72e481d60e01b81529284918491829084905af19081156105305750610bff5750f35b610c08906129a1565b6103e85780f35b505050fd5b5050fd5b5034610320578260031960603682011261052c576001600160401b0390843582811161053957610c4b9036908701612a73565b946024358381116109c457610c639036908301612a73565b926044359081116109c457610c7b9036908301612a73565b6002546001600160a01b031690813b1561067f57856105f393610cc782968b946106038c519a8b998a988997637f34e14b60e11b8952339089015260806024890152608488019061286f565b03925af18015610d2357610d0f575b50507f48cac28ad4dc618e15f4c2dd5e97751182f166de97b25618318b2112aa951a2f9051602081528061095e3394602083019061286f565b610d18906129a1565b61032057825f610cd6565b83513d84823e3d90fd5b5090346103205781600319360112610320576024803592906001600160401b0380851161067f573660238601121561067f578484013590610d6d82612d50565b91610d7a85519384612a35565b8083526020966024602085019260051b82010192368411610e7a579089959493929160248201925b848410610e46575050505050610db6613306565b825b8151811015610e42576002546001600160a01b0316610dd78284612f30565b5190803b1561067f57610e089186918a838b8b5196879586948593636e14c34160e11b85528401528b83019061286f565b03925af18015610e3857908591610e24575b5050600101610db8565b610e2d906129a1565b61053957835f610e1a565b86513d87823e3d90fd5b8380f35b90919280949596975035828111610b9c578a91610e6983928a3691880101612a73565b815201930191908a96959493610da2565b8980fd5b5082903461052c578160031936011261052c576002548151632b85754560e11b81529260209290916001600160a01b0390811684868881845afa958615610f9857908792918597610fa5575b508590845193848092630855aa5b60e21b82525afa918215610f98579085918593610f67575b506001541683519788809263700f7b7360e11b82525afa938415610f5b578394610f2b575b6080965082519586528501528301526060820152f35b80945086813d8311610f54575b610f428183612a35565b81010312610865576080955193610f15565b503d610f38565b505051903d90823e3d90fd5b8281939294503d8311610f91575b610f7f8183612a35565b81010312610865578490519188610ef0565b503d610f75565b50505051903d90823e3d90fd5b86809298508194503d8311610fd2575b610fbf8183612a35565b8101031261086557848792519690610eca565b503d610fb5565b612ab9565b5082903461052c57602092836003193601126103205783610ffd61298b565b600154845163c64b8a8f60e01b81526001600160a01b039283169481019490945283916024918391165afa92831561107a578093611040575b5050519015158152f35b909192508382813d8311611073575b6110598183612a35565b810103126103e8575061106b90612dc0565b908380611036565b503d61104f565b8251903d90823e3d90fd5b5082903461052c57602036600319011261052c57805191602083016001600160401b038111848210176110cd576102ed94508252825251918291602083526020830190612d1d565b604185634e487b7160e01b5f525260245ffd5b5082903461052c57602036600319011261052c576110fc612f7a565b506002548151632e76c56d60e21b81528435948101949094528290849060249082906001600160a01b03165afa91821561087157809261114c575b8151602080825281906102ed90820186612894565b9091503d8082853e61115e8185612a35565b83019260208185031261052c578051916001600160401b0383116103e857509261118c916102ed9401612dcd565b9083611137565b503461032057602036600319011261032057826111ae61298b565b600354835163b27e169760e01b81526001600160a01b039283169581019590955284916024918391165afa91821561031657836102ed94936111f7575b50505191829182612bb8565b6112149293503d8091833e61120c8183612a35565b810190612fc6565b905f806111eb565b509034610320576003199060c036830112610539576001600160401b0392813584811161067f576112509036908401612a73565b9260249485358181116106775761126a9036908601612a73565b90604435908111610677576112829036908601612a73565b600154845163c64b8a8f60e01b81523387820152602098608435956001600160a01b03959094939092908616908b818481855afa908115611531578d916114f8575b50156114ba578751635191e94f60e11b8152338a820152908c908290849082905afa9081156114b0578c9161148c575b508881101561147a5760020361143f57908a939291856002541690813b1561067f57858a61134f8d97839761060360e0988f6105f390519c8b8e9c9a8d9b9963bdbe6f4f8d9b1b8b5233908b015289015260e488019061286f565b60643560848301528a60a483015260a43560c483015203925af1801561143557908893929161141c575b505060015416835194858092639b9d326d60e01b82525afa9283156114125786936113e1575b506113d47f5f25c590b5c7f62ed4186adca32d3118caef07e5020c6cc8268d4136df2cfef8939483519380855284019061286f565b948201528033940390a380f35b92508483813d831161140b575b6113f88183612a35565b81010312610865579151916113d461139f565b503d6113ee565b82513d88823e3d90fd5b611428919293506129a1565b61067b578590875f611379565b85513d84823e3d90fd5b8760176064928c8a519362461bcd60e51b85528401528201527626bab9ba103132903b32b934b334b2b21039b2b63632b960491b6044820152fd5b50634e487b7160e01b8b52602188528afd5b6114a891503d808e833e6114a08183612a35565b8101906132cd565b90505f6112f4565b88513d8e823e3d90fd5b875162461bcd60e51b8152808a018c90526019818401527826bab9ba103132903932b3b4b9ba32b932b21039b2b63632b960391b6044820152606490fd5b90508b81813d831161152a575b61150f8183612a35565b810103126115265761152090612dc0565b5f6112c4565b8c80fd5b503d611505565b89513d8f823e3d90fd5b509034610320576020366003190112610320578261155761298b565b61155f6130a1565b506002548451635191e94f60e11b81526001600160a01b039283169481019490945283916024918391165afa908115610f5b578380926115bd575b50506102ed6115b28351948486958652850190612c38565b916020840190612cfc565b9091506115d59293503d8091833e6114a08183612a35565b9190915f8061159a565b5091903461052c5760209283600319360112610320576003548151639d4a225560e01b81528335938101939093526001600160a01b03949084908490602490829089165afa9283156117ea5784936116d1575b5092908051938085019181865284518093528086019082818560051b890101960194975b8489106116635787870388f35b9091929394958480600192603f198b82030187528951906116a960c08351835287858501511685840152888401518984015260609080828601519285015283019061286f565b9160808082015115159083015260a08091015191015298019401980197919094939294611656565b9092503d8085833e6116e38183612a35565b810183828203126109c45781516001600160401b039283821161067b570181601f8201121561067f57805161171781612d50565b9361172486519586612a35565b818552868086019260051b84010192848411610ba457878101925b84841061175357505050505050915f611632565b8351838111610ba057820160c09081601f19828a030112610b9c5789519161177a836129e3565b8b820151835261178b8b8301612d67565b8c840152606091828101518c850152608092838201518881116117e657918e969492916117bf8d8980999795850101612d7b565b9085015260a0926117d1848301612dc0565b9085015201519082015281520193019261173f565b8f80fd5b82513d86823e3d90fd5b50346103205782600319360112610320576002548151639b269b8f60e01b815292849184919082906001600160a01b03165afa91821561031657836102ed9493611845575b50505191829182612cb8565b6118629293503d8091833e61185a8183612a35565b8101906131a6565b905f80611839565b80848434610c145780600319360112610c145761188561298b565b60243590838210156109c457611899613306565b6002546001600160a01b039190821690813b1561067b57866044926118d982968851998a9788966397b6f39360e01b885216908601526024850190612cfc565b5af19081156105305750610bff5750f35b83823461052c578160031936011261052c57905490516001600160a01b039091168152602090f35b8084846020366003190112610c14576003546001600160a01b031691823b15610c0f5783906024835180958193634321134f60e11b835280359083015234905af19081156105305750610bff5750f35b503461032057826003199260a08436011261052c576001600160401b038135818111610539576119959036908401612a73565b946024358281116109c4576119ad9036908501612a73565b9260443583811161067f576119c59036908301612a73565b60643584811161067b576119dc9036908401612a73565b9360843590811161067b576119f49036908401612a73565b6002546001600160a01b031692909190833b1561067757611a8a611a4b958b94611a7b8b99611a6b8b978f611a5b90519e8f9d8e9c8d9b6339ace85360e21b8d5233908d015260c060248d015260c48c019061286f565b90888b83030160448c015261286f565b90868983030160648a015261286f565b908487830301608488015261286f565b918483030160a485015261286f565b03925af18015610d2357611ad2575b50507fecef9454c60fab6a60b6f2aa319263c0f711cdb927c213e76687f7853b5978429051602081528061095e3394602083019061286f565b611adb906129a1565b61032057825f611a99565b80848434610c145780600319360112610c14576024356001600160401b038111610c0f57611b179036908401612a73565b91611b20613306565b6002546001600160a01b031692833b156109c457611b5d936020868094865197889586948593636e14c34160e11b8552840152602483019061286f565b03925af19081156105305750610bff5750f35b83823461052c578160031936011261052c57517f00000000000000000000000000000000000000000000000000000000000000006001600160a01b03168152602090f35b83346103e857806003193601126103e857611bcd613306565b5f80546001600160a01b0319811682556001600160a01b03165f8051602061335e8339815191528280a380f35b5091903461052c57602091826003193601126103e857611c1861298b565b9080855192611c26846129c8565b81606085818097528189820152818a8201520152602460018060a01b0391826002541689519788948593636f77926b60e01b855216908301525afa928315611d78578193611ccb575b5050611cbd8451948486958652611cab611c9486516080848a015260a089019061286f565b9186015191601f19928389830301858a015261286f565b9185015190868303018487015261286f565b910151151560808301520390f35b909192503d8083833e611cde8183612a35565b810184828203126103205781516001600160401b03928382116109c457019160808383031261053957865193611d13856129c8565b835182811161052c5783611d28918601612d7b565b85528684015182811161052c5783611d41918601612d7b565b87860152878401519182116103e8575091611d628592611d6c948301612d7b565b8785015201612dc0565b82820152905f80611c6f565b508451903d90823e3d90fd5b503461032057826003193601126103205760025481516337b4779d60e11b815292849184919082906001600160a01b03165afa91821561031657836102ed94936118455750505191829182612cb8565b5082903461052c57602036600319011261052c576002548151637982969360e11b81528435948101949094528290849060249082906001600160a01b03165afa8015611e73578280948192611e4f575b50611e408351958695865260806020870152608086019061286f565b92840152151560608301520390f35b91509250611e689193503d8084833e6103ca8183612a35565b509093919285611e24565b5051903d90823e3d90fd5b612b1d565b80848434610c14576020366003190112610c14576001546001600160a01b031691823b15610c0f5783926024849284519586938492632aafa80760e01b84528035908401525af19081156105305750610bff5750f35b5034610320578260031936011261032057600254815162b5ad4b60e71b815292849184919082906001600160a01b03165afa91821561031657836102ed94936118455750505191829182612cb8565b5082903461052c578160031936011261052c576002548151632b85754560e11b81529360209185919082906001600160a01b03165afa9182156108715791610838576020925051908152f35b80848434610c145782600319360112610c1457611f8f613306565b6002546001600160a01b031691823b15610c0f57815163027109e960e51b81529284918491829084905af19081156105305750610bff5750f35b5082903461052c57602036600319011261052c5781611fe661298b565b611fee6130a1565b506002548351632149f2e760e11b81526001600160a01b039283169681019690965285916024918391165afa91821561087157809261203d575b8151602080825281906102ed90820186612c38565b9091503d8082853e61204f8185612a35565b83019260208185031261052c578051916001600160401b0383116103e857509261207d916102ed94016130d7565b9083612028565b80848434610c145782600319360112610c14576003546001600160a01b031691823b15610c0f578151633ccfd60b60e01b81529284918491829084905af19081156105305750610bff5750f35b503461032057602036600319011261032057826120ec61298b565b6003548351633c2575d560e01b81526001600160a01b039283169581019590955284916024918391165afa91821561031657836102ed94936111f75750505191829182612bb8565b50346103205782600319360112610320578051634a9c3a6960e11b8152916001600160a01b0391906060908490817f000000000000000000000000000000000000000000000000000000000000000086165afa908115612220578493859186936121c8575b505082908160018060a01b03199516856001541617600155168360025416176002551690600354161760035580f35b92509350506060833d606011612218575b816121e660609383612a35565b81010312610539578161220f6121fb85612d67565b9261220860208701612d67565b9501612d67565b9193905f612199565b3d91506121d9565b513d85823e3d90fd5b80848434610c145780600319360112610c14576003546001600160a01b031691823b15610c0f57839260448492845195869384926324d41a0360e01b845280359084015260243560248401525af19081156105305750610bff5750f35b5082903461052c578160031936011261052c576002548151630855aa5b60e21b81529360209185919082906001600160a01b03165afa9182156108715791610838576020925051908152f35b5082903461052c576020928360031936011261032057836122f161298b565b6003548451632148893f60e01b81526001600160a01b039283169481019490945283916024918391165afa92831561107a5792612330575b5051908152f35b9091508281813d8311612358575b6123488183612a35565b8101031261086557519083612329565b503d61233e565b5082903461052c578160031936011261052c578051631a740af960e31b8152917f00000000000000000000000000000000000000000000000000000000000000006001600160a01b0316916020919082858781875afa948515611e73578295612484575b50805163bfc12c0560e01b815283818881885afa92831561107a5792612455575b508051928382016001600160401b03811185821017612442576102ed959697508252600f84526e052656769737472792076312e302e3608c1b818501528151968796875215159086015284015260806060840152608083019061286f565b604188634e487b7160e01b5f525260245ffd5b9091508281813d831161247d575b61246d8183612a35565b81010312610865575190866123e4565b503d612463565b9094508281813d83116124b4575b61249c8183612a35565b8101031261052c576124ad90612dc0565b93866123c3565b503d612492565b80848434610c14576060366003190112610c14576044356001600160401b038111610c0f576124ed9036908401612a73565b6003546001600160a01b03169290833b156109c457611b5d9385928385518097819582946302db036760e31b8452803590840152602435602484015260606044840152606483019061286f565b83823461052c578160031936011261052c5760015490516001600160a01b039091168152602090f35b50346108655780600319360112610865576024356001600160a01b038181169391849003610865576003541692833b156108655760445f92838551968794859363046a96cd60e21b855280359085015260248401525af19081156125d657506125ca575080f35b6125d491506129a1565b005b513d5f823e3d90fd5b509034610865576020918260031936011261086557826125fd61298b565b6001548351630e50cee560e01b81526001600160a01b039283169581019590955284916024918391165afa918215612676575f9261263f575b50519015158152f35b9091508281813d831161266f575b6126578183612a35565b810103126108655761266890612dc0565b9083612636565b503d61264d565b50513d5f823e3d90fd5b50346108655760209060206003193601126108655760025481516301771d2960e11b815284359490915f91839182906001600160a01b03165afa9081156127d9575f916127bf575b505f915f5b8251811015612708578560a06126e38386612f30565b510151146126f4575b6001016126cd565b92612700600191612f58565b9390506126ec565b509261271383612d50565b9261272085519485612a35565b80845261272f601f1991612d50565b015f5b8181106127a9575050505f905f5b815181101561279c578560a06127568385612f30565b51015114612767575b600101612740565b916127946001916127788585612f30565b516127838288612f30565b5261278e8187612f30565b50612f58565b92905061275f565b8451806102ed8682612928565b82906127b3612f7a565b82828801015201612732565b6127d391503d805f833e6103068183612a35565b846126c8565b82513d5f823e3d90fd5b90508234610865575f366003190112610865576002546301771d2960e11b83525f91839182906001600160a01b03165afa9081156127d957916102ed925f92612832575b505191829182612928565b6128479192503d805f833e6103068183612a35565b9083612827565b5f5b83811061285f5750505f910152565b8181015183820152602001612850565b906020916128888151809281855285808601910161284e565b601f01601f1916010190565b906128ef6128dd6128cb6101408551855260018060a01b03602087015116602086015260408601519080604087015285019061286f565b6060850151848203606086015261286f565b6080840151838203608085015261286f565b9160a081015160a083015260c081015160c083015260e081015160e0830152610100808201519083015261012080910151151591015290565b6020808201906020835283518092526040830192602060408460051b8301019501935f915b84831061295d5750505050505090565b909192939495848061297b600193603f198682030187528a51612894565b980193019301919493929061294d565b600435906001600160a01b038216820361086557565b6001600160401b0381116129b457604052565b634e487b7160e01b5f52604160045260245ffd5b608081019081106001600160401b038211176129b457604052565b60c081019081106001600160401b038211176129b457604052565b61014081019081106001600160401b038211176129b457604052565b60e081019081106001600160401b038211176129b457604052565b601f909101601f19168101906001600160401b038211908210176129b457604052565b6001600160401b0381116129b457601f01601f191660200190565b81601f8201121561086557803590612a8a82612a58565b92612a986040519485612a35565b8284526020838301011161086557815f926020809301838601378301015290565b34610865576020366003190112610865576002546001600160a01b0316803b15610865575f809160246040518094819363ceca737f60e01b835260043560048401525af18015612b1257612b0957005b6125d4906129a1565b6040513d5f823e3d90fd5b34610865576060366003190112610865576024356001600160401b03811161086557612b4d903690600401612a73565b60443590811515809203610865576002546001600160a01b031690813b15610865575f91612ba2918360405180968195829463331126c760e11b8452600435600485015260606024850152606484019061286f565b90604483015203925af18015612b1257612b0957005b60208082019080835283518092528060408094019401925f905b838210612be157505050505090565b845180518752808401516001600160a01b0390811688860152818301511687830152606080820151908801526080808201519088015260a09081015115159087015260c09095019493820193600190910190612bd2565b9060c080612ca3612c91612c7f612c6d612c5b885160e0895260e089019061286f565b602089015188820360208a015261286f565b6040880151878203604089015261286f565b6060870151868203606088015261286f565b6080860151858203608087015261286f565b9360a0810151151560a0850152015191015290565b60209060206040818301928281528551809452019301915f5b828110612cdf575050505090565b83516001600160a01b031685529381019392810192600101612cd1565b906004821015612d095752565b634e487b7160e01b5f52602160045260245ffd5b9081518082526020808093019301915f5b828110612d3c575050505090565b835185529381019392810192600101612d2e565b6001600160401b0381116129b45760051b60200190565b51906001600160a01b038216820361086557565b81601f82011215610865578051612d9181612a58565b92612d9f6040519485612a35565b8184526020828401011161086557612dbd916020808501910161284e565b90565b5190811515820361086557565b919091610140818403126108655760405190612de8826129fe565b819381518352612dfa60208301612d67565b602084015260408201516001600160401b0391908281116108655781612e21918501612d7b565b604085015260608301518281116108655781612e3e918501612d7b565b6060850152608083015191821161086557612e5a918301612d7b565b608083015260a081015160a083015260c081015160c083015260e081015160e08301526101008082015190830152612e96610120809201612dc0565b910152565b9060209081838203126108655782516001600160401b0393848211610865570181601f82011215610865578051612ed181612d50565b94612edf6040519687612a35565b818652848087019260051b8401019380851161086557858401925b858410612f0b575050505050505090565b8351838111610865578791612f25848480948a0101612dcd565b815201930192612efa565b8051821015612f445760209160051b010190565b634e487b7160e01b5f52603260045260245ffd5b5f198114612f665760010190565b634e487b7160e01b5f52601160045260245ffd5b60405190612f87826129fe565b5f6101208382815282602082015260606040820152606080820152606060808201528260a08201528260c08201528260e0820152826101008201520152565b6020908181840312610865578051906001600160401b038211610865570182601f8201121561086557805191612ffb83612d50565b93604061300b6040519687612a35565b848652828601918360c080970286010194818611610865578401925b858410613038575050505050505090565b868483031261086557848791845161304f816129e3565b8651815261305e838801612d67565b8382015261306d868801612d67565b86820152606080880151908201526080808801519082015260a0613092818901612dc0565b90820152815201930192613027565b604051906130ae82612a1a565b5f60c0836060808252806020830152806040830152808083015260808201528260a08201520152565b91909160e08184031261086557604051906130f182612a1a565b8051919384926001600160401b0392908381116108655782613114918301612d7b565b84526020810151838111610865578261312e918301612d7b565b60208501526040810151838111610865578261314b918301612d7b565b604085015260608101518381116108655782613168918301612d7b565b606085015260808101519283116108655761318960c0939284938301612d7b565b608085015261319a60a08201612dc0565b60a08501520151910152565b6020908181840312610865578051906001600160401b03821161086557019180601f840112156108655782516131db81612d50565b936131e96040519586612a35565b818552838086019260051b820101928311610865578301905b828210613210575050505090565b83809161321c84612d67565b815201910190613202565b60808183031261086557805192602092838301519360018060401b03948581116108655782613257918601612d7b565b9461326460408601612dc0565b94606081015191821161086557019180601f8401121561086557825161328981612d50565b936132976040519586612a35565b818552838086019260051b820101928311610865578301905b8282106132be575050505090565b815181529083019083016132b0565b91906040838203126108655782516001600160401b038111610865576020916132f79185016130d7565b92015160048110156108655790565b5f546001600160a01b0316330361331957565b606460405162461bcd60e51b815260206004820152602060248201527f4f776e61626c653a2063616c6c6572206973206e6f7420746865206f776e65726044820152fdfe8be0079c531659141344cd1fd0a4f28419497f9722a3daafe3b4186f6b6457e0a164736f6c6343000818000a",
  "linkReferences": {},
  "deployedLinkReferences": {}
}