{
  "_format": "hh-sol-artifact-1",
  "contractName": "CryptoMartStorage",
  "sourceName": "contracts/CryptoMartStorage.sol",
  "abi": [
    {
      "inputs": [
        {
          "internalType": "uint256",
          "name": "_servicePct",
          "type": "uint256"
        }
      ],
      "stateMutability": "nonpayable",
      "type": "constructor"
    },
    {
      "anonymous": false,
      "inputs": [
        {
          "indexed": true,
          "internalType": "address",
          "name": "previousOwner",
          "type": "address"
        },
        {
          "indexed": true,
          "internalType": "address",
          "name": "newOwner",
          "type": "address"
        }
      ],
      "name": "OwnershipTransferred",
      "type": "event"
    },
    {
      "inputs": [
        {
          "internalType": "address",
          "name": "_contract",
          "type": "address"
        }
      ],
      "name": "addAuthorizedContract",
      "outputs": [],
      "stateMutability": "nonpayable",
      "type": "function"
    },
    {
      "inputs": [
        {
          "internalType": "address",
          "name": "buyer",
          "type": "address"
        },
        {
          "internalType": "address",
          "name": "seller",
          "type": "address"
        },
        {
          "components": [
            {
              "internalType": "uint256",
              "name": "productId",
              "type": "uint256"
            },
            {
              "internalType": "address",
              "name": "buyer",
              "type": "address"
            },
            {
              "internalType": "address",
              "name": "seller",
              "type": "address"
            },
            {
              "internalType": "uint256",
              "name": "totalAmount",
              "type": "uint256"
            },
            {
              "internalType": "uint256",
              "name": "timestamp",
              "type": "uint256"
            },
            {
              "internalType": "bool",
              "name": "isDelivered",
              "type": "bool"
            }
          ],
          "internalType": "struct CryptoMartStorage.PurchaseStruct",
          "name": "purchase",
          "type": "tuple"
        }
      ],
      "name": "addPurchaseHistory",
      "outputs": [],
      "stateMutability": "nonpayable",
      "type": "function"
    },
    {
      "inputs": [
        {
          "internalType": "uint256",
          "name": "productId",
          "type": "uint256"
        },
        {
          "components": [
            {
              "internalType": "uint256",
              "name": "reviewId",
              "type": "uint256"
            },
            {
              "internalType": "address",
              "name": "reviewer",
              "type": "address"
            },
            {
              "internalType": "uint256",
              "name": "rating",
              "type": "uint256"
            },
            {
              "internalType": "string",
              "name": "comment",
              "type": "string"
            },
            {
              "internalType": "bool",
              "name": "deleted",
              "type": "bool"
            },
            {
              "internalType": "uint256",
              "name": "timestamp",
              "type": "uint256"
            }
          ],
          "internalType": "struct CryptoMartStorage.ReviewStruct",
          "name": "review",
          "type": "tuple"
        }
      ],
      "name": "addReview",
      "outputs": [],
      "stateMutability": "nonpayable",
      "type": "function"
    },
    {
      "inputs": [
        {
          "internalType": "address",
          "name": "seller",
          "type": "address"
        },
        {
          "internalType": "uint256",
          "name": "productId",
          "type": "uint256"
        }
      ],
      "name": "addSellerProduct",
      "outputs": [],
      "stateMutability": "nonpayable",
      "type": "function"
    },
    {
      "inputs": [
        {
          "internalType": "address",
          "name": "",
          "type": "address"
        }
      ],
      "name": "authorizedContracts",
      "outputs": [
        {
          "internalType": "bool",
          "name": "",
          "type": "bool"
        }
      ],
      "stateMutability": "view",
      "type": "function"
    },
    {
      "inputs": [
        {
          "internalType": "address",
          "name": "",
          "type": "address"
        },
        {
          "internalType": "uint256",
          "name": "",
          "type": "uint256"
        }
      ],
      "name": "buyerPurchaseHistory",
      "outputs": [
        {
          "internalType": "uint256",
          "name": "productId",
          "type": "uint256"
        },
        {
          "internalType": "address",
          "name": "buyer",
          "type": "address"
        },
        {
          "internalType": "address",
          "name": "seller",
          "type": "address"
        },
        {
          "internalType": "uint256",
          "name": "totalAmount",
          "type": "uint256"
        },
        {
          "internalType": "uint256",
          "name": "timestamp",
          "type": "uint256"
        },
        {
          "internalType": "bool",
          "name": "isDelivered",
          "type": "bool"
        }
      ],
      "stateMutability": "view",
      "type": "function"
    },
    {
      "inputs": [
        {
          "internalType": "uint256",
          "name": "",
          "type": "uint256"
        }
      ],
      "name": "categories",
      "outputs": [
        {
          "internalType": "uint256",
          "name": "id",
          "type": "uint256"
        },
        {
          "internalType": "string",
          "name": "name",
          "type": "string"
        },
        {
          "internalType": "bool",
          "name": "isActive",
          "type": "bool"
        }
      ],
      "stateMutability": "view",
      "type": "function"
    },
    {
      "inputs": [],
      "name": "categoryCounter",
      "outputs": [
        {
          "internalType": "uint256",
          "name": "",
          "type": "uint256"
        }
      ],
      "stateMutability": "view",
      "type": "function"
    },
    {
      "inputs": [
        {
          "internalType": "address",
          "name": "seller",
          "type": "address"
        },
        {
          "internalType": "uint256",
          "name": "amount",
          "type": "uint256"
        }
      ],
      "name": "deductSellerBalance",
      "outputs": [],
      "stateMutability": "nonpayable",
      "type": "function"
    },
    {
      "inputs": [],
      "name": "getAllRegisteredSellers",
      "outputs": [
        {
          "internalType": "address[]",
          "name": "",
          "type": "address[]"
        }
      ],
      "stateMutability": "view",
      "type": "function"
    },
    {
      "inputs": [
        {
          "internalType": "address",
          "name": "buyer",
          "type": "address"
        }
      ],
      "name": "getBuyerPurchases",
      "outputs": [
        {
          "components": [
            {
              "internalType": "uint256",
              "name": "productId",
              "type": "uint256"
            },
            {
              "internalType": "address",
              "name": "buyer",
              "type": "address"
            },
            {
              "internalType": "address",
              "name": "seller",
              "type": "address"
            },
            {
              "internalType": "uint256",
              "name": "totalAmount",
              "type": "uint256"
            },
            {
              "internalType": "uint256",
              "name": "timestamp",
              "type": "uint256"
            },
            {
              "internalType": "bool",
              "name": "isDelivered",
              "type": "bool"
            }
          ],
          "internalType": "struct CryptoMartStorage.PurchaseStruct[]",
          "name": "",
          "type": "tuple[]"
        }
      ],
      "stateMutability": "view",
      "type": "function"
    },
    {
      "inputs": [
        {
          "internalType": "uint256",
          "name": "id",
          "type": "uint256"
        }
      ],
      "name": "getCategory",
      "outputs": [
        {
          "components": [
            {
              "internalType": "uint256",
              "name": "id",
              "type": "uint256"
            },
            {
              "internalType": "string",
              "name": "name",
              "type": "string"
            },
            {
              "internalType": "bool",
              "name": "isActive",
              "type": "bool"
            }
          ],
          "internalType": "struct CryptoMartStorage.CategoryStruct",
          "name": "",
          "type": "tuple"
        }
      ],
      "stateMutability": "view",
      "type": "function"
    },
    {
      "inputs": [],
      "name": "getPendingVerificationUsers",
      "outputs": [
        {
          "internalType": "address[]",
          "name": "",
          "type": "address[]"
        }
      ],
      "stateMutability": "view",
      "type": "function"
    },
    {
      "inputs": [
        {
          "internalType": "uint256",
          "name": "id",
          "type": "uint256"
        }
      ],
      "name": "getProduct",
      "outputs": [
        {
          "components": [
            {
              "internalType": "uint256",
              "name": "id",
              "type": "uint256"
            },
            {
              "internalType": "address",
              "name": "seller",
              "type": "address"
            },
            {
              "internalType": "string",
              "name": "name",
              "type": "string"
            },
            {
              "internalType": "string",
              "name": "description",
              "type": "string"
            },
            {
              "internalType": "string",
              "name": "image",
              "type": "string"
            },
            {
              "internalType": "uint256",
              "name": "categoryId",
              "type": "uint256"
            },
            {
              "internalType": "uint256",
              "name": "cost",
              "type": "uint256"
            },
            {
              "internalType": "uint256",
              "name": "stock",
              "type": "uint256"
            },
            {
              "internalType": "uint256",
              "name": "timestamp",
              "type": "uint256"
            },
            {
              "internalType": "bool",
              "name": "deleted",
              "type": "bool"
            }
          ],
          "internalType": "struct CryptoMartStorage.ProductStruct",
          "name": "",
          "type": "tuple"
        }
      ],
      "stateMutability": "view",
      "type": "function"
    },
    {
      "inputs": [
        {
          "internalType": "uint256",
          "name": "productId",
          "type": "uint256"
        }
      ],
      "name": "getProductReviews",
      "outputs": [
        {
          "components": [
            {
              "internalType": "uint256",
              "name": "reviewId",
              "type": "uint256"
            },
            {
              "internalType": "address",
              "name": "reviewer",
              "type": "address"
            },
            {
              "internalType": "uint256",
              "name": "rating",
              "type": "uint256"
            },
            {
              "internalType": "string",
              "name": "comment",
              "type": "string"
            },
            {
              "internalType": "bool",
              "name": "deleted",
              "type": "bool"
            },
            {
              "internalType": "uint256",
              "name": "timestamp",
              "type": "uint256"
            }
          ],
          "internalType": "struct CryptoMartStorage.ReviewStruct[]",
          "name": "",
          "type": "tuple[]"
        }
      ],
      "stateMutability": "view",
      "type": "function"
    },
    {
      "inputs": [
        {
          "internalType": "address",
          "name": "seller",
          "type": "address"
        }
      ],
      "name": "getSeller",
      "outputs": [
        {
          "components": [
            {
              "internalType": "string",
              "name": "businessName",
              "type": "string"
            },
            {
              "internalType": "string",
              "name": "description",
              "type": "string"
            },
            {
              "internalType": "string",
              "name": "email",
              "type": "string"
            },
            {
              "internalType": "string",
              "name": "phone",
              "type": "string"
            },
            {
              "internalType": "string",
              "name": "logo",
              "type": "string"
            },
            {
              "internalType": "bool",
              "name": "isRegistered",
              "type": "bool"
            },
            {
              "internalType": "uint256",
              "name": "registeredAt",
              "type": "uint256"
            }
          ],
          "internalType": "struct CryptoMartStorage.SellerProfile",
          "name": "",
          "type": "tuple"
        },
        {
          "internalType": "enum CryptoMartStorage.SellerStatus",
          "name": "",
          "type": "uint8"
        }
      ],
      "stateMutability": "view",
      "type": "function"
    },
    {
      "inputs": [
        {
          "internalType": "address",
          "name": "seller",
          "type": "address"
        }
      ],
      "name": "getSellerProducts",
      "outputs": [
        {
          "internalType": "uint256[]",
          "name": "",
          "type": "uint256[]"
        }
      ],
      "stateMutability": "view",
      "type": "function"
    },
    {
      "inputs": [
        {
          "internalType": "address",
          "name": "seller",
          "type": "address"
        }
      ],
      "name": "getSellerPurchases",
      "outputs": [
        {
          "components": [
            {
              "internalType": "uint256",
              "name": "productId",
              "type": "uint256"
            },
            {
              "internalType": "address",
              "name": "buyer",
              "type": "address"
            },
            {
              "internalType": "address",
              "name": "seller",
              "type": "address"
            },
            {
              "internalType": "uint256",
              "name": "totalAmount",
              "type": "uint256"
            },
            {
              "internalType": "uint256",
              "name": "timestamp",
              "type": "uint256"
            },
            {
              "internalType": "bool",
              "name": "isDelivered",
              "type": "bool"
            }
          ],
          "internalType": "struct CryptoMartStorage.PurchaseStruct[]",
          "name": "",
          "type": "tuple[]"
        }
      ],
      "stateMutability": "view",
      "type": "function"
    },
    {
      "inputs": [
        {
          "internalType": "address",
          "name": "user",
          "type": "address"
        }
      ],
      "name": "getUser",
      "outputs": [
        {
          "components": [
            {
              "internalType": "string",
              "name": "name",
              "type": "string"
            },
            {
              "internalType": "string",
              "name": "email",
              "type": "string"
            },
            {
              "internalType": "string",
              "name": "avatar",
              "type": "string"
            },
            {
              "internalType": "bool",
              "name": "isRegistered",
              "type": "bool"
            }
          ],
          "internalType": "struct CryptoMartStorage.UserProfile",
          "name": "",
          "type": "tuple"
        }
      ],
      "stateMutability": "view",
      "type": "function"
    },
    {
      "inputs": [],
      "name": "incrementCategories",
      "outputs": [
        {
          "internalType": "uint256",
          "name": "",
          "type": "uint256"
        }
      ],
      "stateMutability": "nonpayable",
      "type": "function"
    },
    {
      "inputs": [],
      "name": "incrementProducts",
      "outputs": [
        {
          "internalType": "uint256",
          "name": "",
          "type": "uint256"
        }
      ],
      "stateMutability": "nonpayable",
      "type": "function"
    },
    {
      "inputs": [],
      "name": "incrementReviews",
      "outputs": [
        {
          "internalType": "uint256",
          "name": "",
          "type": "uint256"
        }
      ],
      "stateMutability": "nonpayable",
      "type": "function"
    },
    {
      "inputs": [],
      "name": "incrementSales",
      "outputs": [
        {
          "internalType": "uint256",
          "name": "",
          "type": "uint256"
        }
      ],
      "stateMutability": "nonpayable",
      "type": "function"
    },
    {
      "inputs": [],
      "name": "owner",
      "outputs": [
        {
          "internalType": "address",
          "name": "",
          "type": "address"
        }
      ],
      "stateMutability": "view",
      "type": "function"
    },
    {
      "inputs": [
        {
          "internalType": "uint256",
          "name": "",
          "type": "uint256"
        }
      ],
      "name": "pendingVerificationUsers",
      "outputs": [
        {
          "internalType": "address",
          "name": "",
          "type": "address"
        }
      ],
      "stateMutability": "view",
      "type": "function"
    },
    {
      "inputs": [
        {
          "internalType": "uint256",
          "name": "",
          "type": "uint256"
        }
      ],
      "name": "productCategories",
      "outputs": [
        {
          "internalType": "uint256",
          "name": "",
          "type": "uint256"
        }
      ],
      "stateMutability": "view",
      "type": "function"
    },
    {
      "inputs": [
        {
          "internalType": "uint256",
          "name": "",
          "type": "uint256"
        }
      ],
      "name": "productExists",
      "outputs": [
        {
          "internalType": "bool",
          "name": "",
          "type": "bool"
        }
      ],
      "stateMutability": "view",
      "type": "function"
    },
    {
      "inputs": [
        {
          "internalType": "uint256",
          "name": "",
          "type": "uint256"
        },
        {
          "internalType": "uint256",
          "name": "",
          "type": "uint256"
        }
      ],
      "name": "productReviews",
      "outputs": [
        {
          "internalType": "uint256",
          "name": "reviewId",
          "type": "uint256"
        },
        {
          "internalType": "address",
          "name": "reviewer",
          "type": "address"
        },
        {
          "internalType": "uint256",
          "name": "rating",
          "type": "uint256"
        },
        {
          "internalType": "string",
          "name": "comment",
          "type": "string"
        },
        {
          "internalType": "bool",
          "name": "deleted",
          "type": "bool"
        },
        {
          "internalType": "uint256",
          "name": "timestamp",
          "type": "uint256"
        }
      ],
      "stateMutability": "view",
      "type": "function"
    },
    {
      "inputs": [
        {
          "internalType": "uint256",
          "name": "",
          "type": "uint256"
        }
      ],
      "name": "products",
      "outputs": [
        {
          "internalType": "uint256",
          "name": "id",
          "type": "uint256"
        },
        {
          "internalType": "address",
          "name": "seller",
          "type": "address"
        },
        {
          "internalType": "string",
          "name": "name",
          "type": "string"
        },
        {
          "internalType": "string",
          "name": "description",
          "type": "string"
        },
        {
          "internalType": "string",
          "name": "image",
          "type": "string"
        },
        {
          "internalType": "uint256",
          "name": "categoryId",
          "type": "uint256"
        },
        {
          "internalType": "uint256",
          "name": "cost",
          "type": "uint256"
        },
        {
          "internalType": "uint256",
          "name": "stock",
          "type": "uint256"
        },
        {
          "internalType": "uint256",
          "name": "timestamp",
          "type": "uint256"
        },
        {
          "internalType": "bool",
          "name": "deleted",
          "type": "bool"
        }
      ],
      "stateMutability": "view",
      "type": "function"
    },
    {
      "inputs": [
        {
          "internalType": "address",
          "name": "",
          "type": "address"
        }
      ],
      "name": "registeredSellers",
      "outputs": [
        {
          "internalType": "bool",
          "name": "",
          "type": "bool"
        }
      ],
      "stateMutability": "view",
      "type": "function"
    },
    {
      "inputs": [
        {
          "internalType": "uint256",
          "name": "",
          "type": "uint256"
        }
      ],
      "name": "registeredSellersList",
      "outputs": [
        {
          "internalType": "address",
          "name": "",
          "type": "address"
        }
      ],
      "stateMutability": "view",
      "type": "function"
    },
    {
      "inputs": [
        {
          "internalType": "address",
          "name": "",
          "type": "address"
        }
      ],
      "name": "registeredUsers",
      "outputs": [
        {
          "internalType": "bool",
          "name": "",
          "type": "bool"
        }
      ],
      "stateMutability": "view",
      "type": "function"
    },
    {
      "inputs": [
        {
          "internalType": "address",
          "name": "_contract",
          "type": "address"
        }
      ],
      "name": "removeAuthorizedContract",
      "outputs": [],
      "stateMutability": "nonpayable",
      "type": "function"
    },
    {
      "inputs": [],
      "name": "renounceOwnership",
      "outputs": [],
      "stateMutability": "nonpayable",
      "type": "function"
    },
    {
      "inputs": [
        {
          "internalType": "address",
          "name": "",
          "type": "address"
        }
      ],
      "name": "sellerBalances",
      "outputs": [
        {
          "internalType": "uint256",
          "name": "",
          "type": "uint256"
        }
      ],
      "stateMutability": "view",
      "type": "function"
    },
    {
      "inputs": [
        {
          "internalType": "address",
          "name": "",
          "type": "address"
        },
        {
          "internalType": "uint256",
          "name": "",
          "type": "uint256"
        }
      ],
      "name": "sellerProducts",
      "outputs": [
        {
          "internalType": "uint256",
          "name": "",
          "type": "uint256"
        }
      ],
      "stateMutability": "view",
      "type": "function"
    },
    {
      "inputs": [
        {
          "internalType": "address",
          "name": "",
          "type": "address"
        }
      ],
      "name": "sellerProfiles",
      "outputs": [
        {
          "internalType": "string",
          "name": "businessName",
          "type": "string"
        },
        {
          "internalType": "string",
          "name": "description",
          "type": "string"
        },
        {
          "internalType": "string",
          "name": "email",
          "type": "string"
        },
        {
          "internalType": "string",
          "name": "phone",
          "type": "string"
        },
        {
          "internalType": "string",
          "name": "logo",
          "type": "string"
        },
        {
          "internalType": "bool",
          "name": "isRegistered",
          "type": "bool"
        },
        {
          "internalType": "uint256",
          "name": "registeredAt",
          "type": "uint256"
        }
      ],
      "stateMutability": "view",
      "type": "function"
    },
    {
      "inputs": [
        {
          "internalType": "address",
          "name": "",
          "type": "address"
        },
        {
          "internalType": "uint256",
          "name": "",
          "type": "uint256"
        }
      ],
      "name": "sellerPurchaseHistory",
      "outputs": [
        {
          "internalType": "uint256",
          "name": "productId",
          "type": "uint256"
        },
        {
          "internalType": "address",
          "name": "buyer",
          "type": "address"
        },
        {
          "internalType": "address",
          "name": "seller",
          "type": "address"
        },
        {
          "internalType": "uint256",
          "name": "totalAmount",
          "type": "uint256"
        },
        {
          "internalType": "uint256",
          "name": "timestamp",
          "type": "uint256"
        },
        {
          "internalType": "bool",
          "name": "isDelivered",
          "type": "bool"
        }
      ],
      "stateMutability": "view",
      "type": "function"
    },
    {
      "inputs": [
        {
          "internalType": "address",
          "name": "",
          "type": "address"
        }
      ],
      "name": "sellerStatus",
      "outputs": [
        {
          "internalType": "enum CryptoMartStorage.SellerStatus",
          "name": "",
          "type": "uint8"
        }
      ],
      "stateMutability": "view",
      "type": "function"
    },
    {
      "inputs": [],
      "name": "servicePct",
      "outputs": [
        {
          "internalType": "uint256",
          "name": "",
          "type": "uint256"
        }
      ],
      "stateMutability": "view",
      "type": "function"
    },
    {
      "inputs": [
        {
          "internalType": "uint256",
          "name": "id",
          "type": "uint256"
        },
        {
          "components": [
            {
              "internalType": "uint256",
              "name": "id",
              "type": "uint256"
            },
            {
              "internalType": "string",
              "name": "name",
              "type": "string"
            },
            {
              "internalType": "bool",
              "name": "isActive",
              "type": "bool"
            }
          ],
          "internalType": "struct CryptoMartStorage.CategoryStruct",
          "name": "category",
          "type": "tuple"
        }
      ],
      "name": "setCategory",
      "outputs": [],
      "stateMutability": "nonpayable",
      "type": "function"
    },
    {
      "inputs": [
        {
          "internalType": "uint256",
          "name": "id",
          "type": "uint256"
        },
        {
          "components": [
            {
              "internalType": "uint256",
              "name": "id",
              "type": "uint256"
            },
            {
              "internalType": "address",
              "name": "seller",
              "type": "address"
            },
            {
              "internalType": "string",
              "name": "name",
              "type": "string"
            },
            {
              "internalType": "string",
              "name": "description",
              "type": "string"
            },
            {
              "internalType": "string",
              "name": "image",
              "type": "string"
            },
            {
              "internalType": "uint256",
              "name": "categoryId",
              "type": "uint256"
            },
            {
              "internalType": "uint256",
              "name": "cost",
              "type": "uint256"
            },
            {
              "internalType": "uint256",
              "name": "stock",
              "type": "uint256"
            },
            {
              "internalType": "uint256",
              "name": "timestamp",
              "type": "uint256"
            },
            {
              "internalType": "bool",
              "name": "deleted",
              "type": "bool"
            }
          ],
          "internalType": "struct CryptoMartStorage.ProductStruct",
          "name": "product",
          "type": "tuple"
        }
      ],
      "name": "setProduct",
      "outputs": [],
      "stateMutability": "nonpayable",
      "type": "function"
    },
    {
      "inputs": [
        {
          "internalType": "uint256",
          "name": "productId",
          "type": "uint256"
        },
        {
          "internalType": "uint256",
          "name": "categoryId",
          "type": "uint256"
        }
      ],
      "name": "setProductCategory",
      "outputs": [],
      "stateMutability": "nonpayable",
      "type": "function"
    },
    {
      "inputs": [
        {
          "internalType": "address",
          "name": "seller",
          "type": "address"
        },
        {
          "components": [
            {
              "internalType": "string",
              "name": "businessName",
              "type": "string"
            },
            {
              "internalType": "string",
              "name": "description",
              "type": "string"
            },
            {
              "internalType": "string",
              "name": "email",
              "type": "string"
            },
            {
              "internalType": "string",
              "name": "phone",
              "type": "string"
            },
            {
              "internalType": "string",
              "name": "logo",
              "type": "string"
            },
            {
              "internalType": "bool",
              "name": "isRegistered",
              "type": "bool"
            },
            {
              "internalType": "uint256",
              "name": "registeredAt",
              "type": "uint256"
            }
          ],
          "internalType": "struct CryptoMartStorage.SellerProfile",
          "name": "profile",
          "type": "tuple"
        }
      ],
      "name": "setSeller",
      "outputs": [],
      "stateMutability": "nonpayable",
      "type": "function"
    },
    {
      "inputs": [
        {
          "internalType": "address",
          "name": "seller",
          "type": "address"
        },
        {
          "internalType": "enum CryptoMartStorage.SellerStatus",
          "name": "status",
          "type": "uint8"
        }
      ],
      "name": "setSellerStatus",
      "outputs": [],
      "stateMutability": "nonpayable",
      "type": "function"
    },
    {
      "inputs": [
        {
          "internalType": "uint256",
          "name": "_servicePct",
          "type": "uint256"
        }
      ],
      "name": "setServicePct",
      "outputs": [],
      "stateMutability": "nonpayable",
      "type": "function"
    },
    {
      "inputs": [
        {
          "internalType": "address",
          "name": "user",
          "type": "address"
        },
        {
          "components": [
            {
              "internalType": "string",
              "name": "name",
              "type": "string"
            },
            {
              "internalType": "string",
              "name": "email",
              "type": "string"
            },
            {
              "internalType": "string",
              "name": "avatar",
              "type": "string"
            },
            {
              "internalType": "bool",
              "name": "isRegistered",
              "type": "bool"
            }
          ],
          "internalType": "struct CryptoMartStorage.UserProfile",
          "name": "profile",
          "type": "tuple"
        }
      ],
      "name": "setUser",
      "outputs": [],
      "stateMutability": "nonpayable",
      "type": "function"
    },
    {
      "inputs": [],
      "name": "totalProducts",
      "outputs": [
        {
          "internalType": "uint256",
          "name": "",
          "type": "uint256"
        }
      ],
      "stateMutability": "view",
      "type": "function"
    },
    {
      "inputs": [],
      "name": "totalReviews",
      "outputs": [
        {
          "internalType": "uint256",
          "name": "",
          "type": "uint256"
        }
      ],
      "stateMutability": "view",
      "type": "function"
    },
    {
      "inputs": [],
      "name": "totalSales",
      "outputs": [
        {
          "internalType": "uint256",
          "name": "",
          "type": "uint256"
        }
      ],
      "stateMutability": "view",
      "type": "function"
    },
    {
      "inputs": [
        {
          "internalType": "address",
          "name": "newOwner",
          "type": "address"
        }
      ],
      "name": "transferOwnership",
      "outputs": [],
      "stateMutability": "nonpayable",
      "type": "function"
    },
    {
      "inputs": [
        {
          "internalType": "address",
          "name": "seller",
          "type": "address"
        },
        {
          "internalType": "uint256",
          "name": "amount",
          "type": "uint256"
        }
      ],
      "name": "updateSellerBalance",
      "outputs": [],
      "stateMutability": "nonpayable",
      "type": "function"
    },
    {
      "inputs": [
        {
          "internalType": "address",
          "name": "",
          "type": "address"
        }
      ],
      "name": "userProfiles",
      "outputs": [
        {
          "internalType": "string",
          "name": "name",
          "type": "string"
        },
        {
          "internalType": "string",
          "name": "email",
          "type": "string"
        },
        {
          "internalType": "string",
          "name": "avatar",
          "type": "string"
        },
        {
          "internalType": "bool",
          "name": "isRegistered",
          "type": "bool"
        }
      ],
      "stateMutability": "view",
      "type": "function"
    },
    {
      "inputs": [
        {
          "internalType": "uint256",
          "name": "",
          "type": "uint256"
        }
      ],
      "name": "usersList",
      "outputs": [
        {
          "internalType": "address",
          "name": "",
          "type": "address"
        }
      ],
      "stateMutability": "view",
      "type": "function"
    }
  ],
  "bytecode": "0x6080346100af57601f6200376238819003918201601f19168301916001600160401b038311848410176100b3578084926020946040528339810103126100af57515f8054336001600160a01b0319821681178355604051939290916001600160a01b0316907f8be0079c531659141344cd1fd0a4f28419497f9722a3daafe3b4186f6b6457e09080a3600555335f52601760205260405f20600160ff1982541617905561369a9081620000c88239f35b5f80fd5b634e487b7160e01b5f52604160045260245ffdfe6080806040526004361015610012575f80fd5b5f3560e01c90816303624fc0146131305750806305a2c9cf146130ee57806306ad0cb914612bc957806307c115ed14612b555780630c04acc614612af95780630e50cee514612abc5780631294b01d14612a2357806326d36bbc146129c757806328a22b87146127ea5780632aafa8071461279e578063332d56d71461270057806345de84db146126be57806346a4237b1461255c5780634f1c441e14612515578063502aa3b5146124ce5780635074a29e14611d5d578063540f1c3c14611d3357806359dd665f146118475780635ad6a580146117da5780635f638d621461177e578063607eb4e4146117465780636605ff66146117295780636f68ef3a1461169d5780636f77926b146115a8578063715018a6146115645780637acc0b20146114885780638061bc931461120f57806385a3439314611146578063865d2197146110ea5780638da5cb5b146110c35780639196dfcb14610fe157806398eaa4a714610f9d5780639b9d326d14610f805780639fa44dbf14610f39578063a323d29e14610daf578063aa27905914610c01578063af55ed6414610bd2578063b9db15b414610a30578063c1302b34146109d9578063c258f53114610910578063c262f298146108be578063c64b8a8f14610881578063c6cdbe5e14610824578063c80bba8a1461074d578063d5b9221b14610710578063e01ef6e6146106f3578063e2367890146106d6578063e585cb2c14610626578063e6a93e1614610578578063e6b165ed14610537578063eaae75621461044e578063f2943dce146103ba578063f2fde38b1461030f5763f3052d261461026e575f80fd5b3461030b5760208060031936011261030b575f6040805161028e81613193565b82815260608482015201526004355f52600f815260405f20604051906102b382613193565b805482526102fe60ff60026102ca600185016132e6565b9386860194855201541691604084019215158352604051948594818652519085015251606060408501526080840190613388565b9051151560608301520390f35b5f80fd5b3461030b57602036600319011261030b57610328613222565b6103306135d6565b6001600160a01b03908116908115610366575f548260018060a01b03198216175f55165f8051602061364e8339815191525f80a3005b60405162461bcd60e51b815260206004820152602660248201527f4f776e61626c653a206e6577206f776e657220697320746865207a65726f206160448201526564647265737360d01b6064820152608490fd5b3461030b576103c8366134c4565b905f52601260205260405f2090815481101561030b576103e7916134ab565b50805460018060a01b0360018301541691600281015461043d61040c600384016132e6565b600560ff6004860154169401549260405196879687526020870152604086015260c0606086015260c0850190613388565b911515608084015260a08301520390f35b3461030b5761010036600319011261030b57610468613222565b6001600160a01b036024358181169081900361030b5760c036604319011261030b5760405191610497836131ae565b6044358352606435818116810361030b576020840152608435818116810361030b57604084015260a435606084015260c435608084015260e43593841515850361030b576105299460a0850152335f52601760205260ff60405f205416801561052b575b610504906134da565b165f5260106020526105198260405f2061354d565b5f52601160205260405f2061354d565b005b505f54821633146104fb565b3461030b57602036600319011261030b57610550613222565b6105586135d6565b6001600160a01b03165f908152601760205260409020805460ff19169055005b3461030b5760208060031936011261030b576001600160a01b0361059a613222565b165f526007815260405f20604051908183825491828152019081925f52845f20905f5b868282106106125786866105d3828803836131ff565b60405192839281840190828552518091526040840192915f5b8281106105fb57505050500390f35b8351855286955093810193928101926001016105ec565b8354855290930192600192830192016105bd565b3461030b57604036600319011261030b5761063f613222565b6001600160a01b039081165f90815260116020526040902080546024359081101561030b5761066d916134ab565b5080546001820154600283015460038401546004850154600590950154604080519586526001600160a01b03948816851660208701529290961692909216908301526060820152608081019190915260ff91909116151560a08201528060c081010390f35b0390f35b3461030b575f36600319011261030b576020600354604051908152f35b3461030b575f36600319011261030b576020600554604051908152f35b3461030b57602036600319011261030b576001600160a01b03610731613222565b165f526017602052602060ff60405f2054166040519015158152f35b3461030b57604036600319011261030b57610766613222565b60243590335f52601760205260ff60405f2054168015610811575b61078a906134da565b6001600160a01b03165f818152600e602052604090205482116107d5575f52600e60205260405f2080549182039182116107c15755005b634e487b7160e01b5f52601160045260245ffd5b60405162461bcd60e51b8152602060048201526014602482015273496e73756666696369656e742062616c616e636560601b6044820152606490fd5b505f546001600160a01b03163314610781565b3461030b57602036600319011261030b576004355f52600f60205260405f20805460ff6002610855600185016132e6565b930154166108756040519384938452606060208501526060840190613388565b90151560408301520390f35b3461030b57602036600319011261030b576001600160a01b036108a2613222565b165f52600c602052602060ff60405f2054166040519015158152f35b3461030b576108cc366134c4565b90335f52601760205260ff60405f20541680156108fd575b6108ed906134da565b5f52601360205260405f20555f80f35b505f546001600160a01b031633146108e4565b3461030b5760208060031936011261030b576001600160a01b039081610934613222565b165f526011815260405f2080549061094b82613536565b9261095960405194856131ff565b8284525f9182528082208185015b84841061097c57604051806106d2888261342b565b60068360019260405161098e816131ae565b855481528a8587015416838201528a6002870154166040820152600386015460608201526004860154608082015260ff600587015416151560a0820152815201920193019290610967565b3461030b57604036600319011261030b576109f2613222565b6001600160a01b03165f9081526007602052604090208054602435919082101561030b57602091610a2291613162565b90546040519160031b1c8152f35b3461030b57602036600319011261030b575f610120604051610a5181613177565b82815282602082015260606040820152606080820152606060808201528260a08201528260c08201528260e08201528261010082015201526004355f52600660205260405f2060ff600960405192610aa884613177565b8054845260018101546001600160a01b03166020850152610acb600282016132e6565b6040850152610adc600382016132e6565b6060850152610aed600482016132e6565b6080850152600581015460a0850152600681015460c0850152600781015460e0850152600881015461010085015201541615156101208201526040518091602082528051602083015260018060a01b0360208201511660408301526040810151610120610b9c610b6b61014093846060880152610160870190613388565b610b87606086015191601f1992838983030160808a0152613388565b906080860151908783030160a0880152613388565b9260a081015160c086015260c081015160e086015260e08101516101008601526101008101518286015201511515908301520390f35b3461030b57602036600319011261030b576004355f526008602052602060ff60405f2054166040519015158152f35b3461030b57604036600319011261030b57610c1a613222565b60249060243591600483101561030b57335f52601760205260ff60405f2054168015610d9c575b610c4a906134da565b60018060a01b039081831692835f52600d60205260405f2060ff1981541660ff871617905560019460018114610d5e575b6002915014610c8657005b83925f945b610c9157005b60168054908187101561052957849183610caa8961314a565b949054600395861b1c1614610cc6575050508380950194610c8b565b9392509450945f1992838101908111610d4b5790610cf785610cea610d159461314a565b9054908a1b1c169161314a565b90919060018060a01b038084549260031b9316831b921b1916179055565b8354908115610d3857500192610d2a8461314a565b81939154921b1b1916905555005b634e487b7160e01b5f9081526031600452fd5b82634e487b7160e01b5f5260116004525ffd5b601654600160401b811015610d8857600292610cf7826001610d83940160165561314a565b610c7b565b634e487b7160e01b5f52604160045260245ffd5b505f546001600160a01b03163314610c41565b3461030b5760208060031936011261030b57610dc9613222565b9060405191610dd7836131c9565b6060928381528383820152836040820152838082015283608082015260a081015f905260c0015f9052600160a01b60019003165f52600b815260405f20600d825260405f205460ff1660405192610e2d846131c9565b610e36836132e6565b8452610e44600184016132e6565b84820190815294610e57600285016132e6565b6040860190815290610e6b600386016132e6565b868201908152610e7d600487016132e6565b9060808801918252600587015460ff169660a089019715158852600601549360c08901948552604051998a9960408b525160408b0160e090526101208b01610ec491613388565b905190603f1995868c830301908c0152610edd91613388565b905190848a82030160808b0152610ef391613388565b905190838982030160a08a0152610f0991613388565b9051918782030160c0880152610f1e91613388565b9351151560e08601525161010085015283016106d2916133c6565b3461030b57604036600319011261030b57610f52613222565b6001600160a01b039081165f90815260106020526040902080546024359081101561030b5761066d916134ab565b3461030b575f36600319011261030b576020600154604051908152f35b3461030b57602036600319011261030b57610fb6613222565b610fbe6135d6565b6001600160a01b03165f908152601760205260409020805460ff19166001179055005b3461030b57602036600319011261030b576001600160a01b03611002613222565b165f52600b60205261107a60405f2061101a816132e6565b90611027600182016132e6565b6110b2611036600284016132e6565b6110a4611045600386016132e6565b611096611054600488016132e6565b93611088600660ff60058b015416990154976040519b8c9b60e08d5260e08d0190613388565b908b820360208d0152613388565b9089820360408b0152613388565b908782036060890152613388565b908582036080870152613388565b91151560a084015260c08301520390f35b3461030b575f36600319011261030b575f546040516001600160a01b039091168152602090f35b3461030b575f36600319011261030b57335f52601760205260ff60405f2054168015611133575b61111a906134da565b6020611127600254613528565b80600255604051908152f35b505f546001600160a01b03163314611111565b3461030b5760208060031936011261030b576001600160a01b03908161116a613222565b165f526010815260405f2080549061118182613536565b9261118f60405194856131ff565b8284525f9182528082208185015b8484106111b257604051806106d2888261342b565b6006836001926040516111c4816131ae565b855481528a8587015416838201528a6002870154166040820152600386015460608201526004860154608082015260ff600587015416151560a082015281520192019301929061119d565b3461030b5760031960403682011261030b57602435906001600160401b039081831161030b5760c090833603011261030b576040519161124e836131ae565b8060040135835261126160248201613238565b91602092838501908152604085019160448401358352606484013581811161030b57611293906004369187010161324c565b91606087019283526112a7608486016132a1565b936080880194855260a460a089019601358652335f526017875260ff60405f2054168015611475575b6112d9906134da565b6004355f526012875260405f20918254600160401b811015610d88576113069060019485820181556134ab565b999099611462575189555182890180546001600160a01b0319166001600160a01b0392909216919091179055516002880155915180519095600388019391928311610d885761135584546132ae565b601f811161141c575b5080601f84116001146113ae57509180809261139d9695946005995f946113a3575b50501b915f199060031b1c19161790555b51151560048501613517565b51910155005b015192508a80611380565b9193949596601f198416865f52835f20935f905b82821061140557505091600598979593918561139d989694106113ed575b505050811b019055611391565b01515f1960f88460031b161c191690558880806113e0565b8088869782949787015181550196019401906113c2565b845f52815f20601f850160051c810191838610611458575b601f0160051c019083905b82811061144d57505061135e565b5f815501839061143f565b9091508190611434565b634e487b7160e01b5f525f60045260245ffd5b505f546001600160a01b031633146112d0565b3461030b57602036600319011261030b576004355f52600660205260405f20604081549160018060a01b036001820154166114c5600283016132e6565b916114d2600382016132e6565b926114df600483016132e6565b9361154260058401549561153460068601549361152660078801549660ff600960088b01549a015416998c519d8e9d8e6101409384938252602082015201528c0190613388565b908a820360608c0152613388565b9088820360808a0152613388565b9460a087015260c086015260e085015261010084015215156101208301520390f35b3461030b575f36600319011261030b5761157c6135d6565b5f80546001600160a01b0319811682556001600160a01b03165f8051602061364e8339815191528280a3005b3461030b5760208060031936011261030b576080906115c5613222565b90604051916115d3836131e4565b5f606084818096528185820152816040820152015260018060a01b03165f526009815261169060405f206040519361160a856131e4565b611613826132e6565b8552611621600183016132e6565b9084860191825261168061166a60ff600361163e600288016132e6565b9660408b01978852015416968389019715158852604051998a99828b5251918a015260a0890190613388565b925192601f1993848983030160408a0152613388565b9251918684030190860152613388565b9051151560808301520390f35b3461030b575f36600319011261030b57604051601680548083525f918252602080840193927fd833147d7dc355ba459fc788f669e58cfaf9dc25ddcd0702e87d69c7b512428992915b828210611709576106d2856116fd818903826131ff565b604051918291826133e7565b83546001600160a01b0316865294850194600193840193909101906116e6565b3461030b575f36600319011261030b576020600254604051908152f35b3461030b57602036600319011261030b576001600160a01b03611767613222565b165f52600e602052602060405f2054604051908152f35b3461030b575f36600319011261030b57335f52601760205260ff60405f20541680156117c7575b6117ae906134da565b60206117bb600354613528565b80600355604051908152f35b505f546001600160a01b031633146117a5565b3461030b575f36600319011261030b57604051601480548083525f918252602080840193925f8051602061366e83398151915292915b828210611827576106d2856116fd818903826131ff565b83546001600160a01b031686529485019460019384019390910190611810565b3461030b5760031960403682011261030b57611861613222565b90602435906001600160401b03821161030b57608090823603011261030b576040519161188d836131e4565b60048201356001600160401b03811161030b576118b0906004369185010161324c565b835260248201356001600160401b03811161030b576118d5906004369185010161324c565b602084019081529160448101356001600160401b03811161030b57611911916119066064926004369184010161324c565b6040870152016132a1565b6060840152335f52601760205260ff60405f2054168015611d20575b611936906134da565b6001600160a01b03165f8181526009602052604090208351805192939192906001600160401b038211610d8857819061196f85546132ae565b601f8111611cd0575b50602090601f8311600114611c6c575f92611c61575b50508160011b915f199060031b1c19161782555b5180519093906001600160401b038111610d88576119c360018401546132ae565b601f8111611c19575b506020601f8211600114611bae5781929394955f92611ba3575b50508160011b915f199060031b1c19161760018301555b6040810151805160028401916001600160401b038211610d8857611a2183546132ae565b601f8111611b5e575b50602090601f8311600114611af1579282606093611a6c9796936003965f92611ae6575b50508160011b915f1990871b1c19161790555b015115159101613517565b805f52600a60205260405f20805460ff811615611a8557005b60ff19166001179055601554600160401b811015610d88576001810180601555811015611ad25760155f525f8051602061362e8339815191520180546001600160a01b0319169091179055005b634e487b7160e01b5f52603260045260245ffd5b015190508980611a4e565b90601f19831691845f5260205f20925f5b818110611b46575093611a6c979693600396936001938360609810611b2f575b505050811b019055611a61565b01515f1983891b60f8161c19169055898080611b22565b92936020600181928786015181550195019301611b02565b835f5260205f20601f840160051c81019160208510611b99575b601f0160051c01905b818110611b8e5750611a2a565b5f8155600101611b81565b9091508190611b78565b0151905085806119e6565b600184015f5260205f20905f5b601f1984168110611c01575060019394959683601f19811610611be9575b505050811b0160018301556119fd565b01515f1960f88460031b161c19169055858080611bd9565b9091602060018192858b015181550193019101611bbb565b600184015f5260205f20601f830160051c81019160208410611c57575b601f0160051c01905b818110611c4c57506119cc565b5f8155600101611c3f565b9091508190611c36565b01519050868061198e565b5f868152602081209350601f198516905b818110611cb85750908460019594939210611ca0575b505050811b0182556119a2565b01515f1960f88460031b161c19169055868080611c93565b92936020600181928786015181550195019301611c7d565b909150845f5260205f20601f840160051c81019160208510611d16575b90601f859493920160051c01905b818110611d085750611978565b5f8155849350600101611cfb565b9091508190611ced565b505f546001600160a01b0316331461192d565b3461030b57602036600319011261030b576004355f526013602052602060405f2054604051908152f35b3461030b5760031960403682011261030b57611d77613222565b90602435906001600160401b03821161030b5760e090823603011261030b5760405191611da3836131c9565b60048201356001600160401b03811161030b57611dc6906004369185010161324c565b835260248201356001600160401b03811161030b57611deb906004369185010161324c565b602084019081529160448101356001600160401b03811161030b57611e16906004369184010161324c565b604085015260648101356001600160401b03811161030b57611e3e906004369184010161324c565b60608501526084810135906001600160401b03821161030b57611e6960c4926004369184010161324c565b6080860152611e7a60a482016132a1565b60a0860152013560c0840152335f52601760205260ff60405f20541680156124bb575b611ea6906134da565b6001600160a01b03165f818152600b6020526040902083518051929491939192906001600160401b038211610d88578190611ee186546132ae565b601f811161246b575b50602090601f8311600114612403575f926123f8575b50508160011b915f199060031b1c19161783555b5180519093906001600160401b038111610d8857611f3560018501546132ae565b601f81116123b4575b506020601f82116001146123495781929394955f9261233e575b50508160011b915f199060031b1c19161760018401555b604082015180519093906001600160401b038111610d8857611f9460028301546132ae565b601f81116122fa575b506020601f821160011461228f5781929394955f92612284575b50508160011b915f199060031b1c19161760028201555b606083015180519093906001600160401b038111610d8857611ff360038401546132ae565b601f811161223c575b506020601f82116001146121d15781929394955f926121c6575b50508160011b915f199060031b1c19161760038301555b6080810151805160048401916001600160401b038211610d885761205183546132ae565b601f8111612181575b50602090601f831160011461211757918060c09492600696945f9261210c575b50508160011b915f199060031b1c19161790555b6120a160a0820151151560058601613517565b0151910155805f52600c60205260405f20805460ff8116156120bf57005b60ff19166001179055601454600160401b811015610d88576001810180601455811015611ad25760145f525f8051602061366e8339815191520180546001600160a01b0319169091179055005b01519050888061207a565b90601f19831691845f5260205f20925f5b81811061216957509260019285926006989660c0989610612151575b505050811b01905561208e565b01515f1960f88460031b161c19169055888080612144565b92936020600181928786015181550195019301612128565b835f5260205f20601f840160051c810191602085106121bc575b601f0160051c01905b8181106121b1575061205a565b5f81556001016121a4565b909150819061219b565b015190508580612016565b600384015f5260205f20905f5b601f1984168110612224575060019394959683601f1981161061220c575b505050811b01600383015561202d565b01515f1960f88460031b161c191690558580806121fc565b9091602060018192858b0151815501930191016121de565b600384015f5260205f20601f830160051c8101916020841061227a575b601f0160051c01905b81811061226f5750611ffc565b5f8155600101612262565b9091508190612259565b015190508580611fb7565b600283015f5260205f20905f5b601f19841681106122e2575060019394959683601f198116106122ca575b505050811b016002820155611fce565b01515f1960f88460031b161c191690558580806122ba565b9091602060018192858b01518155019301910161229c565b600283015f5260205f20601f830160051c810160208410612337575b601f830160051c8201811061232c575050611f9d565b5f8155600101612316565b5080612316565b015190508580611f58565b600185015f5260205f20905f5b601f198416811061239c575060019394959683601f19811610612384575b505050811b016001840155611f6f565b01515f1960f88460031b161c19169055858080612374565b9091602060018192858b015181550193019101612356565b600185015f5260205f20601f830160051c8101602084106123f1575b601f830160051c820181106123e6575050611f3e565b5f81556001016123d0565b50806123d0565b015190508680611f00565b9250855f5260205f20905f935b601f1984168510612450576001945083601f19811610612438575b505050811b018355611f14565b01515f1960f88460031b161c1916905586808061242b565b81810151835560209485019460019093019290910190612410565b909150855f5260205f20601f840160051c810191602085106124b1575b90601f859493920160051c01905b8181106124a35750611eea565b5f8155849350600101612496565b9091508190612488565b505f546001600160a01b03163314611e9d565b3461030b57602036600319011261030b5760043560155481101561030b5760155f525f8051602061362e83398151915201546040516001600160a01b039091168152602090f35b3461030b57602036600319011261030b5760043560145481101561030b5760145f525f8051602061366e83398151915201546040516001600160a01b039091168152602090f35b3461030b5760208060031936011261030b576004355f526012815260405f209081549161258883613536565b9261259660405194856131ff565b80845282840180925f52835f205f915b8383106126515750505050604051918083019381845251809452604083019360408160051b85010192915f955b8287106125e05785850386f35b909192938280600192603f1989820301855287519061262b60c083518352868060a01b0385850151168584015260408401516040840152606090808286015192850152830190613388565b9160808082015115159083015260a08091015191015296019201960195929190926125d3565b600686600192604099989951612666816131ae565b85548152848060a01b038587015416838201526002860154604082015261268f600387016132e6565b606082015260ff60048701541615156080820152600586015460a08201528152019201920191909594956125a6565b3461030b57602036600319011261030b576001600160a01b036126df613222565b165f52600d602052602060ff60405f2054166126fe60405180926133c6565bf35b3461030b57602036600319011261030b576001600160a01b03612721613222565b165f52600960205261277660405f20612739816132e6565b90612792612749600183016132e6565b9161278460ff600361275d600285016132e6565b9301541693604051968796608088526080880190613388565b908682036020880152613388565b908482036040860152613388565b90151560608301520390f35b3461030b57602036600319011261030b57335f52601760205260ff60405f20541680156127d7575b6127cf906134da565b600435600555005b505f546001600160a01b031633146127c6565b3461030b5760031960403682011261030b576001600160401b03906024359082821161030b57606090823603011261030b576040519061282982613193565b80600401358252602481013583811161030b5761284c906004369184010161324c565b6128606044602093848601938452016132a1565b9160408401928352335f526017815260ff60405f20541680156129b4575b612887906134da565b6004355f52600f815260405f209351845560019081850192518051968711610d88576128b384546132ae565b601f811161296e575b5081601f88116001146129045750958060029594938193610529995f946128f9575b50501b915f199060031b1c19161790555b5115159101613517565b0151925089806128de565b9190601f198816855f52835f20935f905b8282106129575750509160029695949391896105299a941061293f575b505050811b0190556128ef565b01515f1960f88460031b161c19169055878080612932565b808786978294978701518155019601940190612915565b845f52825f20601f890160051c810191848a106129aa575b601f0160051c019084905b82811061299f5750506128bc565b5f8155018490612991565b9091508190612986565b505f546001600160a01b0316331461287e565b3461030b575f36600319011261030b57335f52601760205260ff60405f2054168015612a10575b6129f7906134da565b6020612a04600154613528565b80600155604051908152f35b505f546001600160a01b031633146129ee565b3461030b57604036600319011261030b57612a3c613222565b335f52601760205260ff60405f2054168015612aa9575b612a5c906134da565b6001600160a01b03165f9081526007602052604090208054600160401b811015610d8857612a8f91600182018155613162565b81545f1960039290921b91821b191660243590911b179055005b505f546001600160a01b03163314612a53565b3461030b57602036600319011261030b576001600160a01b03612add613222565b165f52600a602052602060ff60405f2054166040519015158152f35b3461030b575f36600319011261030b57335f52601760205260ff60405f2054168015612b42575b612b29906134da565b6020612b36600454613528565b80600455604051908152f35b505f546001600160a01b03163314612b20565b3461030b57604036600319011261030b57612b6e613222565b335f52601760205260ff60405f2054168015612bb6575b612b8e906134da565b6001600160a01b03165f908152600e6020526040902080546024358101919082106107c15755005b505f546001600160a01b03163314612b85565b3461030b5760031960403682011261030b57602435906001600160401b03821161030b5761014090823603011261030b5760405190612c0782613177565b80600401358252612c1a60248201613238565b602083019081529060448101356001600160401b03811161030b57612c45906004369184010161324c565b604084019081529060648101356001600160401b03811161030b57612c70906004369184010161324c565b606085015260848101356001600160401b03811161030b57612cd491612c9f610124926004369184010161324c565b608087015260a481013560a087015260c481013560c087015260e481013560e0870152610104810135610100870152016132a1565b610120840152335f52601760205260ff60405f20541680156130db575b612cfa906134da565b6004355f9081526006602052604090208351815591516001830180546001600160a01b0319166001600160a01b03929092169190911790555180519092906001600160401b038111610d8857612d5360028401546132ae565b601f8111613097575b506020601f821160011461302d57819293945f92613022575b50508160011b915f199060031b1c19161760028301555b606081015180519092906001600160401b038111610d8857612db160038301546132ae565b601f8111612fde575b506020601f8211600114612f7457819293945f92612f69575b50508160011b915f199060031b1c19161760038201555b60808201518051906001600160401b038211610d8857612e0d60048401546132ae565b601f8111612f21575b50602090601f8311600114612eac57938260099361012093612e84975f92612ea1575b50508160011b915f199060031b1c19161760048501555b60a0810151600585015560c0810151600685015560e081015160078501556101008101516008850155015115159101613517565b6004355f908152600860205260409020805460ff19166001179055005b015190508780612e39565b90600484015f5260205f20915f5b601f1985168110612f0957508361012093612e849793600193600997601f19811610612ef1575b505050811b016004850155612e50565b01515f1960f88460031b161c19169055878080612ee1565b91926020600181928685015181550194019201612eba565b600484015f5260205f20601f840160051c81019160208510612f5f575b601f0160051c01905b818110612f545750612e16565b5f8155600101612f47565b9091508190612f3e565b015190508480612dd3565b600383015f5260205f20905f5b601f1984168110612fc65750600193949583601f19811610612fae575b505050811b016003820155612dea565b01515f1960f88460031b161c19169055848080612f9e565b9091602060018192858a015181550193019101612f81565b600383015f5260205f20601f830160051c81016020841061301b575b601f830160051c82018110613010575050612dba565b5f8155600101612ffa565b5080612ffa565b015190508480612d75565b600284015f5260205f20905f5b601f198416811061307f5750600193949583601f19811610613067575b505050811b016002830155612d8c565b01515f1960f88460031b161c19169055848080613057565b9091602060018192858a01518155019301910161303a565b600284015f5260205f20601f830160051c8101602084106130d4575b601f830160051c820181106130c9575050612d5c565b5f81556001016130b3565b50806130b3565b505f546001600160a01b03163314612cf1565b3461030b57602036600319011261030b5760043560165481101561030b5761311760209161314a565b905460405160039290921b1c6001600160a01b03168152f35b3461030b575f36600319011261030b576020906004548152f35b601654811015611ad25760165f5260205f2001905f90565b8054821015611ad2575f5260205f2001905f90565b61014081019081106001600160401b03821117610d8857604052565b606081019081106001600160401b03821117610d8857604052565b60c081019081106001600160401b03821117610d8857604052565b60e081019081106001600160401b03821117610d8857604052565b608081019081106001600160401b03821117610d8857604052565b601f909101601f19168101906001600160401b03821190821017610d8857604052565b600435906001600160a01b038216820361030b57565b35906001600160a01b038216820361030b57565b81601f8201121561030b578035906001600160401b038211610d885760405192613280601f8401601f1916602001856131ff565b8284526020838301011161030b57815f926020809301838601378301015290565b3590811515820361030b57565b90600182811c921680156132dc575b60208310146132c857565b634e487b7160e01b5f52602260045260245ffd5b91607f16916132bd565b9060405191825f82546132f8816132ae565b908184526020946001916001811690815f146133665750600114613328575b505050613326925003836131ff565b565b5f90815285812095935091905b81831061334e57505061332693508201015f8080613317565b85548884018501529485019487945091830191613335565b9250505061332694925060ff191682840152151560051b8201015f8080613317565b91908251928382525f5b8481106133b2575050825f602080949584010152601f8019910116010190565b602081830181015184830182015201613392565b9060048210156133d35752565b634e487b7160e01b5f52602160045260245ffd5b60209060206040818301928281528551809452019301915f5b82811061340e575050505090565b83516001600160a01b031685529381019392810192600101613400565b60208082019080835283518092528060408094019401925f905b83821061345457505050505090565b845180518752808401516001600160a01b0390811688860152818301511687830152606080820151908801526080808201519088015260a09081015115159087015260c09095019493820193600190910190613445565b8054821015611ad2575f52600660205f20910201905f90565b604090600319011261030b576004359060243590565b156134e157565b60405162461bcd60e51b815260206004820152600e60248201526d139bdd08185d5d1a1bdc9a5e995960921b6044820152606490fd5b9060ff801983541691151516179055565b5f1981146107c15760010190565b6001600160401b038111610d885760051b60200190565b8054600160401b811015610d885761356a916001820181556134ab565b611462578151815560208201516001820180546001600160a01b039283166001600160a01b0319918216179091556040840151600284018054919093169116179055606082015160038201556080820151600482015560a0909101516133269190151590600501613517565b5f546001600160a01b031633036135e957565b606460405162461bcd60e51b815260206004820152602060248201527f4f776e61626c653a2063616c6c6572206973206e6f7420746865206f776e65726044820152fdfe55f448fdea98c4d29eb340757ef0a66cd03dbb9538908a6a81d96026b71ec4758be0079c531659141344cd1fd0a4f28419497f9722a3daafe3b4186f6b6457e0ce6d7b5282bd9a3661ae061feed1dbda4e52ab073b1f9285be6e155d9c38d4eca164736f6c6343000818000a",
  "linkReferences": {},
  "deployedLinkReferences": {}
}