{
  "_format": "hh-sol-artifact-1",
  "contractName": "CryptoMartStorage",
  "sourceName": "contracts/CryptoMartStorage.sol",
  "abi": [
    {
      "inputs": [
        {
          "internalType": "uint256",
          "name": "_servicePct",
          "type": "uint256"
        }
      ],
      "stateMutability": "nonpayable",
      "type": "constructor"
    },
    {
      "anonymous": false,
      "inputs": [
        {
          "indexed": true,
          "internalType": "address",
          "name": "previousOwner",
          "type": "address"
        },
        {
          "indexed": true,
          "internalType": "address",
          "name": "newOwner",
          "type": "address"
        }
      ],
      "name": "OwnershipTransferred",
      "type": "event"
    },
    {
      "inputs": [
        {
          "internalType": "address",
          "name": "_contract",
          "type": "address"
        }
      ],
      "name": "addAuthorizedContract",
      "outputs": [],
      "stateMutability": "nonpayable",
      "type": "function"
    },
    {
      "inputs": [
        {
          "internalType": "address",
          "name": "buyer",
          "type": "address"
        },
        {
          "internalType": "address",
          "name": "seller",
          "type": "address"
        },
        {
          "components": [
            {
              "internalType": "uint256",
              "name": "productId",
              "type": "uint256"
            },
            {
              "internalType": "address",
              "name": "buyer",
              "type": "address"
            },
            {
              "internalType": "address",
              "name": "seller",
              "type": "address"
            },
            {
              "internalType": "uint256",
              "name": "totalAmount",
              "type": "uint256"
            },
            {
              "internalType": "uint256",
              "name": "timestamp",
              "type": "uint256"
            },
            {
              "internalType": "bool",
              "name": "isDelivered",
              "type": "bool"
            }
          ],
          "internalType": "struct CryptoMartStorage.PurchaseStruct",
          "name": "purchase",
          "type": "tuple"
        }
      ],
      "name": "addPurchaseHistory",
      "outputs": [],
      "stateMutability": "nonpayable",
      "type": "function"
    },
    {
      "inputs": [
        {
          "internalType": "uint256",
          "name": "productId",
          "type": "uint256"
        },
        {
          "components": [
            {
              "internalType": "uint256",
              "name": "reviewId",
              "type": "uint256"
            },
            {
              "internalType": "address",
              "name": "reviewer",
              "type": "address"
            },
            {
              "internalType": "uint256",
              "name": "rating",
              "type": "uint256"
            },
            {
              "internalType": "string",
              "name": "comment",
              "type": "string"
            },
            {
              "internalType": "bool",
              "name": "deleted",
              "type": "bool"
            },
            {
              "internalType": "uint256",
              "name": "timestamp",
              "type": "uint256"
            }
          ],
          "internalType": "struct CryptoMartStorage.ReviewStruct",
          "name": "review",
          "type": "tuple"
        }
      ],
      "name": "addReview",
      "outputs": [],
      "stateMutability": "nonpayable",
      "type": "function"
    },
    {
      "inputs": [
        {
          "internalType": "address",
          "name": "seller",
          "type": "address"
        },
        {
          "internalType": "uint256",
          "name": "productId",
          "type": "uint256"
        }
      ],
      "name": "addSellerProduct",
      "outputs": [],
      "stateMutability": "nonpayable",
      "type": "function"
    },
    {
      "inputs": [
        {
          "internalType": "address",
          "name": "",
          "type": "address"
        }
      ],
      "name": "authorizedContracts",
      "outputs": [
        {
          "internalType": "bool",
          "name": "",
          "type": "bool"
        }
      ],
      "stateMutability": "view",
      "type": "function"
    },
    {
      "inputs": [
        {
          "internalType": "address",
          "name": "",
          "type": "address"
        },
        {
          "internalType": "uint256",
          "name": "",
          "type": "uint256"
        }
      ],
      "name": "buyerPurchaseHistory",
      "outputs": [
        {
          "internalType": "uint256",
          "name": "productId",
          "type": "uint256"
        },
        {
          "internalType": "address",
          "name": "buyer",
          "type": "address"
        },
        {
          "internalType": "address",
          "name": "seller",
          "type": "address"
        },
        {
          "internalType": "uint256",
          "name": "totalAmount",
          "type": "uint256"
        },
        {
          "internalType": "uint256",
          "name": "timestamp",
          "type": "uint256"
        },
        {
          "internalType": "bool",
          "name": "isDelivered",
          "type": "bool"
        }
      ],
      "stateMutability": "view",
      "type": "function"
    },
    {
      "inputs": [
        {
          "internalType": "uint256",
          "name": "",
          "type": "uint256"
        }
      ],
      "name": "categories",
      "outputs": [
        {
          "internalType": "uint256",
          "name": "id",
          "type": "uint256"
        },
        {
          "internalType": "string",
          "name": "name",
          "type": "string"
        },
        {
          "internalType": "bool",
          "name": "isActive",
          "type": "bool"
        }
      ],
      "stateMutability": "view",
      "type": "function"
    },
    {
      "inputs": [],
      "name": "categoryCounter",
      "outputs": [
        {
          "internalType": "uint256",
          "name": "",
          "type": "uint256"
        }
      ],
      "stateMutability": "view",
      "type": "function"
    },
    {
      "inputs": [
        {
          "internalType": "address",
          "name": "seller",
          "type": "address"
        },
        {
          "internalType": "uint256",
          "name": "amount",
          "type": "uint256"
        }
      ],
      "name": "deductSellerBalance",
      "outputs": [],
      "stateMutability": "nonpayable",
      "type": "function"
    },
    {
      "inputs": [],
      "name": "getAllRegisteredSellers",
      "outputs": [
        {
          "internalType": "address[]",
          "name": "",
          "type": "address[]"
        }
      ],
      "stateMutability": "view",
      "type": "function"
    },
    {
      "inputs": [
        {
          "internalType": "address",
          "name": "buyer",
          "type": "address"
        }
      ],
      "name": "getBuyerPurchases",
      "outputs": [
        {
          "components": [
            {
              "internalType": "uint256",
              "name": "productId",
              "type": "uint256"
            },
            {
              "internalType": "address",
              "name": "buyer",
              "type": "address"
            },
            {
              "internalType": "address",
              "name": "seller",
              "type": "address"
            },
            {
              "internalType": "uint256",
              "name": "totalAmount",
              "type": "uint256"
            },
            {
              "internalType": "uint256",
              "name": "timestamp",
              "type": "uint256"
            },
            {
              "internalType": "bool",
              "name": "isDelivered",
              "type": "bool"
            }
          ],
          "internalType": "struct CryptoMartStorage.PurchaseStruct[]",
          "name": "",
          "type": "tuple[]"
        }
      ],
      "stateMutability": "view",
      "type": "function"
    },
    {
      "inputs": [
        {
          "internalType": "uint256",
          "name": "id",
          "type": "uint256"
        }
      ],
      "name": "getCategory",
      "outputs": [
        {
          "components": [
            {
              "internalType": "uint256",
              "name": "id",
              "type": "uint256"
            },
            {
              "internalType": "string",
              "name": "name",
              "type": "string"
            },
            {
              "internalType": "bool",
              "name": "isActive",
              "type": "bool"
            }
          ],
          "internalType": "struct CryptoMartStorage.CategoryStruct",
          "name": "",
          "type": "tuple"
        }
      ],
      "stateMutability": "view",
      "type": "function"
    },
    {
      "inputs": [],
      "name": "getPendingVerificationUsers",
      "outputs": [
        {
          "internalType": "address[]",
          "name": "",
          "type": "address[]"
        }
      ],
      "stateMutability": "view",
      "type": "function"
    },
    {
      "inputs": [
        {
          "internalType": "uint256",
          "name": "id",
          "type": "uint256"
        }
      ],
      "name": "getProduct",
      "outputs": [
        {
          "components": [
            {
              "internalType": "uint256",
              "name": "id",
              "type": "uint256"
            },
            {
              "internalType": "address",
              "name": "seller",
              "type": "address"
            },
            {
              "internalType": "string",
              "name": "name",
              "type": "string"
            },
            {
              "internalType": "string",
              "name": "description",
              "type": "string"
            },
            {
              "internalType": "string",
              "name": "image",
              "type": "string"
            },
            {
              "internalType": "uint256",
              "name": "categoryId",
              "type": "uint256"
            },
            {
              "internalType": "uint256",
              "name": "cost",
              "type": "uint256"
            },
            {
              "internalType": "uint256",
              "name": "stock",
              "type": "uint256"
            },
            {
              "internalType": "uint256",
              "name": "timestamp",
              "type": "uint256"
            },
            {
              "internalType": "bool",
              "name": "deleted",
              "type": "bool"
            }
          ],
          "internalType": "struct CryptoMartStorage.ProductStruct",
          "name": "",
          "type": "tuple"
        }
      ],
      "stateMutability": "view",
      "type": "function"
    },
    {
      "inputs": [
        {
          "internalType": "uint256",
          "name": "productId",
          "type": "uint256"
        }
      ],
      "name": "getProductReviews",
      "outputs": [
        {
          "components": [
            {
              "internalType": "uint256",
              "name": "reviewId",
              "type": "uint256"
            },
            {
              "internalType": "address",
              "name": "reviewer",
              "type": "address"
            },
            {
              "internalType": "uint256",
              "name": "rating",
              "type": "uint256"
            },
            {
              "internalType": "string",
              "name": "comment",
              "type": "string"
            },
            {
              "internalType": "bool",
              "name": "deleted",
              "type": "bool"
            },
            {
              "internalType": "uint256",
              "name": "timestamp",
              "type": "uint256"
            }
          ],
          "internalType": "struct CryptoMartStorage.ReviewStruct[]",
          "name": "",
          "type": "tuple[]"
        }
      ],
      "stateMutability": "view",
      "type": "function"
    },
    {
      "inputs": [
        {
          "internalType": "address",
          "name": "seller",
          "type": "address"
        }
      ],
      "name": "getSeller",
      "outputs": [
        {
          "components": [
            {
              "internalType": "string",
              "name": "businessName",
              "type": "string"
            },
            {
              "internalType": "string",
              "name": "description",
              "type": "string"
            },
            {
              "internalType": "string",
              "name": "email",
              "type": "string"
            },
            {
              "internalType": "string",
              "name": "phone",
              "type": "string"
            },
            {
              "internalType": "string",
              "name": "logo",
              "type": "string"
            },
            {
              "internalType": "bool",
              "name": "isRegistered",
              "type": "bool"
            },
            {
              "internalType": "uint256",
              "name": "registeredAt",
              "type": "uint256"
            }
          ],
          "internalType": "struct CryptoMartStorage.SellerProfile",
          "name": "",
          "type": "tuple"
        },
        {
          "internalType": "enum CryptoMartStorage.SellerStatus",
          "name": "",
          "type": "uint8"
        }
      ],
      "stateMutability": "view",
      "type": "function"
    },
    {
      "inputs": [
        {
          "internalType": "address",
          "name": "seller",
          "type": "address"
        }
      ],
      "name": "getSellerProducts",
      "outputs": [
        {
          "internalType": "uint256[]",
          "name": "",
          "type": "uint256[]"
        }
      ],
      "stateMutability": "view",
      "type": "function"
    },
    {
      "inputs": [
        {
          "internalType": "address",
          "name": "seller",
          "type": "address"
        }
      ],
      "name": "getSellerPurchases",
      "outputs": [
        {
          "components": [
            {
              "internalType": "uint256",
              "name": "productId",
              "type": "uint256"
            },
            {
              "internalType": "address",
              "name": "buyer",
              "type": "address"
            },
            {
              "internalType": "address",
              "name": "seller",
              "type": "address"
            },
            {
              "internalType": "uint256",
              "name": "totalAmount",
              "type": "uint256"
            },
            {
              "internalType": "uint256",
              "name": "timestamp",
              "type": "uint256"
            },
            {
              "internalType": "bool",
              "name": "isDelivered",
              "type": "bool"
            }
          ],
          "internalType": "struct CryptoMartStorage.PurchaseStruct[]",
          "name": "",
          "type": "tuple[]"
        }
      ],
      "stateMutability": "view",
      "type": "function"
    },
    {
      "inputs": [
        {
          "internalType": "address",
          "name": "user",
          "type": "address"
        }
      ],
      "name": "getUser",
      "outputs": [
        {
          "components": [
            {
              "internalType": "string",
              "name": "name",
              "type": "string"
            },
            {
              "internalType": "string",
              "name": "email",
              "type": "string"
            },
            {
              "internalType": "string",
              "name": "avatar",
              "type": "string"
            },
            {
              "internalType": "bool",
              "name": "isRegistered",
              "type": "bool"
            }
          ],
          "internalType": "struct CryptoMartStorage.UserProfile",
          "name": "",
          "type": "tuple"
        }
      ],
      "stateMutability": "view",
      "type": "function"
    },
    {
      "inputs": [],
      "name": "incrementCategories",
      "outputs": [
        {
          "internalType": "uint256",
          "name": "",
          "type": "uint256"
        }
      ],
      "stateMutability": "nonpayable",
      "type": "function"
    },
    {
      "inputs": [],
      "name": "incrementProducts",
      "outputs": [
        {
          "internalType": "uint256",
          "name": "",
          "type": "uint256"
        }
      ],
      "stateMutability": "nonpayable",
      "type": "function"
    },
    {
      "inputs": [],
      "name": "incrementReviews",
      "outputs": [
        {
          "internalType": "uint256",
          "name": "",
          "type": "uint256"
        }
      ],
      "stateMutability": "nonpayable",
      "type": "function"
    },
    {
      "inputs": [],
      "name": "incrementSales",
      "outputs": [
        {
          "internalType": "uint256",
          "name": "",
          "type": "uint256"
        }
      ],
      "stateMutability": "nonpayable",
      "type": "function"
    },
    {
      "inputs": [],
      "name": "owner",
      "outputs": [
        {
          "internalType": "address",
          "name": "",
          "type": "address"
        }
      ],
      "stateMutability": "view",
      "type": "function"
    },
    {
      "inputs": [
        {
          "internalType": "uint256",
          "name": "",
          "type": "uint256"
        }
      ],
      "name": "pendingVerificationUsers",
      "outputs": [
        {
          "internalType": "address",
          "name": "",
          "type": "address"
        }
      ],
      "stateMutability": "view",
      "type": "function"
    },
    {
      "inputs": [
        {
          "internalType": "uint256",
          "name": "",
          "type": "uint256"
        }
      ],
      "name": "productCategories",
      "outputs": [
        {
          "internalType": "uint256",
          "name": "",
          "type": "uint256"
        }
      ],
      "stateMutability": "view",
      "type": "function"
    },
    {
      "inputs": [
        {
          "internalType": "uint256",
          "name": "",
          "type": "uint256"
        }
      ],
      "name": "productExists",
      "outputs": [
        {
          "internalType": "bool",
          "name": "",
          "type": "bool"
        }
      ],
      "stateMutability": "view",
      "type": "function"
    },
    {
      "inputs": [
        {
          "internalType": "uint256",
          "name": "",
          "type": "uint256"
        },
        {
          "internalType": "uint256",
          "name": "",
          "type": "uint256"
        }
      ],
      "name": "productReviews",
      "outputs": [
        {
          "internalType": "uint256",
          "name": "reviewId",
          "type": "uint256"
        },
        {
          "internalType": "address",
          "name": "reviewer",
          "type": "address"
        },
        {
          "internalType": "uint256",
          "name": "rating",
          "type": "uint256"
        },
        {
          "internalType": "string",
          "name": "comment",
          "type": "string"
        },
        {
          "internalType": "bool",
          "name": "deleted",
          "type": "bool"
        },
        {
          "internalType": "uint256",
          "name": "timestamp",
          "type": "uint256"
        }
      ],
      "stateMutability": "view",
      "type": "function"
    },
    {
      "inputs": [
        {
          "internalType": "uint256",
          "name": "",
          "type": "uint256"
        }
      ],
      "name": "products",
      "outputs": [
        {
          "internalType": "uint256",
          "name": "id",
          "type": "uint256"
        },
        {
          "internalType": "address",
          "name": "seller",
          "type": "address"
        },
        {
          "internalType": "string",
          "name": "name",
          "type": "string"
        },
        {
          "internalType": "string",
          "name": "description",
          "type": "string"
        },
        {
          "internalType": "string",
          "name": "image",
          "type": "string"
        },
        {
          "internalType": "uint256",
          "name": "categoryId",
          "type": "uint256"
        },
        {
          "internalType": "uint256",
          "name": "cost",
          "type": "uint256"
        },
        {
          "internalType": "uint256",
          "name": "stock",
          "type": "uint256"
        },
        {
          "internalType": "uint256",
          "name": "timestamp",
          "type": "uint256"
        },
        {
          "internalType": "bool",
          "name": "deleted",
          "type": "bool"
        }
      ],
      "stateMutability": "view",
      "type": "function"
    },
    {
      "inputs": [
        {
          "internalType": "address",
          "name": "",
          "type": "address"
        }
      ],
      "name": "registeredSellers",
      "outputs": [
        {
          "internalType": "bool",
          "name": "",
          "type": "bool"
        }
      ],
      "stateMutability": "view",
      "type": "function"
    },
    {
      "inputs": [
        {
          "internalType": "uint256",
          "name": "",
          "type": "uint256"
        }
      ],
      "name": "registeredSellersList",
      "outputs": [
        {
          "internalType": "address",
          "name": "",
          "type": "address"
        }
      ],
      "stateMutability": "view",
      "type": "function"
    },
    {
      "inputs": [
        {
          "internalType": "address",
          "name": "",
          "type": "address"
        }
      ],
      "name": "registeredUsers",
      "outputs": [
        {
          "internalType": "bool",
          "name": "",
          "type": "bool"
        }
      ],
      "stateMutability": "view",
      "type": "function"
    },
    {
      "inputs": [
        {
          "internalType": "address",
          "name": "_contract",
          "type": "address"
        }
      ],
      "name": "removeAuthorizedContract",
      "outputs": [],
      "stateMutability": "nonpayable",
      "type": "function"
    },
    {
      "inputs": [],
      "name": "renounceOwnership",
      "outputs": [],
      "stateMutability": "nonpayable",
      "type": "function"
    },
    {
      "inputs": [
        {
          "internalType": "address",
          "name": "",
          "type": "address"
        }
      ],
      "name": "sellerBalances",
      "outputs": [
        {
          "internalType": "uint256",
          "name": "",
          "type": "uint256"
        }
      ],
      "stateMutability": "view",
      "type": "function"
    },
    {
      "inputs": [
        {
          "internalType": "address",
          "name": "",
          "type": "address"
        },
        {
          "internalType": "uint256",
          "name": "",
          "type": "uint256"
        }
      ],
      "name": "sellerProducts",
      "outputs": [
        {
          "internalType": "uint256",
          "name": "",
          "type": "uint256"
        }
      ],
      "stateMutability": "view",
      "type": "function"
    },
    {
      "inputs": [
        {
          "internalType": "address",
          "name": "",
          "type": "address"
        }
      ],
      "name": "sellerProfiles",
      "outputs": [
        {
          "internalType": "string",
          "name": "businessName",
          "type": "string"
        },
        {
          "internalType": "string",
          "name": "description",
          "type": "string"
        },
        {
          "internalType": "string",
          "name": "email",
          "type": "string"
        },
        {
          "internalType": "string",
          "name": "phone",
          "type": "string"
        },
        {
          "internalType": "string",
          "name": "logo",
          "type": "string"
        },
        {
          "internalType": "bool",
          "name": "isRegistered",
          "type": "bool"
        },
        {
          "internalType": "uint256",
          "name": "registeredAt",
          "type": "uint256"
        }
      ],
      "stateMutability": "view",
      "type": "function"
    },
    {
      "inputs": [
        {
          "internalType": "address",
          "name": "",
          "type": "address"
        },
        {
          "internalType": "uint256",
          "name": "",
          "type": "uint256"
        }
      ],
      "name": "sellerPurchaseHistory",
      "outputs": [
        {
          "internalType": "uint256",
          "name": "productId",
          "type": "uint256"
        },
        {
          "internalType": "address",
          "name": "buyer",
          "type": "address"
        },
        {
          "internalType": "address",
          "name": "seller",
          "type": "address"
        },
        {
          "internalType": "uint256",
          "name": "totalAmount",
          "type": "uint256"
        },
        {
          "internalType": "uint256",
          "name": "timestamp",
          "type": "uint256"
        },
        {
          "internalType": "bool",
          "name": "isDelivered",
          "type": "bool"
        }
      ],
      "stateMutability": "view",
      "type": "function"
    },
    {
      "inputs": [
        {
          "internalType": "address",
          "name": "",
          "type": "address"
        }
      ],
      "name": "sellerStatus",
      "outputs": [
        {
          "internalType": "enum CryptoMartStorage.SellerStatus",
          "name": "",
          "type": "uint8"
        }
      ],
      "stateMutability": "view",
      "type": "function"
    },
    {
      "inputs": [],
      "name": "servicePct",
      "outputs": [
        {
          "internalType": "uint256",
          "name": "",
          "type": "uint256"
        }
      ],
      "stateMutability": "view",
      "type": "function"
    },
    {
      "inputs": [
        {
          "internalType": "uint256",
          "name": "id",
          "type": "uint256"
        },
        {
          "components": [
            {
              "internalType": "uint256",
              "name": "id",
              "type": "uint256"
            },
            {
              "internalType": "string",
              "name": "name",
              "type": "string"
            },
            {
              "internalType": "bool",
              "name": "isActive",
              "type": "bool"
            }
          ],
          "internalType": "struct CryptoMartStorage.CategoryStruct",
          "name": "category",
          "type": "tuple"
        }
      ],
      "name": "setCategory",
      "outputs": [],
      "stateMutability": "nonpayable",
      "type": "function"
    },
    {
      "inputs": [
        {
          "internalType": "uint256",
          "name": "id",
          "type": "uint256"
        },
        {
          "components": [
            {
              "internalType": "uint256",
              "name": "id",
              "type": "uint256"
            },
            {
              "internalType": "address",
              "name": "seller",
              "type": "address"
            },
            {
              "internalType": "string",
              "name": "name",
              "type": "string"
            },
            {
              "internalType": "string",
              "name": "description",
              "type": "string"
            },
            {
              "internalType": "string",
              "name": "image",
              "type": "string"
            },
            {
              "internalType": "uint256",
              "name": "categoryId",
              "type": "uint256"
            },
            {
              "internalType": "uint256",
              "name": "cost",
              "type": "uint256"
            },
            {
              "internalType": "uint256",
              "name": "stock",
              "type": "uint256"
            },
            {
              "internalType": "uint256",
              "name": "timestamp",
              "type": "uint256"
            },
            {
              "internalType": "bool",
              "name": "deleted",
              "type": "bool"
            }
          ],
          "internalType": "struct CryptoMartStorage.ProductStruct",
          "name": "product",
          "type": "tuple"
        }
      ],
      "name": "setProduct",
      "outputs": [],
      "stateMutability": "nonpayable",
      "type": "function"
    },
    {
      "inputs": [
        {
          "internalType": "uint256",
          "name": "productId",
          "type": "uint256"
        },
        {
          "internalType": "uint256",
          "name": "categoryId",
          "type": "uint256"
        }
      ],
      "name": "setProductCategory",
      "outputs": [],
      "stateMutability": "nonpayable",
      "type": "function"
    },
    {
      "inputs": [
        {
          "internalType": "address",
          "name": "seller",
          "type": "address"
        },
        {
          "components": [
            {
              "internalType": "string",
              "name": "businessName",
              "type": "string"
            },
            {
              "internalType": "string",
              "name": "description",
              "type": "string"
            },
            {
              "internalType": "string",
              "name": "email",
              "type": "string"
            },
            {
              "internalType": "string",
              "name": "phone",
              "type": "string"
            },
            {
              "internalType": "string",
              "name": "logo",
              "type": "string"
            },
            {
              "internalType": "bool",
              "name": "isRegistered",
              "type": "bool"
            },
            {
              "internalType": "uint256",
              "name": "registeredAt",
              "type": "uint256"
            }
          ],
          "internalType": "struct CryptoMartStorage.SellerProfile",
          "name": "profile",
          "type": "tuple"
        }
      ],
      "name": "setSeller",
      "outputs": [],
      "stateMutability": "nonpayable",
      "type": "function"
    },
    {
      "inputs": [
        {
          "internalType": "address",
          "name": "seller",
          "type": "address"
        },
        {
          "internalType": "enum CryptoMartStorage.SellerStatus",
          "name": "status",
          "type": "uint8"
        }
      ],
      "name": "setSellerStatus",
      "outputs": [],
      "stateMutability": "nonpayable",
      "type": "function"
    },
    {
      "inputs": [
        {
          "internalType": "uint256",
          "name": "_servicePct",
          "type": "uint256"
        }
      ],
      "name": "setServicePct",
      "outputs": [],
      "stateMutability": "nonpayable",
      "type": "function"
    },
    {
      "inputs": [
        {
          "internalType": "address",
          "name": "user",
          "type": "address"
        },
        {
          "components": [
            {
              "internalType": "string",
              "name": "name",
              "type": "string"
            },
            {
              "internalType": "string",
              "name": "email",
              "type": "string"
            },
            {
              "internalType": "string",
              "name": "avatar",
              "type": "string"
            },
            {
              "internalType": "bool",
              "name": "isRegistered",
              "type": "bool"
            }
          ],
          "internalType": "struct CryptoMartStorage.UserProfile",
          "name": "profile",
          "type": "tuple"
        }
      ],
      "name": "setUser",
      "outputs": [],
      "stateMutability": "nonpayable",
      "type": "function"
    },
    {
      "inputs": [],
      "name": "totalProducts",
      "outputs": [
        {
          "internalType": "uint256",
          "name": "",
          "type": "uint256"
        }
      ],
      "stateMutability": "view",
      "type": "function"
    },
    {
      "inputs": [],
      "name": "totalReviews",
      "outputs": [
        {
          "internalType": "uint256",
          "name": "",
          "type": "uint256"
        }
      ],
      "stateMutability": "view",
      "type": "function"
    },
    {
      "inputs": [],
      "name": "totalSales",
      "outputs": [
        {
          "internalType": "uint256",
          "name": "",
          "type": "uint256"
        }
      ],
      "stateMutability": "view",
      "type": "function"
    },
    {
      "inputs": [
        {
          "internalType": "address",
          "name": "newOwner",
          "type": "address"
        }
      ],
      "name": "transferOwnership",
      "outputs": [],
      "stateMutability": "nonpayable",
      "type": "function"
    },
    {
      "inputs": [
        {
          "internalType": "address",
          "name": "seller",
          "type": "address"
        },
        {
          "internalType": "uint256",
          "name": "amount",
          "type": "uint256"
        }
      ],
      "name": "updateSellerBalance",
      "outputs": [],
      "stateMutability": "nonpayable",
      "type": "function"
    },
    {
      "inputs": [
        {
          "internalType": "address",
          "name": "",
          "type": "address"
        }
      ],
      "name": "userProfiles",
      "outputs": [
        {
          "internalType": "string",
          "name": "name",
          "type": "string"
        },
        {
          "internalType": "string",
          "name": "email",
          "type": "string"
        },
        {
          "internalType": "string",
          "name": "avatar",
          "type": "string"
        },
        {
          "internalType": "bool",
          "name": "isRegistered",
          "type": "bool"
        }
      ],
      "stateMutability": "view",
      "type": "function"
    },
    {
      "inputs": [
        {
          "internalType": "uint256",
          "name": "",
          "type": "uint256"
        }
      ],
      "name": "usersList",
      "outputs": [
        {
          "internalType": "address",
          "name": "",
          "type": "address"
        }
      ],
      "stateMutability": "view",
      "type": "function"
    },
    {
      "inputs": [],
      "name": "withdrawServiceFees",
      "outputs": [],
      "stateMutability": "nonpayable",
      "type": "function"
    },
    {
      "stateMutability": "payable",
      "type": "receive"
    }
  ],
  "bytecode": "0x6080346100af57601f6200385f38819003918201601f19168301916001600160401b038311848410176100b3578084926020946040528339810103126100af57515f8054336001600160a01b0319821681178355604051939290916001600160a01b0316907f8be0079c531659141344cd1fd0a4f28419497f9722a3daafe3b4186f6b6457e09080a3600555335f52601760205260405f20600160ff198254161790556137979081620000c88239f35b5f80fd5b634e487b7160e01b5f52604160045260245ffdfe608080604052600436101561001c575b50361561001a575f80fd5b005b5f3560e01c90816303624fc0146132215750806305a2c9cf146131df57806306ad0cb914612cba57806307c115ed14612c465780630c04acc614612bea5780630e50cee514612bad5780631294b01d14612b1457806326d36bbc14612ab857806328a22b87146128db5780632aafa8071461288f578063332d56d7146127f157806345de84db146127af57806346a4237b1461264d5780634f1c441e14612606578063502aa3b5146125bf5780635074a29e14611e4e578063540f1c3c14611e2457806359dd665f146119385780635ad6a580146118cb5780635f638d621461186f578063607eb4e4146118375780636605ff661461181a5780636f68ef3a1461178e5780636f77926b14611699578063715018a6146116555780637acc0b20146115795780638061bc931461130057806385a3439314611237578063865d2197146111db5780638da5cb5b146111b45780639196dfcb146110d257806398eaa4a71461108e5780639b9d326d146110715780639fa44dbf1461102a578063a323d29e14610ea0578063aa27905914610cf2578063af55ed6414610cc3578063b9db15b414610b21578063c1302b3414610aca578063c258f53114610a01578063c262f298146109af578063c64b8a8f14610972578063c6cdbe5e14610915578063c80bba8a1461083e578063d5b9221b14610801578063d72e481d14610725578063e01ef6e614610708578063e2367890146106eb578063e585cb2c1461063b578063e6a93e161461058d578063e6b165ed1461054c578063eaae756214610465578063f2943dce146103d1578063f2fde38b146103265763f3052d2614610285575f61000f565b3461032257602080600319360112610322575f604080516102a581613284565b82815260608482015201526004355f52600f815260405f20604051906102ca82613284565b8054825261031560ff60026102e1600185016133e3565b9386860194855201541691604084019215158352604051948594818652519085015251606060408501526080840190613485565b9051151560608301520390f35b5f80fd5b346103225760203660031901126103225761033f613313565b6103476136d3565b6001600160a01b0390811690811561037d575f548260018060a01b03198216175f55165f8051602061374b8339815191525f80a3005b60405162461bcd60e51b815260206004820152602660248201527f4f776e61626c653a206e6577206f776e657220697320746865207a65726f206160448201526564647265737360d01b6064820152608490fd5b34610322576103df366135c1565b905f52601260205260405f20908154811015610322576103fe916135a8565b50805460018060a01b03600183015416916002810154610454610423600384016133e3565b600560ff6004860154169401549260405196879687526020870152604086015260c0606086015260c0850190613485565b911515608084015260a08301520390f35b34610322576101003660031901126103225761047f613313565b6001600160a01b03602435818116908190036103225760c036604319011261032257604051916104ae8361329f565b60443583526064358181168103610322576020840152608435818116810361032257604084015260a435606084015260c435608084015260e4359384151585036103225761001a9460a0850152335f52601760205260ff60405f2054168015610540575b61051b906135d7565b165f5260106020526105308260405f2061364a565b5f52601160205260405f2061364a565b505f5482163314610512565b3461032257602036600319011261032257610565613313565b61056d6136d3565b6001600160a01b03165f908152601760205260409020805460ff19169055005b3461032257602080600319360112610322576001600160a01b036105af613313565b165f526007815260405f20604051908183825491828152019081925f52845f20905f5b868282106106275786866105e8828803836132f0565b60405192839281840190828552518091526040840192915f5b82811061061057505050500390f35b835185528695509381019392810192600101610601565b8354855290930192600192830192016105d2565b3461032257604036600319011261032257610654613313565b6001600160a01b039081165f90815260116020526040902080546024359081101561032257610682916135a8565b5080546001820154600283015460038401546004850154600590950154604080519586526001600160a01b03948816851660208701529290961692909216908301526060820152608081019190915260ff91909116151560a08201528060c081010390f35b0390f35b34610322575f366003190112610322576020600354604051908152f35b34610322575f366003190112610322576020600554604051908152f35b34610322575f3660031901126103225761073d6136d3565b4780156107c6575f8080809360018060a01b038254165af13d156107c1573d6107658161333d565b9061077360405192836132f0565b81525f60203d92013e5b1561078457005b60405162461bcd60e51b8152602060048201526015602482015274119959481dda5d1a191c985dd85b0819985a5b1959605a1b6044820152606490fd5b61077d565b60405162461bcd60e51b81526020600482015260136024820152724e6f206665657320746f20776974686472617760681b6044820152606490fd5b34610322576020366003190112610322576001600160a01b03610822613313565b165f526017602052602060ff60405f2054166040519015158152f35b3461032257604036600319011261032257610857613313565b60243590335f52601760205260ff60405f2054168015610902575b61087b906135d7565b6001600160a01b03165f818152600e602052604090205482116108c6575f52600e60205260405f2080549182039182116108b25755005b634e487b7160e01b5f52601160045260245ffd5b60405162461bcd60e51b8152602060048201526014602482015273496e73756666696369656e742062616c616e636560601b6044820152606490fd5b505f546001600160a01b03163314610872565b34610322576020366003190112610322576004355f52600f60205260405f20805460ff6002610946600185016133e3565b930154166109666040519384938452606060208501526060840190613485565b90151560408301520390f35b34610322576020366003190112610322576001600160a01b03610993613313565b165f52600c602052602060ff60405f2054166040519015158152f35b34610322576109bd366135c1565b90335f52601760205260ff60405f20541680156109ee575b6109de906135d7565b5f52601360205260405f20555f80f35b505f546001600160a01b031633146109d5565b3461032257602080600319360112610322576001600160a01b039081610a25613313565b165f526011815260405f20805490610a3c82613633565b92610a4a60405194856132f0565b8284525f9182528082208185015b848410610a6d57604051806106e78882613528565b600683600192604051610a7f8161329f565b855481528a8587015416838201528a6002870154166040820152600386015460608201526004860154608082015260ff600587015416151560a0820152815201920193019290610a58565b3461032257604036600319011261032257610ae3613313565b6001600160a01b03165f9081526007602052604090208054602435919082101561032257602091610b1391613253565b90546040519160031b1c8152f35b34610322576020366003190112610322575f610120604051610b4281613268565b82815282602082015260606040820152606080820152606060808201528260a08201528260c08201528260e08201528261010082015201526004355f52600660205260405f2060ff600960405192610b9984613268565b8054845260018101546001600160a01b03166020850152610bbc600282016133e3565b6040850152610bcd600382016133e3565b6060850152610bde600482016133e3565b6080850152600581015460a0850152600681015460c0850152600781015460e0850152600881015461010085015201541615156101208201526040518091602082528051602083015260018060a01b0360208201511660408301526040810151610120610c8d610c5c61014093846060880152610160870190613485565b610c78606086015191601f1992838983030160808a0152613485565b906080860151908783030160a0880152613485565b9260a081015160c086015260c081015160e086015260e08101516101008601526101008101518286015201511515908301520390f35b34610322576020366003190112610322576004355f526008602052602060ff60405f2054166040519015158152f35b3461032257604036600319011261032257610d0b613313565b60249060243591600483101561032257335f52601760205260ff60405f2054168015610e8d575b610d3b906135d7565b60018060a01b039081831692835f52600d60205260405f2060ff1981541660ff871617905560019460018114610e4f575b6002915014610d7757005b83925f945b610d8257005b60168054908187101561001a57849183610d9b8961323b565b949054600395861b1c1614610db7575050508380950194610d7c565b9392509450945f1992838101908111610e3c5790610de885610ddb610e069461323b565b9054908a1b1c169161323b565b90919060018060a01b038084549260031b9316831b921b1916179055565b8354908115610e2957500192610e1b8461323b565b81939154921b1b1916905555005b634e487b7160e01b5f9081526031600452fd5b82634e487b7160e01b5f5260116004525ffd5b601654600160401b811015610e7957600292610de8826001610e74940160165561323b565b610d6c565b634e487b7160e01b5f52604160045260245ffd5b505f546001600160a01b03163314610d32565b346103225760208060031936011261032257610eba613313565b9060405191610ec8836132ba565b6060928381528383820152836040820152838082015283608082015260a081015f905260c0015f9052600160a01b60019003165f52600b815260405f20600d825260405f205460ff1660405192610f1e846132ba565b610f27836133e3565b8452610f35600184016133e3565b84820190815294610f48600285016133e3565b6040860190815290610f5c600386016133e3565b868201908152610f6e600487016133e3565b9060808801918252600587015460ff169660a089019715158852600601549360c08901948552604051998a9960408b525160408b0160e090526101208b01610fb591613485565b905190603f1995868c830301908c0152610fce91613485565b905190848a82030160808b0152610fe491613485565b905190838982030160a08a0152610ffa91613485565b9051918782030160c088015261100f91613485565b9351151560e08601525161010085015283016106e7916134c3565b3461032257604036600319011261032257611043613313565b6001600160a01b039081165f90815260106020526040902080546024359081101561032257610682916135a8565b34610322575f366003190112610322576020600154604051908152f35b34610322576020366003190112610322576110a7613313565b6110af6136d3565b6001600160a01b03165f908152601760205260409020805460ff19166001179055005b34610322576020366003190112610322576001600160a01b036110f3613313565b165f52600b60205261116b60405f2061110b816133e3565b90611118600182016133e3565b6111a3611127600284016133e3565b611195611136600386016133e3565b611187611145600488016133e3565b93611179600660ff60058b015416990154976040519b8c9b60e08d5260e08d0190613485565b908b820360208d0152613485565b9089820360408b0152613485565b908782036060890152613485565b908582036080870152613485565b91151560a084015260c08301520390f35b34610322575f366003190112610322575f546040516001600160a01b039091168152602090f35b34610322575f36600319011261032257335f52601760205260ff60405f2054168015611224575b61120b906135d7565b6020611218600254613625565b80600255604051908152f35b505f546001600160a01b03163314611202565b3461032257602080600319360112610322576001600160a01b03908161125b613313565b165f526010815260405f2080549061127282613633565b9261128060405194856132f0565b8284525f9182528082208185015b8484106112a357604051806106e78882613528565b6006836001926040516112b58161329f565b855481528a8587015416838201528a6002870154166040820152600386015460608201526004860154608082015260ff600587015416151560a082015281520192019301929061128e565b346103225760031960403682011261032257602435906001600160401b03908183116103225760c0908336030112610322576040519161133f8361329f565b8060040135835261135260248201613329565b916020928385019081526040850191604484013583526064840135818111610322576113849060043691870101613358565b91606087019283526113986084860161339e565b936080880194855260a460a089019601358652335f526017875260ff60405f2054168015611566575b6113ca906135d7565b6004355f526012875260405f20918254600160401b811015610e79576113f79060019485820181556135a8565b999099611553575189555182890180546001600160a01b0319166001600160a01b0392909216919091179055516002880155915180519095600388019391928311610e795761144684546133ab565b601f811161150d575b5080601f841160011461149f57509180809261148e9695946005995f94611494575b50501b915f199060031b1c19161790555b51151560048501613614565b51910155005b015192508a80611471565b9193949596601f198416865f52835f20935f905b8282106114f657505091600598979593918561148e989694106114de575b505050811b019055611482565b01515f1960f88460031b161c191690558880806114d1565b8088869782949787015181550196019401906114b3565b845f52815f20601f850160051c810191838610611549575b601f0160051c019083905b82811061153e57505061144f565b5f8155018390611530565b9091508190611525565b634e487b7160e01b5f525f60045260245ffd5b505f546001600160a01b031633146113c1565b34610322576020366003190112610322576004355f52600660205260405f20604081549160018060a01b036001820154166115b6600283016133e3565b916115c3600382016133e3565b926115d0600483016133e3565b9361163360058401549561162560068601549361161760078801549660ff600960088b01549a015416998c519d8e9d8e6101409384938252602082015201528c0190613485565b908a820360608c0152613485565b9088820360808a0152613485565b9460a087015260c086015260e085015261010084015215156101208301520390f35b34610322575f3660031901126103225761166d6136d3565b5f80546001600160a01b0319811682556001600160a01b03165f8051602061374b8339815191528280a3005b3461032257602080600319360112610322576080906116b6613313565b90604051916116c4836132d5565b5f606084818096528185820152816040820152015260018060a01b03165f526009815261178160405f20604051936116fb856132d5565b611704826133e3565b8552611712600183016133e3565b9084860191825261177161175b60ff600361172f600288016133e3565b9660408b01978852015416968389019715158852604051998a99828b5251918a015260a0890190613485565b925192601f1993848983030160408a0152613485565b9251918684030190860152613485565b9051151560808301520390f35b34610322575f36600319011261032257604051601680548083525f918252602080840193927fd833147d7dc355ba459fc788f669e58cfaf9dc25ddcd0702e87d69c7b512428992915b8282106117fa576106e7856117ee818903826132f0565b604051918291826134e4565b83546001600160a01b0316865294850194600193840193909101906117d7565b34610322575f366003190112610322576020600254604051908152f35b34610322576020366003190112610322576001600160a01b03611858613313565b165f52600e602052602060405f2054604051908152f35b34610322575f36600319011261032257335f52601760205260ff60405f20541680156118b8575b61189f906135d7565b60206118ac600354613625565b80600355604051908152f35b505f546001600160a01b03163314611896565b34610322575f36600319011261032257604051601480548083525f918252602080840193925f8051602061376b83398151915292915b828210611918576106e7856117ee818903826132f0565b83546001600160a01b031686529485019460019384019390910190611901565b346103225760031960403682011261032257611952613313565b90602435906001600160401b038211610322576080908236030112610322576040519161197e836132d5565b60048201356001600160401b038111610322576119a19060043691850101613358565b835260248201356001600160401b038111610322576119c69060043691850101613358565b602084019081529160448101356001600160401b03811161032257611a02916119f760649260043691840101613358565b60408701520161339e565b6060840152335f52601760205260ff60405f2054168015611e11575b611a27906135d7565b6001600160a01b03165f8181526009602052604090208351805192939192906001600160401b038211610e79578190611a6085546133ab565b601f8111611dc1575b50602090601f8311600114611d5d575f92611d52575b50508160011b915f199060031b1c19161782555b5180519093906001600160401b038111610e7957611ab460018401546133ab565b601f8111611d0a575b506020601f8211600114611c9f5781929394955f92611c94575b50508160011b915f199060031b1c19161760018301555b6040810151805160028401916001600160401b038211610e7957611b1283546133ab565b601f8111611c4f575b50602090601f8311600114611be2579282606093611b5d9796936003965f92611bd7575b50508160011b915f1990871b1c19161790555b015115159101613614565b805f52600a60205260405f20805460ff811615611b7657005b60ff19166001179055601554600160401b811015610e79576001810180601555811015611bc35760155f525f8051602061372b8339815191520180546001600160a01b0319169091179055005b634e487b7160e01b5f52603260045260245ffd5b015190508980611b3f565b90601f19831691845f5260205f20925f5b818110611c37575093611b5d979693600396936001938360609810611c20575b505050811b019055611b52565b01515f1983891b60f8161c19169055898080611c13565b92936020600181928786015181550195019301611bf3565b835f5260205f20601f840160051c81019160208510611c8a575b601f0160051c01905b818110611c7f5750611b1b565b5f8155600101611c72565b9091508190611c69565b015190508580611ad7565b600184015f5260205f20905f5b601f1984168110611cf2575060019394959683601f19811610611cda575b505050811b016001830155611aee565b01515f1960f88460031b161c19169055858080611cca565b9091602060018192858b015181550193019101611cac565b600184015f5260205f20601f830160051c81019160208410611d48575b601f0160051c01905b818110611d3d5750611abd565b5f8155600101611d30565b9091508190611d27565b015190508680611a7f565b5f868152602081209350601f198516905b818110611da95750908460019594939210611d91575b505050811b018255611a93565b01515f1960f88460031b161c19169055868080611d84565b92936020600181928786015181550195019301611d6e565b909150845f5260205f20601f840160051c81019160208510611e07575b90601f859493920160051c01905b818110611df95750611a69565b5f8155849350600101611dec565b9091508190611dde565b505f546001600160a01b03163314611a1e565b34610322576020366003190112610322576004355f526013602052602060405f2054604051908152f35b346103225760031960403682011261032257611e68613313565b90602435906001600160401b0382116103225760e09082360301126103225760405191611e94836132ba565b60048201356001600160401b03811161032257611eb79060043691850101613358565b835260248201356001600160401b03811161032257611edc9060043691850101613358565b602084019081529160448101356001600160401b03811161032257611f079060043691840101613358565b604085015260648101356001600160401b03811161032257611f2f9060043691840101613358565b60608501526084810135906001600160401b03821161032257611f5a60c49260043691840101613358565b6080860152611f6b60a4820161339e565b60a0860152013560c0840152335f52601760205260ff60405f20541680156125ac575b611f97906135d7565b6001600160a01b03165f818152600b6020526040902083518051929491939192906001600160401b038211610e79578190611fd286546133ab565b601f811161255c575b50602090601f83116001146124f4575f926124e9575b50508160011b915f199060031b1c19161783555b5180519093906001600160401b038111610e795761202660018501546133ab565b601f81116124a5575b506020601f821160011461243a5781929394955f9261242f575b50508160011b915f199060031b1c19161760018401555b604082015180519093906001600160401b038111610e795761208560028301546133ab565b601f81116123eb575b506020601f82116001146123805781929394955f92612375575b50508160011b915f199060031b1c19161760028201555b606083015180519093906001600160401b038111610e79576120e460038401546133ab565b601f811161232d575b506020601f82116001146122c25781929394955f926122b7575b50508160011b915f199060031b1c19161760038301555b6080810151805160048401916001600160401b038211610e795761214283546133ab565b601f8111612272575b50602090601f831160011461220857918060c09492600696945f926121fd575b50508160011b915f199060031b1c19161790555b61219260a0820151151560058601613614565b0151910155805f52600c60205260405f20805460ff8116156121b057005b60ff19166001179055601454600160401b811015610e79576001810180601455811015611bc35760145f525f8051602061376b8339815191520180546001600160a01b0319169091179055005b01519050888061216b565b90601f19831691845f5260205f20925f5b81811061225a57509260019285926006989660c0989610612242575b505050811b01905561217f565b01515f1960f88460031b161c19169055888080612235565b92936020600181928786015181550195019301612219565b835f5260205f20601f840160051c810191602085106122ad575b601f0160051c01905b8181106122a2575061214b565b5f8155600101612295565b909150819061228c565b015190508580612107565b600384015f5260205f20905f5b601f1984168110612315575060019394959683601f198116106122fd575b505050811b01600383015561211e565b01515f1960f88460031b161c191690558580806122ed565b9091602060018192858b0151815501930191016122cf565b600384015f5260205f20601f830160051c8101916020841061236b575b601f0160051c01905b81811061236057506120ed565b5f8155600101612353565b909150819061234a565b0151905085806120a8565b600283015f5260205f20905f5b601f19841681106123d3575060019394959683601f198116106123bb575b505050811b0160028201556120bf565b01515f1960f88460031b161c191690558580806123ab565b9091602060018192858b01518155019301910161238d565b600283015f5260205f20601f830160051c810160208410612428575b601f830160051c8201811061241d57505061208e565b5f8155600101612407565b5080612407565b015190508580612049565b600185015f5260205f20905f5b601f198416811061248d575060019394959683601f19811610612475575b505050811b016001840155612060565b01515f1960f88460031b161c19169055858080612465565b9091602060018192858b015181550193019101612447565b600185015f5260205f20601f830160051c8101602084106124e2575b601f830160051c820181106124d757505061202f565b5f81556001016124c1565b50806124c1565b015190508680611ff1565b9250855f5260205f20905f935b601f1984168510612541576001945083601f19811610612529575b505050811b018355612005565b01515f1960f88460031b161c1916905586808061251c565b81810151835560209485019460019093019290910190612501565b909150855f5260205f20601f840160051c810191602085106125a2575b90601f859493920160051c01905b8181106125945750611fdb565b5f8155849350600101612587565b9091508190612579565b505f546001600160a01b03163314611f8e565b34610322576020366003190112610322576004356015548110156103225760155f525f8051602061372b83398151915201546040516001600160a01b039091168152602090f35b34610322576020366003190112610322576004356014548110156103225760145f525f8051602061376b83398151915201546040516001600160a01b039091168152602090f35b3461032257602080600319360112610322576004355f526012815260405f209081549161267983613633565b9261268760405194856132f0565b80845282840180925f52835f205f915b8383106127425750505050604051918083019381845251809452604083019360408160051b85010192915f955b8287106126d15785850386f35b909192938280600192603f1989820301855287519061271c60c083518352868060a01b0385850151168584015260408401516040840152606090808286015192850152830190613485565b9160808082015115159083015260a08091015191015296019201960195929190926126c4565b6006866001926040999899516127578161329f565b85548152848060a01b0385870154168382015260028601546040820152612780600387016133e3565b606082015260ff60048701541615156080820152600586015460a0820152815201920192019190959495612697565b34610322576020366003190112610322576001600160a01b036127d0613313565b165f52600d602052602060ff60405f2054166127ef60405180926134c3565bf35b34610322576020366003190112610322576001600160a01b03612812613313565b165f52600960205261286760405f2061282a816133e3565b9061288361283a600183016133e3565b9161287560ff600361284e600285016133e3565b9301541693604051968796608088526080880190613485565b908682036020880152613485565b908482036040860152613485565b90151560608301520390f35b3461032257602036600319011261032257335f52601760205260ff60405f20541680156128c8575b6128c0906135d7565b600435600555005b505f546001600160a01b031633146128b7565b3461032257600319604036820112610322576001600160401b039060243590828211610322576060908236030112610322576040519061291a82613284565b8060040135825260248101358381116103225761293d9060043691840101613358565b61295160446020938486019384520161339e565b9160408401928352335f526017815260ff60405f2054168015612aa5575b612978906135d7565b6004355f52600f815260405f209351845560019081850192518051968711610e79576129a484546133ab565b601f8111612a5f575b5081601f88116001146129f5575095806002959493819361001a995f946129ea575b50501b915f199060031b1c19161790555b5115159101613614565b0151925089806129cf565b9190601f198816855f52835f20935f905b828210612a4857505091600296959493918961001a9a9410612a30575b505050811b0190556129e0565b01515f1960f88460031b161c19169055878080612a23565b808786978294978701518155019601940190612a06565b845f52825f20601f890160051c810191848a10612a9b575b601f0160051c019084905b828110612a905750506129ad565b5f8155018490612a82565b9091508190612a77565b505f546001600160a01b0316331461296f565b34610322575f36600319011261032257335f52601760205260ff60405f2054168015612b01575b612ae8906135d7565b6020612af5600154613625565b80600155604051908152f35b505f546001600160a01b03163314612adf565b3461032257604036600319011261032257612b2d613313565b335f52601760205260ff60405f2054168015612b9a575b612b4d906135d7565b6001600160a01b03165f9081526007602052604090208054600160401b811015610e7957612b8091600182018155613253565b81545f1960039290921b91821b191660243590911b179055005b505f546001600160a01b03163314612b44565b34610322576020366003190112610322576001600160a01b03612bce613313565b165f52600a602052602060ff60405f2054166040519015158152f35b34610322575f36600319011261032257335f52601760205260ff60405f2054168015612c33575b612c1a906135d7565b6020612c27600454613625565b80600455604051908152f35b505f546001600160a01b03163314612c11565b3461032257604036600319011261032257612c5f613313565b335f52601760205260ff60405f2054168015612ca7575b612c7f906135d7565b6001600160a01b03165f908152600e6020526040902080546024358101919082106108b25755005b505f546001600160a01b03163314612c76565b346103225760031960403682011261032257602435906001600160401b038211610322576101409082360301126103225760405190612cf882613268565b80600401358252612d0b60248201613329565b602083019081529060448101356001600160401b03811161032257612d369060043691840101613358565b604084019081529060648101356001600160401b03811161032257612d619060043691840101613358565b606085015260848101356001600160401b03811161032257612dc591612d906101249260043691840101613358565b608087015260a481013560a087015260c481013560c087015260e481013560e08701526101048101356101008701520161339e565b610120840152335f52601760205260ff60405f20541680156131cc575b612deb906135d7565b6004355f9081526006602052604090208351815591516001830180546001600160a01b0319166001600160a01b03929092169190911790555180519092906001600160401b038111610e7957612e4460028401546133ab565b601f8111613188575b506020601f821160011461311e57819293945f92613113575b50508160011b915f199060031b1c19161760028301555b606081015180519092906001600160401b038111610e7957612ea260038301546133ab565b601f81116130cf575b506020601f821160011461306557819293945f9261305a575b50508160011b915f199060031b1c19161760038201555b60808201518051906001600160401b038211610e7957612efe60048401546133ab565b601f8111613012575b50602090601f8311600114612f9d57938260099361012093612f75975f92612f92575b50508160011b915f199060031b1c19161760048501555b60a0810151600585015560c0810151600685015560e081015160078501556101008101516008850155015115159101613614565b6004355f908152600860205260409020805460ff19166001179055005b015190508780612f2a565b90600484015f5260205f20915f5b601f1985168110612ffa57508361012093612f759793600193600997601f19811610612fe2575b505050811b016004850155612f41565b01515f1960f88460031b161c19169055878080612fd2565b91926020600181928685015181550194019201612fab565b600484015f5260205f20601f840160051c81019160208510613050575b601f0160051c01905b8181106130455750612f07565b5f8155600101613038565b909150819061302f565b015190508480612ec4565b600383015f5260205f20905f5b601f19841681106130b75750600193949583601f1981161061309f575b505050811b016003820155612edb565b01515f1960f88460031b161c1916905584808061308f565b9091602060018192858a015181550193019101613072565b600383015f5260205f20601f830160051c81016020841061310c575b601f830160051c82018110613101575050612eab565b5f81556001016130eb565b50806130eb565b015190508480612e66565b600284015f5260205f20905f5b601f19841681106131705750600193949583601f19811610613158575b505050811b016002830155612e7d565b01515f1960f88460031b161c19169055848080613148565b9091602060018192858a01518155019301910161312b565b600284015f5260205f20601f830160051c8101602084106131c5575b601f830160051c820181106131ba575050612e4d565b5f81556001016131a4565b50806131a4565b505f546001600160a01b03163314612de2565b34610322576020366003190112610322576004356016548110156103225761320860209161323b565b905460405160039290921b1c6001600160a01b03168152f35b34610322575f366003190112610322576020906004548152f35b601654811015611bc35760165f5260205f2001905f90565b8054821015611bc3575f5260205f2001905f90565b61014081019081106001600160401b03821117610e7957604052565b606081019081106001600160401b03821117610e7957604052565b60c081019081106001600160401b03821117610e7957604052565b60e081019081106001600160401b03821117610e7957604052565b608081019081106001600160401b03821117610e7957604052565b601f909101601f19168101906001600160401b03821190821017610e7957604052565b600435906001600160a01b038216820361032257565b35906001600160a01b038216820361032257565b6001600160401b038111610e7957601f01601f191660200190565b81601f820112156103225780359061336f8261333d565b9261337d60405194856132f0565b8284526020838301011161032257815f926020809301838601378301015290565b3590811515820361032257565b90600182811c921680156133d9575b60208310146133c557565b634e487b7160e01b5f52602260045260245ffd5b91607f16916133ba565b9060405191825f82546133f5816133ab565b908184526020946001916001811690815f146134635750600114613425575b505050613423925003836132f0565b565b5f90815285812095935091905b81831061344b57505061342393508201015f8080613414565b85548884018501529485019487945091830191613432565b9250505061342394925060ff191682840152151560051b8201015f8080613414565b91908251928382525f5b8481106134af575050825f602080949584010152601f8019910116010190565b60208183018101518483018201520161348f565b9060048210156134d05752565b634e487b7160e01b5f52602160045260245ffd5b60209060206040818301928281528551809452019301915f5b82811061350b575050505090565b83516001600160a01b0316855293810193928101926001016134fd565b60208082019080835283518092528060408094019401925f905b83821061355157505050505090565b845180518752808401516001600160a01b0390811688860152818301511687830152606080820151908801526080808201519088015260a09081015115159087015260c09095019493820193600190910190613542565b8054821015611bc3575f52600660205f20910201905f90565b6040906003190112610322576004359060243590565b156135de57565b60405162461bcd60e51b815260206004820152600e60248201526d139bdd08185d5d1a1bdc9a5e995960921b6044820152606490fd5b9060ff801983541691151516179055565b5f1981146108b25760010190565b6001600160401b038111610e795760051b60200190565b8054600160401b811015610e7957613667916001820181556135a8565b611553578151815560208201516001820180546001600160a01b039283166001600160a01b0319918216179091556040840151600284018054919093169116179055606082015160038201556080820151600482015560a0909101516134239190151590600501613614565b5f546001600160a01b031633036136e657565b606460405162461bcd60e51b815260206004820152602060248201527f4f776e61626c653a2063616c6c6572206973206e6f7420746865206f776e65726044820152fdfe55f448fdea98c4d29eb340757ef0a66cd03dbb9538908a6a81d96026b71ec4758be0079c531659141344cd1fd0a4f28419497f9722a3daafe3b4186f6b6457e0ce6d7b5282bd9a3661ae061feed1dbda4e52ab073b1f9285be6e155d9c38d4eca164736f6c6343000818000a",
  "linkReferences": {},
  "deployedLinkReferences": {}
}