{
  "_format": "hh-sol-artifact-1",
  "contractName": "CryptoMartTransactions",
  "sourceName": "contracts/CryptoMartTransactions.sol",
  "abi": [
    {
      "inputs": [
        {
          "internalType": "address",
          "name": "_storageContract",
          "type": "address"
        },
        {
          "internalType": "address",
          "name": "_coreContract",
          "type": "address"
        }
      ],
      "stateMutability": "nonpayable",
      "type": "constructor"
    },
    {
      "anonymous": false,
      "inputs": [
        {
          "indexed": true,
          "internalType": "address",
          "name": "seller",
          "type": "address"
        },
        {
          "indexed": false,
          "internalType": "uint256",
          "name": "amount",
          "type": "uint256"
        }
      ],
      "name": "BalanceWithdrawn",
      "type": "event"
    },
    {
      "anonymous": false,
      "inputs": [
        {
          "indexed": true,
          "internalType": "address",
          "name": "previousOwner",
          "type": "address"
        },
        {
          "indexed": true,
          "internalType": "address",
          "name": "newOwner",
          "type": "address"
        }
      ],
      "name": "OwnershipTransferred",
      "type": "event"
    },
    {
      "anonymous": false,
      "inputs": [
        {
          "indexed": true,
          "internalType": "uint256",
          "name": "productId",
          "type": "uint256"
        },
        {
          "indexed": true,
          "internalType": "address",
          "name": "buyer",
          "type": "address"
        },
        {
          "indexed": true,
          "internalType": "address",
          "name": "seller",
          "type": "address"
        }
      ],
      "name": "ProductPurchased",
      "type": "event"
    },
    {
      "anonymous": false,
      "inputs": [
        {
          "indexed": true,
          "internalType": "uint256",
          "name": "productId",
          "type": "uint256"
        },
        {
          "indexed": true,
          "internalType": "address",
          "name": "buyer",
          "type": "address"
        }
      ],
      "name": "PurchaseDelivered",
      "type": "event"
    },
    {
      "anonymous": false,
      "inputs": [
        {
          "indexed": true,
          "internalType": "uint256",
          "name": "productId",
          "type": "uint256"
        },
        {
          "indexed": true,
          "internalType": "address",
          "name": "buyer",
          "type": "address"
        },
        {
          "indexed": true,
          "internalType": "address",
          "name": "seller",
          "type": "address"
        },
        {
          "indexed": false,
          "internalType": "uint256",
          "name": "amount",
          "type": "uint256"
        },
        {
          "indexed": false,
          "internalType": "uint256",
          "name": "timestamp",
          "type": "uint256"
        }
      ],
      "name": "PurchaseRecorded",
      "type": "event"
    },
    {
      "anonymous": false,
      "inputs": [
        {
          "indexed": true,
          "internalType": "uint256",
          "name": "productId",
          "type": "uint256"
        },
        {
          "indexed": true,
          "internalType": "address",
          "name": "reviewer",
          "type": "address"
        },
        {
          "indexed": false,
          "internalType": "uint256",
          "name": "rating",
          "type": "uint256"
        }
      ],
      "name": "ReviewCreated",
      "type": "event"
    },
    {
      "anonymous": false,
      "inputs": [
        {
          "indexed": true,
          "internalType": "uint256",
          "name": "productId",
          "type": "uint256"
        },
        {
          "indexed": true,
          "internalType": "uint256",
          "name": "reviewId",
          "type": "uint256"
        }
      ],
      "name": "ReviewDeleted",
      "type": "event"
    },
    {
      "inputs": [
        {
          "internalType": "uint256",
          "name": "productId",
          "type": "uint256"
        }
      ],
      "name": "buyProduct",
      "outputs": [],
      "stateMutability": "payable",
      "type": "function"
    },
    {
      "inputs": [],
      "name": "coreContract",
      "outputs": [
        {
          "internalType": "address",
          "name": "",
          "type": "address"
        }
      ],
      "stateMutability": "view",
      "type": "function"
    },
    {
      "inputs": [
        {
          "internalType": "uint256",
          "name": "productId",
          "type": "uint256"
        },
        {
          "internalType": "uint256",
          "name": "rating",
          "type": "uint256"
        },
        {
          "internalType": "string",
          "name": "comment",
          "type": "string"
        }
      ],
      "name": "createReview",
      "outputs": [],
      "stateMutability": "nonpayable",
      "type": "function"
    },
    {
      "inputs": [
        {
          "internalType": "uint256",
          "name": "productId",
          "type": "uint256"
        },
        {
          "internalType": "uint256",
          "name": "reviewId",
          "type": "uint256"
        }
      ],
      "name": "deleteReview",
      "outputs": [],
      "stateMutability": "nonpayable",
      "type": "function"
    },
    {
      "inputs": [
        {
          "internalType": "address",
          "name": "buyer",
          "type": "address"
        }
      ],
      "name": "getBuyerPurchaseHistory",
      "outputs": [
        {
          "components": [
            {
              "internalType": "uint256",
              "name": "productId",
              "type": "uint256"
            },
            {
              "internalType": "address",
              "name": "buyer",
              "type": "address"
            },
            {
              "internalType": "address",
              "name": "seller",
              "type": "address"
            },
            {
              "internalType": "uint256",
              "name": "totalAmount",
              "type": "uint256"
            },
            {
              "internalType": "uint256",
              "name": "timestamp",
              "type": "uint256"
            },
            {
              "internalType": "bool",
              "name": "isDelivered",
              "type": "bool"
            }
          ],
          "internalType": "struct CryptoMartStorage.PurchaseStruct[]",
          "name": "",
          "type": "tuple[]"
        }
      ],
      "stateMutability": "view",
      "type": "function"
    },
    {
      "inputs": [
        {
          "internalType": "uint256",
          "name": "productId",
          "type": "uint256"
        }
      ],
      "name": "getReviews",
      "outputs": [
        {
          "components": [
            {
              "internalType": "uint256",
              "name": "reviewId",
              "type": "uint256"
            },
            {
              "internalType": "address",
              "name": "reviewer",
              "type": "address"
            },
            {
              "internalType": "uint256",
              "name": "rating",
              "type": "uint256"
            },
            {
              "internalType": "string",
              "name": "comment",
              "type": "string"
            },
            {
              "internalType": "bool",
              "name": "deleted",
              "type": "bool"
            },
            {
              "internalType": "uint256",
              "name": "timestamp",
              "type": "uint256"
            }
          ],
          "internalType": "struct CryptoMartStorage.ReviewStruct[]",
          "name": "",
          "type": "tuple[]"
        }
      ],
      "stateMutability": "view",
      "type": "function"
    },
    {
      "inputs": [
        {
          "internalType": "address",
          "name": "seller",
          "type": "address"
        }
      ],
      "name": "getSellerBalance",
      "outputs": [
        {
          "internalType": "uint256",
          "name": "",
          "type": "uint256"
        }
      ],
      "stateMutability": "view",
      "type": "function"
    },
    {
      "inputs": [
        {
          "internalType": "address",
          "name": "seller",
          "type": "address"
        }
      ],
      "name": "getSellerPurchaseHistory",
      "outputs": [
        {
          "components": [
            {
              "internalType": "uint256",
              "name": "productId",
              "type": "uint256"
            },
            {
              "internalType": "address",
              "name": "buyer",
              "type": "address"
            },
            {
              "internalType": "address",
              "name": "seller",
              "type": "address"
            },
            {
              "internalType": "uint256",
              "name": "totalAmount",
              "type": "uint256"
            },
            {
              "internalType": "uint256",
              "name": "timestamp",
              "type": "uint256"
            },
            {
              "internalType": "bool",
              "name": "isDelivered",
              "type": "bool"
            }
          ],
          "internalType": "struct CryptoMartStorage.PurchaseStruct[]",
          "name": "",
          "type": "tuple[]"
        }
      ],
      "stateMutability": "view",
      "type": "function"
    },
    {
      "inputs": [
        {
          "internalType": "uint256",
          "name": "productId",
          "type": "uint256"
        },
        {
          "internalType": "address",
          "name": "buyer",
          "type": "address"
        }
      ],
      "name": "markPurchaseDelivered",
      "outputs": [],
      "stateMutability": "nonpayable",
      "type": "function"
    },
    {
      "inputs": [],
      "name": "owner",
      "outputs": [
        {
          "internalType": "address",
          "name": "",
          "type": "address"
        }
      ],
      "stateMutability": "view",
      "type": "function"
    },
    {
      "inputs": [],
      "name": "renounceOwnership",
      "outputs": [],
      "stateMutability": "nonpayable",
      "type": "function"
    },
    {
      "inputs": [],
      "name": "storageContract",
      "outputs": [
        {
          "internalType": "contract CryptoMartStorage",
          "name": "",
          "type": "address"
        }
      ],
      "stateMutability": "view",
      "type": "function"
    },
    {
      "inputs": [
        {
          "internalType": "address",
          "name": "newOwner",
          "type": "address"
        }
      ],
      "name": "transferOwnership",
      "outputs": [],
      "stateMutability": "nonpayable",
      "type": "function"
    },
    {
      "inputs": [],
      "name": "withdraw",
      "outputs": [],
      "stateMutability": "nonpayable",
      "type": "function"
    },
    {
      "stateMutability": "payable",
      "type": "receive"
    }
  ],
  "bytecode": "0x60c03461010a57601f611a2e38819003918201601f19168301916001600160401b0383118484101761010e57808492604094855283398101031261010a57610052602061004b83610122565b9201610122565b5f8054336001600160a01b0319821681178355604051946001600160a01b039390928416907f8be0079c531659141344cd1fd0a4f28419497f9722a3daafe3b4186f6b6457e09080a3600180551660805260a0526118f7908161013782396080518181816101fe015281816102a3015281816103c701528181610a0301528181610bd101528181610c4901528181610d7801528181610e720152818161106601526110d4015260a05181818161018801526106d80152f35b5f80fd5b634e487b7160e01b5f52604160045260245ffd5b51906001600160a01b038216820361010a5756fe60806040818152600480361015610020575b505050361561001e575f80fd5b005b5f925f3560e01c90816311aa5b34146110955750806311ce02671461105257806316d81b3814610de85780632148893f14610d3257806324d41a0314610c105780633c2575d514610b8e5780633ccfd60b146109d1578063715018a61461098b5780638642269e146103905780638da5cb5b146103685780639d4a225514610271578063b27e1697146101bb578063e80db5db146101735763f2fde38b03610011573461016f57602036600319011261016f576100db61124b565b906100e4611853565b6001600160a01b0391821692831561011d5750505f548260018060a01b03198216175f55165f805160206118cb8339815191525f80a380f35b906020608492519162461bcd60e51b8352820152602660248201527f4f776e61626c653a206e6577206f776e657220697320746865207a65726f206160448201526564647265737360d01b6064820152fd5b8280fd5b5050346101b757816003193601126101b757517f00000000000000000000000000000000000000000000000000000000000000006001600160a01b03168152602090f35b5080fd5b50903461016f57602036600319011261016f57826101d761124b565b82516385a3439360e01b81526001600160a01b0391821694810194909452839060249082907f0000000000000000000000000000000000000000000000000000000000000000165afa918215610267578361023e9493610242575b50505191829182611324565b0390f35b61025f9293503d8091833e61025781836112a3565b810190611569565b905f80610232565b81513d85823e3d90fd5b508290346101b757602091826003193601126103655783516346a4237b60e01b815282359281019290925280826024817f00000000000000000000000000000000000000000000000000000000000000006001600160a01b03165afa918215610359578192610335575b5083519280840190808552835180925280868601968360051b870101940192955b8287106103095785850386f35b909192938280610325600193603f198a820301865288516113b2565b96019201960195929190926102fc565b6103529192503d8084833e61034a81836112a3565b8101906116b1565b90846102db565b508351903d90823e3d90fd5b80fd5b5050346101b757816003193601126101b757905490516001600160a01b039091168152602090f35b50829060208060031936011261016f578135906103ab6117fd565b8451632e76c56d60e21b81528381018390526001600160a01b037f0000000000000000000000000000000000000000000000000000000000000000811696602494909290878287818c5afa91821561098157889261095d575b508351632bd57b5960e21b8152878101829052858188818d5afa801561095357899061091d575b610435915061166c565b61012082019182516108e95760e08101928351156108b85760c08201908151341061087f57878301928684511633146108445785518015610832575f190186528c3b1561082e578c858d8d8b9682968f96898e81519b8c9a8b998a986306ad0cb960e01b8a52890152870152825160448701528c5116606486015281015160848501610140905261018485016104ca9161138d565b606082015160431991828782030160a48801526104e69161138d565b6080830151918682030160c48701526104fe9161138d565b9260a082015160e4860152519c6101049d8e86015251610124850152610100015161014484015251151561016483015203925af180156107e757908a9161081a575b50868b8a88518094819363865d219760e01b83525af180156107e7579087916107f1575b50855163700f7b7360e11b815290818a818e5afa9081156107e7578a916107b6575b508034029034820414341517156107a45760649004928334039a348c11610792578a9b86849c98999a9b9c5116823b1561076c5788908d6105d88c5194859384936307c115ed60e01b855284016117b3565b038183865af1801561078857908891610770575b5050858351168851906105fe82611261565b858252338b830152898201523460608201524260808201528760a08201528684511692823b1561076c578c8980946106548f958e5198899788966375573ab160e11b8852339088015286015260448501906112e1565b5af18015610762578592918791610745575b50505116908551908233827f405b8e92032184041314dcddf305e0d97d13b103d3fa162eb2b1c760760bdc0a8980a434825242888301527f8fa4fb19835ecd208875d6ea2f7a57043c7a8dd31ec76d5bf7063073dfec264b873393a4806106d0575b826001805580f35b8280929181927f0000000000000000000000000000000000000000000000000000000000000000165af16107026117ce565b5015610710578481806106c8565b5162461bcd60e51b81529283015260139082015272119959481d1c985b9cd9995c8819985a5b1959606a1b6044820152606490fd5b61075191929350611290565b61075e578390858c610666565b8480fd5b87513d88823e3d90fd5b8880fd5b61077990611290565b61078457868d6105ec565b8680fd5b89513d8a823e3d90fd5b634e487b7160e01b8b5260118a52888bfd5b634e487b7160e01b8a5260118952878afd5b90508681813d83116107e0575b6107cd81836112a3565b810103126107dc57518b610586565b5f80fd5b503d6107c3565b86513d8c823e3d90fd5b813d8311610813575b61080481836112a3565b810103126107dc57858b610564565b503d6107fa565b61082390611290565b61076c57888b610540565b8b80fd5b634e487b7160e01b8d5260118c528a8dfd5b875162461bcd60e51b8152808c018a90526016818c01527510d85b9b9bdd08189d5e481bdddb881c1c9bd91d58dd60521b6044820152606490fd5b865162461bcd60e51b8152808b018990526014818b015273125b9cdd59999a58da595b9d081c185e5b595b9d60621b6044820152606490fd5b855162461bcd60e51b8152808a01889052600c818a01526b4f7574206f662073746f636b60a01b6044820152606490fd5b845162461bcd60e51b8152808901879052600f818901526e141c9bd91d58dd0819195b195d1959608a1b6044820152606490fd5b508581813d831161094c575b61093381836112a3565b8101031261076c576109476104359161145d565b61042b565b503d610929565b85513d8b823e3d90fd5b61097a9192503d808a833e61097281836112a3565b81019061146a565b9089610404565b84513d8a823e3d90fd5b83346103655780600319360112610365576109a4611853565b5f80546001600160a01b0319811682556001600160a01b03165f805160206118cb8339815191528280a380f35b50903461016f578260031936011261016f576109eb6117fd565b805163181fad3960e21b8152338382015291602091907f00000000000000000000000000000000000000000000000000000000000000006001600160a01b03168385602481845afa948515610b84578695610b55575b508415610b1a578086913b156101b7578184518092636405dd4560e11b8252818381610a708c338b84016117b3565b03925af18015610b1057610afc575b5080808087335af1610a8f6117ce565b5015610ac75750907fddc398b321237a8d40ac914388309c2f52a08c134e4dc4ce61e32f57cb7d80f191519283523392a26001805580f35b82606492519162461bcd60e51b8352820152601160248201527015da5d1a191c985dd85b0819985a5b1959607a1b6044820152fd5b610b0590611290565b61075e57845f610a7f565b84513d84823e3d90fd5b5082606492519162461bcd60e51b835282015260166024820152754e6f2062616c616e636520746f20776974686472617760501b6044820152fd5b9094508381813d8311610b7d575b610b6d81836112a3565b810103126107dc5751935f610a41565b503d610b63565b83513d88823e3d90fd5b50903461016f57602036600319011261016f5782610baa61124b565b825163c258f53160e01b81526001600160a01b0391821694810194909452839060249082907f0000000000000000000000000000000000000000000000000000000000000000165afa918215610267578361023e94936102425750505191829182611324565b50903461016f578060031936011261016f5781356024359160018060a01b0393828251916346a4237b60e01b83528201528581602481887f0000000000000000000000000000000000000000000000000000000000000000165afa918215610d2957508591610d0f575b50845b8151811015610d075783610c918284611644565b51511480610ce2575b610ca657600101610c7d565b600192939450610cb890608092611644565b5101527ffe09911b3ec9652ef94a11286713bd397f2fb090f28c62303451d8040ff62c628380a380f35b50846020610cf08385611644565b51015116331480610c9a5750848654163314610c9a565b505050505080f35b610d2391503d8087833e61034a81836112a3565b5f610c7a565b513d87823e3d90fd5b509190346101b7576020928360031936011261016f5783610d5161124b565b835163181fad3960e21b81526001600160a01b0391821693810193909352829060249082907f0000000000000000000000000000000000000000000000000000000000000000165afa928315610ddd5792610dae575b5051908152f35b9091508281813d8311610dd6575b610dc681836112a3565b810103126107dc5751905f610da7565b503d610dbc565b8251903d90823e3d90fd5b5090346107dc5760603660031901126107dc576024803592803592604435929091906001600160401b0384116107dc57366023850112156107dc578382013590610e31826112c6565b91610e3e855193846112a3565b808352602095368383830101116107dc57815f928489930183870137840101528351632bd57b5960e21b81528381018790527f00000000000000000000000000000000000000000000000000000000000000006001600160a01b03169086818481855afa8015610fd0575f9061101c575b610eb9915061166c565b600188101580611011575b15610fda578451632fb1c6b160e11b815292868486815f865af1938415610fd0575f94610fa1575b50855193610ef985611261565b84523387850152888685015260608401525f60808401524260a0840152803b156107dc57865f8695610f498296885198899788968795638061bc9360e01b875286015284015260448301906113b2565b03925af18015610f9757610f73575b50905f805160206118ab83398151915291519384523393a380f35b5f805160206118ab83398151915292919550610f8e90611290565b5f949091610f58565b82513d5f823e3d90fd5b9093508681813d8311610fc9575b610fb981836112a3565b810103126107dc5751925f610eec565b503d610faf565b86513d5f823e3d90fd5b845162461bcd60e51b815280850187905260128184015271526174696e67206d75737420626520312d3560701b6044820152606490fd5b506005881115610ec4565b508681813d831161104b575b61103281836112a3565b810103126107dc57611046610eb99161145d565b610eaf565b503d611028565b82346107dc575f3660031901126107dc57517f00000000000000000000000000000000000000000000000000000000000000006001600160a01b03168152602090f35b839150346107dc57816003193601126107dc576024356001600160a01b0381811694803593928690036107dc57632e76c56d60e21b83528083018490527f00000000000000000000000000000000000000000000000000000000000000008216925f81602481875afa908115610fd05783916020915f91611231575b5001511633036111ee578560245f92875195869384926385a3439360e01b84528301525afa9182156111e4575f926111c8575b505f5b82518110156111be578361115b8285611644565b515114806111a6575b61117057600101611147565b91905061117e929350611644565b505b7f187090b179fb7e8c2670a325ae40d84b5ef651c9293a379ac384d99257124f4e5f80a3005b503382866111b48487611644565b5101511614611164565b5050509050611180565b6111dd9192503d805f833e61025781836112a3565b9085611144565b84513d5f823e3d90fd5b606490602086519162461bcd60e51b8352820152601e60248201527f4f6e6c792073656c6c65722063616e206d61726b2064656c69766572656400006044820152fd5b61124591503d805f833e61097281836112a3565b89611111565b600435906001600160a01b03821682036107dc57565b60c081019081106001600160401b0382111761127c57604052565b634e487b7160e01b5f52604160045260245ffd5b6001600160401b03811161127c57604052565b601f909101601f19168101906001600160401b0382119082101761127c57604052565b6001600160401b03811161127c57601f01601f191660200190565b60a08091805184526020810151600180841b0380911660208601526040820151166040850152606081015160608501526080810151608085015201511515910152565b60209060206040818301928281528551809452019301915f5b82811061134b575050505090565b909192938260c08261136060019489516112e1565b0195019392910161133d565b5f5b83811061137d5750505f910152565b818101518382015260200161136e565b906020916113a68151809281855285808601910161136c565b601f01601f1916010190565b908151815260018060a01b0360208301511660208201526040820151604082015260a0806113ef606085015160c0606086015260c085019061138d565b93608081015115156080850152015191015290565b51906001600160a01b03821682036107dc57565b81601f820112156107dc57805161142e816112c6565b9261143c60405194856112a3565b818452602082840101116107dc5761145a916020808501910161136c565b90565b519081151582036107dc57565b6020818303126107dc5780516001600160401b03918282116107dc5701906101409283838203126107dc576040519384018481108382111761127c57604052825184526114b960208401611404565b602085015260408301518281116107dc57816114d6918501611418565b604085015260608301518281116107dc57816114f3918501611418565b606085015260808301519182116107dc5761150f918301611418565b608083015260a081015160a083015260c081015160c083015260e081015160e0830152610100808201519083015261154b61012080920161145d565b9082015290565b6001600160401b03811161127c5760051b60200190565b60209081818403126107dc578051906001600160401b0382116107dc570182601f820112156107dc5780519161159e83611552565b9360406115ae60405196876112a3565b848652828601918360c0809702860101948186116107dc578401925b8584106115db575050505050505090565b86848303126107dc5784879184516115f281611261565b86518152611601838801611404565b83820152611610868801611404565b86820152606080880151908201526080808801519082015260a061163581890161145d565b908201528152019301926115ca565b80518210156116585760209160051b010190565b634e487b7160e01b5f52603260045260245ffd5b1561167357565b60405162461bcd60e51b8152602060048201526016602482015275141c9bd91d58dd08191bd95cc81b9bdd08195e1a5cdd60521b6044820152606490fd5b9060209081838203126107dc5782516001600160401b03938482116107dc57019080601f830112156107dc5781516116e881611552565b946040906116f960405197886112a3565b828752858088019360051b860101948486116107dc57868101935b86851061172657505050505050505090565b84518381116107dc57820160c09182601f19838a0301126107dc57855161174c81611261565b8a830151815261175d878401611404565b8b820152606093848401518883015260809081850151948886116107dc578d9661178c8d898099850101611418565b9085015260a09261179e84830161145d565b90850152015190820152815201940193611714565b6001600160a01b039091168152602081019190915260400190565b3d156117f8573d906117df826112c6565b916117ed60405193846112a3565b82523d5f602084013e565b606090565b60026001541461180e576002600155565b60405162461bcd60e51b815260206004820152601f60248201527f5265656e7472616e637947756172643a207265656e7472616e742063616c6c006044820152606490fd5b5f546001600160a01b0316330361186657565b606460405162461bcd60e51b815260206004820152602060248201527f4f776e61626c653a2063616c6c6572206973206e6f7420746865206f776e65726044820152fdfe52604caa1710245cf3f94d9ba89ff921bb23d98741f57a258794b86f3ba8e7fc8be0079c531659141344cd1fd0a4f28419497f9722a3daafe3b4186f6b6457e0a164736f6c6343000818000a",
  "linkReferences": {},
  "deployedLinkReferences": {}
}