{
  "_format": "hh-sol-artifact-1",
  "contractName": "CryptoMartTransactions",
  "sourceName": "contracts/CryptoMartTransactions.sol",
  "abi": [
    {
      "inputs": [
        {
          "internalType": "address",
          "name": "_storageContract",
          "type": "address"
        },
        {
          "internalType": "address",
          "name": "_coreContract",
          "type": "address"
        }
      ],
      "stateMutability": "nonpayable",
      "type": "constructor"
    },
    {
      "anonymous": false,
      "inputs": [
        {
          "indexed": true,
          "internalType": "address",
          "name": "seller",
          "type": "address"
        },
        {
          "indexed": false,
          "internalType": "uint256",
          "name": "amount",
          "type": "uint256"
        }
      ],
      "name": "BalanceWithdrawn",
      "type": "event"
    },
    {
      "anonymous": false,
      "inputs": [
        {
          "indexed": true,
          "internalType": "address",
          "name": "previousOwner",
          "type": "address"
        },
        {
          "indexed": true,
          "internalType": "address",
          "name": "newOwner",
          "type": "address"
        }
      ],
      "name": "OwnershipTransferred",
      "type": "event"
    },
    {
      "anonymous": false,
      "inputs": [
        {
          "indexed": true,
          "internalType": "uint256",
          "name": "productId",
          "type": "uint256"
        },
        {
          "indexed": true,
          "internalType": "address",
          "name": "buyer",
          "type": "address"
        },
        {
          "indexed": true,
          "internalType": "address",
          "name": "seller",
          "type": "address"
        }
      ],
      "name": "ProductPurchased",
      "type": "event"
    },
    {
      "anonymous": false,
      "inputs": [
        {
          "indexed": true,
          "internalType": "uint256",
          "name": "productId",
          "type": "uint256"
        },
        {
          "indexed": true,
          "internalType": "address",
          "name": "buyer",
          "type": "address"
        }
      ],
      "name": "PurchaseDelivered",
      "type": "event"
    },
    {
      "anonymous": false,
      "inputs": [
        {
          "indexed": true,
          "internalType": "uint256",
          "name": "productId",
          "type": "uint256"
        },
        {
          "indexed": true,
          "internalType": "address",
          "name": "buyer",
          "type": "address"
        },
        {
          "indexed": true,
          "internalType": "address",
          "name": "seller",
          "type": "address"
        },
        {
          "indexed": false,
          "internalType": "uint256",
          "name": "amount",
          "type": "uint256"
        },
        {
          "indexed": false,
          "internalType": "uint256",
          "name": "timestamp",
          "type": "uint256"
        }
      ],
      "name": "PurchaseRecorded",
      "type": "event"
    },
    {
      "anonymous": false,
      "inputs": [
        {
          "indexed": true,
          "internalType": "uint256",
          "name": "productId",
          "type": "uint256"
        },
        {
          "indexed": true,
          "internalType": "address",
          "name": "reviewer",
          "type": "address"
        },
        {
          "indexed": false,
          "internalType": "uint256",
          "name": "rating",
          "type": "uint256"
        }
      ],
      "name": "ReviewCreated",
      "type": "event"
    },
    {
      "anonymous": false,
      "inputs": [
        {
          "indexed": true,
          "internalType": "uint256",
          "name": "productId",
          "type": "uint256"
        },
        {
          "indexed": true,
          "internalType": "uint256",
          "name": "reviewId",
          "type": "uint256"
        }
      ],
      "name": "ReviewDeleted",
      "type": "event"
    },
    {
      "inputs": [
        {
          "internalType": "uint256",
          "name": "productId",
          "type": "uint256"
        }
      ],
      "name": "buyProduct",
      "outputs": [],
      "stateMutability": "payable",
      "type": "function"
    },
    {
      "inputs": [],
      "name": "coreContract",
      "outputs": [
        {
          "internalType": "address",
          "name": "",
          "type": "address"
        }
      ],
      "stateMutability": "view",
      "type": "function"
    },
    {
      "inputs": [
        {
          "internalType": "uint256",
          "name": "productId",
          "type": "uint256"
        },
        {
          "internalType": "uint256",
          "name": "rating",
          "type": "uint256"
        },
        {
          "internalType": "string",
          "name": "comment",
          "type": "string"
        }
      ],
      "name": "createReview",
      "outputs": [],
      "stateMutability": "nonpayable",
      "type": "function"
    },
    {
      "inputs": [
        {
          "internalType": "uint256",
          "name": "productId",
          "type": "uint256"
        },
        {
          "internalType": "uint256",
          "name": "reviewId",
          "type": "uint256"
        }
      ],
      "name": "deleteReview",
      "outputs": [],
      "stateMutability": "nonpayable",
      "type": "function"
    },
    {
      "inputs": [
        {
          "internalType": "address",
          "name": "buyer",
          "type": "address"
        }
      ],
      "name": "getBuyerPurchaseHistory",
      "outputs": [
        {
          "components": [
            {
              "internalType": "uint256",
              "name": "productId",
              "type": "uint256"
            },
            {
              "internalType": "address",
              "name": "buyer",
              "type": "address"
            },
            {
              "internalType": "address",
              "name": "seller",
              "type": "address"
            },
            {
              "internalType": "uint256",
              "name": "totalAmount",
              "type": "uint256"
            },
            {
              "internalType": "uint256",
              "name": "timestamp",
              "type": "uint256"
            },
            {
              "internalType": "bool",
              "name": "isDelivered",
              "type": "bool"
            }
          ],
          "internalType": "struct CryptoMartStorage.PurchaseStruct[]",
          "name": "",
          "type": "tuple[]"
        }
      ],
      "stateMutability": "view",
      "type": "function"
    },
    {
      "inputs": [
        {
          "internalType": "uint256",
          "name": "productId",
          "type": "uint256"
        }
      ],
      "name": "getReviews",
      "outputs": [
        {
          "components": [
            {
              "internalType": "uint256",
              "name": "reviewId",
              "type": "uint256"
            },
            {
              "internalType": "address",
              "name": "reviewer",
              "type": "address"
            },
            {
              "internalType": "uint256",
              "name": "rating",
              "type": "uint256"
            },
            {
              "internalType": "string",
              "name": "comment",
              "type": "string"
            },
            {
              "internalType": "bool",
              "name": "deleted",
              "type": "bool"
            },
            {
              "internalType": "uint256",
              "name": "timestamp",
              "type": "uint256"
            }
          ],
          "internalType": "struct CryptoMartStorage.ReviewStruct[]",
          "name": "",
          "type": "tuple[]"
        }
      ],
      "stateMutability": "view",
      "type": "function"
    },
    {
      "inputs": [
        {
          "internalType": "address",
          "name": "seller",
          "type": "address"
        }
      ],
      "name": "getSellerBalance",
      "outputs": [
        {
          "internalType": "uint256",
          "name": "",
          "type": "uint256"
        }
      ],
      "stateMutability": "view",
      "type": "function"
    },
    {
      "inputs": [
        {
          "internalType": "address",
          "name": "seller",
          "type": "address"
        }
      ],
      "name": "getSellerPurchaseHistory",
      "outputs": [
        {
          "components": [
            {
              "internalType": "uint256",
              "name": "productId",
              "type": "uint256"
            },
            {
              "internalType": "address",
              "name": "buyer",
              "type": "address"
            },
            {
              "internalType": "address",
              "name": "seller",
              "type": "address"
            },
            {
              "internalType": "uint256",
              "name": "totalAmount",
              "type": "uint256"
            },
            {
              "internalType": "uint256",
              "name": "timestamp",
              "type": "uint256"
            },
            {
              "internalType": "bool",
              "name": "isDelivered",
              "type": "bool"
            }
          ],
          "internalType": "struct CryptoMartStorage.PurchaseStruct[]",
          "name": "",
          "type": "tuple[]"
        }
      ],
      "stateMutability": "view",
      "type": "function"
    },
    {
      "inputs": [
        {
          "internalType": "uint256",
          "name": "productId",
          "type": "uint256"
        },
        {
          "internalType": "address",
          "name": "buyer",
          "type": "address"
        }
      ],
      "name": "markPurchaseDelivered",
      "outputs": [],
      "stateMutability": "nonpayable",
      "type": "function"
    },
    {
      "inputs": [],
      "name": "owner",
      "outputs": [
        {
          "internalType": "address",
          "name": "",
          "type": "address"
        }
      ],
      "stateMutability": "view",
      "type": "function"
    },
    {
      "inputs": [],
      "name": "renounceOwnership",
      "outputs": [],
      "stateMutability": "nonpayable",
      "type": "function"
    },
    {
      "inputs": [],
      "name": "storageContract",
      "outputs": [
        {
          "internalType": "contract CryptoMartStorage",
          "name": "",
          "type": "address"
        }
      ],
      "stateMutability": "view",
      "type": "function"
    },
    {
      "inputs": [
        {
          "internalType": "address",
          "name": "newOwner",
          "type": "address"
        }
      ],
      "name": "transferOwnership",
      "outputs": [],
      "stateMutability": "nonpayable",
      "type": "function"
    },
    {
      "inputs": [],
      "name": "withdraw",
      "outputs": [],
      "stateMutability": "nonpayable",
      "type": "function"
    },
    {
      "stateMutability": "payable",
      "type": "receive"
    }
  ],
  "bytecode": "0x60c03461010357601f6119fb38819003918201601f19168301916001600160401b0383118484101761010757808492604094855283398101031261010357610052602061004b8361011b565b920161011b565b5f8054336001600160a01b0319821681178355604051946001600160a01b039390928416907f8be0079c531659141344cd1fd0a4f28419497f9722a3daafe3b4186f6b6457e09080a3600180551660805260a0526118cb908161013082396080518181816101fe015281816102a3015281816103c6015281816109d301528181610ba501528181610c1d01528181610d4c01528181610e460152818161103a01526110a8015260a051816101880152f35b5f80fd5b634e487b7160e01b5f52604160045260245ffd5b51906001600160a01b03821682036101035756fe60806040818152600480361015610020575b505050361561001e575f80fd5b005b5f925f3560e01c90816311aa5b34146110695750806311ce02671461102657806316d81b3814610dbc5780632148893f14610d0657806324d41a0314610be45780633c2575d514610b625780633ccfd60b146109a1578063715018a61461095b5780638642269e146103905780638da5cb5b146103685780639d4a225514610271578063b27e1697146101bb578063e80db5db146101735763f2fde38b03610011573461016f57602036600319011261016f576100db61121f565b906100e4611827565b6001600160a01b0391821692831561011d5750505f548260018060a01b03198216175f55165f8051602061189f8339815191525f80a380f35b906020608492519162461bcd60e51b8352820152602660248201527f4f776e61626c653a206e6577206f776e657220697320746865207a65726f206160448201526564647265737360d01b6064820152fd5b8280fd5b5050346101b757816003193601126101b757517f00000000000000000000000000000000000000000000000000000000000000006001600160a01b03168152602090f35b5080fd5b50903461016f57602036600319011261016f57826101d761121f565b82516385a3439360e01b81526001600160a01b0391821694810194909452839060249082907f0000000000000000000000000000000000000000000000000000000000000000165afa918215610267578361023e9493610242575b505051918291826112f8565b0390f35b61025f9293503d8091833e6102578183611277565b81019061153d565b905f80610232565b81513d85823e3d90fd5b508290346101b757602091826003193601126103655783516346a4237b60e01b815282359281019290925280826024817f00000000000000000000000000000000000000000000000000000000000000006001600160a01b03165afa918215610359578192610335575b5083519280840190808552835180925280868601968360051b870101940192955b8287106103095785850386f35b909192938280610325600193603f198a82030186528851611386565b96019201960195929190926102fc565b6103529192503d8084833e61034a8183611277565b810190611685565b90846102db565b508351903d90823e3d90fd5b80fd5b5050346101b757816003193601126101b757905490516001600160a01b039091168152602090f35b5090602090816003193601126107ff5782356103aa6117d1565b8151632e76c56d60e21b81528481018290526001600160a01b037f0000000000000000000000000000000000000000000000000000000000000000811692908783602481875afa92831561095157889361092d575b508451632bd57b5960e21b81528781018390528681602481885afa80156107ae5789906108f3575b6104319150611640565b6101208301516108be5760e083019283511561088c5760c081018051341061085257878201948386511633146108165780518015610803575f190181528a929190873b156107ff578a8492610120899589946104fa6104c98f8c81519b8c9a8b9a6306ad0cb960e01b8c528b01528260248b0152865160448b0152511660648901528401516101406084890152610184880190611361565b6104e560608501519160431992838a83030160a48b0152611361565b906080850151908883030160c4890152611361565b9360a083015160e48701525161010486015251610124850152610100810151610144850152015115156101648301520381838a5af180156107f5576107e1575b5050845163865d219760e01b8152868189818c895af180156107ae579087916107b8575b5050845163700f7b7360e11b815286818981885afa9081156107ae57899161077d575b5080340290348204143415171561076a576064900492833403348111610757579082918a96959493825116863b1561073f5787908b6105d18b5194859384936307c115ed60e01b85528401611787565b0381838a5af1801561073557908791610743575b5050818151168751906105f782611235565b848252338a830152888201523460608201524260808201528660a08201528282511690863b1561073f57610646908951926375573ab160e11b8452338d850152602484015260448301906112b5565b868161010481838a5af180156107355790879161071d575b50505116908551908233827f405b8e92032184041314dcddf305e0d97d13b103d3fa162eb2b1c760760bdc0a8980a434825242888301527f8fa4fb19835ecd208875d6ea2f7a57043c7a8dd31ec76d5bf7063073dfec264b873393a4806106c8575b826001805580f35b8280929181925af16106d86117a2565b50156106e6578381806106c0565b5162461bcd60e51b8152918201526013602482015272119959481d1c985b9cd9995c8819985a5b1959606a1b604482015260649150fd5b61072690611264565b61073157855f61065e565b8580fd5b88513d89823e3d90fd5b8780fd5b61074c90611264565b61073157855f6105e5565b634e487b7160e01b8a526011895260248afd5b634e487b7160e01b895260118852602489fd5b90508681813d83116107a7575b6107948183611277565b810103126107a357515f610581565b5f80fd5b503d61078a565b86513d8b823e3d90fd5b813d83116107da575b6107cb8183611277565b810103126107a357855f61055e565b503d6107c1565b6107ea90611264565b61073f57875f61053a565b87513d84823e3d90fd5b8380fd5b634e487b7160e01b8c5260118b5260248cfd5b875162461bcd60e51b8152808b018a9052601660248201527510d85b9b9bdd08189d5e481bdddb881c1c9bd91d58dd60521b6044820152606490fd5b865162461bcd60e51b8152808a018990526014602482015273125b9cdd59999a58da595b9d081c185e5b595b9d60621b6044820152606490fd5b855162461bcd60e51b8152808901889052600c60248201526b4f7574206f662073746f636b60a01b6044820152606490fd5b845162461bcd60e51b8152808801879052600f60248201526e141c9bd91d58dd0819195b195d1959608a1b6044820152606490fd5b508681813d8311610926575b6109098183611277565b810103126109225761091d61043191611431565b610427565b8880fd5b503d6108ff565b61094a9193503d808a833e6109428183611277565b81019061143e565b915f6103ff565b85513d8a823e3d90fd5b8334610365578060031936011261036557610974611827565b5f80546001600160a01b0319811682556001600160a01b03165f8051602061189f8339815191528280a380f35b50903461016f578260031936011261016f576109bb6117d1565b805163181fad3960e21b8152338382015291602091907f00000000000000000000000000000000000000000000000000000000000000006001600160a01b03168385602481845afa948515610b58578695610b29575b508415610aee578086913b156101b7578184518092636405dd4560e11b8252818381610a408c338b8401611787565b03925af18015610ae457610acc575b5080808087335af1610a5f6117a2565b5015610a975750907fddc398b321237a8d40ac914388309c2f52a08c134e4dc4ce61e32f57cb7d80f191519283523392a26001805580f35b82606492519162461bcd60e51b8352820152601160248201527015da5d1a191c985dd85b0819985a5b1959607a1b6044820152fd5b610ad590611264565b610ae057845f610a4f565b8480fd5b84513d84823e3d90fd5b5082606492519162461bcd60e51b835282015260166024820152754e6f2062616c616e636520746f20776974686472617760501b6044820152fd5b9094508381813d8311610b51575b610b418183611277565b810103126107a35751935f610a11565b503d610b37565b83513d88823e3d90fd5b50903461016f57602036600319011261016f5782610b7e61121f565b825163c258f53160e01b81526001600160a01b0391821694810194909452839060249082907f0000000000000000000000000000000000000000000000000000000000000000165afa918215610267578361023e949361024257505051918291826112f8565b50903461016f578060031936011261016f5781356024359160018060a01b0393828251916346a4237b60e01b83528201528581602481887f0000000000000000000000000000000000000000000000000000000000000000165afa918215610cfd57508591610ce3575b50845b8151811015610cdb5783610c658284611618565b51511480610cb6575b610c7a57600101610c51565b600192939450610c8c90608092611618565b5101527ffe09911b3ec9652ef94a11286713bd397f2fb090f28c62303451d8040ff62c628380a380f35b50846020610cc48385611618565b51015116331480610c6e5750848654163314610c6e565b505050505080f35b610cf791503d8087833e61034a8183611277565b5f610c4e565b513d87823e3d90fd5b509190346101b7576020928360031936011261016f5783610d2561121f565b835163181fad3960e21b81526001600160a01b0391821693810193909352829060249082907f0000000000000000000000000000000000000000000000000000000000000000165afa928315610db15792610d82575b5051908152f35b9091508281813d8311610daa575b610d9a8183611277565b810103126107a35751905f610d7b565b503d610d90565b8251903d90823e3d90fd5b5090346107a35760603660031901126107a3576024803592803592604435929091906001600160401b0384116107a357366023850112156107a3578382013590610e058261129a565b91610e1285519384611277565b808352602095368383830101116107a357815f928489930183870137840101528351632bd57b5960e21b81528381018790527f00000000000000000000000000000000000000000000000000000000000000006001600160a01b03169086818481855afa8015610fa4575f90610ff0575b610e8d9150611640565b600188101580610fe5575b15610fae578451632fb1c6b160e11b815292868486815f865af1938415610fa4575f94610f75575b50855193610ecd85611235565b84523387850152888685015260608401525f60808401524260a0840152803b156107a357865f8695610f1d8296885198899788968795638061bc9360e01b87528601528401526044830190611386565b03925af18015610f6b57610f47575b50905f8051602061187f83398151915291519384523393a380f35b5f8051602061187f83398151915292919550610f6290611264565b5f949091610f2c565b82513d5f823e3d90fd5b9093508681813d8311610f9d575b610f8d8183611277565b810103126107a35751925f610ec0565b503d610f83565b86513d5f823e3d90fd5b845162461bcd60e51b815280850187905260128184015271526174696e67206d75737420626520312d3560701b6044820152606490fd5b506005881115610e98565b508681813d831161101f575b6110068183611277565b810103126107a35761101a610e8d91611431565b610e83565b503d610ffc565b82346107a3575f3660031901126107a357517f00000000000000000000000000000000000000000000000000000000000000006001600160a01b03168152602090f35b839150346107a357816003193601126107a3576024356001600160a01b0381811694803593928690036107a357632e76c56d60e21b83528083018490527f00000000000000000000000000000000000000000000000000000000000000008216925f81602481875afa908115610fa45783916020915f91611205575b5001511633036111c2578560245f92875195869384926385a3439360e01b84528301525afa9182156111b8575f9261119c575b505f5b8251811015611192578361112f8285611618565b5151148061117a575b6111445760010161111b565b919050611152929350611618565b505b7f187090b179fb7e8c2670a325ae40d84b5ef651c9293a379ac384d99257124f4e5f80a3005b503382866111888487611618565b5101511614611138565b5050509050611154565b6111b19192503d805f833e6102578183611277565b9085611118565b84513d5f823e3d90fd5b606490602086519162461bcd60e51b8352820152601e60248201527f4f6e6c792073656c6c65722063616e206d61726b2064656c69766572656400006044820152fd5b61121991503d805f833e6109428183611277565b896110e5565b600435906001600160a01b03821682036107a357565b60c081019081106001600160401b0382111761125057604052565b634e487b7160e01b5f52604160045260245ffd5b6001600160401b03811161125057604052565b601f909101601f19168101906001600160401b0382119082101761125057604052565b6001600160401b03811161125057601f01601f191660200190565b60a08091805184526020810151600180841b0380911660208601526040820151166040850152606081015160608501526080810151608085015201511515910152565b60209060206040818301928281528551809452019301915f5b82811061131f575050505090565b909192938260c08261133460019489516112b5565b01950193929101611311565b5f5b8381106113515750505f910152565b8181015183820152602001611342565b9060209161137a81518092818552858086019101611340565b601f01601f1916010190565b908151815260018060a01b0360208301511660208201526040820151604082015260a0806113c3606085015160c0606086015260c0850190611361565b93608081015115156080850152015191015290565b51906001600160a01b03821682036107a357565b81601f820112156107a35780516114028161129a565b926114106040519485611277565b818452602082840101116107a35761142e9160208085019101611340565b90565b519081151582036107a357565b6020818303126107a35780516001600160401b03918282116107a35701906101409283838203126107a35760405193840184811083821117611250576040528251845261148d602084016113d8565b602085015260408301518281116107a357816114aa9185016113ec565b604085015260608301518281116107a357816114c79185016113ec565b606085015260808301519182116107a3576114e39183016113ec565b608083015260a081015160a083015260c081015160c083015260e081015160e0830152610100808201519083015261151f610120809201611431565b9082015290565b6001600160401b0381116112505760051b60200190565b60209081818403126107a3578051906001600160401b0382116107a3570182601f820112156107a35780519161157283611526565b9360406115826040519687611277565b848652828601918360c0809702860101948186116107a3578401925b8584106115af575050505050505090565b86848303126107a35784879184516115c681611235565b865181526115d58388016113d8565b838201526115e48688016113d8565b86820152606080880151908201526080808801519082015260a0611609818901611431565b9082015281520193019261159e565b805182101561162c5760209160051b010190565b634e487b7160e01b5f52603260045260245ffd5b1561164757565b60405162461bcd60e51b8152602060048201526016602482015275141c9bd91d58dd08191bd95cc81b9bdd08195e1a5cdd60521b6044820152606490fd5b9060209081838203126107a35782516001600160401b03938482116107a357019080601f830112156107a35781516116bc81611526565b946040906116cd6040519788611277565b828752858088019360051b860101948486116107a357868101935b8685106116fa57505050505050505090565b84518381116107a357820160c09182601f19838a0301126107a357855161172081611235565b8a83015181526117318784016113d8565b8b820152606093848401518883015260809081850151948886116107a3578d966117608d8980998501016113ec565b9085015260a092611772848301611431565b908501520151908201528152019401936116e8565b6001600160a01b039091168152602081019190915260400190565b3d156117cc573d906117b38261129a565b916117c16040519384611277565b82523d5f602084013e565b606090565b6002600154146117e2576002600155565b60405162461bcd60e51b815260206004820152601f60248201527f5265656e7472616e637947756172643a207265656e7472616e742063616c6c006044820152606490fd5b5f546001600160a01b0316330361183a57565b606460405162461bcd60e51b815260206004820152602060248201527f4f776e61626c653a2063616c6c6572206973206e6f7420746865206f776e65726044820152fdfe52604caa1710245cf3f94d9ba89ff921bb23d98741f57a258794b86f3ba8e7fc8be0079c531659141344cd1fd0a4f28419497f9722a3daafe3b4186f6b6457e0a164736f6c6343000818000a",
  "linkReferences": {},
  "deployedLinkReferences": {}
}